:020000040800F2
:10000000B8040020E9340008A5320008A73200082F
:10001000093500080D350008113500080000000002
:10002000000000000000000000000000A9320008ED
:10003000AB32000800000000AD320008AF3200080B
:1000400015350008193500081D350008BF320008B5
:100050002135000825350008C3320008293500087D
:100060002D350008313500083535000839350008D0
:100070003D35000841350008453500084935000880
:100080004D350008513500085535000800000000C6
:1000900000000000000000000000000059350008CA
:1000A0005D350008613500086535000869350008D0
:1000B0006D35000871350008753500087935000880
:1000C0007D35000881350008853500088935000830
:1000D0008D350008913500089535000800000000B6
:1000E000C9320008993500089D350008000000005D
:1000F000000000000000000000000000A135000822
:1001000000000000A5350008A9350008AD3500083D
:1001100000000000000000000000000000000000DF
:10012000E1320008B1350008B53500081933000880
:10013000B9350008000000000000000000000000C9
:10014000000000000000000000000000BD350008B5
:10015000C1350008C5350008C9350008CD3500088F
:10016000D1350008D535000800000000000000006F
:10017000000000000000000000000000000000007F
:1001800000000000D9350008000000000000000059
:10019000DD350008DFF8E015002008707047DFF853
:1001A000DC05C06E004710B5DFF8D4452068816CCF
:1001B00009680A68520852000A60C06C0068016849
:1001C00049084900016072B6062000F03EFB94F831
:1001D0002400012808D1002084F824000120207187
:1001E00062B6BDE8104081E10020207162B610BD0A
:1001F00010B5DFF88C4501206074FFF7D4FFDFF8FD
:10020000840561890068BDE81040C9B200F0F0BB08
:1002100080B5012000F01EFABDE80440002177E11E
:1002200010B5DFF8584504F1140000F01CF8DFF8B1
:100230005005DFF8543504F114010160002200215B
:10024000017180F824106069416841F00301416048
:10025000016841F040010160032004F11001BDE894
:10026000104000F0B9BEDFF8241501604FF4827130
:10027000416000218160C160016141614FF4007102
:1002800081610021016241620721C1620021C161D7
:10029000816200F01BBF30B587B04FF480700290D0
:1002A000002005900022DFF8E8346946032000F0C2
:1002B00093FE002001900022DFF8D804DFF8D84434
:1002C0000168DFF8B45441F0010101604FF480711E
:1002D000006800F0010001900198204601F00CF840
:1002E0000120039002A900200490204600F032FF74
:1002F0009DF80000012100F0BAFE00F013F8012281
:100300004FF48071204600F0F7FF9DF800005D215A
:1003100000F0ADFE00F006F89DF8000000F07FFE52
:1003200007B030BD0120287028780128FCD0704724
:1003300038B5DFF84C44251D68610020A9612A7793
:100340006B77E87772B6287840B9012028700620CC
:1003500000F07BFA62B6BDE83140C7E0012084F8C6
:10036000240062B631BD10B5DFF830440120606072
:10037000062000F079FA062000F061FA00F0B2F8E9
:10038000012803D1206840F00100206010BD002248
:1003900007E0DFF8EC030068006880680006F8D426
:1003A00001220221DFF8F00300F0A6BF80B5FFF7BD
:1003B000F0FF0D204FF00051401E0968FAD1BDE852
:1003C0000140E4E7F8B5DFF8B803DFF8D453066876
:1003D000DFF8D023F16CDFF8D0330F68DFF8CC13EF
:1003E000DFF8CC43AF4202D320275F600AE0A74288
:1003F00002D320271F6005E0974227BF20274F60C8
:1004000020270F60B66C36684FF00067AE4228BFF9
:100410005F6007D2A64228BF1F6003D296422CBF5E
:100420004F600F60017ADFF8544319B1022919D0E7
:1004300028D3F1BD2079E17851EA002002D020785C
:1004400002282AD000F04EF840B9FFF7A2FF06219B
:10045000012000F073FFBDE8F140A4E6FFF7A6FF1E
:1004600000201AE0FFF795FF0621012000F066FF4B
:10047000D048E066207C20730220A060BDE8F140F7
:1004800001F012B9A178627852EA012102D02278F3
:10049000022A05D0FFF78AFF0120BDE8F240D9E02B
:1004A00000F1210295781378012D1C460FD090F8A9
:1004B000200054FA80F4A14205DA081A191A1170C2
:1004C0000121917000E018465070002007E0A14221
:1004D000B2BF581A19460020107051700120BDE8B3
:1004E000F2406AE00121AC4800F000BF10B50620E0
:1004F00000F0ABF9A14CB048E066FFF748FF207C64
:1005000020730620A06001F0CFF8BDE8104006215E
:10051000002000F013BF10B59948A14C0168A24A11
:10052000896C0968A1424FF0006306D2A04CA14239
:1005300005D29C4C9D4AA14201D3536000E0136058
:10054000027D00F1210112B1012A06D010BD4878C8
:1005500090B1BDE8104001202FE08A78012A0BD12C
:100560000A784AB1C26949788918C161FFF71EFF4C
:10057000BDE8104001206DE0BDE8104010B5062137
:10058000002000F0DBFE7E4C00202071FFF701FF11
:100590002068816C09680A68520852000A60C06CC1
:1005A00000680168490849000160607C002804BFB8
:1005B000BDE81040FFF7D7BE10BD38B5704D0446FA
:1005C0002868816C0A6813685B085B001360C06C64
:1005D000026813685B085B0013600068704B026878
:1005E00022F0100202604FF0006208686E499842E3
:1005F00006D26F4B984205D26A4B6C49984201D3A0
:100600004A6000E00A603B2000F02EF92868806C08
:1006100001680A6842F010020A6001680A6842F440
:1006200080620A6014B1012C08D010E00021297505
:10063000026895F820105160A96906E0012129752A
:10064000026895F822105160E9690268D16000F0F3
:1006500056F831BD70B54A4C2268916C0B681D6824
:100660006D086D001D60D36C1D682E6876087600DD
:100670002E6004251668367B6D1EFBD11A68136840
:1006800043F01003136009680A6822F010020A6040
:1006900018B102280AD003D326E00FF2281102E095
:1006A0000FF21811012000F030F81DE020723348DD
:1006B0000179C07840EA0120217C814238BF084698
:1006C000216860818A6C13681D6825F480651D604F
:1006D000C96C0B685860136858600968E068C860A6
:1006E00011680FF2E800C8602068C16C09680A68E8
:1006F00042F001020A60806C00F001F870BD0068F1
:10070000016841F001010160704710B51C4A107288
:100710001068826C13681C6844F480641C600523B4
:1007200014686360C06C046863600068134BC36046
:100730001068C16010BD124AD0600020117450745E
:1007400011E680B572B60E48017969B901210171CF
:1007500062B6FFF71CFE0020FFF77CFFBDE80440F7
:100760000021012000F0EABD62B601BD03488168A6
:10077000007B00F07CBC0000EB090020F4080020A6
:1007800064090020D40900209F01000800300140C6
:10079000950100083038024000000240103C014042
:1007A00059640240596002400864024008600240F7
:1007B000B9600240F1010008110200080A000000BF
:1007C000000000000B00000000000000FF0000001F
:1007D0000901002806D5274A00F00F00801800F80C
:1007E000041C7047244A8154704724490A684FF614
:1007F000FF031A4000F0070042EA0020204A10439D
:100800000860704738B51D4B1B68C3F30223C3F162
:100810000704052C28BF04241D1D072D34BF002309
:10082000DB1E012505FA04F4641E2140994005FAF7
:1008300003F35B1E1A401143BDE83440C8E70121B1
:1008400000F01F0291400F4A04E0012100F01F0256
:1008500091400D4A400942F820107047012100F0F4
:100860001F029140094AF5E7012100F01F02914063
:10087000074AEFE718ED00E000E400E00CED00E0CF
:100880000000FA0500E100E080E100E000E200E0A5
:1008900080E200E010B5B34C82B0A07801280ED100
:1008A00004F1100000F00DFF48B9A070694604F192
:1008B000100000F02FFF0098802100F047FF13BDCB
:1008C000A84901204870704738B5A64C04F11000C3
:1008D00000F0F4FE04F1180000F0F0FE00258C207A
:1008E00010FB054000F1200100F063F86D1C052DA0
:1008F000F5DB0120A07031BDCCE770B5994C00F15B
:100900000803A3600021E3782BB9E38003E0042B04
:100910004ED10323E370E388802B49DAE3885D1C22
:10092000E580A568E6785B5D002EF0D0032E08BF59
:100930000623EFD0042E08BF0523EBD0052E08BFF9
:100940000723E7D0072E08BF0823E3D0082E04D1E1
:10095000B5F8032000210923DCE7062E01D11A4651
:10096000F8E7092ED7D1491C89B292B29142D2D36D
:100970000021E17000F108014A1C097804290CD11A
:1009800011780E2918BF0F2907D0014604F118006D
:1009900000F0AAFE00F008FE02E0014600F009F8AF
:1009A000E06828B1E188A068E268BDE870401047BF
:1009B00070BD04F1100000F097BE10B582B00020A9
:1009C0000090684C0DE0694604F1180000F0A2FEAA
:1009D0000098083001F025F90099FFF7EAFFFFF7CA
:1009E00059FF04F1180000F06CFE0028EBD013BD95
:1009F00080B55C4A0123937011B1FFF77EFF04E0DC
:100A0000014602F1100000F065FEBDE8014041E73B
:100A100000F098BE70B5890582B0890D41EA80204A
:100A2000ADF800000120504E307014461D468DF880
:100A3000024003226946701C01F02EF9234604226D
:100A400029463046FFF7E4FF73BD4649012008718F
:100A500070472DE9F8430446424F60882188DFF84B
:100A60000C918005800D40EA8125414800680A21EB
:100A7000B0FBF1F6002038714FF00A0800F0F5FDE8
:100A80003C48F860E068A3686188C2B22088FFF73C
:100A9000C1FF2FE000F0E8FD787838B1387801F038
:100AA00027F900F069F84FF0FF3057E03879002857
:100AB000F0D0387801F01CF9B868024611780429A2
:100AC00016D1C11CF8885278C01E0E2A26D00F2AD3
:100AD00004D0102AE5D03E2A2ED009E04A88ADB2D3
:100AE000AA4205D162680F2A13D008780028D8D10D
:100AF000002038715FEA0800A8F10108D1D006B9DA
:100B00000126002078703A464946304601F0DCF86C
:100B1000C2E762699042C8BF10460AE0B1F80120FE
:100B2000ADB2AA42E4D16269C91CC01E9042C8BFDE
:100B30001046606102460BE00A7863689A42D7D19A
:100B40006269401E9042C8BF104660610246491C5F
:100B5000206901F0A1F800F00FF80020BDE8F28351
:100B600000000000B8040020D8090020C1080008D7
:100B7000043500084B0A00080020F860012000F04E
:100B800074BDF0B589B000F028F800F07BF800F0F3
:100B900084F8042000F07CF8012000F028F80920F7
:100BA00000F054F8002802D49DF8000010B14FF076
:100BB000FF3010E09DF801002070BDF80200288091
:100BC0009DF804003070BDF8050038800E99BDF81E
:100BD00007000880002009B0F0BD04460D46164607
:100BE0001F4670471822002101A801F05BB8ADF83C
:100BF0000E000021002005900690704730B58FB0A0
:100C000000F01DF88DF81C40202CA8BF1F2400F018
:100C100010F8FFF7E7FF00F02AF8092000F021F8AC
:100C200020200490012000F029F800F012F80FB005
:100C300030BD224629460DF11D0001F02DB80446B5
:100C40000D462022002107A801F02CB8089003A827
:100C5000FFE6002802D49DF8000008B14FF0FF30F5
:100C60007047ADF80600002107A8039070470820E0
:100C7000ADF80400CDF814D070470320069001A809
:100C8000E7E6044609220021684601F00BB8082077
:100C9000ADF80C00CDF81CD070471822002103A835
:100CA00001F000B82DE9F041DFF80464DFF80484B6
:100CB000044630781425082815FB048709D13078BC
:100CC00070703470082038744FF6FF70F080002088
:100CD00039E000F06AF8B96811FA80F1B960B968D2
:100CE000327815FB0282926891421AD3327802E080
:100CF00015FB0282127C15FB02831B7C082B04D09F
:100D000015FB03839B689942F2D215FB02810B7C91
:100D1000082B1CBF15FB0385EC733B74FA730C7432
:100D200011E031783378994215FB018206D0D37BEC
:100D300015FB03852C743974FB7300E03974D4738C
:100D4000317871703470BDE8F081F0B5D84BD94D71
:100D50001E781424B04214FB005204D11878587045
:100D6000107C18700BE0D07B167C177C14FB0050B5
:100D7000082E077403D0D07B14FB0654E0730120C7
:100D800010731878082802BF00294FF6FF70D8802A
:100D9000F0BDC749C96809684FF6FF7000E0886A6E
:100DA0008A6A9042FBD180B2704710B5C04CE0888F
:100DB0004FF6FF71884211D0FFF7EBFFE1888142C7
:100DC000E18828BF081A04D2228912FA81F1081A90
:100DD000401C21794843E178C84000E0002080B2FF
:100DE00010BD2DE9F843B24CE568286881684905D3
:100DF00002D5C1684907FCD48168DFF8B88221F4C4
:100E0000806181604FF01409277819FB078086689C
:100E1000FFF7CBFF864238BF002608D3618910FA5E
:100E200081F1B14202D26689002101E0361A012126
:100E3000A17001E08A600F7C082F08D019FB0781A0
:100E40008A68824232BF00228A68121AF2E7B6B27A
:100E50003EB9FFF79EFFE0800320BDE8F243FFF7B5
:100E6000FDBC022E02DAE078012800D0761E286848
:100E7000C1684907FBD500F0A6F88F490860032038
:100E8000FFF7F2FCE5682868B6B24661FFF781FF1C
:100E9000E0802868816841F480618160BDE8F18369
:100EA0002DE9F041EFF3108872B68148C1680968F6
:100EB0008A6822F480628A60CA6802F0800262F462
:100EC0009062CA604FF480017B4A11601422057859
:100ED000784912FB0516317B02291ED13768B47B95
:100EE0008078C0B1707B01280AD101212846FFF724
:100EF0002CFF88F310887168284600F0B8F804E0E9
:100F000088F31088284600F095F83A46294620468E
:100F100000F09FFB03E0FFF764FF88F31088BDE853
:100F2000F08138B5624CE0600168896801F0070122
:100F3000C1F10401E17002681269120C02F07F0233
:100F4000521C2271D2B203681B695B045B0C2381C3
:100F50005B1E5A430A41A2F110014FF6FF72914203
:100F60002CBF628161810121A170E2800021514A80
:100F70000023142515FB0125491C08292B73F8DBD8
:100F80000821217000684D4D816821F480618160E5
:100F900000F019F868610320FFF766FCE06800685C
:100FA000816841F4804181600022A86840F480009B
:100FB000A8600321286840F4800028600320BDE871
:100FC0003840FFF71FBCC16801F0800161F49061F7
:100FD000C1604FF480007047F0B50024EFF3108536
:100FE00072B61426334F06FB047C9CF80CC0BCF18F
:100FF000000F02D0641C082CF5DB082C0BD006FB7C
:1010000004760127377385F31088B07372733360E9
:101010000C700020F0BD85F310880120F0BD10B5E4
:10102000044600F007F82349142212FB04110020A3
:10103000087310BD38B5054600F042F81D4814216C
:1010400011FB0500007B02280BD100212846FFF789
:101050007CFE17480178407888421CBF0829FFF7BA
:10106000C0FE0320FFF7EBFB84F3108831BDF8B519
:1010700006460F4600F024F80E48142111FB060521
:1010800002202873AF606F603046FFF70BFE0849FF
:101090000A784978914202D0FFF7A3FE02E0A968DE
:1010A000081AA8600320FFF7CAFB84F31088F1BD7B
:1010B000BC09002054080020143C0140003C0140C1
:1010C000EFF3108472B60320FFF7BFBB38B50500FD
:1010D00001D1012032BD05F15004607818B92070AB
:1010E000284600F00BFE022060702868016821F09D
:1010F000400101606868A9680843E96808432969F4
:10110000084369690843A96901F400710843E96962
:101110000843296A0843A96A084329680860A8693E
:10112000696A000C00F00400084329684860A86A56
:10113000B0F5005F02D12968E86A08612868C169D2
:1011400021F40061C1610020606001206070002016
:1011500032BD00002DE9F84700226F4BDFF8BC815B
:10116000DFF8BC914FF00F0A012707FA02FC0F6865
:101170000CEA0707674540F0B3804C68022C18BFA3
:10118000122C10D1D40800EB840E02F00704DEF814
:101190002050A4000AFA04F6B5430E6906FA04F4D6
:1011A0002C43CEF820404FEA420E032405680E7906
:1011B00004FA0EF4E44306F00306254006FA0EF6A0
:1011C000354305604D68012D18BF022D03D0112D48
:1011D00018BF122D0FD18568CE68254006FA0EF68D
:1011E00035438560456825EA0C064D68C5F3001552
:1011F000954035434560D0F80CC004EA0C0C8C686F
:1012000004FA0EFE4EEA0C0CC0F80CC0D1F804C073
:101210005FEACC0C64D5002400944FEA920CD9F814
:10122000004044F48044C9F8004002F00305D9F8B6
:10123000004004F4804400944FEA850E009C58F866
:101240002C400AFA0EF5AC43364DA84208BF0025E3
:1012500013D0354DA84208BF01250ED0334DA8420A
:1012600008BF022509D0324DA84208BF032504D08B
:10127000304DA8420CBF0425052505FA0EFE4EEAA6
:10128000040448F82C406FEA070C1C680CEA040EB2
:101290004C68E40348BF47EA0E0EC3F800E05C6800
:1012A0000CEA040E4C68A40348BF47EA0E0EC3F8CC
:1012B00004E09C680CEA040E4C68E40248BF47EA6C
:1012C0000E0EC3F808E0D3F80CE00CEA0E0CD1F8CF
:1012D00004E05FEA8E2E48BF47EA0C0CC3F80CC04E
:1012E000521C102AFFF440AFBDE8F18700690840A6
:1012F00018BF0120C0B2704702B90904816170476C
:101300000D4A1368034200D1704780B5106000F0A9
:1013100025FA01BD00000000003C014008380140F2
:10132000443802400000024000040240000802402D
:10133000000C024000100240143C0140F0B5EFF3F5
:10134000108272B62B4BDF681D685E689C684FF098
:10135000010C0CFA00F0082908BF074314D05FEA1B
:10136000417E6FEA000C4CBF0CEA050505435FEABD
:10137000817E4CBF0CEA06060643C9070CEA070744
:101380004CBF0CEA040404439C605E601D60DF6097
:1013900082F31088F0BD38B5EFF3108472B61548AB
:1013A000C16819BB016821B10121002000F08FFD47
:1013B0001CE08168104D51B9C046C046286840F015
:1013C0000400286000F0A5FDC046C0460EE0296874
:1013D00041F0040129604068002819BF0121002064
:1013E0000121012000F07FFD00F06AFE84F31088E7
:1013F00031BD0000AC0900200070004000207047A3
:1014000038B500F05FFE00F083FE00F095FD01218D
:10141000002000F0A5FE984C984D0120606400204B
:101420000090A86B40F08050A863A86B00F080503B
:101430000090009800F046FD00F044FD286820F47C
:10144000F8102860A86E40F40070A86601202060A3
:101450008B4C8C482060002020770120607720464C
:1014600000F0D2FE0120A06047F6FF70E060204649
:1014700000F0DEFE2168CA204862532021684862DD
:101480000321204600F03EFFE86E8007FCD5204691
:10149000FFF747FD002301227B490020FFF79CFD59
:1014A00006210220FFF74AFFFEF7BAFE00F003F81C
:1014B00000F07FF8FCE710B50FF2F811734C8CB018
:1014C0000CC909A80CC0FFF7FFF9FEF7E4FEFFF70F
:1014D00013FA06A904A800F01CFFFEF7DCFE9DF835
:1014E0001000312804DB0120207002208DF8290033
:1014F000062209A907A800F0CFFB07AA06210020B1
:1015000000F032FF00F090FF207801280CD10DF19F
:101510001600019005AB0DF112000090072200218A
:10152000012001F0FDF807E00DF116030DF11202A4
:1015300005A9012001F024F90FF27010BDF8121076
:1015400000900723BDF81400002201F06CF800B1F0
:10155000FEE70120039007234D480290002200205F
:101560000190002110200090012001F0ABF900F063
:1015700001F900F0A0F90421012000F020FF0CB0D7
:1015800010BD72B643494A68012303FA00F01043C4
:1015900007E072B63F494A68012303FA00F022EAE5
:1015A0000000486062B670470020EAE700BF0120F3
:1015B000E7E710B5374C2079800707D5207828B9A0
:1015C0000120FFF7E6FF344800F016F82079C00745
:1015D00005D5207818B9FFF7DCFFFFF7EEF972B6F2
:1015E000606828B18008800004BF2078012801D1FC
:1015F000FFF7D1FE62B610BD70B5284D04462878BD
:1016000060B1214E3078FFF715FD00F088FA002018
:10161000287043F601613078FFF729FD2048016802
:10162000B1B1002101601F48006858B120686430E2
:101630002060606864306060A0686430A06020460C
:1016400000F01AF9BDE8704006210220FFF776BECF
:1016500070BD20B1022818BF032803D000E0A6E720
:10166000100000D010477047A3E7411E8941094888
:10167000C90F0170704700003C0E47420838024015
:101680008C09002000280040E8090020E90900201A
:1016900040E20100CC0900201800002000000020DA
:1016A000E409002014000020FFF760B8426C756563
:1016B0004E524700123400E1800300000060406099
:1016C0007047EFF3108172B6026882420CBF0120AE
:1016D00000201CE0EFF3108272B603680B604860D4
:1016E00001600868416029E0EFF3108272B608607B
:1016F00043684B604160486801601FE0EFF3108170
:1017000072B6436802681A6042680068426081F3FA
:101710001088704738B50C46EFF3108572B6016833
:1017200021600068FFE7FFF7E9FF216800200860FB
:101730002168486085F3108831BD086082F3108805
:1017400070470000DBB2D2B2FEF7F2BD024A106071
:101750000830FEF7F0BF0000D4090020012808BFC0
:10176000FEF7EFBFB0F5005F03D108210220FFF7BD
:10177000E5BD704730B58BB01B208DF8180006AC66
:1017800000F092F9B420A0719A2000F06FF83A208E
:1017900000F066F86E2060733620A0730220E073BC
:1017A0000723DFF8E054281D0090012206A902203B
:1017B00000F055FE00284AD11B208DF818000123A7
:1017C000C520607006AA00F081F9FC20A0718F206E
:1017D00000F04CF84A20A072CF20E072A0202073C5
:1017E000782060733E20A073E220E073A81D00F013
:1017F00031F800200290019010200090A88800F09D
:1018000063FE20BB1B208DF818000623C5206070E6
:1018100006AA00F05BF93620A071AC2000F026F893
:101820004B2000F01DF81B2060730A20A0733420A9
:10183000E07305F1080000F00DF80420029000208C
:10184000019012200090A88800F03EFE00B14720D1
:101850000BB030BD0590002004901020039070471D
:10186000A072CF20E072802020737047E071E120E9
:101870002072112060727047E0B501688DF8041085
:101880000623016809128DF80510002241688DF8C1
:101890000610416809128DF8071081688DF808104C
:1018A00001A98068009100128DF80900DFF8D403C7
:1018B0000189808823E1F0B591B01B208DF83000BC
:1018C0000CAC00F0F1F8D020A071822000F0BAF842
:1018D000402020731A2060738220A0734220E0739E
:1018E0000A23DFF8A05305F10A00009001220CA999
:1018F000022000F0B4FD002825D100F0E0F8E3203C
:10190000A071A92000F09EF820202073552060735C
:101910002E20A073A320E07305F10C0000F0B6F8B0
:10192000002810D10E208DF828004FF0FF3642F22B
:101930002F70ADF82A0042F6041700F08DF8A9893F
:1019400000F073F800286DD11B208DF830000323C0
:1019500000F0B9F80B20A071842000F06DF88B2006
:10196000A072E420E07280202073C42060732020E5
:10197000A073CD20E07305F10E0000F087F8002879
:1019800050D10F208DF828006FF004008DF8290049
:101990004FF41E50ADF82A0000208DF82C00ADF851
:1019A0002D000DF1260008900020079010200690D1
:1019B0000020059001200490002003900AA80290C6
:1019C000072001900090ADF82470E989688909AB7F
:1019D000012200F0C9FD002824D100F070F8732026
:1019E000A071A02000F028F88C20A072E420E07202
:1019F000602020730B206073C520A0730120E0736A
:101A000005F1100000F042F860B906208DF82800BA
:101A10004FF41C50ADF82A0000F01EF8298A00F09F
:101A200004F800B1472011B0F0BD6889ADF824700A
:101A300009AB012200F098BDE071E2202072112074
:101A400060727047E071E22020721120607277208E
:101A5000A072E420E072704700208DF82C00ADF8F1
:101A60002D000DF126000890002007901020069010
:101A70000020059001200490002003900AA8029005
:101A80000720019000908DF8296070470590002094
:101A90000490102003900420029000200190022066
:101AA0000090688900F010BDC5206070D520A0703E
:101AB000A520E070022020710020607170471B207B
:101AC0008DF830000223C52060700CAAD520A070CC
:101AD0000221A520E0700220207100206071704773
:101AE00001B582B000F010F80223818905E001B54C
:101AF00082B000F009F80323C1894089002200F078
:101B000092FD00B147200EBD02A95E4800917047CA
:101B100001B582B0FFF7F8FF0223018AEDE700B5B7
:101B20000FF26C1189B00CC907A800210CC000206D
:101B3000FFF764F8002006900590049003900023BE
:101B400007A80290002208200190002100200090A8
:101B500000F042FE012000F08EF809B000BD4948B7
:101B600001224261418070474648002141610121C4
:101B7000017000214170704730B5424C83B021891B
:101B8000491C884204D104F11800FFF775FE3BE0C0
:101B9000A189491C884211D100F0EEFE054604F1EE
:101BA0001800FFF769FE0F2080FB050100F034F8F4
:101BB00000F5877000B2FFF793FF25E0E189491C2B
:101BC000884213D1304800680A21B0FBF1F1684621
:101BD00000F072F800F0D0FE4FF47A7100F01AF8BD
:101BE00000F5C330A030FFF782FF0DE0218A491CC9
:101BF000884209D100F0C0FE642100F00BF800F526
:101C0000E17080B2FFF784FF608810B1608800F057
:101C100076FD37BD81FB00016FF04042002300F0EC
:101C20001BBF38B50446012000F025F82078651C5C
:101C300004281FD12878052804D03E2805D0FF2885
:101C40000ED031BDBDE831408EE7A81C01780129D6
:101C500010D1401CBDE83440B0F80110401D7EE7B3
:101C6000A81C40F614420188914203D1BDE83240DD
:101C7000808881E731BD05490870012808BFFFF75A
:101C800095BC70470000002004350008EA090020D8
:101C900009426C75654E524710B5044600F054FF7A
:101CA000204610BD10B5044610460A46014620469F
:101CB00000F086FF204610BD10B504466160FFE7C6
:101CC00000F0B1FF206010BD38B5044615460B4644
:101CD000002229460220FFF77FF94FF47A70604313
:101CE0003F21B0FBF1F12878FFF7C1F9002032BDA8
:101CF00080B5FFF794F9002002BD00002DE9F04304
:101D0000044687B020685249884240F09E800020F7
:101D1000009001A94F4D504E286840F00200286005
:101D2000286800F002000090009800F0B4F800F07D
:101D3000B2F800200090686940F4805068616869DA
:101D400000F480500090009808200190022002903A
:101D50000020039003200490052005903F48FFF7E2
:101D6000F9F9402000F08AF8802000F087F802207E
:101D7000019001A901200290002000F077F80122D3
:101D800002213046FFF7B8FA0120019001A934483A
:101D90000290022000F06AF8002000902868DFF826
:101DA000C49040F4800028604FF0C06628682E4D33
:101DB00000F4800000904FF4806700986E6040202F
:101DC000A8604FF400380020E8606861A861E8610D
:101DD0002F6109F148002860C5F82080284600F0EE
:101DE00025FF206829680C308860A5640020A8665B
:101DF000E8666867A867E867AC636E662F67C5F832
:101E00008080C5F8609005F1600000F00FFF206849
:101E1000296E0C308860002205F16000E064C5F88E
:101E2000984001213B20FEF7EDFC3B20FEF707FD2B
:101E3000002201213820FEF7E5FC3820FEF7FFFCE8
:101E4000002202210620FEF7DDFC07B0BDE8F0838A
:101E500000300140303802400000024000040240DF
:101E6000000011101064024094070020039003202A
:101E70000490002005903046FFF76CB9019001A94D
:101E8000022002900020039003200490052005907A
:101E90003046FFF75FB900200090286840F001004D
:101EA0002860286800F00100009000980020009051
:101EB000286840F001002860286800F001000090C8
:101EC000009870471949FFE70120086070471948DA
:101ED000026822F00402026001290FBF30BF40BF38
:101EE00020BF20BF7047124A13689B0840EA830056
:101EF000106001290F48026842F0040202600FBF1F
:101F000030BF40BF20BF20BF016821F00401016045
:101F100070470748016841F0020101600548016807
:101F200041F00401016030BF7047000020000E4204
:101F30000070004010ED00E010B586B000F00AFF20
:101F4000574C206A40084000206201A9206A20F016
:101F500002002062206A20F004002062206A20F043
:101F600008002062206A20F010002062206A20F021
:101F70008000206200200090206840F00100206076
:101F8000206800F0010000F060F840F002002060DE
:101F9000206800F0020000F058F840F004002060D3
:101FA000206800F0040000F050F840F008002060C5
:101FB000206800F0080000F048F840F010002060B1
:101FC000206800F0100000F040F840F08000206031
:101FD000206800F08000009000980320029000200C
:101FE00003904FF6FF7001902E48FFF7B3F801A958
:101FF0002D48FFF7AFF801A92C48FFF7ABF801A96E
:102000002B48FFF7A7F801A92A48FFF7A3F801A971
:102010002948FFF79FF820684008400020602068AA
:1020200020F002002060206820F00400206020687A
:1020300020F008002060206820F010002060206858
:1020400020F08000206006B010BD009000980020B5
:1020500000902068704700B591B0082005900020DE
:102060000B9001200A9005A800F07CFE00B1FEE76D
:10207000022000904FF400700390684601F074F85D
:1020800000B1FEE70D490120086000220F21032066
:10209000FEF7B8FB0320FEF7D2FB11B000BD000035
:1020A000303802400004024000080240000C0240A8
:1020B00000100240001C0240000002403C0E47425B
:1020C0007047000080B51048016841F4007101605C
:1020D000016841F480610160016841F48071016030
:1020E0000320FEF782FB0F20FFF788F900F002F8CB
:1020F000002002BD704705480168491C0160704717
:102100000248006870470000003C0240DC090020E3
:1021100000B593B0002000901048016841F0805154
:102120000160006800F08050009000980220069046
:1021300010200A90012009900C9006A800F012FED1
:102140000F20019000210020029003900490059040
:1021500001A800F02CFF13B000BD00BF40380240C2
:10216000F0B587B00546002000900E46DFF87000FD
:10217000DFF8704001680FF2740741F0040101605C
:10218000006800F00400009000984EB900F021F8BB
:10219000029002200390049054F82500FEF7DAFF25
:1021A000012E14D100F015F80390DFF83C000290E6
:1021B00054F82500FEF7CEFF0FF234002C5C00220D
:1021C0000F2160B2FEF71EFB60B2FEF738FB07B0CE
:1021D000F0BD37F81500019001A9002070470000FC
:1021E00030380240240000200000211000200000B0
:1021F000280000008A60FF210268516201214177B6
:102200000021017700207047017F012901D10220C0
:1022100070470121017702214177CA21026851628A
:1022200053210268516201688A6842F02002E1E7A6
:1022300038B504000ED0607F18B920772046FFF72C
:102240000AFF00F034F8FF250028206804D045621A
:1022500004206077012032BD8168DFF868201140DA
:10226000816020688168626823691A4363691A4340
:10227000114381602168E068086120680169A268F3
:1022800041EA024101612068C16821F08001C1601A
:102290002068016C21F4802101642068016CA2692E
:1022A000114301642068456200F00EF832BD02203F
:1022B0006077CA202168486253202168486220461E
:1022C00006E00000BFFF8FFF01206077002070470D
:1022D00038B504462068C168490611D44FF0FF3173
:1022E000C160FFF70DFF05462068C068400607D4AF
:1022F000FFF706FF401BB0F57A7FF5D9032032BD0A
:10230000002032BD00688268D20841EAC2018160C3
:10231000704770B584B0064601A800900C460DF1D8
:102320000A0302AA0DF106010DF10900FEF729FCCE
:10233000C5B2A5B9BDF80600000A3070BDF80600A8
:1023400000022080BDF804100906090F40EA0110C0
:102350002080BDF8041001F00F0108432080FEF733
:102360002CFB284604B070BD10B50C461146A21CCB
:10237000A8B0812AA8BF42201FDA8DF81C008DF872
:102380001D4022460DF11E00FFF786FC00F03BF8D1
:1023900000F033F80C20ADF80600002107A80390E8
:1023A000A01CC0B204900120069001A8FEF751FBCA
:1023B00000284CBFFF209DF8000028B010BD00B5DC
:1023C00089B08DF804008DF805101822002102A8AC
:1023D000FFF768FC00F022F80F2000F019F8022047
:1023E00005900120079002A8FEF733FB00284CBFA0
:1023F000FF209DF8000009B000BD3F20ADF80400AB
:10240000CDF814D070471822002101A8FFF74ABC6C
:10241000ADF80A00002101A8049070473F20ADF8F4
:102420000800CDF818D0704700B587B000F043F928
:1024300000F03BF940F20110ADF80600002100F079
:1024400009F800284CBFFF209DF8000007B000BD30
:10245000C0B204900120069001A8FEF7FABA70B548
:102460008CB001288DF81C0014460CBF02261026E3
:102470001D4632460DF11D00FFF70EFC701C07A92A
:10248000C0B203224454441CE4B26846655400219F
:10249000FFF708FC00F00FF900F007F94FF4817026
:1024A00000F0BBF8601CC0B204900320FFF7D3FF1C
:1024B000002848BFFF2005D49DF8000010B91099EE
:1024C00000F049F80CB070BDF1B58EB00D4616465F
:1024D0001F4602220EA900F0FDF807AC012DA570E1
:1024E00031460CBF022510252A4600F0DAF8E81C18
:1024F000C0B2411C0755C9B214980855491C15981B
:10250000C9B203220855491C1698C9B20855491C7E
:102510001798C9B24D1C0855EDB21898285500F00F
:102520001FF800F0C8F800F0C0F84FF4827000F017
:1025300074F8681CC0B204900320FFF78CFF0028D9
:1025400048BFFF2005D49DF8000010B9199900F08C
:1025500002F80FB0F0BDBDF8010008800020704700
:1025600000216846FFF79EBB73B5A8B014461D4610
:1025700000F0AEF800F0B1F88DF82040012C0CBF4F
:102580000224102400F09EF8611D07AD2E98C9B2F8
:102590004855481C2F9CC0B2461CF6B256FA84F12E
:1025A0004455491D8129A8BF422034DA309907AB30
:1025B0002246F018FFF770FBA1193198C9B2032227
:1025C0004855491C3298C9B24855491C3398C9B27C
:1025D0004855491C3498C9B24E1C4855F6B2359836
:1025E0007055FFF7BDFF00F066F800F05EF840F2AE
:1025F000051000F012F8701CC0B204900320FFF721
:102600002AFF002848BFFF2005D49DF8000010B91C
:102610003699FFF7A0FF2AB070BDADF80600002183
:1026200007A80390704733B51C46A01DA7B08128AA
:102630001546A8BF42201FDA022227A900F04AF857
:10264000022228A900F04BF82C998DF820508DF823
:102650002140224600F012F800F02DF800F025F895
:102660004FF48370FFF7D9FFA01DFFF7F1FE00289C
:102670004CBFFF209DF8000029B030BD0DF12200B5
:10268000FFF70ABB3F20ADF80800CDF818D070471F
:102690001822ADF80400002102A8FFF703BB224670
:1026A00019460DF11F00FFF7F7BA3F20ADF80400FF
:1026B000CDF814D070471822002101A8FFF7F2BA14
:1026C0008DF82040224629460DF12100FFF7E4BA9B
:1026D000022228A907A8FFF7DFBA022229A90DF1D3
:1026E0001E00FFF7D9BAADF80A00002101A8049036
:1026F000022005900120079002A8FEF7AAB900B5B4
:1027000089B0FFF7C5FFFFF7BDFF40F22710FFF7C5
:10271000EAFF00284CBFFF209DF8000009B000BD73
:1027200010B58AB08DF800008DF801108DF80220E8
:102730001C46072200F007F900F0BFF800F011F97D
:102740008A20ADF80E0000210320069001A8079012
:10275000072000F0AEF8002848BFFF200ED49DF8F7
:10276000040058B9BDF8050020800C99BDF8070099
:1027700008800D99BDF80900088000200AB010BD3E
:1027800070B58AB00C468DF8080015461E46072223
:1027900000F0CEF800F091F800F0D9F88A20ADF8FA
:1027A0000E00002102A8059001200690072000F0ED
:1027B00080F8002848BFFF200CD49DF8000048B9DD
:1027C000BDF801002080BDF803002880BDF8050099
:1027D000308000200AB070BD76B592B000F04EF89F
:1027E00028BF422019D200F051F800F028F800F07C
:1027F0002CF800F036F800F01AF800F010F800F0AD
:10280000A1F800F099F8832000F048F800F0AFF844
:1028100000284CBFFF209DF8000014B070BDA41C20
:10282000E4B207A802221EA92018FFF735BA6419DE
:10283000E4B207A802221DA92018FFF72DBA022230
:1028400013A90DF11F00FFF727BA18981A998DF8F0
:1028500022008DF821608DF823502A4609A8FFF741
:102860001BBA05F10800C0B207A9451C4454EDB2DB
:102870001C9907A822462818FFF70EBA199D1B9C21
:1028800054FA85F10E3129291E4670478DF81C0037
:10289000022212A90DF11D00FFF7FEB9ADF80600E6
:1028A000002107A80390A01CC0B2049070470690B6
:1028B0000120089003A8FEF7CCB81822002103A835
:1028C000FFF7F0B930B58FB08DF81C008DF81D10F2
:1028D00014461D461022214600F03FF81298149924
:1028E0008DF82F008DF82E50182213988DF8300097
:1028F0000DF131000160002115988DF8350001A817
:10290000FFF7D0F900F018F8862000F00BF81A2035
:10291000049000F02CF800284CBFFF209DF8000028
:102920000FB030BDADF80600002107A80390704736
:1029300000216846FFF7B6B93F20ADF80400CDF896
:1029400014D070471822002101A8FFF7ABB93F202F
:10295000ADF80C00CDF81CD070470DF11E00FFF74C
:102960009BB93F20ADF80C00CDF814D07047012082
:10297000069001A8FEF76DB8F8B5344F384600F060
:102980008DFC0446381D00F089FC054607F108005F
:1029900000F084FC064607F10C0000F07FFC237871
:1029A0002B492C4A002B40D12B6802FB03132B60D0
:1029B000082702FB03132B6002FB03132B6002FBAF
:1029C00003132B6002FB03132B6002FB03132B602A
:1029D00002FB03132B6002FB03132B600346D5F8A5
:1029E00000C002FB0C1CC5F800C043F804CB7F1EDE
:1029F000D5F800C002FB0C1CC5F800C043F804CB9E
:102A0000D5F800C002FB0C1CC5F800C043F804CB8D
:102A1000D5F800C002FB0C1CC5F800C043F804CB7D
:102A2000DDD1C36F3360012323702B6802FB0311D8
:102A30002960317801F01F0150F8212032602A68A6
:102A400040F82120306880008008F2BD2C00002072
:102A50005FF36E3C0D6619001B4213D1094236D15B
:102A60002AB18446B0FBF2F002FB10C2704700F0BE
:102A700017BCFCD30022002370470B00020000218A
:102A800000207047904271EB030CF6D370B5B1FA99
:102A900081F4B3FA83F52C1BA340C4F1200532FA6C
:102AA00005F63343A2405FF00046E64002E05B08D3
:102AB0005FEA3202841A71EB030524BF20462946DF
:102AC0007641F4D302000B003000002170BD012AD2
:102AD000CFD970B5140C20D0B1FA81F4B2FA82F5D6
:102AE000C4F120046419B4F12006D6D3B2405FF0DB
:102AF0000044F440002502E052085FEA3303C61A9E
:102B000071EB020E24BF3046714664416D41F3D330
:102B100002000B002000290070BD0C46B1FBF2F151
:102B200002FB11452D0445EA1045B5FBF2F402FB0A
:102B3000145580B240EA0545B5FBF2F002FB105295
:102B400040EA044070BD000062B38B0708D0521EFB
:102B500011F8013B00F8013B00F024808B07F6D10F
:102B6000830740F0208000BF103A07D330B4B1E8AB
:102B70003810103AA0E83810F9D230BC530724BFFF
:102B8000B1E80810A0E8081044BF51F8043B40F831
:102B9000043BD20724BF31F8022B20F8022B44BF9C
:102BA0000B7803707047083A07D3B1E80810083A69
:102BB00040F8043B40F804CBF7D25307E4E70000A9
:102BC00062F30F2262F31F42401810F0030308D093
:102BD000C91A1FD3DB0748BF00F8012D28BF20F812
:102BE000022D130030B414461546103928BF20E9D1
:102BF0003C00FAD8490728BF20E90C0048BF40F83C
:102C0000042D890028BF20F8022D48BF00F8012DAF
:102C100030BC7047C91818BF00F8012DCB0728BF7A
:102C200000F8012D7047FFF76BBA000070B504463D
:102C3000FFF766FA06460CB9012070BD04F13405B1
:102C4000002028700220687000F063F82068016896
:102C5000C90708D5FFF754FA801B0628F6D32020B1
:102C60002862032053E00168DFF8B4201140626855
:102C70001143A2681143E26811432269114362695A
:102C80001143A2691143E2691143226A1143626A46
:102C9000042A03D1E26A236B1A43114301602068BE
:102CA0004169626AC908042A42EAC10108D1A26ADC
:102CB000A369114393B9002A18BF022A21D017D360
:102CC0004161204600F02EF8AA6A3F2191408160C0
:102CD0000020286201206870002070BDB3F5005FFD
:102CE0000BD1032AECD8DFE802F00F0C0F03E7E763
:102CF000E26AB2F1C07FE3D106E0022A04D9D21E13
:102D0000DED1E26AD201DBD5402028620120687062
:102D100070BD2068016849084900016070470000E3
:102D20003F8010F00168CAB2103A1823B2FBF3F2E8
:102D30000FF21803D35CC365890A8902042A28BFED
:102D4000091D816508467047000000000006101646
:102D5000000610160249FFE70120086070470000D6
:102D600024000E422DE9F8430446DFF8C4532078CE
:102D7000C0072FD5A86800F00C00042807D0A86869
:102D800000F00C00082809D16868400206D52868C0
:102D900080031FD56068E8B9012002E16068A8706F
:102DA000606858B1FFF7ACF907462868800311D472
:102DB000FFF7A6F9C01B6528F7D3EFE0FFF7A0F9EE
:102DC00007462868800305D5FFF79AF9C01B6528D8
:102DD000F7D3E3E02078DFF85C63800718D5A868B4
:102DE00010F00C0F07D0A86800F00C00082827D1BD
:102DF0006868400224D42868800702D5E06801286A
:102E0000CAD12868216920F0F80040EAC100286092
:102E10002078DFF8248300073DD56169DFF81C03C3
:102E200059B301210160FFF76BF90746D8F8040098
:102E3000800730D4FFF764F9C01B0328F6D3ADE058
:102E4000E06868B101203060FFF75AF9074628684A
:102E50008007D6D4FFF754F9C01B0328F7D39DE0B1
:102E60003060FFF74DF9074628688007D0D5FFF797
:102E700047F9C01B0328F7D390E00160FFF740F942
:102E80000746D8F80400800705D5FFF739F9C01BBD
:102E90000328F6D382E02078400740D50020009038
:102EA000DFF89C92286C40F080502864286C00F079
:102EB000805000900098D9F8000040F48070C9F864
:102EC0000000FFF71DF90746D9F80000C00505D43A
:102ED000FFF716F9C01B0328F6D35FE0A06888F857
:102EE000000041F28939A06860B1FFF709F907468F
:102EF000D8F80000800712D4FFF702F9C01B48453C
:102F0000F6D34BE0FFF7FCF80746D8F8000080073F
:102F100005D5FFF7F5F8C01B4845F6D33EE0A0699C
:102F200000283DD0A96801F00C0108293FF434AF16
:102F3000022828D100F037F807462868800105D517
:102F4000FFF7DEF8C01B0328F7D327E0E069216A0A
:102F50000843616A40EA8110A16A891EC903090C0D
:102F600040EA0140E16A40EA01606860012000F047
:102F70001BF807462868800112D4FFF7C1F8C01B70
:102F80000328F7D30AE000F00EF80746286880010E
:102F900006D5FFF7B5F8C01B0328F7D3032000E0E0
:102FA0000020BDE8F28300203066FFF7A9B82DE9C4
:102FB000F843644E04463068884600F00F004045F0
:102FC00002D200F08AF862D12078594F800705D5E7
:102FD000B868A16820F0F0000843B8602078C00706
:102FE0004DD56068012802D13968890305E00228BF
:102FF00018BF032803D13968890103D447E0396831
:10300000890744D5B968890840EA8100B86041F26F
:103010008939FFF775F80546606801280AD1B86854
:1030200000F00C0004282AD0FFF76AF8401B48453E
:10303000F5D322E002280AD1B86800F00C00082875
:103040001DD0FFF75DF8401B4845F5D315E0032878
:103050000AD1B86800F00C000C2810D0FFF750F827
:10306000401B4845F5D308E0B86810F00C0F06D0B7
:10307000FFF746F8401B4845F6D303202BE03068A5
:1030800000F00F00804504D200F027F801D00120A5
:1030900021E02078400705D5B868E16820F4E050C9
:1030A0000843B8602078000706D5B868216920F485
:1030B000604040EAC100B86000F016F8BA680FF24C
:1030C0009801C2F30312515CC8401F4908600F20E9
:1030D000FEF794F90020BDE8F28386F8008030689E
:1030E00000F00F00404570471848416801F00C019E
:1030F000042902D0082902D017E01548704701685A
:103100000268520201F03F014CBF114A114AB2FB62
:10311000F1F102680068C0F30140C2F38812401C5C
:1031200051434000B1FBF0F070470A48704700007F
:10313000003802400000474270380240800E47428B
:1031400000700040003C024028000020043802408B
:1031500040787D010024F400000000000102030417
:103160000102030406070809F8B50446444D207817
:10317000C00723D5444E00203060FEF7C1FF07464C
:103180002868000105D5FEF7BBFFC01B0328F7D355
:1031900055E0A1686068090741EA80103949086074
:1031A00001203060FEF7ACFF07462868000105D417
:1031B000FEF7A6FFC01B0328F7D340E02078800766
:1031C00056D500200090314E286C40F08050286485
:1031D000286C00F0805000900098306840F48070B7
:1031E0003060FEF78DFF07463068C00505D4FEF756
:1031F00087FFC01B0328F7D321E0286F10F440702D
:103200001EBFE16801F4407188421AD0286F20493E
:1032100001220A6020F4407000220A602867286FAB
:10322000C0070ED5FEF76CFF0746286F800708D44D
:10323000FEF766FFC01B41F289318842F5D30320B7
:10324000F2BDE06800F44071B1F5407F06D1A96895
:10325000104A21F4F8111040084302E0A86820F455
:10326000F810A860286FE168090550EA1150286736
:103270002078000702D5207C074908600020F2BDB5
:103280000038024084380240680047420070004025
:10329000400E4742FFFCFF0FE0114742704700001D
:1032A000704700007047FEE770477047704780B571
:1032B000FEF721FF26480168491C016001BDFDF7AA
:1032C000EFBD0120FEF71CB880B52249012008603F
:1032D000FEF7D1FCBDE802404FF40050FEF710B8F5
:1032E0001D48C06C00680168C90614D51B4A1C49FA
:1032F000904228BF486809D21A4A904205D21A4A19
:103300001A49904228BF486800D2086810F020008F
:1033100018BFFDF757B870470F48806C0068016808
:10332000C90614D50D4A0E49904228BF486809D2F3
:103330000C4A904205D20C4A0C49904228BF48687A
:1033400000D2086810F0006018BFFDF7E4B87047BD
:10335000E0090020E4090020080900205964024027
:1033600000640240B96002405960024000600240BF
:103370000E480F4A016841F4700101600D48016870
:1033800041F001010160002181600168114001608C
:1033900009494160016821F4802101600021C16078
:1033A0004FF00060054908607047000088ED00E0BC
:1033B000FFFFF6FE003802401030002408ED00E068
:1033C00019E050F8041BCB0744BFA9F101035918B9
:1033D000121F0023042A41F8043BF9D25FEA827CE1
:1033E0000B4604D54FF0000CA1F800C09B1CD10780
:1033F00044BF0021197050F8042B002AE1D1704716
:1034000030B5016842688468091801EB5203D2079D
:1034100048BF4C440C30994200D130BD11F9012B0A
:1034200011F8015B002A04F8015B02D5521CF9D1A6
:10343000F1E7521EF4D5EEE710B50749794418318B
:10344000064C7C44163404E00A68081D511888476D
:103450000146A142F8D110BD2C0000004800000038
:103460004EF68851CEF20001086840F47000086002
:10347000BFF34F8FBFF36F8F4FF00070E1EE100A74
:10348000704700003DFFFFFF34050000B804002036
:10349000000000006DFFFFFF480100002600000053
:1034A0000000002000F00BF8002801D0FFF7C4FF57
:1034B0000020C046C046FDF7A3FF00F002F801203F
:1034C000704700F001B800000746384600F002F8E7
:1034D000FBE7000080B5C046C046024A1100182034
:1034E000ABBEFBE7260002000148804701480047C9
:1034F00071330008F9340008C046C046FFF7B0FF3A
:10350000FFF7D0FFE8030000FFF7FEBFFFF7FEBFA5
:10351000FFF7FEBFFFF7FEBFFFF7FEBFFFF7FEBFDF
:10352000FFF7FEBFFFF7FEBFFFF7FEBFFFF7FEBFCF
:10353000FFF7FEBFFFF7FEBFFFF7FEBFFFF7FEBFBF
:10354000FFF7FEBFFFF7FEBFFFF7FEBFFFF7FEBFAF
:10355000FFF7FEBFFFF7FEBFFFF7FEBFFFF7FEBF9F
:10356000FFF7FEBFFFF7FEBFFFF7FEBFFFF7FEBF8F
:10357000FFF7FEBFFFF7FEBFFFF7FEBFFFF7FEBF7F
:10358000FFF7FEBFFFF7FEBFFFF7FEBFFFF7FEBF6F
:10359000FFF7FEBFFFF7FEBFFFF7FEBFFFF7FEBF5F
:1035A000FFF7FEBFFFF7FEBFFFF7FEBFFFF7FEBF4F
:1035B000FFF7FEBFFFF7FEBFFFF7FEBFFFF7FEBF3F
:1035C000FFF7FEBFFFF7FEBFFFF7FEBFFFF7FEBF2F
:1035D000FFF7FEBFFFF7FEBFFFF7FEBFFFF7FEBF1F
:1035E0000001DC00050802400024F4FB000001811A
:0335F00000F800E0
:00000001FF
