:020000040800F2
:10000000B804002049290008012800080328000836
:1000100000000000000000000000000000000000E0
:10002000000000000000000000000000052800089B
:100030000000000000000000072800080928000850
:1000400023080008BB080008A3110008531D00087E
:100050005F1D0008192800089B27000823280008B6
:100060002729000833290008692900086B2900089E
:100070006D2900086F2900080000000071290008A0
:1000800000000000732900080000000000000000CC
:100090007529000800000000772900087929000868
:1000A0007B2900087D2900087F2900088129000894
:1000B0008329000885290008872900088929000864
:1000C000F0B583B00400B44D2078C00752D5802726
:1000D000BF02E8680C210140082907D0E8680C211C
:1000E00001400C290AD1E868C00307D528680740F9
:1000F00040D0606800283DD10120FEBD60687908CD
:10010000884201D128680DE0B049A022D202904275
:10011000286809D1014029602868790001432960D5
:1001200028687908014309E00140296028687908B6
:100130000840019001982868B7490140296060682B
:1001400000280BD000F003FB06002868384011D1CE
:1001500000F0FDFA801B6528F7D3B8E100F0F7FA4C
:1001600006002868384005D000F0F1FA801B6528A9
:10017000F7D3ACE102272068384019D0E8680C2199
:100180000140042907D0E8680C2101400C2942D124
:10019000E868C0033FD42868400702D5E06801281A
:1001A000AAD16868B4490140206900020843686028
:1001B0002078C00619D5E8680C2101404FD1286885
:1001C000800502D5E069002896D06868AB490140F7
:1001D000606A0843686068680002000A216A0906CC
:1001E00001436960032000F09BFA2078000775D571
:1001F00060690028286D62D001210143296500F063
:10020000A6FA0600286D384068D100F0A0FA801BDD
:100210000328F7D35BE1E0680921C94300280FD028
:100220002A6811400843286000F091FA0600286807
:100230004007B6D400F08BFA801B0328F7D346E1C1
:1002400028680140296000F082FA0600286840070B
:10025000AED500F07CFA801B0328F7D337E1E069C4
:10026000002828681CD0A90D0143296000F06FFA0E
:1002700006002868800505D400F069FA801B032871
:10028000F7D324E168687D490140606A08436860EB
:1002900068680002000A216A090601436960A4E750
:1002A0008D490140296000F052FA06002868800557
:1002B0009BD500F04CFA801B0328F7D307E10121FE
:1002C0008843286500F043FA0600286D384005D0C1
:1002D00000F03DFA801B0328F7D3F8E02078800671
:1002E0002ED57E48A1690029A96816D001220A43AB
:1002F000AA60696B01220A436A6301686A0C0A43B7
:10030000026000F024FA0600A868384018D100F016
:100310001EFA801B0328F7D3D9E001229143A9607C
:1003200001686F4A0A40026000F011FA0600A868EE
:10033000384005D000F00BFA801B0328F7D3C6E045
:100340002078400700D479E0002000276946087033
:1003500080204005A96B014003D1A96B0843A86325
:10036000012760480068C00518D45E480068A90DE0
:1003700001435C48016001206946087000F0E7F91C
:10038000060058480068C00508D400F0E0F9801B5A
:100390006528F6D39BE000BF00100240A168A80DBD
:1003A00081420ED0A348002912D0A022D20091424F
:1003B0000ED1286D484901402965286D290D01435A
:1003C0002965286DA90D0143296508E0FFFFFEFF9F
:1003D000296D414A0A402A65296D08402865A068B0
:1003E00000280CD000F0B3F90600286D800515D464
:1003F00000F0ADF9801B90498842F6D367E000F029
:10040000A6F90600286D800508D500F0A0F9801B2C
:1004100089498842F6D35AE0FFFFFBFF684600781F
:10042000002805D02F4800682B4901402D48016065
:10043000002F03D0A86B81490140A963A06A00285E
:1004400047D0E9680C220A400C2A00D154E68027E4
:10045000BF049749022828682CD10140296000F088
:1004600076F90600286838400AD000F070F9801B41
:100470000328F7D32BE000BFFFE0FFFFFF1FFFFFC4
:10048000E86893490140206B0843616B0143E06ACF
:100490000843E860286879080143296000F057F9AB
:1004A00006002868384014D100F051F9801B032859
:1004B000F7D30CE00140296000F049F906002868F4
:1004C000384006D000F043F9801B0328F7D30320FF
:1004D000FEBD0020FEBD0000FFFEFFFF200001402A
:1004E000FEDFFFFF00700040F2B582B0040001277C
:1004F000FF43012577480068284088420AD27548A2
:100500000068384001437348016000682840029940
:10051000884274D1704E2078800705D5F068F021AC
:100520008843A1680143F1602068284055D0606885
:10053000022802D13168890308E0002802D131681D
:10054000890503E00328316802D1890102D456E00D
:10055000490754D5F168032291430843F06000F045
:10056000F6F80090606802280CD1F0680C21014078
:10057000082932D000F0EBF80099401A2E49884241
:10058000F3D328E003280CD1F0680C2101400C299A
:1005900023D000F0DCF80099401A27498842F3D3B1
:1005A00019E000280BD1F0680C21014015D000F0B3
:1005B000CEF80099401A20498842F4D30BE0F06845
:1005C0000C210140042908D000F0C1F80099401A1C
:1005D00019498842F3D30320FEBD3E4800682840F5
:1005E000029988420DD33B480068074008463843CB
:1005F00038490860086805400298854201D001200A
:10060000FEBD2078400705D5F06834490140E06818
:100610000843F0602078000706D5F06830490140B3
:100620002069C0000843F060032000F079F8002042
:10063000FEBD0000FFFBFFFF89130000FFFFFFEF7F
:10064000F0B5254D6868284A530054081026E9681B
:100650000C270F40042F04D0082F09D00C2F09D0ED
:100660001FE02868064001D02000F0BD1800F0BD52
:100670001000F0BDE868E9681C4F8002000F385C8C
:100680000902890F491CEF68FF0306D42A68164047
:1006900001D0604302E0584300E0504300F06AF8A4
:1006A000F0BD01210004400F401C8140C803F0BD93
:1006B000FFFFFFFE80B5FFF7C3FF00BF0DA1094A92
:1006C00012681206120F895CC8400949086002BD11
:1006D000FFFF02FF0020024000100240FFF8FFFF72
:1006E000FFC7FFFF0C10024000127A00F427000839
:1006F000280000200000000001020304010203049E
:100700000607080980B51948016802229143016073
:10071000032000F005F800F002F8002002BD704749
:1007200010B50400FFF7C6FFFA21890000F022F897
:1007300000F0A3F8002221000020C04300F08BF855
:10074000002010BD0A480168491C01607047084834
:100750000068704711B581B0FFF7F9FF0400FFF79B
:10076000F6FF001B01998842F9D313BD0020024017
:10077000E00700200022030A8B420BD203098B42C0
:1007800019D243088B422ED2411A00D2014652415F
:1007900010467047FF2209023FD012068B4205D354
:1007A000121209028B4201D31212090203098B4271
:1007B00019D300E0090AC3098B4201D3CB01C01A47
:1007C000524183098B4201D38B01C01A5241430924
:1007D0008B4201D34B01C01A524103098B4201D312
:1007E0000B01C01A5241C3088B4201D3CB00C01A7F
:1007F000524183088B4201D38B00C01A52414308F7
:100800008B4201D34B00C01A5241884200D3401A98
:100810005241CFD201461046704708B500F04CF85F
:1008200008BDFEE710B58207D30EFF249C40E243CB
:100830008907090E9940030004D51A481B071B0FAE
:10084000083B00E018489B089B00C01803681A404A
:100850001143016010BD80B5FFF7E4FF01BD012128
:10086000C006C00E81401148016070470121C006DA
:10087000C00E81400E480160704710B5401E8021B7
:100880004904884201D3012010BD0A4C6060032155
:100890000020C043FFF7C6FF0020A06007212160B1
:1008A00010BD00001CED00E000E400E000E100E00D
:1008B00080E100E010E000E07047FEE7F0B58BB0AB
:1008C0001B2706AC2770C5206070D520A070A5201E
:1008D000E0700226267100206071B420A0719A2079
:1008E000E071E1202072112060723A20A072CF20C6
:1008F000E072802020736E2060733620A073E67350
:10090000384D281D00900723012206A9022000F07F
:10091000CBFA002862D12770C5206070D520A07066
:10092000A520E070267100206071FC20A0718F204E
:10093000E071E1202072112060724A20A072CF2065
:10094000E072A0202073782060733E20A073E22024
:10095000E073A81D05900020049010200390002053
:100960000290019010200090012306AA0221A8887D
:1009700000F0DFFA002831D12770C5206070D52043
:10098000A070A520E0702671002060713620A07153
:10099000AC20E071E1202072112060724B20A07227
:1009A000CF20E0728020207367730A20A073342068
:1009B000E073280008300590002004901020039078
:1009C000042002900020019012200090062306AA25
:1009D0000221A88800F0ADFA002800D047200BB013
:1009E000F0BD000000000020E0B501A902680A7017
:1009F000026812124A7042688A7042681212CA7003
:100A000082680A71806800124871C5480091062307
:100A100000220189808800F05CFB002800D047207C
:100A20000EBDF0B591B00CAC1B202070C5206070DD
:100A3000D520A070A520E0700220207100276771EA
:100A4000D020A0718220E071E22121721121617217
:100A50007726A672E421E172402121731A21617385
:100A6000A0734220E073AE4D28000A3000900A23A4
:100A700001220CA9022000F017FA002800D003E19F
:100A80001B202070C5206070D520A070A520E070CC
:100A9000022020716771E320A071A920E071E2209B
:100AA000207211206072A672E420E0722020207370
:100AB000552060732E20A073A320E07328000C3013
:100AC00005900497102003900420029001970220C3
:100AD000009002230CAA0221688900F02AFA00285B
:100AE00055D10AAE0E2030700020C0437070BE4851
:100AF000708037717771B771BC486946888409A8DE
:100B0000801C0890079710200690059701200490FC
:100B100003970AA8029007200190009009AB0122D8
:100B2000A989688900F062FA002830D11B20207062
:100B3000C5206070D520A070A520E0700220207133
:100B400067710B20A0718420E071E22020721120D7
:100B500060728B20A072E420E07280202073C42099
:100B600060732020A073CD20E07328000E30059024
:100B70000497102003900420029001970220009017
:100B800003230CAA0221688900F0D3F900287BD145
:100B90000F2030700420C04370709E208001708050
:100BA00037717771B77191486946888409A8801CAC
:100BB000089007971020069005970120049003974E
:100BC0000AA8029007200190009009AB0122E98950
:100BD000688900F00BFA002856D11B202070C52030
:100BE0006070D520A070A520E07002202071677190
:100BF0007320A071A020E071E220207211206072A9
:100C00008C20A072E420E072602020730B206073BF
:100C1000C520A0730120E0732800103005900497D0
:100C200010200390042002900197022000900223DC
:100C30000CAA0221688900F07CF9002824D1062042
:100C400030700020C04370709C208001708037712C
:100C50007771B77165486946888409A8801C089037
:100C600007971020069005970120049003970AA883
:100C7000029007200190009009AB0122298A68891F
:100C800000F0B4F9002800D0472011B0F0BD01B544
:100C900082B0704802A90091022300228189408914
:100CA000B9E601B582B06B4802A900910323002286
:100CB000C1894089AFE601B582B0664802A90091BA
:100CC00002230022018A4089A5E6000000B589B010
:100CD00007A800BF64A10CC90CC00021002000F0CF
:100CE00019FC0020069005900490039007A802903C
:100CF000082001900020009000230022002100F035
:100D0000BFFC09B000BD53480122426141807047D9
:100D1000504800214161012202704170704700007B
:100D20000000002050B583B04A4C2189491C8842FC
:100D300004D120001830FFF757FE4EE0A189491C6E
:100D4000884217D100F032FD060020001830FFF76E
:100D50004BFE3000F1170F22002300F08DFD3E4ABC
:100D6000002300F0A2FD87214900401800B2FFF7E0
:100D70008EFF32E0E189491C884219D1374800686A
:100D80000A21FFF7F7FC0100684600F0C3FD00F000
:100D90000DFDC117FA229200002300F06DFD2E4ACE
:100DA000002300F082FD2E494018FFF77AFF14E07F
:100DB000218A491C884210D100F0F8FCC117642236
:100DC000002300F059FD244A002300F06EFDE121CC
:100DD0004900401880B2FFF76EFF6088002802D0FB
:100DE000608800F0CBF957BD2F27000004290000D0
:100DF0000100401C0978042900D0704780B50178B3
:100E0000052904D03E2905D0FF2911D001BDFFF7E7
:100E10007FFF01BD801C017801291AD1401C417857
:100E200082781206120C1143401DFFF76CFF01BDC2
:100E3000801C017842781206120C1143094A914233
:100E400007D1017942791206120C11430800FFF70D
:100E500069FF01BD00000020FFFFFF3F642900087B
:100E6000A0860100140C000009426C75654E5247C3
:100E700000B587B01822002101A800F065FD01A887
:100E80003F210180C23141806846059001200690D3
:100E9000002101A800F048FA002801D5FF2001E058
:100EA0006846007807B000BDF0B58DB016001F0091
:100EB00007AC2070012801D1022500E010252A008E
:100EC000601C00F03BFD6D1CEDB266556D1CEDB273
:100ED000675503220021684600F036FD18220021E4
:100EE00001A800F031FD01A83F210180C3314180FC
:100EF00007A803906D1CEDB2049568460590032089
:100F00000690002101A800F00FFA002801D5FF206B
:100F10000DE068460178002901D0084607E04178D5
:100F200082781206120C11431298018000200DB035
:100F3000F0BDF1B58EB00D0017001E0002220EA903
:100F400007A800F0FBFC07ACA570012D01D102251C
:100F500000E010252A003900E01C00F0EFFCED1C39
:100F6000EDB266556D1C1498EDB260556D1C159868
:100F7000EDB260556D1C1698EDB260556D1C17985A
:100F8000EDB260556D1C1898EDB26055032200213A
:100F9000684600F0D9FC1822002101A800F0D4FC1A
:100FA00001A83F210180C531418007A803906D1C35
:100FB000EDB204956846059003200690002101A833
:100FC00000F0B2F9002801D5FF200DE06846017855
:100FD000002901D0084607E0417882781206120CF9
:100FE00011431998018000200FB0F0BD73B5A8B06F
:100FF00014001E00022228A907A800F09FFC07ADDC
:10100000022229A9A81C00F099FC2C71012C01D105
:10101000022400E0102422003100681D00F08EFC44
:10102000641D2E98E4B22855641C2F9EE4B22E5500
:10103000641CE4B23119491D812901DB422046E0DC
:1010400032003099281900F079FCA4193198E4B2E3
:101050002855641C3298E4B22855641C3398E4B2D5
:101060002855641C3498E4B22855641C3598E4B2C1
:10107000285503220021684600F066FC1822002152
:1010800001A800F061FC01A83F210180C631418028
:1010900007A80390641CE4B20494684605900320FA
:1010A0000690002101A800F03FF9002801D5FF209B
:1010B0000DE068460178002901D0084607E0417834
:1010C00082781206120C11433698018000202AB053
:1010D00070BD73B5A8B016001C00A01D812801DBEF
:1010E000422032E0022228A907A800F027FC07AD21
:1010F000022229A9A81C00F021FC2E716C7122008B
:101100002E99A81D00F01AFC1822002101A800F059
:101110001BFC01A83F210180C731418007A8039033
:10112000A41DE4B2049468460590012006900021B5
:1011300001A800F0F9F8002801D5FF2005E0684675
:101140000078002801D0684600782AB070BD418040
:1011500001A80490022005900F2003906846069095
:1011600001200790002102A800F0DEF8002801D538
:10117000FF2001E06846007809B000BD00B589B0E5
:10118000694688801822002102A800F0DDFB02A831
:101190003F210180E831418001A8049002200590A0
:1011A000DCE7FEE738B5B84C201D00F0D7FB200087
:1011B0000C3000F0D3FB00258C206843211814313B
:1011C000201D00F0E4FB6D1C052DF5DB31BD010099
:1011D00008310A78042A01D00120704789788830C4
:1011E0000078C01E814201D0022070470020704765
:1011F00030B5A1B00025009500F07FFDA24C10E0B5
:10120000694620000C3000F0D8FB00F071FD00981A
:101210000830FFF7EDFD00F070FD0099201D00F093
:10122000B6FB20000C3000F09CFB0028E8D02078B2
:1012300000280AD10EE0802201A9944800F0C0FCE9
:10124000000602D001A8FFF7D3FD00F0AFFC002894
:10125000F1D1257000F04CFD21B030BD38B5002033
:10126000009000F04FFD894D04E0201D00F085FB4B
:1012700000F048FD00F09AFC002824D0824C201D8C
:1012800000F06FFB00281AD16946201D00F095FB85
:10129000802200990831280000F092FCC0B200289A
:1012A0000099E2D0883108700098FFF790FF00287D
:1012B0000099DAD10C34200000F069FBD8E7012056
:1012C000207000F01FFD31BD80B500F01DFC01BD98
:1012D00030B583B014001D0001AA8905890D800274
:1012E000084310809470684601210170032201A90F
:1012F000401C00F023FB2300042229006846FFF76E
:10130000E3FF37BD38B504000D0007E0694628004B
:1013100000F053FB0099200000F039FB280000F09A
:1013200020FB0028F2D031BDF0B587B005000F00DA
:1013300068888005800D29888902014389B204915B
:10134000534800680A21FFF715FA060000200090B4
:1013500002A800F003FBAB68E868C2B2698828887D
:10136000FFF7B6FF484C002F5DD1002E00D10126BB
:10137000310005A800F0CEFA04E002A800F007FB57
:1013800000F0B6FC05A800F0CDFA002871D12000CD
:101390000C3000F0E6FA0028F4D100F0AEFC69460B
:1013A00020000C3000F009FB009A08321078042865
:1013B0000099E2D10B31009888300078C01E527835
:1013C0000E2A3ED00F2A04D0102A52D03E2A43D0F3
:1013D0000DE08A78CB781B061B0C1A43049B9A42BB
:1013E00047D16A680F2A15D00878002841D10099A2
:1013F00002A800F0CCFA201D00F0B3FA0028BFD0FC
:1014000001A920000C3000F0D8FA0199201D00F04D
:10141000BEFAB5E76A69904200DD100068610246D5
:10142000286900F08BFA0099201D00F0A6FA02A9A5
:101430000C342000FFF766FF00F05AFC002007B0D4
:10144000F0BD4A788B781B061B0C1A43049B9A420A
:101450000FD1C91CC01EDDE70A786B689A42C6D15D
:10146000401E6A69904200DD100068610246491C16
:10147000D6E702A90C342000FFF744FF00F038FC47
:101480000020C043DBE70000B804002088070020EC
:1014900064290008F0B589B006000D0014001F0093
:1014A00009220021684600F04FFA1822002103A803
:1014B00000F04AFA03A804210180012141800020A4
:1014C000059006906846079009200890002103A81F
:1014D000FFF72AFF002801D5FF2019E068460178B0
:1014E000002901D0084613E04178317041882980F5
:1014F00001792170417982791206120C11433980E9
:10150000C179027A1206120C11430E980180002054
:1015100009B0F0BD30B58FB004000D0020220021CD
:1015200007A800F011FA07A80470202C01DB1F2285
:1015300000E022002900401C00F000FA18220021DF
:1015400001A800F001FA01A80821018009214180C9
:1015500007A803902020049068460590012006907B
:10156000002101A8FFF7E0FE002801D5FF2001E0DF
:10157000684600780FB030BD10B58AB01C006B46CD
:10158000187059709A700722002101A800F0DCF948
:101590001822002103A800F0D7F903A83F210180F9
:1015A0008A214180684605900320069001A8079093
:1015B00007200890002103A8FFF7B6FE002801D5F8
:1015C000FF201AE001A80178002901D0084614E0A4
:1015D000417882781206120C11432180C178027979
:1015E0001206120C11430C9A11804179827912066D
:1015F000120C11430D98018000200AB010BD70B587
:101600008AB00D0014001E006946087007220021F0
:1016100001A800F099F91822002103A800F094F91C
:1016200003A83F2101808A2141806846059001205E
:10163000069001A8079007200890002103A8FFF753
:1016400073FE002801D5FF2018E001A801780029C9
:1016500001D0084612E0417882781206120C11433C
:101660002980C17802791206120C11432180417938
:1016700082791206120C1143318000200AB070BD2D
:10168000F6B591B01F00199D1B9EA9190E3129298D
:1016900001D342204EE007AC2070022211A9601C49
:1016A00000F04CF9022212A9E01C00F047F9677122
:1016B0001898A071E5712A001A992000083000F0EE
:1016C0003DF90835EDB266556D1CEDB232001C993E
:1016D000601900F033F9AD19EDB202221DA96019AD
:1016E00000F02CF9AD1CEDB202221EA9601900F029
:1016F00025F91822002101A800F026F901A83F21B0
:1017000001808321418007A80390AD1CEDB20495B0
:101710006846059001200690002101A8FFF704FE0D
:10172000002801D5FF2005E068460078002801D098
:101730006846007813B0F0BD70B58EB00E00110091
:101740001D0007AC207066701022A01C00F0F6F897
:10175000A5741298E074139820752100153114981F
:1017600000F0ECFA159860761822002101A800F02C
:10177000EBF801A83F2101808621418007A8039052
:101780001A2004906846059001200690002101A8C7
:10179000FFF7CAFD002801D5FF2005E06846007864
:1017A000002801D0684600780EB070BDF8B52F4E05
:1017B000300000F0CDFA0090301D00F0C9FA0400AE
:1017C0003000083000F0C4FA05000C36300000F09C
:1017D000BFFA2749274A009B1B78002B36D1236884
:1017E00053435B18236053435B18236053435B18D8
:1017F000236053435B18236053435B1823605343B8
:101800005B18236053435B18236053435B182360CA
:1018100003000826276857437F1827601F60276842
:1018200057437F1827605F60276857437F182760FA
:101830009F60276857437F182760DF601033761E4C
:10184000E8D1C36F2B600123009E3370236853439C
:10185000591821602978C906490E40180168296085
:1018600021680160286880008008F2BD2C000020FB
:101870005FF36E3C0D66190030B4434351435D186D
:10188000010C0C00130C5C432D1980B2434392B23F
:1018900051430024C918644124040B04090C09199C
:1018A0005043C018694130BC7047124224D099425D
:1018B00028D970B500251B4202D00C00002109E098
:1018C0000024012649186441944200D3A41A7641A9
:1018D000F8D33100012601E0764109D200186441B5
:1018E0006D41A41A9D41F7D2A4185D41B619F5D3F4
:1018F000300022002B0070BD1B42D8D108B500F08B
:1019000029FA08BD01D19042D3D202000B00002178
:101910000020704710B504006160FFE700F01BFA7B
:10192000206010BD10B5040000F015FA616822684F
:10193000801A401C81428041C00F10BD10B50400C8
:1019400000F00EFA200010BD10B5040010000A00CF
:101950000100200000F032FA200010BD006040605D
:101960007047EFF3108172B60268824201D1012004
:1019700000E0002081F310887047EFF3108272B608
:1019800003680B60486001600868416029E0EFF37C
:10199000108272B6086043684B604160486801601D
:1019A0001FE0EFF3108172B6026843681A60426864
:1019B0000068426081F31088704738B50C00EFF37F
:1019C000108572B6016821600068FFE7FFF7E9FF44
:1019D0000020216808602168486085F3108831BDC7
:1019E000086082F31088704700686449884200D01C
:1019F0007047F0B587B00124BC48016821430160FD
:101A0000016821400091009902260168314301607C
:101A1000016831400091009901682143016001682B
:101A20002140009100990168214301600168214033
:101A300000910099016821430160016821400091F3
:101A400000990168214301600168214000910099DB
:101A50008168820C0A438260870D01970294039487
:101A600000250495059501A9A020C00500F0CEF938
:101A700000223900A020C00500F08DFA0820019056
:101A80000296039603270497059501A9A04800F044
:101A9000BDF940200190029603950497059501A990
:101AA000A020C00500F0B2F98020019002960395B5
:101AB0000497059501A9A020C00500F0A7F901969B
:101AC000029403940497059501A9A020C00500F095
:101AD0009DF901220221A020C00500F05CFA0194CA
:101AE0008C48029003950497059501A9A020C00594
:101AF00000F08CF9002203210520FEF7ACFE052042
:101B0000FEF7ADFE07B0F0BDF1B584B00F001600D2
:101B10001D00814800680A21FEF72CFE010001A883
:101B2000FFF7F8FE7D4CE8B20090F3B23A0004995A
:101B3000200000F091F8002804D001A8FFF7F2FE81
:101B40000028F0D005B0F0BD80B574480B490160A5
:101B500082214900416000218160C16001614161D1
:101B6000802292008261016241620722C2620822E1
:101B7000C261816200F030FA01BD00000030014016
:101B800038B5A024E40580256D000022290020003E
:101B900000F001FA0520FEF7DDFD012229002000FA
:101BA00000F0F9F90520FEF7D5FD31BD80B5012122
:101BB000A020C00500F0E9F9012800D0002002BDF6
:101BC000F3B587B0160000250024FF206946487150
:101BD00004A800BF53A10CC90CC000220221A02000
:101BE000C00500F0D8F90F200090052302AA04A92F
:101BF000079800F033FA02A80178022919D1017977
:101C00000F02C078074314D0BE420FDA37000DE050
:101C10000F200090012301AA01A9491C079800F098
:101C20001DFA6846007908990855641CE4B2BC4264
:101C3000EEDB01220221A020C00500F0ACF90095E6
:101C400003E000BF0098401C009000980228F8DBD9
:101C5000200009B0F0BD0000F6B5C5B007001E00B9
:101C6000002403A831A10CC90CC001A831A10CC9E2
:101C70000CC00520FEF7FAFD00220221A020C005BD
:101C800000F089F90F200090052301AA03A938006C
:101C900000F0E4F901A8017802291AD14C9D40789E
:101CA0007119884214DB002E07D00F2000903300FA
:101CB00005AA4599380000F0D1F9002D0AD00F206F
:101CC00000902B0005AA4699380000F0C7F901E002
:101CD0000124E44301220221A020C00500F05BF9A9
:101CE0000520FEF7BCFD200047B0F0BD2C100240DF
:101CF00080B50520FEF7B3FD01BD80B50520FEF7D8
:101D0000B5FD01BD012006490860704700000000D4
:101D1000000400500000111064290008880700200A
:101D2000140401400B000000000000000A00000045
:101D300000000000AA0000000000000084460870B7
:101D4000000A4870000A8870000AC8706046704730
:101D50007047FEE7704780B5FEF7F9FC02BDFEE76D
:101D6000124207D08B0706D00B78491C0370401C29
:101D7000521EF7D87047830706D00B78491C0370B2
:101D8000401C521EF9D1704770B4103A03D378C981
:101D9000103A78C0FBD2530701D318C918C001D537
:101DA00008C908C0D20704D30B880380891C801C93
:101DB000002A01D50B78037070BC70471206130A15
:101DC0001A43130C1A4300BF094205D0830705D0FC
:101DD0000270401C491EF9D170470000130030B456
:101DE00014001500103902D310393CC0FCD2490749
:101DF00000D30CC000D504C0890002D30280801C2F
:101E0000002900D5027030BC70470000FFB50024E7
:101E100001232FE00625B5403D43039E3560664D06
:101E20002E68009FFD432E404F68FF0302D5370008
:101E3000009E3E43604F3E607E682E404F68BF0369
:101E400002D53700009E3E435B4F7E60BE682E4049
:101E50004F68FF0202D53700009E3E43564FBE60DA
:101E6000FE6835404E68B60202D52E00009D35430F
:101E7000FD60641C0D682E00E64000D184E0012660
:101E8000A6402E400096009D002DF2D04D68022DF8
:101E900001D0122D18D1E508AD0045192E6A019622
:101EA0006607F60E6F463E72019FBC466E46377A55
:101EB0000F26BE406746B743BC460F696E46367A6A
:101EC000B740664637432F6266000327B740FD439D
:101ED00001954D68012D05D0022D03D0112D01D0A3
:101EE000122D10D18768019D3D40CF68B7402F4328
:101EF000876047680125A540AF434D682D091D4007
:101F0000A5403D4345600768019D3D400F79BF07EF
:101F1000BF0FB7402F430760C768019D3D408F68E2
:101F2000BC4637006646BE402E43C6604D68ED0095
:101F30009FD5224D2D681D43204E3560204DA608AB
:101F4000B600AD1903952F68A5072E0F0F25B540D4
:101F5000AF43A025ED05A84201D100255BE7194D4F
:101F6000A84201D1012556E7174DA84201D102250B
:101F700051E7164DA84201D103254CE7144DA84264
:101F800000D047E7052546E7FFBD0069084000D0BF
:101F90000120C0B27047002A01D081617047816280
:101FA00070470C4A1368034000D1704780B5106039
:101FB00000F01CFA01BD0000000401403410024092
:101FC000080001400004005000080050000C0050C0
:101FD000001C00501404014070B5040001D1012020
:101FE00070BD2500503500266878002803D12E707A
:101FF0002000FFF7F9FC0220687020680168402289
:10200000914301606068A1680143E0680843216969
:10201000014360690843A169D20011400143E069AE
:102020000843216A0143A06A084321680860A06947
:10203000000C04210840616A014320684160E06AA5
:10204000216808612068C169034A0A40C2616E6064
:1020500001206870002070BDFFF7FFFFF8B5040095
:1020600000256E463580260050367078012803D052
:102070007078222800D053E1002902D0002A00D035
:10208000002B00D147E13078012800D148E1012040
:1020900030707078012801D1322070707560A263B1
:1020A000A387E3872163A386E386A564E564A06A2A
:1020B0008021890188420AD120680168994A0A4032
:1020C000026020680168802292010A430260206851
:1020D000402102680A4002D1026811430160822057
:1020E0004000069FE168802212019142616864D13C
:1020F000002904D081420CD1E08E012809D1206B47
:1021000000882168C860206B801C2063E08E401E20
:10211000E086E08E00283AD1A06A910088423CD146
:102120002068016852000A43026036E03B0000224A
:102130000221200000F0F8F8002835D1206B00883B
:102140002168C860206B801C2063E08E401EE08602
:1021500000040AD1A06A80218901884205D1206843
:102160000168802252010A4302603B0000220121E3
:10217000200000F0D9F8002816D12068C068A16BB3
:102180000880A06B801CA063E08F401EE087E08E7B
:102190000028CBD1606800286CD13B0000220121CF
:1021A000200000F0C1F800286DD12068C068A16B44
:1021B0000880A06B801CA0636DE0002904D08142E0
:1021C0000BD1E08E012808D1206B411C21630078DF
:1021D0002168C860E08E401EE086E08E002844D171
:1021E000A06A9100884204D12068016852000A4325
:1021F00002603B0000220121200000F095F8002839
:1022000041D12068C068A16B087044E03B00002207
:102210000221200000F088F8002834D1206B411CF6
:10222000216300782168C860E08E401EE0860004CB
:102230000AD1A06A80218901884205D120680168FD
:10224000802252010A4302603B000022012120004B
:1022500000F06AF8002816D1A06B411CA163216828
:10226000C9680170E08F401EE087E08E0028CDD164
:102270006068002812D13B0000220121200000F0FC
:1022800053F8002801D00320F2BDA06B411CA163CC
:102290002168C9680170E08F401EE087A06A802134
:1022A0008901884212D13B0000220121200000F068
:1022B0003BF8002804D07068022101437160E2E716
:1022C0002068C06869460880684600883B00012293
:1022D0008021200000F028F8002802D0706820211A
:1022E000EBE701207070A06A80218901884214D137
:1022F00020688168C90610D5716802220A4372609D
:102300000168084A0A400260206801688022920140
:102310000A43026035700120F2BD35700020F2BD25
:102320000220F2BDFFDFFFFFFFB581B0FEF70FFA1D
:1023300000902D4FFC434025ED43E026F6436846D0
:10234000007B002816D1019800688068029901403E
:102350000298814244D004980021C9438842F2D0B7
:1023600000281DD0FEF7F3F90099401A0499814224
:10237000E9D215E00198006880680299014002984E
:1023800081422DD104980021C9438842F2D000280F
:1023900006D0FEF7DCF90099401A04998142E9D28F
:1023A0000198006841680E40466001980068016825
:1023B0000D4005600198806AA04209D1019800682B
:1023C00001680F4007600198006801680C430460D1
:1023D000019850300121417000210170032000E07C
:1023E000002005B0F0BD0000FFDFFFFF80B5FEF765
:1023F00035FF01BD10B58CB009A800BF50A10CC9B4
:102400000CC0FEF77FF90021002000F09DF800F0DD
:1024100009F9FFF799FBFEF7C5FEFFF7B1FB06A927
:1024200004A800F033F9FFF7ABFB3E4C6846007C94
:10243000312804DB01202070022009A948710622FE
:1024400009A907A8FFF77AFA07AA0621002000F0D9
:1024500049F9FEF70DFD207801280CD105A8801C54
:10246000019004A8801C009005AB072200210120E8
:10247000FFF782F807E005AB9B1C04AA921C05A994
:102480000120FFF7BCF800BF2BA00090072300221B
:102490006846418A808AFEF71CFE002800D0FEE7CD
:1024A000012003902048029000200190102000900D
:1024B0000723002200210120FFF73EF9FEF7FEF975
:1024C000FEF7AFFA0421012000F040F9174CFEF7A7
:1024D0008FFE200000F001F8F9E738B50400144D34
:1024E0002878002803D0FEF7F1FB00202870002098
:1024F00000F080F8002814D1002000F07BF80028BC
:10250000FAD00C48006800280BD0206864302060A6
:10251000606864306060A0686430A0602000FEF7EE
:1025200063FA31BDE807002040E2010018000020F6
:102530000000002014000020426C75654E524700D8
:10254000123400E180030000F0B587B00E000422D1
:102550002F490B6813430B600B681A400092009AD6
:102560008A68012313438B6007002A48B90040188A
:10257000009003240025002E0DD100BF23A0790078
:10258000405A0190029502200390049401A90098FA
:102590000068FFF73BFC012E28D100BF1BA079008B
:1025A000405A019003951C48029001A900980068C8
:1025B000FFF72CFC0EA0C05D43B21C40E400FF22DC
:1025C000A240D143C022A2401C0004D5134B2407D3
:1025D000240F083C00E0124BA408A4001B191C683F
:1025E00021400A431A6040B2FEF739F907B0F0BD46
:1025F0000700000080B500BF04A14200895A054AC7
:1026000080001058FFF7C1FC02BD00000020000050
:102610002C10024024000020000011101CED00E0EE
:1026200000E400E070B594B0154C60688021490565
:102630000143616013480168134A0A40C10C114309
:1026400001600220059001250895102109910F9045
:1026500000261096400411900001129005A8FDF785
:102660002FFD009503200190029603960496012108
:102670006846FDF739FF20680543256014B070BD3A
:102680003410024000700040FFE7FFFF70B584B0D7
:1026900005000C0001A8009002AB9B1C02AA01A936
:1026A000891C02A8401CFEF7F5FEC6B2002E14D10C
:1026B0006846C088000A28706846C08800022080EA
:1026C000694689880906090F090101432180684686
:1026D00080880007000F08432080FEF789FD300046
:1026E00004B070BD10B5A8B003000C001100A01C10
:1026F000812801DB422027E007A8037044702200F4
:10270000801CFFF71BF91822002101A8FFF71CF914
:1027100001A83F2101800C21418007A80390A41C3F
:10272000E4B204946846059001200690002101A8B7
:10273000FEF7FAFD002801D5FF2005E06846007885
:10274000002801D06846007828B010BD00B589B0D7
:1027500001AA107051701822002102A8FFF7F4F8A6
:1027600002A83F2101800F21418001A8049002208E
:1027700005906846069001200790002102A8FEF708
:10278000D3FD002801D5FF2005E068460078002829
:1027900001D06846007809B000BDFEE70F48016827
:1027A000820D0A430260C1680D4A0A40C260016896
:1027B0000C4A0A40026081680122914381600168ED
:1027C000094A0A400260C168084A0A40C260002102
:1027D0000161802000050649086070470010024032
:1027E0000C40FF88F6FFF6FEFFFFFBFFFFFF02FF36
:1027F00008ED00E0030406080C101820300000006B
:102800007047FEE77047704780B5FDF79BFF0A48A9
:102810000168491C016001BD80B50120FFF7C1FBC3
:1028200001BD80B580208001FFF7BBFB012003497B
:10283000087001BD00000000E4070020E907002047
:1028400070B40121002313E00468001D0C4202D083
:102850004D466D1E64192360241D121F042AFAD2EE
:102860002500960701D52380AD1C0A4000D02B70AF
:102870000268001D002AE7D170BC704730B50168BE
:102880004118446862088A188368E40701D54C46F9
:102890001B190C30914200D130BD0C7864B2491C38
:1028A0000D78491C1D705B1C002C02D5641CF9D1ED
:1028B000F0E7641EF4D5EDE710B507497944183107
:1028C000064C7C44163404E0081D0A6889188847C1
:1028D0000100A142F8D110BD080000002400000052
:1028E00061FFFFFF34030000B80400200000000077
:1028F0008DFFFFFF96000000260000000000002072
:1029000000F00BF8002801D0FFF7D6FF0020C046EA
:10291000C046FFF76FFD00F002F80120704780B558
:1029200000F002F801BDFEE70746384600F002F865
:10293000FBE7FEE780B5C046C046024A11001820FA
:10294000ABBEFBE726000200014880470148004774
:102950009D27000859290008C046C046C046C04609
:10296000FFF7CEFFE8030000FEE7FEE7FEE7FEE725
:10297000FEE7FEE7FEE7FEE7FEE7FEE7FEE7FEE72F
:10298000FEE7FEE7FEE7FEE7FEE70001DC000508E4
:0D299000005080841EFB0000018100F80053
:00000001FF
