:020000040800F2
:1000000010040020BD220008592100085B210008CF
:10001000F1220008F5220008F92200080000000083
:100020000000000000000000000000005D2100084A
:100030005F21000800000000612100086321000822
:10004000FD220008012300080523000809230008F9
:100050000D23000811230008732100081523000850
:10006000192300081D230008212300082523000868
:10007000292300082D230008312300083523000818
:10008000392300083D2300084123000845230008C8
:10009000492300084D230008512300085523000878
:1000A000592300085D230008612300086523000828
:1000B000692300086D2300087123000875230008D8
:1000C000792300087D230008812300088523000888
:1000D000892300088D230008792100089123000856
:1000E0007F21000895230008992300089D2300081C
:1000F000A1230008A5230008A9230008AD230008B8
:10010000B1230008B5230008B9230008BD23000867
:10011000C1230008C5230008C9230008CD23000817
:10012000D1230008D5230008D9230008DD230008C7
:10013000E1230008E5230008E9230008ED23000877
:10014000F1230008F5230008F9230008FD23000827
:100150000124000805240008092400080D240008D3
:100160001124000815240008192400081D24000883
:10017000212400082524000829240008000000008C
:100180002D2400083124000838B504000BD004F1F8
:100190006805687818B92870204600F043FC00F024
:1001A0000DF8012801D1012032BD606A08B100F0CC
:1001B00025F800F014F821F02A0109E00220687007
:1001C00020680168490849000160204600F076B9BE
:1001D000816000F00CF8BDE8324000F000BB206800
:1001E000416821F49041416020688168704720682F
:1001F000016841F00101016020467047204600F08F
:100200008BBAF8B5044604F150070D46787E0128F4
:100210001CBF787E22281E4640D1002D18BF002A20
:1002200001D10120F2BD387E012837D00120387677
:100230000020F861787E22280CBF322012207876C8
:100240003A807A8001E0216808857888A8B1401E4C
:10025000788033460022802100F089F898B9A068A0
:10026000B0F5805F04BF2069002811BF15F8010BAD
:1002700035F8020BC005C00DE5E7334600224021EA
:1002800000F075F808B10320F2BD787E32280CBF6B
:1002900022200120787600203876F2BD0220F2BDBF
:1002A0002DE9F041044604F158070D46787C0128F9
:1002B0001CBF787C1228984656D1002D14BF002A06
:1002C000012052D0387C01284ED001203874002003
:1002D0007861787C12280CBF3220222078743A8012
:1002E0007A80FF21A068B0F5805F04D1206928B929
:1002F00040F2FF100EE028B9206908B9B9800AE081
:100300007F2007E0B0F1805F05D1206900280CBF95
:100310007F203F20B880BE8804E02068808C304079
:1003200025F8020B7888B0B1401E78804346002241
:10033000202100F01CF808B1032016E0A068B0F5F9
:10034000805F04BF20690028E7D02068808C30409F
:1003500005F8010BE6E7787C32280CBF122001205B
:1003600078740020387400E00220BDE8F081204657
:1003700000F05ABA38B5044604F152052068C16944
:10038000C90709D50168C90506D501210162E06EDA
:1003900040F00100E066E9752068C16989070AD567
:1003A0008168C90707D502210162E06E40F00400B0
:1003B000E0660120E8752068C16949070AD58168AF
:1003C000C90707D504210162E06E40F00200E06633
:1003D0000120E8752068C16909070AD58168C90745
:1003E00007D508210162E06E40F00800E0660120B8
:1003F000E875E06E10B1204600F0B4FB2068C169DA
:10040000C9020AD58168490207D54FF480110162FB
:100410000120E875204600F0B9FB2068C169890613
:1004200005D50068800644BF204600F04EFA2068DB
:10043000C169090628D50168090625D5E97D122973
:100440001CBFE97D32291FD1298829B900F02EFA75
:1004500041F04001016017E0A168B1F5805F04BF81
:100460002169002908D1E16C0988C905C90D0185F8
:10047000E06C801CE06404E0E16C4A1CE2640978F2
:1004800001852888401E28802068C169490611D549
:10049000016849060ED5016821F040010160E87D40
:1004A000322808BF222001D000F007FAE875204664
:1004B00000F001F831BD704770470000F8B5044600
:1004C000894B226810681840A368184323691843B1
:1004D00063691843E3691843106010265068E368A5
:1004E00020F440501843506000210025A0697F4B44
:1004F0009A421CBF276A3843976827F4306738430D
:1005000090607B4F7B48BA421FD1006800F0030027
:10051000032847D8DFE800F0023626450126E069C7
:10052000B0F5004F40F0B98066B1012E00F09E801A
:10053000022E00F09E80042E00F09D80082E00F018
:100540009E80A2E000F014FE97E06B4FBA420BD100
:10055000006810F00C005DD0042813D0082801D0EA
:100560000C280DE002261DE0644FBA420CD1006851
:1005700010F030004ED0102804D02028F2D03028BF
:100580000FD00FE004260DE05D4FBA4223D1006882
:1005900010F0C0003ED04028F4D08028E2D0C0281F
:1005A00000D108269A42BAD1300006D0022E33D0AC
:1005B000042E33D0082E34D092E000F0D9FD00286C
:1005C00000F08F80616801EB4102904202D30A0380
:1005D000824229D284E04B4FBA420CD1006810F419
:1005E000407017D0B0F5807FCCD0B0F5007FB9D087
:1005F000B0F5407FC4E79A42D4D1006810F440605F
:1006000008D0B0F5806FBDD0B0F5006FAAD0B0F5BE
:10061000406FB5E70026C5E73B48D3E700F051FD42
:10062000CDE74FF40040CDE736B1022E07D0042EBF
:1006300007D0082E0ED012E000F09AFD03E03348F8
:100640000AE000F03EFD010E62680002002300F0A7
:10065000F9FD05E04FF40000B0FBF1F000E00125EA
:10066000A0F540712A4A91423AD22EE000F088FD6E
:1006700003E0284805E000F024FD400001E04FF4CD
:1006800080306168B0FBF1F100E001254FF6F070B9
:100690000840C1F34201084317E046B1012E09D0DA
:1006A000022E0AD0042E0AD0082E11D018E000F035
:1006B0005FFD06E000F064FD03E013480AE000F08F
:1006C00000FD6168B0FBF1F080B22168C86008E00D
:1006D0004FF400406168B0FBF1F080B2D06000E000
:1006E00001252846F2BD0000F369FFEF00800040BD
:1006F000003801408810024000440040004800409B
:10070000004C0040005000400024F400000024F49D
:1007100000FD0F000048E80190F82410C90706D535
:1007200001684A68836A22F400321A434A6090F8EA
:100730002410890706D501684A68C36A22F480320A
:100740001A434A6090F82410490706D501684A68A0
:10075000036B22F480221A434A6090F824100907A0
:1007600006D501684A68436B22F400421A434A6086
:1007700090F82410C90606D501688A68836B22F4B4
:1007800080521A438A6090F82410890606D50168C1
:100790008A68C36B22F400521A438A6090F82410CE
:1007A000490610D501684A68036C22F480121A4386
:1007B0004A60026CB2F5801F05D14A68436C22F48E
:1007C000C0021A434A6090F82410090606D5016851
:1007D0004A68806C22F4002210434860704770B56C
:1007E000044604F16805002068606FF07E462068CA
:1007F0000068000706D5334600224FF40011FFF7CA
:10080000B6FD50B920680068400708D5334600227D
:100810004FF48001FFF7ABFD08B1032070BD01204C
:1008200068700020287070BD2DE9F84304460E461C
:1008300091461F4600F0A1FDB9F1000F804604F17A
:1008400068050FD12068C0693040B0422BD017F145
:10085000010FF7D0AFB100F090FDA0EB0800874288
:10086000F0D20EE02068C0693040B0421BD117F1D1
:10087000010FF7D02FB100F080FDA0EB08008742F8
:10088000F0D2206800F012F821F020010160206809
:10089000016821F48071016000F00FF86870002099
:1008A0002870032000E00020BDE8F283016821F0F9
:1008B00080010160206801687047206881684908EC
:1008C0004900816001207047000010B500F15A0115
:1008D0004A88CB7B222B1CBFCB7B322B35D1836844
:1008E000B3F5805F04BF0369002B08D103689B8CBC
:1008F0001A40436D1A80426D921C426506E0436DBA
:100900005C1C44650468A48C22401A700A88521E3C
:100910000A8092B2BAB90268136823F02003136008
:10092000CA7B322A08BF12220AD00268136823F455
:1009300080731360026893685B085B009360012218
:10094000CA73FFF7B9FD002010BD0068018B41F0AC
:1009500008010183022010BD10B5C0B0FF218DF841
:100960000010022401218DF8011041788DF8041047
:1009700000218DF805100178FF2914D14078012855
:1009800004D0042809D005280AD00CE08DF8060010
:10099000042409208DF8070008E000F0CEFD05E0F2
:1009A00000F0DEFD02E001208DF805000020221D90
:1009B0008DF802408DF80300D2B200E0401C904256
:1009C000FCDB4FF4967369466048FFF71AFC08B1E8
:1009D00000F0D4F840B010BD80B55D485D4941607D
:1009E0004FF4E13181600021C16001614161C16169
:1009F0000C218161001DFFF7C7FB00281CBFBDE86B
:100A0000014000F0BBB801BD81B000200090524908
:100A100003E000BF0098401C009000988842F8D383
:100A200001B0704700B54D4887B000F023F800F0E2
:100A300021F8C16841F40031C16001A9C06800F427
:100A400000300090009804200190022002900120C4
:100A500003900220049000F007F80820019001A9FB
:100A600000F002F807B000BD072005904FF090405D
:100A700000F05ABE016841F001010160016801F017
:100A80000101009100997047F0B5C1B000F052FC2F
:100A9000002000F057FF0021002000F081FF00F04F
:100AA000D9FFFFF799FF00F02CFD00F046FD2C4C1C
:100AB000274D0A2304222946281DFFF7F1FB20B108
:100AC000032823D000F05AF820E0EE7856B14FF416
:100AD0009673324605F17401281DFFF7E1FB08B15A
:100AE00000F04CF8002000E0401CB042FCDB28780D
:100AF000012807D13346042205F17401284600F08D
:100B0000DFFC03E004212846FFF726FF01214FF018
:100B1000904000F0E7FE0128CBD1FF226946204635
:100B200000F026FDC6B2002EF0D000276846391826
:100B30004FF496730122281DFFF763FB08B100F004
:100B40001DF87F1CB742F1DBE0E700001404002031
:100B50001004002000440040400D03004C100240EF
:100B60008405002080B5002000F010FFFFF74CFF47
:100B7000002000F00BFFBDE8014045E780B50020F4
:100B800000F004FF642000F0FBFBF8E77047000072
:100B90002DE9F8430446DFF87C562078DFF86C66D0
:100BA000C00626D5B06810F00C0F3AD13068800727
:100BB00002D5A069002832D0306800074EBF3068E7
:100BC0006868000900F0F001206A814206D200F056
:100BD000E1FA002823D100F0BEF905E000F0BBF9EE
:100BE000206A00F0D7FAD0B900F06BFAB26800F0D2
:100BF00054FA2078C00774D500F0A9F9082808D065
:100C000000F0A5F90C2802BFF06800F003000328EB
:100C10002AD13068800364D56068002861D1012042
:100C20008AE1A0690028306810D040F0010000F08F
:100C300085F907463068800705D400F09EFBC01B8D
:100C40000328F7D375E100F086F9D2E740084000A9
:100C500000F074F9074630688007CAD500F08DFBB4
:100C6000C01B0328F7D364E100F06BF920F4802067
:100C700000F064F907463068800305D500F07DFB7D
:100C8000C01B6528F7D354E16068B0F5803F07D0FA
:100C9000B0F5A02F00F055F906D140F48020306067
:100CA000306840F4803001E020F4802030606068DB
:100CB00058B100F062FB07463068800311D400F0A1
:100CC0005CFBC01B6528F7D333E100F056FB0746F9
:100CD0003068800305D500F050FBC01B6528F7D3B2
:100CE00027E12078800719D500F031F9042808D0D1
:100CF00000F02DF90C2802BFF06800F00300022874
:100D000022D13068400502D5E068002887D070689D
:100D1000216920F0F85040EA0160706020780007F7
:100D200041D56069002868682ED040F001006860F5
:100D300000F023FB07466868800734D400F01DFBF1
:100D4000C01B0328F7D3F4E0E068002830680DD01A
:100D500040F4807000F0F2F8074630684005D6D4C1
:100D600000F00BFBC01B0328F7D3E2E020F48070F7
:100D700000F0E4F8074630684005CFD500F0FDFAF2
:100D8000C01B0328F7D3D4E040084000686000F09F
:100D9000F4FA07466868800705D500F0EEFAC01B34
:100DA0000328F7D3C5E02078400766D5B06DC000B2
:100DB0004FF000080AD4B06D40F08050B0654FF09D
:100DC0000108B06D00F0805000900098DFF8489462
:100DD000D9F80000C00512D4D9F8000040F48070A2
:100DE000C9F8000000F0C9FA0746D9F80000C005AC
:100DF00005D400F0C2FAC01B0328F6D399E0A0681E
:100E000001280CD008B928680DE0052828680AD107
:100E1000400840002860286840F0040028602868E6
:100E200040F0010005E0400840002860286820F0FC
:100E30000400286041F28939A06858B100F09DFA99
:100E400007462868800711D400F097FAC01B484570
:100E5000F7D36EE000F091FA07462868800705D5C1
:100E600000F08BFAC01B4845F7D362E0B8F1000FE1
:100E700003D0B06D20F08050B065606A00285AD071
:100E8000B16801F00C010C293FF4C9AE02283068AA
:100E900020F08070306038D100F06FFA074630687B
:100EA000800105D500F069FAC01B0328F7D340E0A4
:100EB000E06A216B401E090241EA0010616B0909DA
:100EC00040EA4140A16A0843A16B891E0905490D0A
:100ED00040EA4150E16B891E090601F07E4108435A
:100EE000F060306840F080703060F06840F08070F2
:100EF000F06000F042FA0746306880011BD400F031
:100F00003CFAC01B0328F7D313E0F068DFF80C139A
:100F100080088000F060F0680840F06000F02DFA72
:100F200007463068800106D500F027FAC01B032869
:100F3000F7D3032000E00020BDE8F283306000F02A
:100F40001CBA306820F48030306030687047B06878
:100F500000F00C007047306840F0080030603068E6
:100F6000216A20F0F000084330607068E16920F4E5
:100F70007F4040EA0120706070472DE9F843DFF8B8
:100F8000A06204463068884600F00700404502D25F
:100F900000F08DF864D12078DFF87072800705D5F5
:100FA000B868A16820F0F0000843B8602078C00756
:100FB0004ED56068022802D13968890308E0032809
:100FC00002D13968890103E00028396802D1890714
:100FD00002D445E0490543D5B968890840EA810053
:100FE000B86041F2893900F0C8F905466068022806
:100FF0000AD1B86800F00C00082829D000F0BDF92B
:10100000401B4845F5D321E003280AD1B86800F019
:101010000C000C281CD000F0B0F9401B4845F5D35B
:1010200014E048B9B86810F00C0F11D000F0A5F921
:10103000401B4845F6D309E0B86800F00C000428CE
:1010400006D000F09AF9401B4845F5D3032022E072
:10105000306800F00700804504D200F028F801D085
:10106000012018E02078400705D5B868E16820F431
:10107000E0600843B8602078000706D5B8682169A9
:1010800020F4605040EAC100B86000F01AF8BA6875
:1010900000F003F80020BDE8F2836249C2F30312B6
:1010A000515CC8405A4908600F2000F04FB93068C1
:1010B000C00848EAC0003060306800F007004045D2
:1010C000704752498B680022002013F00C0F09D0A2
:1010D0008B6803F00C030C2B02BFCB6803F00303F7
:1010E000012B13D10A68120704D4504A1268C2F3C4
:1010F000032202E00A68C2F303124D4B53F8222088
:101100008B6813F00C0F0ED110460CE08B6803F0C7
:101110000C03042B08BF474805D08B6803F00C0371
:10112000082B08BF44488B6803F00C030C2B1ED11E
:10113000C868CB68C3F302135B1C00F003000228ED
:1011400002D0032802D005E03A4800E03A48B0FB5C
:10115000F3F001E0B2FBF3F0CA68C968C1F3416182
:10116000C2F30622491C50434900B0FBF1F070471E
:1011700027482D4A006812683049C2F3022206E06F
:101180002348294A006812682C49C2F3C222515CE4
:10119000C840704770B52A4E82B0054630680024BA
:1011A000C00002D500F0BAFC0EE0306840F080507C
:1011B0003060306800F080500090009800F0AEFC85
:1011C000316821F080513160B0F5007F04D1812D6C
:1011D0000DD3A12D0AD305E0812D28BF032406D20B
:1011E000802D01D1022402E0702D00D101240C4891
:1011F0000168C90844EAC1010160006800F0070005
:10120000A04214BF0120002076BD00000010024063
:10121000080000209010024000700040FFFFEEFE2A
:1012200000200240182100080810024094100240DB
:10123000282100080024F40000127A00E4220008AB
:10124000581002401B4213D1094236D12AB18446BC
:10125000B0FBF2F002FB10C2704700F067BCFCD399
:101260000022002370470B0002000021002070477D
:10127000904271EB030CF6D370B5B1FA81F4B3FA76
:1012800083F52C1BA340C4F1200532FA05F6334345
:10129000A2405FF00046E64002E05B085FEA3202EF
:1012A000841A71EB030524BF204629467641F4D306
:1012B00002000B003000002170BD012ACFD970B5AB
:1012C000140C20D0B1FA81F4B2FA82F5C4F12004F2
:1012D0006419B4F12006D6D3B2405FF00044F44064
:1012E000002502E052085FEA3303C61A71EB020ED2
:1012F00024BF3046714664416D41F3D302000B00B8
:101300002000290070BD0C46B1FBF2F102FB114533
:101310002D0445EA1045B5FBF2F402FB145580B2EA
:1013200040EA0545B5FBF2F002FB105240EA0440EA
:1013300070BD000080B5032000F007FC0F2000F016
:1013400005F800F002F8002002BD704710B5044611
:10135000114800684FF47A71B0FBF1F000F02EFCF8
:10136000002221464FF0FF3000F0FCFB002010BDB2
:101370000A480168491C01607047084800687047C6
:1013800038B50446FFF7F9FF0546FFF7F6FF401BA7
:10139000A042FAD331BD000008000020E80500207B
:1013A0000068D549884200D0704700B5D34887B05F
:1013B000016841F001010160016801F00101009143
:1013C0000099016841F002010160016801F0020129
:1013D0000091009900F061F800F05FF8416941F474
:1013E0008051416101A9406900F48050009000984B
:1013F0004FF480700190012002900390002004902F
:10140000059000F059F900224FF4807100F05AF96C
:101410000820019001A9022002900390032004906B
:1014200005200590B64800F07FF9402000F027F82D
:10143000802000F024F80220019001A901200290F0
:1014400000F014F800F03CF90120019001A9AD482A
:101450000290002000F00AF800220321062000F08C
:1014600081FB062000F09BFB07B000BD039003202A
:101470000490002005904FF0904000F055B9019085
:1014800001A902200290002003900320049005206F
:1014900005904FF0904000F047B9016841F001011C
:1014A0000160016801F0010100910099016841F0BB
:1014B00001010160016801F001010091009970478C
:1014C0002DE9F04104469048DFF8408284B00D4693
:1014D00000680A21B0FBF1F116461F4601A800F092
:1014E0008FFBF8B20090F3B22A462146404600F046
:1014F00085F820B101A800F08BFB0028F1D0BDE8F1
:10150000FF8182487C4901604FF482714160002173
:1015100081604FF4E061C1600021016141614FF4DD
:10152000007181610021016241620721C1620821CD
:10153000C1610021816200F077BB80B500224FF4C9
:10154000807100F0BFF80520FFF71AFF01224FF469
:10155000807100F0B7F8BDE802400520FFF710BF2A
:1015600080B500F097F8FFF7E8FFBDE80140ADE077
:101570002DE9F04186B005460E46FF2017468DF84E
:10158000050004A80FF288110CC90CC0002200F05D
:1015900098F80F200090052302AA04A900F077F81C
:1015A0009DF808000024022819D19DF80C009DF830
:1015B0000B1051EA002812D047450DDAB8460BE06F
:1015C0000F200090012301AA0DF1050100F05FF842
:1015D0009DF80400A055641CE4B24445F0DB00F023
:1015E0006FF8002002E000BF0098401C00900098B7
:1015F0000228F8DB204606B0BDE8F0812DE9F04373
:10160000884691461E460FF21011C5B005460CC91A
:1016100003A80FF20C110CC00CC901A800270CC0C4
:10162000062000F0C2FA002200F04BF80F200090D4
:10163000052301AA03A900F02AF89DF80400022856
:101640001AD14C9C9DF8050054FA86F1884210DBB3
:1016500036B10F200090334605AA414600F017F836
:1016600064B10F200090234605AA494600F00FF808
:1016700004E06FF0010701E04FF0FF3700F020F8C1
:10168000062000F08CFA384645B0BDE8F0832846C5
:1016900000F030BB00B585B0012000900190694694
:1016A000032003900020029000F006F8012201219F
:1016B00000F008F805B000BD4FF0904000F034B8DD
:1016C000012202214FF0904000F012B900B585B020
:1016D0000120009069460B480190022002900320EF
:1016E000039000200490FFF7E7FF00200290694676
:1016F000FFF7E2FF05B000BD003001404C10024092
:101700000004004800001110EC22000884050020AD
:101710000B000000000000000A00000000000000B4
:10172000AA000000000000002DE9F84700227A4BD3
:10173000DFF8E881DFF8E8914FF00F0A30E005FAB2
:101740000EFE4EEA040448F82C406FEA070C1C68B1
:101750000CEA040E4C68E40348BF47EA0E0EC3F8D7
:1017600000E05C680CEA040E4C68A40348BF47EA3A
:101770000E0EC3F804E09C680CEA040E4C68E40208
:1017800048BF47EA0E0EC3F808E0DC680CEA040C18
:101790004C68A40248BF47EA0C0CC3F80CC0521CAA
:1017A0000F6837FA02F400F09B804FF0010C0CFA3E
:1017B00002F42740F3D04D68022D18BF122D11D12D
:1017C000D50800EB850C02F00706DCF820504FEA44
:1017D000860E0AFA0EF6B5430E6906FA0EF6354382
:1017E000CCF820504FEA420C0326056806FA0CF6A6
:1017F0006FEA060E0E7906F003060EEA050506FAF4
:101800000CF635430560E4434D68012D18BF022DE9
:1018100003D0112D18BF122D0FD18568CE680EEAA6
:10182000050506FA0CF63543856045684E68C6F333
:10183000001625409640354345604D6805F0030687
:10184000032E06D1C66AC5F3C005344095402C432B
:10185000C462C4680EEA040E8C6804FA0CF444EA0C
:101860000E04C4604C68E40099D5D9F8004044F0F7
:101870000104C9F800404FEA920CD9F8004004F086
:101880000104009402F00305009C58F82C404FEA34
:10189000850E0AFA0EF5AC43B0F1904F08BF002553
:1018A0001DD0204DA84208BF012518D01E4DA842CA
:1018B00008BF022513D01D4DA84208BF03250ED036
:1018C0001B4DA84208BF042509D01A4DA84208BFE5
:1018D000052504D0184DA8420CBF062507252EE784
:1018E000BDE8F1870069084018BF0120C0B2704709
:1018F000002A14BF81618162704742695140416191
:1019000070470E4A1368034200D1704780B51060DB
:1019100000F016F801BD000000040140080001407D
:10192000601002400004004800080048000C004815
:10193000001000480014004800180048140401403A
:101940007047000010B586B0044600F070F83CB94E
:10195000DFF8E400016841F00101016000F010F8D7
:101960000FF2E40030F8140000F05AF8022004905E
:10197000DFF8C80050F82400FFF7D6FE06B010BD0F
:10198000006800F001000090009870470FF2B80165
:10199000DFF8A82031F8101052F82000FFF7ADBF93
:1019A00030B587B004460D4600F041F854B9DFF871
:1019B0008800016841F004010160006800F0040043
:1019C00000900098DFF878000FF280013DB931F8FF
:1019D000141001910021029100F01AF816E0012D77
:1019E00014D131F814100191DFF858100291002140
:1019F00000F00EF80FF2580030F8144000220F21CA
:101A000060B200F0AFF860B200F0C9F807B030BDC6
:101A100003910221049101A950F82400FFF784BE2C
:101A2000019001A90120029000200390704701A8B5
:101A3000142100F02BBB00004C10024000000020DD
:101A40000400002000002110200000000020000001
:101A50002800000000B597B001A8142100F016FB83
:101A60000FF2780106A891EC100B80EC100B1A48CD
:101A7000016841F080510160006800F080500090E2
:101A800000981020069001200C9060200E900020FD
:101A90000D9002200F90012010901190282012909C
:101AA00002201590072013900420149006A8FFF739
:101AB0006FF800B1FEE70F2001900421032002908F
:101AC000002003900490059001A8FFF756FA00B19A
:101AD000FEE717B000BD00005810024000000000F3
:101AE00000000000000000000000000000000000F6
:101AF00000000000000000000000000000000000E6
:101B000000000000000000000000000000000000D5
:101B1000000000000000000000000000DFF80800E6
:101B2000006800F4C060704700700040704700001B
:101B30000901002806D52B4A00F00F00801800F894
:101B4000041C7047284A8154704728490A684FF698
:101B5000FF031A4000F0070042EA0020244A104325
:101B60000860704738B5214B1B68C3F30223C3F1EB
:101B70000704052C28BF04241D1D072D34BF002396
:101B8000DB1E012505FA04F4641E2140994005FA84
:101B900003F35B1E1A401143BDE83440C8E701213E
:101BA00000F01F029140134A04E0012100F01F02DF
:101BB0009140114A400942F82010704710B5401E6C
:101BC000B0F1807F01D3012010BD0C4C60600F216B
:101BD0004FF0FF30FFF7ACFF0020A060072020602F
:101BE000002010BD18ED00E000E400E00CED00E086
:101BF0000000FA0500E100E080E100E010E000E014
:101C000010B504466160FFE700F043FA206010BDA4
:101C100010B5044600F03DFA22686168801A401C45
:101C200081428041C00F10BD70B5040001D1012078
:101C300070BD04F15C05687818B928702046FFF77C
:101C4000AFFB0220687040F2017300F0FDF9E2681A
:101C50009A4204D30021B2F5706F05D106E0B2F5C7
:101C6000E06F4FF4805101D00026A662266B26B9A2
:101C70009A422CBF0222012222636268A3681A439F
:101C800023691A4363691A43A36903F400731A436F
:101C9000E3691A43236A1A43A36A1A430260226B58
:101CA000022A03D1026842F400620260A269636AF8
:101CB000120C02F004021A43636B1A43E3681A43DE
:101CC00011434160E16A0161002068600120687091
:101CD000002070BD3B4601220121304600F034B99E
:101CE00001684DF6FF7211400160016841F4005136
:101CF000016070472DE9F84F0646894692469B469B
:101D0000FFF73BFB06F15C048046207800250128A4
:101D100008BF022000F0F6800120207060780128C2
:101D200018BF022540F0E980B9F1000F1CBFBAF1DD
:101D3000000FBBF1000F00F0DF80052006F138072F
:101D400060706560C7F808A0A7F80EB0A7F80CB0DF
:101D5000C7F80090A7F806B0A7F804B000F0E0F8C4
:101D600002D13068FFF7BCFF40F20171F068884291
:101D700002D2F889022804DB3068426822F48052DB
:101D800003E03068426842F4805242603068026882
:101D9000520603D4026842F040020260F068DDF8A7
:101DA000289088423AD3F98889B9F889F8B900F0BF
:101DB000B7F840F08B804B46FFF78DFF00287CD1B1
:101DC000F1683068B1F5706F6ED1C0687CE0306842
:101DD000826892070BD500F097F8491EF98089B206
:101DE000002904BFB16AB1F5005F00F0A7F8F889D7
:101DF00058B130688168C90707D5B968C0680880DC
:101E0000881CB860F889401EF88119F1010FCAD00A
:101E1000FFF7B3FA00F08EF8C5D343E0F98811B9A3
:101E2000F889C0B9C3E730688268920713D50229E0
:101E300003DB00F069F8891E04E0396800F074F8EB
:101E4000F988491EF980F988002904BFB16AB1F503
:101E5000005F00F073F8F989E1B130688268D20759
:101E600018D5BA6802290EDBC1681180911CB960CF
:101E7000F989891EF98189B202290BDA416841F496
:101E80008051416006E0511CB960007B1070F889F8
:101E9000401EF88119F1010FC0D0FFF76EFA00F073
:101EA00049F8BBD3032528E000F034F8306B022852
:101EB0000CD14B46FFF70FFF20B1606840F00200E5
:101EC0006060EFE73068007B00F025F830688168DB
:101ED000C90607D5616841F00201616001254FF62E
:101EE000EF7181604946304600F0B4F810B120200F
:101EF000606001E0606800B1012501206070002091
:101F000020702846BDE8F28F3A6832F8023BC36081
:101F10003A607047007BADF80000BDF800007047E4
:101F2000B06AB0F5005F7047491C3960491E0978F6
:101F300001737047A0EB08004845704703D1016862
:101F400041F48051016070472DE9F04104460D468F
:101F500090461F46FFF711FA064620688068284021
:101F6000404516D017F1010FF7D027B1FFF705FA5A
:101F7000801BB842F1D300F043F807D1A168B1F556
:101F8000004F18BFB1F5806F00F043F800F047F83C
:101F900000E00020BDE8F0812DE9F04182B0044668
:101FA0000D4616461F46FFF7E8F98046206881680F
:101FB0002940B14221D0B5F5C06F08BF002E04D131
:101FC000007B8DF800009DF8000017F1010FEDD0A7
:101FD0002FB1FFF7D2F9A0EB0800B842E6D300F02A
:101FE0000FF807D1A168B1F5004F18BFB1F5806FA8
:101FF00000F00FF800F013F800E00020BDE8F681D3
:102000002068416821F0E00141606168B1F5827F9C
:10201000704703D1016821F0400101607047A16A57
:10202000B1F5005F08D101684DF6FF721140016003
:10203000016841F40051016004F15C00012141702C
:1020400000210170032070472068016821F04001E1
:102050000160704738B50D4604462B4600224FF408
:10206000C051FFF799FF10B900F00AF808B100F06D
:1020700001F832BD206E40F020002066032070473A
:102080002B460022802120465EE70000002200F05F
:1020900003B8FFF772B9000000B500BF1300964601
:1020A0009446103928BFA0E80C50FAD85FEA417C6A
:1020B00028BF0CC048BF40F8042BC90728BF20F830
:1020C000022B48BF00F8012B00BD00000E480F4A4C
:1020D000016841F4700101600D48016841F001019F
:1020E0000160002181600168114001604FF480515E
:1020F000C160016821F480210160002181614FF0FD
:10210000006004490860704788ED00E0FFFFF6EAD0
:102110000010024008ED00E0000000000000000098
:102120000102030406070809A0860100400D030010
:10213000801A060000350C0040420F0080841E000B
:1021400000093D0000127A000024F40000366E0100
:102150000048E801006CDC027047FEE770477047FA
:10216000704780B5FFF704F909480168491C016010
:1021700001BD0120FFF7C5BB0648FEF7FBB880B5DF
:102180004FF40050FFF7BDFB03490120087001BD6B
:10219000EC05002014040020F005002019E050F8A0
:1021A000041BCB0744BFA9F101035918121F0023D8
:1021B000042A41F8043BF9D25FEA827C0B4604D53D
:1021C0004FF0000CA1F800C09B1CD10744BF0021B8
:1021D000197050F8042B002AE1D1704710B450F860
:1021E000041B79B10268436812180830DC0744BF49
:1021F000A9F10104E31852F8044B43F8044B091FFA
:10220000F9D1ECE710BC704710B507497944183193
:10221000064C7C44163404E00A68081D51188847AF
:102220000146A142F8D110BD2C0000004C00000076
:102230004EF68851CEF20001086840F47000086044
:10224000BFF34F8FBFF36F8F4FF00070E1EE100AB6
:102250007047000049FFFFFFE40100001004002068
:102260000000000079FFFFFF0C0000006C00000080
:10227000000000200000000000F00BF8002801D052
:10228000FFF7C2FF0020C046C046FEF7FDFB00F08E
:1022900002F80120704700F001B8000007463846F8
:1022A00000F002F8FBE7000080B5C046C046024AD5
:1022B00011001820ABBEFBE7260002000148804752
:1022C00001480047CD200008CD220008C046C04686
:1022D000FFF7AEFFFFF7D0FF0000004800080048FE
:1022E00000093D000000000001020304E8030000B3
:1022F000FFF7FEBFFFF7FEBFFFF7FEBFFFF7FEBF12
:10230000FFF7FEBFFFF7FEBFFFF7FEBFFFF7FEBF01
:10231000FFF7FEBFFFF7FEBFFFF7FEBFFFF7FEBFF1
:10232000FFF7FEBFFFF7FEBFFFF7FEBFFFF7FEBFE1
:10233000FFF7FEBFFFF7FEBFFFF7FEBFFFF7FEBFD1
:10234000FFF7FEBFFFF7FEBFFFF7FEBFFFF7FEBFC1
:10235000FFF7FEBFFFF7FEBFFFF7FEBFFFF7FEBFB1
:10236000FFF7FEBFFFF7FEBFFFF7FEBFFFF7FEBFA1
:10237000FFF7FEBFFFF7FEBFFFF7FEBFFFF7FEBF91
:10238000FFF7FEBFFFF7FEBFFFF7FEBFFFF7FEBF81
:10239000FFF7FEBFFFF7FEBFFFF7FEBFFFF7FEBF71
:1023A000FFF7FEBFFFF7FEBFFFF7FEBFFFF7FEBF61
:1023B000FFF7FEBFFFF7FEBFFFF7FEBFFFF7FEBF51
:1023C000FFF7FEBFFFF7FEBFFFF7FEBFFFF7FEBF41
:1023D000FFF7FEBFFFF7FEBFFFF7FEBFFFF7FEBF31
:1023E000FFF7FEBFFFF7FEBFFFF7FEBFFFF7FEBF21
:1023F000FFF7FEBFFFF7FEBFFFF7FEBFFFF7FEBF11
:10240000FFF7FEBFFFF7FEBFFFF7FEBFFFF7FEBF00
:10241000FFF7FEBFFFF7FEBFFFF7FEBFFFF7FEBFF0
:10242000FFF7FEBFFFF7FEBFFFF7FEBFFFF7FEBFE0
:04243000FFF7FEBFF5
:00000001FF
