:020000040800F2
:10000000F0050020BD510008A54C0008A74C0008D1
:10001000DD510008E1510008E55100080000000032
:10002000000000000000000000000000A94C0008D3
:10003000AB4C000800000000AD4C0008AF4C0008BD
:10004000E9510008ED510008F1510008BF4C0008CB
:10005000F5510008F9510008C34C0008FD51000893
:100060000152000805520008095200080D5200080C
:100070001152000815520008195200081D520008BC
:1000800021520008255200082952000800000000F3
:100090000000000000000000000000002D520008D9
:1000A0003152000835520008395200083D5200080C
:1000B0004152000845520008495200084D520008BC
:1000C0005152000855520008595200085D5200086C
:1000D00061520008655200086952000800000000E3
:1000E000C94C00086D520008715200080000000061
:1000F0000000000000000000000000007552000831
:1001000000000000795200087D520008815200086A
:1001100000000000000000000000000000000000DF
:10012000DD4C00088552000889520008154D000872
:100130008D520008000000000000000000000000D8
:1001400000000000000000000000000091520008C4
:1001500095520008995200089D520008A1520008CB
:10016000A5520008A952000800000000000000008D
:10017000000000000000000000000000000000007F
:1001800000000000AD520008000000000000000068
:10019000B15200082DE9F041DFF8E4470646207827
:1001A0000F4610B14620BDE8F0810EB1380002D1F3
:1001B000F120BDE8F081DFF8CC8790220021404695
:1001C00000F03EFCDFF8C05728220021284600F04E
:1001D00037FC20223146404600F02CFCAF60284618
:1001E00000F038FC08F12800012101700221417063
:1001F00000F078FC1020A8731120E8730120207013
:100200000020BDE8F08130B585B000F089FC050024
:100210006DD102A800900DF10A0301AA0DF10601AB
:100220000DF1050000F047FFC0B210B9BDF806009F
:10023000040AE4B2312CDFF8540702DB012101701B
:1002400002E0007801280FD1DFF8384704F12400DC
:10025000019004F1200304F1220000900722002104
:10026000012000F074FF0AE0DFF8184704F12403CE
:1002700004F1220204F12001012000F098FF0500A2
:1002800035D1207801F046F8050030D1A078637DA3
:10029000E1780390221DA0690290207D0190A07D4D
:1002A0000090607801F049F8050020D1A07818B1DD
:1002B00001F0F6F805001AD1DFF8CC06018A99B1F1
:1002C0000A218DF80410123018218DF805100090C5
:1002D0000923012201A9012000F03DFC050006D1FF
:1002E00000F037FA050002D1002005B030BD0FF252
:1002F000F06001F039F9284605B030BD38B5DFF8B7
:100300008046207808B9012032BD00F008FC6078F2
:1003100001283CD1DFF87056A87B102806D0202891
:100320000FD0402816D0502824D02EE0FFF76BFFC6
:10033000002807BF2020FF2110201F21E973A87388
:1003400025E0687B297B88421FD13020A8733120AB
:10035000E8731CE0E87B402817D1DFF828064278D4
:100360008178C08C01F065F810B15020A8730CE0C2
:10037000422009E0E87B562807D1DFF80806C08C48
:1003800000F09FFC08B95720E87300206070607887
:1003900032BDDFF8F405807B7047DFF8EC05C07BE9
:1003A000704738B50446002000906946DFF8D855FC
:1003B000284601E00098694600F08BFB0098A842AF
:1003C00004D0007AA042F5D1002032BD412032BDD8
:1003D00038B504001CBFE068002801D1F12032BD0F
:1003E000002000906946DFF8A055284602E0A042B0
:1003F0000BD0694600F06DFB0098A842F7D1A87BAE
:10040000102802D1E87B1F2801D1412032BD288A63
:10041000618A084328822146287B401C287328468D
:1004200000F02EFB002032BD38B5040001D1F120D0
:1004300032BD002000906946DFF84C55284600E0A8
:10044000694600F046FB0098A84209D0A042F7D1C7
:10045000204600F01FFB287B401E2873002032BD81
:10046000412032BD38B50446002000906946DFF8CF
:100470001855284600E0694600F02BFB0098A8427A
:100480000FD0A042F7D1207C58B9687BDFF8F01478
:10049000401C687301202074487001F0F1F80020BE
:1004A00032BD412032BD70B5DFF8DC6482B0044655
:1004B000B07B30280D460DD10020009069463046B3
:1004C00000E0694600F005FB0098B04202D0A0426F
:1004D000F7D1F57373BD10B5DFF8AC44A07B50289D
:1004E00018BF40280AD1DFF89C04C08C132100F00B
:1004F000EDFF18B95520E073002010BD412010BD5C
:1005000010B5DFF88444A27B01464120402A12BF87
:10051000502AE27B442A09D1DFF86804C08C00F03D
:100520003CFF00280CBF47214021E17310BDDFF8DC
:10053000541491F828205318521C83F82900D2B281
:100540005318000A83F82900501C81F828007047CE
:100550002DE9FC47DFF828644FF0000A8DF804A06D
:10056000002480460120707008F1010501F088F830
:1005700098F80000042840F0EA802878DFF8087432
:10058000052804D03E281BD0FF284AD0BFE0B97B05
:10059000A81C402918BF502901BFB0F80110DFF88E
:1005A000E423D28C914240F0B280017819B9302115
:1005B000B9733121F973012400784FF005092DE05A
:1005C000A81C0178012902BF451CB87B302840F0E7
:1005D0009E802878D0B9DFF8AC03B5F80110C1844B
:1005E000007F012802D14020402105E0022807BFFA
:1005F0004020392150205121B873F97306222879FF
:100600003071691D701D00F015FA03E03020B873D9
:100610003120F873012428784FF002098DF8040086
:1006200075E0A81C0188491E10D04FF48062891A19
:100630001BD0491E39D0491E44D0491E49D040F232
:10064000FE72891A53D00E3954D060E010F8021FA0
:10065000012901BFB97B10291221F9730078012407
:10066000401E8DF80400A14651E0B97B821C402950
:1006700018BF50294BD1907860B1DFF80803007F94
:10068000012802D14020402106E0022802D140206A
:10069000392101E050205121B873F9730124907879
:1006A0008DF804004FF0040931E0B97B402918BFF0
:1006B00050292CD14420F8730022BB68002103206C
:1006C000984724E0DFF8BC02C08C012100F07BFEDB
:1006D0001DE0B87B402804BFF87B422817D1DFF823
:1006E000A402407800280CBF472043200EE0FFF70B
:1006F000F2FE0CE0B87BB6F80CA0502801BFF87BE6
:10070000572840F20B10824501D15120F873002088
:10071000B8F1000F00900ED06946384606E0C16877
:1007200008001CBF404688470098694600F0D1F990
:100730000098B842F3D12CB1BB6801AA01215FFA3D
:1007400089F09847BAF1000F1CBF0020B081BDE8C6
:10075000F38730B5DFF8304287B0207CC0071AD568
:1007600023208DF8180008232A208DF8190006AAE6
:1007700004F1140005900121002004900A20039048
:1007800000200290019002200090608A00F018FA88
:10079000050040F0ED80207C80071AD524208DF8DC
:1007A000180020232A208DF8190006AA04F116004B
:1007B00005900121012004900A200390002002905E
:1007C000019002200090608A00F0FAF9050040F0E4
:1007D000CF80207C40071AD525208DF818002023D3
:1007E0002A208DF8190006AA04F1180005900121AD
:1007F000012004900A200390002002900190022022
:100800000090608A00F0DCF9050040F0B180207CA7
:1008100000071AD526208DF8180020232A208DF8ED
:10082000190006AA04F11A00059001210120049084
:100830000A20039000200290019002200090608A1C
:1008400000F0BEF9050040F09380207CC00619D569
:1008500027208DF8180020232A208DF8190006AAD9
:1008600004F11C0005900121012004900A2003904E
:1008700000200290019002200090608A00F0A0F910
:10088000050075D1207C800619D528208DF8180028
:1008900020232A208DF8190006AA04F11E000590D5
:1008A0000121012004900A20039000200290019071
:1008B00002200090608A00F083F9050058D1207C66
:1008C000400619D529208DF8180020232A208DF8FC
:1008D000190006AA04F120000590012101200490CE
:1008E0000A20039000200290019002200090608A6C
:1008F00000F066F905003BD1207C000618D52A20BF
:100900008DF818008DF81900202304F122000590BD
:1009100006AA0120049001210A20039000200290E1
:10092000019002200090608A00F04AF905001FD172
:10093000208AC00519D550208DF8180007232A20D9
:100940008DF8190006AA04F1240005900121002069
:1009500004900A2003900020029001900220009051
:10096000608A00F02DF9050002D1002007B030BDEB
:100970000FF2940000F0F8FD284607B030BD0000EB
:10098000780F00202C0C0020F40E0020A90F00206E
:1009900030B583B0054601A800900C460DF10A035E
:1009A00002AA0DF106010DF1090000F084FBC0B2AE
:1009B000A0B9BDF80610090A2970BDF80610090291
:1009C0002180BDF804201206120F41EA0211218095
:1009D000BDF8042002F00F021143218003B030BDA6
:1009E0004572726F72207768696C6520696E6974F0
:1009F00069616C697A696E67206D61696E207072D9
:100A00006F66696C652E0A005B4449535D20457230
:100A1000726F72207768696C6520616464696E67C3
:100A2000206368617261637465726973746963736A
:100A30002E0A000010B5044600F0A2FE204610BDAC
:100A400010B5044610460A460146204600F0D4FE82
:100A5000204610BD006040607047EFF3108172B611
:100A6000026882420CBF012000201CE0EFF31082DC
:100A700072B603680B6048600160086841602DE051
:100A8000EFF3108272B6086043684B6041604868BB
:100A9000016023E0EFF3108172B6436802681A60C8
:100AA00042680068426081F31088704738B50C4690
:100AB000EFF3108572B6016821600068FFE7FFF769
:100AC000E9FF2168002008602168486085F31088EC
:100AD00031BDEFF3108272B60068086082F31088AF
:100AE000704700000020704738B5044615460B4695
:100AF00000222946012001F04DF8054860433F21BE
:100B0000B0FBF1F1287801F090F8002032BD000030
:100B100040420F0080B501F060F8002002BD704730
:100B200000B587B000F012F900F001F940F20110B1
:100B3000ADF80600002100F009F800284CBFFF20A6
:100B40009DF8000007B000BDC0B2049001200690DF
:100B500001A800F018BA70B58CB001288DF81C00FF
:100B600014460CBF022610261D4632460DF11D000C
:100B7000FFF760FF701C07A9C0B203224454441C55
:100B8000E4B2684665540021FFF75AFF00F0DEF832
:100B900000F0CDF84FF4817000F062F8601CC0B234
:100BA00004900320FFF7D3FF002848BFFF2005D49F
:100BB0009DF8000010B9109900F049F80CB070BD14
:100BC000F1B58EB00D4616461F4602220EA900F062
:100BD000C4F807AC012DA57031460CBF02251025C5
:100BE0002A4600F0A0F8E81CC0B2411C0755C9B263
:100BF00014980855491C1598C9B203220855491C78
:100C00001698C9B20855491C1798C9B24D1C085509
:100C1000EDB21898285500F01FF800F097F800F092
:100C200086F84FF4827000F01BF8681CC0B2049084
:100C30000320FFF78CFF002848BFFF2005D49DF854
:100C4000000010B9199900F002F80FB0F0BDBDF81E
:100C5000010008800020704700216846FFF7F0BEC1
:100C6000ADF80600002107A80390704733B51C4675
:100C7000A01DA7B081281546A8BF42201FDA022276
:100C800027A900F06AF8022228A900F06BF82C9935
:100C90008DF820508DF82140224600F023F800F016
:100CA00055F800F044F84FF48370FFF7D9FFA01D0A
:100CB000FFF74AFF00284CBFFF209DF8000029B035
:100CC00030BD00B589B000F025F800F00FF840F213
:100CD0000B1000F011F800284CBFFF209DF8000019
:100CE00009B000BD0DF12200FFF7A4BE3F20ADF812
:100CF0000800CDF818D07047ADF80A00002101A80F
:100D00000490022005900F2003900120079002A874
:100D100000F039B91822ADF80400002102A8FFF74D
:100D20008FBE224619460DF11F00FFF783BE3F20FC
:100D3000ADF80400CDF814D07047ADF806000021DE
:100D400007A80390E01DC0B204907047182200214C
:100D500001A8FFF775BE022228A907A8FFF76ABEFF
:100D6000022229A90DF11E00FFF764BE73B5A8B0D9
:100D700015462E9CE01D81281E46A8BF42201CDA85
:100D8000FFF7E9FFFFF7ECFF2F998DF820508DF862
:100D900021608DF82240224600F012F8FFF7D6FFBE
:100DA000FFF7C5FF4FF49370FFF7C7FFFFF7CEFEC5
:100DB00000284CBFFF209DF800002AB070BD10999C
:100DC0000DF12300FFF736BE10B5B34C82B0A0780A
:100DD00001280ED104F11000FFF73FFE48B9A070C2
:100DE000694604F11000FFF761FE0098802100F0D1
:100DF0004FFF13BDA84901204870704738B5A64C75
:100E000004F11000FFF726FE04F11800FFF722FEA0
:100E100000258C2010FB054000F1200100F063F854
:100E20006D1C052DF5DB0120A07031BDCCE770B540
:100E3000994C00F10803A3600021E3782BB9E3800B
:100E400003E0042B4ED10323E370E388802B49DABF
:100E5000E3885D1CE580A568E6785B5D002EF0D038
:100E6000032E08BF0623EFD0042E08BF0523EBD0C6
:100E7000052E08BF0723E7D0072E08BF0823E3D0BD
:100E8000082E04D1B5F8032000210923DCE7062E43
:100E900001D11A46F8E7092ED7D1491C89B292B27E
:100EA0009142D2D30021E17000F108014A1C097877
:100EB00004290CD111780E2918BF0F2907D001463B
:100EC00004F11800FFF7DCFD00F0D8FB02E001465A
:100ED00000F009F8E06828B1E188A068E268BDE8A0
:100EE0007040104770BD04F11000FFF7C9BD10B588
:100EF00082B000200090684C0DE0694604F11800B3
:100F0000FFF7D4FD00980830FFF722FB0099FFF7A8
:100F1000EAFFFFF759FF04F11800FFF79EFD0028D4
:100F2000EBD013BD80B55C4A0123937011B1FFF77C
:100F30007EFF04E0014602F11000FFF797FDBDE8D7
:100F4000014041E700F0A0BE70B5890582B0890D6F
:100F500041EA8020ADF800000120504E3070144668
:100F60001D468DF8024003226946701CFFF762FDA2
:100F70002346042229463046FFF7E4FF73BD464965
:100F80000120087170472DE9F8430446424F6088FC
:100F90002188DFF80C918005800D40EA81254148C9
:100FA00000680A21B0FBF1F6002038714FF00A0802
:100FB00000F0D4FB3C48F860E068A3686188C2B2E6
:100FC0002088FFF7C1FF2FE000F0B3FB787838B13D
:100FD000387800F07BFE00F069F84FF0FF3057E002
:100FE00038790028F0D0387800F070FEB8680246F2
:100FF0001178042916D1C11CF8885278C01E0E2A17
:1010000026D00F2A04D0102AE5D03E2A2ED009E09F
:101010004A88ADB2AA4205D162680F2A13D0087877
:101020000028D8D1002038715FEA0800A8F1010833
:10103000D1D006B90126002078703A46494630469C
:1010400000F030FEC2E762699042C8BF10460AE075
:10105000B1F80120ADB2AA42E4D16269C91CC01E38
:101060009042C8BF1046606102460BE00A78636890
:101070009A42D7D16269401E9042C8BF1046606153
:101080000246491C2069FFF7D5FC00F00FF800204C
:10109000BDE8F28300000000F0070020940F00205C
:1010A000F50D0008D85100087F0F00080020F860F7
:1010B000012000F053BBF0B589B000F028F800F033
:1010C00036F800F03FF8042000F037F8012000F077
:1010D00023F8092000F027F8002802D49DF800002A
:1010E00010B14FF0FF3010E09DF801002070BDF806
:1010F000020028809DF804003070BDF8050038809B
:101100000E99BDF807000880002009B0F0BD044624
:101110000D4616461F467047ADF80E000021002010
:10112000059006907047089003A82CE70446092212
:1011300000216846FFF784BC0820ADF80C00CDF80C
:101140001CD070471822002103A8FFF779BC10B506
:101150008AB08DF800008DF801108DF802201C4631
:10116000072200F0CCF900F0D0F800F0E4F98A2072
:10117000ADF80E0000210320069001A8079007207B
:1011800000F0BFF8002848BFFF200ED49DF80400EF
:1011900058B9BDF8050020800C99BDF807000880FB
:1011A0000D99BDF80900088000200AB010BD70B587
:1011B0008AB00C468DF8080015461E46072200F03E
:1011C0006BF900F0A2F800F09EF98A20ADF80E004D
:1011D000002102A8059001200690072000F091F858
:1011E000002848BFFF200CD49DF8000048B9BDF886
:1011F00001002080BDF803002880BDF80500308084
:1012000000200AB070BD00B587B000F077F900F09B
:1012100057F9812000F06AF900284CBFFF209DF8A3
:10122000000007B000BD76B592B000F04FF828BFBF
:1012300042201BD200F052F800F02AF89DF860001E
:1012400000F02CF800F035F800F01AF800F010F873
:1012500000F054F900F034F9832000F047F800F072
:101260007EF900284CBFFF209DF8000014B070BD2F
:10127000A41CE4B207A802221EA92018FFF7DABBBB
:101280006419E4B207A802221DA92018FFF7D2BBF7
:10129000022213A90DF11F00FFF7CCBB1A998DF89C
:1012A00022008DF821608DF823502A4609A8FFF707
:1012B000C1BB05F10800C0B207A9451C4454EDB2FA
:1012C0001C9907A822462818FFF7B4BB199D1B9C40
:1012D00054FA85F10E3129291E4670478DF81C00FD
:1012E000022212A90DF11D00FFF7A4BBADF8060004
:1012F000002107A80390A01CC0B20490704706907C
:101300000120089003A8FFF73EBE1822002103A881
:10131000FFF796BB00B589B018228DF8040000F0E5
:1013200084F800F0B3F8852000F069F800284CBF7D
:10133000FF209DF8000009B000BD30B58FB08DF8DA
:101340001C008DF81D1014461D461022214600F089
:10135000EEF8129814998DF82F008DF82E5018225F
:1013600013988DF830000DF13100016000211598BF
:101370008DF8350001A8FFF763FB00F0A1F8862087
:1013800000F07EF81A20049000F0E9F800284CBF25
:10139000FF209DF800000FB030BD00B589B01822C5
:1013A000ADF804000DF106000160FFF7AFFF00F09B
:1013B000AAF8882000F0ADF800284CBFFF209DF867
:1013C000000009B000BD00B589B000F029F800F0B8
:1013D00021F8892000F007F800284CBFFF209DF875
:1013E000040009B000BDADF80A00002103200590FB
:1013F00001A806900120079002A8FFF7C4BDADF830
:101400000A00002101A8049001200590079002A87D
:10141000FFF7B9BD3F20ADF80800CDF810D07047F8
:10142000ADF800008DF802101822002102A8FFF785
:1014300007BB00B589B0ADF800008DF802108DF83B
:1014400003200021182202A8FFF7FAFAFFF7E2FFB3
:101450008D20ADF80A000021042005900F20039094
:1014600001A8069000F007F800284CBFFF209DF867
:10147000040009B000BD0120079002A8FFF783BD5A
:10148000ADF80600002107A8039070473F20ADF893
:101490000800CDF818D0704700216846FFF7D0BA91
:1014A00000B587B000F02AF800F00AF8922000F0AA
:1014B0001DF800284CBFFF209DF8000007B000BDBC
:1014C0003F20ADF80400CDF814D0704700B589B0C6
:1014D000FFF7A6FFFFF79EFF932000F032F80028E9
:1014E0004CBFFF209DF8040009B000BDADF8060018
:1014F00000210120069001A8FFF745BD1822002118
:1015000001A8FFF79DBA3F20ADF80C00CDF81CD024
:101510007047ADF80E00002101A805900620069046
:101520000F2004900120089003A8FFF72CBD0DF1B7
:101530001E00FFF77FBA3F20ADF80C00CDF814D0A5
:101540007047ADF80A000021032005900F2003909A
:1015500001A806900120079002A8FFF714BD012002
:10156000069001A8FFF70FBD0EB400B582B003A925
:10157000009102466B460121034878440A3000F08E
:10158000ABFB06BC5DF810FB113C0000002070476F
:1015900070B582B000F082FF00F0A6FF00F0CCFF33
:1015A000724C2022002104F12400FFF749FA704D0B
:1015B000704E0120686400200090B06B40F08050B5
:1015C000B063B06B00F080500090009801F07AF8A2
:1015D00001F078F8306820F4F8103060B06E40F414
:1015E0000070B066012028606348206000202077EA
:1015F00001206077204601F0A9F80120A06047F69D
:10160000FF70E060204601F0B5F82168CA2048620A
:101610005320216848620321204601F015F9F06E3D
:101620008007FCD5204600F05AFA0023012204F17D
:101630004001002000F0AEFA0621022001F00CF972
:1016400001F0B0F901F005FD01F0A4FCE06A80476B
:1016500000F018F8FCE772B644494A6C012303FA1B
:1016600000F0104307E072B640494A6C012303FAC8
:1016700000F022EA0000486462B670470020EAE702
:101680000120E8E710B5394C94F84400800607D5EE
:1016900094F8200020B90520FFF7E5FFA06C8047F3
:1016A00094F84400C00607D594F8200020B904201F
:1016B000FFF7D9FFE06B804794F84400C00706D5D8
:1016C00094F8200018B9FFF7CEFFFFF710FC94F84C
:1016D0004400800707D594F8200020B90120FFF7C7
:1016E000C2FFFEF70BFE94F84400000707D594F8FC
:1016F000200020B90320FFF7B6FF606B804794F805
:101700004400400707D594F8200020B90220FFF7D5
:10171000AAFFA06B804772B6606C30B1800980016F
:1017200004BF94F82000012801D101F0C2F862B68C
:1017300010BDA7E70000000003280BD8DFE800F089
:1017400002040809042002E008488264052082E7B8
:1017500010471047100018BF10477047411E8941BD
:101760000248C90F80F82010704700004C0E00207E
:101770003C0E4742083802400028004001F0B8BB48
:1017800062B38B0708D0521E11F8013B00F8013BF1
:1017900000F024808B07F6D1830740F0208000BF43
:1017A000103A07D330B4B1E83810103AA0E8381036
:1017B000F9D230BC530724BFB1E80810A0E80810E4
:1017C00044BF51F8043B40F8043BD20724BF31F832
:1017D000022B20F8022B44BF0B7803707047083AA5
:1017E00007D3B1E80810083A40F8043B40F804CBAE
:1017F000F7D25307E4E7000062F30F2262F31F42BF
:10180000401810F0030308D0C91A1FD3DB0748BFE4
:1018100000F8012D28BF20F8022D130030B4144623
:101820001546103928BF20E93C00FAD8490728BFDF
:1018300020E90C0048BF40F8042D890028BF20F89B
:10184000022D48BF00F8012D30BC7047C91818BFE1
:1018500000F8012DCB0728BF00F8012D70470000CC
:101860002DE9F041DFF80464DFF8048404463078A1
:101870001425082815FB048709D13078707034705E
:10188000082038744FF6FF70F080002039E000F037
:101890006AF8B96811FA80F1B960B968327815FB55
:1018A0000282926891421AD3327802E015FB0282DA
:1018B000127C15FB02831B7C082B04D015FB0383D1
:1018C0009B689942F2D215FB02810B7C082B1CBF4E
:1018D00015FB0385EC733B74FA730C7411E03178DB
:1018E0003378994215FB018206D0D37B15FB038523
:1018F0002C743974FB7300E03974D47331787170CF
:101900003470BDE8F081F0B5D84BD94D1E78142461
:10191000B04214FB005204D118785870107C187033
:101920000BE0D07B167C177C14FB0050082E07744C
:1019300003D0D07B14FB0654E07301201073187899
:10194000082802BF00294FF6FF70D880F0BDC749B4
:10195000C96809684FF6FF7000E0886A8A6A904299
:10196000FBD180B2704710B5C04CE0884FF6FF71D4
:10197000884211D0FFF7EBFFE1888142E18828BF60
:10198000081A04D2228912FA81F1081A401C21791E
:101990004843E178C84000E0002080B210BD2DE946
:1019A000F843B24CE56828688168490502D5C168EA
:1019B0004907FCD48168DFF8B88221F48061816036
:1019C0004FF01409277819FB07808668FFF7CBFFD3
:1019D000864238BF002608D3618910FA81F1B142EE
:1019E00002D26689002101E0361A0121A17001E0CE
:1019F0008A600F7C082F08D019FB07818A68824211
:101A000032BF00228A68121AF2E7B6B23EB9FFF777
:101A10009EFFE0800320BDE8F24301F063BB022E8D
:101A200002DAE078012800D0761E2868C1684907EC
:101A3000FBD500F0A6F88F490860032001F058FBA1
:101A4000E5682868B6B24661FFF781FFE080286844
:101A5000816841F480618160BDE8F1832DE9F04146
:101A6000EFF3108872B68148C16809688A6822F469
:101A700080628A60CA6802F0800262F49062CA6082
:101A80004FF480017B4A116014220578784912FBDB
:101A90000516317B02291ED13768B47B8078C0B12E
:101AA000707B01280AD101212846FFF72CFF88F31B
:101AB00010887168284600F0B8F804E088F31088B0
:101AC000284600F095F83A4629462046FFF734FEAE
:101AD00003E0FFF764FF88F31088BDE8F08138B5B4
:101AE000624CE0600168896801F00701C1F10401FE
:101AF000E17002681269120C02F07F02521C22711E
:101B0000D2B203681B695B045B0C23815B1E5A43E2
:101B10000A41A2F110014FF6FF7291422CBF62817F
:101B200061810121A170E2800021514A0023142526
:101B300015FB0125491C08292B73F8DB08212170AE
:101B400000684D4D816821F48061816000F019F8D2
:101B50006861032001F0CCFAE0680068816841F414
:101B6000804181600022A86840F48000A8600321C1
:101B7000286840F4800028600320BDE8384001F068
:101B800085BAC16801F0800161F49061C1604FF4D1
:101B900080007047F0B50024EFF3108572B614266C
:101BA000334F06FB047C9CF80CC0BCF1000F02D044
:101BB000641C082CF5DB082C0BD006FB04760127EF
:101BC000377385F31088B073727333600C70002024
:101BD000F0BD85F310880120F0BD10B5044600F07B
:101BE00007F82349142212FB04110020087310BDCA
:101BF00038B5054600F042F81D48142111FB0500D8
:101C0000007B02280BD100212846FFF77CFE1748F5
:101C10000178407888421CBF0829FFF7C0FE0320E6
:101C200001F051FA84F3108831BDF8B506460F462D
:101C300000F024F80E48142111FB06050220287339
:101C4000AF606F603046FFF70BFE08490A784978AD
:101C5000914202D0FFF7A3FE02E0A968081AA8602B
:101C6000032001F030FA84F31088F1BD680F0020E2
:101C70008C0B0020143C0140003C0140EFF3108429
:101C800072B6032001F025BADBB2D2B200F012BF67
:101C9000024A1060083001F010B90000900F0020D7
:101CA00001F011B938B5044615460B460022294605
:101CB0000220FFF76FFF4FF47A7060433F21B0FBC3
:101CC000F1F12878FFF7B1FF002032BD80B5FFF7B2
:101CD00084FF002002BD00002DE9F04F80460FF286
:101CE000A47095B015461E46D0E90023CDE9132314
:101CF00003AF00200391B8610DF1340900E06519CC
:101D00000020ADF8020013AB4FF0FF3229460DF171
:101D1000020001F003FA0446012C04DA2878441E7C
:101D2000A441E443E40FBDF8020025280CBFA4F150
:101D3000010BA346BBF1010F0EDBAA461AF8011BEB
:101D40000398C0470028039000F0DA80B869401C6F
:101D5000BBF1010BB861F1D1BDF80200252804D117
:101D60000020F8603861786105E00028C7D1B869C3
:101D700006E340F0010015F8011F2029F9D02329BE
:101D80000DD02B2904D02D2906D030290AD00CE003
:101D900040F0020080B2EEE740F00400FAE740F0C5
:101DA0000800F7E740F01000F4E72A290ED1316867
:101DB000316051F8042B3160002A3A6204D5514257
:101DC00040F00400396280B26D1C13E000213962DA
:101DD0000BE0396A6FF00043994205D001EB8103B3
:101DE00002EB4301303939626D1C2A78A2F13001CF
:101DF0000A29EED329782E2903D04FF0FF31F9615B
:101E00001FE015F8011F2A2907D1316831606D1CC8
:101E100051F8042B3160FA6113E00021F9610BE005
:101E2000F9696FF00043994205D001EB810302EBA1
:101E300043013039F9616D1C2A78A2F130010A2979
:101E4000EED3B8840FF24460297801F077F908B135
:101E500015F8010B8DF832009DF83200682804BF98
:101E60002878682803D162208DF832006D1C0DA8F7
:101E7000B86015F8014B252C13D0582C4BD0632C8F
:101E800000F0A380642C18BF692C7CD06F2C42D04A
:101E9000702C36D0732C0AD0752C18BF782C3AD001
:101EA000B6E00120F86025208DF83400BAE09DF8F6
:101EB00032006C283068306018D050F8044B306025
:101EC0007C60D7F81CA0BAF1000F04D5204601F0C1
:101ED00041F9824607E052460021204601F056F9BA
:101EE00008B1A0EB040AC7F810A09BE050F8042B3F
:101EF000306002A9404600F02DF9002840F19280A0
:101F00003CE23068306050F8041B306002910DA84C
:101F10007860782155E09DF832006C280DD071284A
:101F200018BF6A2809D13068C01D20F0070232604E
:101F3000D2E900010832326004E03168316051F8C2
:101F4000040B316002909DF83200682802D102A88B
:101F5000008803E0622802D102A80078029097F876
:101F60002400000728D5029830B344F020007828D8
:101F700022D1F868302100F80910401C411CF9609A
:101F800000F8094018E09DF83200314600F0BCF836
:101F90000028029002D5F8682D2109E0B88C81074D
:101FA00002D5F8682B2103E0C00705D5F868202189
:101FB00000F80910401CF8600DA8F968081878604E
:101FC000214602A800F0DFF92CE09DF832006C28D1
:101FD00009D00120F8603068306050F8041B306090
:101FE0008DF834101EE03068306001AA50F8041BF0
:101FF0003060ADF804100020ADF8060002A94FF0E3
:10200000FF30F861404600F0A5F800280AD577E7D0
:102010000120F86025208DF834001CB10220F86002
:1020200089F80140386AF968401A7969401A3969B3
:10203000441A97F82400400711D42020012C8DF871
:1020400000000CDBA24601236A4602A9404600F0CC
:1020500001FA00287FF454AFBAF1010AF3D1D7F89E
:102060000CB0BBF1000F0DF1340A0DD01AF8011BB2
:102070000398C047002803903FF442AFB869401C62
:10208000BBF1010BB861F1D1D7F814A03020BAF13F
:10209000010F8DF800000BDB01236A4602A94046C0
:1020A00000F0D8F900287FF42BAFBAF1010AF3D180
:1020B000D7F810B0D7F804A0BBF1000F0DD01AF874
:1020C000011B0398C047002803903FF419AFB8697B
:1020D000401CBBF1010BB861F1D197F82400400717
:1020E0007FF50EAE2020012C8DF80000FFF608AE23
:1020F00001236A4602A9404600F0ACF900287FF4AB
:10210000FFAE641EF4D1FBE5622815D068280CD020
:102110006C2818BF742816D07A2814D10A680A606F
:1021200052F8040B0A60002170470A680A6052F8EE
:10213000040B0A6000B20BE00A680A6052F8040B54
:102140000A6040B204E00A680A6052F8040B0A60B0
:10215000C11770472DE9F44F0D4694B02F6A002F38
:10216000804648BF6FF0004701F03CF8696A4018AC
:1021700001900FF22030D0E90023CDE9022395F839
:102180002800400702D40198412805D240200DF1D3
:1021900010090190002606E001F02AF85FEA000924
:1021A000F8D1EBE03F1B012FC0F294801498018816
:1021B00002AA0DF1010001F073F80028044600F1B5
:1021C0009C801498008810B9641E00F19680A74284
:1021D000C0F28080286901992218914268D26E620B
:1021E0004042A969401A6969461A95F828004007D3
:1021F00010D42020012E8DF800000BDBB246012305
:102200006A462946404600F025F9002875D1BAF102
:10221000010AF4D1D5F810B0BBF1000FCA460CD0BA
:102220001AF8011B6868C0470028686065D0E86933
:10223000401CBBF1010BE861F2D130208DF80000A9
:10224000D5F818A0BAF1010F0ADB01236A46294626
:10225000404600F0FFF800284FD1BAF1010AF4D14E
:10226000D5F814B0D5F808A0BBF1000F0CD01AF8BF
:10227000011B6868C047002868603ED0E869401CC0
:10228000BBF1010BE861F2D195F8280040070DD5AC
:102290002020012E8DF8000008DB01236A46294624
:1022A000404600F0D7F840BB761EF6D100262E61DE
:1022B000224628690DF101014844FFF761FA2869B7
:1022C000201828611498801C1490801E0088002813
:1022D0007FF468AF686A2969401AA969401A696978
:1022E000471A95F8280040070FD4012F0DDB3C4614
:1022F00068682021C047686010B94FF0FF3635E0AC
:10230000E869401C641EE861F2D12B694A462946FF
:10231000404600F09FF80028EFD1AC69012C0ADBA1
:1023200068683021C04700286860E6D0E869401C32
:10233000641EE861F4D16B69AA682946404600F042
:1023400089F80028D9D195F8280040070CD5012F2D
:102350000ADB68682021C04700286860CDD0E869A2
:10236000401C7F1EE861F4D12E616E6204A8814595
:102370001CBF484600F0A2FF304601E04FF0FF309E
:1023800015B0BDE8F08FF0B4C2686F2908BF08240B
:1023900005D041F02003782B14BF0A241024182301
:1023A0000668642918BF6929374602D1002E48BF44
:1023B0007F425FB9056A4DB9082C27D190F82810E3
:1023C000090723D530211723D1751FE0B7FBF4F699
:1023D00004FB16773037FFB25D1E3A2FA4BFA1F180
:1023E000510C6744AF542B46370003D085689E18C4
:1023F000B542EBD3082C09D190F82810090705D570
:10240000995C302902D05B1E302199549A18826061
:10241000C3F11801026A4161914208DA511A8161DF
:102420004FF6EF72018D11400185F0BC7047002A14
:102430000ED590F8282002F01402102A08D1426A22
:102440000369D21A8369D21A531A012BA8BF836178
:10245000F0BC7047F8B504460D4616461F460020EE
:1024600077B116F8011B6868A047686030B1E86969
:10247000401CE86100207F1EF3D1F2BD4FF0FF3019
:10248000F2BD00000000000000000000686C747ADB
:102490004C000000000000000000000080B5104863
:1024A000016841F400710160016841F480610160DC
:1024B000016841F480710160032000F0DAFD0F2013
:1024C000FFF764F800F002F8002002BD70470548ED
:1024D0000168491C016070470248006870470000AD
:1024E000003C02409C0F002000B593B000200090FB
:1024F0001048016841F080510160006800F0805090
:10250000009000980220069010200A900120099067
:102510000C9006A800F012FF0F200190002100206F
:10252000029003900490059001A801F02CF813B0DC
:1025300000BD00BF4038024010B586B001F000F980
:10254000574C206A40084000206201A9206A20F010
:1025500002002062206A20F004002062206A20F03D
:1025600008002062206A20F010002062206A20F01B
:102570008000206200200090206840F00100206070
:10258000206800F0010000F060F840F002002060D8
:10259000206800F0020000F058F840F004002060CD
:1025A000206800F0040000F050F840F008002060BF
:1025B000206800F0080000F048F840F010002060AB
:1025C000206800F0100000F040F840F0800020602B
:1025D000206800F080000090009803200290002006
:1025E00003904FF6FF7001902E4801F0B1F801A959
:1025F0002D4801F0ADF801A92C4801F0A9F801A976
:102600002B4801F0A5F801A92A4801F0A1F801A979
:10261000294801F09DF820684008400020602068AB
:1026200020F002002060206820F004002060206874
:1026300020F008002060206820F010002060206852
:1026400020F08000206006B010BD009000980020AF
:1026500000902068704700B591B0082005900020D8
:102660000B9001200A9005A800F068FE00B1FEE77B
:10267000022000904FF400700390684601F05CF96E
:1026800000B1FEE70D490120086000220F21032060
:1026900000F0FCFC032000F016FD11B000BD0000AE
:1026A000303802400004024000080240000C0240A2
:1026B00000100240001C0240000002403C0E474255
:1026C000704700001949FFE701200860704719486A
:1026D000026822F00402026001290FBF30BF40BF30
:1026E00020BF20BF7047124A13689B0840EA83004E
:1026F000106001290F48026842F0040202600FBF17
:1027000030BF40BF20BF20BF016821F0040101603D
:1027100070470748016841F00201016005480168FF
:1027200041F00401016030BF7047000020000E42FC
:102730000070004010ED00E08A60FF2102685162E5
:10274000012141770021017700207047017F012995
:1027500001D1022070470121017702214177CA216E
:102760000268516253210268516201688A6842F02E
:102770002002E1E738B504000ED0607F18B9207759
:102780002046FFF768FF00F034F8FF250028206896
:1027900004D0456204206077012032BD8168DFF8F3
:1027A00068201140816020688168626823691A434B
:1027B00063691A43114381602168E06808612068F9
:1027C0000169A26841EA024101612068C16821F003
:1027D0008001C1602068016C21F4802101642068BF
:1027E000016CA269114301642068456200F00EF893
:1027F00032BD02206077CA202168486253202168D8
:102800004862204606E00000BFFF8FFF012060778E
:102810000020704738B504462068C168490611D4C5
:102820004FF0FF31C160FFF757FE05462068C068D2
:10283000400607D4FFF750FE401BB0F57A7FF5D96C
:10284000032032BD002032BD00688268D20841EA10
:10285000C201816070470000F0B5EFF3108272B6DC
:102860002B4BDF681D685E689C684FF0010C0CFA0A
:1028700000F0082908BF074314D05FEA417E6FEAE1
:10288000000C4CBF0CEA050505435FEA817E4CBF96
:102890000CEA06060643C9070CEA07074CBF0CEA18
:1028A000040404439C605E601D60DF6082F3108856
:1028B000F0BD38B5EFF3108472B61548C16819BB86
:1028C000016821B101210020FFF701FF1CE08168B0
:1028D000104D51B9C046C046286840F00400286039
:1028E000FFF717FFC046C0460EE0296841F004011B
:1028F00029604068002819BF012100200121012022
:10290000FFF7F1FEFFF7DCFE84F3108831BD000015
:10291000580F002000700040DFF8E015002008701C
:102920007047DFF8DC05C06E004710B5DFF8D4450E
:102930002068816C09680A68520852000A60C06CFD
:102940000068016849084900016072B6062000F07D
:10295000C0FB94F82400012808D1002084F824004A
:102960000120207162B6BDE8104081E10020207195
:1029700062B610BD10B5DFF88C4501206074FFF71A
:10298000D4FFDFF8840561890068BDE81040C9B252
:10299000FEF7C8BA80B5012000F01EFABDE8044079
:1029A000002177E110B5DFF8584504F1140000F07C
:1029B0001CF8DFF85005DFF8543504F1140101600C
:1029C00000220021017180F824106069416841F003
:1029D00003014160016841F040010160032004F1FE
:1029E0001001BDE81040FFF7D5B8DFF824150160ED
:1029F0004FF48271416000218160C16001614161D9
:102A00004FF4007181610021016241620721C162BE
:102A10000021C161816201F029B830B587B04FF45F
:102A200080700290002005900022DFF8E8346946AB
:102A30000320FFF7AFF8002001900022DFF8D80450
:102A4000DFF8D8440168DFF8B45441F001010160B7
:102A50004FF48071006800F0010001900198204659
:102A600000F048FF0120039002A9002004902046B6
:102A700000F06EFE9DF800000121FFF7D6F800F08F
:102A800013F801224FF48071204600F033FF9DF8C7
:102A900000005D21FFF7C9F800F006F89DF800007E
:102AA000FFF79BF807B030BD012028702878012877
:102AB000FCD0704738B5DFF84C44251D6861002014
:102AC000A9612A776B77E87772B6287840B9012038
:102AD0002870062000F0FDFA62B6BDE83140C7E07C
:102AE000012084F8240062B631BD10B5DFF830440F
:102AF00001206060062000F0FBFA062000F0E3FAF7
:102B000000F0B2F8012803D1206840F001002060F5
:102B100010BD002207E0DFF8EC0300680068806861
:102B20000006F8D401220221DFF8F00300F0E2BE33
:102B300080B5FFF7F0FF0D204FF00051401E0968EF
:102B4000FAD1BDE80140E4E7F8B5DFF8B803DFF8F3
:102B5000D4530668DFF8D023F16CDFF8D0330F6868
:102B6000DFF8CC13DFF8CC43AF4202D320275F60FD
:102B70000AE0A74202D320271F6005E0974227BF43
:102B800020274F6020270F60B66C36684FF0006733
:102B9000AE4228BF5F6007D2A64228BF1F6003D2A3
:102BA00096422CBF4F600F60017ADFF8544319B191
:102BB000022919D028D3F1BD2079E17851EA00200B
:102BC00002D0207802282AD000F04EF840B9FFF752
:102BD000A2FF06210120FFF73FFEBDE8F140A4E679
:102BE000FFF7A6FF00201AE0FFF795FF062101205E
:102BF000FFF732FED048E066207C20730220A06000
:102C0000BDE8F140FEF7BABDA178627852EA012131
:102C100002D02278022A05D0FFF78AFF0120BDE802
:102C2000F240D9E000F1210295781378012D1C467D
:102C30000FD090F8200054FA80F4A14205DA081A67
:102C4000191A11700121917000E01846507000208F
:102C500007E0A142B2BF581A194600201070517007
:102C60000120BDE8F2406AE00121AC4800F03CBE22
:102C700010B5062000F02DFAA14CB048E066FFF731
:102C800048FF207C20730620A060FEF777FDBDE89A
:102C9000104006210020FFF7DFBD10B59948A14C78
:102CA0000168A24A896C0968A1424FF0006306D20C
:102CB000A04CA14205D29C4C9D4AA14201D3536035
:102CC00000E01360027D00F1210112B1012A06D05B
:102CD00010BD487890B1BDE8104001202FE08A78FF
:102CE000012A0BD10A784AB1C26949788918C161B1
:102CF000FFF71EFFBDE8104001206DE0BDE8104069
:102D000010B506210020FFF7A7FD7E4C00202071A2
:102D1000FFF701FF2068816C09680A6852085200B9
:102D20000A60C06C00680168490849000160607C65
:102D3000002804BFBDE81040FFF7D7BE10BD38B56E
:102D4000704D04462868816C0A6813685B085B0054
:102D50001360C06C026813685B085B001360006856
:102D6000704B026822F0100202604FF000620868A7
:102D70006E49984206D26F4B984205D26A4B6C4915
:102D8000984201D34A6000E00A603B2000F0B0F9AD
:102D90002868806C01680A6842F010020A600168C5
:102DA0000A6842F480620A6014B1012C08D010E075
:102DB00000212975026895F820105160A96906E084
:102DC00001212975026895F822105160E9690268AD
:102DD000D16000F056F831BD70B54A4C2268916C54
:102DE0000B681D686D086D001D60D36C1D682E6832
:102DF000760876002E6004251668367B6D1EFBD1A2
:102E00001A68136843F01003136009680A6822F017
:102E100010020A6018B102280AD003D326E00FF28C
:102E2000281102E00FF21811012000F030F81DE027
:102E3000207233480179C07840EA0120217C814228
:102E400038BF0846216860818A6C13681D6825F4C4
:102E500080651D60C96C0B6858601368586009680C
:102E6000E068C86011680FF2E800C8602068C16CB3
:102E700009680A6842F001020A60806C00F001F8FB
:102E800070BD0068016841F001010160704710B534
:102E90001C4A10721068826C13681C6844F48064C9
:102EA0001C60052314686360C06C0468636000687C
:102EB000134BC3601068C16010BD124AD06000207F
:102EC0001174507411E680B572B60E48017969B973
:102ED0000121017162B6FFF71CFE0020FFF77CFFA5
:102EE000BDE8044000210120FFF7B6BC62B601BD79
:102EF00003488168007BFEF798BE0000A80F002001
:102F00003C0D0020CC0E0020900F0020232900084B
:102F1000003001401929000830380240000002400A
:102F2000103C01405964024059600240086402406C
:102F300008600240B9600240752900089529000820
:102F40000A000000000000000B000000000000006C
:102F5000FF0000000320FEF77EBB36490870022008
:102F6000FEF779BB3348007870470000431E062BFC
:102F70000CD8DFE803F00E090609040B0E0001204F
:102F800003E02D48FDF7BCBA0320E6E72B4B5B6856
:102F9000184770473EB501A80021002206C0FDF782
:102FA0002DFFFFF73AFD254C254DFDF73FFF21682A
:102FB00001A888470DF102016846FDF7E9FCFFF71B
:102FC0002CFD9DF800003128A4BF03208DF80900D6
:102FD00000F03AF80421012000F0B6FD2022002183
:102FE0002846FDF72DFD0320287000206870012081
:102FF000A8700020E8702875082068751020A87552
:103000000D48A8610020287741190871401C10283C
:10301000FADB28460B49FDF7BDF8FDF707FF2168ED
:1030200001A8884700F010F80421012000F08CFD71
:1030300037BD0000870F002007B20100700E00208E
:103040001C0F00206D2F000801AA0621002000F0AF
:1030500050BD00F0AFBD00000901002806D5274A89
:1030600000F00F00801800F8041C7047244A8154B7
:10307000704724490A684FF6FF031A4000F0070022
:1030800042EA0020204A10430860704738B51D4BC3
:103090001B68C3F30223C3F10704052C28BF0424D3
:1030A0001D1D072D34BF0023DB1E012505FA04F486
:1030B000641E2140994005FA03F35B1E1A40114338
:1030C000BDE83440C8E7012100F01F0291400F4ADB
:1030D00004E0012100F01F0291400D4A400942F82E
:1030E00020107047012100F01F029140094AF5E7C6
:1030F000012100F01F029140074AEFE718ED00E0C0
:1031000000E400E00CED00E00000FA0500E100E062
:1031100080E100E000E200E080E200E0F8B5044673
:103120000D4616461F4600F0F1FD3B463246294645
:10313000204601B0BDE8F04000F0FFBD0278C9B202
:103140008A421AB11CBF10F8012FF9E718BF0020FE
:103150007047000000F10103810704D010F8011B43
:1031600089B18107FAD10268B2F10131914311F0BE
:10317000803F04BF50F8042FF6E710F8011B11B18F
:1031800010F8011BFBE7C01A70470000C9B28307A3
:1031900006D0521E22D310F8013B9942F7D11FE00E
:1031A000083A13D302F1040241EA012141EA014144
:1031B00050F8043B121F21BF4B40A3F1013C2CEA05
:1031C000030C1CF0803FF3D0C9B2001F083210F886
:1031D000013B521E28BF91EA030FF8D818BF012007
:1031E000401E704780B500F091FD012002BD000037
:1031F00070B5054605F10F00C408C046C046E4009E
:10320000A54232D2082C04D2082402E0083000F093
:1032100055F82248026811000CD1011D0A6802B35A
:103220001368A34238BF111DF8D310E01D68A542F2
:103230000DD2191D0B68002BF8D11268011D00E09A
:10324000191D0B6893420CD01D68A542F8D361B1DB
:103250000D682A68A2F10803A3420AD26A680A60CC
:103260000FE000F08DFD0028D0D1C046C046002000
:1032700070BD63190B60121B6E685E600B681A608C
:103280002C60096800291DBF4A68002A091D002119
:103290000160C046C04605F1080070BD880F0020DF
:1032A00070B504460D46164600F030FD32462946FC
:1032B0002046BDE8704000F033BD000000B9704703
:1032C00038B5A0F108042068082833D310F0070FA0
:1032D00030D1C046C0461848416809B18C4203D27B
:1032E0006160446017E019464B680BB1A342FAD302
:1032F0000B685D18AC421BD3A54204D12268D218DA
:103300000A600C4607E04A681AB123681B199A4202
:103310000ED362604C60616851B1226813198B4210
:1033200006D1002303600868801820604868606048
:10333000C046C04631BD0000880F00202DE9F8438B
:103340000446DFF8C4532078C0072FD5A86800F0E2
:103350000C00042807D0A86800F00C00082809D148
:103360006868400206D5286880031FD56068E8B900
:10337000012002E16068A870606858B1FFF7ACF8FE
:1033800007462868800311D4FFF7A6F8C01B6528FC
:10339000F7D3EFE0FFF7A0F807462868800305D5CC
:1033A000FFF79AF8C01B6528F7D3E3E02078DFF831
:1033B0005C63800718D5A86810F00C0F07D0A868C8
:1033C00000F00C00082827D16868400224D428683F
:1033D000800702D5E0680128CAD12868216920F059
:1033E000F80040EAC10028602078DFF82483000755
:1033F0003DD56169DFF81C0359B301210160FFF776
:103400006BF80746D8F80400800730D4FFF764F85B
:10341000C01B0328F6D3ADE0E06868B1012030603E
:10342000FFF75AF8074628688007D6D4FFF754F804
:10343000C01B0328F7D39DE03060FFF74DF8074627
:1034400028688007D0D5FFF747F8C01B0328F7D3BB
:1034500090E00160FFF740F80746D8F804008007C5
:1034600005D5FFF739F8C01B0328F6D382E0207892
:10347000400740D500200090DFF89C92286C40F077
:1034800080502864286C00F0805000900098D9F893
:10349000000040F48070C9F80000FFF71DF80746EF
:1034A000D9F80000C00505D4FFF716F8C01B0328A3
:1034B000F6D35FE0A06888F8000041F28939A0687F
:1034C00060B1FFF709F80746D8F80000800712D46A
:1034D000FFF702F8C01B4845F6D34BE0FEF7FCFFB0
:1034E0000746D8F80000800705D5FEF7F5FFC01B9A
:1034F0004845F6D33EE0A06900283DD0A96801F018
:103500000C0108293FF434AF022828D100F037F825
:1035100007462868800105D5FEF7DEFFC01B03289B
:10352000F7D327E0E069216A0843616A40EA811025
:10353000A16A891EC903090C40EA0140E16A40EA18
:1035400001606860012000F01BF8074628688001D0
:1035500012D4FEF7C1FFC01B0328F7D30AE000F026
:103560000EF807462868800106D5FEF7B5FFC01B98
:103570000328F7D3032000E00020BDE8F2830020F9
:103580003066FEF7A9BF2DE9F843644E0446306863
:10359000884600F00F00404502D200F08AF862D160
:1035A0002078594F800705D5B868A16820F0F00051
:1035B0000843B8602078C0074DD56068012802D163
:1035C0003968890305E0022818BF032803D1396848
:1035D000890103D447E03968890744D5B968890867
:1035E00040EA8100B86041F28939FEF775FF05466F
:1035F000606801280AD1B86800F00C0004282AD0BD
:10360000FEF76AFF401B4845F5D322E002280AD1A5
:10361000B86800F00C0008281DD0FEF75DFF401BC5
:103620004845F5D315E003280AD1B86800F00C002E
:103630000C2810D0FEF750FF401B4845F5D308E09A
:10364000B86810F00C0F06D0FEF746FF401B484547
:10365000F6D303202BE0306800F00F00804504D241
:1036600000F027F801D0012021E02078400705D59F
:10367000B868E16820F4E0500843B860207800079B
:1036800006D5B868216920F4604040EAC100B860FE
:1036900000F016F8BA680FF29801C2F30312515CF9
:1036A000C8401F4908600F20FDF770FF0020BDE8EB
:1036B000F28386F80080306800F00F0040457047C4
:1036C0001848416801F00C01042902D0082902D0F1
:1036D00017E01548704701680268520201F03F0187
:1036E0004CBF114A114AB2FBF1F102680068C0F305
:1036F0000140C2F38812401C51434000B1FBF0F07E
:1037000070470A48704700000038024000004742F6
:1037100070380240800E474200700040003C02407A
:10372000000000200438024040787D010024F400AD
:103730000000000001020304010203040607080957
:103740000249FFE7012008607047000024000E4294
:103750002DE9F84700226F4BDFF8BC81DFF8BC9100
:103760004FF00F0A012707FA02FC0F680CEA07075F
:10377000674540F0B3804C68022C18BF122C10D162
:10378000D40800EB840E02F00704DEF82050A400F9
:103790000AFA04F6B5430E6906FA04F42C43CEF88F
:1037A00020404FEA420E032405680E7904FA0EF415
:1037B000E44306F00306254006FA0EF6354305609D
:1037C0004D68012D18BF022D03D0112D18BF122DE9
:1037D0000FD18568CE68254006FA0EF63543856020
:1037E000456825EA0C064D68C5F30015954035433C
:1037F0004560D0F80CC004EA0C0C8C6804FA0EFE8C
:103800004EEA0C0CC0F80CC0D1F804C05FEACC0C36
:1038100064D5002400944FEA920CD9F8004044F497
:103820008044C9F8004002F00305D9F8004004F4D0
:10383000804400944FEA850E009C58F82C400AFA08
:103840000EF5AC43364DA84208BF002513D0354DC8
:10385000A84208BF01250ED0334DA84208BF02255B
:1038600009D0324DA84208BF032504D0304DA842EC
:103870000CBF0425052505FA0EFE4EEA040448F89F
:103880002C406FEA070C1C680CEA040E4C68E40339
:1038900048BF47EA0E0EC3F800E05C680CEA040E6D
:1038A0004C68A40348BF47EA0E0EC3F804E09C68C6
:1038B0000CEA040E4C68E40248BF47EA0E0EC3F857
:1038C00008E0D3F80CE00CEA0E0CD1F804E05FEA53
:1038D0008E2E48BF47EA0C0CC3F80CC0521C102AAD
:1038E000FFF440AFBDE8F1870069084018BF012030
:1038F000C0B2704702B90904816170470D4A13686C
:10390000034200D1704780B51060FEF7C9F901BDD0
:1039100000000000003C01400838014044380240EB
:10392000000002400004024000080240000C024077
:1039300000100240143C0140F8B50446444D207884
:10394000C00723D5444E00203060FEF7C5FD074672
:103950002868000105D5FEF7BFFDC01B0328F7D37B
:1039600055E0A1686068090741EA8010394908609C
:1039700001203060FEF7B0FD07462868000105D43D
:10398000FEF7AAFDC01B0328F7D340E0207880078C
:1039900056D500200090314E286C40F080502864AD
:1039A000286C00F0805000900098306840F48070DF
:1039B0003060FEF791FD07463068C00505D4FEF77C
:1039C0008BFDC01B0328F7D321E0286F10F4407053
:1039D0001EBFE16801F4407188421AD0286F204967
:1039E00001220A6020F4407000220A602867286FD4
:1039F000C0070ED5FEF770FD0746286F800708D474
:103A0000FEF76AFDC01B41F289318842F5D30320DD
:103A1000F2BDE06800F44071B1F5407F06D1A968BD
:103A2000104A21F4F8111040084302E0A86820F47D
:103A3000F810A860286FE168090550EA115028675E
:103A40002078000702D5207C074908600020F2BDDD
:103A5000003802408438024068004742007000404D
:103A6000400E4742FFFCFF0FE011474238B505000A
:103A700001D1012032BD05F15004607818B92070E1
:103A8000284600F093F9022060702868016821F050
:103A9000400101606868A9680843E968084329692A
:103AA000084369690843A96901F400710843E96999
:103AB0000843296A0843A96A084329680860A86975
:103AC000696A000C00F00400084329684860A86A8D
:103AD000B0F5005F02D12968E86A08612868C16909
:103AE00021F40061C161002060600120607000204D
:103AF00032BD10B50C461146A21CA8B0812AA8BF41
:103B000042201FDA8DF81C008DF81D4022460DF171
:103B10001E00FCF78FFF00F03BF800F033F80C209C
:103B2000ADF80600002107A80390A01CC0B20490C5
:103B30000120069001A8FDF726FA00284CBFFF20BF
:103B40009DF8000028B010BD00B589B08DF80400C4
:103B50008DF805101822002102A8FCF771FF00F073
:103B600022F80F2000F019F802200590012007909C
:103B700002A8FDF708FA00284CBFFF209DF80000BE
:103B800009B000BD3F20ADF80400CDF814D0704757
:103B90001822002101A8FCF753BFADF80A0000214C
:103BA00001A8049070473F20ADF80800CDF818D068
:103BB000704700004E48416911B90FF241010160A0
:103BC000416811B90FF281014160816811B90FF2AA
:103BD00085018160C16811B90FF28501C160016979
:103BE00009B944490161416911B90FF28901416183
:103BF000816911B90FF2D10181610AE01CB50FF2A0
:103C0000041218CA6946062218C16946FCF712FF59
:103C100013BD10B5384C1C2200212046FCF710FFC4
:103C200000202070022060700820A0701020E0703A
:103C30000020E08005202072002004EB4001488134
:103C4000401C0928F9DB10BD082804BF0120FFF73C
:103C500084B9704704222949FF2000F08BB9000085
:103C600080B5042000F037FABDE80240002000F0E3
:103C7000CDB9000038B5FFF775F901281C4C204D6F
:103C800004D0032815D009280CD031BD286801289C
:103C900004D1207FFDF7ACFF00202860FFF7E0FF94
:103CA000022002E0FCF717FC0020BDE83240FFF7DD
:103CB00054B9286830B9207F43F60161FDF7B5FF9C
:103CC0000120286031BD000010B584B000F00AFD6D
:103CD000094C00F01F003C30A08084B021466846AB
:103CE0001C22FDF75DFD0FBC00F02BFA1FBD00008C
:103CF000700E0020A94400083C0F00206D2F000822
:103D0000980F0020123401E18002000080B5DFF836
:103D10000C0000F057FD806902BD0000800100200A
:103D200030B430B90FF24800D0E90045C2E900458F
:103D30001BE00170012030BC704730B431B90FF284
:103D40003800D0E90045C3E900450EE01AB930BC9F
:103D50006FF00100704708B10A7802800978481EA8
:103D6000804130BCC043C00F7047002030BC70475A
:103D70000000000000000000000000000000000043
:103D80000749086808B1002070470648C008C0000D
:103D900008600549C908C900091A0160704700BFD9
:103DA000A40F0020F7050020F00700202DE9F043C4
:103DB000044687B020685249884240F09E80002027
:103DC000009001A94F4D504E286840F00200286035
:103DD000286800F002000090009800F0B4F800F0AD
:103DE000B2F800200090686940F48050686168690A
:103DF00000F480500090009808200190022002906A
:103E00000020039003200490052005903F48FFF711
:103E10009FFC402000F08AF8802000F087F8022004
:103E2000019001A901200290002000F077F8012202
:103E300002213046FFF75EFD0120019001A93448C0
:103E40000290022000F06AF8002000902868DFF855
:103E5000C49040F4800028604FF0C06628682E4D62
:103E600000F4800000904FF4806700986E6040205E
:103E7000A8604FF400380020E8606861A861E8613C
:103E80002F6109F148002860C5F82080284600F01D
:103E90009BFC206829680C308860A5640020A86617
:103EA000E8666867A867E867AC636E662F67C5F861
:103EB0008080C5F8609005F1600000F085FC206806
:103EC000296E0C308860002205F16000E064C5F8BE
:103ED000984001213B20FFF7D9F83B20FFF7F3F88A
:103EE000002201213820FFF7D1F83820FFF7EBF846
:103EF000002202210620FFF7C9F807B0BDE8F083D1
:103F0000003001403038024000000240000402400E
:103F10000000111010640240CC0A0020039003201E
:103F20000490002005903046FFF712BC019001A9D3
:103F300002200290002003900320049005200590A9
:103F40003046FFF705BC00200090286840F00100D3
:103F50002860286800F00100009000980020009080
:103F6000286840F001002860286800F001000090F7
:103F700000987047F8B504460F4615460220FCF736
:103F800010FA08B9F020F2BD380001D1F120F2BDDD
:103F9000DFF83867342200213046FCF751FDFF205E
:103FA000F076776000207081B076E00708D50020B9
:103FB00040F001007081072DBCBF06F1240005739D
:103FC000A00703D5708940F00200708114220021FF
:103FD00006F11C00FCF734FD06F1240002210170FB
:103FE0000FF2A1314160002101724021418106F1AF
:103FF0001C00FCF7EDF940B910203070FEF7AAFF65
:1040000010207070FEF7A6FF0020F2BDF0B5DFF8BB
:10401000BC468BB021784125302904BF6178312915
:1040200056D1DFF8AC1600281CBF8878002824D0B1
:104030000FF2A062E8CA07A83022E8C0002006906C
:104040000590002301F12900049091F828000390C5
:10405000202107A80290102001900320009000204A
:10406000FDF7E1F8050033D104F11B020FF23161D5
:104070000A20FCF739FD322022E00FF25862E8CA2C
:1040800007A83022E8C0002006900590002301F127
:104090002900049091F828000390202107A802909D
:1040A0001020019000200090FDF7BDF805000FD111
:1040B00004F11B020FF2E9511E20FCF715FD35201B
:1040C0006070FEF747FF332104F11C00FCF7EBF9A9
:1040D00028460BB0F0BD30B583B001A90022002303
:1040E0000CC1DFF8E845A17AC90726D52178202937
:1040F00018BF302921D107281FDA84F8300004F1D5
:10410000300000900123618AA089FCF7AFFD050013
:1041100014D1A08963688DF8040001A9000A4870D1
:1041200001AA608A8DF80600000A8DF807000020B9
:10413000087105210920984700E04125284603B071
:1041400030BD0FB430B58BB003A80021002200238E
:1041500000241EC01EC001A8DFF8705506C02878D4
:10416000402804BF6878412840F096800120A8705C
:104170001E2203A8FCF764FC9DF8380028B9BDF89E
:104180003C008DF80D0002230EE0012863D19DF85C
:104190000C0040F001008DF80C0003A9BDF83C00B4
:1041A00048700323000A8870A87E80B19DF80C0037
:1041B00040F004008DF80C009DF8390038B1022859
:1041C00049D19DF80C0040F002008DF80C00A87A4F
:1041D000800713D59DF83A0080B108283BD19DF89F
:1041E0000C0040F008008DF80C0003A9BDF83E005B
:1041F00058545A1CD2B2000A5054531C9DF83B002C
:1042000070B3102827D19DF80C009DF8381040F0AD
:1042100010008DF80C000920012908BF08209DF826
:104220000C10090744BF401EC0B29DF840108142E7
:10423000B8BF0846E4B2844212DA0EAA02EB440187
:10424000DBB24A8903A9641C5A545B1CDBB2120A14
:104250005A545B1CEEE70BB030BC42205DF814FBF7
:10426000E98903A80090DBB2A8890022FCF7FEFCD4
:10427000040012D1A8896B688DF8040001A9000A16
:10428000487001AAE8898870000AC8700020087187
:1042900005210920984700E0412420460BB030BC9E
:1042A0005DF814FB10B5DFF8244488B0608904235E
:1042B000C10748BF0623800744BF9B1CDBB241F601
:1042C0000D00ADF81800012204F10C00009006A9C1
:1042D0000120FCF740FC002852D142F63720ADF80F
:1042E00018001E2304F10E00059006AA0120049078
:1042F00001210A20039000200290019010200090DC
:10430000A089FCF75DFC00283AD142F63820ADF8D0
:104310001800012304F11200059006AA0020049061
:1043200001210A20039000200290019002200090B9
:10433000A089FCF745FC18BB04F130000090012374
:10434000618AA0890022FCF791FCC8B9A17A89078B
:1043500016D542F63920ADF81800012304F11400F7
:10436000059006AA0020049001210A200390022053
:1043700002900020019008200090A089FCF720FC0A
:1043800008B010BD10B584B000218DF80810411C94
:10439000007804280FD10878052805D03E2823D0BE
:1043A000FF283DD004B010BDC84C2078302804D17F
:1043B00060783B2803D004B010BD4028FBD188783A
:1043C0000028F8D130202070FEF7C4FD3120607045
:1043D000FEF7C0FD0020A076A070E07EFCF79AFBFF
:1043E000FF20E07604B010BD881C01780129E2D1DD
:1043F00010F8011FB54C89B9B0F801002081E07EAA
:10440000FCF788FBFF20E076FBF7C3FF50281AD0AB
:104410003B206070FEF79EFD04B010BD3120F8E730
:10442000881C40F201420188914205D040F61342B7
:1044300091420ED004B010BDA44C2078302804BFA7
:1044400060783B28B7D140202070FEF783FD4120E3
:10445000DFE7801C4188027940799C4C8DF8080088
:10446000A08A401C814201BF207840286078412802
:10447000A1D19DF8083020890092012B02AB019355
:104480000CD100230022FCF771FC002893D1636853
:10449000002200210B20984704B010BD8023012288
:1044A000FCF764FC04B010BD70B58CB000208DF832
:1044B0001C00864C2078102804D020282CD03028CE
:1044C00042D0E8E0FBF765FF202840F0E480FFF7EA
:1044D000E9FE8DF81C00FF2568B904F11C00FBF70C
:1044E000C1FF41F60D00FCF722F820202070FEF7F6
:1044F00031FD6570CDE0636807AA01210820984767
:1045000000202070FEF726FD6570FEF723FD04F104
:104510001C00FBF789FFBEE0FBF73BFF302840F0B3
:10452000BA80FBF73AFF312840F0B5803020207088
:10453000FEF710FD31206070FEF70CFD636807AADE
:10454000012108209847A6E0607833280BD0342852
:1045500017D0362842D037284DD039287BD03B2879
:1045600000F08D8097E0FCF74EFE00288DF81C00CF
:1045700040F09180312104F11C00FBF794FF3420BE
:1045800086E00FF250116CC908A800216CC006919A
:10459000059100234E4800F1290190F8280003906E
:1045A000049108A8029030221020019020210020C0
:1045B0000090FCF738FE00288DF81C006BD13321E9
:1045C00004F11C00FBF76FFF35206070FEF7C2FCA2
:1045D00004F11B020FF2C9011E2039E0FCF713FEA3
:1045E00000288DF81C0056D1312104F11C00FBF786
:1045F0005AFF37204CE00FF2DC016CC908A80021FB
:104600006CC0069105910023314800F1290190F812
:1046100028000390049108A802904FF47A621020B9
:1046200001904FF4C86100200090FCF7FCFD8DF86C
:104630001C0080BB332104F11C00FBF734FF382041
:104640006070FEF787FC04F11B020FF255013C205D
:10465000FCF74AFA1FE0FCF7D6FD8DF81C00D0B934
:1046600031206070FEF776FC312104F11C00FBF76D
:104670001AFF636800220021072098470BE0FBF730
:104680008CFE552807D140202070FEF763FC4220A5
:104690006070FEF75FFC9DF81C000CB070BD000060
:1046A0000A48017830290FD14178322904D03529C0
:1046B00004D0382904D07047332102E0362100E0CD
:1046C00039214170FEF746BC70470000980E00206B
:1046D0002C0C002009486561727452617465536541
:1046E0006E736F72F8B5344F384600F06BF80446BD
:1046F000381D00F067F8054607F1080000F062F881
:10470000064607F10C0000F05DF823782B492C4A8F
:10471000002B40D12B6802FB03132B60082702FB00
:1047200003132B6002FB03132B6002FB03132B60AC
:1047300002FB03132B6002FB03132B6002FB03132A
:104740002B6002FB03132B600346D5F800C002FB6D
:104750000C1CC5F800C043F804CB7F1ED5F800C080
:1047600002FB0C1CC5F800C043F804CBD5F800C010
:1047700002FB0C1CC5F800C043F804CBD5F800C000
:1047800002FB0C1CC5F800C043F804CBDDD1C36F9D
:104790003360012323702B6802FB031129603178F9
:1047A00001F01F0150F8212032602A6840F82120D2
:1047B000306880008008F2BDEC0000205FF36E3CA2
:1047C0000D6619007047000070B50446FDF784FEC1
:1047D00006460CB9012070BD04F134050020287094
:1047E0000220687000F063F820680168C90708D5E6
:1047F000FDF772FE801B0628F6D3202028620320D6
:1048000053E00168DFF8B420114062681143A268E8
:104810001143E26811432269114362691143A2699D
:104820001143E2691143226A1143626A042A03D1E7
:10483000E26A236B1A431143016020684169626A8E
:10484000C908042A42EAC10108D1A26AA369114336
:1048500093B9002A18BF022A21D017D341612046FC
:1048600000F02EF8AA6A3F21914081600020286262
:1048700001206870002070BDB3F5005F0BD1032AE2
:10488000ECD8DFE802F00F0C0F03E7E7E26AB2F1C1
:10489000C07FE3D106E0022A04D9D21EDED1E26A4B
:1048A000D201DBD5402028620120687070BD2068ED
:1048B0000168490849000160704700003F8010F01E
:1048C0000168CAB2103A1823B2FBF3F20FF21803D0
:1048D000D35CC365890A8902042A28BF091D816542
:1048E000084670470000000000061016000610166B
:1048F00010B4364A0021134653F8084B844205D1C0
:10490000002342F8313002EBC10113E053F8084BA9
:10491000491C84421EBF491C53F8084B84421EBFE9
:10492000491C53F8084B8442EAD0491C1029E3D3B0
:1049300010BC70474B6010BC704770B4234C002310
:10494000254655F8086B8E4209D1014604EBC30396
:10495000012A04BF5A685118596070BC704755F855
:10496000086B5B1C8E421EBF5B1C55F8086B8E42A9
:104970001EBF5B1C55F8086B8E42E6D05B1C102BEB
:10498000DFD370BC704710B4104A0021134653F8AF
:10499000084B844204D102EBC10010BC4068704750
:1049A00053F8084B491C84421EBF491C53F8084B5E
:1049B00084421EBF491C53F8084B8442EBD0491C6B
:1049C0001029E4D310BC002070470000BC0C00206C
:1049D0002DE9F04104460D46207803210842164691
:1049E0001F4658D0204600F09AF8002853D115B140
:1049F000D5E900018619012F3DD12088C00416D5C4
:104A0000A16904F13D02204600F0A6F8626A8046E2
:104A100002B92269E168204600F09EF8A6EB080181
:104A20000E1AA26AE168204600F096F8361A46BBD4
:104A300020884FF4405108420ED06068E060206149
:104A4000A06260616068E06204F13D00A06104F171
:104A50002400E061002060622DB1D5E9020104F17B
:104A60003002C2E9000120884CF6FF610840208036
:104A70000020BDE8F081022F03D04FB916F1010FDD
:104A800009D094F903003A46314600F06AF8064628
:104A900016F1010FCCD100F08BF8232101604FF00B
:104AA000FF30BDE8F081000038B500F087F804461B
:104AB000208880042ED5656809E04A1B294600F04D
:104AC0007FF810F1010F18BF00280CD04519E168DC
:104AD00094F903008D42F0D30022002100F070F819
:104AE00010F1010F0DD16068E0606061E062208824
:104AF00040F400702080204600F061F84FF0FF3055
:104B000032BD6568E5606561E5624DF6FF7120883C
:104B100008402080204600F052F8002032BDF8B551
:104B2000A0B9C046C04600240A4D08264FF0FF3702
:104B3000286820B1FFF7B8FF002848BF3C462D1D6C
:104B4000761EF5D1C046C0462046F2BDBDE8F24013
:104B5000AAE70000C4000020914234BF501A002090
:104B6000704730B583B004000D00012A02D1FFF771
:104B70000AFF07E0022A07D100940020019069464D
:104B80000C20ABBE2D1801E0002A0CD10094019539
:104B900069460A20ABBE002805D10022210028006A
:104BA000FFF7CBFE01E00020C04303B030BD0000A2
:104BB0000148FFF707BE0000EC0100207047704776
:104BC00080B5002802D400F003F802BD002002BD29
:104BD00080B5002901D1002002BD012801D00228A2
:104BE00002D100F004F802BD00F011F802BD30B5AA
:104BF00083B00C001500012000F032F80090019401
:104C0000029569460520ABBE281A03B030BD10B529
:104C100084B00300140000930191029469460520BA
:104C2000ABBE01221900201AFFF787FE04B010BDA9
:104C300080B500F033F802000023DB43106898428F
:104C400004D011000220ABBE0020106050689842D2
:104C500004D0111D0220ABBE0020506001BD000039
:104C600010B584B0040000F019F8A10042181068D3
:104C70000021C94388420DD107A00090002C01D12A
:104C8000002000E0042001900320029069460120EA
:104C9000ABBE106004B010BD3A7474000048704799
:104CA000E40000207047FEE770477047704780B50A
:104CB000FDF70DFC25480168491C016001BDFCF7AA
:104CC000CDBE0120FEF71ABE80B54FF40050FEF7AE
:104CD00015FE1F480178491C017001BD1D48C06CBC
:104CE00000680168C90614D51B4A1C49904228BFB8
:104CF000486809D21A4A904205D21A4A1A49904283
:104D000028BF486800D2086810F0200018BFFDF7DF
:104D10001BBF70470F48806C00680168C90614D536
:104D20000D4A0E49904228BF486809D20C4A904269
:104D300005D20C4A0C49904228BF486800D2086846
:104D400010F0006018BFFDF7A8BF7047A00F00204B
:104D5000860F0020500D002059640240006402407C
:104D6000B9600240596002400060024010B504463C
:104D7000E0686169884252D3218849F202020A4000
:104D8000022A08D008044CBF4FF400704FF484404E
:104D9000084320803CE001F4C041B1F5C04F06D18A
:104DA000A168884203D32046FFF7B9FE80BB208864
:104DB0004FF44061084202BF606804F13D0188423F
:104DC00017D14FF40070FEF713FA606030B904F1A8
:104DD0003D006060E060401CA0600AE0218841F076
:104DE00040012180E060A06200F500716068A16070
:104DF000E06260682061A0686061207840070AD5A1
:104E000002220021204600F00CF810F1010F02D11F
:104E10004FF0FF3010BD208840F4C04020800020BB
:104E200010BD70B50C461546FFF7C8FE06462B466A
:104E300022460021FFF7CCFD04463046FFF7BFFEB7
:104E4000204670BD0178090626D51C4A136800214A
:104E5000834203D1002342F821301BE05368012133
:104E600083421EBF022193688342F3D0D36803219B
:104E700083421EBF042113698342EBD0536905218D
:104E800083421EBF0621936983421EBF0721D36957
:104E90008342DFD0FEF712BA002101804FF0FF31CC
:104EA000C17000F13D014160C160016181624161F9
:104EB000C162816100F12401C1617047C40000201A
:104EC00038B5044603212078084202D060560028F5
:104ED00009D5C046C0462046FFF7B4FFC046C046CD
:104EE0004FF0FF3527E02046FFF719FE0546C04684
:104EF000C0462078400644BF6068FEF7DFF9002016
:104F0000606094F90300022804D900F016F808B193
:104F10004FF0FF35A06B48B100F01CF808B14FF01E
:104F2000FF35A06BFEF7CAF90020A0632046FFF70B
:104F300089FFC046C046284632BD10B582B0020087
:104F4000009269460220ABBE04001000FFF7D0FCBF
:104F5000200016BD00B583B00090FEF7FBF801906D
:104F600069460E20ABBE03B000BD000010B5144C66
:104F7000206808B1FFF7A4FF606808B1FFF7A0FF41
:104F8000A06808B1FFF79CFFE06808B1FFF798FF41
:104F9000206908B1FFF794FF606908B1FFF790FF3F
:104FA000A06908B1FFF78CFFE06908B1FFF788FF3F
:104FB000BDE81040002200214FF0FF30FFF700BE97
:104FC000C400002038B505460846FFF7F7FD044643
:104FD000E0686169884204D32046FFF7C7FE0028D5
:104FE00010D4E068401CE06000F8015D20880105F5
:104FF00004D440050CD5EDB20A2D09D12046FFF7A7
:105000008EFD28B12046FFF7DAFD4FF0FF3032BDAC
:105010002046FFF7D4FDE8B232BD00000E480F4A2B
:10502000016841F4700101600D48016841F001011F
:1050300001600021816001681140016009494160FF
:10504000016821F4802101600021C1604FF00060FF
:10505000054908607047000088ED00E0FFFFF6FE9C
:10506000003802401030002408ED00E019E050F84C
:10507000041BCB0744BFA9F101035918121F0023D9
:10508000042A41F8043BF9D25FEA827C0B4604D53E
:105090004FF0000CA1F800C09B1CD10744BF0021B9
:1050A000197050F8042B002AE1D1704730B501681F
:1050B00042688468091801EB5203D20748BF4C4488
:1050C0000C30994200D130BD11F9012B11F8015B70
:1050D000002A04F8015B02D5521CF9D1F1E7521EF7
:1050E000F4D5EEE710B5074979441831064C7C44F5
:1050F000163404E00A68081D511888470146A14289
:10510000F8D110BD2C000000480000004EF6885178
:10511000CEF20001086840F470000860BFF34F8FC2
:10512000BFF36F8F4FF00070E1EE100A7047000080
:105130003DFFFFFFBC070000F0070020000000005B
:105140006DFFFFFF70010000100100000000002053
:1051500000F00BF8002801D0FFF7C4FF0020C04684
:10516000C046FCF715FA00F002F80120704700F085
:1051700001B800000746FFF7F9FE384600F002F8D4
:10518000FBE7000080B5FFF753FD024A110018202D
:10519000ABBEFBE72600020038B504460D462846A4
:1051A00000F006F8A84218BF0024204632BD0000D7
:1051B0000149FFF707BF00BF4400002001488047B6
:1051C000014800471D500008CD510008C046C046A8
:1051D000FFF79CFFFFF7BCFFE8030000FFF7FEBFEF
:1051E000FFF7FEBFFFF7FEBFFFF7FEBFFFF7FEBFF3
:1051F000FFF7FEBFFFF7FEBFFFF7FEBFFFF7FEBFE3
:10520000FFF7FEBFFFF7FEBFFFF7FEBFFFF7FEBFD2
:10521000FFF7FEBFFFF7FEBFFFF7FEBFFFF7FEBFC2
:10522000FFF7FEBFFFF7FEBFFFF7FEBFFFF7FEBFB2
:10523000FFF7FEBFFFF7FEBFFFF7FEBFFFF7FEBFA2
:10524000FFF7FEBFFFF7FEBFFFF7FEBFFFF7FEBF92
:10525000FFF7FEBFFFF7FEBFFFF7FEBFFFF7FEBF82
:10526000FFF7FEBFFFF7FEBFFFF7FEBFFFF7FEBF72
:10527000FFF7FEBFFFF7FEBFFFF7FEBFFFF7FEBF62
:10528000FFF7FEBFFFF7FEBFFFF7FEBFFFF7FEBF52
:10529000FFF7FEBFFFF7FEBFFFF7FEBFFFF7FEBF42
:1052A000FFF7FEBFFFF7FEBFFFF7FEBFFFF7FEBF32
:1052B000FFF7FEBF230024F40001040000410000BA
:1052C0002042000020410000204100002041000059
:1052D000204100002028000020E0001F02040101FE
:1052E000FC0D00204C0E0020FC0D0020FC0D0020C9
:1052F000FC0D00208100002068000020E0001F025B
:10530000080202AC0D0020FC0D0020AC0D0020AC0A
:105310000D0020AC0D0020C1000020A8000020E0FE
:10532000000B040000204400002084000020EC005A
:0C533000F8FFFC0000018100810000007B
:00000001FF
