:020000040800F2
:10000000F009002091510008114E0008134E00081D
:1000100000000000000000000000000000000000E0
:10002000000000000000000000000000154E000865
:100030000000000000000000174E0008194E0008E4
:10004000F3170008B7190008294E0008A724000874
:100050001F270008314E0008D32F00083B4E000830
:10006000A73A0008EF4800084F4E0008774D0008F7
:10007000434F0008D350000800000000435100081F
:1000800000000000535100080000000000000000C4
:100090007F51000800000000B9510008BB51000862
:1000A000BD510008BF510008C1510008C3510008EC
:1000B000C5510008C7510008C9510008CB510008BC
:1000C000B5494870012800D0704780B500F09CFC0D
:1000D00001BDF1B50E00B04F3878002801D04620A0
:1000E000F2BD0098002801D0300001D1F120F2BD0E
:1000F000B04D90220021280000F01AFDAE4C2822BD
:100100000021200000F014FD20220099280000F0BA
:1001100009FDA660200000F015FD28352800012506
:1001200005700221417000F057FD1020A0731120CE
:10013000E0733D700020F2BD30B585B000F06CFD7D
:1001400005005DD104A9891C04A800F0A7FB994C07
:10015000A4486946097C312902DB0121017002E0D3
:10016000007801280DD12000243001902000223099
:1001700000902300203307220021012000F0ADFE73
:1001800008E0230024332200223221002031012004
:1001900000F0E6FE050033D1207800F08AFF05006C
:1001A0002ED1A0780390A0690290207D0190A07DBF
:1001B0000090637D221DE178607800F08FFF0500DC
:1001C0001ED1A078002803D001F00AF8050017D14D
:1001D0009948018A002911D001A90A220A7018221F
:1001E0004A701230009009230122012000F030FDF6
:1001F000050005D100F042FA050001D1002003E01E
:1002000002A001F02FF8280005B030BD4572726FD2
:1002100072207768696C6520696E697469616C69C0
:100220007A696E67206D61696E2070726F66696CA5
:10023000652E0A0038B5584D2878002801D10120D4
:1002400032BD00F0E8FC687801283CD159487A4C6E
:10025000A17B102906D0202910D0402917D0502981
:1002600024D02DE0FFF768FF002802D12020FF21D5
:1002700001E010201F21E173A07324E0607B217B4B
:1002800088421DD13020A0733120E0731BE0E17B58
:10029000402915D142788178C08C00F08DFF00286C
:1002A00002D05020A0730BE0422008E0E17B5629E9
:1002B00006D1C08C00F0ACFD002801D15720E073BE
:1002C0000020FFF7FDFE687832BD5B48807B7047F9
:1002D0005948C07B704738B5040000200090564D47
:1002E0006946280001E06946009800F06DFC00981E
:1002F000A84204D0007AA042F5D1002032BD4120AE
:1003000032BD10B5040002D0E068002801D1F12010
:1003100010BD200000F0ACFA002806D04648817BD2
:10032000102902D1C17B1F2901D1412010BD018AB2
:10033000628A0A430282017B491C0173210000F09A
:100340001AFC002010BD10B5040001D1F12010BD31
:1003500000F08EFA002801D0412010BD200000F0EE
:1003600014FC3548017B491E0173002010BD10B5F7
:10037000040000F07DFA002802D1207C002801D082
:10038000412010BD2C48417B491C41730120207441
:10039000FFF796FE002010BD3E13002038B50C007C
:1003A000254DA97B302904D100F062FA002800D144
:1003B000EC7331BD6C0F00208C12002010B51E4C68
:1003C000A07B502801D040280AD113211B48C08CA3
:1003D00000F022FF002803D15520E073002010BD5B
:1003E000412010BD6313002010B501004120124CC4
:1003F000A27B402A01D0502A0CD1E27B442A09D1A9
:100400009A48C08C00F0A4FE002801D1472100E0EA
:100410004021E17310BD10B5944928228A5C8C18E4
:1004200029342070521C000AD2B28B18293318705C
:10043000521C28310A7010BD8C1200206C0F002055
:10044000F1B584B000206946488000240870049803
:10045000401C03900120FFF733FE04980078042825
:1004600000D000E131213022804840235126804DC8
:10047000039F3F78052F04D03E2F1ED0FF2F56D06C
:10048000CEE0039B9B1C0193AF7B402F01D0502FEC
:10049000F6D11E467378B7783F063F0C3B43C08CBD
:1004A0008342EDD13078002801D1AA73E973012489
:1004B000052069464870019836E0039FBF1C0197EC
:1004C0003F78012FDCD1019F7F1C0297AF7B302F3B
:1004D000D6D1029C2478002C1FD1029A51789478AE
:1004E0002406240C2143C184007F012801D140202F
:1004F00006E0022802D14020392301E05020512398
:10050000EB73A873029800795A4908700622029981
:10051000491D594800F006FB01E0AA73E973012464
:1005200002206946487002980078087078E00399C4
:10053000891C0A784F783F063F0C3A43521E0ED072
:100540001F01D21B1BD0521E37D0521E41D0521E4B
:1005500044D0C54FD21B4FD00E3A50D060E0891C1A
:100560000878012804D1A87B102801D11220E87353
:1005700001240878401E694608704C7050E0891CC0
:10058000AF7B402F01D0502F4AD18A78002A09D062
:10059000007F012801D1402006E0022802D140203E
:1005A000392301E050205123EB73A873012488788C
:1005B000694608700420487032E0AF7B402F01D0BC
:1005C000502F2DD14420E87300210320AB689847B9
:1005D00026E00121C08C00F0DBFD21E0A97B402951
:1005E0001ED1E97B42291BD14078002801D043204D
:1005F00000E04720E87313E0FFF7E0FE10E01D483D
:10060000008969464880A87B502809D1E87B572893
:1006100006D168464088FF210C31884200D1EE7334
:1006200000200190049800280ED001A9280006E0BF
:10063000C168080001D00498884701A9019800F01A
:10064000C3FA0198A842F3D1002C05D06A460121D3
:1006500068464078AB68984768464088002802D0D2
:1006600000200449088105B0F0BD00006C0F002097
:100670008C1200203413002035130020F0B587B011
:100680002A277A4C06AD207CC00716D52320287077
:100690006F70200014300590002004900A20039011
:1006A00000200290019002200090082306AA012158
:1006B000608A00F012FB060066D1207C800716D508
:1006C000242028706F7020001630059001200490BF
:1006D0000A20039000200290019002200090202325
:1006E00006AA0121608A00F0F8FA06004CD1207CAD
:1006F000400716D5252028706F702000183005900F
:10070000012004900A200390002002900190022012
:100710000090202306AA0121608A00F0DEFA06007C
:1007200032D1207C000716D5262028706F7020005B
:100730001A300590012004900A20039000200290B6
:10074000019002200090202306AA0121608A00F077
:10075000C4FA060018D1207CC00616D527202870C0
:100760006F7020001C300590012004900A20039037
:1007700000200290019002200090202306AA01216F
:10078000608A00F0AAFA060068D1207C800616D59F
:10079000282028706F7020001E30059001200490E2
:1007A0000A20039000200290019002200090202354
:1007B00006AA0121608A00F090FA06004ED1207C42
:1007C000400616D5292028706F7020002030059033
:1007D000012004900A200390002002900190022042
:1007E0000090202306AA0121608A00F076FA060014
:1007F00034D1207C000615D52F706F702000223078
:100800000590012004900A2003900020029001909E
:1008100002200090202306AA0121608A00F05DFAE0
:1008200006001BD1208AC00516D5502028706F7095
:10083000200024300590002004900A20039000201E
:100840000290019002200090072306AA0121608AED
:1008500000F043FA060001D1002003E023A000F0DD
:1008600001FD300007B0F0BDFE0700008C12002033
:1008700038B5040000200090074D6946280000E0CC
:10088000694600F0A1F90098A84203D0A042F7D130
:10089000002032BD412032BD8C1200203EB5050043
:1008A0000C0001A8009002AB9B1C02AA01A9891CA4
:1008B00002A8401C00F06EFEC0B2002814D16946A8
:1008C000C988090A29706946C988090221806A46CF
:1008D00092881206120F12010A4322806946898803
:1008E0000907090F114321803EBD00005B444953B5
:1008F0005D204572726F72207768696C6520616453
:1009000064696E672063686172616374657269739C
:10091000746963732E0A000000207047F8B500F078
:1009200079FE00F091FE00F0B1FE754F202200210B
:10093000381D00F0FDF8734C0126206D3043206512
:10094000A06B31070143A16300F054FF00F052FF98
:1009500020686D4901402160206D6C4901407004A0
:1009600008432065206DB10401432165684D694845
:10097000286000202021685421216E54280000F0B6
:100980008BFFAE606448E860280000F09DFFCA203D
:10099000296848625320296848620321280001F031
:1009A00003F8206D8007FCD5280001F061F90023D1
:1009B000012239002031002001F0B2F90621022085
:1009C00001F034FA01F0EEFA01F0F6FD01F096FDC7
:1009D000F868804700F01DF8FCE772B648494A6A9B
:1009E0000123834013434B6262B6704772B6444999
:1009F0004A6A012383409A434A6262B6704780B5CF
:100A00000020FFF7EAFF01BD80B50120FFF7E5FFF9
:100A100001BD10B53A4C2420205C800607D5207813
:100A2000002804D10520FFF7E1FFA06A80472420B9
:100A3000205CC00607D52078002804D10420FFF7E9
:100A4000D5FFE06980472420205CC00706D52078C8
:100A5000002803D1FFF7CAFF00F0B0FC2420205C7F
:100A6000800707D52078002804D10120FFF7BEFFBA
:100A7000FFF7E0FB2420205C000707D52078002842
:100A800004D10320FFF7B2FF606980472420205C77
:100A9000400707D52078002804D10220FFF7A6FFE1
:100AA000A069804772B6606A002805D03F2188435C
:100AB00004D12078012801D101F0FDF962B610BD02
:100AC00080B5FFF7A6FF01BD80B5002805D002283C
:100AD0000DD004D303280AD007E0042002E0084820
:100AE00082620520FFF779FF01BD100000D090471A
:100AF00001BD411E8941C90F0148017070470000C6
:100B00003812002000100240FFFFCFFFFFFFFCFF64
:100B1000B412002000280040FF7F000080B501F0E3
:100B2000A8FC01BD10B5040001F04AFD200010BD75
:100B300010B5040010000A000100200001F06EFD55
:100B4000200010BD006040607047EFF3108172B666
:100B50000268824201D1012000E0002081F3108868
:100B60007047EFF3108272B603680B604860016053
:100B7000086841602DE0EFF3108272B608604368A8
:100B80004B6041604868016023E0EFF3108172B66A
:100B9000026843681A6042680068426081F3108806
:100BA000704738B50C00EFF3108572B6016821600C
:100BB0000068FFE7FFF7E9FF00202168086021686F
:100BC000486085F3108831BDEFF3108272B600687B
:100BD000086082F3108870470020704738B5040021
:100BE00015000B0000222900012001F099F80648A9
:100BF00044432000372101F03BFD0100287801F03B
:100C0000E3F8002032BD000040420F0080B501F043
:100C1000ACF8002002BD704700B587B01822002153
:100C200001A8FFF785FF01A83F210180C231418063
:100C30006846059001200690002101A800F012FCF2
:100C4000002801D5FF2001E06846007807B000BD0C
:100C5000F0B58DB016001F0007AC2070012801D13F
:100C6000022500E010252A00601CFFF75BFF6D1CC9
:100C7000EDB266556D1CEDB2675503220021684642
:100C8000FFF756FF1822002101A8FFF751FF01A826
:100C90003F210180C331418007A803906D1CEDB254
:100CA00004956846059003200690002101A800F0F5
:100CB000D9FB002801D5FF200DE068460178002906
:100CC00001D0084607E0417882781206120C1143E1
:100CD0001298018000200DB0F0BDF1B58EB00D006E
:100CE00017001E0002220EA907A8FFF71BFF07AC82
:100CF000A570012D01D1022500E010252A00390040
:100D0000E01CFFF70FFFED1CEDB266556D1C14984B
:100D1000EDB260556D1C1598EDB260556D1C1698BE
:100D2000EDB260556D1C1798EDB260556D1C1898AA
:100D3000EDB26055032200216846FFF7F9FE182244
:100D4000002101A8FFF7F4FE01A83F210180C53171
:100D5000418007A803906D1CEDB20495684605908C
:100D600003200690002101A800F07CFB002801D59B
:100D7000FF200DE068460178002901D0084607E011
:100D8000417882781206120C1143199801800020D4
:100D90000FB0F0BD73B5A8B016001C00A01D8128CF
:100DA00001DB422032E0022228A907A8FFF7BAFEA1
:100DB00007AD022229A9A81CFFF7B4FE2E716C71A1
:100DC00022002E99A81DFFF7ADFE1822002101A8D0
:100DD000FFF7AEFE01A83F210180C731418007A87F
:100DE0000390A41DE4B20494684605900120069087
:100DF000002101A800F036FB002801D5FF2005E006
:100E000068460078002801D0684600782AB070BD96
:100E100000B589B0694688801822002102A8FFF732
:100E200087FE02A83F210180CC31FFE7418001A865
:100E30000490022005900F20039068460690012040
:100E40000790002102A800F00DFB002801D5FF202B
:100E500001E06846007809B000BDF3B5A7B0160000
:100E60001F002E9CE01D812801DB422033E002227E
:100E700027A907A8FFF756FE07AD022228A9A81C3C
:100E8000FFF750FE2E716F71AC7122002F99E81D93
:100E9000FFF748FE1822002101A8FFF749FE01A82C
:100EA0003F210180E731418007A80390E41DE4B2AF
:100EB00004946846059001200690002101A800F0E6
:100EC000D1FA002801D5FF2005E068460078002807
:100ED00001D06846007829B0F0BD10B58AB01C007A
:100EE0006B46187059709A700722002101A8FFF70D
:100EF0001FFE1822002103A8FFF71AFE03A83F21B6
:100F000001808A214180684605900320069001A84F
:100F1000079007200890002103A800F0A3FA0028FA
:100F200001D5FF201AE001A80178002901D0084668
:100F300014E0417882781206120C11432180C178A6
:100F400002791206120C11430C9A118041798279B0
:100F50001206120C11430D98018000200AB010BD3A
:100F600070B58AB00D0014001E0069460870072293
:100F7000002101A8FFF7DCFD1822002103A8FFF7DC
:100F8000D7FD03A83F2101808A2141806846059052
:100F90000120069001A8079007200890002103A8CF
:100FA00000F060FA002801D5FF2018E001A80178C0
:100FB000002901D0084612E0417882781206120C0E
:100FC00011432980C17802791206120C1143218045
:100FD000417982791206120C1143318000200AB047
:100FE00070BD00B587B01822002101A8FFF7A0FD51
:100FF00001A83F2101808121FDE0F6B591B01F00DD
:10100000199D1B9EA9190E31292901D342204EE0BA
:1010100007AC2070022211A9601CFFF783FD022299
:1010200012A9E01CFFF77EFD67711898A071E571A9
:101030002A001A9920000830FFF774FD0835EDB238
:1010400066556D1CEDB232001C996019FFF76AFD00
:10105000AD19EDB202221DA96019FFF763FDAD1CA9
:10106000EDB202221EA96019FFF75CFD18220021D3
:1010700001A8FFF75DFD01A83F2101808321418088
:1010800007A80390AD1CEDB20495684605900120B9
:101090000690002101A800F0E5F9002801D5FF2005
:1010A00005E068460078002801D06846007813B053
:1010B000F0BD00B589B0694608711822002102A868
:1010C000FFF736FD02A83F2101808521418001A85C
:1010D00004900120059069460691B6E070B58EB087
:1010E0000E0011001D0007AC207066701022A01CBD
:1010F000FFF718FDA5741298E0741398207521006D
:101100001531149801F00CFB159860761822002117
:1011100001A8FFF70DFD01A83F2101808621418034
:1011200007A803901A2004906846059001200690B5
:10113000002101A800F096F9002801D5FF2005E064
:1011400068460078002801D0684600780EB070BD6F
:1011500000B589B00A0001A90880891C100001F0BF
:10116000DFFA1822002103A8FFF7E2FC03A83F21C1
:1011700001808821418001A80590062006900F205B
:1011800004906846079001200890002103A85FE0C2
:1011900000B589B001AA108091701822002102A820
:1011A000FFF7C6FC02A83F2101808921418001A8E8
:1011B00004900320059045E000B589B001AB18808C
:1011C0009970DA701822002102A8FFF7B1FC02A87A
:1011D0003F2101808D21418001A8049004202EE050
:1011E00000B587B01822002101A8FFF7A1FC01A8D3
:1011F0003F210180922141806846059001200690A0
:10120000002101A800F02EF9002801D5FF2001E0FF
:101210006846007807B000BD00B589B001AA10800B
:1012200091701822002102A8FFF782FC02A83F213A
:1012300001809321FFE7418001A8049003200590DD
:101240000F2003906846069001200790002102A815
:1012500000F008F9002801D5FF2001E06846007879
:1012600009B000BD0EB400B582B003A900916B4671
:1012700002000121034878440A3001F05BFA029928
:1012800006B00847E53E000010B582B0744CA07867
:1012900001280FD120001030FFF757FC002809D19A
:1012A000A070694610342000FFF77BFC8021009875
:1012B00001F066FE13BD0120B1494870704738B592
:1012C000AF4C20001030FFF73DFC20001830FFF736
:1012D00039FC00258C206843211820312000103073
:1012E000FFF749FC6D1C052DF4DB0120A07031BD1A
:1012F00080B5FFF7C9FF01BDF1B500200021A04C6A
:10130000009B0833A360E378002B05D1E08003E065
:10131000042E52D10323E370E388802B4DDAE58855
:101320006B1CE380A3685E5DE778002FF0D0032F8D
:1013300001D10623EFE7042F01D10523EBE7052FA9
:1013400001D10723E7E7072F01D10823E3E70925A8
:10135000082F07D1DA7819790906090C0A43002108
:10136000E570D9E7062F01D13200F8E7092FD3D174
:10137000491C89B292B29142CED3E07000990831F3
:10138000481C097804290CD100780E2809D00F28B0
:1013900007D0009920001830FFF7EDFBFFF72FFB77
:1013A00004E0009920001030FFF7E5FBE06800281A
:1013B00003D0E188A068E2689047F1BD10B582B023
:1013C000002000906E4C0FE0694620001830FFF7B7
:1013D000E8FB00980830FFF733F800992000103040
:1013E000FFF7C9FBFFF750FF20001830FFF7ADFBF8
:1013F0000028E9D013BD80B5614A0123937000290C
:1014000002D0FFF779FF04E0010010321000FFF76F
:10141000A8FBFFF739FF01BD80B501F0ABFD01BDB1
:1014200070B582B015001E006A468905890D8002DC
:10143000084310809570534C0120207003226946A8
:10144000601CFFF76FFB2B00042231002000FFF728
:10145000E3FF73BD01204A49087170470000000096
:10146000F00B0020F0B583B0040060888005800D8B
:1014700021888902014389B20191434800680A2109
:1014800001F0F6F807003E4D002600202871FFF716
:1014900030FB3E48E860A368E068C2B261882088FB
:1014A000FFF7BEFF0A20009035E0FFF709FB6878E0
:1014B000002809D0287801F087FDEE600120FFF7B1
:1014C00018FB0020C043FEBD28790028EDD0287805
:1014D00001F07AFDA9680A00107804281AD1C91C05
:1014E000E888C01E52780E2A24D00F2A04D0102A71
:1014F000E3D03E2A2FD00DE08A78CB781B061B0C58
:101500001A43019B9A4205D162680F2A1CD00878C1
:101510000028D2D12E710098411E00910028CCD015
:10152000002F00D101276E702A001949380001F000
:1015300035FDBCE74A788B781B061B0C1A43019BD0
:101540009A42E7D1C91CC01E6269904200DD1000BA
:10155000606102460BE00A7863689A42DAD1401E65
:101560006269904200DD100060610246491C2069FA
:10157000FFF7D8FAEE600120FFF7BBFA0020FEBDAE
:10158000F00B00204C130020B45100085514000843
:10159000B7120008F8B58AB007000E00140009223F
:1015A00000216846FFF7C4FA1822002103A8FFF7BC
:1015B000BFFA03A804210180012141800020059089
:1015C000069068460790092008900025ED43002109
:1015D00003A8FFF747FF002803D4684601780029D5
:1015E00001D0280014E041783970418831800179B8
:1015F0002170417982791206120C11430A9A1180E6
:10160000C179027A1206120C114310980180002051
:101610000BB0F0BD80B50A48016802229143016019
:101620000320FFF779F900F002F8002002BD7047AF
:1016300004480168491C016070470248006870470F
:10164000002002405413002010B594B00E480168E9
:10165000802252050A430260022005901020099062
:10166000012408940F9405A801F0B4FC0F20009009
:10167000019400200290039004900021684601F03C
:10168000BDFE14B010BD00BF38100240F0B587B0E9
:101690000826504801683143016001F06DFF01F0F8
:1016A00065FF4D4C2068310301432160206B01210F
:1016B00088432063206B022188432063206B042130
:1016C000884320630827FF43206B38402063802530
:1016D000ED43206B284020630120216A01432162F1
:1016E000216A0840009000980220216A014321628B
:1016F000216A0840009000980420216A0143216279
:10170000216A084000900098206A30432062206AD5
:101710000640009600988020216A01432162216AD8
:101720000840009000980320029000200390280CAD
:10173000019001A9294801F027FF01A9284801F0DB
:1017400023FF01A9274801F01FFF01A9264801F046
:101750001BFF01A9A020C00501F016FF206A01218E
:1017600088432062206A022188432062206A042183
:1017700088432062206A07402762206A054025626C
:1017800007B0F0BD00B597B0082009900020139075
:1017900001200E9009A801F01DFC002800D0FEE7F2
:1017A0002020009000030590684601F0D3FF002838
:1017B00000D0FEE70D4801688022D2020A43026091
:1017C00000220021022002F0A4F8022002F0A5F875
:1017D00017B000BD002002400C1002400004005071
:1017E00000080050000C0050001C00505010024037
:1017F0007047FEE720480168820D39E010B51E4AA7
:1018000013680324A343184310601C480268042390
:101810009A430260012901D130BF10BD40BF20BFF3
:1018200020BF10BD10B5144A13680324A343184306
:10183000106012480268042313430360012901D198
:1018400030BF02E040BF20BF20BF016804229143A7
:10185000016010BD0848016802220A43026007487F
:10186000016804220A43026030BF704701681022F9
:101870000A430260704700000070004010ED00E075
:101880001C409460FF2203685A6221228154002187
:1018900020300170002010BD10B52021415C0129CD
:1018A00001D1022010BD01212023C1540222212395
:1018B000C254CA2203685A62532203685A620268F9
:1018C000936820241C43DCE738B504001CD0212099
:1018D000205C002804D1202160542000FFF752FF33
:1018E000022021216054CA202168486253202168C7
:1018F0004862FF25200000F039F80028206805D054
:101900004562042021342070012032BD8168164ACE
:101910000A40826020688168626823691343A26973
:101920001A430A438260E0682168086120680169FF
:10193000A26812040A4302612068C16880229143B0
:10194000C1602068C16C03229143C1642068C16CEE
:10195000E269636913430B43C36420684562012055
:1019600021342070002032BDBFFF8FFF70B504000E
:1019700020684025C168294011D10021C943C160B8
:10198000FFF75BFE06002068C068284007D1FFF71C
:1019900054FE801B03498842F5D3032070BD00200C
:1019A00070BD0000E90300000068826807239A43C5
:1019B000114381607047FEE7F8B50400A94F142079
:1019C00060433D18A84E307808280AD130787070EE
:1019D000347008202874A548F080002069460880EB
:1019E0004AE000F07DF869460880A8680988401838
:1019F000A860A96830781422504338188068814262
:101A0000307821D34243BA18127C142306E0142202
:101A100050433818007C4243BA18127C082A04D07C
:101A20005A43BA1892689142F1D21421414379186D
:101A30000A7C1300082B03D014267343FB18DC73B5
:101A40002A74E8730C7417E0142141437918327832
:101A500090420CD06A46CB7B93701A4614235A43AB
:101A6000BA181474287468468078E87300E0287403
:101A7000CC7330787070347068460088F2BDF0B571
:101A8000784A14234343D318774C2578A84204D1CD
:101A900020786070187C20700DE0DE7B187C1D7C47
:101AA00014277E4396193574082804D0DD7B14264C
:101AB00070431018C573012018732078082803D1CB
:101AC000002901D16948E080F0BD68486649C968CD
:101AD000096800E0886A8A6A9042FBD180B2704748
:101AE00010B5614CE0886149884210D0FFF7EDFFE6
:101AF000E1888142E18801D3081A03E0228989182C
:101B0000081A401C21794843E178C84000E00020D1
:101B100080B210BDF8B5544CE06800688025ED0037
:101B20008168294002D0C1684907FCD48168B94A5C
:101B30000A40826026784B48142171434018876818
:101B4000FFF7CEFF01230022874201D2002107E0E8
:101B500061894118B94202D26189A27006E0391A3E
:101B6000A37003E09E68361A9E601E7C082E08D083
:101B70003C4B14277E439B199E688642F2D29A60A2
:101B8000F3E78EB2002E06D1FFF79FFFE080022020
:101B900001F0D1FEF1BD022E02DAE078012800D07A
:101BA000761EE0680068C1684907FAD5C1688022DE
:101BB0001140994A0A43C260A8029849086002206D
:101BC00001F0C0FEE768B6B238684661FFF77DFFF6
:101BD000E080386881680D438560F1BDF8B5EFF3AA
:101BE000108472B62048C16809688A68894B13401E
:101BF0008B60CA6880231A40874B1343CB608021D7
:101C00004903864A116006788549142272438D186B
:101C1000297B022922D12F686946AA7B0A70807825
:101C2000002819D0687B01280AD101213000FFF774
:101C300026FF84F310886968300000F0C5F804E0DE
:101C400084F31088300000F09DF83A0031006846B7
:101C50000078FEF739FFF1BDFFF75CFF84F31088D1
:101C6000F1BD0000CC0E002024130020FFFF000077
:101C700070B5294CE0600421026892685207520F47
:101C8000891AE170026812695202520E521C2271C6
:101C900003681B695B045B0C23815B1ED2B2534358
:101CA0000B41133B36498B4201D3618100E06381D4
:101CB0000122A270E1800022184B00251426564311
:101CC0009E193573521C082AF8DB08212170006820
:101CD0008168504A0A408260C168802211404E4AA1
:101CE0000A43C2604F4D802676036E61022001F0E8
:101CF00029FEE06800688168B2090A438260A8682A
:101D00003043A860286806432E6000220321022089
:101D100001F0FFFD70BD000024130020CC0E002058
:101D2000F3B500200024EFF3108572B63C4E142169
:101D300061437118097B002902D0641C082CF6DB72
:101D40000121082C0DD014276743F619317385F350
:101D5000108869460978B1737273336001990C7009
:101D6000F6BD85F310880120F6BD10B5040000F023
:101D700009F800202A49142254430919087310BD98
:101D8000FFFF000038B50500EFF3108472B60220A3
:101D900001F0CAFD2248142169434018007B022843
:101DA0000CD100212800FFF76AFE1F480178407817
:101DB000884203D0082901D0FFF7ACFE022001F0D1
:101DC000ACFD84F3108831BDF8B507000C00EFF3CB
:101DD000108572B6022001F0A7FD11481421794345
:101DE000461802203073B46074603800FFF7E4FDD9
:101DF0000D490A784978914202D0FFF78BFE02E044
:101E0000B168081AB060022001F087FD85F31088E0
:101E1000F1BD0000FFFBFFFF7FFBFFFF140401404B
:101E2000CC0E00200004014024130020F1B581B045
:101E30000B00EFF31080009072B63749CC680D6844
:101E40004F688A68082B06D101206B461B799840A1
:101E50002043040027E00126684600798640F043CD
:101E600004405E0701D5054006E0AC4601256E46FC
:101E70003679B540664635439E0701D5074006E0F2
:101E8000BC4601276E463679B74066463743DB07C6
:101E900003D5130002001A4005E001206B461B79B0
:101EA0009840104302008A604F600D60CC6000983B
:101EB00080F31088F3BD70B5EFF3108472B6164846
:101EC000C168002925D10168002904D00121002022
:101ED000FFF794FC1DE00425104E8168002909D10C
:101EE000C046C046306805433560FFF7B3FCC046C6
:101EF000C0460EE031680D4335604068002802D0CE
:101F00000121002001E001210120FFF78BFCFFF7F8
:101F10006FFC84F3108870BD141300200070004023
:101F20000020C0490870704780B5BF48C06E804728
:101F300001BD10B5BD4C2068016C09680122D24377
:101F40000B6813400B60406C006801680A40026037
:101F500072B6052001F0E8FC00202421615C012913
:101F600007D1242160540120207162B600F045F9A8
:101F700010BD207162B610BD10B5AC4C012060746C
:101F8000FFF7D7FF6189C9B2BC480068FFF733FA91
:101F900010BD80B5012000F0DDF900210020FFF721
:101FA00045FF01BD10B5A04C2000143000F019F819
:101FB0009E4821001431016000210171243001701C
:101FC0006069416803220A434260016840220A4373
:101FD0000260BA4B0022103421000320FFF7A0FE5C
:101FE00010BD80B5B64901608221490041600021E1
:101FF0008160C16001614161802292008261016261
:1020000041620722C262C161816201F0AFFC01BD81
:10201000F0B587B080277F00029700250595A94B72
:10202000002269460320FFF77BFE0124A6480168D1
:10203000214301600068204001900198A026F60528
:1020400000223900300001F064FB0394049502A9DA
:10205000300001F099FA012168460078FFF7B4FEDC
:10206000704D2C7028780128FCD0012239003000F6
:1020700001F04FFB5D2168460078FFF7A5FE2C704C
:1020800028780128FCD068460078FFF76EFE07B07C
:10209000F0BD38B51C00654D2B1D586199611A774C
:1020A0005C770020D87772B601201978002907D113
:1020B0001870052001F038FC62B600F09EF831BDC2
:1020C0002435287062B631BD38B5A14C0125656054
:1020D000052001F037FC052001F01FFC0121A020A4
:1020E000C00501F010FB012802D1206805432560DE
:1020F00031BD80B5002207E080B54C48006800681B
:1021000080680006F9D401220221A020C00501F058
:1021100000FB01BD80B5FFF7EFFF0D208021890591
:102120000968401EFAD1FFF7E4FF01BD10B5C448AD
:1021300020210160410D01603B4C2178C1480278AB
:10214000002A03D0022A1ED02CD310BD2079000211
:10215000E278104301D0022913D00121A020C0054C
:1021600001F0D1FA002808D1FFF7C6FF06210120AF
:10217000FFF75CFEFFF7DDFE10BDFFF7CBFF002091
:102180001AE0022018E0FFF7B7FF06210120FFF751
:102190004DFEBB48E066207C20730220A060FEF765
:1021A000BDFC10BDA278120263781A4301D0022947
:1021B00005D0FFF7AFFF012000F0CCF810BD417E45
:1021C000C47E012C0DD0047E63189A4205DA121BDE
:1021D000891A41760121C17600E00A00827600204A
:1021E00008E08A4201DA891A01E00A0000218276B9
:1021F0004176012000F06AF810BD10B5052001F00D
:1022000093FB094C9F48E066FFF773FF207C207327
:102210000620A060FEF782FC06210020FFF706FEE4
:1022200010BD000062130020F41000206412002092
:1022300080B5802080008249086093480178002999
:1022400002D0012907D001BD807B002813D00120D6
:1022500000F03CF801BDC17B01290CD1417B002974
:1022600009D08168827B89188160FFF753FF0120C4
:1022700000F070F801BD00F003F801BD4813002024
:1022800010B506210020FFF7D1FD804C0020207101
:10229000FFF732FF2068016C09680122D2430B6806
:1022A00013400B60406C006801680A400260607C6B
:1022B000002801D1FFF708FF10BD0000291F00080A
:1022C00000300140211F00082C10024038B50400E6
:1022D0006E4D2968086C02680120C04313680340F2
:1022E0001360496C0A681368184010600868016838
:1022F0000222914301601002514908600A2001F056
:1023000021FB2868006C01680A68022313430B60F4
:1023100001680A68802313430B600121002C02D05E
:10232000012C08D00FE000222A752022AA5C036845
:102330005A60AA6905E029752222AA5C03685A60DE
:10234000EA690368DA60006802681143016031BD20
:1023500010040140F8B54D4C2268116C0D68012342
:10236000DB432E681E402E60556C2E6837683B405C
:10237000336004231668367B5B1EFBD12B68022278
:102380001D6815431D6009680B6893430B600028A6
:1023900003D0022809D003D325E000BF3FA101E00C
:1023A0003CA1012000F02CF81DE022723849087988
:1023B0000002C9780843217C814200D20800608174
:1023C0002268116C0B681D688026B5431D60526C35
:1023D000136858600B685860E0681268D06000BFEE
:1023E00030A00968C8602068416C096801220B6848
:1023F00013430B60006C006801680A430260F1BD82
:1024000030B5224A10721268106C03681C6880256F
:1024100025431D60052304686360526C1468636083
:102420001B4B1268D3600068C16030BD80B5174A8D
:10243000D060117400205074FFF746FE01BD00000B
:10244000040002406C12002080B572B60F4801797A
:1024500000290CD10121017162B6FFF74AFE00206C
:10246000FFF778FF00210120FFF7E0FC01BD62B615
:1024700001BD80B506488168007BFFF7A5FC01BD62
:10248000791F0008931F00087812002064120020B2
:10249000F41000200A000000000000000B00000003
:1024A00000000000FF00FEE780B50320FEF795FA6C
:1024B00001BD80B53B4908700220FEF78EFA01BDD0
:1024C000384800787047000010B5431E062B11D81D
:1024D00001A4E45CA74400BF22140C14081C2200D1
:1024E000012004E03048FDF77FFF10BD0320FFF717
:1024F000E0FF10BD2D4B5B68984710BD70B584B0F0
:1025000001A80021002206C0FEF7D9FEFFF780FDDA
:10251000FEF7EEFE254E01A83168884700A9891C08
:102520006846FEF7BBF9FFF773FD032568460078A0
:10253000312801DB01A94D7101AA0621002001F01B
:1025400057FA0421012001F087FA194C20220021BA
:102550002000FEF7EDFA2570002060700121A170C7
:10256000E0702075082161751021A1750E49A161E7
:10257000207722181071401C1028FADB0D4920002A
:10258000FDF7A7FDFEF7B4FE01A83168884701AA50
:102590000621002001F02CFA0421012001F05CFA50
:1025A0007FBD00006113002007B201003C12002033
:1025B000D8120020C924000880B501F075FA01BDC9
:1025C000124207D08B0706D00B78491C0370401CC1
:1025D000521EF7D87047830706D00B78491C03704A
:1025E000401C521EF9D1704770B4103A03D378C919
:1025F000103A78C0FBD2530701D318C918C001D5CF
:1026000008C908C0D20704D30B880380891C801C2A
:10261000002A01D50B78037070BC70471206130AAC
:102620001A43130C1A4300BF094205D0830705D093
:102630000270401C491EF9D170470000130030B4ED
:1026400014001500103902D310393CC0FCD24907E0
:1026500000D30CC000D504C0890002D30280801CC6
:10266000002900D5027030BC704700000022E5E769
:102670000022030A8B420BD203098B4219D2430872
:102680008B422ED2411A00D2014652411046704769
:10269000FF2209023FD012068B4205D31212090213
:1026A0008B4201D31212090203098B4219D300E0B5
:1026B000090AC3098B4201D3CB01C01A52418309D5
:1026C0008B4201D38B01C01A524143098B4201D383
:1026D0004B01C01A524103098B4201D30B01C01AAE
:1026E0005241C3088B4201D3CB00C01A5241830828
:1026F0008B4201D38B00C01A524143088B4201D355
:102700004B00C01A5241884200D3401A5241CFD2E6
:1027100001461046704708B501F080FA08BDFEE793
:1027200084460870000A4870000A8870000AC87061
:1027300060467047F9B595B014004A487844FF30B8
:1027400025300CC813A80CC0099108AD0020E86121
:1027500001E00098241800206946C88013AB0022CD
:10276000D243210001A8801C01F059FA00900128F1
:1027700005DA2078411E8941C943C90F0091684696
:10278000C0882528009E00D1761E012E0EDB270072
:1027900039780998159A90470990002800D1ECE003
:1027A000E869401CE8617F1C761EF1D16846C0884C
:1027B000252804D1002028616861A86108E06846E6
:1027C000C0880028C5D1E869D9E00100012008438C
:1027D000641C21782029F8D023290ED02B2904D07D
:1027E0002D2907D030290BD00DE00100022008432D
:1027F00080B2EDE701000420F9E701000820F6E7C8
:1028000001001020F3E72A2912D116990968169AB7
:1028100011600A68091D169B19606A62002A05D5B5
:102820005142696201000420084380B2641C12E036
:10283000002169620AE06A6A0B4B9A4205D0930054
:102840009A185200511830396962641C21780A00C4
:10285000303A0A2AEFD321782E2907D00021C94324
:10286000296225E048290000FFFFFF7F641C2178D2
:102870002A290AD116990968169A11600A68091D51
:10288000169B19602A62641C12E0002129620AE08A
:102890002A6AC34B9A4205D093009A1852005118E5
:1028A00030392962641C21780A00303A0A2AEFD3B1
:1028B00028852678310000BFBAA001F0BEF90028B3
:1028C00001D0641C00E000262A202E54285C6828D1
:1028D00006D12078682803D162202A216854641C1C
:1028E00002A8E8602678641C252E15D0582E55D0F5
:1028F000632E00D1B3E0642E00D18EE0692E00D1AA
:102900008BE06F2E4AD0702E3BD0732E0AD0752EDE
:1029100044D0782E42D0CAE00120286125206946A3
:102920000872CFE02A20285C6C2816980068169957
:10293000086017D00668001D16990860AE602F6AFF
:10294000002F03D5300001F082F909E03A000021A0
:10295000300001F084F9002801D0801B00E038002D
:102960006861AFE00268001D1699086008A9159813
:1029700000F042F9002800D4A4E00020C04317B0C2
:10298000F0BD16980068169908600168001D169A37
:102990001060089102A8A86078215CE02A20285CD9
:1029A0006C2801D1169810E0712801D1169802E028
:1029B0006A28169809D10268D21D0720824316980A
:1029C000026003CA169B1A6005E00168016008688E
:1029D000091D169A116008902A20285C682802D1E7
:1029E000089880B203E0622802D10898C0B208902B
:1029F0002820285C000729D50898002826D0202008
:102A00003043782822D12869302102AA1154401C71
:102A1000411C296102A90E5418E016992A20285C4D
:102A200000F0C4F80890002802D528692D2109E09B
:102A3000288D810702D528692B2103E0C00705D521
:102A40002869202102AA1154401C286102A8296982
:102A50004018A860310008A800F0F8F932E02A20F8
:102A6000285C6C280CD00120286116980068169903
:102A700008600168001D169A10606846017221E026
:102A800016980068169908600168001D169A106073
:102A900068460180002069464880C04328626A4633
:102AA00008A9159800F0A8F800280BD565E70120C3
:102AB0002861252069460872002E03D00220286173
:102AC00002A84670686A2969401AA969401A6969AA
:102AD000401A00902820285C400711D42020694625
:102AE0000871009801280BDB009E012301AA08A9A8
:102AF000159800F027FA002800D03EE7761EF4D1A2
:102B00002F6902AE002F0DD031780998159A9047A1
:102B10000990002800D130E7E869401CE861761C84
:102B20007F1EF1D1302069460871AE69012E0ADBA3
:102B3000012301AA08A9159800F004FA002800D082
:102B40001BE7761EF4D1AE686F69002F0DD0317887
:102B50000998159A90470990002800D10DE7E86977
:102B6000401CE861761C7F1EF1D12820285C4007BC
:102B700000D4F0E52020694608710098012800DAA9
:102B8000E9E5009E012301AA08A9159800F0DAF9E9
:102B9000002800D0F1E6761E00D1DCE5F2E700BFA8
:102BA000FFFFFF7F686C747A4C000000622815D02C
:102BB00068280CD06C2818D0742816D07A2814D124
:102BC0000A680A601068121D0A60002170470A68CE
:102BD0000A601068121D0A6000B20BE00A680A6001
:102BE0001068121D0A6040B204E00A680A601068AA
:102BF000121D0A60C1177047F4B59AB007000C00A7
:102C0000206A002800D58E48039001F034F8616AEC
:102C1000081806908BA003C807AA03C22820205CCE
:102C2000400702D40698412806D209A80290402005
:102C30000690002005900EE001F022F80290002896
:102C4000F7D10020C043F8E01A98801C1A9003982E
:102C50000199401A03900398012800DA93E007AA2B
:102C60001A98018800A8401C01F066F8019000281D
:102C700000D59FE01A980088002804D10198401ED2
:102C8000019000D596E00398019988427BDB20698A
:102C90000699019A8218914264D2002161624142F0
:102CA000A069081A6169401A04902820205C400736
:102CB00010D4202069460870049801280ADB049D7E
:102CC00001236A462100380000F03CF9002871D148
:102CD0006D1EF5D12669029D002E0BD02978606803
:102CE000B8476060002865D0E069401CE0616D1C59
:102CF000761EF3D1302069460870A569012D09DBE5
:102D000001236A462100380000F01CF9002851D147
:102D10006D1EF5D1A5686669002E0BD02978606814
:102D2000B8476060002845D0E069401CE0616D1C38
:102D3000761EF3D12820205C400710D5202069465C
:102D40000870049801280ADB049D01236A462100CB
:102D5000380000F0F7F800282CD16D1EF5D10020C6
:102D600005902061019A00A9491C02982369C018A6
:102D7000FFF726FC20690199401820611A98008805
:102D8000002800D060E7059800284FD1606A2169CB
:102D9000401AA169401A6169461A2820205C400740
:102DA00011D4012E0FDB350020216068B847606028
:102DB000002803D10020C043059037E0E069401CA3
:102DC000E0616D1EF0D12369029A2100380000F005
:102DD000B9F80028EED1A569012D0ADB3021606821
:102DE000B84760600028E5D0E069401CE0616D1ED6
:102DF000F4D16369A2682100380000F0A3F800282C
:102E0000D8D12820205C40070DD5012E0BDB3500E2
:102E100020216068B84760600028CBD0E069401C82
:102E2000E0616D1EF4D1002020616062029809A962
:102E3000884201D000F08CFF05981BB0F0BD000067
:102E4000FFFFFF7F0000000000000000F2B582B02D
:102E50000400E06800906846007A6F2801D10825D8
:102E600006E020220243782A01D00A2500E010253E
:102E7000182721680E00642801D0692803D1002991
:102E800001D570420600002E0DD1206A00280AD11B
:102E9000082D31D12820205C00072DD517273020A0
:102EA0000099C87528E07F1E019730002900FFF7C0
:102EB000DFFB3031C9B23A2903DB6846007A51386A
:102EC00009180098C15530002900FFF7D1FB060012
:102ED00004D0A0680099C9198842E4D3082D0BD109
:102EE0002820205C000707D50098C05D302803D05B
:102EF0007F1E30200099C8551820C01B60610099C2
:102F0000C919A160216A884206DA081AA061208DD9
:102F10000B490140218510E000290ED52821615C74
:102F200014220A40102A08D1616A2269891AA2690A
:102F3000891A0F1A012F00DBA76103B0F0BD000052
:102F4000EFFF0000F1B50E0014000027002B0FD09A
:102F50001D0021787068009A90477060002806D0A4
:102F6000F069401CF061641C6D1E01D0F1E7FF4365
:102F70003800F2BD80B5DBB2D2B2FFF78AF801BDEE
:102F800080B5034A10600830FFF750FA01BD000019
:102F90004813002080B5FFF757FA01BD38B504008B
:102FA00015000B00002229000220FEF7B9FEFA20CE
:102FB0008000444320003721FFF75AFB01002878A6
:102FC000FEF702FF002032BD80B5FEF7CEFE0020E6
:102FD00002BDFEE7F0B583B00400B44D2078C00711
:102FE00052D58027BF02E8680C210140082907D08C
:102FF000E8680C2101400C290AD1E868C00307D514
:103000002868074040D0606800283DD10120FEBDFF
:1030100060687908884201D128680DE0B049A02293
:10302000D2029042286809D10140296028687900BD
:103030000143296028687908014309E001402960BB
:10304000286879080840019001982868B74901402C
:103050002960606800280BD0FEF7EFFA06002868A8
:10306000384011D1FEF7E9FA801B6528F7D3B8E1A3
:10307000FEF7E3FA06002868384005D0FEF7DDFACF
:10308000801B6528F7D3ACE102272068384019D0AF
:10309000E8680C210140042907D0E8680C210140B0
:1030A0000C2942D1E868C0033FD42868400702D504
:1030B000E0680128AAD16868B4490140206900028B
:1030C000084368602078C00619D5E8680C210140E3
:1030D0004FD12868800502D5E069002896D068683D
:1030E000AB490140606A0843686068680002000AF2
:1030F000216A0906014369600320FDF70DFC207871
:10310000000775D560690028286D62D00121014350
:103110002965FEF792FA0600286D384068D1FEF75F
:103120008CFA801B0328F7D35BE1E0680921C943CF
:1031300000280FD02A68114008432860FEF77DFA66
:10314000060028684007B6D4FEF777FA801B0328EC
:10315000F7D346E1286801402960FEF76EFA0600C1
:1031600028684007AED5FEF768FA801B0328F7D31E
:1031700037E1E069002828681CD0A90D01432960C7
:10318000FEF75BFA06002868800505D4FEF755FABD
:10319000801B0328F7D324E168687D490140606AF9
:1031A0000843686068680002000A216A0906014352
:1031B0006960A4E78D4901402960FEF73EFA0600E8
:1031C000286880059BD5FEF738FA801B0328F7D3C3
:1031D00007E1012188432865FEF72FFA0600286DD4
:1031E000384005D0FEF729FA801B0328F7D3F8E012
:1031F000207880062ED57E48A1690029A96816D0BE
:1032000001220A43AA60696B01220A436A630168CA
:103210006A0C0A430260FEF710FA0600A8683840FC
:1032200018D1FEF70AFA801B0328F7D3D9E0012250
:103230009143A96001686F4A0A400260FEF7FDF9F8
:103240000600A868384005D0FEF7F7F9801B032870
:10325000F7D3C6E02078400700D479E000200027AB
:103260006946087080204005A96B014003D1A96B15
:103270000843A863012760480068C00518D45E4869
:103280000068A90D01435C4801600120694608708F
:10329000FEF7D3F9060058480068C00508D4FEF7C9
:1032A000CCF9801B6528F6D39BE000BF00100240DC
:1032B000A168A80D81420ED0A348002912D0A022F7
:1032C000D20091420ED1286D484901402965286DF0
:1032D000290D01432965286DA90D0143296508E0E1
:1032E000FFFFFEFF296D414A0A402A65296D08400B
:1032F0002865A06800280CD0FEF79FF90600286D0D
:10330000800515D4FEF799F9801B90498842F6D3C1
:1033100067E0FEF792F90600286D800508D5FEF7F4
:103320008CF9801B89498842F6D35AE0FFFFFBFFE6
:1033300068460078002805D02F4800682B490140D6
:103340002D480160002F03D0A86B81490140A9637B
:10335000A06A002847D0E9680C220A400C2A00D154
:1033600054E68027BF047B49022828682CD10140FD
:103370002960FEF762F90600286838400AD0FEF797
:103380005CF9801B0328F7D32BE000BFFFE0FFFFB1
:10339000FF1FFFFFE86870490140206B0843616B25
:1033A0000143E06A0843E86028687908014329601E
:1033B000FEF743F906002868384014D1FEF73DF9BE
:1033C000801B0328F7D30CE001402960FEF735F994
:1033D00006002868384006D0FEF72FF9801B032826
:1033E000F7D30320FEBD0020FEBD0000FFFEFFFF5F
:1033F00020000140FEDFFFFF00700040F2B582B008
:1034000004000127FF4301255448006828408842F2
:103410000AD25248006838400143504801600068B1
:1034200028400299884274D14D4E2078800705D5F6
:10343000F068F0218843A1680143F16020682840CA
:1034400055D06068022802D13168890308E000285D
:1034500002D13168890503E00328316802D189016E
:1034600002D456E0490754D5F1680322914308433A
:10347000F060FEF7E2F80090606802280CD1F06876
:103480000C210140082932D0FEF7D7F80099401AE4
:103490002E498842F3D328E003280CD1F0680C2190
:1034A00001400C2923D0FEF7C8F80099401A27499B
:1034B0008842F3D319E000280BD1F0680C210140B9
:1034C00015D0FEF7BAF80099401A20498842F4D383
:1034D0000BE0F0680C210140042908D0FEF7ADF89C
:1034E0000099401A19498842F3D30320FEBD1B48B6
:1034F00000682840029988420DD3184800680740A8
:103500000846384315490860086805400298854216
:1035100001D00120FEBD2078400705D5F068114993
:103520000140E0680843F0602078000706D5F068A5
:103530000D4901402069C0000843F0600320FDF7F9
:10354000EBF90020FEBD0000FFFBFFFF8913000028
:10355000FFFFFFEFFFFFFFFEFFFF02FF0020024023
:1035600000100240FFF8FFFFFFC7FFFF054801689A
:10357000020D0A430260704702480168420D0A4387
:103580000260704700700040FFB5002401232FE067
:103590000625B5403D43039E3560664D2E68009F6D
:1035A000FD432E404F68FF0302D53700009E3E4387
:1035B000604F3E607E682E404F68BF0302D53700E3
:1035C000009E3E435B4F7E60BE682E404F68FF0208
:1035D00002D53700009E3E43564FBE60FE68354020
:1035E0004E68B60202D52E00009D3543FD60641C76
:1035F0000D682E00E64000D184E00126A6402E4052
:103600000096009D002DF2D04D68022D01D0122DA4
:1036100018D1E508AD0045192E6A01966607F60E29
:103620006F463E72019FBC466E46377A0F26BE40FB
:103630006746B743BC460F696E46367AB740664662
:1036400037432F6266000327B740FD4301954D685D
:10365000012D05D0022D03D0112D01D0122D10D136
:103660008768019D3D40CF68B7402F43876047681A
:103670000125A540AF434D682D091D40A5403D43A0
:1036800045600768019D3D400F79BF07BF0FB740F8
:103690002F430760C768019D3D408F68BC463700D7
:1036A0006646BE402E43C6604D68ED009FD5224D54
:1036B0002D681D43204E3560204DA608B600AD197B
:1036C00003952F68A5072E0F0F25B540AF43A02502
:1036D000ED05A84201D100255BE7194DA84201D1B3
:1036E000012556E7174DA84201D1022551E7164D95
:1036F000A84201D103254CE7144DA84200D047E76A
:10370000052546E7FFBD0069084000D00120C0B292
:103710007047002A01D081617047816270470C4A6E
:103720001368034000D1704780B51060FFF732FC8A
:1037300001BD0000000401403410024008000140B7
:103740000004005000080050000C0050001C005005
:1037500014040140F8B50400574D20688221090186
:10376000014071D06069C026B602296832010A4062
:10377000310101408A4207D1296832010A40A1691A
:1037800033010B409A4207D03040B04204D1286840
:10379000800301D50120F2BDA86B802149050143BA
:1037A000A96346480068A90D014344480160FDF73C
:1037B00044FF070041480068C00505D4FDF73DFF00
:1037C000C01B6528F6D326E0286D30406169314082
:1037D000884205D1286D3040A1693140884233D0FC
:1037E000296D37480840296D802212030A432A6553
:1037F000296D344A0A402A65286580050DD5FDF7F4
:103800001CFF0700286D800507D4FDF716FFC01BBD
:103810002D498842F6D30320F2BD61692B4832005E
:103820000A40B24206D12A68104032010A400243DF
:103830002A6002E0296808402860286D204901407C
:10384000606906400E432E652078C00705D5E86CF8
:103850000321884361680143E9642078800705D526
:10386000E86C0C218843A1680143E9642078400793
:1038700005D5E86C16490140E0680843E864207803
:10388000000705D5E86C1349014020690843E86446
:103890002078400605D5E86C0F490140E0690843EF
:1038A000E8642078000605D5E86C0C490140206AE0
:1038B0000843E8640020F2BD0010024000700040A0
:1038C000FFFFFCFFFFFFF7FF89130000FFFFCFFFA3
:1038D000FFF3FFFFFFCFFFFFFFFFFFFBFFFFF3FF44
:1038E00010B58207D30EFF249C40E2438907090EDE
:1038F0009940030004D517481B071B0F083B00E045
:1039000015489B089B00C01803681A4011430160CA
:1039100010BD80B5FFF7E4FF01BD0121C006C00E58
:1039200081400E48016070470121C006C00E8140F1
:103930000B48016070470121C006C00E8140094854
:10394000016070470121C006C00E81400648016039
:10395000704700001CED00E000E400E000E100E042
:1039600080E100E000E200E080E200E070B50400E9
:1039700001D1012070BD250050350026687800284F
:1039800003D12E70200000F027FA02206870206812
:1039900001684022914301606068A1680143E068CA
:1039A00008432169014360690843A169D2001140BD
:1039B0000143E0690843216A0143A06A0843216882
:1039C0000860A069000C04210840616A0143206876
:1039D0004160E06A216808612068C169034A0A40C1
:1039E000C2616E6001206870002070BDFFF7FFFFAC
:1039F00010B5A8B003000C001100A01C812801DB49
:103A0000422027E007A8037044702200801CFDF7C5
:103A100089F81822002101A8FDF78AF801A83F21A2
:103A200001800C21418007A80390A41CE4B20494F7
:103A30006846059001200690002101A8FDF712FDBF
:103A4000002801D5FF2005E068460078002801D055
:103A50006846007828B010BD00B589B001AA107082
:103A600051701822002102A8FDF762F802A83F2138
:103A700001800F21418001A8049002200590684632
:103A8000069001200790002102A8FDF7EBFC00281A
:103A900001D5FF2005E068460078002801D068467F
:103AA000007809B000BDFEE780B54E4841690029A5
:103AB00001D14D4901604168002901D14B49416064
:103AC0008168002901D14A498160C168002901D17A
:103AD0004849C1600169002901D147490161416933
:103AE000002901D1454941618169002901D1444939
:103AF000816100F00BF801BD1CB5694645A218CAEA
:103B000018C106226946FDF70DF813BD10B53D4CEE
:103B10001C2200212000FDF70BF80020207002215C
:103B200061700821A1701021E170E08005212172EF
:103B30004200A2185081401C0928F9DB10BD08285A
:103B400000D0704780B50120FEF7B3FC01BD80B501
:103B500004222D49FF2000F013FA01BD80B5042096
:103B600000F095FA002000F05CFA01BD38B51D4C5C
:103B7000264DFEF7A5FC012804D0032814D00928FF
:103B80000CD031BD2868012804D1207FFEF7FAF857
:103B900000202860FFF7E2FF022002E0FCF70EFCA5
:103BA0000020FEF786FC31BD2868002805D11849A1
:103BB000207FFEF709F90120286031BD10B584B0DF
:103BC000104C00F061FDC006C00E3C30A08021000A
:103BD00084B068461C22FEF707FD0FBC00F087FA90
:103BE0001FBD00003C120020F93A00083F3B0008CE
:103BF0004F3B00085D3B0008A94400086D3B0008EE
:103C0000BD3B0008F8120020C92400085013002012
:103C100005470000123401E1800200007047F8B54A
:103C200004000F0015001E0000F094FD33002A0070
:103C30003900200000F0A2FDF2BDC9B200E0401C36
:103C400002788A4202D0002AF9D100207047010090
:103C500000E0491C0A78002AFBD1081A7047C9B253
:103C600001E0401C521E002A03D003788B42F8D199
:103C700070470020704780B500F06CFD012002BD48
:103C800070B505002C000F3407208443C046C046A1
:103C9000A54233D2082C04D2082402E0083000F0F8
:103CA00057F82448026811000CD1011D0A68002A47
:103CB00020D01368A34212D2111DF7E71D68A54258
:103CC0000DD2191D0B68002BF8D11268011D00E000
:103CD000191D0B6893420DD01D68A542F8D3002929
:103CE0000CD00D682A681300083BA3420AD26A6808
:103CF0000A600FE000F060FD0028CFD1C046C0464A
:103D0000002070BD2B190B606E685E60121B0B6883
:103D10001A602C600968002904D04A68002A01D082
:103D2000091D00E000210160C046C046083528009A
:103D300070BD00004013002070B504000D00160097
:103D400000F008FD32002900200000F00DFD70BDDC
:103D5000002800D1704738B50838040020680828CA
:103D600036D3400734D1C046C0461A4841680029BE
:103D700001D08C4203D26160446019E019004B68A5
:103D8000002B01D0A342F9D30B68CD18AC421DD350
:103D9000A54204D122689A180A600C0008E04A681B
:103DA000002A03D02368E3189A420FD362604C6064
:103DB000616800290AD02268A3188B4206D100232B
:103DC000036008681018206048686060C046C046FC
:103DD00031BD000040130020F1B586B00068624993
:103DE000884200D0BEE0614C20680221014321607E
:103DF000206802210840009000980127206838437D
:103E00002060206838400090009820683843206087
:103E1000206838400090009820683843206020686F
:103E2000384000900098206838432060206838406F
:103E300000900098A068C9020143A1600820019089
:103E4000022002900025039503260496059501A9FA
:103E50004748FFF799FB402001900220029003950C
:103E60000496059501A9A020C005FFF78DFB8020D1
:103E700001900220029003950496059501A9A020C7
:103E8000C005FFF781FB022001900297039504967D
:103E9000059501A9A020C005FFF776FB01220221AC
:103EA000A020C005FFF735FC0197324802900220A0
:103EB00003900496059501A9A020C005FFF764FBB7
:103EC00060683843606060683840009000982A4C11
:103ED00067601020A060E560802020616561A561B9
:103EE000E56180012062254E300014302060200002
:103EF00000F078FC069800680C302168886006980D
:103F000004640698A06227646564A5648020E06468
:103F100025656565A5658001E065E66320003C30A8
:103F200000F060FC069800680C30E16B88602000AF
:103F30003C300699486406986066002201210A20F8
:103F4000FFF7E7FC0A20FFF7E8FC002201210A2026
:103F5000FFF7DFFC0A20FFF7E0FC0022022105202A
:103F6000FFF7D7FC07B0F0BD003001402C10024035
:103F700000040050000011107C1000201C000240C2
:103F8000F4B582B005000E000220FCF7A4F9002869
:103F900001D1F020FEBD300001D1F120FEBDBB4CAF
:103FA000342200212000FCF7C3FD211D0E60FF20FC
:103FB000C8750027CF808F75200024300090E80757
:103FC0000BD5C88801220243CA806846007A0728B8
:103FD00003DA6846007A009A10730226354202D04E
:103FE000C8883043C8801422002120001C30FCF710
:103FF0009FFD00980670A6480099486000980772D7
:104000004020009948811C342000FCF77AF90028F0
:1040100006D1102000F00CF9102000F00FF900205C
:10402000FEBD70B54125994C217830292DD161789C
:1040300031292AD1974E002812D09748807800283D
:104040000ED003223021202000F0FEF805001CD104
:1040500022001B3231000A20FCF7C0FD32200DE0A7
:1040600000223021202000F0EFF805000DD12200C1
:104070001B3231001E20FCF7B1FD352000F0DEF8C8
:1040800033211C342000FCF789F9280070BD3EB5AF
:1040900001A9002200230CC17C4CA17AC90723D5B9
:1040A0002178202901D030291ED107281CDA30219F
:1040B00060542000303000900123618AA089FCF711
:1040C00069FE050011D1A18901A80170090A41709A
:1040D000618A8170090AC1700021017101AA05215C
:1040E00009206368984700E0412528003EBD0FB4D1
:1040F000F0B58BB003A82021FEF7B8FA002401A880
:104100000021002206C0614D2878402801D168783E
:10411000412800D085E00126AE701E2203A8FCF7DE
:1041200007FD10A80278022703A9002A03D180887E
:10413000487002230AE0012A56D1087806430E701F
:1041400010A880884870000A88700323A87E002881
:104150000DD00878042606430E7010A84078002879
:1041600005D0022840D13046022606430E700826AC
:104170006889384211D010A8807800280DD008280E
:1041800032D10878082707430F7010A8C088C85498
:104190005B1C000ADBB2C8545B1C10A8C078002866
:1041A00024D0102820D10878102707430F70092049
:1041B000012A00D10820374201D0401EC0B210AA07
:1041C000127A824200DA1000E4B284420EDA10AEB3
:1041D0006200B2185289DBB2CA545B1C120ADBB20D
:1041E000CA545B1C641CEFE742201CE003A800904B
:1041F000DBB20022E989A889FCF7CCFD040011D1CB
:10420000A98901A80170090A4170E9898170090A28
:10421000C1700021017101AA052109206B6898472E
:1042200000E0412420000BB00499F0BC05B0084721
:1042300080B516490870FEF737F901BD80B51349FE
:104240004870FEF731F901BD70B58CB004000D0067
:10425000160007A811A11022FEF7C6F90E4900208A
:1042600006900590080029300490283108780390C2
:1042700007A8029010200190009600232A00210038
:104280000020FCF7BAFE0CB070BD00000412002044
:10429000894300084D4600086C0F002009486561FD
:1042A00072745261746553656E736F7230B587B006
:1042B0000423344C6089C10700D506230225284217
:1042C00001D09B1CDBB28B486946088320000C3070
:1042D0000090012206A90120FCF7BAFC00284FD16A
:1042E0006F486946088320000E3005900120049035
:1042F0000A200390002002900190102000901E23BD
:1043000006AA0121A089FCF7E8FC002838D16548FD
:1043100069460883200012300590002004900A208E
:1043200003900020029001900095012306AA01212C
:10433000A089FCF7D2FC002822D120003030009068
:1043400001230022618AA089FCF724FD002817D1EF
:104350006189294214D0BC48694608832000143082
:104360000590002004900A200390029500200190FF
:1043700008200090012306AA0121A089FCF7ADFCCA
:1043800007B030BD0412002070B584B000256A4625
:104390001572421C007804280FD1FF26B64C107805
:1043A000052804D03E281BD0FF2835D07FBD2078BB
:1043B000302803D160783B2802D07FBD4028FCD153
:1043C00090780028F9D13020FFF732FF3120FFF735
:1043D00035FFA576A570E07EFCF718FCE6767FBD7C
:1043E000921C10780128E8D1521C1078002811D1B5
:1043F000507891780906090C08432081E07EFCF78B
:1044000005FCE676FBF761FF502818D03B20FFF74C
:1044100015FF7FBD3120FAE7921C1078517809060C
:10442000090C08439549884203D0954988420BD02E
:104430007FBD20783028C0D160783B28BDD1402096
:10444000FFF7F6FE4120E2E7921C9178D078000653
:10445000000C0143137950796A461072A08A401CFF
:104460008142AAD120784028A7D160784128A4D1E0
:104470002089127A012A02AA019200930BD100230B
:104480000022FCF7EAFC002897D1002200210B2033
:10449000636898477FBD80230122FCF7DEFC7FBD67
:1044A000372A0000382A000038B500206946087015
:1044B000714C2078102804D020282DD030283FD0EF
:1044C000BFE0FBF702FF2028FAD1FFF7EFFE6946B5
:1044D00008706846007800280ED11C342000FBF7D5
:1044E00046FF0448FBF797FF2020FFF7A1FEFF20BF
:1044F000A5E000BF0D1800006A460121082063688E
:1045000098470020FFF794FEFF20FFF797FE1C342A
:104510002000FBF718FF94E0FBF7D7FE3028FAD114
:10452000FBF7D6FE3128F6D13020FFF781FE31208F
:10453000FFF784FE6A46012108206368984780E0FF
:10454000504D607833280AD0342817D036282DD023
:1045500037283AD0392854D03B2868D071E0FCF78E
:1045600040FD6946087068460078002869D131210D
:104570001C342000FBF712FF342060E000223021C1
:104580002020FFF761FE6946087068460078002821
:1045900057D1332120001C30FBF700FF3520FFF7F7
:1045A0004DFE1B34220029001E2027E0FCF719FDD8
:1045B0006946087068460078002842D131211C34D1
:1045C0002000FBF7EBFE372039E00022FA21090139
:1045D000C820C000FFF738FE6946087068460078BA
:1045E00000282ED1332120001C30FBF7D7FE3820C5
:1045F000FFF724FE1B34220029003C20FCF7EEFAD2
:104600001FE0FCF7EEFC6946087068460078002859
:1046100017D13120FFF712FE312120001C30FBF7AB
:10462000BDFE0022002107206368984709E0FBF7E0
:104630004FFE552805D14020FFF7FAFD4220FFF735
:10464000FDFD6846007832BD392A00000A4801782D
:10465000302900D0704780B54078322804D0352802
:1046600004D0382804D001BD332002E0362000E019
:104670003920FFF7E3FD01BD041200200104000012
:10468000130C00004D460008F8B52F4E300000F026
:104690002DF90090301D00F029F904003000083099
:1046A00000F024F905000C36300000F01FF927490E
:1046B000274A009B1B78002B36D1236853435B1895
:1046C000236053435B18236053435B1823605343B9
:1046D0005B18236053435B18236053435B182360CC
:1046E00053435B18236053435B1823600300082681
:1046F000276857437F1827601F60276857437F1834
:1047000027605F60276857437F1827609F6027688E
:1047100057437F182760DF601033761EE8D1C36FE0
:104720002B600123009E3370236853435918216086
:104730002978C906490E401801682960216801607E
:10474000286880008008F2BDE80000205FF36E3C1E
:104750000D66190080B5034800F0C8F8806902BDF5
:10476000000000007C010020002804D10EA003C836
:1047700003C200207047017001207047002904D156
:104780000BA003C803C300207047002A02D10120F8
:10479000C0437047002801D00A7802800978481E7B
:1047A0008041C043C00F70470000000000000000BF
:1047B000000000000000000007490868002801D040
:1047C0000020704705480722904308600449914340
:1047D000091A0160704700BF5C130020F709002030
:1047E000F00B002010B5002801D1012010BD010000
:1047F00024314A78002A00D10A7002224A700268E5
:104800001368324C1C4083682343C4681C4303690B
:10481000234344691C4383692343C4691C43036ADB
:104820002343136003682A4A2A4CA34206D1136823
:104830000F24A34313601368406840E01434A3427C
:1048400007D11368F024A343136013684068000184
:1048500035E01434A34207D113681F4C1C40146088
:104860001368406800022AE01434A34207D1136899
:104870001A4C1C4014601368406800031FE0143495
:10488000A34207D11368164C1C401460136840689B
:10489000000414E01434A34207D11368114C1C40E7
:1048A000146013684068000509E01434A34208D17D
:1048B00013680D4C1C4014601368406800061843D0
:1048C000106001204870002010BD00000FC0FFFFE5
:1048D000A800024008000240FFF0FFFFFF0FFFFFAB
:1048E000FFFFF0FFFFFF0FFFFFFFFFF07047FEE746
:1048F000F8B504000E001500207880075CD0200079
:1049000000F09EF8002857D1002E02D003CE083EBA
:104910002D18009801283CD12088C00416D522000B
:104920003D32A169200000F0ABF80700626A002A5E
:1049300000D12269E168200000F0A2F8E91B0D1AFD
:10494000A26AE168200000F09BF82D1A002D28D102
:104950002088C021890108420ED06068E060206193
:10496000A06260616068E06220003D30A0612000CC
:104970002430E06100206062002E04D0083603CEAF
:104980002200303203C220880F49014021800020DC
:10499000F2BD022805D000280AD10020C04385427C
:1049A0000AD0009A29000320205600F06FF8050075
:1049B0000020C0438542CBD100F08EF82321016056
:1049C0000020C043F2BD00BFFFCE000070B500F074
:1049D0008BF80400208880042DD565680026F643F6
:1049E00008E04A1B290000F081F8B0420DD00028F1
:1049F0000BD02D1803202056E1688D42F1D3002200
:104A0000002100F073F8B0420DD16068E060606191
:104A1000E06220888021890001432180200000F08D
:104A200064F8300070BD6568E5606561E562208806
:104A3000114901402180200000F057F8002070BD8E
:104A4000F8B5002815D1C046C04600240B4D0826F5
:104A50000027FF432868002804D0FFF7B7FF00288D
:104A600000D53C002D1D761EF4D1C046C046200066
:104A7000F2BDFFF7ABFFF2BDFFDF0000C00000207A
:104A8000914201D2501A70470020704730B583B070
:104A900004000D00012A02D100F071F807E0022A9B
:104AA00007D100940020019069460C20ABBE2D1860
:104AB00001E0002A0CD10094019569460A20ABBEA2
:104AC000002805D100222100280000F036F801E07E
:104AD0000020C04303B030BD80B50248FFF706FF99
:104AE00002BD0000E80100207047704780B5002833
:104AF00002D400F065F802BD002002BD30B40021F0
:104B000000242E4A13001D68854204D1E300D21808
:104B1000116051600FE0641C9D688542F6D0641CF2
:104B20001D698542F2D0641C9D698542EED0641CEB
:104B30002033102CE7D330BC704770B400241F4BD7
:104B40001D002E688E4208D10100E4001B19012AC5
:104B500001D15A68891859600FE0641CAE688E4212
:104B6000F2D0641C2E698E42EED0641CAE698E4277
:104B7000EAD0641C2035102CE3D370BC704710B40D
:104B800000220E490B001C68844203D1D000081893
:104B9000406810E0521C9C688442F7D0521C1C698B
:104BA0008442F3D0521C9C698442EFD0521C2033C3
:104BB000102AE8D3002010BC70470000FC0F002032
:104BC00080B5002901D1002002BD012801D00228B2
:104BD00002D100F004F802BD00F011F802BD30B5BA
:104BE00083B00C001500012000F032F80090019411
:104BF000029569460520ABBE281A03B030BD10B53A
:104C000084B00300140000930191029469460520CA
:104C1000ABBE01221900201AFFF78FFF04B010BDB0
:104C200080B500F033F802000023DB43106898429F
:104C300004D011000220ABBE0020106050689842E2
:104C400004D0111D0220ABBE0020506001BD000049
:104C500010B584B0040000F019F8A10042181068E3
:104C60000021C94388420DD107A00090002C01D13A
:104C7000002000E0042001900320029069460120FA
:104C8000ABBE106004B010BD3A74740000487047A9
:104C9000E000002038B50400E0686169884254D320
:104CA00021882B4A0A40022A09D0080402D5802014
:104CB000800001E08420C001084320803FE0C0253F
:104CC000ED012940A94207D1A168884204D3200000
:104CD000FFF7B6FE002832D12088E90808421ED12D
:104CE000616820003D30814219D180208000FEF7AC
:104CF000C7FF6060002806D120003D306060E060A2
:104D0000401CA0600BE0218840220A432280E06022
:104D1000802189004118A160A0626068E06260683B
:104D20002061A0686061207840070BD50222002135
:104D3000200000F00FF80021C943884202D1002072
:104D4000C04332BD208805432580002032BD00BF0E
:104D50000290000070B50D001600FFF7C5FE0400BC
:104D600033002A000021FFF7C3FD05002000FFF7F4
:104D7000BCFE280070BDFEE710B5002102781206C7
:104D800026D50023214A1468844202D19B00D150C9
:104D90001BE0012354688442F8D0022394688442C3
:104DA000F4D00323D4688442F0D0042314698442ED
:104DB000ECD0052354698442E8D0062394698442E8
:104DC000E4D00723D4698442E0D0FEF7C1FF10BDD0
:104DD0000180C943C17001003D31416001003D3196
:104DE000C16001003D31016101003D31816201007E
:104DF0003D31416101003D31C16201003D318161C0
:104E000001002431C16110BD00000000C00000207D
:104E10007047FEE77047704780B5FCF709FC1948FA
:104E20000168491C016001BD80B5FCF7D7FE01BDDA
:104E300080B50120FEF773FC01BD80B580208001A4
:104E4000FEF76DFC10480178491C017001BD80B56A
:104E50000E4802210E4A536C1B681B680B4005D09C
:104E600003689B0602D5FDF761F901BD126C12685B
:104E70001268114004D00068800501D5FDF7D8F90B
:104E800001BD000058130020601300200000024004
:104E90000811002070B504002078800703D003209B
:104EA0002056002809D5C046C0462000FFF764FF01
:104EB000C046C0460026F64329E02000FFF7C0FDAB
:104EC0000600C046C0462078400602D56068FEF75E
:104ED0003FFF0025656003202056022805D900F019
:104EE00018F8002801D00026F643A06B002809D04E
:104EF00000F01CF8002801D00026F643A06BFEF756
:104F000027FFA5632000FFF737FFC046C0463000EB
:104F100070BD10B582B00200009269460220ABBE9F
:104F200004001000FFF7EAFD200016BD00B583B0B5
:104F30000090FEF78CFE019069460E20ABBE03B0D8
:104F400000BDFEE710B5184C2068002801D0FFF71F
:104F5000A1FF6068002801D0FFF79CFFA06800282F
:104F600001D0FFF797FFE068002801D0FFF792FF1C
:104F70002069002801D0FFF78DFF6069002801D06B
:104F8000FFF788FFA069002801D0FFF783FFE069E1
:104F9000002801D0FFF77EFF002200210020C0433F
:104FA000FFF7A4FD10BD00BFC00000200F4801683E
:104FB000820D0A430260C1680D4A0A40C26001685E
:104FC0000C4A0A40026081680122914381600168B5
:104FD000094A0A400260C168084A0A40C2600021CA
:104FE00001618020000506490860704700100240FA
:104FF0000C40FF88F6FFF6FEFFFFFBFFFFFF02FFFE
:1050000008ED00E038B504000800FFF76DFD05006D
:10501000E8686969884204D32800FFF73BFE00284E
:1050200010D4E868411CE96004702888010504D4A4
:1050300040050DD5E4B20A2C0AD12800FFF700FD87
:10504000002805D02800FFF750FD0020C04332BDE6
:105050002800FFF74AFDE0B232BD70B40121002301
:1050600013E00468001D0C4202D04D466D1E641909
:105070002360241D121F042AFAD22500960701D5A9
:105080002380AD1C0A4000D02B700268001D002A4E
:10509000E7D170BC704730B50168411844686208B8
:1050A0008A188368E40701D54C461B190C309142DD
:1050B00000D130BD0C7864B2491C0D78491C1D70BC
:1050C0005B1C002C02D5641CF9D1F0E7641EF4D5FA
:1050D000EDE7FEE710B5074979441831064C7C44EA
:1050E000163404E0081D0A68891888470100A142A7
:1050F000F8D110BD08000000240000005FFFFFFF92
:1051000074070000F00B0020000000008BFFFFFF81
:10511000BC000000020100000000002000F00BF8BD
:10512000002801D0FFF7D6FF0020C046C046FBF79D
:10513000F5FB00F002F80120704780B500F002F89E
:1051400001BDFEE70746FFF7FDFE384600F002F816
:10515000FBE7FEE780B5FFF763FD024A1100182068
:10516000ABBEFBE72600020038B505000C002000AE
:1051700000F006F8A04200D00025280032BDFEE76E
:1051800080B50249FFF73EFF02BD00BF400000208E
:105190000148804701480047AD4F0008A151000871
:1051A000C046C046C046C046FFF7B8FF000000003A
:1051B00000000000E8030000FEE7FEE7FEE7FEE770
:1051C000FEE7FEE7FEE7FEE7FEE7FEE71F0104005D
:1051D000003D0000203E0000203D0000203D00007A
:1051E000203D0000203D00002024000020E0001FA2
:1051F00002040101B411002004120020B4110020A7
:10520000B4110020B41100207D00002064000020B3
:10521000E0001F0208020264110020B411002064A3
:105220001100206411002064110020BD000020A4A2
:10523000000020DD0008204000002080000020EC5D
:0D52400000F8FFFC0000018100810000006B
:00000001FF
