:020000040800F2
:10000000280400203D3C0008ED390008EF390008C5
:100010005D3C0008613C0008653C000800000000F1
:10002000000000000000000000000000F13900089E
:10003000F339000800000000F5390008F73900081E
:10004000693C00086D3C0008713C0008073A000854
:10005000753C0008793C00080B3A00087D3C00081C
:10006000813C0008853C0008893C00088D3C000864
:10007000293A00084D3A0008913C0008953C0008D8
:10008000993C00089D3C0008A13C0008A53C0008E4
:10009000A93C0008AD3C0008B13C0008B53C000894
:1000A000B93C0008BD3C0008C13C0008C53C000844
:1000B000C93C0008CD3C0008D13C0008D53C0008F4
:1000C000D93C0008DD3C0008E13C0008E53C0008A4
:1000D000E93C0008ED3C0008F13C0008F53C000854
:1000E000113A0008F93C0008FD3C0008013D0008F9
:1000F000053D0008093D00080D3D0008113D0008C0
:10010000153D0008193D00081D3D0008213D00086F
:10011000253D0008293D00082D3D0008313D00081F
:10012000353D0008393D00083D3D0008413D0008CF
:10013000453D0008493D00084D3D0008513D00087F
:10014000553D0008593D00085D3D0008613D00082F
:10015000653D0008693D00086D3D0008713D0008DF
:10016000753D0008793D00087D3D0008813D00088F
:10017000853D0008893D00088D3D00080000000015
:10018000913D0008953D00082DE9F8430446DFF84D
:1001900058562078DFF84866C00626D5B06810F0BB
:1001A0000C0F3AD13068800702D5A069002832D000
:1001B000306800074EBF30686868000900F0F00141
:1001C000206A814206D200F0CFFA002823D100F045
:1001D000BEF905E000F0BBF9206A00F0C5FAD0B91D
:1001E00000F06BFAB26800F054FA2078C00774D5BA
:1001F00000F0A9F9082808D000F0A5F90C2802BFE2
:10020000F06800F0030003282AD13068800364D529
:100210006068002861D101208AE1A0690028306867
:1002200010D040F0010000F085F9074630688007E3
:1002300005D400F0FEFAC01B0328F7D375E100F0E7
:1002400086F9D2E74008400000F074F907463068AC
:100250008007CAD500F0EDFAC01B0328F7D364E18C
:1002600000F06BF920F4802000F064F90746306854
:10027000800305D500F0DDFAC01B6528F7D354E1F3
:100280006068B0F5803F07D0B0F5A02F00F055F9B9
:1002900006D140F480203060306840F4803001E0C6
:1002A00020F480203060606858B100F0C2FA074640
:1002B0003068800311D400F0BCFAC01B6528F7D366
:1002C00033E100F0B6FA07463068800305D500F048
:1002D000B0FAC01B6528F7D327E12078800719D52D
:1002E00000F031F9042808D000F02DF90C2802BFE5
:1002F000F06800F00300022822D13068400502D5E2
:10030000E068002887D07068216920F0F85040EA42
:10031000016070602078000741D560690028686836
:100320002ED040F00100686000F083FA074668684C
:10033000800734D400F07DFAC01B0328F7D3F4E023
:10034000E068002830680DD040F4807000F0F2F8CA
:10035000074630684005D6D400F06BFAC01B03286E
:10036000F7D3E2E020F4807000F0E4F8074630684C
:100370004005CFD500F05DFAC01B0328F7D3D4E0C9
:1003800040084000686000F054FA0746686880073B
:1003900005D500F04EFAC01B0328F7D3C5E020783E
:1003A000400766D5B06DC0004FF000080AD4B06DAC
:1003B00040F08050B0654FF00108B06D00F0805003
:1003C00000900098DFF82494D9F80000C00512D4FA
:1003D000D9F8000040F48070C9F8000000F029FA54
:1003E0000746D9F80000C00505D400F022FAC01B6A
:1003F0000328F6D399E0A06801280CD008B9286832
:100400000DE0052828680AD14008400028602868C7
:1004100040F004002860286840F0010005E0400832
:1004200040002860286820F00400286041F28939E3
:10043000A06858B100F0FDF907462868800711D47C
:1004400000F0F7F9C01B4845F7D36EE000F0F1F972
:1004500007462868800705D500F0EBF9C01B484522
:10046000F7D362E0B8F1000F03D0B06D20F08050F8
:10047000B065606A00285AD0B16801F00C010C29FF
:100480003FF4C9AE0228306820F08070306038D167
:1004900000F0CFF907463068800105D500F0C9F9B2
:1004A000C01B0328F7D340E0E06A216B401E09021D
:1004B00041EA0010616B090940EA4140A16A084322
:1004C000A16B891E0905490D40EA4150E16B891E67
:1004D000090601F07E410843F060306840F080700A
:1004E0003060F06840F08070F06000F0A2F90746DC
:1004F000306880011BD400F09CF9C01B0328F7D39F
:1005000013E0F068DFF8E81280088000F060F0681F
:100510000840F06000F08DF907463068800106D58C
:1005200000F087F9C01B0328F7D3032000E0002068
:10053000BDE8F283306000F07CB9306820F4803090
:10054000306030687047B06800F00C007047306869
:1005500040F0080030603068216A20F0F000084365
:1005600030607068E16920F47F4040EA01207060EB
:1005700070472DE9F843DFF87C620446306888460E
:1005800000F00700404502D200F08DF864D12078D9
:10059000DFF84C72800705D5B868A16820F0F0003C
:1005A0000843B8602078C0074ED56068022802D1A1
:1005B0003968890308E0032802D13968890103E01A
:1005C0000028396802D1890702D445E0490543D59E
:1005D000B968890840EA8100B86041F2893900F0C1
:1005E00028F90546606802280AD1B86800F00C00B6
:1005F000082829D000F01DF9401B4845F5D321E01B
:1006000003280AD1B86800F00C000C281CD000F0B8
:1006100010F9401B4845F5D314E048B9B86810F00C
:100620000C0F11D000F005F9401B4845F6D309E046
:10063000B86800F00C00042806D000F0FAF8401B5F
:100640004845F5D3032022E0306800F007008045DC
:1006500004D200F028F801D0012018E020784007EB
:1006600005D5B868E16820F4E0600843B8602078F8
:10067000000706D5B868216920F4605040EAC1003F
:10068000B86000F01AF8BA6800F003F80020BDE87E
:10069000F2835949C2F30312515CC84051490860C2
:1006A0000F2000F0CBB83068C00848EAC0003060C6
:1006B000306800F007004045704749498B680022C8
:1006C000002013F00C0F09D08B6803F00C030C2BE7
:1006D00002BFCB6803F00303012B13D10A68120792
:1006E00004D4464A1268C2F3032202E00A68C2F345
:1006F0000312434B53F822208B6813F00C0F0ED1DA
:1007000010460CE08B6803F00C03042B08BF3D4837
:1007100005D08B6803F00C03082B08BF3A488B68A0
:1007200003F00C030C2B1ED1C868CB68C3F3021373
:100730005B1C00F00300022802D0032802D005E071
:10074000304800E03048B0FBF3F001E0B2FBF3F0DA
:10075000CA68C968C1F34161C2F30622491C50430B
:100760004900B0FBF1F0704770B5284E82B00546E5
:1007700030680024C00002D500F000FA0EE03068B6
:1007800040F080503060306800F080500090009859
:1007900000F0F4F9316821F080513160B0F5007F4C
:1007A00004D1812D0DD3A12D0AD305E0812D28BFC1
:1007B000032406D2802D01D1022402E0702D00D145
:1007C00001240C480168C90844EAC10101600068BD
:1007D00000F00700A04214BF0120002076BD0000F9
:1007E00000100240200000209010024000700040E5
:1007F000FFFFEEFE00200240D43A000894100240B1
:10080000E43A00080024F40000127A005810024074
:1008100080B5032000F027FA0F2000F00FF800F059
:1008200002F8002002BD704703480168491C0160BE
:100830007047014800687047140900200020704785
:1008400070B582B0FFF7E4FF00F062FA00F0C4FA7E
:10085000B34C607808B900F0C1FB0121002000F022
:10086000F7FBB04DB04EE86B40F00100E86328683C
:1008700040F080502860286800F080500090009878
:1008800000F040FC00F03EFCA86B20F4407040F407
:100890000070A863A86B40F40040A863A3483060D0
:1008A000002086F82000012086F82100304600F064
:1008B00073FC0120B06047F6FF70F060304600F036
:1008C00083FC3168CA2048625320316848620321A2
:1008D000304600F0E9FCE86BC0F340000028FAD095
:1008E000304600F028FE00230122A11C002000F069
:1008F0007DFE0621022000F0F3FE00F093FF00F0E1
:1009000003F800F08DF8FCE710B50FF24C21844C91
:100910008EB00CC90BA80FF248210CC00CC909A855
:100920000CC001F053FA00F0BCFF01F067FA06A911
:1009300004A801F039FC00F0B4FF9DF81000312844
:10094000A4BF012020706078002807BF06220BA9F1
:10095000062209A907A801F052FC07AA06210020D7
:1009600001F05DFC01F0BBFC61782078012909D120
:10097000012803D100F032F8012008E000F028F847
:1009800001200AE0012805D100F028F8042001F038
:100990002DFE04E000F01CF8032001F057FE0120BA
:1009A000039007236248029000220020019000215A
:1009B00010200090012001F0ECFE6078012808BFB3
:1009C00001F094FF0421012001F054FC0EB010BD91
:1009D0000DF1120305AA0DF1160170470DF1120079
:1009E00001900DF1160305A8009007220021704721
:1009F00072B650494A68012303FA00F0104307E039
:100A000072B64C494A68012303FA00F022EA00005A
:100A1000486062B670470020EAE700BF0120E7E7C0
:100A200010B5444C2079800706D5207820B90120E4
:100A3000FFF7E6FF00F016F82079C00705D520780B
:100A400018B9FFF7DDFF01F03AFA72B6606828B115
:100A50008008800004BF2078012801D100F06DFEDD
:100A600062B610BD70B5344D2D4C86B0287858B1A3
:100A7000A07800F0E9FD01F07FFF0020287043F628
:100A80000161A07800F0FDFD6078F0B92B4E2C4C90
:100A900030682C4D20B1287810B901F0AEFF05E088
:100AA000306818B1207808B901F0BAFF3068002822
:100AB0001CBF2878002808D0207830B12248007860
:100AC00018B900F0BAFA01F0F3FF204C20780128A1
:100AD00011D168460FF29001142202F0E9F81421B6
:100AE000684601F0CDFF00201949207008700621EA
:100AF000022000F0F5FD06B070BD20B1022818BF3D
:100B0000032803D000E089E7100000D010477047A9
:100B100086E7411E89410748C90F017070470000F0
:100B20002009002058100240C00800200028004082
:100B300040E2010004090020000000201400002011
:100B40000500002004000020010000201C090020F6
:100B50002409002001F0F4B8BB0000E1800200008D
:100B6000AA0000E1800200003031323334353637DC
:100B700038394142434445464748494ADFF8BC00BA
:100B8000006800F4C06070472C48016841F480415F
:100B90000160704729482A4A016821F480410160B8
:100BA00028490968B1FBF2F13222514300E0491EA5
:100BB00011B142699205FAD4406980054CBF032007
:100BC000002070471D490A68D208D2000A60012837
:100BD0001D490A6842F004020A600FBF30BF40BFDF
:100BE00020BF20BF11E015490A68D208D20042F0A8
:100BF00001020A60012814490A6842F004020A60EE
:100C00000FBF30BF40BF20BF20BF086820F00400E6
:100C10000860704709490A68D208D20042F002020F
:100C20000A60012808490A6842F004020A600FBFFE
:100C300030BF40BF20BF20BFE7E70000007000408A
:100C400040420F002000002010ED00E009010028C4
:100C500006D5274A00F00F00801800F8041C7047E2
:100C6000244A8154704724490A684FF6FF031A400A
:100C700000F0070042EA0020204A10430860704755
:100C800038B51D4B1B68C3F30223C3F10704052CC1
:100C900028BF04241D1D072D34BF0023DB1E0125A2
:100CA00005FA04F4641E2140994005FA03F35B1E23
:100CB0001A401143BDE83440C8E7012100F01F028B
:100CC00091400F4A04E0012100F01F0291400D4ABB
:100CD000400942F820107047012100F01F029140A6
:100CE000094AF5E7012100F01F029140074AEFE7AA
:100CF00018ED00E000E400E00CED00E00000FA0573
:100D000000E100E080E100E000E200E080E200E0DD
:100D100000B597B001A8142101F0F6FF0FF2780199
:100D200006A891EC100B80EC100B1A48016841F0FA
:100D300080510160006800F0805000900098102001
:100D4000069001200C9060200E9000200D90022053
:100D50000F900120109011902820129002201590E1
:100D6000072013900420149006A8FFF70DFA00B195
:100D7000FEE70F2001900421032002900020039041
:100D80000490059001A8FFF7F4FB00B1FEE717B04F
:100D900000BD0000581002400000000000000000EC
:100DA0000000000000000000000000000000000043
:100DB0000000000000000000000000000000000033
:100DC0000000000000000000000000000000000023
:100DD000000000000000000010B57548754C86B09A
:100DE000016841F48041016001A9206D40F080500C
:100DF0002065206D00F0805000900098206840F43D
:100E000000402060606E400840006066606E20F028
:100E100002006066606E20F004006066606E20F084
:100E200008006066606E20F010006066606E20F062
:100E300020006066606E20F040006066606E20F00A
:100E400080006066606C40F001006064606C00F0DF
:100E5000010000F082F840F002006064606C00F075
:100E6000020000F07AF840F004006064606C00F06A
:100E7000040000F072F840F008006064606C00F05C
:100E8000080000F06AF840F010006064606C00F048
:100E9000100000F062F840F020006064606C00F028
:100EA000200000F05AF840F040006064606C00F0F0
:100EB000400000F052F840F080006064606C00F088
:100EC000800000900098032002900490002003907E
:100ED0004FF6FF700190384801F01AFF01A937481A
:100EE00001F016FF01A9364801F012FF01A93548AB
:100EF00001F00EFF01A9344801F00AFF01A93348AF
:100F000001F006FF01A9324801F002FF01A94FF0EC
:100F1000904001F0FDFE606C400840006064606C31
:100F200020F002006064606C20F004006064606C7B
:100F300020F008006064606C20F010006064606C59
:100F400020F020006064606C20F040006064606C01
:100F500020F08000606406B010BD00900098606CC6
:100F6000704700B5AFB008201E90002027900120E8
:100F700023901EA8FFF708F900B1FEE74FF40030F8
:100F800000904FF400701D90684601F0C9FF00B159
:100F9000FEE71048016841F40041016000220F2182
:100FA0000320FFF76DFE0320FFF787FE2FB000BD83
:100FB00000200240081002400004004800080048D9
:100FC000000C0048001000480014004800180048B9
:100FD000001C0048901002407047000010B586B019
:100FE000044600F07CF83CB9DFF8FC00016841F0F1
:100FF0000101016000F010F80FF2FC0030F814005D
:1010000000F066F802200490DFF8E00050F82400B9
:1010100001F07EFE06B010BD006800F001000090F7
:10102000009870470FF2D001DFF8C03031F810108F
:1010300053F82000012201F04FBF0FF2BC01DFF88E
:10104000AC3031F8101053F82000002201F044BFFA
:1010500030B587B004460D4600F041F854B9DFF8CA
:101060008800016841F004010160006800F004009C
:1010700000900098DFF878000FF280013DB931F858
:10108000141001910021029100F01AF816E0012DD0
:1010900014D131F814100191DFF858100291002199
:1010A00000F00EF80FF2580030F8144000220F2123
:1010B00060B2FFF7E5FD60B2FFF7FFFD07B030BD9E
:1010C00003910221049101A950F8240001F020BEEF
:1010D000019001A90120029000200390704701A80F
:1010E000142101F011BE00004C1002401800002035
:1010F0001C00002000002110200000000020000043
:10110000280000001B48016841F4807101607047AD
:1011100010B50C4618490028086804D1800506D58A
:10112000FFF738FD03E0800558BFFFF72DFD13489A
:10113000016821F004010160012C0FBF30BF40BFE6
:1011400020BF20BF10BDB0F5804F084608BFFFF795
:101150004ABDFFF737BD07480168C908C90041F01B
:10116000030101600548016841F00401016030BFDE
:1011700070470000007000401470004010ED00E067
:101180008A60FF2102685162012180F8211000214C
:1011900080F820100020704790F82010012901D11C
:1011A00002207047012180F82010022180F82110D0
:1011B000CA210268516253210268516201688A683B
:1011C00042F02002FFF7DCBF38B5040011D094F8DC
:1011D000210020B984F820002046FFF7C2FE00F06D
:1011E00038F8FF250028206805D04562042084F8DF
:1011F0002100012032BD8168DFF87420114000F029
:1012000033F8626823691A43A3691A431143816062
:101210002168E068086120680169A26841EA02412A
:1012200001612068C16821F08001C1602068C16C43
:1012300089088900C1642068C16CE26963691A4346
:101240001143C16420684562012084F82100002018
:1012500032BD022084F82100CA2021684862532050
:1012600021684862204605E08160206881687047F7
:10127000BFFF8FFF38B504462068C168490611D406
:101280004FF0FF31C160FFF7D4FA05462068C0680F
:10129000400607D4FFF7CDFA401BB0F57A7FF5D9A9
:1012A000032032BD002032BD00688268D20841EAC6
:1012B000C2018160704700002DE9F041DFF804644D
:1012C000DFF80484044630781425082815FB0487C9
:1012D00009D1307870703470082038744FF6FF7080
:1012E000F080002039E000F06AF8B96811FA80F166
:1012F000B960B968327815FB0282926891421AD3BC
:10130000327802E015FB0282127C15FB02831B7C03
:10131000082B04D015FB03839B689942F2D215FB7E
:1013200002810B7C082B1CBF15FB0385EC733B74FF
:10133000FA730C7411E031783378994215FB01820D
:1013400006D0D37B15FB03852C743974FB7300E046
:101350003974D473317871703470BDE8F081F0B5B0
:10136000D84BD94D1E781424B04214FB005204D13E
:1013700018785870107C18700BE0D07B167C177CA6
:1013800014FB0050082E077403D0D07B14FB0654C6
:10139000E073012010731878082802BF00294FF667
:1013A000FF70D880F0BDC749C96809684FF6FF7063
:1013B00000E0886A8A6A9042FBD180B2704710B51B
:1013C000C04CE0884FF6FF71884211D0FFF7EBFF69
:1013D000E1888142E18828BF081A04D2228912FAE2
:1013E00081F1081A401C21794843E178C84000E0A7
:1013F000002080B210BD2DE9F843B24CE5682868A2
:101400008168490502D5C1684907FCD48168DFF8C5
:10141000B88221F4806181604FF01409277819FBAC
:1014200007808668FFF7CBFF864238BF002608D3C7
:10143000618910FA81F1B14202D26689002101E08E
:10144000361A0121A17001E08A600F7C082F08D0B4
:1014500019FB07818A68824232BF00228A68121A09
:10146000F2E7B6B23EB9FFF79EFFE0800320BDE889
:10147000F243FFF731BC022E02DAE078012800D0F7
:10148000761E2868C1684907FBD500F0A6F88F4989
:1014900008600320FFF726FCE5682868B6B24661BD
:1014A000FFF781FFE0802868816841F480618160F6
:1014B000BDE8F1832DE9F041EFF3108872B6814861
:1014C000C16809688A6822F480628A60CA6802F08A
:1014D000800262F49062CA604FF480117B4A11600E
:1014E00014220578784912FB0516317B02291ED19A
:1014F0003768B47B8078C0B1707B01280AD10121A4
:101500002846FFF72CFF88F310887168284600F002
:10151000B8F804E088F31088284600F095F83A46B9
:1015200029462046FFF7E9FA03E0FFF764FF88F356
:101530001088BDE8F08138B5624CE06001688968C8
:1015400001F00701C1F10401E17002681269120C97
:1015500002F07F02521C2271D2B203681B695B0445
:101560005B0C23815B1E5A430A41A2F110014FF626
:10157000FF7291422CBF628161810121A170E280E2
:101580000021514A0023142515FB0125491C082977
:101590002B73F8DB0821217000684D4D816821F420
:1015A0008061816000F019F868610320FFF79AFB01
:1015B000E0680068816841F4804181600022A86889
:1015C00040F48010A8600321286840F4801028604F
:1015D0000320BDE83840FFF753BBC16801F080012C
:1015E00061F49061C1604FF480107047F0B5002441
:1015F000EFF3108572B61426334F06FB047C9CF87B
:101600000CC0BCF1000F02D0641C082CF5DB082CC8
:101610000BD006FB04760127377385F31088B0736F
:10162000727333600C700020F0BD85F310880120C8
:10163000F0BD10B5044600F007F82349142212FB50
:1016400004110020087310BD38B5054600F042F8BB
:101650001D48142111FB0500007B02280BD100213D
:101660002846FFF77CFE17480178407888421CBF67
:101670000829FFF7C0FE0320FFF71FFB84F3108843
:1016800031BDF8B506460F4600F024F80E48142187
:1016900011FB060502202873AF606F603046FFF72C
:1016A0000BFE08490A784978914202D0FFF7A3FE61
:1016B00002E0A968081AA8600320FFF7FEFA84F385
:1016C0001088F1BDF4080020040700201404014034
:1016D00000040140EFF3108472B60320FFF7F3BA61
:1016E000F0B5EFF3108272B6294BDF681D685E68B3
:1016F0009C684FF0010C0CFA00F0082908BF074362
:1017000014D05FEA417E6FEA000C4CBF0CEA05057D
:1017100005435FEA817E4CBF0CEA06060643C90713
:101720000CEA07074CBF0CEA040404439C605E60AB
:101730001D60DF6082F31088F0BD38B5EFF31084D0
:1017400072B61348C16801BB016821B101210020B4
:10175000FFF7DEFC19E081680E4D41B9C046C04676
:101760001F202860FFF7F7FCC046C0460DE01F2190
:101770002960406820B101210020FFF7E4FC02E06D
:101780000120FFF747FAFFF727FC84F3108831BDEB
:10179000E408002018700040DFF8B0150020087041
:1017A0007047DFF8AC05806F004710B5DFF8A4453F
:1017B0002068416D09680A68520852000A60806D0D
:1017C0000068016849084900016072B60620FFF709
:1017D0007AFA94F82400012808D1002084F8240023
:1017E0000120207162B6BDE8104077E10020207131
:1017F00062B610BD10B5DFF85C4501206074FFF7DC
:10180000D4FFDFF8540561890068BDE81040C9B213
:1018100000F070BB80B5012000F006FABDE804407E
:1018200000216DE110B5DFF8284504F1140000F047
:101830001CF8DFF82005DFF8243504F114010160FD
:1018400000220021017180F824106069416841F094
:1018500003014160016841F040010160032004F18F
:101860001001BDE81040FFF7C1BEDFF8F4140160BD
:101870004FF482714160002181604FF4E061C160EA
:101880000021016141614FF4007181610021016219
:1018900041620721C1620821C1610021816201F01A
:1018A000EFBD10B588B04FF4807002900020059015
:1018B0000022DFF8B03469460320FFF797FEDFF817
:1018C000A804DFF8884400F005FA0022006800F060
:1018D000010001904FF4807101984FF0904001F0A9
:1018E000FBFA0120039002A9002004904FF09040E1
:1018F00001F00EFA9DF800000121FFF7C2FE00F092
:1019000014F801224FF480714FF0904001F0E4FA96
:101910009DF800005D21FFF7B4FE00F006F89DF889
:101920000000FFF786FE08B010BD0120207020786F
:101930000128FCD0704738B5DFF81844251D6861D0
:101940000020A9612A776B77E87772B6287840B9CA
:10195000012028700620FFF7B6F962B6BDE83140D5
:10196000BCE0012084F8240062B631BD10B5DFF878
:10197000FC43012060600620FFF7B4F90620FFF762
:101980009CF900F0A6F8012803D1206840F001007E
:10199000206010BD002207E0DFF8B803006800688F
:1019A00080680006F8D4012202214FF0904001F037
:1019B00093BA80B5FFF7F0FF0D204FF00051401EA5
:1019C0000968FAD1BDE80140E4E738B5DFF88403DF
:1019D000DFF89C430368DFF89C239D6DDFF89813C4
:1019E0002D68A54204D30D6845F020050D6003E085
:1019F000156845F0200515605B6D1B68A34204D394
:101A00000A6842F400720A6003E0116841F4007150
:101A10001160CF4C027A21781AB1022A1AD029D348
:101A200031BD2079E27852EA002001D002290FD09E
:101A300000F04FF840B9FFF7AFFF06210120FFF794
:101A40004FFEBDE83140B0E6FFF7B3FF00201BE0DA
:101A5000022019E0FFF7A0FF06210120FFF740FE5A
:101A6000C648A067207C20730220A060BDE83140FA
:101A7000FFF770B8A278637853EA022201D00229F6
:101A800005D0FFF796FF0120BDE83240CCE000F121
:101A900021018D780B78012D1C460FD090F8200085
:101AA00054FA80F4A24205DA101A1A1A0A700122B6
:101AB0008A7000E018464870002007E0A242B2BFDA
:101AC000981A1A46002008704A700120BDE832407A
:101AD00064E001214FF0904001F0F8B910B5062004
:101AE000FFF7F1F89A4CA648A067FFF753FF207C58
:101AF00020730620A060FFF72DF8BDE810400621F6
:101B00000020FFF7EDBD80B59248994A0168496D04
:101B1000096891422CBF984996490A6842F40072BC
:101B20000A6000F12101027D12B1012A06D001BD37
:101B3000487890B1BDE8024001202FE08A78012A60
:101B40000BD10A784AB1C26949788918C161FFF797
:101B500030FFBDE80240012066E0BDE8014010B55D
:101B600006210020FFF7BCFD7A4C00202071FFF712
:101B700013FF2068416D09680A68520852000A6024
:101B8000806D00680168490849000160607C002898
:101B900004BFBDE81040FFF7E9BE10BD38B56D4D7C
:101BA00004462868416D0A6813685B085B0013608F
:101BB000806D026813685B085B0013600068026850
:101BC00022F0020202600868694988422CBF6A4814
:101BD0006848016841F4007101600D20FFF782F848
:101BE0002868406D01680A6842F002020A600168D4
:101BF0000A6842F080020A6014B1012C08D010E09B
:101C000000212975026895F820105160A96906E045
:101C100001212975026895F822105160E96902686E
:101C2000D16000F056F831BD70B54A4C2268516D54
:101C30000B681D686D086D001D60936D1D682E6832
:101C4000760876002E6004251668367B6D1EFBD163
:101C50001A68136843F00203136009680A6822F0E7
:101C600002020A6018B102280AD003D326E00FF25C
:101C70001C1102E00FF20C11012000F030F81DE001
:101C8000207233480179C07840EA0120217C8142EA
:101C900038BF0846216860814A6D13681D6825F0C9
:101CA00080051D60896D0B6858601368586009686D
:101CB000E068C86011680FF2DC00C8602068816DC0
:101CC00009680A6842F001020A60406D00F001F8FC
:101CD00070BD0068016841F001010160704710B5F6
:101CE0001C4A10721068426D13681C6844F080042E
:101CF0001C60052314686360806D0468636000687D
:101D0000134BC3601068C16010BD124AD060002040
:101D1000117450742AE680B572B60E48017969B91B
:101D20000121017162B6FFF735FE0020FFF77CFF4D
:101D3000BDE8044000210120FFF7D2BC62B601BD1E
:101D400003488168007BFFF79CBC00002509002048
:101D5000A4070020980800200C090020A317000801
:101D600000300140991700084C1002401004014057
:101D7000810002400400024004040240F5170008FC
:101D8000151800080A000000000000000B00000009
:101D900000000000FF00000010B5B34C82B0A07836
:101DA00001280ED104F1100001F0C9FB48B9A07060
:101DB000694604F1100001F0EBFB0098802101F06E
:101DC00003FC13BDA84901204870704738B5A64CE4
:101DD00004F1100001F0B0FB04F1180001F0ACFBBD
:101DE00000258C2010FB054000F1200100F063F875
:101DF0006D1C052DF5DB0120A07031BDCCE770B561
:101E0000994C00F10803A3600021E3782BB9E3802B
:101E100003E0042B4ED10323E370E388802B49DADF
:101E2000E3885D1CE580A568E6785B5D002EF0D058
:101E3000032E08BF0623EFD0042E08BF0523EBD0E6
:101E4000052E08BF0723E7D0072E08BF0823E3D0DD
:101E5000082E04D1B5F8032000210923DCE7062E63
:101E600001D11A46F8E7092ED7D1491C89B292B29E
:101E70009142D2D30021E17000F108014A1C097897
:101E800004290CD111780E2918BF0F2907D001465B
:101E900004F1180001F066FBFEF7BDFD02E001460B
:101EA00000F009F8E06828B1E188A068E268BDE8C0
:101EB0007040104770BD04F1100001F053BB10B525
:101EC00082B000200090684C0DE0694604F11800D3
:101ED00001F05EFB0098083000F029FE0099FFF742
:101EE000EAFFFFF759FF04F1180001F028FB002872
:101EF000EBD013BD80B55C4A0123937011B1FFF79D
:101F00007EFF04E0014602F1100001F021FBBDE874
:101F1000014041E701F054BB70B5890582B0890DDD
:101F200041EA8020ADF800000120504E3070144688
:101F30001D468DF8024003226946701C00F05FF9CF
:101F40002346042229463046FFF7E4FF73BD464985
:101F50000120087170472DE9F8430446424F60881C
:101F60002188DFF80C918005800D40EA81254148E9
:101F700000680A21B0FBF1F6002038714FF00A0822
:101F8000FEF7C7FD3C48F860E068A3686188C2B20C
:101F90002088FFF7C1FF2FE0FEF7BAFD787838B14F
:101FA000387801F039FB00F069F84FF0FF3057E066
:101FB00038790028F0D0387801F02EFBB868024656
:101FC0001178042916D1C11CF8885278C01E0E2A37
:101FD00026D00F2A04D0102AE5D03E2A2ED009E0C0
:101FE0004A88ADB2AA4205D162680F2A13D0087898
:101FF0000028D8D1002038715FEA0800A8F1010854
:10200000D1D006B90126002078703A4649463046BC
:1020100001F0EEFAC2E762699042C8BF10460AE0DA
:10202000B1F80120ADB2AA42E4D16269C91CC01E58
:102030009042C8BF1046606102460BE00A786368B0
:102040009A42D7D16269401E9042C8BF1046606173
:102050000246491C206900F0D2F800F00FF8002079
:10206000BDE8F283000000002804002010090020D1
:10207000C51D0008583C00084F1F00080020F860EC
:102080000120FEF746BDF0B589B000F028F800F059
:102090007BF800F084F8042000F07CF8012000F0C8
:1020A00028F8092000F054F8002802D49DF8000018
:1020B00010B14FF0FF3010E09DF801002070BDF826
:1020C000020028809DF804003070BDF805003880BB
:1020D0000E99BDF807000880002009B0F0BD044645
:1020E0000D4616461F4670471822002101A800F031
:1020F0008CB8ADF80E0000210020059006907047C6
:1021000030B58FB000F01DF88DF81C40202CA8BF12
:102110001F2400F010F8FFF7E7FF00F02AF809206D
:1021200000F021F820200490012000F029F800F0B0
:1021300012F80FB030BD224629460DF11D0000F007
:102140005EB804460D462022002107A800F05DB8C5
:10215000089003A8FFE6002802D49DF8000008B10B
:102160004FF0FF307047ADF80600002107A803903C
:1021700070470820ADF80400CDF814D07047032054
:10218000069001A8E7E6044609220021684600F00F
:102190003CB80820ADF80C00CDF81CD070471822D0
:1021A000002103A800F031B870B584B0064601A83C
:1021B00000900C460DF10A0302AA0DF106010DF183
:1021C0000900FFF760FFC5B2A5B9BDF80600000A17
:1021D0003070BDF8060000022080BDF8041009062A
:1021E000090F40EA01102080BDF8041001F00F0132
:1021F00008432080FFF763FE284604B070BD10B589
:10220000044600F045FD204610BD10B504461046BA
:102210000A460146204601F005FA204610BD10B5D9
:102220000C461146A21CA8B0812AA8BF42201FDA82
:102230008DF81C008DF81D4022460DF11E00FFF7A1
:10224000DEFF00F03BF800F033F80C20ADF806009C
:10225000002107A80390A01CC0B2049001200690A2
:1022600001A8FFF778FE00284CBFFF209DF8000072
:1022700028B010BD00B589B08DF804008DF80510A8
:102280001822002102A8FFF7C0FF00F022F80F205B
:1022900000F019F8022005900120079002A8FFF72E
:1022A0005AFE00284CBFFF209DF8000009B000BD79
:1022B0003F20ADF80400CDF814D07047182200215B
:1022C00001A8FFF7A2BFADF80A00002101A8049001
:1022D00070473F20ADF80800CDF818D0704700B522
:1022E00087B000F013F900F002F940F20110ADF8E8
:1022F0000600002100F009F800284CBFFF209DF8DF
:10230000000007B000BDC0B204900120069001A8F3
:10231000FFF721BE70B58CB001288DF81C00144663
:102320000CBF022610261D4632460DF11D00FFF798
:1023300066FF701C07A9C0B203224454441CE4B2D7
:10234000684665540021FFF760FF00F0DFF800F0F9
:10235000CEF84FF4817000F062F8601CC0B20490B7
:102360000320FFF7D3FF002848BFFF2005D49DF8C6
:10237000000010B9109900F049F80CB070BDF1B52B
:102380008EB00D4616461F4602220EA900F0CDF86B
:1023900007AC012DA57031460CBF022510252A4639
:1023A00000F074F8E81CC0B2411C0755C9B214987B
:1023B0000855491C1598C9B203220855491C16989E
:1023C000C9B20855491C1798C9B24D1C0855EDB241
:1023D0001898285500F01FF800F098F800F087F8DA
:1023E0004FF4827000F01BF8681CC0B20490032008
:1023F000FFF78CFF002848BFFF2005D49DF80000A0
:1024000010B9199900F002F80FB0F0BDBDF8010045
:1024100008800020704700216846FFF7F6BEADF83F
:102420000600002107A80390704733B51C46A01D85
:10243000A7B081281546A8BF42201FDA022227A98B
:1024400000F073F8022228A900F096F82C998DF874
:1024500020508DF82140224600F012F800F056F886
:1024600000F045F84FF48370FFF7D9FFA01DFFF788
:102470004AFF00284CBFFF209DF8000029B030BD66
:102480000DF12200FFF7BBBE224619460DF11F00D9
:10249000FFF7B5BE17B58DB01C4602220DA900F09E
:1024A00044F802220EA900F067F802220FA908A83A
:1024B000FFF7A5FE8DF82240012C0CBF022410244A
:1024C0001299224600F08EF800F020F800F00FF884
:1024D0004FF48B7000F011F80F200290FFF715FFFA
:1024E00000284CBFFF209DF8000010B010BD3F2019
:1024F000ADF80400CDF814D07047ADF80600002107
:1025000007A80390E01DC0B2049070471822002174
:1025100001A8FFF77ABE8DF82040224629460DF12A
:102520002100FFF76CBE022228A907A8FFF767BEAB
:1025300033B51446601DA7B081281D46A8BF4220B0
:1025400016DA022227A9FFF7F0FF022228A900F0DD
:1025500013F8FFF7E0FFFFF7D9FFFFF7C8FF40F2DE
:10256000211000F00DF800284CBFFF209DF800005E
:1025700029B030BD022229A90DF11E00FFF73FBE90
:10258000ADF80600002107A80390601DC0B20490BA
:102590000F2002900120069001A8FFF7DCBC10B5C7
:1025A0008EB0152A144628BF422018D2ADF81C0060
:1025B000ADF81E108DF820401946FFF7B0FFFFF769
:1025C000A5FFFFF794FF40F22310FFF728FF601DDF
:1025D000FFF79AFE00284CBFFF209DF800000EB0C8
:1025E00010BD10990DF12300FFF709BE10B58AB098
:1025F0008DF800008DF801108DF802201C4607228E
:1026000000F009F900F0C0F800F013F98A20ADF8E5
:102610000E0000210320069001A80790072000F07B
:10262000AFF8002848BFFF200ED49DF8040058B929
:10263000BDF8050020800C99BDF8070008800D99B1
:10264000BDF80900088000200AB010BD70B58AB03E
:102650000C468DF8080015461E46072200F0D0F8FB
:1026600000F092F800F0DBF88A20ADF80E000021AF
:1026700002A8059001200690072000F081F80028AC
:1026800048BFFF200CD49DF8000048B9BDF80100F8
:102690002080BDF803002880BDF8050030800020B0
:1026A0000AB070BD76B592B000F04FF828BF422056
:1026B0001BD200F052F800F02AF89DF8600000F0FC
:1026C0002CF800F035F800F01AF800F010F800F0DF
:1026D000A1F800F099F8832000F047F800F000F925
:1026E00000284CBFFF209DF8000014B070BDA41C52
:1026F000E4B207A802221EA92018FFF780BD6419C2
:10270000E4B207A802221DA92018FFF778BD022213
:1027100013A90DF11F00FFF772BD1A998DF8220061
:102720008DF821608DF823502A4609A8FFF767BD70
:1027300005F10800C0B207A9451C4454EDB21C992C
:1027400007A822462818FFF75ABD199D1B9C54FA6A
:1027500085F10E3129291E4670478DF81C00022292
:1027600012A90DF11D00FFF74ABDADF806000021CA
:1027700007A80390A01CC0B20490704706900120E7
:10278000089003A8FFF7E7BB1822002103A8FFF772
:102790003CBD30B58FB08DF81C008DF81D1014466F
:1027A0001D461022214600F040F8129814998DF829
:1027B0002F008DF82E50182213988DF830000DF14F
:1027C0003100016000219DF854008DF8350001A80A
:1027D000FFF71BFD00F018F8862000F00BF81A2018
:1027E000049000F07DF800284CBFFF209DF8000009
:1027F0000FB030BDADF80600002107A80390704768
:1028000000216846FFF701BD3F20ADF80400CDF878
:1028100014D070471822002101A8FFF7F6BC3F2012
:10282000ADF80C00CDF81CD070470DF11E00FFF77D
:10283000E6BC3F20ADF80C00CDF814D0704700B5D1
:102840008DB000F016F800F026F8BDF84000ADF8A5
:102850001200BDF8440000F027F800F016F89C20A4
:1028600000F030F800284CBFFF209DF800000DB0AC
:1028700000BDADF80400ADF806108DF8082019462B
:1028800006220DF10900FFF7BABC3F20ADF81C008D
:10289000CDF82CD070470E988DF80F0018220F98A5
:1028A000ADF8100000217047ADF814001298ADF893
:1028B00016001398ADF818001498ADF81A0007A880
:1028C000FFF7A3BCADF81E00002101A80990182055
:1028D0000A900F20089001200C9007A8FFF73BBB3F
:1028E0000120069001A8FFF736BB000010B592B09A
:1028F0000EA80FF23031C64C00F08FF80AA80FF284
:10290000343100F08AF806A80FF2383100F085F86B
:1029100004F10C000090072301220EA90220FFF70A
:10292000F9FC30BB04F10E00059014230120049043
:102930000AAA10200390022100200290019010208A
:102940000090A089FFF71BFD98B904F110000590D5
:1029500014230120049006AA1020039002210120D4
:102960000290002001900C200090A089FFF707FD45
:1029700000B1472012B010BD00B5A6488BB000785A
:10298000002807A81CD10FF2CC210CC90CC00020D4
:10299000FEF748FB0820069005904FF480414FF465
:1029A0001670049007AB0020039000224FF4C8700B
:1029B00002900190002000900846FFF740FF1AE0C7
:1029C0000FF2982100F029F800210020FFF798FB72
:1029D00000200690059004900390002307A8029021
:1029E00000220D200190002100200090FFF75AFEE8
:1029F000012000F006F90BB000BD10B5844C86B084
:102A0000A07840B901A80FF2642100F006F800F0A8
:102A100017F80120A07006B010BD102200F048B9D0
:102A200010B57B4C86B0E07840B901A80FF24C217C
:102A3000FFF7F3FF00F004F80120E07006B010BDCE
:102A400001A800900223E0884FF6FF720121FFF7F2
:102A500021BD38B5704D28780C4628B908210220D0
:102A6000FEF73EFE012004E006210220FEF738FEBC
:102A700000202870002000E0401CA042FCDB31BD9B
:102A800080B5644A12780346012A614807D1009351
:102A900000220B46C1898089FFF7C7FC01BD0A46A9
:102AA0004189C088BDE80050491C89B2FFF777BD55
:102AB00010B50FF2D810564C82B00088ADF8000067
:102AC0006B462089811CE088022289B2FFF730FD25
:102AD0000120607013BD10B54D4B1C8A641CA042D0
:102AE00003D1BDE810401046B3E7D989891C88425C
:102AF00002BF10780128587010BD4548012242617C
:102B0000C1807047424800214161012101700021CC
:102B100041708170C1700171417170473C4B1B89DC
:102B20005B1C984204BF1046FFF793BF704738B54F
:102B30000446012000F065F82078651C04285FD168
:102B40002878052804D03E2805D0FF280ED031BDB6
:102B5000BDE83140D6E7A81C0178012950D1401CBE
:102B6000BDE83440B0F80110401DC6E7A91C294853
:102B70000B880278264840F601441B1B06D00E3B0A
:102B800014D05B1E2ED09B1E1AD031BD2348007876
:102B9000012803D1881C831CC21D02E0881C831CF1
:102BA000421D99781888BDE8384094E7BDE8384060
:102BB000881C421D8178B0F80300891EC9B2ADE7B8
:102BC000F2B98278891C2AB102791AB9B1F80310D6
:102BD000018131BDC2789AB142798AB9B1F8031046
:102BE000418131BD62B9817821B1017911B90121E9
:102BF000017131BDC17819B1417909B90121417122
:102C000031BD07490870012808BFFDF706BF7047AE
:102C100000000020210900202409002020090020B4
:102C200023090020669A0C200008969EE2119EB1AE
:102C3000E0F273D9669A0C200008969EE2119EB1CC
:102C4000E1F273D9669A0C200008969EE2119EB1BB
:102C5000E2F273D9AA0000E18002000009426C751B
:102C6000654E52475F43686174000000669A0C200D
:102C70000008969EE2119EB1E1F273D9669A0C208B
:102C80000008969EE2119EB1E2F273D901000000A5
:102C900062B38B0708D0521E11F8013B00F8013BCC
:102CA00000F024808B07F6D1830740F0208000BF1E
:102CB000103A07D330B4B1E83810103AA0E8381011
:102CC000F9D230BC530724BFB1E80810A0E80810BF
:102CD00044BF51F8043B40F8043BD20724BF31F80D
:102CE000022B20F8022B44BF0B7803707047083A80
:102CF00007D3B1E80810083A40F8043B40F804CB89
:102D0000F7D25307E4E70000002200F0BFBC000048
:102D10002DE9F8470022784BDFF8E081DFF8E091F9
:102D20004FF00F0A30E005FA0EFE4EEA040448F8B0
:102D30002C406FEA070C1C680CEA040E4C68E40394
:102D400048BF47EA0E0EC3F800E05C680CEA040EC8
:102D50004C68A40348BF47EA0E0EC3F804E09C6821
:102D60000CEA040E4C68E40248BF47EA0E0EC3F8B2
:102D700008E0DC680CEA040C4C68A40248BF47EA8F
:102D80000C0CC3F80CC0521C0F6837FA02F400F0A8
:102D90009B804FF0010C0CFA02F42740F3D04D68F1
:102DA000022D18BF122D11D1D50800EB850C02F0B1
:102DB0000706DCF820504FEA860E0AFA0EF6B543F5
:102DC0000E6906FA0EF63543CCF820504FEA420C55
:102DD0000326056806FA0CF66FEA060E0E7906F071
:102DE00003060EEA050506FA0CF635430560E443D2
:102DF0004D68012D18BF022D03D0112D18BF122DC3
:102E00000FD18568CE680EEA050506FA0CF6354343
:102E1000856045684E68C6F30016254096403543E8
:102E200045604D6805F00306032E06D1C66AC5F35A
:102E3000C005344095402C43C462C4680EEA040EB9
:102E40008C6804FA0CF444EA0E04C4604C68E40094
:102E500099D5D9F8004044F00104C9F800404FEA80
:102E6000920CD9F8004004F00104009402F003052C
:102E7000009C58F82C404FEA850E0AFA0EF5AC4338
:102E8000B0F1904F08BF00251DD01E4DA84208BFCD
:102E9000012518D01C4DA84208BF022513D01B4D98
:102EA000A84208BF03250ED0194DA84208BF04252B
:102EB00009D0184DA84208BF052504D0164DA842D8
:102EC0000CBF062507252EE7BDE8F18700690840FD
:102ED00018BF0120C0B27047002A14BF816181620F
:102EE00070470E4A1368034200D1704780B51060E6
:102EF00000F072FB01BD0000000401400800014029
:102F0000601002400004004800080048000C00481F
:102F10000010004800140048001800481404014044
:102F20002DE9F84F044600252068DFF84865DFF8F2
:102F300048750005A846A94626D5606D70B1B0F564
:102F4000800F19D0B0F5000F03D0B0F5400F09D0B5
:102F500017E0F06840F48030F06006E0201D00F0DB
:102F6000E1F98046B8F1000F0DD13868616D20F4A9
:102F700040000843386007E004F1180000F039FA17
:102F8000EFE74FF00108C1462068C00426D5A06DC8
:102F9000B8B1B0F1807F19D0B0F1007F03D0B0F1AB
:102FA000407F04D017E0F06840F48030F060B8F162
:102FB000000F12D13868A16D20F0407008433860CE
:102FC0000CE0201D00F0AEF98046F0E704F1180097
:102FD00000F00FFAF8E74FF00108C14620688003BF
:102FE0002FD5B06DC000AA460AD4B06D40F0805015
:102FF000B0654FF0010AB06D00F08050009000986D
:10300000DFF87804DFF87414006840F4807008601A
:10301000FDF70FFC8346DFF864040068C00500F18B
:103020008180FDF706FCA0EB0B000328F3D34FF0E3
:103030000308C146BAF1000F03D0B06D20F08050F4
:10304000B0652078C00705D53868A16A800841EAD4
:10305000800038602078800705D53868E16A20F064
:103060000C00084338602078400705D53868216B8C
:1030700020F03000084338602078000705D5386814
:10308000616B20F0C000084338602078C00605D589
:103090003868A16B20F440700843386020788006BF
:1030A00005D53868E16B20F440600843386020683B
:1030B000800505D53868E16C20F44020084338606D
:1030C0002068400505D53868216D20F4401008437C
:1030D00038602078400605D53868216C20F44050CF
:1030E000084338602078000605D53868616C20F404
:1030F0004040084338602068C00505D53868A16C99
:1031000020F44030084338602068800440D5386897
:10311000E16D00F0EDF8E06DB0F1006F30D100F03E
:10312000ECF835E0B8F1000F83D1B868616F00F4B6
:10313000407088420BD0B86820F44075B86840F4FD
:103140008030B860B86820F48030B860BD60A807EF
:103150000FD5FDF76EFB0546B868800709D4FDF76B
:1031600068FB401B41F289318842F5D34FF00309D7
:1031700060E7B868616F20F440700843B86059E7B1
:10318000B0F1806F04D1201D00F009F900B1814633
:103190002068000312D53868216E00F0A9F8206E6F
:1031A000B0F1006F02D100F0A8F807E0B0F1806F35
:1031B00004D1201D00F0F3F800B1814620684003DF
:1031C00012D53868616E00F093F8606EB0F1006F50
:1031D00002D100F092F807E0B0F1806F04D1201D19
:1031E00000F0DDF800B181462068400460D5386801
:1031F000A16E20F0405008433860A06EB0F1805FAF
:1032000028D1306820F080603060251DFDF711FB6B
:1032100080463068000105D5FDF70BFB00F05DF836
:10322000F7D33EE03069296800F0A2F8E96800F0C1
:1032300058F800F067F880463068000105D4FDF7C3
:10324000F8FA00F04AF8F7D32BE03069296908430F
:1032500030612DE0B0F1005F2AD1306820F080505D
:10326000306004F11805FDF7E4FA8046306880000C
:1032700005D5FDF7DEFA00F030F8F7D311E07069FC
:10328000296800F0E7F8A96800F02BF800F042F890
:1032900080463068800007D4FDF7CBFA00F01DF8B7
:1032A000F7D34FF0030903E07069E96808437061E0
:1032B0002068000405D53868E16E20F0804008439E
:1032C00038602068C00305D53868216F400051EA96
:1032D000500038604846BDE8F28FA0EB0800032894
:1032E0007047891E090620F0C06001F07E417047DA
:1032F00020F04060084338607047F06840F4801068
:10330000F060704708433061306840F080603060A2
:10331000FDF78FBA08437061306840F0805030602C
:10332000FDF787BAF8B500F031F8074630680001BC
:1033300005D5FDF77EFAC01B0328F7D30EE000F099
:1033400015F800F080F800F01AF807463068000120
:1033500006D4FDF76EFAC01B0328F7D3032503E05C
:1033600030692169084330612846F2BD306921681F
:1033700020F4FE4040EA012030613069704730613E
:10338000306840F080603060FDF753BA394E044633
:10339000306820F0806030600025FDF74ABAF8B54B
:1033A000FFF7F4FF07463068000105D5FDF741FA45
:1033B000C01B0328F7D314E0FFF7D8FFA168891ECC
:1033C000090520F4C000490D40EA4150FFF7D7FF3E
:1033D00007463068000106D4FDF72BFAC01B03280E
:1033E000F7D3032503E0306921690843306128469B
:1033F000F2BDF8B500F035F807463068800005D515
:10340000FDF717FAC01B0328F7D314E07069216891
:1034100000F020F800F017F87061306840F080503C
:10342000FFF7B1FF07463068800006D4FDF701FAC8
:10343000C01B0328F7D3032503E07069E168084344
:1034400070612846F2BD616820F40030090940EA45
:103450004140704720F4FE4040EA012070617069ED
:103460007047044E0446306820F0805030600025DC
:10347000FDF7DFB9001002408810024000700040E4
:1034800070B5040001D1012070BD04F15C056878BD
:1034900018B92870204600F013F90220687040F235
:1034A000017300F043F8E2689A4204D30021B2F5B8
:1034B000706F05D106E0B2F5E06F4FF4805101D096
:1034C0000026A662266B26B99A422CBF0222012250
:1034D00022636268A3681A4323691A4363691A4323
:1034E000A36903F400731A43E3691A43236A1A4376
:1034F000A36A1A430260226B022A03D1026842F4D3
:1035000000620260A269636A120C02F004021A43AC
:10351000636B1A43E3681A4311434160E16A016136
:103520000020686001206870002070BD206801687C
:1035300021F0400101607047006040607047EFF388
:10354000108172B6026882420CBF012000201CE08C
:10355000EFF3108272B603680B6048600160086880
:10356000416029E0EFF3108272B6086043684B6057
:103570004160486801601FE0EFF3108172B6436854
:1035800002681A6042680068426081F310887047E0
:1035900038B50C46EFF3108572B6016821600068FB
:1035A000FFE7FFF7E9FF2168002008602168486015
:1035B00085F3108831BD086082F3108870470000E1
:1035C000DBB2D2B2FEF7B7B9024A10600830FEF79C
:1035D0009CBB00000C090020012808BFFEF79BBB24
:1035E000B0F5005F03D108210220FEF779B87047DB
:1035F00038B5044615460B46002229460220FDF741
:10360000F5FF4FF47A7060433F21B0FBF1F1287869
:10361000FEF737F8002032BD80B5FEF70AF800202B
:1036200002BD000062F30F2262F31F42401810F047
:10363000030308D0C91A1FD3DB0748BF00F8012DC8
:1036400028BF20F8022D130030B414461546103957
:1036500028BF20E93C00FAD8490728BF20E90C0020
:1036600048BF40F8042D890028BF20F8022D48BF2C
:1036700000F8012D30BC7047C91818BF00F8012DA3
:10368000CB0728BF00F8012D7047000000B500BF30
:10369000130096469446103928BFA0E80C50FAD87B
:1036A0005FEA417C28BF0CC048BF40F8042BC90723
:1036B00028BF20F8022B48BF00F8012B00BD0000F6
:1036C000F0B5044687B020684D49884240F09580A7
:1036D0004C4D686840F00200686001A9686800F01D
:1036E00002000090009800F0AEF800F0ACF8A86975
:1036F00040F48050A861A86900F4805000900098C0
:1037000008200190022002900020039003200490E2
:10371000052005903C48FFF7FBFA402000F085F8B3
:10372000802000F082F80220019001A9012002907F
:10373000002000F071F8012202214FF09040FFF7C5
:10374000CBFB0120019001A930480290022000F03B
:1037500063F8286840F00100286028682C4D00F0CC
:10376000010000900098012068601020A8600020EF
:10377000E8608020286100206861A861E8614FF45A
:103780000056244F2E6207F114002860284600F0EE
:103790006DF8206829680C30886065650120286410
:1037A000AC6200206864A864EE658020E864EF6382
:1037B000002028656865A86505F13C0000F056F812
:1037C0002068E96B0C308860002205F13C00A065A0
:1037D0006C6601210D20FDF753FA0D20FDF76DFAFF
:1037E000002201210C20FDF74BFA0C20FDF765FAB1
:1037F000002202210620FDF743FA07B0F0BD0000C9
:103800000030014048100240000400480000111040
:10381000200800201C000240039003200490002098
:1038200005904FF09040FFF773BA019001A9022074
:1038300002900020039003200490052005904FF093
:103840009040FFF765BA686840F0010068606868FA
:1038500000F0010000900098686840F00100686086
:10386000686800F0010000900098704710B508B932
:10387000012010BD00F124014A7802B90A70022229
:103880004A700268136884686FF30D132343C46899
:103890002343046923434469234384692343C4695C
:1038A0002343046A234313608268B2F5804F73D0C8
:1038B0000368DFF8F840DFF8F820A3421DD0DFF8F6
:1038C000F440A34224D0DFF8F040A3422CD0DFF82C
:1038D000EC40A34234D0DFF8E840A3423CD0DFF80C
:1038E000E440A34244D0DFF8E040A3424CD0DFF8EC
:1038F000DC40DFF8DC20A34206D113681B091B0162
:1039000000F050F8184346E0DFF8C840A34207D162
:10391000136823F0F00300F045F843EA00103AE0A2
:10392000DFF8B440A34207D1136823F4706300F0BA
:1039300039F843EA00202EE0DFF8A040A34207D187
:10394000136823F4704300F02DF843EA003022E0BE
:10395000DFF88C40A34207D1136823F4702300F0F2
:1039600021F843EA004016E0DFF87840A34207D18F
:10397000136823F4700300F015F843EA00500AE0DE
:10398000DFF86440A34207D1136823F0706300F0AE
:1039900009F843EA00601060002048610120487087
:1039A000002010BD13601368406870470800024093
:1039B000A80002401C0002403000024044000240C7
:1039C000580002406C00024080000240080402409F
:1039D000A80402401C040240300402404404024097
:1039E000580402406C040240800402407047FEE725
:1039F00070477047704780B5FCF716FF1C48016898
:103A0000491C016001BDFDF755BD0120FFF769BAF2
:103A100080B5184901200860FFF7F3F8BDE80240BF
:103A20004FF40050FFF75DBA1348806D00680168DD
:103A300089070AD5114988422CBF114811480068EE
:103A400010F0200018BFFDF7C0BF70470A48406D56
:103A50000068016889070AD5084988422CBF0848D0
:103A60000848006810F4007018BFFEF74CB87047A3
:103A7000180900201C090020B8070020810002401E
:103A800000040240000002400E480F4A016841F461
:103A9000700101600D48016841F0010101600021E1
:103AA00081600168114001604FF48051C16001687C
:103AB00021F480210160002181614FF00060044900
:103AC0000860704788ED00E0FFFFF6EA0010024052
:103AD00008ED00E000000000000000000102030407
:103AE00006070809A0860100400D0300801A0600A1
:103AF00000350C0040420F0080841E0000093D008C
:103B000000127A000024F40000366E010048E8013B
:103B1000006CDC0219E050F8041BCB0744BFA9F18C
:103B200001035918121F0023042A41F8043BF9D25B
:103B30005FEA827C0B4604D54FF0000CA1F800C070
:103B40009B1CD10744BF0021197050F8042B002A98
:103B5000E1D1704730B5016842688468091801EB0B
:103B60005203D20748BF4C440C30994200D130BDBB
:103B700011F9012B11F8015B002A04F8015B02D551
:103B8000521CF9D1F1E7521EF4D5EEE710B5074902
:103B900079441831064C7C44163404E00A68081D48
:103BA000511888470146A142F8D110BD2C000000F1
:103BB000480000004EF68851CEF20001086840F43B
:103BC00070000860BFF34F8FBFF36F8F4FF000702E
:103BD000E1EE100A704700003DFFFFFF0005000006
:103BE00028040020000000006DFFFFFFAC01000072
:103BF0001C0000000000002000F00BF8002801D09D
:103C0000FFF7C4FF0020C046C046FCF719FE00F0D5
:103C100002F80120704700F001B80000074638465E
:103C200000F002F8FBE7000080B5C046C046024A3B
:103C300011001820ABBEFBE72600020001488047B8
:103C400001480047893A00084D3C0008C046C0467C
:103C5000FFF7B0FFFFF7D0FFE8030000FFF7FEBF5C
:103C6000FFF7FEBFFFF7FEBFFFF7FEBFFFF7FEBF88
:103C7000FFF7FEBFFFF7FEBFFFF7FEBFFFF7FEBF78
:103C8000FFF7FEBFFFF7FEBFFFF7FEBFFFF7FEBF68
:103C9000FFF7FEBFFFF7FEBFFFF7FEBFFFF7FEBF58
:103CA000FFF7FEBFFFF7FEBFFFF7FEBFFFF7FEBF48
:103CB000FFF7FEBFFFF7FEBFFFF7FEBFFFF7FEBF38
:103CC000FFF7FEBFFFF7FEBFFFF7FEBFFFF7FEBF28
:103CD000FFF7FEBFFFF7FEBFFFF7FEBFFFF7FEBF18
:103CE000FFF7FEBFFFF7FEBFFFF7FEBFFFF7FEBF08
:103CF000FFF7FEBFFFF7FEBFFFF7FEBFFFF7FEBFF8
:103D0000FFF7FEBFFFF7FEBFFFF7FEBFFFF7FEBFE7
:103D1000FFF7FEBFFFF7FEBFFFF7FEBFFFF7FEBFD7
:103D2000FFF7FEBFFFF7FEBFFFF7FEBFFFF7FEBFC7
:103D3000FFF7FEBFFFF7FEBFFFF7FEBFFFF7FEBFB7
:103D4000FFF7FEBFFFF7FEBFFFF7FEBFFFF7FEBFA7
:103D5000FFF7FEBFFFF7FEBFFFF7FEBFFFF7FEBF97
:103D6000FFF7FEBFFFF7FEBFFFF7FEBFFFF7FEBF87
:103D7000FFF7FEBFFFF7FEBFFFF7FEBFFFF7FEBF77
:103D8000FFF7FEBFFFF7FEBFFFF7FEBFFFF7FEBF67
:103D9000FFF7FEBFFFF7FEBF0001E600084800087E
:063DA000004800093D008F
:00000001FF
