:020000040800F2
:1000000028040020453300080131000803310008AE
:1000100065330008693300086D33000800000000F4
:100020000000000000000000000000000531000892
:100030000731000800000000093100080B310008FA
:100040007133000875330008793300081B3100084C
:100050007D330008813300081F3100088533000814
:10006000893300088D330008913300089533000868
:10007000993300089D330008A1330008A533000818
:10008000A9330008AD330008B133000800000000B8
:10009000000000000000000000000000B533000870
:1000A000B9330008BD330008C1330008C533000868
:1000B000C9330008CD330008D1330008D533000818
:1000C000D9330008DD330008E1330008E5330008C8
:1000D000E9330008ED330008F133000800000000A8
:1000E00025310008F5330008F9330008000000004E
:1000F000000000000000000000000000FD330008C8
:10010000000000000134000805340008093400082C
:1001100000000000000000000000000000000000DF
:100120003D3100080D340008113400087531000815
:10013000153400080000000000000000000000006E
:10014000000000000000000000000000193400085A
:100150001D34000821340008253400082934000823
:100160002D340008313400080000000000000000B9
:10017000000000000000000000000000000000007F
:1001800000000000353400080000000000000000FE
:1001900039340008DFF8E015002008707047DFF8F8
:1001A000DC05C06E004710B5DFF8D4452068816CCF
:1001B00009680A68520852000A60C06C0068016849
:1001C00049084900016072B6062000F03EFB94F831
:1001D0002400012808D1002084F824000120207187
:1001E00062B6BDE8104081E10020207162B610BD0A
:1001F00010B5DFF88C4501206074FFF7D4FFDFF8FD
:10020000840561890068BDE81040C9B200F0F0BB08
:1002100080B5012000F01EFABDE80440002177E11E
:1002200010B5DFF8584504F1140000F01CF8DFF8B1
:100230005005DFF8543504F114010160002200215B
:10024000017180F824106069416841F00301416048
:10025000016841F040010160032004F11001BDE894
:10026000104000F0B9BEDFF8241501604FF4827130
:10027000416000218160C160016141614FF4007102
:1002800081610021016241620721C1620021C161D7
:10029000816200F01BBF30B587B04FF480700290D0
:1002A000002005900022DFF8E8346946032000F0C2
:1002B00093FE002001900022DFF8D804DFF8D84434
:1002C0000168DFF8B45441F0010101604FF480711E
:1002D000006800F0010001900198204601F00CF840
:1002E0000120039002A900200490204600F032FF74
:1002F0009DF80000012100F0BAFE00F013F8012281
:100300004FF48071204600F0F7FF9DF800005D215A
:1003100000F0ADFE00F006F89DF8000000F07FFE52
:1003200007B030BD0120287028780128FCD0704724
:1003300038B5DFF84C44251D68610020A9612A7793
:100340006B77E87772B6287840B9012028700620CC
:1003500000F07BFA62B6BDE83140C7E0012084F8C6
:10036000240062B631BD10B5DFF830440120606072
:10037000062000F079FA062000F061FA00F0B2F8E9
:10038000012803D1206840F00100206010BD002248
:1003900007E0DFF8EC030068006880680006F8D426
:1003A00001220221DFF8F00300F0A6BF80B5FFF7BD
:1003B000F0FF0D204FF00051401E0968FAD1BDE852
:1003C0000140E4E7F8B5DFF8B803DFF8D453066876
:1003D000DFF8D023F16CDFF8D0330F68DFF8CC13EF
:1003E000DFF8CC43AF4202D320275F600AE0A74288
:1003F00002D320271F6005E0974227BF20274F60C8
:1004000020270F60B66C36684FF00067AE4228BFF9
:100410005F6007D2A64228BF1F6003D296422CBF5E
:100420004F600F60017ADFF8544319B1022919D0E7
:1004300028D3F1BD2079E17851EA002002D020785C
:1004400002282AD000F04EF840B9FFF7A2FF06219B
:10045000012000F073FFBDE8F140A4E6FFF7A6FF1E
:1004600000201AE0FFF795FF0621012000F066FF4B
:10047000D048E066207C20730220A060BDE8F140F7
:1004800001F048B9A178627852EA012102D02278BD
:10049000022A05D0FFF78AFF0120BDE8F240D9E02B
:1004A00000F1210295781378012D1C460FD090F8A9
:1004B000200054FA80F4A14205DA081A191A1170C2
:1004C0000121917000E018465070002007E0A14221
:1004D000B2BF581A19460020107051700120BDE8B3
:1004E000F2406AE00121AC4800F000BF10B50620E0
:1004F00000F0ABF9A14CB048E066FFF748FF207C64
:1005000020730620A06001F005F9BDE81040062127
:10051000002000F013BF10B59948A14C0168A24A11
:10052000896C0968A1424FF0006306D2A04CA14239
:1005300005D29C4C9D4AA14201D3536000E0136058
:10054000027D00F1210112B1012A06D010BD4878C8
:1005500090B1BDE8104001202FE08A78012A0BD12C
:100560000A784AB1C26949788918C161FFF71EFF4C
:10057000BDE8104001206DE0BDE8104010B5062137
:10058000002000F0DBFE7E4C00202071FFF701FF11
:100590002068816C09680A68520852000A60C06CC1
:1005A00000680168490849000160607C002804BFB8
:1005B000BDE81040FFF7D7BE10BD38B5704D0446FA
:1005C0002868816C0A6813685B085B001360C06C64
:1005D000026813685B085B0013600068704B026878
:1005E00022F0100202604FF0006208686E499842E3
:1005F00006D26F4B984205D26A4B6C49984201D3A0
:100600004A6000E00A603B2000F02EF92868806C08
:1006100001680A6842F010020A6001680A6842F440
:1006200080620A6014B1012C08D010E00021297505
:10063000026895F820105160A96906E0012129752A
:10064000026895F822105160E9690268D16000F0F3
:1006500056F831BD70B54A4C2268916C0B681D6824
:100660006D086D001D60D36C1D682E6876087600DD
:100670002E6004251668367B6D1EFBD11A68136840
:1006800043F01003136009680A6822F010020A6040
:1006900018B102280AD003D326E00FF2281102E095
:1006A0000FF21811012000F030F81DE020723348DD
:1006B0000179C07840EA0120217C814238BF084698
:1006C000216860818A6C13681D6825F480651D604F
:1006D000C96C0B685860136858600968E068C860A6
:1006E00011680FF2E800C8602068C16C09680A68E8
:1006F00042F001020A60806C00F001F870BD0068F1
:10070000016841F001010160704710B51C4A107288
:100710001068826C13681C6844F480641C600523B4
:1007200014686360C06C046863600068134BC36046
:100730001068C16010BD124AD0600020117450745E
:1007400011E680B572B60E48017969B901210171CF
:1007500062B6FFF71CFE0020FFF77CFFBDE80440F7
:100760000021012000F0EABD62B601BD03488168A6
:10077000007B00F07CBC00005A09002064080020C7
:10078000D4080020440900209F01000800300140E7
:10079000950100083038024000000240103C014042
:1007A00059640240596002400864024008600240F7
:1007B000B9600240F1010008110200080A000000BF
:1007C000000000000B00000000000000FF0000001F
:1007D0000901002806D5274A00F00F00801800F80C
:1007E000041C7047244A8154704724490A684FF614
:1007F000FF031A4000F0070042EA0020204A10439D
:100800000860704738B51D4B1B68C3F30223C3F162
:100810000704052C28BF04241D1D072D34BF002309
:10082000DB1E012505FA04F4641E2140994005FAF7
:1008300003F35B1E1A401143BDE83440C8E70121B1
:1008400000F01F0291400F4A04E0012100F01F0256
:1008500091400D4A400942F820107047012100F0F4
:100860001F029140094AF5E7012100F01F02914063
:10087000074AEFE718ED00E000E400E00CED00E0CF
:100880000000FA0500E100E080E100E000E200E0A5
:1008900080E200E010B5B34C82B0A07801280ED100
:1008A00004F1100000F04DFF48B9A070694604F152
:1008B000100000F06FFF0098802100F087FF13BD4B
:1008C000A84901204870704738B5A64C04F11000C3
:1008D00000F034FF04F1180000F030FF00258C20F8
:1008E00010FB054000F1200100F063F86D1C052DA0
:1008F000F5DB0120A07031BDCCE770B5994C00F15B
:100900000803A3600021E3782BB9E38003E0042B04
:100910004ED10323E370E388802B49DAE3885D1C22
:10092000E580A568E6785B5D002EF0D0032E08BF59
:100930000623EFD0042E08BF0523EBD0052E08BFF9
:100940000723E7D0072E08BF0823E3D0082E04D1E1
:10095000B5F8032000210923DCE7062E01D11A4651
:10096000F8E7092ED7D1491C89B292B29142D2D36D
:100970000021E17000F108014A1C097804290CD11A
:1009800011780E2918BF0F2907D0014604F118006D
:1009900000F0EAFE00F01CFE02E0014600F009F85B
:1009A000E06828B1E188A068E268BDE870401047BF
:1009B00070BD04F1100000F0D7BE10B582B0002069
:1009C0000090684C0DE0694604F1180000F0E2FE6A
:1009D0000098083001F02FF80099FFF7EAFFFFF7C1
:1009E00059FF04F1180000F0ACFE0028EBD013BD55
:1009F00080B55C4A0123937011B1FFF77EFF04E0DC
:100A0000014602F1100000F0A5FEBDE8014041E7FB
:100A100000F0D8BE70B5890582B0890D41EA80200A
:100A2000ADF800000120504E307014461D468DF880
:100A3000024003226946701C01F0ADF823460422EF
:100A400029463046FFF7E4FF73BD4649012008718F
:100A500070472DE9F8430446424F60882188DFF84B
:100A60000C918005800D40EA8125414800680A21EB
:100A7000B0FBF1F6002038714FF00A0800F026FEB6
:100A80003C48F860E068A3686188C2B22088FFF73C
:100A9000C1FF2FE000F019FE787838B1387801F006
:100AA0009EF800F069F84FF0FF3057E038790028E1
:100AB000F0D0387801F093F8B8680246117804292C
:100AC00016D1C11CF8885278C01E0E2A26D00F2AD3
:100AD00004D0102AE5D03E2A2ED009E04A88ADB2D3
:100AE000AA4205D162680F2A13D008780028D8D10D
:100AF000002038715FEA0800A8F10108D1D006B9DA
:100B00000126002078703A464946304601F053F8F5
:100B1000C2E762699042C8BF10460AE0B1F80120FE
:100B2000ADB2AA42E4D16269C91CC01E9042C8BFDE
:100B30001046606102460BE00A7863689A42D7D19A
:100B40006269401E9042C8BF104660610246491C5F
:100B5000206901F020F800F00FF80020BDE8F283D2
:100B6000000000002804002048090020C1080008F7
:100B7000603300084B0A00080020F860012000F0F4
:100B8000A5BDF0B589B000F028F800F07BF800F0C2
:100B900084F8042000F07CF8012000F028F80920F7
:100BA00000F054F8002802D49DF8000010B14FF076
:100BB000FF3010E09DF801002070BDF80200288091
:100BC0009DF804003070BDF8050038800E99BDF81E
:100BD00007000880002009B0F0BD04460D46164607
:100BE0001F4670471822002101A800F0DABFADF8B7
:100BF0000E000021002005900690704730B58FB0A0
:100C000000F01DF88DF81C40202CA8BF1F2400F018
:100C100010F8FFF7E7FF00F02AF8092000F021F8AC
:100C200020200490012000F029F800F012F80FB005
:100C300030BD224629460DF11D0000F0ACBF044630
:100C40000D462022002107A800F0ABBF089003A8A2
:100C5000FFE6002802D49DF8000008B14FF0FF30F5
:100C60007047ADF80600002107A8039070470820E0
:100C7000ADF80400CDF814D070470320069001A809
:100C8000E7E6044609220021684600F08ABF0820F2
:100C9000ADF80C00CDF81CD070471822002103A835
:100CA00000F07FBF2DE9F041DFF80464DFF8048431
:100CB000044630781425082815FB048709D13078BC
:100CC00070703470082038744FF6FF70F080002088
:100CD00039E000F06AF8B96811FA80F1B960B968D2
:100CE000327815FB0282926891421AD3327802E080
:100CF00015FB0282127C15FB02831B7C082B04D09F
:100D000015FB03839B689942F2D215FB02810B7C91
:100D1000082B1CBF15FB0385EC733B74FA730C7432
:100D200011E031783378994215FB018206D0D37BEC
:100D300015FB03852C743974FB7300E03974D4738C
:100D4000317871703470BDE8F081F0B5D84BD94D71
:100D50001E781424B04214FB005204D11878587045
:100D6000107C18700BE0D07B167C177C14FB0050B5
:100D7000082E077403D0D07B14FB0654E0730120C7
:100D800010731878082802BF00294FF6FF70D8802A
:100D9000F0BDC749C96809684FF6FF7000E0886A6E
:100DA0008A6A9042FBD180B2704710B5C04CE0888F
:100DB0004FF6FF71884211D0FFF7EBFFE1888142C7
:100DC000E18828BF081A04D2228912FA81F1081A90
:100DD000401C21794843E178C84000E0002080B2FF
:100DE00010BD2DE9F843B24CE568286881684905D3
:100DF00002D5C1684907FCD48168DFF8B88221F4C4
:100E0000806181604FF01409277819FB078086689C
:100E1000FFF7CBFF864238BF002608D3618910FA5E
:100E200081F1B14202D26689002101E0361A012126
:100E3000A17001E08A600F7C082F08D019FB0781A0
:100E40008A68824232BF00228A68121AF2E7B6B27A
:100E50003EB9FFF79EFFE0800320BDE8F243FFF7B5
:100E6000FDBC022E02DAE078012800D0761E286848
:100E7000C1684907FBD500F0A6F88F490860032038
:100E8000FFF7F2FCE5682868B6B24661FFF781FF1C
:100E9000E0802868816841F480618160BDE8F18369
:100EA0002DE9F041EFF3108872B68148C1680968F6
:100EB0008A6822F480628A60CA6802F0800262F462
:100EC0009062CA604FF480017B4A11601422057859
:100ED000784912FB0516317B02291ED13768B47B95
:100EE0008078C0B1707B01280AD101212846FFF724
:100EF0002CFF88F310887168284600F0B8F804E0E9
:100F000088F31088284600F095F83A46294620468E
:100F100000F0D0FB03E0FFF764FF88F31088BDE822
:100F2000F08138B5624CE0600168896801F0070122
:100F3000C1F10401E17002681269120C02F07F0233
:100F4000521C2271D2B203681B695B045B0C2381C3
:100F50005B1E5A430A41A2F110014FF6FF72914203
:100F60002CBF628161810121A170E2800021514A80
:100F70000023142515FB0125491C08292B73F8DBD8
:100F80000821217000684D4D816821F480618160E5
:100F900000F019F868610320FFF766FCE06800685C
:100FA000816841F4804181600022A86840F480009B
:100FB000A8600321286840F4800028600320BDE871
:100FC0003840FFF71FBCC16801F0800161F49061F7
:100FD000C1604FF480007047F0B50024EFF3108536
:100FE00072B61426334F06FB047C9CF80CC0BCF18F
:100FF000000F02D0641C082CF5DB082C0BD006FB7C
:1010000004760127377385F31088B07372733360E9
:101010000C700020F0BD85F310880120F0BD10B5E4
:10102000044600F007F82349142212FB04110020A3
:10103000087310BD38B5054600F042F81D4814216C
:1010400011FB0500007B02280BD100212846FFF789
:101050007CFE17480178407888421CBF0829FFF7BA
:10106000C0FE0320FFF7EBFB84F3108831BDF8B519
:1010700006460F4600F024F80E48142111FB060521
:1010800002202873AF606F603046FFF70BFE0849FF
:101090000A784978914202D0FFF7A3FE02E0A968DE
:1010A000081AA8600320FFF7CAFB84F31088F1BD7B
:1010B0002C090020C4070020143C0140003C0140E2
:1010C000EFF3108472B60320FFF7BFBB38B50500FD
:1010D00001D1012032BD05F15004607818B92070AB
:1010E000284600F081FD022060702868016821F028
:1010F000400101606868A9680843E96808432969F4
:10110000084369690843A96901F400710843E96962
:101110000843296A0843A96A084329680860A8693E
:10112000696A000C00F00400084329684860A86A56
:10113000B0F5005F02D12968E86A08612868C169D2
:1011400021F40061C1610020606001206070002016
:1011500032BD00002DE9F84700226F4BDFF8BC815B
:10116000DFF8BC914FF00F0A012707FA02FC0F6865
:101170000CEA0707674540F0B3804C68022C18BFA3
:10118000122C10D1D40800EB840E02F00704DEF814
:101190002050A4000AFA04F6B5430E6906FA04F4D6
:1011A0002C43CEF820404FEA420E032405680E7906
:1011B00004FA0EF4E44306F00306254006FA0EF6A0
:1011C000354305604D68012D18BF022D03D0112D48
:1011D00018BF122D0FD18568CE68254006FA0EF68D
:1011E00035438560456825EA0C064D68C5F3001552
:1011F000954035434560D0F80CC004EA0C0C8C686F
:1012000004FA0EFE4EEA0C0CC0F80CC0D1F804C073
:101210005FEACC0C64D5002400944FEA920CD9F814
:10122000004044F48044C9F8004002F00305D9F8B6
:10123000004004F4804400944FEA850E009C58F866
:101240002C400AFA0EF5AC43364DA84208BF0025E3
:1012500013D0354DA84208BF01250ED0334DA8420A
:1012600008BF022509D0324DA84208BF032504D08B
:10127000304DA8420CBF0425052505FA0EFE4EEAA6
:10128000040448F82C406FEA070C1C680CEA040EB2
:101290004C68E40348BF47EA0E0EC3F800E05C6800
:1012A0000CEA040E4C68A40348BF47EA0E0EC3F8CC
:1012B00004E09C680CEA040E4C68E40248BF47EA6C
:1012C0000E0EC3F808E0D3F80CE00CEA0E0CD1F8CF
:1012D00004E05FEA8E2E48BF47EA0C0CC3F80CC04E
:1012E000521C102AFFF440AFBDE8F18700690840A6
:1012F00018BF0120C0B2704702B90904816170476C
:101300000D4A1368034200D1704780B5106000F0A9
:1013100065FA01BD00000000003C014008380140B2
:10132000443802400000024000040240000802402D
:10133000000C024000100240143C0140F0B5EFF3F5
:10134000108272B62B4BDF681D685E689C684FF098
:10135000010C0CFA00F0082908BF074314D05FEA1B
:10136000417E6FEA000C4CBF0CEA050505435FEABD
:10137000817E4CBF0CEA06060643C9070CEA070744
:101380004CBF0CEA040404439C605E601D60DF6097
:1013900082F31088F0BD38B5EFF3108472B61548AB
:1013A000C16819BB016821B10121002000F005FDD1
:1013B0001CE08168104D51B9C046C046286840F015
:1013C0000400286000F01BFDC046C0460EE02968FE
:1013D00041F0040129604068002819BF0121002064
:1013E0000121012000F0F5FC00F0E0FD84F31088FD
:1013F00031BD00001C090020007000400020704733
:1014000070B582B000F0D4FD00F0F8FD00F00AFDE8
:10141000B24C607808B900F019FE0121002000F0FC
:101420004FFEAF4DAF4E0120686400200090B06BBE
:1014300040F08050B063B06B00F080500090009896
:1014400000F0B6FC00F0B4FC306820F4F810306016
:10145000B06E40F40070B06601202860A24DA34831
:1014600028600020287701206877284600F08AFE4F
:101470000120A86047F6FF70E860284600F096FE5D
:101480002968CA20486253202968486203212846F7
:1014900000F0F6FEF06E8007FCD52846FFF741FD10
:1014A00000230122A11C0020FFF796FD0621022047
:1014B000FFF744FFFEF7B4FE00F003F800F08DF8EC
:1014C000FCE710B50FF25021844C8EB00CC90BA86C
:1014D0000FF24C210CC00CC909A80CC0FFF7F4F99D
:1014E000FEF7D9FEFFF708FA06A904A800F0CFFE20
:1014F000FEF7D1FE9DF810003128A4BF0120207016
:101500006078002807BF06220BA9062209A907A8B0
:1015100000F041FB07AA0621002000F0E3FE00F0E6
:1015200041FF61782078012909D1012803D100F019
:1015300032F8012008E000F028F801200AE0012834
:1015400005D100F028F8042001F0B3F804E000F021
:101550001CF8032001F0DDF8012003900723644804
:101560000290002200200190002110200090012014
:1015700001F072F96078012808BF00F03BF90421FE
:10158000012000F0DAFE0EB010BD0DF1120305AA25
:101590000DF1160170470DF1120001900DF11603C7
:1015A00005A8009007220021704772B651494A6889
:1015B000012303FA00F0104307E072B64D494A6870
:1015C000012303FA00F022EA0000486062B6704787
:1015D0000020EAE700BF0120E7E710B5454C20797D
:1015E000800706D5207820B90120FFF7E6FF00F03C
:1015F00016F82079C00705D5207818B9FFF7DDFF68
:10160000FFF7DBF972B6606828B18008800004BF7C
:101610002078012801D1FFF7BEFE62B610BD70B57B
:10162000354D2E4C86B0287858B1A078FFF702FDD2
:1016300000F026F90020287043F60161A078FFF73A
:1016400016FD6078F0B92D4E2D4C30682D4D20B12F
:10165000287810B900F055F905E0306818B1207805
:1016600008B900F061F9306800281CBF287800280C
:1016700008D0207830B12448007818B900F015FD62
:1016800000F09AF9214C2078012811D168460FF218
:101690009801142201F09CF91421684600F074F9B5
:1016A00000201B492070087006210220FFF746FE2B
:1016B00006B070BD20B1022818BF032803D000E097
:1016C00089E7100000D01047704786E7411E894126
:1016D0000848C90F01707047000000002400002076
:1016E0003C0E474208380240FC0800200028004019
:1016F00040E201003C09002000000020140000200E
:1017000005000020040000200100002054090020F2
:1017100059090020FFF72AB8BB0000E18002000051
:10172000AA0000E180020000303132333435363710
:1017300038394142434445464748494A0060406081
:101740007047EFF3108172B6026882420CBF01202D
:1017500000201CE0EFF3108272B603680B60486053
:1017600001600868416029E0EFF3108272B60860FA
:1017700043684B604160486801601FE0EFF31081EF
:1017800072B6436802681A6042680068426081F37A
:101790001088704738B50C46EFF3108572B60168B3
:1017A00021600068FFE7FFF7E9FF2168002008607B
:1017B0002168486085F3108831BD086082F3108885
:1017C00070470000DBB2D2B2FEF7B2BD024A106031
:1017D0000830FEF7B0BF000044090020012808BF10
:1017E000FEF7AFBFB0F5005F03D108210220FFF77D
:1017F000A5BD704710B592B00EA80FF23031C64C9F
:1018000000F08FF80AA80FF2343100F08AF806A829
:101810000FF2383100F085F804F10C000090072336
:1018200001220EA9022000F0D8FD30BB04F10E0009
:1018300005901423012004900AAA1020039002218D
:1018400000200290019010200090A08900F0FAFD85
:1018500098B904F11000059014230120049006AA01
:1018600010200390022101200290002001900C2002
:101870000090A08900F0E6FD00B1472012B010BD35
:1018800000B5A6488BB00078002807A81CD10FF23D
:10189000CC210CC90CC0002000F0FCFB08200690F5
:1018A00005904FF480414FF41670049007AB002070
:1018B000039000224FF4C870029001900020009025
:1018C000084601F01EF81AE00FF2982100F029F8FE
:1018D00000210020FFF792F9002006900590049067
:1018E0000390002307A8029000220D200190002100
:1018F0000020009000F039FF012000F006F90BB045
:1019000000BD10B5844C86B0A07840B901A80FF294
:10191000642100F006F800F017F80120A07006B06E
:1019200010BD102201F054B810B57B4C86B0E078A1
:1019300040B901A80FF24C21FFF7F3FF00F004F8C3
:101940000120E07006B010BD01A800900223E088DD
:101950004FF6FF72012100F000BE38B5704D2878B7
:101960000C4628B908210220FFF7E8FC012004E01A
:1019700006210220FFF7E2FC00202870002000E092
:10198000401CA042FCDB31BD80B5644A127803469E
:10199000012A614807D1009300220B46C189808942
:1019A00000F0A6FD01BD0A464189C088BDE800508F
:1019B000491C89B200F056BE10B50FF2D810564C33
:1019C00082B00088ADF800006B462089811CE08859
:1019D000022289B200F00FFE0120607013BD10B525
:1019E0004D4B1C8A641CA04203D1BDE81040104638
:1019F000B3E7D989891C884202BF10780128587042
:101A000010BD454801224261C18070474248002113
:101A1000416101210170002141708170C17001712B
:101A2000417170473C4B1B895B1C984204BF1046B8
:101A3000FFF793BF704738B50446012000F065F802
:101A40002078651C04285FD12878052804D03E281A
:101A500005D0FF280ED031BDBDE83140D6E7A81C27
:101A60000178012950D1401CBDE83440B0F8011084
:101A7000401DC6E7A91C29480B880278264840F675
:101A800001441B1B06D00E3B14D05B1E2ED09B1EA8
:101A90001AD031BD23480078012803D1881C831C4B
:101AA000C21D02E0881C831C421D99781888BDE87D
:101AB000384094E7BDE83840881C421D8178B0F872
:101AC0000300891EC9B2ADE7F2B98278891C2AB138
:101AD00002791AB9B1F80310018131BDC2789AB107
:101AE00042798AB9B1F80310418131BD62B9817878
:101AF00021B1017911B90121017131BDC17819B14B
:101B0000417909B90121417131BD074908700128A6
:101B100008BFFFF75FBD70470000002025000020D0
:101B2000590900202400002058090020669A0C2042
:101B30000008969EE2119EB1E0F273D9669A0C20DD
:101B40000008969EE2119EB1E1F273D9669A0C20CC
:101B50000008969EE2119EB1E2F273D9AA0000E15C
:101B60008002000009426C75654E52475F43686110
:101B700074000000669A0C200008969EE2119EB147
:101B8000E1F273D9669A0C200008969EE2119EB18C
:101B9000E2F273D9010010B5044600F009FF2046B7
:101BA00010BD10B5044610460A460146204600F016
:101BB0003BFF204610BD38B5044615460B460022B3
:101BC00029460220FFF708FA4FF47A7060433F215C
:101BD000B0FBF1F12878FFF74AFA002032BD80B55A
:101BE000FFF71DFA002002BD2DE9F043044687B03F
:101BF00020685249884240F09E800020009001A950
:101C00004F4D504E286840F002002860286800F0D0
:101C100002000090009800F0B4F800F0B2F8002044
:101C20000090686940F480506861686900F48050F1
:101C3000009000980820019002200290002003905C
:101C400003200490052005903F48FFF783FA4020C9
:101C500000F08AF8802000F087F80220019001A9A6
:101C600001200290002000F077F801220221304686
:101C7000FFF742FB0120019001A9344802900220A5
:101C800000F06AF8002000902868DFF8C49040F463
:101C9000800028604FF0C06628682E4D00F4800058
:101CA00000904FF4806700986E604020A8604FF469
:101CB00000380020E8606861A861E8612F6109F1DF
:101CC00048002860C5F82080284600F0E1FE206822
:101CD00029680C308860A5640020A866E8666867FB
:101CE000A867E867AC636E662F67C5F88080C5F8A3
:101CF000609005F1600000F0CBFE2068296E0C308A
:101D00008860002205F16000E064C5F89840012178
:101D10003B20FEF777FD3B20FEF791FD00220121DD
:101D20003820FEF76FFD3820FEF789FD00220221E2
:101D30000620FEF767FD07B0BDE8F08300300140E4
:101D40003038024000000240000402400000111040
:101D50001064024004070020039003200490002038
:101D600005903046FFF7F6B9019001A902200290D4
:101D70000020039003200490052005903046FFF7D3
:101D8000E9B900200090286840F001002860286828
:101D900000F001000090009800200090286840F0BA
:101DA00001002860286800F001000090009870474A
:101DB0001949FFE70120086070471948026822F0BE
:101DC0000402026001290FBF30BF40BF20BF20BF07
:101DD0007047124A13689B0840EA8300106001298B
:101DE0000F48026842F0040202600FBF30BF40BFDC
:101DF00020BF20BF016821F004010160704707483F
:101E0000016841F0020101600548016841F00401E8
:101E1000016030BF7047000020000E42007000409B
:101E200010ED00E010B586B000F0C6FE574C206AF9
:101E300040084000206201A9206A20F002002062D0
:101E4000206A20F004002062206A20F0080020624E
:101E5000206A20F010002062206A20F080002062BA
:101E600000200090206840F001002060206800F011
:101E7000010000F060F840F002002060206800F0EF
:101E8000020000F058F840F004002060206800F0E4
:101E9000040000F050F840F008002060206800F0D6
:101EA000080000F048F840F010002060206800F0C2
:101EB000100000F040F840F080002060206800F042
:101EC00080000090009803200290002003904FF6BD
:101ED000FF7001902E48FFF73DF901A92D48FFF74B
:101EE00039F901A92C48FFF735F901A92B48FFF76B
:101EF00031F901A92A48FFF72DF901A92948FFF76F
:101F000029F92068400840002060206820F0020085
:101F10002060206820F004002060206820F0080085
:101F20002060206820F010002060206820F08000F1
:101F3000206006B010BD009000980020009020683E
:101F4000704700B591B00820059000200B9001204B
:101F50000A9005A800F038FE00B1FEE702200090CC
:101F60004FF400700390684601F030F800B1FEE7CE
:101F70000D490120086000220F210320FEF742FCDA
:101F80000320FEF75CFC11B000BD000030380240B9
:101F90000004024000080240000C02400010024011
:101FA000001C0240000002403C0E47427047000007
:101FB00080B51048016841F400710160016841F486
:101FC00080610160016841F4807101600320FEF7C7
:101FD0000CFC0F20FFF712FA00F002F8002002BDFF
:101FE000704705480168491C016070470248006855
:101FF00070470000003C02404C09002000B593B03F
:10200000002000901048016841F080510160006894
:1020100000F08050009000980220069010200A9056
:10202000012009900C9006A800F0CEFD0F20019031
:1020300000210020029003900490059001A800F078
:10204000E8FE13B000BD00BF4038024070B586B056
:10205000044600200090DFF8FC60DFF8FC0000F090
:102060006EF80FF2001030F8145001950120029024
:10207000002003900220049056F82400FFF76AF82D
:1020800000F002F806B070BD56F824000022294680
:10209000FFF732B90FF2CC01DFF8B83031F8101089
:1020A00053F820000122FFF727B90FF2B801DFF83B
:1020B000A43031F8101053F820000022FFF71CB9AB
:1020C000F0B587B00546002000900E46DFF8880086
:1020D000DFF8884001680FF2900741F004010160C9
:1020E000006800F00400009000984EB900F021F85C
:1020F000029002200390049054F82500FFF72AF87C
:10210000012E14D100F015F80390DFF8540002906E
:1021100054F82500FFF71EF80FF250002C5C002247
:102120000F2160B2FEF76EFB60B2FEF788FB07B0CE
:10213000F0BD37F81500019001A900207047016833
:1021400041F00101016001A9006800F00100009068
:102150000098704718000020303802401C00002012
:1021600000002110200000000020000028000000D6
:102170008A60FF21026851620121417700210177C5
:1021800000207047017F012901D102207047012101
:10219000017702214177CA21026851625321026806
:1021A000516201688A6842F02002E1E738B5040014
:1021B0000ED0607F18B920772046FFF7C2FE00F0EE
:1021C00034F8FF250028206804D045620420607799
:1021D000012032BD8168DFF86820114081602068ED
:1021E0008168626823691A4363691A4311438160F5
:1021F0002168E068086120680169A26841EA02413B
:1022000001612068C16821F08001C1602068016C13
:1022100021F4802101642068016CA26911430164EA
:102220002068456200F00EF832BD02206077CA20B7
:1022300021684862532021684862204606E0000079
:10224000BFFF8FFF012060770020704738B504463C
:102250002068C168490611D44FF0FF31C160FFF713
:10226000C5FE05462068C068400607D4FFF7BEFEDD
:10227000401BB0F57A7FF5D9032032BD002032BD76
:1022800000688268D20841EAC2018160704770B577
:1022900084B0064601A800900C460DF10A0302AA7C
:1022A0000DF106010DF10900FEF76BFCC5B2A5B9F1
:1022B000BDF80600000A3070BDF80600000220805C
:1022C000BDF804100906090F40EA01102080BDF88E
:1022D000041001F00F0108432080FEF76EFB284632
:1022E00004B070BD10B50C461146A21CA8B0812ADE
:1022F000A8BF42201FDA8DF81C008DF81D40224631
:102300000DF11E00FFF747FC00F03BF800F033F83A
:102310000C20ADF80600002107A80390A01CC0B255
:1023200004900120069001A8FEF793FB00284CBF03
:10233000FF209DF8000028B010BD00B589B08DF8D1
:1023400004008DF805101822002102A8FFF729FCCF
:1023500000F022F80F2000F019F80220059001206B
:10236000079002A8FEF775FB00284CBFFF209DF8E0
:10237000000009B000BD3F20ADF80400CDF814D036
:1023800070471822002101A8FFF70BBCADF80A0026
:10239000002101A8049070473F20ADF80800CDF857
:1023A00018D0704700B587B000F013F900F002F9BB
:1023B00040F20110ADF80600002100F009F80028F5
:1023C0004CBFFF209DF8000007B000BDC0B20490D4
:1023D0000120069001A8FEF73CBB70B58CB0012827
:1023E0008DF81C0014460CBF022610261D463246EE
:1023F0000DF11D00FFF7CFFB701C07A9C0B203222F
:102400004454441CE4B2684665540021FFF7C9FBFC
:1024100000F0DFF800F0CEF84FF4817000F062F8C1
:10242000601CC0B204900320FFF7D3FF002848BF10
:10243000FF2005D49DF8000010B9109900F049F86C
:102440000CB070BDF1B58EB00D4616461F46022287
:102450000EA900F0CDF807AC012DA57031460CBFD8
:10246000022510252A4600F074F8E81CC0B2411C71
:102470000755C9B214980855491C1598C9B20322CA
:102480000855491C1698C9B20855491C1798C9B275
:102490004D1C0855EDB21898285500F01FF800F0B3
:1024A00098F800F087F84FF4827000F01BF8681C71
:1024B000C0B204900320FFF78CFF002848BFFF2024
:1024C00005D49DF8000010B9199900F002F80FB07A
:1024D000F0BDBDF80100088000207047002168466B
:1024E000FFF75FBBADF80600002107A80390704717
:1024F00033B51C46A01DA7B081281546A8BF4220B1
:102500001FDA022227A900F073F8022228A900F09E
:1025100096F82C998DF820508DF82140224600F035
:1025200012F800F056F800F045F84FF48370FFF70A
:10253000D9FFA01DFFF74AFF00284CBFFF209DF8E0
:10254000000029B030BD0DF12200FFF724BB224668
:1025500019460DF11F00FFF71EBB17B58DB01C46C5
:1025600002220DA900F044F802220EA900F067F83B
:1025700002220FA908A8FFF70EFB8DF82240012CBC
:102580000CBF022410241299224600F08EF800F0AD
:1025900020F800F00FF84FF48B7000F011F80F20C6
:1025A0000290FFF715FF00284CBFFF209DF80000A8
:1025B00010B010BD3F20ADF80400CDF814D0704726
:1025C000ADF80600002107A80390E01DC0B20490FA
:1025D00070471822002101A8FFF7E3BA8DF82040C8
:1025E000224629460DF12100FFF7D5BA022228A97B
:1025F00007A8FFF7D0BA33B51446601DA7B08128ED
:102600001D46A8BF422016DA022227A9FFF7F0FFD5
:10261000022228A900F013F8FFF7E0FFFFF7D9FF27
:10262000FFF7C8FF40F2211000F00DF800284CBF62
:10263000FF209DF8000029B030BD022229A90DF12C
:102640001E00FFF7A8BAADF80600002107A8039006
:10265000601DC0B204900F2002900120069001A8D6
:10266000FEF7F7B910B58EB0152A144628BF4220E0
:1026700018D2ADF81C00ADF81E108DF82040194698
:10268000FFF7B0FFFFF7A5FFFFF794FF40F223101D
:10269000FFF728FF601DFFF79AFE00284CBFFF20C0
:1026A0009DF800000EB010BD10990DF12300FFF74A
:1026B00072BA10B58AB08DF800008DF801108DF84F
:1026C00002201C46072200F008F900F0C0F800F0D4
:1026D00012F98A20ADF80E0000210320069001A80F
:1026E0000790072000F0AFF8002848BFFF200ED465
:1026F0009DF8040058B9BDF8050020800C99BDF87C
:10270000070008800D99BDF80900088000200AB074
:1027100010BD70B58AB00C468DF8080015461E46EF
:10272000072200F0CFF800F092F800F0DAF88A20E3
:10273000ADF80E00002102A80590012006900720A8
:1027400000F081F8002848BFFF200CD49DF800005D
:1027500048B9BDF801002080BDF803002880BDF80D
:102760000500308000200AB070BD76B592B000F050
:102770004FF828BF42201BD200F052F800F02AF890
:102780009DF8600000F02CF800F035F800F01AF821
:1027900000F010F800F0A0F800F098F8832000F0A6
:1027A00047F800F0FFF800284CBFFF209DF800001C
:1027B00014B070BDA41CE4B207A802221EA9201800
:1027C000FFF7E9B96419E4B207A802221DA920188D
:1027D000FFF7E1B9022213A90DF11F00FFF7DBB9E2
:1027E0001A998DF822008DF821608DF823502A4621
:1027F00009A8FFF7D0B905F10800C0B207A9451C28
:102800004454EDB21C9907A822462818FFF7C3B913
:10281000199D1B9C54FA85F10E3129291E467047DB
:102820008DF81C00022212A90DF11D00FFF7B3B9AB
:10283000ADF80600002107A80390A01CC0B20490C8
:10284000704706900120089003A8FEF702B91822ED
:10285000002103A8FFF7A5B930B58FB08DF81C0093
:102860008DF81D1014461D461022214600F03FF839
:10287000129814998DF82F008DF82E501822139865
:102880008DF830000DF131000160002115988DF8B0
:10289000350001A8FFF785F900F018F8862000F050
:1028A0000BF81A20049000F07DF800284CBFFF20A0
:1028B0009DF800000FB030BDADF80600002107A85C
:1028C0000390704700216846FFF76BB93F20ADF8D1
:1028D0000400CDF814D070471822002101A8FFF79A
:1028E00060B93F20ADF80C00CDF81CD070470DF159
:1028F0001E00FFF750B93F20ADF80C00CDF814D002
:10290000704700B58DB000F016F800F026F8BDF85D
:102910004000ADF81200BDF8440000F027F800F0C8
:1029200016F89C2000F030F800284CBFFF209DF8DE
:1029300000000DB000BDADF80400ADF806108DF834
:102940000820194606220DF10900FFF724B93F209F
:10295000ADF81C00CDF82CD070470E988DF80F0004
:1029600018220F98ADF8100000217047ADF8140040
:102970001298ADF816001398ADF818001498ADF839
:102980001A0007A8FFF70DB9ADF81E00002101A835
:10299000099018200A900F20089001200C9007A899
:1029A000FEF757B80120069001A8FEF752B80000C4
:1029B00062B38B0708D0521E11F8013B00F8013BAF
:1029C00000F024808B07F6D1830740F0208000BF01
:1029D000103A07D330B4B1E83810103AA0E83810F4
:1029E000F9D230BC530724BFB1E80810A0E80810A2
:1029F00044BF51F8043B40F8043BD20724BF31F8F0
:102A0000022B20F8022B44BF0B7803707047083A62
:102A100007D3B1E80810083A40F8043B40F804CB6B
:102A2000F7D25307E4E7000062F30F2262F31F427C
:102A3000401810F0030308D0C91A1FD3DB0748BFA2
:102A400000F8012D28BF20F8022D130030B41446E1
:102A50001546103928BF20E93C00FAD8490728BF9D
:102A600020E90C0048BF40F8042D890028BF20F859
:102A7000022D48BF00F8012D30BC7047C91818BF9F
:102A800000F8012DCB0728BF00F8012D704700008A
:102A900070B50446FFF7AAFA06460CB9012070BDCE
:102AA00004F13405002028700220687000F063F8FB
:102AB00020680168C90708D5FFF798FA801B062827
:102AC000F6D320202862032053E00168DFF8B42009
:102AD000114062681143A2681143E2681143226900
:102AE000114362691143A2691143E2691143226AE9
:102AF0001143626A042A03D1E26A236B1A43114329
:102B0000016020684169626AC908042A42EAC10179
:102B100008D1A26AA369114393B9002A18BF022AF7
:102B200021D017D34161204600F02EF8AA6A3F2138
:102B3000914081600020286201206870002070BDF3
:102B4000B3F5005F0BD1032AECD8DFE802F00F0CDD
:102B50000F03E7E7E26AB2F1C07FE3D106E0022AA1
:102B600004D9D21EDED1E26AD201DBD54020286230
:102B70000120687070BD2068016849084900016043
:102B8000704700003F8010F00168CAB2103A182365
:102B9000B2FBF3F20FF21803D35CC365890A890212
:102BA000042A28BF091D81650846704700000000FF
:102BB00000061016000610160249FFE70120086003
:102BC0007047000024000E422DE9F8430446DFF868
:102BD000C4532078C0072FD5A86800F00C00042843
:102BE00007D0A86800F00C00082809D168684002E6
:102BF00006D5286880031FD56068E8B9012002E186
:102C00006068A870606858B1FFF7F0F90746286857
:102C1000800311D4FFF7EAF9C01B6528F7D3EFE072
:102C2000FFF7E4F907462868800305D5FFF7DEF9CA
:102C3000C01B6528F7D3E3E02078DFF85C638007EA
:102C400018D5A86810F00C0F07D0A86800F00C0089
:102C5000082827D16868400224D42868800702D554
:102C6000E0680128CAD12868216920F0F80040EA0C
:102C7000C10028602078DFF8248300073DD5616912
:102C8000DFF81C0359B301210160FFF7AFF90746D4
:102C9000D8F80400800730D4FFF7A8F9C01B032838
:102CA000F6D3ADE0E06868B101203060FFF79EF92F
:102CB000074628688007D6D4FFF798F9C01B032879
:102CC000F7D39DE03060FFF791F907462868800749
:102CD000D0D5FFF78BF9C01B0328F7D390E0016034
:102CE000FFF784F90746D8F80400800705D5FFF7F9
:102CF0007DF9C01B0328F6D382E02078400740D539
:102D000000200090DFF89C92286C40F080502864EE
:102D1000286C00F0805000900098D9F8000040F432
:102D20008070C9F80000FFF761F90746D9F8000084
:102D3000C00505D4FFF75AF9C01B0328F6D35FE09E
:102D4000A06888F8000041F28939A06860B1FFF7F7
:102D50004DF90746D8F80000800712D4FFF746F96E
:102D6000C01B4845F6D34BE0FFF740F90746D8F8BB
:102D70000000800705D5FFF739F9C01B4845F6D399
:102D80003EE0A06900283DD0A96801F00C010829A7
:102D90003FF434AF022828D100F037F807462868FE
:102DA000800105D5FFF722F9C01B0328F7D327E0E0
:102DB000E069216A0843616A40EA8110A16A891EBC
:102DC000C903090C40EA0140E16A40EA0160686019
:102DD000012000F01BF807462868800112D4FFF795
:102DE00005F9C01B0328F7D30AE000F00EF80746E8
:102DF0002868800106D5FFF7F9F8C01B0328F7D330
:102E0000032000E00020BDE8F28300203066FFF7D9
:102E1000EDB82DE9F843644E04463068884600F06A
:102E20000F00404502D200F08AF862D12078594F55
:102E3000800705D5B868A16820F0F0000843B860A5
:102E40002078C0074DD56068012802D13968890310
:102E500005E0022818BF032803D13968890103D48B
:102E600047E03968890744D5B968890840EA810094
:102E7000B86041F28939FFF7B9F805466068012862
:102E80000AD1B86800F00C0004282AD0FFF7AEF889
:102E9000401B4845F5D322E002280AD1B86800F06B
:102EA0000C0008281DD0FFF7A1F8401B4845F5D3BA
:102EB00015E003280AD1B86800F00C000C2810D0E7
:102EC000FFF794F8401B4845F5D308E0B86810F0C8
:102ED0000C0F06D0FFF78AF8401B4845F6D30320B5
:102EE0002BE0306800F00F00804504D200F027F896
:102EF00001D0012021E02078400705D5B868E168BD
:102F000020F4E0500843B8602078000706D5B86880
:102F1000216920F4604040EAC100B86000F016F872
:102F2000BA680FF29801C2F30312515CC8401F49FE
:102F300008600F20FEF762FA0020BDE8F28386F8F1
:102F40000080306800F00F00404570471848416825
:102F500001F00C01042902D0082902D017E015481D
:102F6000704701680268520201F03F014CBF114AEC
:102F7000114AB2FBF1F102680068C0F30140C2F3EC
:102F80008812401C51434000B1FBF0F070470A48E2
:102F9000704700000038024000004742703802408D
:102FA000800E474200700040003C0240200000209C
:102FB0000438024040787D010024F4000000000045
:102FC000010203040102030406070809F8B50446D8
:102FD000444D2078C00723D5444E00203060FFF7D1
:102FE00005F807462868000105D5FEF7FFFFC01B5E
:102FF0000328F7D355E0A1686068090741EA80100B
:103000003949086001203060FEF7F0FF0746286864
:10301000000105D4FEF7EAFFC01B0328F7D340E008
:103020002078800756D500200090314E286C40F063
:1030300080502864286C00F0805000900098306820
:1030400040F480703060FEF7D1FF07463068C0055D
:1030500005D4FEF7CBFFC01B0328F7D321E0286F70
:1030600010F440701EBFE16801F4407188421AD02C
:10307000286F204901220A6020F4407000220A6073
:103080002867286FC0070ED5FEF7B0FF0746286FE8
:10309000800708D4FEF7AAFFC01B41F2893188429D
:1030A000F5D30320F2BDE06800F44071B1F5407F34
:1030B00006D1A968104A21F4F8111040084302E033
:1030C000A86820F4F810A860286FE168090550EAA4
:1030D000115028672078000702D5207C0749086036
:1030E0000020F2BD003802408438024068004742A8
:1030F00000700040400E4742FFFCFF0FE0114742C6
:103100007047FEE770477047704780B5FEF769FF6C
:1031100026480168491C016001BDFDF7C1BE0120C0
:10312000FEF7EEB880B5224901200860FEF7EDFCFD
:10313000BDE802404FF40050FEF7E2B81D48C06CF5
:1031400000680168C90614D51B4A1C49904228BF73
:10315000486809D21A4A904205D21A4A1A4990423E
:1031600028BF486800D2086810F0200018BFFDF79B
:1031700029B970470F48806C00680168C90614D5EA
:103180000D4A0E49904228BF486809D20C4A904225
:1031900005D20C4A0C49904228BF486800D2086802
:1031A00010F0006018BFFDF7B6B970475009002055
:1031B000540900207808002059640240006402404D
:1031C000B960024059600240006002400E480F4A58
:1031D000016841F4700101600D48016841F001018E
:1031E000016000218160016811400160094941606E
:1031F000016821F4802101600021C1604FF000606E
:10320000054908607047000088ED00E0FFFFF6FE0A
:10321000003802401030002408ED00E019E050F8BA
:10322000041BCB0744BFA9F101035918121F002347
:10323000042A41F8043BF9D25FEA827C0B4604D5AC
:103240004FF0000CA1F800C09B1CD10744BF002127
:10325000197050F8042B002AE1D1704730B501688D
:1032600042688468091801EB5203D20748BF4C44F6
:103270000C30994200D130BD11F9012B11F8015BDE
:10328000002A04F8015B02D5521CF9D1F1E7521E65
:10329000F4D5EEE710B5074979441831064C7C4463
:1032A000163404E00A68081D511888470146A142F7
:1032B000F8D110BD2C000000480000004EF68851E7
:1032C000CEF20001086840F470000860BFF34F8F31
:1032D000BFF36F8F4FF00070E1EE100A70470000EF
:1032E0003DFFFFFF3405000028040020000000001F
:1032F0006DFFFFFF480100002400000000000020D7
:1033000000F00BF8002801D0FFF7C4FF0020C046F2
:10331000C046FEF775F800F002F80120704700F093
:1033200001B800000746384600F002F8FBE700004D
:1033300080B5C046C046024A11001820ABBEFBE76C
:10334000260002000148804701480047CD310008AF
:1033500055330008C046C046FFF7B0FFFFF7D0FF67
:10336000E8030000FFF7FEBFFFF7FEBFFFF7FEBF59
:10337000FFF7FEBFFFF7FEBFFFF7FEBFFFF7FEBF81
:10338000FFF7FEBFFFF7FEBFFFF7FEBFFFF7FEBF71
:10339000FFF7FEBFFFF7FEBFFFF7FEBFFFF7FEBF61
:1033A000FFF7FEBFFFF7FEBFFFF7FEBFFFF7FEBF51
:1033B000FFF7FEBFFFF7FEBFFFF7FEBFFFF7FEBF41
:1033C000FFF7FEBFFFF7FEBFFFF7FEBFFFF7FEBF31
:1033D000FFF7FEBFFFF7FEBFFFF7FEBFFFF7FEBF21
:1033E000FFF7FEBFFFF7FEBFFFF7FEBFFFF7FEBF11
:1033F000FFF7FEBFFFF7FEBFFFF7FEBFFFF7FEBF01
:10340000FFF7FEBFFFF7FEBFFFF7FEBFFFF7FEBFF0
:10341000FFF7FEBFFFF7FEBFFFF7FEBFFFF7FEBFE0
:10342000FFF7FEBFFFF7FEBFFFF7FEBFFFF7FEBFD0
:10343000FFF7FEBFFFF7FEBFFFF7FEBF0001E7008B
:0E3440000C0240000802400024F400000100CD
:00000001FF
