:020000040800F2
:10000000B80400200D270008E9250008EB250008AA
:100010002D270008312700083527000800000000C0
:10002000000000000000000000000000ED250008B6
:10003000EF25000800000000F1250008F325000866
:10004000392700083D2700084127000845270008F8
:10005000492700084D2700080326000851270008FB
:1000600055270008592700085D2700086127000868
:1000700065270008692700086D2700087127000818
:1000800075270008792700087D2700080000000078
:1000900000000000000000000000000081270008B0
:1000A00085270008892700088D2700089127000868
:1000B00095270008992700089D270008A127000818
:1000C000A5270008A9270008AD270008B1270008C8
:1000D000B5270008B9270008BD2700080000000068
:1000E00009260008C1270008C527000800000000F5
:1000F000000000000000000000000000C927000808
:1001000000000000CD270008D1270008D5270008EF
:1001100000000000000000000000000000000000DF
:10012000D9270008DD270008E1270008E527000897
:10013000E9270008000000000000000000000000A7
:10014000000000000000000000000000ED27000893
:10015000F1270008F5270008F9270008FD27000807
:100160000128000805280008000000000000000029
:10017000000000000000000000000000000000007F
:100180000000000009280008000000000000000036
:100190000D28000830B58BB01B208DF8180006AC78
:1001A00000F090F9B420A0719A2000F06FF83A2086
:1001B00000F066F86E2060733620A0730220E073B2
:1001C0000723DFF86854281D0090012206A90220A9
:1001D00000F077FA00284AD11B208DF8180001237F
:1001E000C520607006AA00F07FF9FC20A0718F2066
:1001F00000F04CF84A20A072CF20E072A0202073BB
:10020000782060733E20A073E220E073A81D00F008
:1002100031F800200290019010200090A88800F092
:1002200085FA20BB1B208DF818000623C5206070BE
:1002300006AA00F059F93620A071AC2000F026F88B
:100240004B2000F01DF81B2060730A20A07334209F
:10025000E07305F1080000F00DF804200290002082
:10026000019012200090A88800F060FA00B14720A9
:100270000BB030BD05900020049010200390704713
:10028000A072CF20E072802020737047E071E120DF
:100290002072112060727047E0B501688DF804107B
:1002A0000623016809128DF80510002241688DF8B7
:1002B0000610416809128DF8071081688DF8081042
:1002C00001A98068009100128DF80900D7480189C2
:1002D000808822E1F0B591B01B208DF830000CAC85
:1002E00000F0F0F8D020A071822000F0B9F8402092
:1002F00020731A2060738220A0734220E0730A23C7
:10030000CA4D05F10A00009001220CA9022000F05C
:10031000D8F9002825D100F0E0F8E320A071A92049
:1003200000F09EF820202073552060732E20A073CB
:10033000A320E07305F10C0000F0B6F8002810D1FE
:100340000E208DF828004FF0FF3642F22F70ADF8E6
:100350002A0042F6041700F08DF8A98900F073F81E
:1003600000286DD11B208DF83000032300F0B9F870
:100370000B20A071842000F06DF88B20A072E42087
:10038000E07280202073C42060732020A073CD20F1
:10039000E07305F10E0000F087F8002850D10F201F
:1003A0008DF828006FF004008DF829004FF41E50DE
:1003B000ADF82A0000208DF82C00ADF82D000DF1CD
:1003C000260008900020079010200690002005903D
:1003D00001200490002003900AA8029007200190B9
:1003E0000090ADF82470E989688909AB012200F01A
:1003F000EDF9002824D100F070F87320A071A0203E
:1004000000F028F88C20A072E420E07260202073B5
:100410000B206073C520A0730120E07305F110006C
:1004200000F042F860B906208DF828004FF41C5007
:10043000ADF82A0000F01EF8298A00F004F800B197
:10044000472011B0F0BD6889ADF8247009AB0122D6
:1004500000F0BCB9E071E220207211206072704798
:10046000E071E2202072112060727720A072E420F7
:10047000E072704700208DF82C00ADF82D000DF1D2
:10048000260008900020079010200690002005907C
:1004900001200490002003900AA8029007200190F8
:1004A00000908DF82960704705900020049010207E
:1004B000039004200290002001900220009068899F
:1004C00000F034B9C5206070D520A070A520E07080
:1004D000022020710020607170471B208DF83000D1
:1004E0000223C52060700CAAD520A0700221A5208F
:1004F000E0700220207100206071704701B582B069
:1005000000F010F80223818905E001B582B000F007
:1005100009F80323C1894089002200F0B6F900B12F
:1005200047200EBD02A941480091704701B582B035
:10053000FFF7F8FF0223018AEDE700B50FF244113F
:1005400089B00CC907A800210CC0002000F0BFFB37
:1005500000200690059004900390002307A80290C5
:1005600000220820019000210020009000F05BFC98
:1005700009B000BD2D4801224261418070472B48DF
:10058000002141610121017000214170704730B5A7
:10059000264C83B02189491C884204D104F11800FB
:1005A000FFF77AFE3BE0A189491C884211D100F097
:1005B0000DFD054604F11800FFF76EFE0F2080FBCD
:1005C000050100F039F800F5877000B2FFF796FFDB
:1005D00025E0E189491C884213D1154800680A21A9
:1005E000B0FBF1F1684600F061FD00F0EFFC4FF464
:1005F0007A7100F01FF800F5C330A030FFF785FFD7
:100600000DE0218A491C884209D100F0DFFC6421F9
:1006100000F010F800F5E17080B2FFF787FF608806
:1006200010B1608800F09DF937BD00000000002087
:100630002827000881FB00016FF04042002300F0F2
:1006400049BD411C007804281AD10878052804D037
:100650003E2803D0FF280AD0704790E7881C017815
:1006600001290DD1401CB0F80110401D82E7881C03
:1006700040F614420188914204BF8088FFF787BF8B
:100680007047000009426C75654E524700B587B04F
:1006900000F043F900F03BF940F20110ADF806001C
:1006A000002100F009F800284CBFFF209DF8000051
:1006B00007B000BDC0B204900120069001A800F070
:1006C00021BA70B58CB001288DF81C0014460CBFFF
:1006D000022610261D4632460DF11D0000F071FD68
:1006E000701C07A9C0B203224454441CE4B26846FB
:1006F0006554002100F06BFD00F00FF900F007F9E0
:100700004FF4817000F0BBF8601CC0B2049003206D
:10071000FFF7D3FF002848BFFF2005D49DF8000055
:1007200010B9109900F049F80CB070BDF1B58EB059
:100730000D4616461F4602220EA900F0FDF807AC32
:10074000012DA57031460CBF022510252A4600F068
:10075000DAF8E81CC0B2411C0755C9B21498085514
:10076000491C1598C9B203220855491C1698C9B2EC
:100770000855491C1798C9B24D1C0855EDB2189878
:10078000285500F01FF800F0C8F800F0C0F84FF44A
:10079000827000F074F8681CC0B204900320FFF768
:1007A0008CFF002848BFFF2005D49DF8000010B939
:1007B000199900F002F80FB0F0BDBDF801000880F3
:1007C000002070470021684600F001BD73B5A8B055
:1007D00014461D4600F0AEF800F0B1F88DF8204048
:1007E000012C0CBF0224102400F09EF8611D07ADFF
:1007F0002E98C9B24855481C2F9CC0B2461CF6B270
:1008000056FA84F14455491D8129A8BF422034DAA3
:10081000309907AB2246F01800F0D3FCA1193198AB
:10082000C9B203224855491C3298C9B24855491CDF
:100830003398C9B24855491C3498C9B24E1C485522
:10084000F6B235987055FFF7BDFF00F066F800F07E
:100850005EF840F2051000F012F8701CC0B204906F
:100860000320FFF72AFF002848BFFF2005D49DF88A
:10087000000010B93699FFF7A0FF2AB070BDADF89F
:100880000600002107A80390704733B51C46A01D41
:10089000A7B081281546A8BF42201FDA022227A947
:1008A00000F04AF8022228A900F04BF82C998DF8A4
:1008B00020508DF82140224600F012F800F02DF86B
:1008C00000F025F84FF48370FFF7D9FFA01DFFF764
:1008D000F1FE00284CBFFF209DF8000029B030BD7C
:1008E0000DF1220000F06DBC3F20ADF80800CDF8FE
:1008F00018D070471822ADF80400002102A800F0BB
:1009000066BC224619460DF11F0000F05ABC3F207C
:10091000ADF80400CDF814D070471822002101A8CA
:1009200000F055BC8DF82040224629460DF12100EB
:1009300000F047BC022228A907A800F042BC02220E
:1009400029A90DF11E0000F03CBCADF80A00002101
:1009500001A80490022005900120079002A800F051
:10096000D1B800B589B0FFF7C5FFFFF7BDFF40F272
:100970002710FFF7EAFF00284CBFFF209DF800007A
:1009800009B000BD38B5B14C201D00F02AFC04F1BF
:100990000C0000F026FC00258C2010FB054000F127
:1009A0001401201D00F033FC6D1C052DF4DB31BD5E
:1009B00000F108010A78042A01D00120704790F85C
:1009C00088008978C01E814214BF02200020704731
:1009D00010B5A2B00020009000F0E1FD9B4C10E0AB
:1009E000694604F10C0000F028FC00F0D5FD0098E9
:1009F0000830FFF726FE00F0D2FD0099201D00F020
:100A000006FC04F10C0000F0EFFB0028E8D0207891
:100A100050B90EE0802201A98D4800F019FDC0B246
:100A200010B101A8FFF70DFE00F009FD0028F1D17B
:100A3000207000F0B1FD22B010BD38B5002000904C
:100A400000F0B0FD824C814D04E0281D00F0D5FB84
:100A500000F0A8FD00F0F3FC18B3281D00F0C4FB63
:100A6000D8B96946281D00F0E8FB009800F108019C
:100A70008022204600F0ECFCC0B200280099E4D0AF
:100A800081F888000098FFF793FF00280099DCD1D7
:100A900005F10C0000F0BBFBDAE70120287000F044
:100AA00081FD31BD00F082BC30B5890583B0890D70
:100AB00041EA8020ADF80400144601208DF80000C2
:100AC0001D468DF80640032201A90DF1010000F03A
:100AD00078FB2346042229466846FFF7E3FF37BD2B
:100AE00038B504460D4607E06946284600F0A5FBE8
:100AF0000099204600F08BFB284600F075FB00288B
:100B0000F2D031BD2DE9F041044686B060884F4FE8
:100B1000884680052188800D40EA81254D4800687F
:100B20000A21B0FBF1F600200090ADB202A800F05F
:100B300058FBE068A3686188C2B22088FFF7B4FF61
:100B4000B8F1000F59D106B90126314604A800F0CA
:100B5000ADFA05E0009902A800F059FB00F01CFD79
:100B600004A800F0ABFA002867D107F10C0000F0F0
:100B70003BFB0028F4D100F012FD694607F10C00A0
:100B800000F05BFB009800F1080210780428E1D126
:100B90000098527800F10B0190F88800C01E0E2AD0
:100BA00037D00F2A04D0102A47D03E2A38D008E088
:100BB0004A88AA4241D162680F2A15D008780028D5
:100BC0003BD1009902A800F022FB381D00F00CFB7D
:100BD0000028C3D001A907F10C0000F02EFB0199F9
:100BE000381D00F014FBB9E762699042C8BF104697
:100BF00060610246206900F0E4FA0099381D00F0B7
:100C0000FCFA00F029F800F0C7FC002006B0BDE8AF
:100C1000F081B1F80120AA420FD1C91CC01EE3E740
:100C20000A7863689A42CCD16269401E9042C8BF7C
:100C3000104660610246491CDCE700F00DF800F048
:100C4000ABFC4FF0FF30E1E700000000B8040020EB
:100C5000880700202827000802A907F10C003FE7B9
:100C6000F0B589B000F024F800F06BF800F074F8EB
:100C7000042000F077F8012000F01FF8002848BF9A
:100C8000FF2013D49DF8000080B99DF8010020706A
:100C9000BDF8020028809DF804003070BDF8050002
:100CA00038800E99BDF807000880002009B0F0BD1B
:100CB00004460D4616461F467047ADF80E0000214B
:100CC0000020059006900920089003A81AE730B587
:100CD0008FB000F01DF88DF81C40202CA8BF1F24F9
:100CE00000F010F800F01BF800F024F8092000F0E4
:100CF0001BF800F02BF800284CBFFF209DF80000E7
:100D00000FB030BD224629460DF11D0000F059BA42
:100D100004460D462022002107A800F058BA1822E8
:100D2000002101A800F053BAADF80600002107A881
:100D3000039070470820ADF80400CDF814D0704738
:100D4000044609220021684600F041BA20200490A0
:100D50000120069001A8D5E61822002103A800F082
:100D600036BA0820ADF80C00CDF81CD0704710B58D
:100D70008AB08DF800008DF801108DF802201C4615
:100D8000072200F009F900F0C0F800F013F98A20FA
:100D9000ADF80E0000210320069001A8079007205F
:100DA00000F0AFF8002848BFFF200ED49DF80400E3
:100DB00058B9BDF8050020800C99BDF807000880DF
:100DC0000D99BDF80900088000200AB010BD70B56B
:100DD0008AB00C468DF8080015461E46072200F022
:100DE000D0F800F092F800F0DBF88A20ADF80E00A1
:100DF000002102A8059001200690072000F081F84C
:100E0000002848BFFF200CD49DF8000048B9BDF869
:100E100001002080BDF803002880BDF80500308067
:100E200000200AB070BD76B592B000F04FF828BF30
:100E300042201BD200F052F800F02AF89DF8600022
:100E400000F02CF800F035F800F01AF800F010F877
:100E500000F0A1F800F099F8832000F047F800F0C6
:100E6000AFF800284CBFFF209DF8000014B070BD03
:100E7000A41CE4B207A802221EA9201800F0A1B900
:100E80006419E4B207A802221DA9201800F099B93C
:100E9000022213A90DF11F0000F093B91A998DF8E1
:100EA00022008DF821608DF823502A4609A800F011
:100EB00088B905F10800C0B207A9451C4454EDB239
:100EC0001C9907A82246281800F07BB9199D1B9C85
:100ED00054FA85F10E3129291E4670478DF81C0001
:100EE000022212A90DF11D0000F06BB9ADF8060049
:100EF000002107A80390A01CC0B204907047069080
:100F00000120089003A8FFF7FDBD1822002103A8C7
:100F100000F05DB930B58FB08DF81C008DF81D1054
:100F200014461D461022214600F040F812981499EC
:100F30008DF82F008DF82E50182213988DF8300060
:100F40000DF13100016000219DF854008DF835004D
:100F500001A800F03CF900F018F8862000F00BF82A
:100F60001A20049000F02CF800284CBFFF209DF8B8
:100F700000000FB030BDADF80600002107A80390B7
:100F800070470021684600F022B93F20ADF8040008
:100F9000CDF814D070471822002101A800F017B92D
:100FA0003F20ADF80C00CDF81CD070470DF11E00AD
:100FB00000F007B93F20ADF80C00CDF814D0704711
:100FC0000120069001A8FFF79DBD0000F8B5344F41
:100FD000384600F007FB0446381D00F003FB0546C9
:100FE00007F1080000F0FEFA064607F10C0000F0D9
:100FF000F9FA23782B492C4A002B40D12B6802FBAD
:1010000003132B60082702FB03132B6002FB03135F
:101010002B6002FB03132B6002FB03132B6002FB0C
:1010200003132B6002FB03132B6002FB03132B60E3
:101030000346D5F800C002FB0C1CC5F800C043F8FD
:1010400004CB7F1ED5F800C002FB0C1CC5F800C005
:1010500043F804CBD5F800C002FB0C1CC5F800C057
:1010600043F804CBD5F800C002FB0C1CC5F800C047
:1010700043F804CBDDD1C36F3360012323702B68A9
:1010800002FB03112960317801F01F0150F8212083
:1010900032602A6840F82120306880008008F2BD64
:1010A0002C0000205FF36E3C0D66190010B504465D
:1010B0006160FFE700F097FA206010BD10B50446AC
:1010C00000F091FA22686168801A401C81428041D8
:1010D000C00F10BD1B4213D1094236D12AB184463C
:1010E000B0FBF2F002FB10C2704700F07FBAFCD3F5
:1010F0000022002370470B000200002100207047EF
:10110000904271EB030CF6D370B5B1FA81F4B3FAE7
:1011100083F52C1BA340C4F1200532FA05F63343B6
:10112000A2405FF00046E64002E05B085FEA320260
:10113000841A71EB030524BF204629467641F4D377
:1011400002000B003000002170BD012ACFD970B51C
:10115000140C20D0B1FA81F4B2FA82F5C4F1200463
:101160006419B4F12006D6D3B2405FF00044F440D5
:10117000002502E052085FEA3303C61A71EB020E43
:1011800024BF3046714664416D41F3D302000B0029
:101190002000290070BD0C46B1FBF2F102FB1145A5
:1011A0002D0445EA1045B5FBF2F402FB145580B25C
:1011B00040EA0545B5FBF2F002FB105240EA04405C
:1011C00070BD10B5044600F013FA204610BD10B5EE
:1011D000044610460A460146204600F045FA2046DD
:1011E00010BD006040607047EFF3108172B6026876
:1011F00082420CBF012000201CE0EFF3108272B687
:1012000003680B60486001600868416029E0EFF303
:10121000108272B6086043684B60416048680160A4
:101220001FE0EFF3108172B6436802681A604268EB
:101230000068426081F31088704738B50C46EFF3C0
:10124000108572B6016821600068FFE7FFF7E9FFCB
:101250002168002008602168486085F3108831BD4E
:10126000086082F3108870470068DFF840138842F6
:1012700000D0704710B586B000200090DFF83043F2
:10128000DFF83003016841F001010160016801F0FD
:1012900001010091009900210091016841F00201D3
:1012A0000160016801F002010091009900210091A4
:1012B00000F065F800F063F8416941F48051416144
:1012C00001A9406900F48050009000984FF48070AC
:1012D00001900120029003900020049000F058F942
:1012E00000F03AF80820019001A902200290039032
:1012F0000320049005200590AF4800F0E9F9402054
:1013000000F030F8802000F02DF80220019001203C
:1013100002900390032004900020059001A900F0A2
:1013200038F901220221204600F0A4FA01200190A0
:1013300001A9A248029000200390032004900020FD
:1013400000F026F900220321062000F0CFFA062043
:1013500000F0E9FA06B010BD00224FF4807120467B
:1013600000F088BA019001A90220029000200390A9
:101370000320049005200590204600F0A9B90168DB
:1013800041F001010160016801F001010091009943
:1013900000210091016841F001010160016801F044
:1013A0000101009100990021009170472DE9F04161
:1013B00004468348DFF80C8284B00D4600680A2199
:1013C000B0FBF1F116461F4601A8FFF76FFEF8B219
:1013D0000090F3B22A462146404600F086F820B13C
:1013E00001A8FFF76BFE0028F1D0BDE8FF8175482A
:1013F0006E4901604FF48271416000218160C160DB
:10140000016141614FF4007181610021016241621B
:101410000721C1620821C1610021816200F0B4BAD4
:1014200010B5634CFFF798FF052000F0D4FC0122B3
:10143000FFF793FFBDE81040052000F0CCBC80B55D
:1014400001215B4800F010FA012818BF002002BDFE
:101450002DE9F04387B005460E46FF2017468DF86C
:10146000050004A80FF26411DFF844810CC90CC018
:1014700000220221404600F0FDF90F2000900523D4
:1014800002AA04A900F081F89DF8080000240228AF
:1014900019D19DF80C009DF80B1051EA002912D0CB
:1014A0004F450DDAB9460BE00F200090012301AA49
:1014B0000DF1050100F069F89DF80400A055641CC9
:1014C000E4B24C45F0DB01220221404600F0D2F9A3
:1014D000002002E000BF0098401C00900098022805
:1014E000F8DB204607B0BDE8F0832DE9F0478846D9
:1014F00091461E460FF2DC01C6B005460CC903A892
:101500000FF2D801DFF8A8A00CC00CC901A8002771
:101510000CC0062000F00DFA00220221504600F017
:10152000A9F90F200090052301AA03A900F02DF8C6
:101530009DF8040002281AD14E9C9DF8050054FA2B
:1015400086F1884210DB36B10F200090334605AAA1
:10155000414600F01AF864B10F200090234605AA16
:10156000494600F012F804E06FF0010701E04FF087
:10157000FF3701220221504600F07CF9062000F0DE
:10158000D2F9384646B0BDE8F087284600F03FBAA9
:101590000590204600F09CB8062000F0C4B9062053
:1015A00000F0C7B9084901200860704700300140C9
:1015B00000000240303802400004024000001110D8
:1015C0002827000888070020143C01400B00000079
:1015D000000000000A00000000000000AA00000057
:1015E00000000000704700F0F3BB000070470000EF
:1015F00062B38B0708D0521E11F8013B00F8013B83
:1016000000F024808B07F6D1830740F0208000BFD4
:10161000103A07D330B4B1E83810103AA0E83810C7
:10162000F9D230BC530724BFB1E80810A0E8081075
:1016300044BF51F8043B40F8043BD20724BF31F8C3
:10164000022B20F8022B44BF0B7803707047083A36
:1016500007D3B1E80810083A40F8043B40F804CB3F
:10166000F7D25307E4E7000062F30F2262F31F4250
:10167000401810F0030308D0C91A1FD3DB0748BF76
:1016800000F8012D28BF20F8022D130030B41446B5
:101690001546103928BF20E93C00FAD8490728BF71
:1016A00020E90C0048BF40F8042D890028BF20F82D
:1016B000022D48BF00F8012D30BC7047C91818BF73
:1016C00000F8012DCB0728BF00F8012D704700005E
:1016D0002DE9F84700226F4BDFF8BC81DFF8BC91A1
:1016E0004FF00F0A012707FA02FC0F680CEA070700
:1016F000674540F0B3804C68022C18BF122C10D103
:10170000D40800EB840E02F00704DEF82050A40099
:101710000AFA04F6B5430E6906FA04F42C43CEF82F
:1017200020404FEA420E032405680E7904FA0EF4B5
:10173000E44306F00306254006FA0EF6354305603D
:101740004D68012D18BF022D03D0112D18BF122D89
:101750000FD18568CE68254006FA0EF635438560C0
:10176000456825EA0C064D68C5F3001595403543DC
:101770004560D0F80CC004EA0C0C8C6804FA0EFE2C
:101780004EEA0C0CC0F80CC0D1F804C05FEACC0CD7
:1017900064D5002400944FEA920CD9F8004044F438
:1017A0008044C9F8004002F00305D9F8004004F471
:1017B000804400944FEA850E009C58F82C400AFAA9
:1017C0000EF5AC43364DA84208BF002513D0354D69
:1017D000A84208BF01250ED0334DA84208BF0225FC
:1017E00009D0324DA84208BF032504D0304DA8428D
:1017F0000CBF0425052505FA0EFE4EEA040448F840
:101800002C406FEA070C1C680CEA040E4C68E403D9
:1018100048BF47EA0E0EC3F800E05C680CEA040E0D
:101820004C68A40348BF47EA0E0EC3F804E09C6866
:101830000CEA040E4C68E40248BF47EA0E0EC3F8F7
:1018400008E0D3F80CE00CEA0E0CD1F804E05FEAF3
:101850008E2E48BF47EA0C0CC3F80CC0521C102A4D
:10186000FFF440AFBDE8F1870069084018BF0120D0
:10187000C0B2704702B90904816170470D4A13680C
:10188000034200D1704780B5106000F0B7FA01BD87
:1018900000000000003C014008380140443802408C
:1018A000000002400004024000080240000C024018
:1018B00000100240143C01400901002806D52B4AC3
:1018C00000F00F00801800F8041C7047284A81546B
:1018D000704728490A684FF6FF031A4000F00700D6
:1018E00042EA0020244A10430860704738B5214B73
:1018F0001B68C3F30223C3F10704052C28BF04248B
:101900001D1D072D34BF0023DB1E012505FA04F43D
:10191000641E2140994005FA03F35B1E1A401143EF
:10192000BDE83440C8E7012100F01F029140134A8E
:1019300004E0012100F01F029140114A400942F8E1
:101940002010704710B5401EB0F1807F01D30120F8
:1019500010BD0C4C60600F214FF0FF30FFF7ACFF63
:101960000020A06007202060002010BD18ED00E0DE
:1019700000E400E00CED00E00000FA0500E100E00A
:1019800080E100E010E000E038B5050001D1012061
:1019900032BD05F15004607818B920702846FFF771
:1019A00063FC022060702868016821F0400101603A
:1019B0006868A9680843E9680843296908436969B0
:1019C0000843A96901F400710843E9690843296AD9
:1019D0000843A96A084329680860A869696A000C75
:1019E00000F00400084329684860A86AB0F5005F69
:1019F00002D12968E86A08612868C16921F4006198
:101A0000C1610020606001206070002032BD2DE9BE
:101A1000F84F04460020ADF8000004F15006002500
:101A200030780128894692461F464FF0010B08BFC7
:101A3000022000F0D58086F800B000F0C9F9804699
:101A40007078012809D06168B1F5827F02BFA16872
:101A50000029042801D00225C0E0B9F1000F18BF09
:101A6000BAF1000F00D00FB90125B7E07078012856
:101A700004BF052070707560C4F838A0E787A78799
:101A8000C4F83090E786A7862564656400F0E0F826
:101A90000A9FB0F5006F606838D100281CBFE08E47
:101AA000012805D1216839F8020BC86000F0A5F8BB
:101AB000E08E002804BFE08F002860D0BBF1000F4B
:101AC0001CBFE08E00280DD000F0A6F80AD539F82A
:101AD000021BC16000F095F804BFA06AB0F5005F7A
:101AE00000F0AFF8E08F38B100F092F804D5C0688C
:101AF0002AF8020B00F076F817F1010FD8D000F0A9
:101B000067F9A0EB0800B842D2D35AE000281CBF06
:101B1000E08E012805D1216819F8010B087300F047
:101B20006CF8E08E002804BFE08F002827D0BBF1BE
:101B3000000F1CBFE08E00280DD000F06DF80AD514
:101B400019F8011B017300F05CF804BFA06AB0F53E
:101B5000005F00F076F8E08F38B100F059F804D556
:101B6000C0680AF8010B00F03DF817F1010FD8D05A
:101B700000F02EF9A0EB0800B842D2D321E000F02B
:101B80004FF80CD1CDF800803B4600F099F820B119
:101B9000706840F00200706013E000F045F82068C3
:101BA0008168C90607D5716841F00201716001259D
:101BB0004FF6EF718160CDF800803B4600F018F8D9
:101BC00008B103250AE04246394600F05AF818B138
:101BD00020200125706001E000F055F800F02BF89E
:101BE000BDE8F28F4FF0010BE08F401EE087704799
:101BF00001220221204600F067B8E08E401EE086F8
:101C00007047AB46E08E401EE086E08E00287047AD
:101C100020688168C9077047206881688907704714
:101C2000A06AB0F5005F70472068C068ADF800009A
:101C3000BDF8000070470120707000203070284609
:101C4000704704D12068016841F4805101607047F9
:101C5000A06AB0F5005F0AD1206801684DF6FF72F6
:101C6000114001602068016841F400510160206862
:101C70000168490603D4016841F040010160E06851
:101C80007047204664E0A06830B900902068C168C1
:101C90000091806800900098704700006068B0F57F
:101CA000827F7047A068B0F5004F704704D120686C
:101CB000016821F0400101607047CDF80090434673
:101CC000012201212046FFE72DE9F041069E04464E
:101CD0000D4690461F46206880682840A8420CBFE9
:101CE00001200020404524D017F1010FF3D027B187
:101CF00000F06EF8801BB842EDD32068416821F0F7
:101D0000E0014160FFF7CAFF06D1FFF7CBFF18BF24
:101D1000B0F5806FFFF7CAFFFFF782FF01D100F037
:101D20000BF804F1500001214170002101700320E3
:101D300000E00020BDE8F081206801684DF6FF72E8
:101D4000114001602068016841F400510160704752
:101D500010B582B00B460092044600228021FFF7A6
:101D6000B3FF20B1606D40F020006065032016BD18
:101D700080B51F48016841F400710160016841F4B9
:101D800080610160016841F4807101600320FFF708
:101D9000A0FD0F2000F005F800F002F8002002BDC1
:101DA000704710B50446134800684FF47A71B0FBD1
:101DB000F1F0FFF7C7FD002221464FF0FF30FFF79B
:101DC00095FD002010BD0C480168491C016070475A
:101DD00009480068704711B581B0FFF7F9FF044664
:101DE000FFF7F6FF0199001B8842F9D313BD0000ED
:101DF000003C024028000020E0070020FEF71DBE46
:101E00002DE9F8430446DFF8C4532078C0072FD5E6
:101E1000A86800F00C00042807D0A86800F00C00A7
:101E2000082809D16868400206D5286880031FD5B4
:101E30006068E8B9012002E16068A870606858B184
:101E4000FFF7C6FF07462868800311D4FFF7C0FFDD
:101E5000C01B6528F7D3EFE0FFF7BAFF07462868F5
:101E6000800305D5FFF7B4FFC01B6528F7D3E3E077
:101E70002078DFF85C63800718D5A86810F00C0F95
:101E800007D0A86800F00C00082827D16868400235
:101E900024D42868800702D5E0680128CAD12868C0
:101EA000216920F0F80040EAC10028602078DFF8BE
:101EB000248300073DD56169DFF81C0359B3012174
:101EC0000160FFF785FF0746D8F80400800730D48B
:101ED000FFF77EFFC01B0328F6D3ADE0E06868B1D2
:101EE00001203060FFF774FF074628688007D6D4CA
:101EF000FFF76EFFC01B0328F7D39DE03060FFF7AC
:101F000067FF074628688007D0D5FFF761FFC01B31
:101F10000328F7D390E00160FFF75AFF0746D8F88F
:101F20000400800705D5FFF753FFC01B0328F6D335
:101F300082E02078400740D500200090DFF89C9296
:101F4000286C40F080502864286C00F0805000908D
:101F50000098D9F8000040F48070C9F80000FFF73D
:101F600037FF0746D9F80000C00505D4FFF730FF5A
:101F7000C01B0328F6D35FE0A06888F8000041F298
:101F80008939A06860B1FFF723FF0746D8F8000041
:101F9000800712D4FFF71CFFC01B4845F6D34BE067
:101FA000FFF716FF0746D8F80000800705D5FFF7B2
:101FB0000FFFC01B4845F6D33EE0A06900283DD086
:101FC000A96801F00C0108293FF434AF022828D198
:101FD00000F037F807462868800105D5FFF7F8FEBE
:101FE000C01B0328F7D327E0E069216A0843616A30
:101FF00040EA8110A16A891EC903090C40EA014028
:10200000E16A40EA01606860012000F01BF80746C1
:102010002868800112D4FFF7DBFEC01B0328F7D32A
:102020000AE000F00EF807462868800106D5FFF7A1
:10203000CFFEC01B0328F7D3032000E00020BDE83B
:10204000F28300203066FFF7C3BE2DE9F843644EEB
:1020500004463068884600F00F00404502D200F088
:102060008AF862D12078594F800705D5B868A168F1
:1020700020F0F0000843B8602078C0074DD56068B4
:10208000012802D13968890305E0022818BF032816
:1020900003D13968890103D447E03968890744D5F9
:1020A000B968890840EA8100B86041F28939FFF7D0
:1020B0008FFE0546606801280AD1B86800F00C0060
:1020C00004282AD0FFF784FE401B4845F5D322E0C0
:1020D00002280AD1B86800F00C0008281DD0FFF7CC
:1020E00077FE401B4845F5D315E003280AD1B868B0
:1020F00000F00C000C2810D0FFF76AFE401B48458A
:10210000F5D308E0B86810F00C0F06D0FFF760FEBA
:10211000401B4845F6D303202BE0306800F00F0049
:10212000804504D200F027F801D0012021E020787A
:10213000400705D5B868E16820F4E0500843B8606E
:102140002078000706D5B868216920F4604040EA8D
:10215000C100B86000F016F8BA680FF29801C2F337
:102160000312515CC8401F4908600F20FFF719FE99
:102170000020BDE8F28386F80080306800F00F0090
:10218000404570471848416801F00C01042902D00D
:10219000082902D017E0154870470168026852020A
:1021A00001F03F014CBF114A114AB2FBF1F1026844
:1021B0000068C0F30140C2F38812401C5143400044
:1021C000B1FBF0F070470A48704700000038024049
:1021D0000000474270380240800E474200700040C5
:1021E000003C0240280000200438024040787D0175
:1021F0000024F400000000000102030401020304B3
:102200000607080910B50FF248114A4C8CB00CC9EA
:1022100009A80CC0FFF7ACFD0021002000F09CF8DD
:1022200000F0EDF8FFF7E3F8FEF7ACFBFFF7F8F886
:1022300006A904A800F005F9FFF7F2F89DF81000D0
:10224000312804DB0120207002208DF829000622AD
:1022500009A907A8FEF7B5FF07AA0621002000F08C
:102260001BF9FEF713FA207801280CD10DF11600A6
:10227000019005AB0DF11200009007220021012012
:10228000FEF775FD07E00DF116030DF1120205A929
:102290000120FEF79CFD0FF2B000BDF81210009077
:1022A0000723BDF814000022FEF7EFFA00B1FEE7A5
:1022B0000120039007232048204C02900022002098
:1022C00001900021102000900120FEF723FEFDF771
:1022D00061FFFDF7FFFF0421012000F008F9FEF780
:1022E00077FB204600F001F8F9E738B5144D0446B5
:1022F000287818B1FEF721F900202870002000F09E
:102300006AF8A8B9002000F066F80028FAD00D4855
:10231000006868B120686430206060686430606084
:10232000A0686430A0602046BDE83240FDF7B4BF2D
:1023300031BD0000E807002040E201001800002045
:102340000000002014000020426C75654E524700CA
:10235000123400E180030000F0B587B0054600208C
:1023600000900E46DFF88400DFF8844001680FF229
:10237000880741F004010160006800F0040000904B
:1023800000984EB900F021F80290022003900490CA
:1023900054F82500FFF79CF9012E14D100F015F830
:1023A0000390DFF85000029054F82500FFF790F9F1
:1023B0000FF248002C5C00220F2160B2FFF796FA62
:1023C00060B2FFF7B0FA07B0F0BD37F81500019022
:1023D00001A9002070470FF22001DFF8142031F826
:1023E000101052F82000FFF73FBA000030380240CA
:1023F000240000200000211000200000280000B56B
:1024000091B0022000900120039006200490022049
:10241000069000200790102008904FF480700990DB
:1024200008200A9004200B906846FFF7E9FC012081
:102430000C90012102200D900CA8FFF706FE11B0B0
:1024400000BD70B584B0064601A800900C460DF1A1
:102450000A0302AA0DF106010DF10900FEF700FCC6
:10246000C5B2A5B9BDF80600000A3070BDF8060077
:1024700000022080BDF804100906090F40EA01108F
:102480002080BDF8041001F00F0108432080FEF702
:102490009FFA284604B070BD10B50C461146A21C28
:1024A000A8B0812AA8BF42201FDA8DF81C008DF841
:1024B0001D4022460DF11E00FEF783FE00F03BF8A2
:1024C00000F033F80C20ADF80600002107A80390B7
:1024D000A01CC0B204900120069001A8FEF712FBD8
:1024E00000284CBFFF209DF8000028B010BD00B5AB
:1024F00089B08DF804008DF805101822002102A87B
:10250000FEF765FE00F022F80F2000F019F8022017
:1025100005900120079002A8FEF7F4FA00284CBFAE
:10252000FF209DF8000009B000BD3F20ADF8040079
:10253000CDF814D070471822002101A8FEF747BE3D
:10254000ADF80A00002101A8049070473F20ADF8C3
:102550000800CDF818D070470E480F4A016841F4C2
:10256000700101600D48016841F001010160002126
:10257000816001681140016009494160016821F4EE
:10258000802101600021C1604FF0006005490860B2
:102590007047000088ED00E0FFFFF6FE00380240C3
:1025A0001030002408ED00E019E050F8041BCB07C0
:1025B00044BFA9F101035918121F0023042A41F84E
:1025C000043BF9D25FEA827C0B4604D54FF0000C45
:1025D000A1F800C09B1CD10744BF0021197050F81E
:1025E000042B002AE1D170477047FEE7704770471F
:1025F000704780B5FFF7E7FB08480168491C016098
:1026000001BD0120FFF73AB980B54FF40050FFF744
:1026100035F903490120087001BD0000E4070020DE
:10262000E907002030B5016842688468091801EBA9
:102630005203D20748BF4C440C30994200D130BD00
:1026400011F9012B11F8015B002A04F8015B02D596
:10265000521CF9D1F1E7521EF4D5EEE710B5074947
:1026600079441831064C7C44163404E00A68081D8D
:10267000511888470146A142F8D110BD2C00000036
:10268000480000004EF68851CEF20001086840F480
:1026900070000860BFF34F8FBFF36F8F4FF0007073
:1026A000E1EE100A7047000001FFFFFF3403000055
:1026B000B8040020000000006DFFFFFF540100007F
:1026C000260000000000002000F00BF8002801D0D8
:1026D000FFF7C4FF0020C046C046FFF793FD00F09F
:1026E00002F80120704700F001B8000007463846A4
:1026F00000F002F8FBE7000080B5C046C046024A81
:1027000011001820ABBEFBE72600020001488047FD
:1027100001480047592500081D270008C046C0464B
:10272000FFF7B0FFFFF7D0FFE8030000FFF7FEBFA1
:10273000FFF7FEBFFFF7FEBFFFF7FEBFFFF7FEBFCD
:10274000FFF7FEBFFFF7FEBFFFF7FEBFFFF7FEBFBD
:10275000FFF7FEBFFFF7FEBFFFF7FEBFFFF7FEBFAD
:10276000FFF7FEBFFFF7FEBFFFF7FEBFFFF7FEBF9D
:10277000FFF7FEBFFFF7FEBFFFF7FEBFFFF7FEBF8D
:10278000FFF7FEBFFFF7FEBFFFF7FEBFFFF7FEBF7D
:10279000FFF7FEBFFFF7FEBFFFF7FEBFFFF7FEBF6D
:1027A000FFF7FEBFFFF7FEBFFFF7FEBFFFF7FEBF5D
:1027B000FFF7FEBFFFF7FEBFFFF7FEBFFFF7FEBF4D
:1027C000FFF7FEBFFFF7FEBFFFF7FEBFFFF7FEBF3D
:1027D000FFF7FEBFFFF7FEBFFFF7FEBFFFF7FEBF2D
:1027E000FFF7FEBFFFF7FEBFFFF7FEBFFFF7FEBF1D
:1027F000FFF7FEBFFFF7FEBFFFF7FEBFFFF7FEBF0D
:10280000FFF7FEBFFFF7FEBFFFF7FEBFFFF7FEBFFC
:102810000001DC00050802400024F4FB00000181F7
:0328200000F800BD
:00000001FF
