:020000040800F2
:10000000B8040020DD2A0008B9290008BB2900082F
:10001000FD2A0008012B0008052B00080000000045
:10002000000000000000000000000000BD290008E2
:10003000BF29000800000000C1290008C3290008EA
:10004000092B00080D2B0008112B0008152B0008A8
:10005000192B00081D2B0008D3290008212B0008AC
:10006000252B0008292B00082D2B0008312B000818
:10007000352B0008392B00083D2B0008412B0008C8
:10008000452B0008492B00084D2B0008512B000878
:10009000552B0008592B00085D2B0008612B000828
:1000A000652B0008692B00086D2B0008712B0008D8
:1000B000752B0008792B00087D2B0008812B000888
:1000C000852B0008892B00088D2B0008912B000838
:1000D000952B0008992B00089D2B0008A12B0008E8
:1000E000D9290008A52B0008A92B0008AD2B000872
:1000F000B12B0008B52B0008B92B0008BD2B000858
:10010000C12B0008C52B0008C92B0008CD2B000807
:10011000D12B0008D52B0008D92B0008DD2B0008B7
:10012000E12B0008E52B0008E92B0008ED2B000867
:10013000F12B0008F52B0008F92B0008FD2B000817
:10014000012C0008052C0008092C00080D2C0008C3
:10015000112C0008152C0008192C00081D2C000873
:10016000212C0008252C0008292C00082D2C000823
:10017000312C0008352C0008392C00080000000044
:100180003D2C0008412C00082DE9F8430446DFF817
:1001900058562078DFF84866C00626D5B06810F0BB
:1001A0000C0F3AD13068800702D5A069002832D000
:1001B000306800074EBF30686868000900F0F00141
:1001C000206A814206D200F0CFFA002823D100F045
:1001D000BEF905E000F0BBF9206A00F0C5FAD0B91D
:1001E00000F06BFAB26800F054FA2078C00774D5BA
:1001F00000F0A9F9082808D000F0A5F90C2802BFE2
:10020000F06800F0030003282AD13068800364D529
:100210006068002861D101208AE1A0690028306867
:1002200010D040F0010000F085F9074630688007E3
:1002300005D400F010FBC01B0328F7D375E100F0D4
:1002400086F9D2E74008400000F074F907463068AC
:100250008007CAD500F0FFFAC01B0328F7D364E17A
:1002600000F06BF920F4802000F064F90746306854
:10027000800305D500F0EFFAC01B6528F7D354E1E1
:100280006068B0F5803F07D0B0F5A02F00F055F9B9
:1002900006D140F480203060306840F4803001E0C6
:1002A00020F480203060606858B100F0D4FA07462E
:1002B0003068800311D400F0CEFAC01B6528F7D354
:1002C00033E100F0C8FA07463068800305D500F036
:1002D000C2FAC01B6528F7D327E12078800719D51B
:1002E00000F031F9042808D000F02DF90C2802BFE5
:1002F000F06800F00300022822D13068400502D5E2
:10030000E068002887D07068216920F0F85040EA42
:10031000016070602078000741D560690028686836
:100320002ED040F00100686000F095FA074668683A
:10033000800734D400F08FFAC01B0328F7D3F4E011
:10034000E068002830680DD040F4807000F0F2F8CA
:10035000074630684005D6D400F07DFAC01B03285C
:10036000F7D3E2E020F4807000F0E4F8074630684C
:100370004005CFD500F06FFAC01B0328F7D3D4E0B7
:1003800040084000686000F066FA07466868800729
:1003900005D500F060FAC01B0328F7D3C5E020782C
:1003A000400766D5B06DC0004FF000080AD4B06DAC
:1003B00040F08050B0654FF00108B06D00F0805003
:1003C00000900098DFF82494D9F80000C00512D4FA
:1003D000D9F8000040F48070C9F8000000F03BFA42
:1003E0000746D9F80000C00505D400F034FAC01B58
:1003F0000328F6D399E0A06801280CD008B9286832
:100400000DE0052828680AD14008400028602868C7
:1004100040F004002860286840F0010005E0400832
:1004200040002860286820F00400286041F28939E3
:10043000A06858B100F00FFA07462868800711D469
:1004400000F009FAC01B4845F7D36EE000F003FA4C
:1004500007462868800705D500F0FDF9C01B484510
:10046000F7D362E0B8F1000F03D0B06D20F08050F8
:10047000B065606A00285AD0B16801F00C010C29FF
:100480003FF4C9AE0228306820F08070306038D167
:1004900000F0E1F907463068800105D500F0DBF98E
:1004A000C01B0328F7D340E0E06A216B401E09021D
:1004B00041EA0010616B090940EA4140A16A084322
:1004C000A16B891E0905490D40EA4150E16B891E67
:1004D000090601F07E410843F060306840F080700A
:1004E0003060F06840F08070F06000F0B4F90746CA
:1004F000306880011BD400F0AEF9C01B0328F7D38D
:1005000013E0F068DFF8E81280088000F060F0681F
:100510000840F06000F09FF907463068800106D57A
:1005200000F099F9C01B0328F7D3032000E0002056
:10053000BDE8F283306000F08EB9306820F480307E
:10054000306030687047B06800F00C007047306869
:1005500040F0080030603068216A20F0F000084365
:1005600030607068E16920F47F4040EA01207060EB
:1005700070472DE9F843DFF87C620446306888460E
:1005800000F00700404502D200F08DF864D12078D9
:10059000DFF84C72800705D5B868A16820F0F0003C
:1005A0000843B8602078C0074ED56068022802D1A1
:1005B0003968890308E0032802D13968890103E01A
:1005C0000028396802D1890702D445E0490543D59E
:1005D000B968890840EA8100B86041F2893900F0C1
:1005E0003AF90546606802280AD1B86800F00C00A4
:1005F000082829D000F02FF9401B4845F5D321E009
:1006000003280AD1B86800F00C000C281CD000F0B8
:1006100022F9401B4845F5D314E048B9B86810F0FA
:100620000C0F11D000F017F9401B4845F6D309E034
:10063000B86800F00C00042806D000F00CF9401B4C
:100640004845F5D3032022E0306800F007008045DC
:1006500004D200F028F801D0012018E020784007EB
:1006600005D5B868E16820F4E0600843B8602078F8
:10067000000706D5B868216920F4605040EAC1003F
:10068000B86000F01AF8BA6800F003F80020BDE87E
:10069000F2835949C2F30312515CC84051490860C2
:1006A0000F2000F0C1B83068C00848EAC0003060D0
:1006B000306800F007004045704749498B680022C8
:1006C000002013F00C0F09D08B6803F00C030C2BE7
:1006D00002BFCB6803F00303012B13D10A68120792
:1006E00004D4464A1268C2F3032202E00A68C2F345
:1006F0000312434B53F822208B6813F00C0F0ED1DA
:1007000010460CE08B6803F00C03042B08BF3D4837
:1007100005D08B6803F00C03082B08BF3A488B68A0
:1007200003F00C030C2B1ED1C868CB68C3F3021373
:100730005B1C00F00300022802D0032802D005E071
:10074000304800E03048B0FBF3F001E0B2FBF3F0DA
:10075000CA68C968C1F34161C2F30622491C50430B
:100760004900B0FBF1F0704770B5284E82B00546E5
:1007700030680024C00002D500F080F80EE0306838
:1007800040F080503060306800F080500090009859
:1007900000F074F8316821F080513160B0F5007FCD
:1007A00004D1812D0DD3A12D0AD305E0812D28BFC1
:1007B000032406D2802D01D1022402E0702D00D145
:1007C00001240C480168C90844EAC10101600068BD
:1007D00000F00700A04214BF0120002076BD0000F9
:1007E00000100240280000209010024000700040DD
:1007F000FFFFEEFE0020024038290008941002405E
:10080000482900080024F40000127A005810024021
:1008100080B5032000F047F80F2000F005F800F045
:1008200002F8002002BD704710B504461148006868
:100830004FF47A71B0FBF1F000F06EF8002221461F
:100840004FF0FF3000F03CF8002010BD0A4801686E
:10085000491C0160704708480068704738B5044675
:10086000FFF7F9FF0546FFF7F6FF401BA042FAD35A
:1008700031BD000028000020EC070020DFF8080050
:10088000006800F4C0607047007000400901002853
:1008900006D52B4A00F00F00801800F8041C7047A2
:1008A000284A8154704728490A684FF6FF031A40C6
:1008B00000F0070042EA0020244A10430860704715
:1008C00038B5214B1B68C3F30223C3F10704052C81
:1008D00028BF04241D1D072D34BF0023DB1E012566
:1008E00005FA04F4641E2140994005FA03F35B1EE7
:1008F0001A401143BDE83440C8E7012100F01F024F
:100900009140134A04E0012100F01F029140114A76
:10091000400942F82010704710B5401EB0F1807FAA
:1009200001D3012010BD0C4C60600F214FF0FF304F
:10093000FFF7ACFF0020A06007202060002010BD62
:1009400018ED00E000E400E00CED00E00000FA0526
:1009500000E100E080E100E010E000E030B58BB0A5
:100960001B208DF8180006AC00F090F9B420A0719F
:100970009A2000F06FF83A2000F066F86E2060735D
:100980003620A0730220E0730723DFF86854281D87
:100990000090012206A9022000F077FA00284AD12F
:1009A0001B208DF818000123C520607006AA00F0F6
:1009B0007FF9FC20A0718F2000F04CF84A20A07233
:1009C000CF20E072A0202073782060733E20A073B7
:1009D000E220E073A81D00F031F8002002900190A1
:1009E00010200090A88800F085FA20BB1B208DF80D
:1009F00018000623C520607006AA00F059F93620B9
:100A0000A071AC2000F026F84B2000F01DF81B2050
:100A100060730A20A0733420E07305F1080000F031
:100A20000DF8042002900020019012200090A88868
:100A300000F060FA00B147200BB030BD05900020F7
:100A40000490102003907047A072CF20E0728020A5
:100A500020737047E071E1202072112060727047AE
:100A6000E0B501688DF804100623016809128DF8BD
:100A70000510002241688DF80610416809128DF8B2
:100A8000071081688DF8081001A980680091001294
:100A90008DF80900D7480189808822E1F0B591B02E
:100AA0001B208DF830000CAC00F0F0F8D020A071C5
:100AB000822000F0B9F8402020731A206073822051
:100AC000A0734220E0730A23CA4D05F10A0000908A
:100AD00001220CA9022000F0D8F9002825D100F04D
:100AE000E0F8E320A071A92000F09EF820202073F8
:100AF000552060732E20A073A320E07305F10C0035
:100B000000F0B6F8002810D10E208DF828004FF024
:100B1000FF3642F22F70ADF82A0042F6041700F0BB
:100B20008DF8A98900F073F800286DD11B208DF88D
:100B30003000032300F0B9F80B20A071842000F0EE
:100B40006DF88B20A072E420E07280202073C42016
:100B500060732020A073CD20E07305F10E0000F03B
:100B600087F8002850D10F208DF828006FF004007E
:100B70008DF829004FF41E50ADF82A0000208DF8A2
:100B80002C00ADF82D000DF12600089000200790F4
:100B90001020069000200590012004900020039072
:100BA0000AA80290072001900090ADF82470E9890E
:100BB000688909AB012200F0EDF9002824D100F08A
:100BC00070F87320A071A02000F028F88C20A0728B
:100BD000E420E072602020730B206073C520A073B6
:100BE0000120E07305F1100000F042F860B9062022
:100BF0008DF828004FF41C50ADF82A0000F01EF8C4
:100C0000298A00F004F800B1472011B0F0BD6889CE
:100C1000ADF8247009AB012200F0BCB9E071E2200C
:100C20002072112060727047E071E2202072112062
:100C300060727720A072E420E072704700208DF887
:100C40002C00ADF82D000DF1260008900020079033
:100C500010200690002005900120049000200390B1
:100C60000AA802900720019000908DF82960704733
:100C70000590002004901020039004200290002092
:100C8000019002200090688900F034B9C52060709E
:100C9000D520A070A520E070022020710020607196
:100CA00070471B208DF830000223C52060700CAA0D
:100CB000D520A0700221A520E07002202071002024
:100CC0006071704701B582B000F010F8022381898D
:100CD00005E001B582B000F009F80323C18940891D
:100CE000002200F0B6F900B147200EBD02A941482C
:100CF0000091704701B582B0FFF7F8FF0223018A27
:100D0000EDE700B50FF2441189B00CC907A8002126
:100D10000CC0002000F0BFFB00200690059004905E
:100D20000390002307A802900022082001900021D0
:100D30000020009000F05BFC09B000BD2D480122AE
:100D40004261418070472B480021416101210170BF
:100D500000214170704730B5264C83B02189491C71
:100D6000884204D104F11800FFF77AFE3BE0A18924
:100D7000491C884211D100F00BFD054604F1180012
:100D8000FFF76EFE0F2080FB050100F039F800F53B
:100D9000877000B2FFF796FF25E0E189491C884281
:100DA00013D1154800680A21B0FBF1F1684600F044
:100DB0005FFD00F0EDFC4FF47A7100F01FF800F5D4
:100DC000C330A030FFF785FF0DE0218A491C88421F
:100DD00009D100F0DDFC642100F010F800F5E170AD
:100DE00080B2FFF787FF608810B1608800F09DF93E
:100DF00037BD000000000020F82A000881FB000138
:100E00006FF04042002300F047BD411C00780428E9
:100E10001AD10878052804D03E2803D0FF280AD02C
:100E2000704790E7881C017801290DD1401CB0F86B
:100E30000110401D82E7881C40F61442018891424F
:100E400004BF8088FFF787BF7047000009426C75B8
:100E5000654E524700B587B000F043F900F03BF90A
:100E600040F20110ADF80600002100F009F800285A
:100E70004CBFFF209DF8000007B000BDC0B2049039
:100E80000120069001A800F021BA70B58CB00128AD
:100E90008DF81C0014460CBF022610261D46324653
:100EA0000DF11D0000F06FFD701C07A9C0B20322F8
:100EB0004454441CE4B268466554002100F069FDC6
:100EC00000F00FF900F007F94FF4817000F0BBF863
:100ED000601CC0B204900320FFF7D3FF002848BF76
:100EE000FF2005D49DF8000010B9109900F049F8D2
:100EF0000CB070BDF1B58EB00D4616461F460222ED
:100F00000EA900F0FDF807AC012DA57031460CBF0D
:100F1000022510252A4600F0DAF8E81CC0B2411C70
:100F20000755C9B214980855491C1598C9B203222F
:100F30000855491C1698C9B20855491C1798C9B2DA
:100F40004D1C0855EDB21898285500F01FF800F018
:100F5000C8F800F0C0F84FF4827000F074F8681C14
:100F6000C0B204900320FFF78CFF002848BFFF2089
:100F700005D49DF8000010B9199900F002F80FB0DF
:100F8000F0BDBDF8010008800020704700216846D0
:100F900000F0FFBC73B5A8B014461D4600F0AEF8D3
:100FA00000F0B1F88DF82040012C0CBF0224102471
:100FB00000F09EF8611D07AD2E98C9B24855481C37
:100FC0002F9CC0B2461CF6B256FA84F14455491D16
:100FD0008129A8BF422034DA309907AB2246F018A5
:100FE00000F0D1FCA1193198C9B203224855491C1F
:100FF0003298C9B24855491C3398C9B24855491C62
:101000003498C9B24E1C4855F6B235987055FFF762
:10101000BDFF00F066F800F05EF840F2051000F049
:1010200012F8701CC0B204900320FFF72AFF0028BA
:1010300048BFFF2005D49DF8000010B93699FFF78E
:10104000A0FF2AB070BDADF80600002107A80390EC
:10105000704733B51C46A01DA7B081281546A8BF10
:1010600042201FDA022227A900F04AF8022228A90A
:1010700000F04BF82C998DF820508DF82140224635
:1010800000F012F800F02DF800F025F84FF483700E
:10109000FFF7D9FFA01DFFF7F1FE00284CBFFF208E
:1010A0009DF8000029B030BD0DF1220000F06BBCAE
:1010B0003F20ADF80800CDF818D070471822ADF8E1
:1010C0000400002102A800F064BC224619460DF17C
:1010D0001F0000F058BC3F20ADF80400CDF814D03C
:1010E00070471822002101A800F053BC8DF8204061
:1010F000224629460DF1210000F045BC022228A914
:1011000007A800F040BC022229A90DF11E0000F042
:101110003ABCADF80A00002101A804900220059015
:101120000120079002A800F0D1B800B589B0FFF700
:10113000C5FFFFF7BDFF40F22710FFF7EAFF0028C9
:101140004CBFFF209DF8000009B000BD38B5B14C80
:10115000201D00F028FC04F10C0000F024FC002508
:101160008C2010FB054000F11401201D00F031FC23
:101170006D1C052DF4DB31BD00F108010A78042A4D
:1011800001D00120704790F888008978C01E814204
:1011900014BF02200020704710B5A2B000200090BC
:1011A00000F0CDFD9B4C10E0694604F10C0000F00E
:1011B00026FC00F0C1FD00980830FFF726FE00F085
:1011C000BEFD0099201D00F004FC04F10C0000F0AD
:1011D000EDFB0028E8D0207850B90EE0802201A96C
:1011E0008D4800F00DFDC0B210B101A8FFF70DFE53
:1011F00000F0FCFC0028F1D1207000F09DFD22B031
:1012000010BD38B50020009000F09CFD824C814D4F
:1012100004E0281D00F0D3FB00F094FD00F0E6FC94
:1012200018B3281D00F0C2FBD8B96946281D00F08C
:10123000E6FB009800F108018022204600F0E0FC67
:10124000C0B200280099E4D081F888000098FFF728
:1012500093FF00280099DCD105F10C0000F0B9FBE8
:10126000DAE70120287000F06DFD31BD00F06EBCA2
:1012700030B5890583B0890D41EA8020ADF80400BE
:10128000144601208DF800001D468DF8064003220B
:1012900001A90DF1010000F076FB23460422294646
:1012A0006846FFF7E3FF37BD38B504460D4607E053
:1012B0006946284600F0A3FB0099204600F089FB10
:1012C000284600F073FB0028F2D031BD2DE9F04133
:1012D000044686B060884F4F884680052188800D7F
:1012E00040EA81254D4800680A21B0FBF1F6002054
:1012F0000090ADB202A800F056FBE068A3686188D8
:10130000C2B22088FFF7B4FFB8F1000F59D106B977
:101310000126314604A800F0ABFA05E0009902A8C6
:1013200000F057FB00F008FD04A800F0A9FA00281F
:1013300067D107F10C0000F039FB0028F4D100F070
:10134000FEFC694607F10C0000F059FB009800F123
:10135000080210780428E1D10098527800F10B01BE
:1013600090F88800C01E0E2A37D00F2A04D0102A09
:1013700047D03E2A38D008E04A88AA4241D1626864
:101380000F2A15D0087800283BD1009902A800F058
:1013900020FB381D00F00AFB0028C3D001A907F18B
:1013A0000C0000F02CFB0199381D00F012FBB9E78E
:1013B00062699042C8BF104660610246206900F031
:1013C000E2FA0099381D00F0FAFA00F029F800F06E
:1013D000B3FC002006B0BDE8F081B1F80120AA42BC
:1013E0000FD1C91CC01EE3E70A7863689A42CCD1CA
:1013F0006269401E9042C8BF104660610246491CA7
:10140000DCE700F00DF800F097FC4FF0FF30E1E76B
:1014100000000000B804002088070020F82A000817
:1014200002A907F10C003FE7F0B589B000F024F8FD
:1014300000F06BF800F074F8042000F077F8012059
:1014400000F01FF8002848BFFF2013D49DF80000CB
:1014500080B99DF801002070BDF8020028809DF839
:1014600004003070BDF8050038800E99BDF8070003
:101470000880002009B0F0BD04460D4616461F4600
:101480007047ADF80E00002100200590069009205D
:10149000089003A81AE730B58FB000F01DF88DF85A
:1014A0001C40202CA8BF1F2400F010F800F01BF8EF
:1014B00000F024F8092000F01BF800F02BF80028B9
:1014C0004CBFFF209DF800000FB030BD22462946DA
:1014D0000DF11D0000F057BA04460D4620220021F0
:1014E00007A800F056BA1822002101A800F051BA4E
:1014F000ADF80600002107A8039070470820ADF85A
:101500000400CDF814D07047044609220021684633
:1015100000F03FBA202004900120069001A8D5E6F3
:101520001822002103A800F034BA0820ADF80C00FE
:10153000CDF81CD0704710B58AB08DF800008DF83A
:1015400001108DF802201C46072200F008F900F077
:10155000C0F800F012F98A20ADF80E000021032037
:10156000069001A80790072000F0AFF8002848BFB8
:10157000FF200ED49DF8040058B9BDF80500208066
:101580000C99BDF8070008800D99BDF80900088086
:1015900000200AB010BD70B58AB00C468DF8080066
:1015A00015461E46072200F0CFF800F092F800F032
:1015B000DAF88A20ADF80E00002102A8059001207B
:1015C0000690072000F081F8002848BFFF200CD4C7
:1015D0009DF8000048B9BDF801002080BDF8030067
:1015E0002880BDF80500308000200AB070BD76B5B7
:1015F00092B000F04FF828BF42201BD200F052F802
:1016000000F02AF89DF8600000F02CF800F035F8A2
:1016100000F01AF800F010F800F0A0F800F098F8C8
:10162000832000F047F800F0AEF800284CBFFF2000
:101630009DF8000014B070BDA41CE4B207A80222FB
:101640001EA9201800F09FB96419E4B207A802226D
:101650001DA9201800F097B9022213A90DF11F004F
:1016600000F091B91A998DF822008DF821608DF85B
:1016700023502A4609A800F086B905F10800C0B237
:1016800007A9451C4454EDB21C9907A82246281806
:1016900000F079B9199D1B9C54FA85F10E31292966
:1016A0001E4670478DF81C00022212A90DF11D0084
:1016B00000F069B9ADF80600002107A80390A01C4E
:1016C000C0B20490704706900120089003A8FFF76D
:1016D000FDBD1822002103A800F05BB930B58FB022
:1016E0008DF81C008DF81D1014461D461022214651
:1016F00000F03FF8129814998DF82F008DF82E50B5
:10170000182213988DF830000DF13100016000218E
:1017100015988DF8350001A800F03BF900F018F895
:10172000862000F00BF81A20049000F02CF8002816
:101730004CBFFF209DF800000FB030BDADF8060093
:10174000002107A8039070470021684600F021B9E6
:101750003F20ADF80400CDF814D0704718220021C6
:1017600001A800F016B93F20ADF80C00CDF81CD050
:1017700070470DF11E0000F006B93F20ADF80C00D7
:10178000CDF814D070470120069001A8FFF79EBD48
:10179000F8B5344F384600F0F3FA0446381D00F02F
:1017A000EFFA054607F1080000F0EAFA064607F1ED
:1017B0000C0000F0E5FA23782B492C4A002B40D18D
:1017C0002B6802FB03132B60082702FB03132B601B
:1017D00002FB03132B6002FB03132B6002FB0313BA
:1017E0002B6002FB03132B6002FB03132B6002FB35
:1017F00003132B600346D5F800C002FB0C1CC5F890
:1018000000C043F804CB7F1ED5F800C002FB0C1CBF
:10181000C5F800C043F804CBD5F800C002FB0C1C8F
:10182000C5F800C043F804CBD5F800C002FB0C1C7F
:10183000C5F800C043F804CBDDD1C36F336001238A
:1018400023702B6802FB03112960317801F01F011E
:1018500050F8212032602A6840F82120306880004A
:101860008008F2BD2C0000205FF36E3C0D6619006D
:1018700010B504466160FFE700F083FA206010BDF8
:1018800010B5044600F07DFA22686168801A401C99
:1018900081428041C00F10BD1B4213D1094236D195
:1018A0002AB18446B0FBF2F002FB10C2704700F090
:1018B0006BBAFCD30022002370470B00020000210A
:1018C00000207047904271EB030CF6D370B5B1FA6B
:1018D00081F4B3FA83F52C1BA340C4F1200532FA3E
:1018E00005F63343A2405FF00046E64002E05B08A5
:1018F0005FEA3202841A71EB030524BF20462946B1
:101900007641F4D302000B003000002170BD012AA3
:10191000CFD970B5140C20D0B1FA81F4B2FA82F5A7
:10192000C4F120046419B4F12006D6D3B2405FF0AC
:101930000044F440002502E052085FEA3303C61A6F
:1019400071EB020E24BF3046714664416D41F3D302
:1019500002000B002000290070BD0C46B1FBF2F123
:1019600002FB11452D0445EA1045B5FBF2F402FBDC
:10197000145580B240EA0545B5FBF2F002FB105267
:1019800040EA044070BD10B5044600F0FFF920465F
:1019900010BD10B5044610460A460146204600F028
:1019A00031FA204610BD006040607047EFF31081AF
:1019B00072B6026882420CBF012000201CE0EFF3E7
:1019C000108272B603680B6048600160086841606D
:1019D00029E0EFF3108272B6086043684B60416003
:1019E000486801601FE0EFF3108172B64368026837
:1019F0001A6042680068426081F31088704738B509
:101A00000C46EFF3108572B6016821600068FFE7AD
:101A1000FFF7E9FF2168002008602168486085F32E
:101A2000108831BD086082F3108870470068C7498C
:101A3000884200D0704700B5C54887B0016841F0C2
:101A400001010160016801F0010100910099016844
:101A500041F002010160016801F00201009100996A
:101A600000F061F800F05FF8416941F48051416194
:101A700001A9406900F48050009000984FF48070F4
:101A8000019001200290039000200490059000F046
:101A900049F900224FF4807100F04AF908200190C2
:101AA00001A90220029003900320049005200590D4
:101AB000A84800F0DBF9402000F027F8802000F073
:101AC00024F80220019001A90120029000F014F8EE
:101AD00000F02CF90120019001A99F4802900020FC
:101AE00000F00AF8002203210620FEF7E9FE062096
:101AF000FEF703FF07B000BD039003200490002011
:101B000005904FF0904000F0B1B9019001A902207A
:101B100002900020039003200490052005904FF0D0
:101B2000904000F0A3B9016841F001010160016833
:101B300001F0010100910099016841F0010101608B
:101B4000016801F001010091009970472DE9F04111
:101B500004468248DFF8088284B00D4600680A21F6
:101B6000B0FBF1F116461F4601A8FFF781FEF8B25F
:101B70000090F3B22A462146404600F087F820B193
:101B800001A8FFF77DFE0028F1D0BDE8FF81744871
:101B90006E4901604FF482714160002181604FF411
:101BA000E061C1600021016141614FF40071816118
:101BB0000021016241620721C1620821C161002147
:101BC000816200F05BBA80B500224FF4807100F0B2
:101BD000AFF80520FEF742FE01224FF4807100F0BD
:101BE000A7F8BDE802400520FEF738BE80B5012108
:101BF0004FF0904000F018FA012818BF002002BDF5
:101C00002DE9F04186B005460E46FF2017468DF8B7
:101C1000050004A80FF250110CC90CC0002200F0FE
:101C200086F80F200090052302AA04A900F077F897
:101C30009DF808000024022819D19DF80C009DF899
:101C40000B1051EA002812D047450DDAB8460BE0D8
:101C50000F200090012301AA0DF1050100F05FF8AB
:101C60009DF80400A055641CE4B24445F0DB00F08C
:101C70005DF8002002E000BF0098401C0090009832
:101C80000228F8DB204606B0BDE8F0812DE9F043DC
:101C9000884691461E460FF2D801C5B005460CC9CC
:101CA00003A80FF2D4010CC00CC901A800270CC076
:101CB0000620FEF728FE002200F039F80F200090E1
:101CC000052301AA03A900F02AF89DF804000228C0
:101CD0001AD14C9C9DF8050054FA86F1884210DB1D
:101CE00036B10F200090334605AA414600F017F8A0
:101CF00064B10F200090234605AA494600F00FF872
:101D000004E06FF0010701E04FF0FF3700F00EF83C
:101D10000620FEF7F2FD384645B0BDE8F0832846C0
:101D200000F012BA4FF0904000F0A0B8012202215A
:101D30004FF0904000F07EB90620FEF7DEBD062091
:101D4000FEF7E1BD074901200860704700300140FF
:101D50004C1002400004004800001110F82A00084E
:101D600088070020140401400B0000000000000060
:101D70000A00000000000000AA00000000000000AF
:101D80007047FEF768BD00007047000062B38B0724
:101D900008D0521E11F8013B00F8013B00F02480EE
:101DA0008B07F6D1830740F0208000BF103A07D39D
:101DB00030B4B1E83810103AA0E83810F9D230BC8D
:101DC000530724BFB1E80810A0E8081044BF51F839
:101DD000043B40F8043BD20724BF31F8022B20F823
:101DE000022B44BF0B7803707047083A07D3B1E861
:101DF0000810083A40F8043B40F804CBF7D25307E8
:101E0000E4E7000062F30F2262F31F42401810F073
:101E1000030308D0C91A1FD3DB0748BF00F8012D00
:101E200028BF20F8022D130030B41446154610398F
:101E300028BF20E93C00FAD8490728BF20E90C0058
:101E400048BF40F8042D890028BF20F8022D48BF64
:101E500000F8012D30BC7047C91818BF00F8012DDB
:101E6000CB0728BF00F8012D704700002DE9F84787
:101E70000022784BDFF8E081DFF8E0914FF00F0AA5
:101E800030E005FA0EFE4EEA040448F82C406FEAF2
:101E9000070C1C680CEA040E4C68E40348BF47EAD0
:101EA0000E0EC3F800E05C680CEA040E4C68A40354
:101EB00048BF47EA0E0EC3F804E09C680CEA040E23
:101EC0004C68E40248BF47EA0E0EC3F808E0DC683D
:101ED0000CEA040C4C68A40248BF47EA0C0CC3F897
:101EE0000CC0521C0F6837FA02F400F09B804FF0D0
:101EF000010C0CFA02F42740F3D04D68022D18BFF4
:101F0000122D11D1D50800EB850C02F00706DCF884
:101F100020504FEA860E0AFA0EF6B5430E6906FA0D
:101F20000EF63543CCF820504FEA420C03260568E4
:101F300006FA0CF66FEA060E0E7906F003060EEAB4
:101F4000050506FA0CF635430560E4434D68012D9E
:101F500018BF022D03D0112D18BF122D0FD1856887
:101F6000CE680EEA050506FA0CF63543856045682D
:101F70004E68C6F3001625409640354345604D68CF
:101F800005F00306032E06D1C66AC5F3C00534402A
:101F900095402C43C462C4680EEA040E8C6804FAAF
:101FA0000CF444EA0E04C4604C68E40099D5D9F8F6
:101FB000004044F00104C9F800404FEA920CD9F8FF
:101FC000004004F00104009402F00305009C58F85E
:101FD0002C404FEA850E0AFA0EF5AC43B0F1904F53
:101FE00008BF00251DD01E4DA84208BF012518D0EE
:101FF0001C4DA84208BF022513D01B4DA84208BFA4
:1020000003250ED0194DA84208BF042509D0184D4C
:10201000A84208BF052504D0164DA8420CBF0625CE
:1020200007252EE7BDE8F1870069084018BF0120A9
:10203000C0B27047002A14BF8161816270470E4AA6
:102040001368034200D1704780B5106000F047FA72
:1020500001BD000000040140080001406010024082
:102060000004004800080048000C00480010004828
:1020700000140048001800481404014070B5040022
:1020800001D1012070BD04F15C05687818B9287091
:102090002046FFF7CBFC0220687040F2017300F08D
:1020A000FDF9E2689A4204D30021B2F5706F05D1C0
:1020B00006E0B2F5E06F4FF4805101D00026A66231
:1020C000266B26B99A422CBF022201222263626843
:1020D000A3681A4323691A4363691A43A36903F483
:1020E00000731A43E3691A43236A1A43A36A1A4323
:1020F0000260226B022A03D1026842F4006202608D
:10210000A269636A120C02F004021A43636B1A4359
:10211000E3681A4311434160E16A0161002068608D
:1021200001206870002070BD3B460122012130462D
:1021300000F034B901684DF6FF721140016001688A
:1021400041F40051016070472DE9F84F0646894679
:1021500092469B46FEF77FFB06F15C0480462078A2
:102160000025012808BF022000F0F6800120207021
:102170006078012818BF022540F0E980B9F1000F0E
:102180001CBFBAF1000FBBF1000F00F0DF8005208B
:1021900006F1380760706560C7F808A0A7F80EB0B0
:1021A000A7F80CB0C7F80090A7F806B0A7F804B0DD
:1021B00000F0E0F802D13068FFF7BCFF40F2017197
:1021C000F068884202D2F889022804DB306842684D
:1021D00022F4805203E03068426842F48052426048
:1021E00030680268520603D4026842F0400202607E
:1021F000F068DDF8289088423AD3F98889B9F889DF
:10220000F8B900F0B7F840F08B804B46FFF78DFF30
:1022100000287CD1F1683068B1F5706F6ED1C0686C
:102220007CE03068826892070BD500F097F8491E71
:10223000F98089B2002904BFB16AB1F5005F00F0EE
:10224000A7F8F88958B130688168C90707D5B96817
:10225000C0680880881CB860F889401EF88119F1B0
:10226000010FCAD0FEF7F7FA00F08EF8C5D343E0AD
:10227000F98811B9F889C0B9C3E730688268920754
:1022800013D5022903DB00F069F8891E04E03968E0
:1022900000F074F8F988491EF980F988002904BF14
:1022A000B16AB1F5005F00F073F8F989E1B1306807
:1022B0008268D20718D5BA6802290EDBC16811807E
:1022C000911CB960F989891EF98189B202290BDA5A
:1022D000416841F48051416006E0511CB960007BC7
:1022E0001070F889401EF88119F1010FC0D0FEF777
:1022F000B2FA00F049F8BBD3032528E000F034F827
:10230000306B02280CD14B46FFF70FFF20B16068FD
:1023100040F002006060EFE73068007B00F025F8D5
:1023200030688168C90607D5616841F002016160C3
:1023300001254FF6EF7181604946304600F0B4F850
:1023400010B12020606001E0606800B1012501202B
:102350006070002020702846BDE8F28F3A6832F89D
:10236000023BC3603A607047007BADF80000BDF8E7
:1023700000007047B06AB0F5005F7047491C3960D3
:10238000491E097801737047A0EB08004845704763
:1023900003D1016841F48051016070472DE9F0419B
:1023A00004460D4690461F46FEF755FA064620683D
:1023B00080682840404516D017F1010FF7D027B1AB
:1023C000FEF749FA801BB842F1D300F043F807D179
:1023D000A168B1F5004F18BFB1F5806F00F043F868
:1023E00000F047F800E00020BDE8F0812DE9F04161
:1023F00082B004460D4616461F46FEF72CFA80466C
:10240000206881682940B14221D0B5F5C06F08BF6E
:10241000002E04D1007B8DF800009DF8000017F11C
:10242000010FEDD02FB1FEF716FAA0EB0800B8426D
:10243000E6D300F00FF807D1A168B1F5004F18BF3F
:10244000B1F5806F00F00FF800F013F800E0002005
:10245000BDE8F6812068416821F0E00141606168D3
:10246000B1F5827F704703D1016821F0400101601E
:102470007047A16AB1F5005F08D101684DF6FF729F
:1024800011400160016841F40051016004F15C00F9
:10249000012141700021017003207047206801680C
:1024A00021F040010160704738B50D4604462B46C7
:1024B00000224FF4C051FFF799FF10B900F00AF85D
:1024C00008B100F001F832BD206E40F02000206617
:1024D000032070472B460022802120465EE7FEF74E
:1024E00090BE000010B50FF248114A4C8CB00CC9D8
:1024F00009A80CC0FEF78CF90021002000F09CF820
:1025000000F0F2F8FFF743FBFEF720FEFFF75BFB5E
:1025100006A904A800F040F9FFF755FB9DF810004C
:10252000312804DB0120207002208DF829000622CA
:1025300009A907A8FFF727FA07AA0621002000F03B
:1025400056F9FEF787FC207801280CD10DF1160012
:10255000019005AB0DF1120000900722002101202F
:10256000FEF7E9FF07E00DF116030DF1120205A9D0
:102570000120FFF710F80FF2B000BDF81210009024
:102580000723BDF814000022FEF763FD00B1FEE74B
:102590000120039007232048204C029000220020B5
:1025A00001900021102000900120FFF797F8FEF71E
:1025B000D5F9FEF773FA0421012000F043F9FEF784
:1025C000EBFD204600F001F8F9E738B5144D04465C
:1025D000287818B1FEF795FB00202870002000F045
:1025E0006BF8A8B9002000F067F80028FAD00D4871
:1025F000006868B1206864302060606864306060A2
:10260000A0686430A0602046BDE83240FEF728BADA
:1026100031BD0000F407002040E201001800002056
:102620000000002014000020426C75654E524700E7
:10263000123400E18003000030B587B004460D4637
:1026400000F044F854B9DFF88C00016841F004014F
:102650000160006800F0040000900098DFF8780046
:102660000FF27C013DB931F8141001910021029163
:1026700000F01AF816E0012D14D131F81410019170
:10268000DFF858100291002100F00EF80FF254000C
:1026900030F8144000220F2160B2FEF711F960B249
:1026A000FEF72BF907B030BD03910221049101A977
:1026B00050F82400FFF7DABB0FF22401DFF81820EE
:1026C00031F8101052F82000FFF7AEBC01A8142119
:1026D00000F0EEB84C100240240000200000211051
:1026E000002000002800000000B595B068461421C5
:1026F00000F0DEF80FF2600105A891EC100B80EC01
:10270000100B1020059001200B9060200D900020F0
:102710000C9002200E9001200F9010902820119014
:1027200002201490072012900420139005A8FDF7B2
:102730002BFD00B1FEE70F20009004210320019043
:1027400000200290039004906846FDF712FF00B14C
:10275000FEE715B000BD0000000000000000000012
:102760000000000000000000000000000000000069
:102770000000000000000000000000000000000059
:102780000000000000000000000000000000000049
:10279000000000000000000070B584B0064601A8EB
:1027A00000900C460DF10A0302AA0DF106010DF18D
:1027B0000900FEF739FEC5B2A5B9BDF80600000A4A
:1027C0003070BDF8060000022080BDF80410090634
:1027D000090F40EA01102080BDF8041001F00F013C
:1027E00008432080FEF7D8FC284604B070BD10B521
:1027F0000C461146A21CA8B0812AA8BF42201FDAAD
:102800008DF81C008DF81D4022460DF11E00FFF7CB
:10281000BAF800F03BF800F033F80C20ADF80600F1
:10282000002107A80390A01CC0B2049001200690CC
:1028300001A8FEF74BFD00284CBFFF209DF80000CB
:1028400028B010BD00B589B08DF804008DF80510D2
:102850001822002102A8FFF79CF800F022F80F20B0
:1028600000F019F8022005900120079002A8FEF759
:102870002DFD00284CBFFF209DF8000009B000BDD1
:102880003F20ADF80400CDF814D070471822002185
:1028900001A8FFF77EB8ADF80A00002101A8049056
:1028A00070473F20ADF80800CDF818D07047000001
:1028B000002200F001B8000000B500BF13009646EA
:1028C0009446103928BFA0E80C50FAD85FEA417C42
:1028D00028BF0CC048BF40F8042BC90728BF20F808
:1028E000022B48BF00F8012B00BD00000E480F4A24
:1028F000016841F4700101600D48016841F0010177
:102900000160002181600168114001604FF4805135
:10291000C160016821F480210160002181614FF0D4
:10292000006004490860704788ED00E0FFFFF6EAA8
:102930000010024008ED00E0000000000000000070
:102940000102030406070809A0860100400D0300E8
:10295000801A060000350C0040420F0080841E00E3
:1029600000093D0000127A000024F40000366E01D8
:102970000048E801006CDC0219E050F8041BCB07AA
:1029800044BFA9F101035918121F0023042A41F87A
:10299000043BF9D25FEA827C0B4604D54FF0000C71
:1029A000A1F800C09B1CD10744BF0021197050F84A
:1029B000042B002AE1D170477047FEE7704770474B
:1029C000704780B5FDF742FF08480168491C016067
:1029D00001BD0120FFF733BB80B54FF40050FFF776
:1029E0002EFB03490120087001BD0000F007002004
:1029F000F507002030B5016842688468091801EBCA
:102A00005203D20748BF4C440C30994200D130BD2C
:102A100011F9012B11F8015B002A04F8015B02D5C2
:102A2000521CF9D1F1E7521EF4D5EEE710B5074973
:102A300079441831064C7C44163404E00A68081DB9
:102A4000511888470146A142F8D110BD2C00000062
:102A5000480000004EF68851CEF20001086840F4AC
:102A600070000860BFF34F8FBFF36F8F4FF000709F
:102A7000E1EE100A7047000001FFFFFF4003000075
:102A8000B8040020000000006DFFFFFFB801000047
:102A9000260000000000002000F00BF8002801D004
:102AA000FFF7C4FF0020C046C046FFF71BFD00F043
:102AB00002F80120704700F001B8000007463846D0
:102AC00000F002F8FBE7000080B5C046C046024AAD
:102AD00011001820ABBEFBE726000200014880472A
:102AE00001480047ED280008ED2A0008C046C0460E
:102AF000FFF7B0FFFFF7D0FFE8030000FFF7FEBFCE
:102B0000FFF7FEBFFFF7FEBFFFF7FEBFFFF7FEBFF9
:102B1000FFF7FEBFFFF7FEBFFFF7FEBFFFF7FEBFE9
:102B2000FFF7FEBFFFF7FEBFFFF7FEBFFFF7FEBFD9
:102B3000FFF7FEBFFFF7FEBFFFF7FEBFFFF7FEBFC9
:102B4000FFF7FEBFFFF7FEBFFFF7FEBFFFF7FEBFB9
:102B5000FFF7FEBFFFF7FEBFFFF7FEBFFFF7FEBFA9
:102B6000FFF7FEBFFFF7FEBFFFF7FEBFFFF7FEBF99
:102B7000FFF7FEBFFFF7FEBFFFF7FEBFFFF7FEBF89
:102B8000FFF7FEBFFFF7FEBFFFF7FEBFFFF7FEBF79
:102B9000FFF7FEBFFFF7FEBFFFF7FEBFFFF7FEBF69
:102BA000FFF7FEBFFFF7FEBFFFF7FEBFFFF7FEBF59
:102BB000FFF7FEBFFFF7FEBFFFF7FEBFFFF7FEBF49
:102BC000FFF7FEBFFFF7FEBFFFF7FEBFFFF7FEBF39
:102BD000FFF7FEBFFFF7FEBFFFF7FEBFFFF7FEBF29
:102BE000FFF7FEBFFFF7FEBFFFF7FEBFFFF7FEBF19
:102BF000FFF7FEBFFFF7FEBFFFF7FEBFFFF7FEBF09
:102C0000FFF7FEBFFFF7FEBFFFF7FEBFFFF7FEBFF8
:102C1000FFF7FEBFFFF7FEBFFFF7FEBFFFF7FEBFE8
:102C2000FFF7FEBFFFF7FEBFFFF7FEBFFFF7FEBFD8
:102C3000FFF7FEBFFFF7FEBFFFF7FEBFFFF7FEBFC8
:102C4000FFF7FEBF0001DC000508004800093DFB5E
:072C50000000018100F80003
:00000001FF
