:020000040800F2
:10000000B8040020E93D0008993B00089B3B00082C
:10001000093E00080D3E0008113E000800000000E7
:100020000000000000000000000000009D3B0008F0
:100030009F3B000800000000A13B0008A33B000814
:10004000153E0008193E00081D3E0008B33B00089D
:10005000213E0008253E0008B73B0008293E000865
:100060002D3E0008313E0008353E0008393E0008AC
:10007000D53B0008F93B00083D3E0008413E000822
:10008000453E0008493E00084D3E0008513E00082C
:10009000553E0008593E00085D3E0008613E0008DC
:1000A000653E0008693E00086D3E0008713E00088C
:1000B000753E0008793E00087D3E0008813E00083C
:1000C000853E0008893E00088D3E0008913E0008EC
:1000D000953E0008993E00089D3E0008A13E00089C
:1000E000BD3B0008A53E0008A93E0008AD3E000843
:1000F000B13E0008B53E0008B93E0008BD3E00080C
:10010000C13E0008C53E0008C93E0008CD3E0008BB
:10011000D13E0008D53E0008D93E0008DD3E00086B
:10012000E13E0008E53E0008E93E0008ED3E00081B
:10013000F13E0008F53E0008F93E0008FD3E0008CB
:10014000013F0008053F0008093F00080D3F000877
:10015000113F0008153F0008193F00081D3F000827
:10016000213F0008253F0008293F00082D3F0008D7
:10017000313F0008353F0008393F0008000000000B
:100180003D3F0008413F00082DE9F8430446DFF8F1
:1001900058562078DFF84866C00626D5B06810F0BB
:1001A0000C0F3AD13068800702D5A069002832D000
:1001B000306800074EBF30686868000900F0F00141
:1001C000206A814206D200F0CFFA002823D100F045
:1001D000BEF905E000F0BBF9206A00F0C5FAD0B91D
:1001E00000F06BFAB26800F054FA2078C00774D5BA
:1001F00000F0A9F9082808D000F0A5F90C2802BFE2
:10020000F06800F0030003282AD13068800364D529
:100210006068002861D101208AE1A0690028306867
:1002200010D040F0010000F085F9074630688007E3
:1002300005D400F0FEFAC01B0328F7D375E100F0E7
:1002400086F9D2E74008400000F074F907463068AC
:100250008007CAD500F0EDFAC01B0328F7D364E18C
:1002600000F06BF920F4802000F064F90746306854
:10027000800305D500F0DDFAC01B6528F7D354E1F3
:100280006068B0F5803F07D0B0F5A02F00F055F9B9
:1002900006D140F480203060306840F4803001E0C6
:1002A00020F480203060606858B100F0C2FA074640
:1002B0003068800311D400F0BCFAC01B6528F7D366
:1002C00033E100F0B6FA07463068800305D500F048
:1002D000B0FAC01B6528F7D327E12078800719D52D
:1002E00000F031F9042808D000F02DF90C2802BFE5
:1002F000F06800F00300022822D13068400502D5E2
:10030000E068002887D07068216920F0F85040EA42
:10031000016070602078000741D560690028686836
:100320002ED040F00100686000F083FA074668684C
:10033000800734D400F07DFAC01B0328F7D3F4E023
:10034000E068002830680DD040F4807000F0F2F8CA
:10035000074630684005D6D400F06BFAC01B03286E
:10036000F7D3E2E020F4807000F0E4F8074630684C
:100370004005CFD500F05DFAC01B0328F7D3D4E0C9
:1003800040084000686000F054FA0746686880073B
:1003900005D500F04EFAC01B0328F7D3C5E020783E
:1003A000400766D5B06DC0004FF000080AD4B06DAC
:1003B00040F08050B0654FF00108B06D00F0805003
:1003C00000900098DFF82494D9F80000C00512D4FA
:1003D000D9F8000040F48070C9F8000000F029FA54
:1003E0000746D9F80000C00505D400F022FAC01B6A
:1003F0000328F6D399E0A06801280CD008B9286832
:100400000DE0052828680AD14008400028602868C7
:1004100040F004002860286840F0010005E0400832
:1004200040002860286820F00400286041F28939E3
:10043000A06858B100F0FDF907462868800711D47C
:1004400000F0F7F9C01B4845F7D36EE000F0F1F972
:1004500007462868800705D500F0EBF9C01B484522
:10046000F7D362E0B8F1000F03D0B06D20F08050F8
:10047000B065606A00285AD0B16801F00C010C29FF
:100480003FF4C9AE0228306820F08070306038D167
:1004900000F0CFF907463068800105D500F0C9F9B2
:1004A000C01B0328F7D340E0E06A216B401E09021D
:1004B00041EA0010616B090940EA4140A16A084322
:1004C000A16B891E0905490D40EA4150E16B891E67
:1004D000090601F07E410843F060306840F080700A
:1004E0003060F06840F08070F06000F0A2F90746DC
:1004F000306880011BD400F09CF9C01B0328F7D39F
:1005000013E0F068DFF8E81280088000F060F0681F
:100510000840F06000F08DF907463068800106D58C
:1005200000F087F9C01B0328F7D3032000E0002068
:10053000BDE8F283306000F07CB9306820F4803090
:10054000306030687047B06800F00C007047306869
:1005500040F0080030603068216A20F0F000084365
:1005600030607068E16920F47F4040EA01207060EB
:1005700070472DE9F843DFF87C620446306888460E
:1005800000F00700404502D200F08DF864D12078D9
:10059000DFF84C72800705D5B868A16820F0F0003C
:1005A0000843B8602078C0074ED56068022802D1A1
:1005B0003968890308E0032802D13968890103E01A
:1005C0000028396802D1890702D445E0490543D59E
:1005D000B968890840EA8100B86041F2893900F0C1
:1005E00028F90546606802280AD1B86800F00C00B6
:1005F000082829D000F01DF9401B4845F5D321E01B
:1006000003280AD1B86800F00C000C281CD000F0B8
:1006100010F9401B4845F5D314E048B9B86810F00C
:100620000C0F11D000F005F9401B4845F6D309E046
:10063000B86800F00C00042806D000F0FAF8401B5F
:100640004845F5D3032022E0306800F007008045DC
:1006500004D200F028F801D0012018E020784007EB
:1006600005D5B868E16820F4E0600843B8602078F8
:10067000000706D5B868216920F4605040EAC1003F
:10068000B86000F01AF8BA6800F003F80020BDE87E
:10069000F2835949C2F30312515CC84051490860C2
:1006A0000F2000F0CBB83068C00848EAC0003060C6
:1006B000306800F007004045704749498B680022C8
:1006C000002013F00C0F09D08B6803F00C030C2BE7
:1006D00002BFCB6803F00303012B13D10A68120792
:1006E00004D4464A1268C2F3032202E00A68C2F345
:1006F0000312434B53F822208B6813F00C0F0ED1DA
:1007000010460CE08B6803F00C03042B08BF3D4837
:1007100005D08B6803F00C03082B08BF3A488B68A0
:1007200003F00C030C2B1ED1C868CB68C3F3021373
:100730005B1C00F00300022802D0032802D005E071
:10074000304800E03048B0FBF3F001E0B2FBF3F0DA
:10075000CA68C968C1F34161C2F30622491C50430B
:100760004900B0FBF1F0704770B5284E82B00546E5
:1007700030680024C00002D500F0C2F90EE03068F5
:1007800040F080503060306800F080500090009859
:1007900000F0B6F9316821F080513160B0F5007F8A
:1007A00004D1812D0DD3A12D0AD305E0812D28BFC1
:1007B000032406D2802D01D1022402E0702D00D145
:1007C00001240C480168C90844EAC10101600068BD
:1007D00000F00700A04214BF0120002076BD0000F9
:1007E00000100240280000209010024000700040DD
:1007F000FFFFEEFE00200240803C00089410024003
:10080000903C00080024F40000127A0058100240C6
:1008100080B5032000F0E9F90F2000F00FF800F098
:1008200002F8002002BD704703480168491C0160BE
:100830007047014800687047A409002000207047F5
:1008400038B5FFF7E5FF00F025FA00F087FA01213F
:10085000002000F085FB9A4C9A4DE06B40F00100BF
:10086000E063206840F080502060206800F08050F5
:100870000090009800F0C2FB00F0C0FBA06B20F4D9
:10088000407040F40070A063A06B40F40040A0638F
:100890008D482860002085F82000012085F821007F
:1008A000284600F0F5FB0120A86047F6FF70E860DD
:1008B000284600F005FC2968CA20486253202968B0
:1008C00048620321284600F06BFCE06BC0F3400057
:1008D0000028FAD0284600F0AAFD002301227B4917
:1008E000002000F0FFFD0621022000F075FE00F060
:1008F00015FF00F003F800F07FF8FCE710B50FF2E9
:10090000F811734C8CB00CC909A80CC001F0DAF9CD
:1009100000F043FF01F0EEF906A904A801F0C0FBC6
:1009200000F03BFF9DF81000312804DB012020700F
:1009300002208DF82900062209A907A801F0DBFB97
:1009400007AA0621002001F0E6FB01F044FC207814
:1009500001280CD10DF11600019005AB0DF112002C
:10096000009007220021012001F0B1FD07E00DF108
:1009700016030DF1120205A9012001F0D8FD0FF2B6
:100980007010BDF8121000900723BDF8140000226B
:1009900001F020FD00B1FEE70120039007234D4840
:1009A00002900022002001900021102000900120E0
:1009B00001F060FE01F0BAFE01F059FF04210120B0
:1009C00001F0D4FB0CB010BD72B643494A68012354
:1009D00003FA00F0104307E072B63F494A6801236A
:1009E00003FA00F022EA0000486062B67047002077
:1009F000EAE700BF0120E7E710B5374C2079800710
:100A000007D5207828B90120FFF7E6FF334800F02A
:100A100016F82079C00705D5207818B9FFF7DCFF54
:100A200001F0C9F972B6606828B18008800004BF7F
:100A30002078012801D100F0FCFD62B610BD70B530
:100A4000274D0446287860B1204E307800F078FDBC
:100A500002F041F80020287043F60161307800F080
:100A60008CFD20480168B1B1002101601E4800687A
:100A700058B1206864302060606864306060A068AD
:100A80006430A060204601F0D3FEBDE8704006212E
:100A9000022000F0A1BD70BD20B1022818BF0328BC
:100AA00003D000E0A6E7100000D010477047A3E78E
:100AB000411E89410848C90F0170704700000000BD
:100AC000581002405009002000280040B0090020C2
:100AD000B109002040E20100940900201800002024
:100AE00000000020AC0900201400002001F0A4B890
:100AF000426C75654E524700123400E180030000DD
:100B0000DFF8BC00006800F4C06070472C48016842
:100B100041F480410160704729482A4A016821F464
:100B20008041016028490968B1FBF2F1322251434A
:100B300000E0491E11B142699205FAD4406980056E
:100B40004CBF0320002070471D490A68D208D2001C
:100B50000A6001281D490A6842F004020A600FBFBA
:100B600030BF40BF20BF20BF11E015490A68D2083E
:100B7000D20042F001020A60012814490A6842F0DA
:100B800004020A600FBF30BF40BF20BF20BF08680B
:100B900020F004000860704709490A68D208D200B2
:100BA00042F002020A60012808490A6842F0040281
:100BB0000A600FBF30BF40BF20BF20BFE7E7000083
:100BC0000070004040420F002800002010ED00E0BF
:100BD0000901002806D5274A00F00F00801800F808
:100BE000041C7047244A8154704724490A684FF610
:100BF000FF031A4000F0070042EA0020204A104399
:100C00000860704738B51D4B1B68C3F30223C3F15E
:100C10000704052C28BF04241D1D072D34BF002305
:100C2000DB1E012505FA04F4641E2140994005FAF3
:100C300003F35B1E1A401143BDE83440C8E70121AD
:100C400000F01F0291400F4A04E0012100F01F0252
:100C500091400D4A400942F820107047012100F0F0
:100C60001F029140094AF5E7012100F01F0291405F
:100C7000074AEFE718ED00E000E400E00CED00E0CB
:100C80000000FA0500E100E080E100E000E200E0A1
:100C900080E200E000B597B001A8142101F0D8FF70
:100CA0000FF2780106A891EC100B80EC100B1A489B
:100CB000016841F080510160006800F080500090B0
:100CC00000981020069001200C9060200E900020CB
:100CD0000D9002200F90012010901190282012906A
:100CE00002201590072013900420149006A8FFF707
:100CF0004BFA00B1FEE70F2001900421032002907F
:100D0000002003900490059001A8FFF732FC00B189
:100D1000FEE717B000BD00005810024000000000C0
:100D200000000000000000000000000000000000C3
:100D300000000000000000000000000000000000B3
:100D400000000000000000000000000000000000A3
:100D500000000000000000000000000010B5754811
:100D6000754C86B0016841F48041016001A9206D95
:100D700040F080502065206D00F080500090009879
:100D8000206840F400402060606E400840006066CB
:100D9000606E20F002006066606E20F00400606605
:100DA000606E20F008006066606E20F010006066E3
:100DB000606E20F020006066606E20F0400060668B
:100DC000606E20F080006066606C40F0010060643E
:100DD000606C00F0010000F082F840F002006064F6
:100DE000606C00F0020000F07AF840F004006064EB
:100DF000606C00F0040000F072F840F008006064DD
:100E0000606C00F0080000F06AF840F010006064C8
:100E1000606C00F0100000F062F840F020006064A8
:100E2000606C00F0200000F05AF840F04000606470
:100E3000606C00F0400000F052F840F08000606408
:100E4000606C00F0800000900098032002900490F5
:100E5000002003904FF6FF700190384801F0FCFE2F
:100E600001A9374801F0F8FE01A9364801F0F4FE67
:100E700001A9354801F0F0FE01A9344801F0ECFE6B
:100E800001A9334801F0E8FE01A9324801F0E4FE6F
:100E900001A94FF0904001F0DFFE606C4008400077
:100EA0006064606C20F002006064606C20F00400FC
:100EB0006064606C20F008006064606C20F01000DA
:100EC0006064606C20F020006064606C20F0400082
:100ED0006064606C20F08000606406B010BD00901B
:100EE0000098606C704700B5AFB008201E900020DD
:100EF0002790012023901EA8FFF746F900B1FEE7D6
:100F00004FF4003000904FF400701D90684601F0DF
:100F1000ABFF00B1FEE71048016841F400410160F9
:100F200000220F210320FFF76DFE0320FFF787FE4D
:100F30002FB000BD0020024008100240000400480D
:100F400000080048000C0048001000480014004849
:100F500000180048001C0048901002407047000034
:100F600030B587B004460D4600F03AF854B9DFF8C2
:100F70007800016841F004010160006800F004009D
:100F800000900098DFF864000FF268013DB931F875
:100F9000141001910021029100F01AF816E0012DC1
:100FA00014D131F814100191DFF84410029100219E
:100FB00000F00EF80FF2400030F8144000220F212C
:100FC00060B2FFF71FFE60B2FFF739FE07B030BD19
:100FD00003910221049101A950F8240001F03CBEC4
:100FE00001A8142101F034BE4C100240240000205E
:100FF0000000211000200000280000001B480168AC
:1010000041F480710160704710B50C461849002802
:10101000086804D1800506D5FFF77EFD03E0800552
:1010200058BFFFF773FD1348016821F00401016008
:10103000012C0FBF30BF40BF20BF20BF10BDB0F597
:10104000804F084608BFFFF790BDFFF77DBD0748FA
:101050000168C908C90041F0030101600548016841
:1010600041F00401016030BF704700000070004093
:101070001470004010ED00E08A60FF2102685162A8
:10108000012180F82110002180F8201000207047F5
:1010900090F82010012901D102207047012180F829
:1010A0002010022180F82110CA21026851625321C8
:1010B0000268516201688A6842F02002FFF7DCBFD3
:1010C00038B5040011D094F8210020B984F820002C
:1010D0002046FFF708FF00F038F8FF2500282068B9
:1010E00005D04562042084F82100012032BD8168CA
:1010F000DFF87420114000F033F8626823691A4366
:10110000A3691A43114381602168E068086120687F
:101110000169A26841EA024101612068C16821F0C9
:101120008001C1602068C16C89088900C1642068A1
:10113000C16CE26963691A431143C1642068456266
:10114000012084F82100002032BD022084F8210013
:10115000CA2021684862532021684862204605E081
:101160008160206881687047BFFF8FFF38B50446F3
:101170002068C168490611D44FF0FF31C160FFF704
:1011800058FB05462068C068400607D4FFF751FBAE
:10119000401BB0F57A7FF5D9032032BD002032BD67
:1011A00000688268D20841EAC2018160704700008D
:1011B0002DE9F041DFF80464DFF804840446307858
:1011C0001425082815FB048709D130787070347015
:1011D000082038744FF6FF70F080002039E000F0EE
:1011E0006AF8B96811FA80F1B960B968327815FB0C
:1011F0000282926891421AD3327802E015FB028291
:10120000127C15FB02831B7C082B04D015FB038387
:101210009B689942F2D215FB02810B7C082B1CBF04
:1012200015FB0385EC733B74FA730C7411E0317891
:101230003378994215FB018206D0D37B15FB0385D9
:101240002C743974FB7300E03974D4733178717085
:101250003470BDE8F081F0B5D84BD94D1E78142418
:10126000B04214FB005204D118785870107C1870EA
:101270000BE0D07B167C177C14FB0050082E077403
:1012800003D0D07B14FB0654E07301201073187850
:10129000082802BF00294FF6FF70D880F0BDC7496B
:1012A000C96809684FF6FF7000E0886A8A6A904250
:1012B000FBD180B2704710B5C04CE0884FF6FF718B
:1012C000884211D0FFF7EBFFE1888142E18828BF17
:1012D000081A04D2228912FA81F1081A401C2179D5
:1012E0004843E178C84000E0002080B210BD2DE9FD
:1012F000F843B24CE56828688168490502D5C168A1
:101300004907FCD48168DFF8B88221F480618160EC
:101310004FF01409277819FB07808668FFF7CBFF89
:10132000864238BF002608D3618910FA81F1B142A4
:1013300002D26689002101E0361A0121A17001E084
:101340008A600F7C082F08D019FB07818A688242C7
:1013500032BF00228A68121AF2E7B6B23EB9FFF72E
:101360009EFFE0800320BDE8F243FFF777BC022E2A
:1013700002DAE078012800D0761E2868C1684907A3
:10138000FBD500F0A6F88F4908600320FFF76CFC3E
:10139000E5682868B6B24661FFF781FFE0802868FB
:1013A000816841F480618160BDE8F1832DE9F041FD
:1013B000EFF3108872B68148C16809688A6822F420
:1013C00080628A60CA6802F0800262F49062CA6039
:1013D0004FF480117B4A116014220578784912FB82
:1013E0000516317B02291ED13768B47B8078C0B1E5
:1013F000707B01280AD101212846FFF72CFF88F3D2
:1014000010887168284600F0B8F804E088F3108866
:10141000284600F095F83A4629462046FFF73CFB5F
:1014200003E0FFF764FF88F31088BDE8F08138B56A
:10143000624CE0600168896801F00701C1F10401B4
:10144000E17002681269120C02F07F02521C2271D4
:10145000D2B203681B695B045B0C23815B1E5A4399
:101460000A41A2F110014FF6FF7291422CBF628136
:1014700061810121A170E2800021514A00231425DD
:1014800015FB0125491C08292B73F8DB0821217065
:1014900000684D4D816821F48061816000F019F889
:1014A00068610320FFF7E0FBE0680068816841F4B1
:1014B000804181600022A86840F48010A860032168
:1014C000286840F4801028600320BDE83840FFF70A
:1014D00099BBC16801F0800161F49061C1604FF473
:1014E00080107047F0B50024EFF3108572B6142613
:1014F000334F06FB047C9CF80CC0BCF1000F02D0FB
:10150000641C082CF5DB082C0BD006FB04760127A5
:10151000377385F31088B073727333600C700020DA
:10152000F0BD85F310880120F0BD10B5044600F031
:1015300007F82349142212FB04110020087310BD80
:1015400038B5054600F042F81D48142111FB05008E
:10155000007B02280BD100212846FFF77CFE1748AC
:101560000178407888421CBF0829FFF7C0FE03209D
:10157000FFF765FB84F3108831BDF8B506460F46CA
:1015800000F024F80E48142111FB060502202873F0
:10159000AF606F603046FFF70BFE08490A78497864
:1015A000914202D0FFF7A3FE02E0A968081AA860E2
:1015B0000320FFF744FB84F31088F1BD8409002069
:1015C000940700201404014000040140EFF310844C
:1015D00072B60320FFF739BBF0B5EFF3108272B695
:1015E000294BDF681D685E689C684FF0010C0CFA9F
:1015F00000F0082908BF074314D05FEA417E6FEA74
:10160000000C4CBF0CEA050505435FEA817E4CBF28
:101610000CEA06060643C9070CEA07074CBF0CEAAA
:10162000040404439C605E601D60DF6082F31088E8
:10163000F0BD38B5EFF3108472B61348C16801BB32
:10164000016821B101210020FFF7DEFC19E081686B
:101650000E4D41B9C046C0461F202860FFF7F7FC79
:10166000C046C0460DE01F212960406820B101211D
:101670000020FFF7E4FC02E00120FFF78DFAFFF7FE
:101680006DFC84F3108831BD74090020187000408F
:10169000DFF8B015002008707047DFF8AC05806FE8
:1016A000004710B5DFF8A4452068416D09680A6855
:1016B000520852000A60806D0068016849084900BC
:1016C000016072B60620FFF7C0FA94F824000128E2
:1016D00008D1002084F824000120207162B6BDE802
:1016E000104077E10020207162B610BD10B5DFF820
:1016F0005C4501206074FFF7D4FFDFF85405618971
:101700000068BDE81040C9B200F070BB80B5012090
:1017100000F006FABDE8044000216DE110B5DFF8E5
:10172000284504F1140000F01CF8DFF82005DFF86C
:10173000243504F11401016000220021017180F8B8
:1017400024106069416841F003014160016841F083
:1017500040010160032004F11001BDE81040FFF7D3
:10176000C1BEDFF8F41401604FF4827141600021C2
:1017700081604FF4E061C1600021016141614FF47B
:10178000007181610021016241620721C16208216B
:10179000C1610021816201F017BE10B588B04FF41D
:1017A00080700290002005900022DFF8B034694676
:1017B0000320FFF797FEDFF8A804DFF8884400F065
:1017C00005FA0022006800F0010001904FF48071DA
:1017D00001984FF0904001F023FB0120039002A9F3
:1017E000002004904FF0904001F036FA9DF8000080
:1017F0000121FFF7C2FE00F014F801224FF48071BE
:101800004FF0904001F00CFB9DF800005D21FFF7C8
:10181000B4FE00F006F89DF80000FFF786FE08B061
:1018200010BD0120207020780128FCD0704738B509
:10183000DFF81844251D68610020A9612A776B77BD
:10184000E87772B6287840B9012028700620FFF7A3
:10185000FCF962B6BDE83140BCE0012084F8240008
:1018600062B631BD10B5DFF8FC4301206060062090
:10187000FFF7FAF90620FFF7E2F900F0A6F80128D1
:1018800003D1206840F00100206010BD002207E075
:10189000DFF8B8030068006880680006F8D4012209
:1018A00002214FF0904001F0BBBA80B5FFF7F0FF86
:1018B0000D204FF00051401E0968FAD1BDE80140EB
:1018C000E4E738B5DFF88403DFF89C430368DFF80A
:1018D0009C239D6DDFF898132D68A54204D30D68F5
:1018E00045F020050D6003E0156845F02005156002
:1018F0005B6D1B68A34204D30A6842F400720A605D
:1019000003E0116841F400711160CF4C027A217834
:101910001AB1022A1AD029D331BD2079E27852EACD
:10192000002001D002290FD000F04FF840B9FFF796
:10193000AFFF06210120FFF74FFEBDE83140B0E6C2
:10194000FFF7B3FF00201BE0022019E0FFF7A0FF24
:1019500006210120FFF740FEC648A067207C2073C7
:101960000220A060BDE83140FFF7C0B8A2786378DC
:1019700053EA022201D0022905D0FFF796FF012089
:10198000BDE83240CCE000F121018D780B78012DCB
:101990001C460FD090F8200054FA80F4A24205DAD9
:1019A000101A1A1A0A7001228A7000E0184648704C
:1019B000002007E0A242B2BF981A1A460020087021
:1019C0004A700120BDE8324064E001214FF09040B0
:1019D00001F020BA10B50620FFF737F99A4CA64857
:1019E000A067FFF753FF207C20730620A060FFF75D
:1019F0007DF8BDE8104006210020FFF7EDBD80B561
:101A00009248994A0168496D096891422CBF9849EA
:101A100096490A6842F400720A6000F12101027DD1
:101A200012B1012A06D001BD487890B1BDE802404C
:101A300001202FE08A78012A0BD10A784AB1C269C5
:101A400049788918C161FFF730FFBDE802400120E5
:101A500066E0BDE8014010B506210020FFF7BCFD9F
:101A60007A4C00202071FFF713FF2068416D096850
:101A70000A68520852000A60806D006801684908CF
:101A800049000160607C002804BFBDE81040FFF7FA
:101A9000E9BE10BD38B56D4D04462868416D0A6831
:101AA00013685B085B001360806D026813685B0855
:101AB0005B0013600068026822F00202026008689E
:101AC000694988422CBF6A486848016841F400713E
:101AD00001600D20FFF7C8F82868406D01680A68AA
:101AE00042F002020A6001680A6842F080020A605D
:101AF00014B1012C08D010E000212975026895F876
:101B000020105160A96906E001212975026895F845
:101B100022105160E9690268D16000F056F831BDC9
:101B200070B54A4C2268516D0B681D686D086D00D8
:101B30001D60936D1D682E68760876002E60042562
:101B40001668367B6D1EFBD11A68136843F00203DA
:101B5000136009680A6822F002020A6018B10228BC
:101B60000AD003D326E00FF21C1102E00FF20C1191
:101B7000012000F030F81DE0207233480179C07870
:101B800040EA0120217C814238BF084621686081FB
:101B90004A6D13681D6825F080051D60896D0B680E
:101BA0005860136858600968E068C86011680FF2EF
:101BB000DC00C8602068816D09680A6842F0010293
:101BC0000A60406D00F001F870BD0068016841F0E6
:101BD00001010160704710B51C4A10721068426D17
:101BE00013681C6844F080041C600523146863605B
:101BF000806D046863600068134BC3601068C16047
:101C000010BD124AD0600020117450742AE680B5CD
:101C100072B60E48017969B90121017162B6FFF708
:101C200035FE0020FFF77CFFBDE8044000210120C5
:101C3000FFF7D2BC62B601BD03488168007BFFF7A5
:101C40009CBC0000B30900203408002028090020B3
:101C50009C0900209B1600080030014091160008E6
:101C60004C10024010040140810002400400024078
:101C700004040240ED1600080D1700080A000000D9
:101C8000000000000B00000000000000FF0000004A
:101C900010B5B34C82B0A07801280ED104F1100029
:101CA00001F0F1FB48B9A070694604F1100001F0A1
:101CB00013FC0098802101F02BFC13BDA8490120E2
:101CC0004870704738B5A64C04F1100001F0D8FBFD
:101CD00004F1180001F0D4FB00258C2010FB054016
:101CE00000F1200100F063F86D1C052DF5DB0120EB
:101CF000A07031BDCCE770B5994C00F10803A3602A
:101D00000021E3782BB9E38003E0042B4ED10323B9
:101D1000E370E388802B49DAE3885D1CE580A568E1
:101D2000E6785B5D002EF0D0032E08BF0623EFD0CF
:101D3000042E08BF0523EBD0052E08BF0723E7D0EC
:101D4000072E08BF0823E3D0082E04D1B5F80320DE
:101D500000210923DCE7062E01D11A46F8E7092EF7
:101D6000D7D1491C89B292B29142D2D30021E170FD
:101D700000F108014A1C097804290CD111780E29B8
:101D800018BF0F2907D0014604F1180001F08EFB9F
:101D9000FEF72DFE02E0014600F009F8E06828B1E8
:101DA000E188A068E268BDE87040104770BD04F1AA
:101DB000100001F07BBB10B582B000200090684C91
:101DC0000DE0694604F1180001F086FB0098083028
:101DD00000F003FF0099FFF7EAFFFFF759FF04F156
:101DE000180001F050FB0028EBD013BD80B55C4A11
:101DF0000123937011B1FFF77EFF04E0014602F169
:101E0000100001F049FBBDE8014041E701F07CBB57
:101E100070B5890582B0890D41EA8020ADF80000D7
:101E20000120504E307014461D468DF802400322AA
:101E30006946701C00F05FF92346042229463046AB
:101E4000FFF7E4FF73BD46490120087170472DE993
:101E5000F8430446424F60882188DFF80C918005E2
:101E6000800D40EA8125414800680A21B0FBF1F667
:101E7000002038714FF00A08FEF71AFE3C48F8605F
:101E8000E068A3686188C2B22088FFF7C1FF2FE035
:101E9000FEF70DFE787838B1387801F069FB00F074
:101EA00069F84FF0FF3057E038790028F0D03878E3
:101EB00001F05EFBB86802461178042916D1C11CF6
:101EC000F8885278C01E0E2A26D00F2A04D0102A75
:101ED000E5D03E2A2ED009E04A88ADB2AA4205D10B
:101EE00062680F2A13D008780028D8D100203871F2
:101EF0005FEA0800A8F10108D1D006B90126002048
:101F000078703A464946304601F01EFBC2E76269E6
:101F10009042C8BF10460AE0B1F80120ADB2AA4213
:101F2000E4D16269C91CC01E9042C8BF10466061FE
:101F300002460BE00A7863689A42D7D16269401E74
:101F40009042C8BF104660610246491C206900F0FB
:101F5000D2F800F00FF80020BDE8F2830000000086
:101F6000B8040020A0090020BD1C0008043E0008A1
:101F7000471E00080020F8600120FEF799BDF0B56B
:101F800089B000F028F800F07BF800F084F8042015
:101F900000F07CF8012000F028F8092000F054F847
:101FA000002802D49DF8000010B14FF0FF3010E07F
:101FB0009DF801002070BDF8020028809DF8040003
:101FC0003070BDF8050038800E99BDF80700088014
:101FD000002009B0F0BD04460D4616461F46704766
:101FE0001822002101A800F08CB8ADF80E000021E5
:101FF000002005900690704730B58FB000F01DF8B6
:102000008DF81C40202CA8BF1F2400F010F8FFF70B
:10201000E7FF00F02AF8092000F021F820200490C2
:10202000012000F029F800F012F80FB030BD224670
:1020300029460DF11D0000F05EB804460D46202231
:10204000002107A800F05DB8089003A8FFE600286B
:1020500002D49DF8000008B14FF0FF307047ADF892
:102060000600002107A8039070470820ADF804007F
:10207000CDF814D070470320069001A8E7E6044687
:1020800009220021684600F03CB80820ADF80C0099
:10209000CDF81CD070471822002103A800F031B8F9
:1020A00070B584B0064601A800900C460DF10A03F5
:1020B00002AA0DF106010DF10900FFF760FFC5B29C
:1020C000A5B9BDF80600000A3070BDF80600000290
:1020D0002080BDF804100906090F40EA0110208095
:1020E000BDF8041001F00F0108432080FFF763FEE4
:1020F000284604B070BD10B5044601F03FFA2046F2
:1021000010BD10B5044610460A460146204601F0AF
:1021100071FA204610BD10B50C461146A21CA8B09D
:10212000812AA8BF42201FDA8DF81C008DF81D40BF
:1021300022460DF11E00FFF7DEFF00F03BF800F035
:1021400033F80C20ADF80600002107A80390A01C6E
:10215000C0B204900120069001A8FFF778FE002885
:102160004CBFFF209DF8000028B010BD00B589B01D
:102170008DF804008DF805101822002102A8FFF741
:10218000C0FF00F022F80F2000F019F8022005909F
:102190000120079002A8FFF75AFE00284CBFFF203D
:1021A0009DF8000009B000BD3F20ADF80400CDF857
:1021B00014D070471822002101A8FFF7A2BFADF884
:1021C0000A00002101A8049070473F20ADF80800E4
:1021D000CDF818D0704700B587B000F043F900F093
:1021E0003BF940F20110ADF80600002100F009F8BB
:1021F00000284CBFFF209DF8000007B000BDC0B212
:1022000004900120069001A8FFF721BE70B58CB0A4
:1022100001288DF81C0014460CBF022610261D460E
:1022200032460DF11D00FFF766FF701C07A9C0B212
:1022300003224454441CE4B2684665540021FFF76D
:1022400060FF00F00FF900F007F94FF4817000F023
:10225000BBF8601CC0B204900320FFF7D3FF002836
:1022600048BFFF2005D49DF8000010B9109900F078
:1022700049F80CB070BDF1B58EB00D4616461F463C
:1022800002220EA900F0FDF807AC012DA570314621
:102290000CBF022510252A4600F0DAF8E81CC0B26F
:1022A000411C0755C9B214980855491C1598C9B264
:1022B00003220855491C1698C9B20855491C17989D
:1022C000C9B24D1C0855EDB21898285500F01FF8FA
:1022D00000F0C8F800F0C0F84FF4827000F074F815
:1022E000681CC0B204900320FFF78CFF002848BF91
:1022F000FF2005D49DF8000010B9199900F002F8EC
:102300000FB0F0BDBDF8010008800020704700212B
:102310006846FFF7F6BE73B5A8B014461D4600F038
:10232000AEF800F0B1F88DF82040012C0CBF02246B
:10233000102400F09EF8611D07AD2E98C9B24855D3
:10234000481C2F9CC0B2461CF6B256FA84F1445584
:10235000491D8129A8BF422034DA309907AB2246B3
:10236000F018FFF7C8FEA1193198C9B203224855E9
:10237000491C3298C9B24855491C3398C9B24855CE
:10238000491C3498C9B24E1C4855F6B23598705560
:10239000FFF7BDFF00F066F800F05EF840F20510B0
:1023A00000F012F8701CC0B204900320FFF72AFF5F
:1023B000002848BFFF2005D49DF8000010B93699C9
:1023C000FFF7A0FF2AB070BDADF80600002107A8F6
:1023D0000390704733B51C46A01DA7B08128154651
:1023E000A8BF42201FDA022227A900F04AF80222E1
:1023F00028A900F04BF82C998DF820508DF8214039
:10240000224600F012F800F02DF800F025F84FF405
:102410008370FFF7D9FFA01DFFF7F1FE00284CBF26
:10242000FF209DF8000029B030BD0DF12200FFF71C
:1024300062BE3F20ADF80800CDF818D070471822D2
:10244000ADF80400002102A8FFF75BBE2246194642
:102450000DF11F00FFF74FBE3F20ADF80400CDF88F
:1024600014D070471822002101A8FFF74ABE8DF84A
:102470002040224629460DF12100FFF73CBE0222F2
:1024800028A907A8FFF737BE022229A90DF11E00CF
:10249000FFF731BEADF80A00002101A80490022028
:1024A00005900120079002A8FFF7D1BC00B589B0C4
:1024B000FFF7C5FFFFF7BDFF40F22710FFF7EAFF68
:1024C00000284CBFFF209DF8000009B000BD10B5EA
:1024D0008AB08DF800008DF801108DF802201C469E
:1024E000072200F009F900F0C0F800F013F98A2083
:1024F000ADF80E0000210320069001A807900720E8
:1025000000F0AFF8002848BFFF200ED49DF804006B
:1025100058B9BDF8050020800C99BDF80700088067
:102520000D99BDF80900088000200AB010BD70B5F3
:102530008AB00C468DF8080015461E46072200F0AA
:10254000D0F800F092F800F0DBF88A20ADF80E0029
:10255000002102A8059001200690072000F081F8D4
:10256000002848BFFF200CD49DF8000048B9BDF8F2
:1025700001002080BDF803002880BDF805003080F0
:1025800000200AB070BD76B592B000F04FF828BFB9
:1025900042201BD200F052F800F02AF89DF86000AB
:1025A00000F02CF800F035F800F01AF800F010F800
:1025B00000F0A1F800F099F8832000F047F800F04F
:1025C000AFF800284CBFFF209DF8000014B070BD8C
:1025D000A41CE4B207A802221EA92018FFF78BBD95
:1025E0006419E4B207A802221DA92018FFF783BDD1
:1025F000022213A90DF11F00FFF77DBD1A998DF876
:1026000022008DF821608DF823502A4609A8FFF793
:1026100072BD05F10800C0B207A9451C4454EDB2D3
:102620001C9907A822462818FFF765BD199D1B9C19
:1026300054FA85F10E3129291E4670478DF81C0089
:10264000022212A90DF11D00FFF755BDADF80600DD
:10265000002107A80390A01CC0B204907047069008
:102660000120089003A8FFF7F2BB1822002103A85D
:10267000FFF747BD30B58FB08DF81C008DF81D10E9
:1026800014461D461022214600F040F81298149975
:102690008DF82F008DF82E50182213988DF83000E9
:1026A0000DF13100016000219DF854008DF83500D6
:1026B00001A8FFF726FD00F018F8862000F00BF8BF
:1026C0001A20049000F02CF800284CBFFF209DF841
:1026D00000000FB030BDADF80600002107A8039040
:1026E000704700216846FFF70CBD3F20ADF804009D
:1026F000CDF814D070471822002101A8FFF701BDC2
:102700003F20ADF80C00CDF81CD070470DF11E0035
:10271000FFF7F1BC3F20ADF80C00CDF814D07047A6
:102720000120069001A8FFF792BB000030B58BB0E6
:102730001B208DF8180006AC00F092F9B420A071AF
:102740009A2000F06FF83A2000F066F86E2060736F
:102750003620A0730220E0730723DFF8E054281D21
:102760000090012206A90220FFF750FD00284AD15F
:102770001B208DF818000123C520607006AA00F008
:1027800081F9FC20A0718F2000F04CF84A20A07243
:10279000CF20E072A0202073782060733E20A073C9
:1027A000E220E073A81D00F031F8002002900190B3
:1027B00010200090A888FFF75EFD20BB1B208DF83D
:1027C00018000623C520607006AA00F05BF93620C9
:1027D000A071AC2000F026F84B2000F01DF81B2063
:1027E00060730A20A0733420E07305F1080000F044
:1027F0000DF8042002900020019012200090A8887B
:10280000FFF739FD00B147200BB030BD0590002027
:102810000490102003907047A072CF20E0728020B7
:1028200020737047E071E1202072112060727047C0
:10283000E0B501688DF804100623016809128DF8CF
:102840000510002241688DF80610416809128DF8C4
:10285000071081688DF8081001A9806800910012A6
:102860008DF80900DFF8D4030189808823E1F0B5F1
:1028700091B01B208DF830000CAC00F0F1F8D020A6
:10288000A071822000F0BAF8402020731A206073F3
:102890008220A0734220E0730A23DFF8A05305F1E1
:1028A0000A00009001220CA90220FFF7AFFC0028CB
:1028B00025D100F0E0F8E320A071A92000F09EF8F7
:1028C00020202073552060732E20A073A320E07376
:1028D00005F10C0000F0B6F8002810D10E208DF89C
:1028E00028004FF0FF3642F22F70ADF82A0042F672
:1028F000041700F08DF8A98900F073F800286DD155
:102900001B208DF83000032300F0B9F80B20A071D4
:10291000842000F06DF88B20A072E420E07280200B
:102920002073C42060732020A073CD20E07305F1D4
:102930000E0000F087F8002850D10F208DF82800F5
:102940006FF004008DF829004FF41E50ADF82A00F6
:1029500000208DF82C00ADF82D000DF12600089018
:102960000020079010200690002005900120049080
:10297000002003900AA80290072001900090ADF873
:102980002470E989688909AB0122FFF7C4FC00289B
:1029900024D100F070F87320A071A02000F028F876
:1029A0008C20A072E420E072602020730B20607302
:1029B000C520A0730120E07305F1100000F042F87B
:1029C00060B906208DF828004FF41C50ADF82A009D
:1029D00000F01EF8298A00F004F800B1472011B079
:1029E000F0BD6889ADF8247009AB0122FFF793BCF4
:1029F000E071E2202072112060727047E071E220E5
:102A00002072112060727720A072E420E07270477B
:102A100000208DF82C00ADF82D000DF12600089057
:102A200000200790102006900020059001200490BF
:102A3000002003900AA802900720019000908DF8D2
:102A40002960704705900020049010200390042016
:102A5000029000200190022000906889FFF70BBCD3
:102A6000C5206070D520A070A520E07002202071E4
:102A70000020607170471B208DF830000223C520B4
:102A800060700CAAD520A0700221A520E070022061
:102A9000207100206071704701B582B000F010F81D
:102AA0000223818905E001B582B000F009F8032313
:102AB000C18940890022FFF78DFC00B147200EBD7F
:102AC00002A95E480091704701B582B0FFF7F8FF98
:102AD0000223018AEDE700B50FF26C1189B00CC931
:102AE00007A800210CC00020FFF786FA00200690FE
:102AF000059004900390002307A80290002208206C
:102B00000190002100200090FFF73DFD012000F022
:102B10008EF809B000BD49480122426141807047EA
:102B20004648002141610121017000214170704738
:102B300030B5424C83B02189491C884204D104F14C
:102B40001800FFF775FE3BE0A189491C884211D1AE
:102B500000F084FD054604F11800FFF769FE0F2020
:102B600080FB050100F034F800F5877000B2FFF734
:102B700093FF25E0E189491C884213D13048006861
:102B80000A21B0FBF1F1684600F0D6FC00F066FDCA
:102B90004FF47A7100F01AF800F5C330A030FFF757
:102BA00082FF0DE0218A491C884209D100F056FDC0
:102BB000642100F00BF800F5E17080B2FFF784FFAC
:102BC000608810B16088FFF771FC37BD81FB0001A0
:102BD0006FF04042002300F0B1BD38B5044601203B
:102BE00000F025F82078651C04281FD128780528D6
:102BF00004D03E2805D0FF280ED031BDBDE83140BD
:102C00008EE7A81C0178012910D1401CBDE8344092
:102C1000B0F80110401D7EE7A81C40F61442018860
:102C2000914203D1BDE83240808881E731BD05493A
:102C30000870012808BFFDF7DCBE704700000020C7
:102C4000043E0008B209002009426C75654E5247E7
:102C5000002200F0EBBD00002DE9F8470022784B80
:102C6000DFF8E081DFF8E0914FF00F0A30E005FA7D
:102C70000EFE4EEA040448F82C406FEA070C1C686C
:102C80000CEA040E4C68E40348BF47EA0E0EC3F892
:102C900000E05C680CEA040E4C68A40348BF47EAF5
:102CA0000E0EC3F804E09C680CEA040E4C68E402C3
:102CB00048BF47EA0E0EC3F808E0DC680CEA040CD3
:102CC0004C68A40248BF47EA0C0CC3F80CC0521C65
:102CD0000F6837FA02F400F09B804FF0010C0CFAF9
:102CE00002F42740F3D04D68022D18BF122D11D1E8
:102CF000D50800EB850C02F00706DCF820504FEAFF
:102D0000860E0AFA0EF6B5430E6906FA0EF635433C
:102D1000CCF820504FEA420C0326056806FA0CF660
:102D20006FEA060E0E7906F003060EEA050506FAAE
:102D30000CF635430560E4434D68012D18BF022DA4
:102D400003D0112D18BF122D0FD18568CE680EEA61
:102D5000050506FA0CF63543856045684E68C6F3EE
:102D6000001625409640354345604D6805F0030642
:102D7000032E06D1C66AC5F3C005344095402C43E6
:102D8000C462C4680EEA040E8C6804FA0CF444EAC7
:102D90000E04C4604C68E40099D5D9F8004044F0B2
:102DA0000104C9F800404FEA920CD9F8004004F041
:102DB0000104009402F00305009C58F82C404FEAEF
:102DC000850E0AFA0EF5AC43B0F1904F08BF00250E
:102DD0001DD01E4DA84208BF012518D01C4DA84289
:102DE00008BF022513D01B4DA84208BF03250ED0F3
:102DF000194DA84208BF042509D0184DA84208BFA4
:102E0000052504D0164DA8420CBF062507252EE740
:102E1000BDE8F1870069084018BF0120C0B27047C3
:102E2000002A14BF8161816270470E4A1368034211
:102E300000D1704780B5106000F072FB01BD00004A
:102E400000040140080001406010024000040048F6
:102E500000080048000C004800100048001400481A
:102E600000180048140401402DE9F84F04460025DD
:102E70002068DFF84865DFF848750005A846A946D0
:102E800026D5606D70B1B0F5800F19D0B0F5000F88
:102E900003D0B0F5400F09D017E0F06840F480305F
:102EA000F06006E0201D00F0E1F98046B8F1000F67
:102EB0000DD13868616D20F440000843386007E0A8
:102EC00004F1180000F039FAEFE74FF00108C146AD
:102ED0002068C00426D5A06DB8B1B0F1807F19D0AC
:102EE000B0F1007F03D0B0F1407F04D017E0F0686C
:102EF00040F48030F060B8F1000F12D13868A16D55
:102F000020F04070084338600CE0201D00F0AEF95E
:102F10008046F0E704F1180000F00FFAF8E74FF0F0
:102F20000108C146206880032FD5B06DC000AA46B5
:102F30000AD4B06D40F08050B0654FF0010AB06D1A
:102F400000F0805000900098DFF87804DFF87414E7
:102F5000006840F480700860FDF76BFC8346DFF882
:102F600064040068C00500F18180FDF762FCA0EBFD
:102F70000B000328F3D34FF00308C146BAF1000F4A
:102F800003D0B06D20F08050B0652078C00705D523
:102F90003868A16A800841EA80003860207880079C
:102FA00005D53868E16A20F00C00084338602078C5
:102FB000400705D53868216B20F0300008433860A1
:102FC0002078000705D53868616B20F0C000084301
:102FD00038602078C00605D53868A16B20F44070B1
:102FE000084338602078800605D53868E16B20F406
:102FF0004060084338602068800505D53868E16C7A
:1030000020F44020084338602068400505D5386822
:10301000216D20F44010084338602078400605D523
:103020003868216C20F4405008433860207800064E
:1030300005D53868616C20F440400843386020684A
:10304000C00505D53868A16C20F4403008433860CD
:103050002068800440D53868E16D00F0EDF8E06D3F
:10306000B0F1006F30D100F0ECF835E0B8F1000FAE
:1030700083D1B868616F00F4407088420BD0B868A3
:1030800020F44075B86840F48030B860B86820F427
:103090008030B860BD60A8070FD5FDF7CAFB0546B4
:1030A000B868800709D4FDF7C4FB401B41F28931A1
:1030B0008842F5D34FF0030960E7B868616F20F4E8
:1030C00040700843B86059E7B0F1806F04D1201D0B
:1030D00000F009F900B181462068000312D5386874
:1030E000216E00F0A9F8206EB0F1006F02D100F05F
:1030F000A8F807E0B0F1806F04D1201D00F0F3F8CC
:1031000000B181462068400312D53868616E00F036
:1031100093F8606EB0F1006F02D100F092F807E012
:10312000B0F1806F04D1201D00F0DDF800B18146C0
:103130002068400460D53868A16E20F040500843F4
:103140003860A06EB0F1805F28D1306820F08060D8
:103150003060251DFDF76DFB80463068000105D508
:10316000FDF767FB00F05DF8F7D33EE030692968B2
:1031700000F0A2F8E96800F058F800F067F880461F
:103180003068000105D4FDF754FB00F04AF8F7D38E
:103190002BE030692969084330612DE0B0F1005F10
:1031A0002AD1306820F08050306004F11805FDF716
:1031B00040FB80463068800005D5FDF73AFB00F003
:1031C00030F8F7D311E07069296800F0E7F8A968D2
:1031D00000F02BF800F042F880463068800007D4F9
:1031E000FDF727FB00F01DF8F7D34FF0030903E0CC
:1031F0007069E968084370612068000405D5386883
:10320000E16E20F08040084338602068C00305D597
:103210003868216F400051EA500038604846BDE8E8
:10322000F28FA0EB080003287047891E090620F0E2
:10323000C06001F07E41704720F040600843386074
:103240007047F06840F48010F060704708433061C8
:10325000306840F080603060FDF7EBBA0843706181
:10326000306840F080503060FDF7E3BAF8B500F008
:1032700031F807463068000105D5FDF7DAFAC01BC2
:103280000328F7D30EE000F015F800F080F800F006
:103290001AF807463068000106D4FDF7CAFAC01BC9
:1032A0000328F7D3032503E030692169084330611F
:1032B0002846F2BD3069216820F4FE4040EA012032
:1032C0003061306970473061306840F08060306054
:1032D000FDF7AFBA394E0446306820F080603060A8
:1032E0000025FDF7A6BAF8B5FFF7F4FF07463068EA
:1032F000000105D5FDF79DFAC01B0328F7D314E0A4
:10330000FFF7D8FFA168891E090520F4C000490D08
:1033100040EA4150FFF7D7FF07463068000106D466
:10332000FDF787FAC01B0328F7D3032503E03069B4
:103330002169084330612846F2BDF8B500F035F840
:1033400007463068800005D5FDF773FAC01B0328D7
:10335000F7D314E07069216800F020F800F017F846
:103360007061306840F08050FFF7B1FF0746306869
:10337000800006D4FDF75DFAC01B0328F7D30325B0
:1033800003E07069E168084370612846F2BD616836
:1033900020F40030090940EA4140704720F4FE4023
:1033A00040EA0120706170697047044E044630683D
:1033B00020F0805030600025FDF73BBA001002403D
:1033C000881002400070004070B5040001D1012057
:1033D00070BD04F15C05687818B92870204600F0CB
:1033E0003FFA0220687040F2017300F043F8E2688F
:1033F0009A4204D30021B2F5706F05D106E0B2F510
:10340000E06F4FF4805101D00026A662266B26B9EA
:103410009A422CBF0222012222636268A3681A43E7
:1034200023691A4363691A43A36903F400731A43B7
:10343000E3691A43236A1A43A36A1A430260226BA0
:10344000022A03D1026842F400620260A269636A40
:10345000120C02F004021A43636B1A43E3681A4326
:1034600011434160E16A01610020686001206870D9
:10347000002070BD2068016821F0400101607047A4
:10348000006040607047EFF3108172B602688242BC
:103490000CBF012000201CE0EFF3108272B603681D
:1034A0000B60486001600868416029E0EFF310821A
:1034B00072B6086043684B604160486801601FE075
:1034C000EFF3108172B6436802681A6042680068C0
:1034D000426081F31088704738B50C46EFF31085D1
:1034E00072B6016821600068FFE7FFF7E9FF216815
:1034F000002008602168486085F3108831BD0860AD
:1035000082F3108870470000DBB2D2B2FEF78FB9A9
:10351000024A10600830FEF774BB00009C090020CE
:10352000012808BFFEF773BBB0F5005F03D1082187
:103530000220FEF751B8704710B504466160FFE7FE
:1035400000F064FA206010BD38B5044615460B46FD
:10355000002229460220FDF7C5FF4FF47A70604330
:103560003F21B0FBF1F12878FEF707F8002032BDCB
:1035700080B5FDF7DAFF002002BD000062B38B07C3
:1035800008D0521E11F8013B00F8013B00F02480E6
:103590008B07F6D1830740F0208000BF103A07D395
:1035A00030B4B1E83810103AA0E83810F9D230BC85
:1035B000530724BFB1E80810A0E8081044BF51F831
:1035C000043B40F8043BD20724BF31F8022B20F81B
:1035D000022B44BF0B7803707047083A07D3B1E859
:1035E0000810083A40F8043B40F804CBF7D25307E0
:1035F000E4E7000062F30F2262F31F42401810F06C
:10360000030308D0C91A1FD3DB0748BF00F8012DF8
:1036100028BF20F8022D130030B414461546103987
:1036200028BF20E93C00FAD8490728BF20E90C0050
:1036300048BF40F8042D890028BF20F8022D48BF5C
:1036400000F8012D30BC7047C91818BF00F8012DD3
:10365000CB0728BF00F8012D70470000F8B5344FA4
:10366000384600F0D5F90446381D00F0D1F905467A
:1036700007F1080000F0CCF9064607F10C0000F055
:10368000C7F923782B492C4A002B40D12B6802FB29
:1036900003132B60082702FB03132B6002FB0313A9
:1036A0002B6002FB03132B6002FB03132B6002FB56
:1036B00003132B6002FB03132B6002FB03132B602D
:1036C0000346D5F800C002FB0C1CC5F800C043F847
:1036D00004CB7F1ED5F800C002FB0C1CC5F800C04F
:1036E00043F804CBD5F800C002FB0C1CC5F800C0A1
:1036F00043F804CBD5F800C002FB0C1CC5F800C091
:1037000043F804CBDDD1C36F3360012323702B68F2
:1037100002FB03112960317801F01F0150F82120CC
:1037200032602A6840F82120306880008008F2BDAD
:103730002C0000205FF36E3C0D6619001B4213D174
:10374000094236D12AB18446B0FBF2F002FB10C226
:10375000704700F05FB9FCD30022002370470B00D4
:103760000200002100207047904271EB030CF6D359
:1037700070B5B1FA81F4B3FA83F52C1BA340C4F100
:10378000200532FA05F63343A2405FF00046E640DA
:1037900002E05B085FEA3202841A71EB030524BF82
:1037A000204629467641F4D302000B003000002168
:1037B00070BD012ACFD970B5140C20D0B1FA81F4B4
:1037C000B2FA82F5C4F120046419B4F12006D6D30C
:1037D000B2405FF00044F440002502E052085FEA86
:1037E0003303C61A71EB020E24BF304671466441A2
:1037F0006D41F3D302000B002000290070BD0C4680
:10380000B1FBF2F102FB11452D0445EA1045B5FB71
:10381000F2F402FB145580B240EA0545B5FBF2F024
:1038200002FB105240EA044070BD000000B500BF2A
:10383000130096469446103928BFA0E80C50FAD8D9
:103840005FEA417C28BF0CC048BF40F8042BC90781
:1038500028BF20F8022B48BF00F8012B00BD000054
:10386000F0B5044687B020684D49884240F0958005
:103870004C4D686840F00200686001A9686800F07B
:1038800002000090009800F0AEF800F0ACF8A869D3
:1038900040F48050A861A86900F48050009000981E
:1038A0000820019002200290002003900320049041
:1038B000052005903C48FFF7CFF9402000F085F83F
:1038C000802000F082F80220019001A901200290DE
:1038D000002000F071F8012202214FF09040FFF724
:1038E0009FFA0120019001A930480290022000F0C7
:1038F00063F8286840F00100286028682C4D00F02B
:10390000010000900098012068601020A86000204D
:10391000E8608020286100206861A861E8614FF4B8
:103920000056244F2E6207F114002860284600F04C
:1039300073F8206829680C30886065650120286468
:10394000AC6200206864A864EE658020E864EF63E0
:10395000002028656865A86505F13C0000F05CF86A
:103960002068E96B0C308860002205F13C00A065FE
:103970006C6601210D20FDF745F90D20FDF75FF97B
:10398000002201210C20FDF73DF90C20FDF757F92D
:10399000002202210620FDF735F907B0F0BD000036
:1039A000003001404810024000040048000011109F
:1039B000B00800201C000240039003200490002067
:1039C00005904FF09040FFF747B9019001A9022000
:1039D00002900020039003200490052005904FF0F2
:1039E0009040FFF739B9686840F001006860686886
:1039F00000F0010000900098686840F001006860E5
:103A0000686800F00100009000987047FCF711BF53
:103A1000704700007047000010B508B9012010BDC4
:103A200000F124014A7802B90A7002224A70026841
:103A3000136884686FF30D132343C4682343046938
:103A400023434469234384692343C4692343046AA9
:103A5000234313608268B2F5804F73D00368DFF8A8
:103A6000F840DFF8F820A3421DD0DFF8F440A3426D
:103A700024D0DFF8F040A3422CD0DFF8EC40A34282
:103A800034D0DFF8E840A3423CD0DFF8E440A34262
:103A900044D0DFF8E040A3424CD0DFF8DC40DFF850
:103AA000DC20A34206D113681B091B0100F050F86B
:103AB000184346E0DFF8C840A34207D1136823F05B
:103AC000F00300F045F843EA00103AE0DFF8B440B4
:103AD000A34207D1136823F4706300F039F843EA76
:103AE00000202EE0DFF8A040A34207D1136823F4A2
:103AF000704300F02DF843EA003022E0DFF88C40FC
:103B0000A34207D1136823F4702300F021F843EA9D
:103B1000004016E0DFF87840A34207D1136823F491
:103B2000700300F015F843EA00500AE0DFF8644043
:103B3000A34207D1136823F0706300F009F843EA49
:103B4000006010600020486101204870002010BD16
:103B5000136013684068704708000240A8000240E4
:103B60001C00024030000240440002405800024065
:103B70006C0002408000024008040240A804024099
:103B80001C04024030040240440402405804024035
:103B90006C040240800402407047FEE770477047A3
:103BA000704780B5FCF740FE1C480168491C016065
:103BB00001BDFDF7FBBB0120FFF737B980B5184900
:103BC00001200860FFF733F8BDE802404FF40050D1
:103BD000FFF72BB91348806D0068016889070AD583
:103BE000114988422CBF11481148006810F020008C
:103BF00018BFFDF766BE70470A48406D006801684F
:103C000089070AD5084988422CBF08480848006837
:103C100010F4007018BFFDF7F2BE7047A80900202D
:103C2000AC09002048080020810002400004024046
:103C3000000002400E480F4A016841F47001016023
:103C40000D48016841F001010160002181600168B7
:103C5000114001604FF48051C160016821F480215E
:103C60000160002181614FF00060044908607047E5
:103C700088ED00E0FFFFF6EA0010024008ED00E0EA
:103C8000000000000000000001020304060708090C
:103C9000A0860100400D0300801A060000350C00CC
:103CA00040420F0080841E0000093D0000127A008F
:103CB0000024F40000366E010048E801006CDC02CC
:103CC00019E050F8041BCB0744BFA9F101035918B0
:103CD000121F0023042A41F8043BF9D25FEA827CD8
:103CE0000B4604D54FF0000CA1F800C09B1CD10777
:103CF00044BF0021197050F8042B002AE1D170470D
:103D000030B5016842688468091801EB5203D20794
:103D100048BF4C440C30994200D130BD11F9012B01
:103D200011F8015B002A04F8015B02D5521CF9D19D
:103D3000F1E7521EF4D5EEE710B507497944183182
:103D4000064C7C44163404E00A68081D5118884764
:103D50000146A142F8D110BD2C000000480000002F
:103D60004EF68851CEF20001086840F470000860F9
:103D7000BFF34F8FBFF36F8F4FF00070E1EE100A6B
:103D8000704700003DFFFFFFFC040000B804002066
:103D9000000000006DFFFFFFAC01000026000000E6
:103DA0000000002000F00BF8002801D0FFF7C4FF4E
:103DB0000020C046C046FCF743FD00F002F8012099
:103DC000704700F001B800000746384600F002F8DE
:103DD000FBE7000080B5C046C046024A110018202B
:103DE000ABBEFBE7260002000148804701480047C0
:103DF000353C0008F93D0008C046C046FFF7B0FF5B
:103E0000FFF7D0FFE8030000FFF7FEBFFFF7FEBF9C
:103E1000FFF7FEBFFFF7FEBFFFF7FEBFFFF7FEBFD6
:103E2000FFF7FEBFFFF7FEBFFFF7FEBFFFF7FEBFC6
:103E3000FFF7FEBFFFF7FEBFFFF7FEBFFFF7FEBFB6
:103E4000FFF7FEBFFFF7FEBFFFF7FEBFFFF7FEBFA6
:103E5000FFF7FEBFFFF7FEBFFFF7FEBFFFF7FEBF96
:103E6000FFF7FEBFFFF7FEBFFFF7FEBFFFF7FEBF86
:103E7000FFF7FEBFFFF7FEBFFFF7FEBFFFF7FEBF76
:103E8000FFF7FEBFFFF7FEBFFFF7FEBFFFF7FEBF66
:103E9000FFF7FEBFFFF7FEBFFFF7FEBFFFF7FEBF56
:103EA000FFF7FEBFFFF7FEBFFFF7FEBFFFF7FEBF46
:103EB000FFF7FEBFFFF7FEBFFFF7FEBFFFF7FEBF36
:103EC000FFF7FEBFFFF7FEBFFFF7FEBFFFF7FEBF26
:103ED000FFF7FEBFFFF7FEBFFFF7FEBFFFF7FEBF16
:103EE000FFF7FEBFFFF7FEBFFFF7FEBFFFF7FEBF06
:103EF000FFF7FEBFFFF7FEBFFFF7FEBFFFF7FEBFF6
:103F0000FFF7FEBFFFF7FEBFFFF7FEBFFFF7FEBFE5
:103F1000FFF7FEBFFFF7FEBFFFF7FEBFFFF7FEBFD5
:103F2000FFF7FEBFFFF7FEBFFFF7FEBFFFF7FEBFC5
:103F3000FFF7FEBFFFF7FEBFFFF7FEBFFFF7FEBFB5
:103F4000FFF7FEBF0001DC000508004800093DFB4B
:073F50000000018100F800F0
:00000001FF
