:020000040800F2
:10000000F0050020014D0008714B0008734B0008FB
:10001000214D0008254D0008294D00080000000072
:10002000000000000000000000000000754B000808
:10003000774B000800000000794B00087B4B00085C
:100040002D4D0008314D0008354D00088B4B000840
:10005000394D00083D4D00088F4B0008414D000808
:10006000454D0008494D00084D4D0008514D000810
:10007000554D0008594D00085D4D0008614D0008C0
:10008000654D0008694D00086D4D00080000000036
:10009000000000000000000000000000714D00089A
:1000A000754D0008794D00087D4D0008814D000810
:1000B000854D0008894D00088D4D0008914D0008C0
:1000C000954D0008994D00089D4D0008A14D000870
:1000D000A54D0008A94D0008AD4D00080000000026
:1000E000954B0008B14D0008B54D00080000000018
:1000F000000000000000000000000000B94D0008F2
:1001000000000000BD4D0008C14D0008C54D0008AD
:1001100000000000000000000000000000000000DF
:10012000C94D0008CD4D0008D14D0008D54D00083F
:10013000D94D000800000000000000000000000091
:10014000000000000000000000000000DD4D00087D
:10015000E14D0008E54D0008E94D0008ED4D0008AF
:10016000F14D0008F54D00080000000000000000FF
:10017000000000000000000000000000000000007F
:1001800000000000F94D0008000000000000000021
:10019000FD4D000870472DE9F041DFF8E4470646C1
:1001A00020780F4610B14620BDE8F0810EB138002E
:1001B00002D1F120BDE8F081DFF8C887902200214C
:1001C000404600F03DFCDFF8C057282200212846B9
:1001D00000F036FC20223146404600F02BFCAF6098
:1001E000284600F037FC08F12800012101700221A7
:1001F000417000F077FC1020A8731120E8730120F3
:1002000020700020BDE8F08130B585B000F088FC9A
:1002100005006DD102A800900DF10A0301AA0DF1AD
:1002200006010DF1050000F03DFFC0B210B9BDF8A8
:100230000600040AE4B2312CDFF8500702DB01218A
:10024000017002E0007801280FD1DFF8384704F18F
:100250002400019004F1200304F122000090072201
:100260000021012000F066FF0AE0DFF8184704F1E2
:10027000240304F1220204F12001012000F08AFF8E
:10028000050035D1207801F038F8050030D1A0788C
:10029000637DE1780390221DA0690290207D01908A
:1002A000A07D0090607801F03BF8050020D1A07897
:1002B00018B101F0E8F805001AD1DFF8CC06018A80
:1002C00099B10A218DF80410123018218DF805100B
:1002D00000900923012201A9012000F03CFC050047
:1002E00006D100F037FA050002D1002005B030BD7C
:1002F0000FF2EC6001F02CF9284605B030BD38B59E
:10030000DFF87C46207808B9012032BD00F007FCF8
:10031000607801283CD1DFF87056A87B102806D001
:1003200020280FD0402816D0502824D02EE0FFF7E8
:100330006BFF002807BF2020FF2110201F21E97339
:10034000A87325E0687B297B88421FD13020A873E1
:100350003120E8731CE0E87B402817D1DFF8240641
:1003600042788178C08C01F057F810B15020A87302
:100370000CE0422009E0E87B562807D1DFF80406AC
:10038000C08C00F09EFC08B95720E8730020607014
:10039000607832BDDFF8F005807B7047DFF8E80554
:1003A000C07B704738B50446002000906946DFF8EE
:1003B000D855284601E00098694600F08AFB00986D
:1003C000A84204D0007AA042F5D1002032BD4120DD
:1003D00032BD38B504001CBFE068002801D1F1200F
:1003E00032BD002000906946DFF89C55284602E0A7
:1003F000A0420BD0694600F06CFB0098A842F7D1F0
:10040000A87B102802D1E87B1F2801D1412032BDF2
:10041000288A618A084328822146287B401C287349
:10042000284600F02DFB002032BD38B5040001D174
:10043000F12032BD002000906946DFF84C55284677
:1004400000E0694600F045FB0098A84209D0A042B0
:10045000F7D1204600F01EFB287B401E28730020A9
:1004600032BD412032BD38B50446002000906946B7
:10047000DFF81455284600E0694600F02AFB009892
:10048000A8420FD0A042F7D1207C58B9687BDFF892
:10049000F014401C6873012020744870FFF77AFE46
:1004A000002032BD412032BD70B5DFF8DC6482B07F
:1004B0000446B07B30280D460DD1002000906946DF
:1004C000304600E0694600F004FB0098B04202D0DC
:1004D000A042F7D1F57373BD10B5DFF8AC44A07B33
:1004E000502818BF40280AD1DFF89804C08C132187
:1004F00000F0DFFF18B95520E073002010BD412047
:1005000010BD10B5DFF88044A27B01464120402A8F
:1005100012BF502AE27B442A09D1DFF86804C08C5C
:1005200000F02EFF00280CBF47214021E17310BDD1
:10053000DFF8501491F828205318521C83F8290032
:10054000D2B25318000A83F82900501C81F8280001
:1005500070472DE9FC47DFF828644FF0000A8DF85A
:1005600004A0002480460120707008F10105FFF707
:1005700011FE98F80000042840F0EA802878DFF89F
:100580000874052804D03E281BD0FF284AD0BFE0BD
:10059000B97BA81C402918BF502901BFB0F8011031
:1005A000DFF8E023D28C914240F0B280017819B993
:1005B0003021B9733121F973012400784FF0050916
:1005C0002DE0A81C0178012902BF451CB87B30280A
:1005D00040F09E802878D0B9DFF8A803B5F8011064
:1005E000C184007F012802D14020402105E002287B
:1005F00007BF4020392150205121B873F9730622DA
:1006000028793071691D701D00F014FA03E0302064
:10061000B8733120F873012428784FF002098DF85F
:10062000040075E0A81C0188491E10D04FF48062B8
:10063000891A1BD0491E39D0491E44D0491E49D0C1
:1006400040F2FE72891A53D00E3954D060E010F88F
:10065000021F012901BFB97B10291221F97300780B
:100660000124401E8DF80400A14651E0B97B821C94
:10067000402918BF50294BD1907860B1DFF80403AE
:10068000007F012802D14020402106E0022802D14B
:100690004020392101E050205121B873F973012421
:1006A00090788DF804004FF0040931E0B97B4029BF
:1006B00018BF50292CD14420F8730022BB680021B8
:1006C0000320984724E0DFF8BC02C08C012100F031
:1006D0006DFE1DE0B87B402804BFF87B422817D18F
:1006E000DFF8A002407800280CBF472043200EE02E
:1006F000FFF7F2FE0CE0B87BB6F80CA0502801BF63
:10070000F87B572840F20B10824501D15120F87335
:100710000020B8F1000F00900ED06946384606E080
:10072000C16808001CBF404688470098694600F031
:10073000D0F90098B842F3D12CB1BB6801AA0121CD
:100740005FFA89F09847BAF1000F1CBF0020B08112
:10075000BDE8F38730B5DFF8304287B0207CC007B2
:100760001AD523208DF8180008232A208DF81900A7
:1007700006AA04F1140005900121002004900A202B
:10078000039000200290019002200090608A00F007
:1007900017FA050040F0ED80207C80071AD5242050
:1007A0008DF8180020232A208DF8190006AA04F1DC
:1007B000160005900121012004900A2003900020DA
:1007C0000290019002200090608A00F0F9F9050083
:1007D00040F0CF80207C40071AD525208DF81800E6
:1007E00020232A208DF8190006AA04F1180005908C
:1007F0000121012004900A20039000200290019022
:1008000002200090608A00F0DBF9050040F0B18022
:10081000207C00071AD526208DF8180020232A20D6
:100820008DF8190006AA04F11A0005900121012093
:1008300004900A2003900020029001900220009072
:10084000608A00F0BDF9050040F09380207CC0066E
:1008500019D527208DF8180020232A208DF819009B
:1008600006AA04F11C0005900121012004900A2031
:10087000039000200290019002200090608A00F016
:100880009FF9050075D1207C800619D528208DF8A8
:10089000180020232A208DF8190006AA04F11E0052
:1008A00005900121012004900A200390002002906D
:1008B000019002200090608A00F082F9050058D172
:1008C000207C400619D529208DF8180020232A20E5
:1008D0008DF8190006AA04F12000059001210120DD
:1008E00004900A20039000200290019002200090C2
:1008F000608A00F065F905003BD1207C000618D520
:100900002A208DF818008DF81900202304F1220008
:10091000059006AA0120049001210A2003900020DE
:100920000290019002200090608A00F049F90500D1
:100930001FD1208AC00519D550208DF81800072333
:100940002A208DF8190006AA04F12400059001213F
:10095000002004900A2003900020029001900220C1
:100960000090608A00F02CF9050002D1002007B049
:1009700030BD0FF2940000F0EBFD284607B030BD0B
:10098000600E0020600B0020D80D0020840E002097
:1009900030B583B0054601A800900C460DF10A035E
:1009A00002AA0DF106010DF1090000F07BFBC0B2B7
:1009B000A0B9BDF80610090A2970BDF80610090291
:1009C0002180BDF804201206120F41EA0211218095
:1009D000BDF8042002F00F021143218003B030BDA6
:1009E0004572726F72207768696C6520696E6974F0
:1009F00069616C697A696E67206D61696E207072D9
:100A00006F66696C652E0A005B4449535D20457230
:100A1000726F72207768696C6520616464696E67C3
:100A2000206368617261637465726973746963736A
:100A30002E0A000010B5044600F09CFD204610BDB3
:100A400010B5044610460A460146204600F0CEFD89
:100A5000204610BD006040607047EFF3108172B611
:100A6000026882420CBF012000201CE0EFF31082DC
:100A700072B603680B6048600160086841602DE051
:100A8000EFF3108272B6086043684B6041604868BB
:100A9000016023E0EFF3108172B6436802681A60C8
:100AA00042680068426081F31088704738B50C4690
:100AB000EFF3108572B6016821600068FFE7FFF769
:100AC000E9FF2168002008602168486085F31088EC
:100AD00031BDEFF3108272B60068086082F31088AF
:100AE000704700000020704738B5044615460B4695
:100AF00000222946012000F047FF054860433F21BE
:100B0000B0FBF1F1287800F08AFF002032BD000030
:100B100040420F0080B500F05AFF002002BD704730
:100B200000B587B000F012F900F001F940F20110B1
:100B3000ADF80600002100F009F800284CBFFF20A6
:100B40009DF8000007B000BDC0B2049001200690DF
:100B500001A800F0F9B970B58CB001288DF81C001F
:100B600014460CBF022610261D4632460DF11D000C
:100B7000FFF760FF701C07A9C0B203224454441C55
:100B8000E4B2684665540021FFF75AFF00F0DEF832
:100B900000F0CDF84FF4817000F062F8601CC0B234
:100BA00004900320FFF7D3FF002848BFFF2005D49F
:100BB0009DF8000010B9109900F049F80CB070BD14
:100BC000F1B58EB00D4616461F4602220EA900F062
:100BD000C4F807AC012DA57031460CBF02251025C5
:100BE0002A4600F0A0F8E81CC0B2411C0755C9B263
:100BF00014980855491C1598C9B203220855491C78
:100C00001698C9B20855491C1798C9B24D1C085509
:100C1000EDB21898285500F01FF800F097F800F092
:100C200086F84FF4827000F01BF8681CC0B2049084
:100C30000320FFF78CFF002848BFFF2005D49DF854
:100C4000000010B9199900F002F80FB0F0BDBDF81E
:100C5000010008800020704700216846FFF7F0BEC1
:100C6000ADF80600002107A80390704733B51C4675
:100C7000A01DA7B081281546A8BF42201FDA022276
:100C800027A900F06AF8022228A900F06BF82C9935
:100C90008DF820508DF82140224600F023F800F016
:100CA00055F800F044F84FF48370FFF7D9FFA01D0A
:100CB000FFF74AFF00284CBFFF209DF8000029B035
:100CC00030BD00B589B000F025F800F00FF840F213
:100CD0000B1000F011F800284CBFFF209DF8000019
:100CE00009B000BD0DF12200FFF7A4BE3F20ADF812
:100CF0000800CDF818D07047ADF80A00002101A80F
:100D00000490022005900F2003900120079002A874
:100D100000F01AB91822ADF80400002102A8FFF76C
:100D20008FBE224619460DF11F00FFF783BE3F20FC
:100D3000ADF80400CDF814D07047ADF806000021DE
:100D400007A80390E01DC0B204907047182200214C
:100D500001A8FFF775BE022228A907A8FFF76ABEFF
:100D6000022229A90DF11E00FFF764BE73B5A8B0D9
:100D700015462E9CE01D81281E46A8BF42201CDA85
:100D8000FFF7E9FFFFF7ECFF2F998DF820508DF862
:100D900021608DF82240224600F012F8FFF7D6FFBE
:100DA000FFF7C5FF4FF49370FFF7C7FFFFF7CEFEC5
:100DB00000284CBFFF209DF800002AB070BD10999C
:100DC0000DF12300FFF736BE38B5B14C201DFFF7FB
:100DD00041FE04F10C00FFF73DFE00258C2010FBC6
:100DE000054000F11401201DFFF74AFE6D1C052D82
:100DF000F4DB31BD00F108010A78042A01D001209A
:100E0000704790F888008978C01E814214BF022084
:100E10000020704710B5A2B00020009000F0C9FF7C
:100E20009B4C10E0694604F10C00FFF73FFE00F018
:100E3000BDFF00980830FFF78CFB00F0BAFF009967
:100E4000201DFFF71DFE04F10C00FFF706FE002831
:100E5000E8D0207850B90EE0802201A98D4800F03A
:100E600001FFC0B210B101A8FFF773FB00F0F1FE63
:100E70000028F1D1207000F099FF22B010BD38B5E4
:100E80000020009000F098FF824C814D04E0281D66
:100E9000FFF7ECFD00F090FF00F0DBFE18B3281D1B
:100EA000FFF7DBFDD8B96946281DFFF7FFFD009865
:100EB00000F108018022204600F0D4FEC0B20028D4
:100EC0000099E4D081F888000098FFF793FF00288C
:100ED0000099DCD105F10C00FFF7D2FDDAE7012023
:100EE000287000F069FF31BD00F06ABE30B5890599
:100EF00083B0890D41EA8020ADF80400144601203A
:100F00008DF800001D468DF80640032201A90DF161
:100F10000100FFF78FFD2346042229466846FFF7AC
:100F2000E3FF37BD38B504460D4607E0694628465D
:100F3000FFF7BCFD00992046FFF7A2FD2846FFF70A
:100F40008CFD0028F2D031BD2DE9F041044686B079
:100F500060884F4F884680052188800D40EA8125B2
:100F60004D4800680A21B0FBF1F600200090ADB2B8
:100F700002A8FFF76FFDE068A3686188C2B220880D
:100F8000FFF7B4FFB8F1000F59D106B90126314679
:100F900004A800F031FF05E0009902A8FFF770FDFA
:100FA00000F004FF04A800F02FFF002867D107F12C
:100FB0000C00FFF752FD0028F4D100F0FAFE69465C
:100FC00007F10C00FFF772FD009800F1080210789D
:100FD0000428E1D10098527800F10B0190F88800C4
:100FE000C01E0E2A37D00F2A04D0102A47D03E2A1E
:100FF00038D008E04A88AA4241D162680F2A15D049
:10100000087800283BD1009902A8FFF739FD381D68
:10101000FFF723FD0028C3D001A907F10C00FFF75B
:1010200045FD0199381DFFF72BFDB9E76269904234
:10103000C8BF1046606102462069FFF7FBFC0099BB
:10104000381DFFF713FD00F029F800F0AFFE002077
:1010500006B0BDE8F081B1F80120AA420FD1C91C49
:10106000C01EE3E70A7863689A42CCD16269401EE9
:101070009042C8BF104660610246491CDCE700F0A0
:101080000DF800F093FE4FF0FF30E1E700000000A4
:10109000F0070020700C00201C4D000802A907F189
:1010A0000C003FE7F0B589B000F024F800F032F80A
:1010B00000F035F8042000F038F8012000F01FF8A7
:1010C000002848BFFF2013D49DF8000080B99DF888
:1010D00001002070BDF8020028809DF804003070E7
:1010E000BDF8050038800E99BDF807000880002083
:1010F00009B0F0BD04460D4616461F467047ADF8D0
:101100000E0000210020059006900920089003A8F9
:101110001AE70446092200216846FFF791BC18220D
:10112000002103A8FFF78CBC0820ADF80C00CDF817
:101130001CD0704710B58AB08DF800008DF80110F2
:101140008DF802201C46072200F0CCF900F0D0F800
:1011500000F0E4F98A20ADF80E000021032006908B
:1011600001A80790072000F0BFF8002848BFFF2023
:101170000ED49DF8040058B9BDF8050020800C99E4
:10118000BDF8070008800D99BDF80900088000200F
:101190000AB010BD70B58AB00C468DF8080015462F
:1011A0001E46072200F06BF900F0A2F800F09EF94D
:1011B0008A20ADF80E00002102A8059001200690BB
:1011C000072000F091F8002848BFFF200CD49DF8BC
:1011D000000048B9BDF801002080BDF80300288058
:1011E000BDF80500308000200AB070BD00B587B0A2
:1011F00000F077F900F057F9812000F06AF9002833
:101200004CBFFF209DF8000007B000BD76B592B03E
:1012100000F04FF828BF42201BD200F052F800F037
:101220002AF89DF8600000F02CF800F035F800F086
:101230001AF800F010F800F054F900F034F98320A7
:1012400000F047F800F07EF900284CBFFF209DF821
:10125000000014B070BDA41CE4B207A802221EA9AD
:101260002018FFF7E7BB6419E4B207A802221DA902
:101270002018FFF7DFBB022213A90DF11F00FFF7B3
:10128000D9BB1A998DF822008DF821608DF8235072
:101290002A4609A8FFF7CEBB05F10800C0B207A98E
:1012A000451C4454EDB21C9907A822462818FFF7A4
:1012B000C1BB199D1B9C54FA85F10E3129291E468C
:1012C00070478DF81C00022212A90DF11D00FFF7D6
:1012D000B1BBADF80600002107A80390A01CC0B266
:1012E0000490704706900120089003A8FFF72CBED9
:1012F0001822002103A8FFF7A3BB00B589B018226C
:101300008DF8040000F084F800F0B3F8852000F0B8
:1013100069F800284CBFFF209DF8000009B000BD0F
:1013200030B58FB08DF81C008DF81D1014461D4689
:101330001022214600F0EEF8129814998DF82F0033
:101340008DF82E50182213988DF830000DF13100D1
:101350000160002115988DF8350001A8FFF770FB9A
:1013600000F0A1F8862000F07EF81A20049000F02A
:10137000E9F800284CBFFF209DF800000FB030BDF9
:1013800000B589B01822ADF804000DF10600016027
:10139000FFF7AFFF00F0AAF8882000F0ADF80028B2
:1013A0004CBFFF209DF8000009B000BD00B589B01A
:1013B00000F029F800F021F8892000F007F8002853
:1013C0004CBFFF209DF8040009B000BDADF80A0035
:1013D00000210320059001A806900120079002A893
:1013E000FFF7B2BDADF80A00002101A8049001206A
:1013F0000590079002A8FFF7A7BD3F20ADF80800B1
:10140000CDF810D07047ADF800008DF8021018220A
:10141000002102A8FFF714BB00B589B0ADF80000A9
:101420008DF802108DF803200021182202A8FFF782
:1014300007FBFFF7E2FF8D20ADF80A000021042032
:1014400005900F20039001A8069000F007F80028EF
:101450004CBFFF209DF8040009B000BD012007909B
:1014600002A8FFF771BDADF80600002107A80390A0
:1014700070473F20ADF80800CDF818D07047002124
:101480006846FFF7DDBA00B587B000F02AF800F033
:101490000AF8922000F01DF800284CBFFF209DF8AC
:1014A000000007B000BD3F20ADF80400CDF814D017
:1014B000704700B589B0FFF7A6FFFFF79EFF9320A6
:1014C00000F032F800284CBFFF209DF8040009B05E
:1014D00000BDADF8060000210120069001A8FFF72D
:1014E00033BD1822002101A8FFF7AABA3F20ADF8AA
:1014F0000C00CDF81CD07047ADF80E00002101A8FB
:101500000590062006900F2004900120089003A863
:10151000FFF71ABD0DF11E00FFF78CBA3F20ADF8A2
:101520000C00CDF814D07047ADF80A00002103205C
:1015300005900F20039001A806900120079002A8B3
:10154000FFF702BD0120069001A8FFF7FDBC0000D7
:101550000EB400B582B003A9009102466B4601218A
:10156000034878440A3000F05BFC06BC5DF810FBD1
:101570006D37000062B38B0708D0521E11F8013B93
:1015800000F8013B00F024808B07F6D1830740F080
:10159000208000BF103A07D330B4B1E83810103AB9
:1015A000A0E83810F9D230BC530724BFB1E80810C6
:1015B000A0E8081044BF51F8043B40F8043BD207B0
:1015C00024BF31F8022B20F8022B44BF0B780370A4
:1015D0007047083A07D3B1E80810083A40F8043BCE
:1015E00040F804CBF7D25307E4E7000062F30F2280
:1015F00062F31F42401810F0030308D0C91A1FD32A
:10160000DB0748BF00F8012D28BF20F8022D13008A
:1016100030B414461546103928BF20E93C00FAD8EA
:10162000490728BF20E90C0048BF40F8042D890075
:1016300028BF20F8022D48BF00F8012D30BC7047AC
:10164000C91818BF00F8012DCB0728BF00F8012DDD
:10165000704700002DE9F041DFF80464DFF80484EE
:10166000044630781425082815FB048709D1307802
:1016700070703470082038744FF6FF70F0800020CE
:1016800039E000F06AF8B96811FA80F1B960B96818
:10169000327815FB0282926891421AD3327802E0C6
:1016A00015FB0282127C15FB02831B7C082B04D0E5
:1016B00015FB03839B689942F2D215FB02810B7CD8
:1016C000082B1CBF15FB0385EC733B74FA730C7479
:1016D00011E031783378994215FB018206D0D37B33
:1016E00015FB03852C743974FB7300E03974D473D3
:1016F000317871703470BDE8F081F0B5D84BD94DB8
:101700001E781424B04214FB005204D1187858708B
:10171000107C18700BE0D07B167C177C14FB0050FB
:10172000082E077403D0D07B14FB0654E07301200D
:1017300010731878082802BF00294FF6FF70D88070
:10174000F0BDC749C96809684FF6FF7000E0886AB4
:101750008A6A9042FBD180B2704710B5C04CE088D5
:101760004FF6FF71884211D0FFF7EBFFE18881420D
:10177000E18828BF081A04D2228912FA81F1081AD6
:10178000401C21794843E178C84000E0002080B245
:1017900010BD2DE9F843B24CE56828688168490519
:1017A00002D5C1684907FCD48168DFF8B88221F40A
:1017B000806181604FF01409277819FB07808668E3
:1017C000FFF7CBFF864238BF002608D3618910FAA5
:1017D00081F1B14202D26689002101E0361A01216D
:1017E000A17001E08A600F7C082F08D019FB0781E7
:1017F0008A68824232BF00228A68121AF2E7B6B2C1
:101800003EB9FFF79EFFE0800320BDE8F24300F001
:1018100043BF022E02DAE078012800D0761E286845
:10182000C1684907FBD500F0A6F88F49086003207E
:1018300000F038FFE5682868B6B24661FFF781FF1F
:10184000E0802868816841F480618160BDE8F183AF
:101850002DE9F041EFF3108872B68148C16809683C
:101860008A6822F480628A60CA6802F0800262F4A8
:101870009062CA604FF480017B4A1160142205789F
:10188000784912FB0516317B02291ED13768B47BDB
:101890008078C0B1707B01280AD101212846FFF76A
:1018A0002CFF88F310887168284600F0B8F804E02F
:1018B00088F31088284600F095F83A4629462046D5
:1018C00000F07CFF03E0FFF764FF88F31088BDE8B9
:1018D000F08138B5624CE0600168896801F0070169
:1018E000C1F10401E17002681269120C02F07F027A
:1018F000521C2271D2B203681B695B045B0C23810A
:101900005B1E5A430A41A2F110014FF6FF72914249
:101910002CBF628161810121A170E2800021514AC6
:101920000023142515FB0125491C08292B73F8DB1E
:101930000821217000684D4D816821F4806181602B
:1019400000F019F86861032000F0ACFEE068006860
:10195000816841F4804181600022A86840F48000E1
:10196000A8600321286840F4800028600320BDE8B7
:10197000384000F051BEC16801F0800161F490610F
:10198000C1604FF480007047F0B50024EFF310857C
:1019900072B61426334F06FB047C9CF80CC0BCF1D5
:1019A000000F02D0641C082CF5DB082C0BD006FBC2
:1019B00004760127377385F31088B0737273336030
:1019C0000C700020F0BD85F310880120F0BD10B52B
:1019D000044600F007F82349142212FB04110020EA
:1019E000087310BD38B5054600F042F81D481421B3
:1019F00011FB0500007B02280BD100212846FFF7D0
:101A00007CFE17480178407888421CBF0829FFF700
:101A1000C0FE032000F01DFE84F3108831BDF8B530
:101A200006460F4600F024F80E48142111FB060567
:101A300002202873AF606F603046FFF70BFE084945
:101A40000A784978914202D0FFF7A3FE02E0A96824
:101A5000081AA860032000F0FCFD84F31088F1BD93
:101A6000500E0020C00A0020143C0140003C014000
:101A7000EFF3108472B6032000F0F1BD0068DFF8C8
:101A80004013884200D0704710B586B00020009007
:101A9000DFF83043DFF83003016841F001010160F5
:101AA000016801F001010091009900210091016895
:101AB00041F002010160016801F00201009100990A
:101AC0000021009100F065F800F063F8416941F4ED
:101AD0008051416101A9406900F480500090009854
:101AE0004FF4807001900120029003900020049038
:101AF00000F058F900F03AF80820019001A90220FE
:101B0000029003900320049005200590AF4800F058
:101B100075FE402000F030F8802000F02DF8022003
:101B20000190012002900390032004900020059072
:101B300001A900F038F901220221204600F030FF0F
:101B40000120019001A9A2480290002003900320E7
:101B50000490002000F026F900220321062000F066
:101B60005BFD062000F075FD06B010BD00224FF4AD
:101B70008071204600F014BF019001A9022002905C
:101B8000002003900320049005200590204600F0DB
:101B900035BE016841F001010160016801F00101F9
:101BA0000091009900210091016841F0010101605C
:101BB000016801F001010091009900210091704736
:101BC0002DE9F04104468348DFF80C8284B00D46CD
:101BD00000680A21B0FBF1F116461F4601A800F08B
:101BE0000BF9F8B20090F3B22A462146404600F0C5
:101BF00086F820B101A800F007F90028F1D0BDE86F
:101C0000FF8175486E4901604FF482714160002187
:101C10008160C160016141614FF400718161002107
:101C2000016241620721C1620821C1610021816214
:101C300000F0D8BE10B5634CFFF798FF052001F007
:101C4000F8F80122FFF793FFBDE81040052001F0EE
:101C5000F0B880B501215B4800F09CFE012818BF58
:101C6000002002BD2DE9F04387B005460E46FF2057
:101C700017468DF8050004A80FF26411DFF84481BF
:101C80000CC90CC000220221404600F089FE0F2042
:101C90000090052302AA04A900F081F89DF808002D
:101CA0000024022819D19DF80C009DF80B1051EA70
:101CB000002912D04F450DDAB9460BE00F200090F5
:101CC000012301AA0DF1050100F069F89DF8040057
:101CD000A055641CE4B24C45F0DB012202214046D1
:101CE00000F05EFE002002E000BF0098401C009063
:101CF00000980228F8DB204607B0BDE8F0832DE904
:101D0000F047884691461E460FF2DC01C6B00546F4
:101D10000CC903A80FF2D801DFF8A8A00CC00CC9A9
:101D200001A800270CC0062000F099FC0022022127
:101D3000504600F035FE0F200090052301AA03A9AC
:101D400000F02DF89DF8040002281AD14E9C9DF851
:101D5000050054FA86F1884210DB36B10F2000905E
:101D6000334605AA414600F01AF864B10F200090EE
:101D7000234605AA494600F012F804E06FF0010777
:101D800001E04FF0FF3701220221504600F008FE2B
:101D9000062000F05EFC384646B0BDE8F0872846D5
:101DA00000F063BE0590204600F028BD062000F03C
:101DB00050BC062000F053BC084901200860704761
:101DC0000030014000000240303802400004024070
:101DD000000011101C4D0008700C0020143C014044
:101DE0000B000000000000000A00000000000000DE
:101DF000AA0000000000000010B504466160FFE783
:101E000001F02AF8206010BD10B5044601F024F856
:101E100022686168801A401C81428041C00F10BD59
:101E20002DE9F04F80460FF2A47095B015461E467E
:101E3000D0E90023CDE9132303AF00200391B8615B
:101E40000DF1340900E065190020ADF8020013AB74
:101E50004FF0FF3229460DF1020000F0FFFF04466B
:101E6000012C04DA2878441EA441E443E40FBDF8B1
:101E7000020025280CBFA4F1010BA346BBF1010F02
:101E80000EDBAA461AF8011B0398C04700280390EE
:101E900000F0DA80B869401CBBF1010BB861F1D1E8
:101EA000BDF80200252804D10020F860386178616F
:101EB00005E00028C7D1B86906E340F0010015F835
:101EC000011F2029F9D023290DD02B2904D02D2939
:101ED00006D030290AD00CE040F0020080B2EEE7D4
:101EE00040F00400FAE740F00800F7E740F0100087
:101EF000F4E72A290ED13168316051F8042B3160A2
:101F0000002A3A6204D5514240F00400396280B29E
:101F10006D1C13E0002139620BE0396A6FF0004359
:101F2000994205D001EB810302EB4301303939625C
:101F30006D1C2A78A2F130010A29EED329782E29C6
:101F400003D04FF0FF31F9611FE015F8011F2A2976
:101F500007D1316831606D1C51F8042B3160FA6192
:101F600013E00021F9610BE0F9696FF00043994239
:101F700005D001EB810302EB43013039F9616D1C9F
:101F80002A78A2F130010A29EED3B8840FF2446016
:101F9000297800F073FF08B115F8010B8DF83200B5
:101FA0009DF83200682804BF2878682803D1622091
:101FB0008DF832006D1C0DA8B86015F8014B252C6A
:101FC00013D0582C4BD0632C00F0A380642C18BF86
:101FD000692C7CD06F2C42D0702C36D0732C0AD058
:101FE000752C18BF782C3AD0B6E00120F860252077
:101FF0008DF83400BAE09DF832006C28306830600B
:1020000018D050F8044B30607C60D7F81CA0BAF1AF
:10201000000F04D5204600F03DFF824607E05246FF
:102020000021204600F052FF08B1A0EB040AC7F8D7
:1020300010A09BE050F8042B306002A9404600F04D
:102040002DF9002840F192803CE23068306050F871
:10205000041B306002910DA87860782155E09DF84E
:1020600032006C280DD0712818BF6A2809D1306859
:10207000C01D20F007023260D2E900010832326050
:1020800004E03168316051F8040B316002909DF832
:102090003200682802D102A8008803E0622802D139
:1020A00002A80078029097F82400000728D502982B
:1020B00030B344F02000782822D1F868302100F8AD
:1020C0000910401C411CF96000F8094018E09DF817
:1020D0003200314600F0BCF80028029002D5F868C2
:1020E0002D2109E0B88C810702D5F8682B2103E087
:1020F000C00705D5F868202100F80910401CF860D9
:102100000DA8F96808187860214602A800F0DFF9E8
:102110002CE09DF832006C2809D00120F86030686E
:10212000306050F8041B30608DF834101EE03068C9
:10213000306001AA50F8041B3060ADF80410002094
:10214000ADF8060002A94FF0FF30F861404600F0FC
:10215000A5F800280AD577E70120F86025208DF83A
:1021600034001CB10220F86089F80140386AF9682F
:10217000401A7969401A3969441A97F824004007CF
:1021800011D42020012C8DF800000CDBA246012385
:102190006A4602A9404600F001FA00287FF454AFD5
:1021A000BAF1010AF3D1D7F80CB0BBF1000F0DF171
:1021B000340A0DD01AF8011B0398C0470028039079
:1021C0003FF442AFB869401CBBF1010BB861F1D1DB
:1021D000D7F814A03020BAF1010F8DF800000BDB06
:1021E00001236A4602A9404600F0D8F900287FF48E
:1021F0002BAFBAF1010AF3D1D7F810B0D7F804A089
:10220000BBF1000F0DD01AF8011B0398C04700283E
:1022100003903FF419AFB869401CBBF1010BB861E2
:10222000F1D197F8240040077FF50EAE2020012C55
:102230008DF80000FFF608AE01236A4602A9404669
:1022400000F0ACF900287FF4FFAE641EF4D1FBE58A
:10225000622815D068280CD06C2818BF742816D0B6
:102260007A2814D10A680A6052F8040B0A60002127
:1022700070470A680A6052F8040B0A6000B20BE06B
:102280000A680A6052F8040B0A6040B204E00A6867
:102290000A6052F8040B0A60C11770472DE9F44F29
:1022A0000D4694B02F6A002F804648BF6FF000475C
:1022B00000F038FE696A401801900FF22030D0E932
:1022C0000023CDE9022395F82800400702D40198A5
:1022D000412805D240200DF110090190002606E0AA
:1022E00000F026FE5FEA0009F8D1EBE03F1B012F6A
:1022F000C0F294801498018802AA0DF1010000F048
:102300006FFE0028044600F19C801498008810B9E4
:10231000641E00F19680A742C0F28080286901996E
:102320002218914268D26E624042A969401A6969D6
:10233000461A95F82800400710D42020012E8DF869
:1023400000000BDBB24601236A462946404600F0F6
:1023500025F9002875D1BAF1010AF4D1D5F810B0E9
:10236000BBF1000FCA460CD01AF8011B6868C047C1
:102370000028686065D0E869401CBBF1010BE8618A
:10238000F2D130208DF80000D5F818A0BAF1010F75
:102390000ADB01236A462946404600F0FFF8002880
:1023A0004FD1BAF1010AF4D1D5F814B0D5F808A08C
:1023B000BBF1000F0CD01AF8011B6868C047002859
:1023C00068603ED0E869401CBBF1010BE861F2D1C6
:1023D00095F8280040070DD52020012E8DF800002B
:1023E00008DB01236A462946404600F0D7F840BB87
:1023F000761EF6D100262E61224628690DF10101D4
:102400004844FFF7B7F82869201828611498801C01
:102410001490801E008800287FF468AF686A2969DC
:10242000401AA969401A6969471A95F828004007B7
:102430000FD4012F0DDB3C4668682021C04768603F
:1024400010B94FF0FF3635E0E869401C641EE861C2
:10245000F2D12B694A462946404600F09FF80028F1
:10246000EFD1AC69012C0ADB68683021C047002835
:102470006860E6D0E869401C641EE861F4D16B69CD
:10248000AA682946404600F089F80028D9D195F875
:10249000280040070CD5012F0ADB68682021C047BF
:1024A00000286860CDD0E869401C7F1EE861F4D147
:1024B0002E616E6204A881451CBF484600F09EFD57
:1024C000304601E04FF0FF3015B0BDE8F08FF0B4BA
:1024D000C2686F2908BF082405D041F02003782B7B
:1024E00014BF0A24102418230668642918BF692918
:1024F000374602D1002E48BF7F425FB9056A4DB909
:10250000082C27D190F82810090723D5302117234C
:10251000D1751FE0B7FBF4F604FB16773037FFB236
:102520005D1E3A2FA4BFA1F1510C6744AF542B4656
:10253000370003D085689E18B542EBD3082C09D12B
:1025400090F82810090705D5995C302902D05B1E48
:10255000302199549A188260C3F11801026A4161CE
:10256000914208DA511A81614FF6EF72018D1140E4
:102570000185F0BC7047002A0ED590F8282002F0A3
:102580001402102A08D1426A0369D21A8369D21A46
:10259000531A012BA8BF8361F0BC7047F8B50446FD
:1025A0000D4616461F46002077B116F8011B6868D5
:1025B000A047686030B1E869401CE86100207F1ED8
:1025C000F3D1F2BD4FF0FF30F2BD0000000000007B
:1025D00000000000686C747A4C00000000000000ED
:1025E000000000000901002806D5314A00F00F0064
:1025F000801800F8041C70472E4A815470472E49F9
:102600000A684FF6FF031A4000F0070042EA002074
:102610002A4A10430860704738B5274B1B68C3F33C
:102620000223C3F10704052C28BF04241D1D072D18
:1026300034BF0023DB1E012505FA04F4641E21408B
:10264000994005FA03F35B1E1A401143BDE834407C
:10265000C8E7012100F01F029140194A04E001215E
:1026600000F01F029140174A400942F820107047BD
:1026700010B5401EB0F1807F01D3012010BD124C77
:1026800060600F214FF0FF30FFF7ACFF0020A0602B
:1026900007202060002010BD012100F01F029140A2
:1026A0000A4AE1E7012100F01F029140084ADBE7F6
:1026B00018ED00E000E400E00CED00E00000FA0599
:1026C00000E100E080E100E010E000E000E200E076
:1026D00080E200E070B582B000F078FB00F0CEFC44
:1026E00000F0F4FC3F4C1C22002104F12000FEF716
:1026F000A7F93D4D3D4E0120686400200090B06B6D
:1027000040F08050B063B06B00F0805000900098B3
:1027100000F07CFD00F07AFD306820F4F8103060A5
:10272000B06E40F40070B066012028603048206030
:102730000020207701206077204600F0ABFD0120CB
:10274000A0604FF6FF70E060204600F0B7FD216802
:10275000CA2048625320216848620321204600F0C5
:1027600017FEF06E8007FCD52046FFF7B2F8002375
:10277000012204F138010020FFF706F9FFF741FAC2
:1027800000F088FE00F036FEA06A8047002000F0CE
:102790000AFE04E0022000F081FE00F0ACFEFEF72D
:1027A00039FB206B8047FDF7AAFD0028F5D1606B4F
:1027B0008047002814BF08210621EBE7EFF31081C2
:1027C00060B90C48026842F00402026072B60A481E
:1027D0000278521C027081F310887047100018BFF5
:1027E00010477047680D00203C0E474208380240F1
:1027F00000280040007000406E0E00202DE9F847D0
:1028000000226F4BDFF8BC81DFF8BC914FF00F0A5C
:10281000012707FA02FC0F680CEA0707674540F03A
:10282000B3804C68022C18BF122C10D1D40800EBD6
:10283000840E02F00704DEF82050A4000AFA04F621
:10284000B5430E6906FA04F42C43CEF820404FEA53
:10285000420E032405680E7904FA0EF4E44306F0F0
:102860000306254006FA0EF6354305604D68012D36
:1028700018BF022D03D0112D18BF122D0FD185685E
:10288000CE68254006FA0EF635438560456825EA90
:102890000C064D68C5F30015954035434560D0F8EA
:1028A0000CC004EA0C0C8C6804FA0EFE4EEA0C0C08
:1028B000C0F80CC0D1F804C05FEACC0C64D5002489
:1028C00000944FEA920CD9F8004044F48044C9F8CF
:1028D000004002F00305D9F8004004F4804400945D
:1028E0004FEA850E009C58F82C400AFA0EF5AC43CE
:1028F000364DA84208BF002513D0354DA84208BF69
:1029000001250ED0334DA84208BF022509D0324D13
:10291000A84208BF032504D0304DA8420CBF0425AF
:10292000052505FA0EFE4EEA040448F82C406FEA2D
:10293000070C1C680CEA040E4C68E40348BF47EA25
:102940000E0EC3F800E05C680CEA040E4C68A403A9
:1029500048BF47EA0E0EC3F804E09C680CEA040E78
:102960004C68E40248BF47EA0E0EC3F808E0D3F80B
:102970000CE00CEA0E0CD1F804E05FEA8E2E48BFA2
:1029800047EA0C0CC3F80CC0521C102AFFF440AFED
:10299000BDE8F1870069084018BF0120C0B2704748
:1029A00002B90904816170470D4A1368034200D1DE
:1029B000704780B5106000F0D1FD01BD000000003F
:1029C000003C014008380140443802400000024009
:1029D0000004024000080240000C024000100240C7
:1029E000143C014038B5050001D1012032BD05F18C
:1029F0005004607818B920702846FFF73FF802208D
:102A000060702868016821F0400101606868A96869
:102A10000843E96808432969084369690843A969C3
:102A200001F400710843E9690843296A0843A96A67
:102A3000084329680860A869696A000C00F004006E
:102A4000084329684860A86AB0F5005F02D1296888
:102A5000E86A08612868C16921F40061C161002049
:102A6000606001206070002032BD2DE9F84F0446FF
:102A70000020ADF8000004F1500600253078012850
:102A8000894692461F464FF0010B08BF022000F016
:102A9000D58086F800B000F0C9F98046707801282A
:102AA00009D06168B1F5827F02BFA16800290428BE
:102AB00001D00225C0E0B9F1000F18BFBAF1000F34
:102AC00000D00FB90125B7E07078012804BF0520B8
:102AD00070707560C4F838A0E787A787C4F8309095
:102AE000E786A7862564656400F0E0F80A9FB0F5E4
:102AF000006F606838D100281CBFE08E012805D126
:102B0000216839F8020BC86000F0A5F8E08E0028B3
:102B100004BFE08F002860D0BBF1000F1CBFE08E27
:102B200000280DD000F0A6F80AD539F8021BC160C4
:102B300000F095F804BFA06AB0F5005F00F0AFF8B0
:102B4000E08F38B100F092F804D5C0682AF8020B83
:102B500000F076F817F1010FD8D000F067F9A0EB7C
:102B60000800B842D2D35AE000281CBFE08E0128EA
:102B700005D1216819F8010B087300F06CF8E08E9C
:102B8000002804BFE08F002827D0BBF1000F1CBF36
:102B9000E08E00280DD000F06DF80AD519F8011B61
:102BA000017300F05CF804BFA06AB0F5005F00F0AC
:102BB00076F8E08F38B100F059F804D5C0680AF80B
:102BC000010B00F03DF817F1010FD8D000F02EF9FD
:102BD000A0EB0800B842D2D321E000F04FF80CD1AE
:102BE000CDF800803B4600F099F820B1706840F0C5
:102BF0000200706013E000F045F820688168C906A3
:102C000007D5716841F00201716001254FF6EF713F
:102C10008160CDF800803B4600F018F808B103252C
:102C20000AE04246394600F05AF818B12020012542
:102C3000706001E000F055F800F02BF8BDE8F28F6D
:102C40004FF0010BE08F401EE08770470122022108
:102C5000204600F067B8E08E401EE0867047AB4625
:102C6000E08E401EE086E08E002870472068816874
:102C7000C90770472068816889077047A06AB0F566
:102C8000005F70472068C068ADF80000BDF8000024
:102C9000704701207070002030702846704704D1C2
:102CA0002068016841F4805101607047A06AB0F566
:102CB000005F0AD1206801684DF6FF721140016083
:102CC0002068016841F400510160206801684906EC
:102CD00003D4016841F040010160E068704720467C
:102CE00064E0A06830B900902068C16800918068F5
:102CF00000900098704700006068B0F5827F7047D0
:102D0000A068B0F5004F704704D12068016821F039
:102D1000400101607047CDF8009043460122012137
:102D20002046FFE72DE9F041069E04460D469046F9
:102D30001F46206880682840A8420CBF0120002060
:102D4000404524D017F1010FF3D027B100F06EF801
:102D5000801BB842EDD32068416821F0E00141605A
:102D6000FFF7CAFF06D1FFF7CBFF18BFB0F5806FA2
:102D7000FFF7CAFFFFF782FF01D100F00BF804F163
:102D800050000121417000210170032000E000206B
:102D9000BDE8F081206801684DF6FF7211400160C6
:102DA0002068016841F400510160704710B582B09D
:102DB0000B460092044600228021FFF7B3FF20B1AA
:102DC000606D40F020006065032016BD80B51F488F
:102DD000016841F400710160016841F480610160A3
:102DE000016841F4807101600320FFF708FC0F20A7
:102DF00000F005F800F002F8002002BD704710B5A1
:102E00000446134800684FF47A71B0FBF1F0FFF705
:102E10002FFC002221464FF0FF30FFF7FDFB002082
:102E200010BD0C480168491C0160704709480068E2
:102E3000704711B581B0FFF7F9FF0446FFF7F6FFC1
:102E40000199001B8842F9D313BD0000003C0240E9
:102E500000000020780E0020FFF7E8BFF8B5044618
:102E60000D4616461F4600F08BFB3B463246294670
:102E7000204601B0BDE8F04000F099BB0278C9B22D
:102E80008A421AB11CBF10F8012FF9E718BF0020C1
:102E90007047000000F10103810704D010F8011B06
:102EA00089B18107FAD10268B2F10131914311F081
:102EB000803F04BF50F8042FF6E710F8011B11B152
:102EC00010F8011BFBE7C01A70470000C9B2830766
:102ED00006D0521E22D310F8013B9942F7D11FE0D1
:102EE000083A13D302F1040241EA012141EA014107
:102EF00050F8043B121F21BF4B40A3F1013C2CEAC8
:102F0000030C1CF0803FF3D0C9B2001F083210F848
:102F1000013B521E28BF91EA030FF8D818BF0120C9
:102F2000401E704780B500F02BFB012002BD000061
:102F300070B5054605F10F00C408C046C046E40060
:102F4000A54232D2082C04D2082402E0083000F056
:102F500055F82248026811000CD1011D0A6802B31D
:102F60001368A34238BF111DF8D310E01D68A542B5
:102F70000DD2191D0B68002BF8D11268011D00E05D
:102F8000191D0B6893420CD01D68A542F8D361B19E
:102F90000D682A68A2F10803A3420AD26A680A608F
:102FA0000FE000F027FB0028D0D1C046C04600202B
:102FB00070BD63190B60121B6E685E600B681A604F
:102FC0002C60096800291DBF4A68002A091D0021DC
:102FD0000160C046C04605F1080070BD700E0020BB
:102FE00070B504460D46164600F0CAFA3246294628
:102FF0002046BDE8704000F0CDBA000000B970472F
:1030000038B5A0F108042068082833D310F0070F62
:1030100030D1C046C0461848416809B18C4203D23D
:103020006160446017E019464B680BB1A342FAD3C4
:103030000B685D18AC421BD3A54204D12268D2189C
:103040000A600C4607E04A681AB123681B199A42C5
:103050000ED362604C60616851B1226813198B42D3
:1030600006D100230360086880182060486860600B
:10307000C046C04631BD0000700E002000B593B0C0
:10308000002000901048016841F080510160006804
:1030900000F08050009000980220069010200A90C6
:1030A000012009900C9006A800F0BAFA0F200190B8
:1030B00000210020029003900490059001A800F0E8
:1030C000D4FB13B000BD00BF4038024010B586B03D
:1030D00000F0A8FC424C206A40084000206201A990
:1030E000206A20F002002062206A20F004002062A2
:1030F000206A20F008002062206A20F01000206280
:10310000206A20F08000206200200090206840F0BB
:1031100001002060206800F0010000F06FF840F02E
:1031200002002060206800F0020000F067F840F024
:1031300004002060206800F0040000F05FF840F018
:1031400008002060206800F0080000F057F840F008
:1031500010002060206800F0100000F04FF840F0F0
:1031600080002060206800F080000090009803201C
:103170000290002003904FF6FF7001901948FFF76E
:103180003DFB01A91848FFF739FB01A91748FFF7D4
:1031900035FB01A91648FFF731FB01A91548FFF7D8
:1031A0002DFB01A91448FFF729FB206840084000C7
:1031B0002060206820F002002060206820F00400D9
:1031C0002060206820F008002060206820F01000B7
:1031D0002060206820F08000206006B010BD000054
:1031E000303802400004024000080240000C024057
:1031F00000100240001C02400000024000900098B5
:103200000020009020687047704700001949FFE7D0
:103210000120086070471948026822F00402026029
:1032200001290FBF30BF40BF20BF20BF7047124AE7
:1032300013689B0840EA8300106001290F48026868
:1032400042F0040202600FBF30BF40BF20BF20BF6A
:10325000016821F00401016070470748016841F0EE
:10326000020101600548016841F00401016030BFBE
:103270007047000020000E420070004010ED00E09A
:103280008A60FF21026851620121417700210177A4
:1032900000207047017F012901D1022070470121E0
:1032A000017702214177CA210268516253210268E5
:1032B000516201688A6842F02002E1E738B50400F3
:1032C0000ED0607F18B92077204600F040F800F05B
:1032D00034F8FF250028206804D045620420607778
:1032E000012032BD8168DFF86820114081602068CC
:1032F0008168626823691A4363691A4311438160D4
:103300002168E068086120680169A26841EA024119
:1033100001612068C16821F08001C1602068016CF2
:1033200021F4802101642068016CA26911430164C9
:103330002068456200F00EF832BD02206077CA2096
:1033400021684862532021684862204606E07047A1
:10335000BFFF8FFF012060770020704738B504461B
:103360002068C168490611D44FF0FF31C160FFF7F2
:103370005DFD05462068C068400607D4FFF756FD8E
:10338000401BB0F57A7FF5D9032032BD002032BD55
:1033900000688268D20841EAC2018160704700007B
:1033A00080B5032003E080B535490870022000F0A5
:1033B00073F801BD324800787047000070B50446CC
:1033C000801E03280D4616460CD8DFE800F00804DE
:1033D0000802012004E02B48FDF793F802E00320E7
:1033E000FFF7E1FF324629462046BDE87040264BF4
:1033F0005B68184710B584B001A80021002206C000
:10340000FDF7E2FCFEF716FC1F49204C096801A8F5
:1034100088470DF102016846FDF7BAFAFEF70AFC8B
:103420009DF800003128A4BF03208DF8090001AAEF
:103430000621002000F0FEFA0421012000F025FB07
:10344000202200212046FDF7FBFA032020700020F7
:1034500060700120A0700020E07020750820607569
:103460001020A0750748A06100202077011908717D
:10347000401C1028FADB20460549FCF78CFE1FBDD6
:103480006F0E002007B20100880D0020200E0020E2
:10349000BD33000800F02EBB70470000F0B5EFF31D
:1034A000108272B62B4BDF681D685E689C684FF017
:1034B000010C0CFA00F0082908BF074314D05FEA9A
:1034C000417E6FEA000C4CBF0CEA050505435FEA3C
:1034D000817E4CBF0CEA06060643C9070CEA0707C3
:1034E0004CBF0CEA040404439C605E601D60DF6016
:1034F00082F31088F0BD38B5EFF3108472B615482A
:10350000C16819BB016821B101210020FFF783FECA
:103510001CE08168104D51B9C046C046286840F093
:1035200004002860FFF799FEC046C0460EE02968F7
:1035300041F0040129604068002819BF01210020E2
:1035400001210120FFF773FEFFF75EFE84F3108870
:1035500031BD0000400E00200070004080B50148E1
:1035600002E000BF00700040016841F0040101600A
:10357000FDF785FCBDE8044008210220FFF78EBF5F
:1035800080B5DFF80C0000F06FFB806902BD000021
:103590008001002030B430B90FF24800D0E9004576
:1035A000C2E900451BE00170012030BC704730B417
:1035B00031B90FF23800D0E90045C3E900450EE00B
:1035C0001AB930BC6FF00100704708B10A78028068
:1035D0000978481E804130BCC043C00F70470020AE
:1035E00030BC704700000000000000000000000038
:1035F000000000000749086808B10020704706482D
:10360000C008C00008600549C908C900091A01605E
:10361000704700BF800E0020F7050020F007002053
:103620002DE9F8430446DFF8C4532078C0072FD5AE
:10363000A86800F00C00042807D0A86800F00C006F
:10364000082809D16868400206D5286880031FD57C
:103650006068E8B9012002E16068A870606858B14C
:10366000FFF7E4FB07462868800311D4FFF7DEFB71
:10367000C01B6528F7D3EFE0FFF7D8FB07462868A3
:10368000800305D5FFF7D2FBC01B6528F7D3E3E025
:103690002078DFF85C63800718D5A86810F00C0F5D
:1036A00007D0A86800F00C00082827D168684002FD
:1036B00024D42868800702D5E0680128CAD1286888
:1036C000216920F0F80040EAC10028602078DFF886
:1036D000248300073DD56169DFF81C0359B301213C
:1036E0000160FFF7A3FB0746D8F80400800730D439
:1036F000FFF79CFBC01B0328F6D3ADE0E06868B180
:1037000001203060FFF792FB074628688007D6D477
:10371000FFF78CFBC01B0328F7D39DE03060FFF759
:1037200085FB074628688007D0D5FFF77FFBC01BC5
:103730000328F7D390E00160FFF778FB0746D8F83D
:103740000400800705D5FFF771FBC01B0328F6D3E3
:1037500082E02078400740D500200090DFF89C925E
:10376000286C40F080502864286C00F08050009055
:103770000098D9F8000040F48070C9F80000FFF705
:1037800055FB0746D9F80000C00505D4FFF74EFBEE
:10379000C01B0328F6D35FE0A06888F8000041F260
:1037A0008939A06860B1FFF741FB0746D8F80000EF
:1037B000800712D4FFF73AFBC01B4845F6D34BE015
:1037C000FFF734FB0746D8F80000800705D5FFF760
:1037D0002DFBC01B4845F6D33EE0A06900283DD034
:1037E000A96801F00C0108293FF434AF022828D160
:1037F00000F037F807462868800105D5FFF716FB6B
:10380000C01B0328F7D327E0E069216A0843616AF7
:1038100040EA8110A16A891EC903090C40EA0140EF
:10382000E16A40EA01606860012000F01BF8074689
:103830002868800112D4FFF7F9FAC01B0328F7D3D8
:103840000AE000F00EF807462868800106D5FFF769
:10385000EDFAC01B0328F7D3032000E00020BDE8E9
:10386000F28300203066FFF7E1BA2DE9F843644E99
:1038700004463068884600F00F00404502D200F050
:103880008AF862D12078594F800705D5B868A168B9
:1038900020F0F0000843B8602078C0074DD560687C
:1038A000012802D13968890305E0022818BF0328DE
:1038B00003D13968890103D447E03968890744D5C1
:1038C000B968890840EA8100B86041F28939FFF798
:1038D000ADFA0546606801280AD1B86800F00C000E
:1038E00004282AD0FFF7A2FA401B4845F5D322E06E
:1038F00002280AD1B86800F00C0008281DD0FFF794
:1039000095FA401B4845F5D315E003280AD1B8685D
:1039100000F00C000C2810D0FFF788FA401B484537
:10392000F5D308E0B86810F00C0F06D0FFF77EFA68
:10393000401B4845F6D303202BE0306800F00F0011
:10394000804504D200F027F801D0012021E0207842
:10395000400705D5B868E16820F4E0500843B86036
:103960002078000706D5B868216920F4604040EA55
:10397000C100B86000F016F8BA680FF29801C2F3FF
:103980000312515CC8401F4908600F20FFF737FA47
:103990000020BDE8F28386F80080306800F00F0058
:1039A000404570471848416801F00C01042902D0D5
:1039B000082902D017E015487047016802685202D2
:1039C00001F03F014CBF114A114AB2FBF1F102680C
:1039D0000068C0F30140C2F38812401C514340000C
:1039E000B1FBF0F070470A48704700000038024011
:1039F0000000474270380240800E4742007000408D
:103A0000003C0240000000200438024040787D0164
:103A10000024F4000000000001020304010203047A
:103A2000060708090249FFE7012008607047000007
:103A300024000E4210B50C461146A21CA8B0812AE3
:103A4000A8BF42201FDA8DF81C008DF81D402246C9
:103A50000DF11E00FCF7EEFF00F03BF800F033F82C
:103A60000C20ADF80600002107A80390A01CC0B2EE
:103A700004900120069001A8FDF766FA00284CBFCB
:103A8000FF209DF8000028B010BD00B589B08DF86A
:103A900004008DF805101822002102A8FCF7D0FFC1
:103AA00000F022F80F2000F019F802200590012004
:103AB000079002A8FDF748FA00284CBFFF209DF8A8
:103AC000000009B000BD3F20ADF80400CDF814D0CF
:103AD00070471822002101A8FCF7B2BFADF80A0018
:103AE000002101A8049070473F20ADF80800CDF8F0
:103AF00018D070475548416911B90FF2390101607A
:103B0000416811B90FF279014160816811B90FF272
:103B10007D018160C16811B90FF27D01C160016949
:103B200009B94B490161416911B90FF28101416144
:103B30000BE000001CB50FF2281218CA69460622D5
:103B400018C16946FCF776FF13BD10B5414C1C2225
:103B500000212046FCF774FF0020207002206070D6
:103B60000820A0701020E0700020E0800520207266
:103B7000002004EB40014881401C0928F9DB10BDFE
:103B8000082804BF0120FFF70EBC70470422324909
:103B9000FF2000F06BB8000080B5042000F017F99A
:103BA000BDE80240002000F0ADB800002DE9F04172
:103BB00084B0FFF7FFFB01240028EFF31086234FAA
:103BC000244D3FD0012804D0032812D009280CD05E
:103BD0001BE0E869012804D1387EFDF703FF0020CF
:103BE000E861FFF7D9FF02200CE0FCF775FC00202C
:103BF00008E0E86928B9387E43F60161FDF70FFF58
:103C0000EC610520FFF7CFFB1CE0144F3878C0B102
:103C100000F0E4FB804672B60020387086F310880E
:103C20000520FFF7C0FB08F01F003C30A88084B0DF
:103C3000294668461C22FDF7ADFC0FBC00F0FDF8DC
:103C400000E00024204604B0BDE8F081880D00208B
:103C5000A1410008000E0020BD3300086E0E0020B8
:103C6000123401E18002000070470000F8B50446FC
:103C70000F4615460220FCF795FB08B9F020F2BD6F
:103C8000380001D1F120F2BDDFF83867342200217D
:103C90003046FCF7D5FEFF20F0767760002070817B
:103CA000B076E00708D5002040F001007081072DB4
:103CB000BCBF06F124000573A00703D5708940F04E
:103CC000020070811422002106F11C00FCF7B8FEEE
:103CD00006F12400022101700FF2A13141600021A0
:103CE00001724021418106F11C00FCF772FB40B9D2
:103CF00010203070FFF754FB10207070FFF750FB5E
:103D00000020F2BDF0B5DFF8BC468BB0217841252C
:103D1000302904BF6178312956D1DFF8AC1600286C
:103D20001CBF8878002824D00FF2A062E8CA07A838
:103D30003022E8C0002006900590002301F1290000
:103D4000049091F828000390202107A802901020E9
:103D50000190032000900020FDF758FA050033D1B0
:103D600004F11B020FF231610A20FCF7BDFE322084
:103D700022E00FF25862E8CA07A83022E8C000200B
:103D800006900590002301F12900049091F8280085
:103D90000390202107A8029010200190002000909D
:103DA000FDF734FA05000FD104F11B020FF2E951BF
:103DB0001E20FCF799FE35206070FFF7F1FA3321E1
:103DC00004F11C00FCF770FB28460BB0F0BD30B5C9
:103DD00083B001A9002200230CC1DFF8E845A17AD5
:103DE000C90726D52178202918BF302921D10728D5
:103DF0001FDA84F8300004F1300000900123618A5A
:103E0000A089FCF733FF050014D1A08963688DF801
:103E1000040001A9000A487001AA608A8DF8060012
:103E2000000A8DF807000020087105210920984735
:103E300000E04125284603B030BD0FB430B58BB04B
:103E400003A800210022002300241EC01EC001A8D8
:103E5000DFF8705506C02878402804BF68784128EC
:103E600040F096800120A8701E2203A8FCF7E8FD10
:103E70009DF8380028B9BDF83C008DF80D000223EC
:103E80000EE0012863D19DF80C0040F001008DF890
:103E90000C0003A9BDF83C0048700323000A887099
:103EA000A87E80B19DF80C0040F004008DF80C0055
:103EB0009DF8390038B1022849D19DF80C0040F036
:103EC00002008DF80C00A87A800713D59DF83A00FF
:103ED00080B108283BD19DF80C0040F008008DF817
:103EE0000C0003A9BDF83E0058545A1CD2B2000A77
:103EF0005054531C9DF83B0070B3102827D19DF8F7
:103F00000C009DF8381040F010008DF80C000920CE
:103F1000012908BF08209DF80C10090744BF401E66
:103F2000C0B29DF840108142B8BF0846E4B2844256
:103F300012DA0EAA02EB4401DBB24A8903A9641C1F
:103F40005A545B1CDBB2120A5A545B1CEEE70BB0EE
:103F500030BC42205DF814FBE98903A80090DBB275
:103F6000A8890022FCF782FE040012D1A8896B68A0
:103F70008DF8040001A9000A487001AAE889887038
:103F8000000AC8700020087105210920984700E048
:103F9000412420460BB030BC5DF814FB10B5DFF8AF
:103FA000244488B060890423C10748BF06238007E2
:103FB00044BF9B1CDBB241F60D00ADF81800012296
:103FC00004F10C00009006A90120FCF7C4FD0028B4
:103FD00052D142F63720ADF818001E2304F10E002E
:103FE000059006AA0120049001210A2003900020D8
:103FF0000290019010200090A089FCF7E1FD0028BC
:104000003AD142F63820ADF81800012304F112002D
:10401000059006AA0020049001210A2003900020A8
:104020000290019002200090A089FCF7C9FD18BB06
:1040300004F1300000900123618AA0890022FCF77E
:1040400015FEC8B9A17A890716D542F63920ADF810
:104050001800012304F11400059006AA0020049022
:1040600001210A20039002200290002001900820E4
:104070000090A089FCF7A4FD08B010BD10B584B075
:1040800000218DF80810411C007804280FD1087811
:10409000052805D03E2823D0FF283DD004B010BD10
:1040A000C84C2078302804D160783B2803D004B075
:1040B00010BD4028FBD188780028F8D1302020702E
:1040C000FFF76EF931206070FFF76AF90020A076E3
:1040D000A070E07EFCF71EFDFF20E07604B010BD6E
:1040E000881C01780129E2D110F8011FB54C89B96B
:1040F000B0F801002081E07EFCF70CFDFF20E076A7
:10410000FCF748F950281AD03B206070FFF748F9B7
:1041100004B010BD3120F8E7881C40F2014201884C
:10412000914205D040F6134291420ED004B010BD2A
:10413000A44C2078302804BF60783B28B7D14020B9
:104140002070FFF72DF94120DFE7801C41880279BC
:1041500040799C4C8DF80800A08A401C814201BF28
:104160002078402860784128A1D19DF80830208926
:104170000092012B02AB01930CD100230022FCF72B
:10418000F5FD002893D16368002200210B20984799
:1041900004B010BD80230122FCF7E8FD04B010BD7F
:1041A00070B58CB000208DF81C00864C207810284B
:1041B00004D020282CD0302842D0E8E0FCF7EAF8E0
:1041C000202840F0E480FFF7E9FE8DF81C00FF2571
:1041D00068B904F11C00FCF746F941F60D00FCF744
:1041E000A7F920202070FFF7DBF86570CDE0636849
:1041F00007AA01210820984700202070FFF7D0F877
:104200006570FFF7CDF804F11C00FCF70EF9BEE075
:10421000FCF7C0F8302840F0BA80FCF7BFF831282E
:1042200040F0B58030202070FFF7BAF83120607080
:10423000FFF7B6F8636807AA012108209847A6E0AF
:10424000607833280BD0342817D0362842D037284E
:104250004DD039287BD03B2800F08D8097E0FCF7CB
:10426000C5FF00288DF81C0040F09180312104F139
:104270001C00FCF719F9342086E00FF250116CC9CC
:1042800008A800216CC00691059100234E4800F15A
:10429000290190F828000390049108A80290302288
:1042A00010200190202100200090FCF7AFFF002893
:1042B0008DF81C006BD1332104F11C00FCF7F4F8DD
:1042C00035206070FFF76CF804F11B020FF2C90192
:1042D0001E2039E0FCF78AFF00288DF81C0056D11B
:1042E000312104F11C00FCF7DFF837204CE00FF21D
:1042F000DC016CC908A800216CC00691059100235F
:10430000314800F1290190F828000390049108A891
:1043100002904FF47A62102001904FF4C86100209F
:104320000090FCF773FF8DF81C0080BB332104F173
:104330001C00FCF7B9F838206070FFF731F804F181
:104340001B020FF255013C20FCF7CEFB1FE0FCF7EF
:104350004DFF8DF81C00D0B931206070FFF720F8B8
:10436000312104F11C00FCF79FF863680022002152
:10437000072098470BE0FCF711F8552807D140209B
:104380002070FFF70DF842206070FFF709F89DF8E4
:104390001C000CB070BD00000A48017830290FD114
:1043A0004178322904D0352904D0382904D0704707
:1043B000332102E0362100E039214170FEF7F0BFE1
:1043C00070470000A40D0020600B002009486561C3
:1043D00072745261746553656E736F72F8B5344FC1
:1043E0003846FFF741FC0446381DFFF73DFC054603
:1043F00007F10800FFF738FC064607F10C00FFF74D
:1044000033FC23782B492C4A002B40D12B6802FB2C
:1044100003132B60082702FB03132B6002FB03131B
:104420002B6002FB03132B6002FB03132B6002FBC8
:1044300003132B6002FB03132B6002FB03132B609F
:104440000346D5F800C002FB0C1CC5F800C043F8B9
:1044500004CB7F1ED5F800C002FB0C1CC5F800C0C1
:1044600043F804CBD5F800C002FB0C1CC5F800C013
:1044700043F804CBD5F800C002FB0C1CC5F800C003
:1044800043F804CBDDD1C36F3360012323702B6865
:1044900002FB03112960317801F01F0150F821203F
:1044A00032602A6840F82120306880008008F2BD20
:1044B000EC0000205FF36E3C0D66190010B4364A24
:1044C0000021134653F8084B844205D1002342F8DB
:1044D000313002EBC10113E053F8084B491C844210
:1044E0001EBF491C53F8084B84421EBF491C53F899
:1044F000084B8442EAD0491C1029E3D310BC704712
:104500004B6010BC704770B4234C0023254655F80F
:10451000086B8E4209D1014604EBC303012A04BF94
:104520005A685118596070BC704755F8086B5B1C8D
:104530008E421EBF5B1C55F8086B8E421EBF5B1C73
:1045400055F8086B8E42E6D05B1C102BDFD370BC95
:10455000704710B4104A0021134653F8084B8442A8
:1045600004D102EBC10010BC4068704753F8084BFF
:10457000491C84421EBF491C53F8084B84421EBF8D
:10458000491C53F8084B8442EBD0491C1029E4D352
:1045900010BC002070470000F00B00202DE9F04116
:1045A00004460D4620780321084216461F4658D07F
:1045B000204600F09AF8002853D115B1D5E9000142
:1045C0008619012F3DD12088C00416D5A16904F1B8
:1045D0003D02204600F0A6F8626A804602B92269D0
:1045E000E168204600F09EF8A6EB08010E1AA26AC8
:1045F000E168204600F096F8361A46BB20884FF452
:10460000405108420ED06068E0602061A0626061A5
:104610006068E06204F13D00A06104F12400E06103
:10462000002060622DB1D5E9020104F13002C2E937
:10463000000120884CF6FF61084020800020BDE882
:10464000F081022F03D04FB916F1010F09D094F970
:1046500003003A46314600F06AF8064616F1010FAB
:10466000CCD100F08BF8232101604FF0FF30BDE882
:10467000F081000038B500F087F8044620888004F7
:104680002ED5656809E04A1B294600F07FF810F135
:10469000010F18BF00280CD04519E16894F90300F8
:1046A0008D42F0D30022002100F070F810F1010FCC
:1046B0000DD16068E0606061E062208840F40070C5
:1046C0002080204600F061F84FF0FF3032BD656871
:1046D000E5606561E5624DF6FF7120880840208045
:1046E000204600F052F8002032BDF8B5A0B9C0460F
:1046F000C04600240A4D08264FF0FF37286820B135
:10470000FFF7B8FF002848BF3C462D1D761EF5D1A7
:10471000C046C0462046F2BDBDE8F240AAE7000010
:10472000C4000020914234BF501A0020704730B5B9
:1047300083B004000D00012A02D1FFF70AFF07E051
:10474000022A07D100940020019069460C20ABBEDC
:104750002D1801E0002A0CD10094019569460A2029
:10476000ABBE002805D1002221002800FFF7CBFEB8
:1047700001E00020C04303B030BD00000148FFF756
:1047800073BA0000EC0100207047704780B5002824
:1047900002D400F003F802BD002002BD80B500295C
:1047A00001D1002002BD012801D0022802D100F071
:1047B00004F802BD00F011F802BD30B583B00C0062
:1047C0001500012000F032F800900194029569462E
:1047D0000520ABBE281A03B030BD10B584B003006D
:1047E000140000930191029469460520ABBE01229A
:1047F0001900201AFFF787FE04B010BD80B500F045
:1048000033F802000023DB431068984204D0110003
:104810000220ABBE002010605068984204D0111DE9
:104820000220ABBE0020506001BD000010B584B076
:10483000040000F019F8A100421810680021C943D3
:1048400088420DD107A00090002C01D1002000E08B
:10485000042001900320029069460120ABBE106045
:1048600004B010BD3A74740000487047E4000020A2
:1048700010B50446E0686169884252D3218849F244
:1048800002020A40022A08D008044CBF4FF400700C
:104890004FF48440084320803CE001F4C041B1F56E
:1048A000C04F06D1A168884203D32046FFF71DFF01
:1048B00080BB20884FF44061084202BF606804F169
:1048C0003D01884217D14FF40070FEF731FB606064
:1048D00030B904F13D006060E060401CA0600AE077
:1048E000218841F040012180E060A06200F5007164
:1048F0006068A160E06260682061A0686061207803
:1049000040070AD502220021204600F00CF810F1E1
:10491000010F02D14FF0FF3010BD208840F4C0409D
:104920002080002010BD70B50C461546FFF72CFF07
:1049300006462B4622460021FFF730FE044630464D
:10494000FFF723FF204670BD0178090626D51C4AD3
:1049500013680021834203D1002342F821301BE079
:104960005368012183421EBF022193688342F3D022
:10497000D368032183421EBF042113698342EBD015
:104980005369052183421EBF0621936983421EBFDE
:104990000721D3698342DFD0FEF730BB00210180BD
:1049A0004FF0FF31C17000F13D014160C160016114
:1049B00081624161C162816100F12401C16170477E
:1049C000C400002038B5044603212078084202D0F4
:1049D0006056002809D5C046C0462046FFF7B4FF00
:1049E000C046C0464FF0FF3527E02046FFF77DFE6A
:1049F0000546C046C0462078400644BF6068FEF7C2
:104A0000FDFA0020606094F90300022804D900F048
:104A100016F808B14FF0FF35A06B48B100F01CF854
:104A200008B14FF0FF35A06BFEF7E8FA0020A06355
:104A30002046FFF789FFC046C046284632BD10B564
:104A400082B00200009269460220ABBE0400100052
:104A5000FFF734FD200016BD00B583B00090FEF7CF
:104A600019FA019069460E20ABBE03B000BD0000EC
:104A700010B5144C206808B1FFF7A4FF606808B1B6
:104A8000FFF7A0FFA06808B1FFF79CFFE06808B13E
:104A9000FFF798FF206908B1FFF794FF606908B13C
:104AA000FFF790FFA06908B1FFF78CFFE06908B13C
:104AB000FFF788FFBDE81040002200214FF0FF30D3
:104AC000FFF764BEC400002038B505460846FFF76E
:104AD0005BFE0446E0686169884204D32046FFF724
:104AE000C7FE002810D4E068401CE06000F8015DBB
:104AF0002088010504D440050CD5EDB20A2D09D15A
:104B00002046FFF7F2FD28B12046FFF73EFE4FF0AA
:104B1000FF3032BD2046FFF738FEE8B232BD00005C
:104B20000E480F4A016841F4700101600D480168A8
:104B300041F00101016000218160016811400160C4
:104B400009494160016821F4802101600021C160B0
:104B50004FF00060054908607047000088ED00E0F4
:104B6000FFFFF6FE003802401030002408ED00E0A0
:104B70007047FEE770477047704780B5FEF751F900
:104B800009480168491C016001BDFCF761BE0120B4
:104B9000FDF70ABF80B54FF40050FDF705FF03484D
:104BA0000178491C017001BD7C0E00206E0E0020B2
:104BB00019E050F8041BCB0744BFA9F101035918B1
:104BC000121F0023042A41F8043BF9D25FEA827CD9
:104BD0000B4604D54FF0000CA1F800C09B1CD10778
:104BE00044BF0021197050F8042B002AE1D170470E
:104BF00030B5016842688468091801EB5203D20796
:104C000048BF4C440C30994200D130BD11F9012B02
:104C100011F8015B002A04F8015B02D5521CF9D19E
:104C2000F1E7521EF4D5EEE710B507497944183183
:104C3000064C7C44163404E00A68081D5118884765
:104C40000146A142F8D110BD2C0000004800000030
:104C50004EF68851CEF20001086840F470000860FA
:104C6000BFF34F8FBFF36F8F4FF00070E1EE100A6C
:104C7000704700003DFFFFFF98060000F00700208E
:104C8000000000006DFFFFFF780100001001000030
:104C90000000002000F00BF8002801D0FFF7C4FF4F
:104CA0000020C046C046FDF715FD00F002F80120C7
:104CB000704700F001B800000746FFF7D9FE3846FC
:104CC00000F002F8FBE7000080B5FFF797FD024A0D
:104CD00011001820ABBEFBE72600020038B50446E1
:104CE0000D46284600F006F8A84218BF00242046CA
:104CF00032BD00000149FFF7E7BE00BF44000020BD
:104D00000148804701480047214B0008114D000829
:104D1000C046C046FFF79CFFFFF7BCFFE80300005A
:104D2000FFF7FEBFFFF7FEBFFFF7FEBFFFF7FEBFB7
:104D3000FFF7FEBFFFF7FEBFFFF7FEBFFFF7FEBFA7
:104D4000FFF7FEBFFFF7FEBFFFF7FEBFFFF7FEBF97
:104D5000FFF7FEBFFFF7FEBFFFF7FEBFFFF7FEBF87
:104D6000FFF7FEBFFFF7FEBFFFF7FEBFFFF7FEBF77
:104D7000FFF7FEBFFFF7FEBFFFF7FEBFFFF7FEBF67
:104D8000FFF7FEBFFFF7FEBFFFF7FEBFFFF7FEBF57
:104D9000FFF7FEBFFFF7FEBFFFF7FEBFFFF7FEBF47
:104DA000FFF7FEBFFFF7FEBFFFF7FEBFFFF7FEBF37
:104DB000FFF7FEBFFFF7FEBFFFF7FEBFFFF7FEBF27
:104DC000FFF7FEBFFFF7FEBFFFF7FEBFFFF7FEBF17
:104DD000FFF7FEBFFFF7FEBFFFF7FEBFFFF7FEBF07
:104DE000FFF7FEBFFFF7FEBFFFF7FEBFFFF7FEBFF7
:104DF000FFF7FEBFFFF7FEBFFFF7FEBFFFF7FEBFE7
:104E0000230024F4000104000041000020420000BF
:104E1000204100002041000020410000204100000E
:104E20002028000020E0001F02040101180D0020CE
:104E3000680D0020180D0020180D0020180D00200E
:104E40008100002068000020E0001F02080202C864
:104E50000C0020180D0020C80C0020C80C0020C831
:104E60000C0020C1000020A8000020E0000B04007E
:104E700000204400002084000020EC00F8FFFC002B
:084E8000000181008100000027
:00000001FF
