:020000040800F2
:1000000090080020116A0008AD680008AF68000879
:1000100000000000000000000000000000000000E0
:10002000000000000000000000000000B1680008AF
:100030000000000000000000B3680008B568000878
:100040004F1800088F290008CD6800084B360008BB
:100050005B370008D5680008CF5E0008DF6800083D
:10006000FB620008E764000847680008636900084D
:10007000EF690008FB69000800000000396A000809
:10008000000000003B6A00080000000000000000C3
:100090003D6A0008000000003F6A0008416A00084D
:1000A000436A0008456A0008476A0008496A000870
:1000B0004B6A00084D6A00084F6A0008516A000840
:1000C000AA480168002901D1A949016041680029B5
:1000D00001D1A8494160C168002901D1A649C16088
:1000E0008168002901D1A549816000218182817543
:1000F00070470000F1B582B00F00A14E6846027A49
:100100002EA1306801F09AF80025002402E0103496
:10011000E4B26D1C6846007AEDB285424DD23919C1
:100120000878012825D10222491D01A801F06AF9A9
:10013000306869468988934A891A10D0C91E13D13C
:100140001820694688700D20891C487011220221F0
:1001500000A8801C01F0FDF822A1306801E000BF7A
:100160002AA101F06BF804E069468A8833A101F006
:1001700065F8641CE4B202223919684601F042F9BC
:100180006846028833A1306801F058F8A41CE4B234
:1001900002223919684601F035F96846028800BF25
:1001A00035A1306801F04AF8A41CE4B23819401FA8
:1001B00000780128ABD1A41CAAE7F7BD2A2A2A2A75
:1001C000202020204E756D626572206F662050726F
:1001D000696D61727920536572766963653A20258D
:1001E000640D0A002A2A2A2A2020202048656172EC
:1001F0007420526174652053657276696365205579
:1002000055494420666F756E640D0A002A2A2A2A11
:100210002020202044657669636520496E666F72F0
:100220006D6174696F6E20536572766963652055E0
:1002300055494420666F756E640D0A002A2A2A2AE1
:100240002020202055554944203078253034780D21
:100250000A0000002A2A2A2A2020202020202053B9
:10026000746172742048616E646C65203D20307842
:10027000253034780D0A00002A2A2A2A202020203E
:10028000202020456E642048616E646C65203D200E
:100290003078253034780D0A00000000F3B583B0C3
:1002A000374F6846027B00BF37A1386800F0C6FFB1
:1002B000002602962FE000BF3EA100F0BFFF022201
:1002C000691C00A8801C01F09DF8E87869468871D7
:1002D0000222291D01A801F095F86846428800BF56
:1002E0003DA1386800F0AAFF6846827945A13868C8
:1002F00000F0A4FF684682884AA1386800F09EFF9B
:1003000068460288B549386800F098FF02980019DD
:10031000C0B20290761C6846007BF6B2864223D2B9
:100320000498029945182878012806D10824022249
:10033000A91D684601F066F800E016243868694691
:100340000988A74A891A0DD00E3904D0491E05D054
:10035000491E05D0AFE700BF3BA1AEE748A1ACE71F
:1003600058A1AAE766A1A8E705B0F0BDEC100020EF
:100370001D070008A907000835080008C90900087A
:10038000600D00200A1800002A2A2A2A2020202096
:100390004E756D626572206F66204368617261639D
:1003A000206F66206120536572766963653A202567
:1003B000640D0A002A2A2A2A2020202020204368AF
:1003C00061726163746572697374696320666F75C5
:1003D0006E640D0A000000002A2A2A2A202020200C
:1003E0002020436861726163746572697374696324
:1003F0002048616E646C65203D203078253034786B
:100400000D0A00002A2A2A2A2020202020205072AB
:100410006F70657274696573203D203078253032C5
:10042000780D0A002A2A2A2A20202020202056611E
:100430006C756548616E646C65203D2030782530B0
:1004400034780D0A000000002A2A2A2A20202020C1
:10045000202048656172742052617465204D656189
:10046000737572656D656E74204368617261637443
:100470006572697374696320666F756E640D0A0036
:100480002A2A2A2A202020202020486561727420F0
:100490005261746520426F64792053656E736F7288
:1004A000204C6F636174696F6E2043686172616391
:1004B000746572697374696320666F756E640D0A82
:1004C000000000002A2A2A2A202020202020486517
:1004D000617274205261746520436F6E74726F6C28
:1004E00020506F696E742043686172616374657235
:1004F000697374696320666F756E640D0A0000008D
:100500002A2A2A2A20202020202044657669636533
:1005100020496E666F726D6174696F6E204D616EF9
:10052000756661637475726572204E616D652043F6
:100530006861726163746572697374696320666F60
:10054000756E640D0A000000F3B583B0714F684604
:10055000027B00BF23A1386800F070FE00260196E0
:1005600015E000BF2AA100F069FE6846428800BF7E
:1005700032A1386800F062FE684602883DA1386802
:1005800000F05CFE01980019C0B20190761C68462C
:10059000007BF6B286421FD204980199451828784C
:1005A000012806D105240222E91C684600F02AFF32
:1005B00000E013240222691C00A8801C00F022FF26
:1005C000386869460988544A891A03D0891EC8D1F7
:1005D0002FA1C8E73EA1C6E705B0F0BD740600082C
:1005E000292A00002A2A2A2A202020204E756D62FE
:1005F0006572206F66204368617261632044657391
:1006000063726970746F723A2025640D0A000000ED
:100610002A2A2A2A20202020202043686172616330
:100620007465726973746963204465736372697079
:10063000746F7220666F756E640D0A002A2A2A2A6A
:1006400020202020202043686172616374657269F4
:10065000737469632044657363726970746F722088
:1006600048616E646C65203D203078253034780D0B
:100670000A0000002A2A2A2A20202020202055555E
:100680004944203D203078253034780D0A000000A0
:100690002A2A2A2A202020202020436861726163B0
:1006A00074657269737469632050726573656E74E2
:1006B0006174696F6E20466F726D6174204465735A
:1006C00063726970746F7220666F756E640D0A00D4
:1006D0002A2A2A2A202020202020436C69656E7453
:1006E0002043686172616374657269737469632021
:1006F000436F6E66696775726174696F6E204465D9
:100700007363726970746F7220666F756E640D0A20
:1007100000000000600D00200229000000B589B033
:1007200006A800BF10A10CC90CC004A810A10CC9D8
:100730000CC000900420694608730520087104A8C5
:10074000029068460FC800F0A6FE0200AE4800689E
:1007500004D100BF08A100F071FD02E00CA100F07F
:100760006DFD09B000BD0000230200E18002000021
:100770004852505F4300000043656E7472616C2004
:10078000696E697469616C697A65642E0A0000009B
:100790004852435F496E69742829204572726F720E
:1007A0003A20253032580A0000B58BB00420694643
:1007B0000873012003AA5070002103AB9970D07414
:1007C00003A80175AC48099003A984B068461C22AF
:1007D00001F052F80FBC00F0A2FE8B490B68002814
:1007E00005D100BF05A1180000F028FD04E00200BB
:1007F00008A1180000F022FD0BB000BD5365637521
:100800007269747920706172616D73207365742EE2
:100810000A0000004852435F53656375726974793A
:100820005365742829204572726F723A2025303240
:10083000580A00001CB50020694608703020488026
:100840008880684603C800F053FE04006E480068C4
:1008500004D100BF05A100F0F1FC04E0220000BFBC
:1008600006A100F0EBFC200016BD00005363616E92
:100870006E696E672E2E2E0A000000004852435FFC
:10088000446576696365446973636F766572792838
:1008900029204572726F723A20253032580A0000C2
:1008A00010B58EB090490591302105AA9180D18074
:1008B00080214901118112215181002105AB197359
:1008C000099011752820D0823820108305A8418313
:1008D000142005A988830520C883088484B068464D
:1008E000242200F0C9FF0FBC00F03DFE0400464882
:1008F000006803D105A100F0A1FC04E0220000BFC4
:100900000BA100F09BFC20000EB010BD4852435FCD
:10091000446576696365436F6E6E656374696F6E77
:1009200028292043616C6C3A204F4B0A00000000DC
:100930004852435F446576696365436F6E6E6563D5
:1009400074696F6E2829204572726F723A202530C3
:1009500032580A0010B500F057FE04009F480068A6
:1009600004D100BF05A100F069FC04E0220000BF33
:100970000BA100F063FC200010BD00004852435F53
:100980005365727669636573446973636F766572E4
:100990007928292043616C6C3A204F4B0A000000F3
:1009A0004852435F53657276696365734469736344
:1009B0006F766572792829204572726F723A202508
:1009C0003032580A0000000010B582B000F00AFE74
:1009D000694608700C4C6846007800280CD10B2240
:1009E0000121684600F0B5FC08A1206800F026FC53
:1009F00001209E49087513BD684602780AA1206847
:100A000000F01CFC13BD0000600D002044697363FE
:100A10006F6E6E656374696F6E20636F6D706C6569
:100A200074652E0A000000004852435F44657669F1
:100A30006365446973636F6E6E656374696F6E2876
:100A400029204572726F723A20253032580A000010
:100A500038B5050000F0E7FD04006048006803D1E8
:100A600006A100F0EBFB04E02B0022000DA100F03A
:100A7000E5FB200032BD000007B201004465766945
:100A800063655F446973636F766572795F4368611C
:100A90007261635365727628292043616C6C3A2039
:100AA0004F4B0A004465766963655F446973636F01
:100AB000766572795F436861726163536572762807
:100AC00029204572726F723A20253032582C2075D9
:100AD0007569645F736572766963653A203078255D
:100AE0003032580A0000000030750000F8B53B4F66
:100AF0003BA65E4C012506E03100386800F09EFB05
:100B0000FFF762FF25750A230422AD49AD4800F0C6
:100B100057FF002804D0032807D001F03FFA04E073
:100B200034A20421A64800F0AFFB607D0028EAD083
:100B300001F062FA01F0ADFCA3480078002801D072
:100B400000F0CCFDA07D00280CD020001730FFF76E
:100B5000A7FE694608700A220121684600F0F9FBE9
:100B60000020A075207D022808D1FFF7F3FE69461A
:100B70000870684600780028C4D0BDE7032809D172
:100B8000CE48FFF765FF6946087068460078002880
:100B9000B8D0B1E7042808D100F074FD69460870A8
:100BA000684600780028ADD0A6E7052808D100F0F7
:100BB00085FD69460870684600780028A2D09BE74A
:100BC0000828A0D100F06FFD6946087068460078DB
:100BD000002891D10620207595E70000600D0020C7
:100BE000446973636F6E6E656374696E672E2E2E33
:100BF0000A00000043656E7472616C2050726F666B
:100C0000696C652041707000F1B586B00C0016006B
:100C100017A50F2229000C98401D01F0A4FE002802
:100C200013D168468ECD8EC07C206946C8730C7483
:100C300048740020325C0B189A74401C0628F9DBBB
:100C400008221821684600F084FB6846007E0328CD
:100C500009D10C22012106A800F07BFB08A1CA489B
:100C6000006800F0EBFA07B0F0BD0000EC100020C7
:100C700048656172745261746553656E736F72007A
:100C80005363616E6E696E6720636F6D706C65741F
:100C9000652E0A00F8B507000C00BB4EBB49306852
:100CA00000F0CCFA3068494D012F04D022D3032F35
:100CB00010D009D31EE0002C1CD100BF0FA100F002
:100CC000BDFA0220287515E0220000BF16A100F031
:100CD000B5FA0FE0287D06280CD10020694608707F
:100CE0000B220121684600F034FB00BF1AA13068D6
:100CF00000F0A4FAA6A13068A0E000002A2A2A2A5F
:100D00002020436F6E6E656374696F6E2045737447
:100D100061626C69736865642077697468205375D3
:100D200063636573730D0A002A2A2A2A2020436F01
:100D30006E6E656374696F6E204661696C656420D0
:100D40007769746820537461747573203D2030781E
:100D5000253032780D0A00002A2A2A2A20204469E8
:100D600073636F6E6E656374696F6E207769746804
:100D70002070656572206465766963650D0A000000
:100D8000F2B504001700804D81A63100286800F0FC
:100D900055FA00BF0EA1286800F050FA220000BFEB
:100DA00055A1286800F04AFA002C07D1390068469E
:100DB0000078FFF79FF90320044908753CE0000024
:100DC0002C110020EC0F0020360F0020EC1000202A
:100DD0002A2A2A2A205072696D617279205365721D
:100DE0007669636520446973636F76657279205014
:100DF000726F6365647572650D0A0000F2B50400D8
:100E00001700614D62A63100286800F017FA00BF94
:100E10000CA1286800F012FA220000BF36A1286851
:100E200000F00CFA002C07D1390068460078FFF773
:100E300035FA0420BE4908753100286800F0FEF933
:100E4000F1BD00002A2A2A2A20446973636F76655F
:100E50007279204368617261637465726973746941
:100E60006373206F66206120536572766963652025
:100E700050726F6365647572650D0A00F2B5040007
:100E80001700414D42A63100286800F0D7F900BF95
:100E90000BA1286800F0D2F9220000BF16A1286833
:100EA00000F0CCF9002C07D1390068460078FFF734
:100EB0004BFB05209E490875BEE700000D18000099
:100EC0002A2A2A2A20446973636F7665727920433F
:100ED00068617261637465726973746963204465E3
:100EE0007363726970746F722050726F636564759A
:100EF00072650D0A000000002A2A2A2A20202020DC
:100F0000537461747573203D203078253032780D2C
:100F10000A000000F4B504000F001B4D1CA1286856
:100F200000F08CF9220000BF24A1286800F086F9A7
:100F3000002C27D13A0000BF2DA1286800F07EF9CF
:100F40002868012F06D17B490A7800BF30A100F044
:100F500075F914E039A100F071F900BF3BA608E073
:100F60000098025D13003100286800F067F9641CE6
:100F7000E4B2BC42F4DB70A1286800F05FF90820FD
:100F80006B490875F1BD0000600D0020900F00084E
:100F90002A2A2A2A2A2A2A2A2A2A2A2A2A2A2A2AB1
:100FA0002A2A2A2A2A2A2A2A2A2A2A2A2A2A2A2AA1
:100FB0002A2A2A2A2A2A2A2A0D0A00002A2A2A2A22
:100FC000204461746120526561642056616C7565CE
:100FD0002050726F6365647572653A205374617452
:100FE0007573203D203078253032780D0A000000DE
:100FF0002A2A2A2A202020204C656E2064617461F0
:101000002052656164203D2025640D0A0000000027
:101010002A2A2A2A20485220426F64792053656E7A
:10102000736F72204C6F636174696F6E2056616CD0
:1010300075653A203078253032780A002A2A2A2A23
:1010400020202020446174613A200000307825304F
:101050007820282564290000384A1278002A00D117
:10106000704780B50B00020036A15CE010B5344C2F
:1010700044A1206800F0E2F8002000F0BEFA002849
:1010800004D0020048A1206800F0D8F810BD00008C
:10109000F4B502000E002648007D062817D1284F1F
:1010A000330000BF0AA1386800F0C8F8002400BF70
:1010B00018A505E000990A5D290000F0BFF8641C3E
:1010C0003868E4B2B442F5D31BA100F0B7F8F1BD23
:1010D0004E4F54494649434154494F4E5F44415451
:1010E000415F52454345495645443A2068616E6424
:1010F0006C653D3078253034782C20646174612033
:101100006C656E6774683D25642C20646174613A77
:101110000D0A0000253032782000000080B50B0059
:10112000020000BF33A10648006800F087F801BD47
:10113000EC100020480F00200D0A0000360F0020A0
:10114000600D00202A2A2A2A2A204852435F467529
:101150006C6C436F6E665F43422829204572726F44
:10116000722054797065203D2030782530782077C2
:1011700069746820436F6465203D2030782530789D
:101180000D0A00002A2A2A2A2052657175697265A3
:10119000642053656375726974792050696E2043C9
:1011A0006F64650D0A0000002A2A2A2A20457272FF
:1011B0006F7220647572696E672074686520506173
:1011C0006972696E672070726F63656475726520FD
:1011D0002D3E2050696E20436F6465207365742036
:1011E00028537461747573203D2030782578290D5B
:1011F0000A00000050616972696E672043422063F3
:101200006F6E6E5F68616E646C65203D203078257E
:101210003034782077697468207374617475732032
:101220003D203078253032782A2A2A2A2A2A2A2A6A
:101230002A2A2A2A2A2A2A0A000000000CB400B509
:10124000A1B022AB0A008021684601F0A1FB010099
:101250000722684600F07DF8219824B0004710B5B9
:10126000534C607D00280ED100F0A0FE01F07AFC06
:1012700001F056FD2068804760688047E06880473D
:1012800001202075607510BD01000878FF2800D08E
:101290007047F8B5464C4748474D96235B000026FB
:1012A00001274A78012A08D0092A17D00B2A29D009
:1012B0000D2A09D0122A37D046E06675062213217E
:1012C0003EA000F046F806E027756775E0688047A5
:1012D00000283DD06675FFF7C2FFF1BDCE78002E25
:1012E00036D03200291D00F06BFB002801D000F041
:1012F00055FE0622691D2000173000F0A9FA677517
:10130000A775F1BD207D022802DBA068804709E0B7
:10131000667568460670012100F01BF82CA128684C
:10132000FFF78CFF2775F1BDCE78002E10D032006C
:10133000291D00F045FB002801D000F02FFE3100F0
:10134000281D22699047F1BD28A12868FFF776FF84
:10135000F1BDF0B583B007000E00002F22D0684623
:10136000FF210170012141700271467100218171DC
:1013700002228270C1700F4D962464002300062261
:101380006946280000F0C4FA002801D000F006FEEB
:101390002300B2B23900280000F0BAFA002801D0C8
:1013A00000F0FCFDF7BD80B5FEF78AFE01BD000030
:1013B000EC100020EC0F0020600D002043656E74DF
:1013C00072616C2050726F66696C652041707000AC
:1013D000446973636F6E6E656374696F6E20636FCB
:1013E0006D706C6574652E0A00000000436F6D6DB2
:1013F000616E6420756E737570706F727465642EA3
:101400000A00000010B5040000F022FA200010BD10
:1014100010B5040010000A000100200001F082FC59
:10142000200010BDF3B581B0170000250024AA4E9E
:1014300000E06D1C307BEDB285422AD23119C87BA9
:101440000128F6D1022214316846FFF7DBFF641C45
:10145000E4B2022231190F310298FFF7D3FFA41C26
:10146000E4B2022231190F313800FFF7CBFFA41C80
:10147000E4B23019807A012801D1A41C00E01034B4
:10148000E4B268460088694689888842D1D1002044
:10149000FEBD1220FEBD7FB586B08F4DE822002133
:1014A0002800FFF7AFFF2E00D23600243475748277
:1014B00006220699281DFFF7A5FF06220699684611
:1014C000FFF7A0FF684606A9097B017306A9097901
:1014D0008171089802900494684600F01FFF00286C
:1014E00003D102212960347000E02C600AB070BD85
:1014F00003B583B068460221017003A94988418081
:1015000003A9898881806946097B817100F081FF88
:10151000002802D10321704A116005B000BD0FB44C
:1015200030B587B00AAD6C46287820706878607056
:10153000A878A070012804D11022E91CE01CFFF754
:1015400061FF287D2075002801D1109800E000205F
:101550000690E87CE074684600F044FF07B002990A
:1015600030BC05B008470FB410B58AB06C460320F4
:1015700020700C9801900CA8808820810CA8C0884D
:1015800060810CA80089A0810CA84089E0810CA88A
:10159000007B20740622109920001130FFF732FFE3
:1015A0000CA8007DE0750CA8C08A20830CA8008BD5
:1015B00060830CA8408BA0830CA8808BE0830CA8D0
:1015C000C08B20840CA8008C6084684600F06FFFFC
:1015D000002802D10421404A11600AB0019910BCD0
:1015E00005B0084710B5964C608900F08EFF0028C2
:1015F00002D10021D234217010BD80B50100904885
:10160000408901F069F902BD10B58D4C32232200EA
:101610000F3221000C31608900F07CFF002801D1DD
:101620000621216010BD70B584B005002A4C26004B
:101630000A368449884202D0C91E884207D1F07810
:10164000002802D03079002801D1122018E002AA27
:1016500002A9891C2800FFF7E5FE002810D16420AC
:10166000019020004B30009023004A3368460289E5
:101670004189308800F079FF002801D1B0342580FD
:1016800004B070BD1CB56E4B1C000A34218F642061
:10169000019018004B3000904A334A1C92B22088C7
:1016A00000F096FF16BD80B5674800230122018F28
:1016B000491C89B2008800F0BDFF02BD80B5064A12
:1016C00010000A30012100911300B233D032418F53
:1016D000008800F0FBFF02BD640E002038B50C242A
:1016E000574D2868052808D007280FD00C282CD083
:1016F0000D281ED00F2813D031BDFFF785FF00281D
:1017000001D106202AE0010001201AE04D48FFF730
:101710008AFF002801D1082020E00100032010E00A
:10172000FFF7C1FF002801D1102017E001000720BA
:1017300007E0FFF7C3FF002801D10E200EE00100F3
:101740000920FFF789FC2C6031BDFFF74BFF002813
:1017500003D001000220FFF77FFC0220286031BD8A
:101760003748B221415CE4300170704780B500F029
:101770006DF801BDF4B586B00F0000260024304D91
:101780004221695A884258D11022002101A8FFF74E
:101790003FFE009701A806990978017006994B78D9
:1017A0000278D20702D40122437005E002228C782D
:1017B00024021C434480012403781B070AD5921C91
:1017C000D2B28B181F783F025B1E1B781F438780A5
:1017D000012300E000232900E6310B700378DB06CB
:1017E00025D5009B5B1E0373002C01D09B1E00E0DF
:1017F0005B1E03730978002902D0017B891E0173E7
:10180000017B490801730FE0921CD2B2009882421A
:1018100009DA06988318187800025B1E1B781843B3
:10182000039B74001853761CF6B28E42ECD3102240
:1018300001A9D4352800FFF7E5FD07B0F0BD000091
:10184000640E00200D1800006E0E00207047FEE7A9
:10185000124207D08B0706D00B78491C0370401C3E
:10186000521EF7D87047830706D00B78491C0370C7
:10187000401C521EF9D1704770B4103A03D378C996
:10188000103A78C0FBD2530701D318C918C001D54C
:1018900008C908C0D20704D30B880380891C801CA8
:1018A000002A01D50B78037070BC704738B504006E
:1018B00001D1012032BD250068356878002803D1A8
:1018C0002870200000F00CFB02206870206801687E
:1018D000012291430160200000F0EFF8606A0028C7
:1018E00002D0200000F00EFA20684168074A0A4042
:1018F0004260206881682A229143816020680168E3
:1019000001220A4302602000D4E00000FFB7FFFF7D
:10191000F8B506000C0035005035687E012802D06D
:10192000687E22284AD1002C01D0002A01D1012052
:10193000F2BD287E012841D0012028760027EF61E2
:10194000687E222801D1322000E0122068762A80A9
:101950006A8005E02088C005C00D31688862A41C3B
:101960006888002816D0401E6880009B00228021D5
:10197000300000F033FA002814D1B068802149010A
:10198000884202D130690028E4D02078316888622A
:10199000641CE5E7009B00224021300000F01EFAA5
:1019A000002801D00320F2BD687E322801D1222018
:1019B00000E0012068762F760020F2BD0220F2BD03
:1019C000F8B582B006000C0035005835687C012857
:1019D00002D0687C122866D1002C01D0002A01D1E7
:1019E0000120FEBD287C01285DD00120287400273D
:1019F0006F61687C122801D1322000E022206874D7
:101A00002A806A80B268FF20802149018A4204D17D
:101A10003169002912D1254810E07F21002A03D125
:101A20003269002A07D109E080204005824206D1B0
:101A30003069002801D1A98001E03F20A880A88852
:101A40006946088006E03068406A694609880140B6
:101A50002180A41C688800281BD0401E6880029B3F
:101A600000222021300000F0B9F9002801D0032025
:101A7000FEBDB06880214901884202D1306900284A
:101A8000E1D03068406A6946098801402170641CD1
:101A9000E0E7687C322801D1122000E00120687460
:101AA0002F740020FEBD0220FEBD0000FF010000DB
:101AB0001D604A7000F0F1F832BDF8B50400002056
:101AC000002125682A68894B1340A2681A432369BC
:101AD000134362691A43E36913432B606A68844BBA
:101AE0001340E2681A436A60A369824A954202D0B1
:101AF0001E00236A3343AE687F4F37403B43AB60E1
:101B000010267E4B9D421DD17D4BDB6C9B079B0FAE
:101B100004D0022B37D022D3032B32E00121D20B89
:101B2000E369934200D090E0002908D001296ED0EB
:101B300002296FD0042976D0082978D07BE001F003
:101B400021FC72E0A14B9D420BD16D4BDB6C0C274D
:101B50001F40042F03D0082F15D00C2F11E00421B3
:101B600014E0954212D1664BDF6CC0231B013B4051
:101B7000170DBB42F3D0D70CBB4204D0C0273F01A6
:101B8000BB4202D002E0022100E008219542C6D10A
:101B90008F4D002906D0022907D0042914D0082926
:101BA00028D0F1BD01F0EEFB10E0606801F01AFCF6
:101BB00002000B0052480068064002D00020854910
:101BC0001FE0002084491CE001F094FB01F00AFCB6
:101BD0000022B14B01F016FC06000F00606801F016
:101BE00001FC02000B003000390001F0CDFC01F0D7
:101BF0002DFD49E0606801F0F5FB02000B000020BC
:101C0000A64901F0C1FC01F021FD2860F1BD01F001
:101C1000C9FB0AE061683A480068064001D0A04864
:101C200007E0A04805E001F065FB400000E050003F
:101C3000616801F03BFD9C4A02400006400E4007EF
:101C4000400F02432068C260F1BD002908D001297D
:101C500009D002290AD0042911D0082917D0F1BDD2
:101C600001F090FB0DE001F09DFB0AE06168244863
:101C70000068064001D08D480BE08D4809E001F076
:101C800039FB616801F012FD2168C860F1BD1000E8
:101C9000616801F00BFDE860F1BD38B50400854DC9
:101CA00020680068000708D52B00002280218903E6
:101CB000200000F093F800280CD12068006840074D
:101CC0000AD52B0000228021C903200000F086F8ED
:101CD000002801D0032032BD6834002020706060ED
:101CE00001206070002032BD00000000F369FFEFAA
:101CF000FFCFFFFF00480040FFF4FFFF0038014026
:101D0000001002402421415CC90706D501684A68D9
:101D1000694B1340826A1A434A602421415C890757
:101D200006D501684A68654B1340C26A1A434A6087
:101D30002421415C490706D501684A68604B13407D
:101D4000026B1A434A602421415C090706D50168E9
:101D50004A685C4B1340426B1A434A602421415C41
:101D6000C90606D501688A68574B1340826B1A432F
:101D70008A602421415C890606D501688A68534B34
:101D80001340C26B1A438A602421415C490611D575
:101D900001684A684E4B1340026C1A434A60026C59
:101DA00080235B039A4205D14A684A4B1340426C38
:101DB0001A434A602421415C090606D501684A6835
:101DC000454B1340806C1843486070470044004006
:101DD0000C4800408084CE418084EE41FFB583B042
:101DE00001F0E1FC01900398683000900127012484
:101DF000E4433A4D00266846007D002816D103983A
:101E00000068C069049901400498814240D0069856
:101E10000021C9438842F2D000281DD001F0C3FC44
:101E20000199401A06998142E9D215E003980068A9
:101E3000C069049901400498814229D10698002183
:101E4000C9438842F2D0002806D001F0ACFC0199C9
:101E5000401A06998142E9D20398006801688022FD
:101E6000914301600398006801682022914301605A
:101E70000398006801680D40056003980068816858
:101E80000C4084600098477000980670032000E0C2
:101E9000002007B0F0BD000000007040000060416D
:101EA00000127A000048E801F0FF000000093D0040
:101EB0000024F400F0550000FFFFFDFFFFFFFEFFD0
:101EC000FFFFFBFFFF7FFFFFFFEFFFFFFFDFFFFFD6
:101ED000FFFFEFFFFFFF9FFFFFFFF7FFFFFEFFFF8B
:101EE00030B587B0012029490A6802430A600A68B0
:101EF00002400092009A0A6802430A600A6802409F
:101F00000092009ACA6843041343CB6004240194EE
:101F100002210291039004910594A025ED0501A9E9
:101F2000280001F053FC08200190059401A9280025
:101F300001F04CFC07B030BD80B515481549016073
:101F4000E1214902416000218160C160016181613C
:101F50000C214161FFF7AAFC002801D000F01EF817
:101F600001BD80B501F0FAFB01F01AFDFFF7E4FFB7
:101F7000202200210848FFF74BFA00F0D7FDFFF7B9
:101F800012FAFEF7B3FD002002BD00002C10024043
:101F9000EC0F002000440040EC10002080B5002031
:101FA00001F020FD642001F001FCF8E738B5B84CE1
:101FB000201D01F027FD20000C3001F023FD00253D
:101FC0008C20684321181431201D01F034FD6D1C54
:101FD000052DF5DB31BD010008310A78042A01D056
:101FE00001207047897888300078C01E814201D076
:101FF000022070470020704730B5A1B00025009541
:1020000000F06DFEA24C10E0694620000C3001F09B
:1020100028FD00F05FFE0098083002F0F3F800F0B1
:102020005EFE0099201D01F006FD20000C3001F03D
:10203000ECFC0028E8D0207800280AD10EE08022AD
:1020400001A9944800F0AEFD000602D001A802F0FC
:10205000D9F800F09DFD0028F1D1257000F03AFE7E
:1020600021B030BD38B50020009000F03DFE894D14
:1020700004E0201D01F0D5FC00F036FE00F088FDE4
:10208000002824D0824C201D01F0BFFC00281AD16A
:102090006946201D01F0E5FC8022009908312800E6
:1020A00000F080FDC0B200280099E2D088310870AD
:1020B0000098FFF790FF00280099DAD10C34200037
:1020C00001F0B9FCD8E70120207000F00DFE31BD11
:1020D00080B500F00BFD01BD30B583B014001D00CC
:1020E00001AA8905890D8002084310809470684612
:1020F00001210170032201A9401CFFF783F923008D
:10210000042229006846FFF7E3FF37BD38B5040015
:102110000D0007E06946280001F0A3FC00992000AB
:1021200001F089FC280001F070FC0028F2D031BDDC
:10213000F0B587B005000F0068888005800D2988FC
:102140008902014389B20491534800680A2101F0D1
:10215000ADFA06000020009002A801F053FCAB6825
:10216000E868C2B269882888FFF7B6FF484C002F9C
:102170005DD1002E00D10126310005A802F076FBCA
:1021800004E002A801F057FC00F0A4FD05A802F04D
:1021900075FB002871D120000C3001F036FC0028BE
:1021A000F4D100F09CFD694620000C3001F059FC90
:1021B000009A0832107804280099E2D10B31009877
:1021C00088300078C01E52780E2A3ED00F2A04D0E4
:1021D000102A52D03E2A43D00DE08A78CB781B06D5
:1021E0001B0C1A43049B9A4247D16A680F2A15D0E8
:1021F0000878002841D1009902A801F01CFC201D9C
:1022000001F003FC0028BFD001A920000C3001F030
:1022100028FC0199201D01F00EFCB5E76A69904287
:1022200000DD1000686102462869FFF7EBF80099AD
:10223000201D01F0F6FB02A90C342000FFF766FF19
:1022400000F048FD002007B0F0BD4A788B781B06EF
:102250001B0C1A43049B9A420FD1C91CC01EDDE718
:102260000A786B689A42C6D1401E6A69904200DDC6
:10227000100068610246491CD6E702A90C34200010
:10228000FFF744FF00F026FD0020C043DBE700001D
:10229000900A00205C100020346A0008F0B589B074
:1022A00006000D0014001F00092200216846FFF7F8
:1022B000AFF81822002103A8FFF7AAF803A8042109
:1022C000018001214180002005900690684607901A
:1022D00009200890002103A8FFF72AFF002801D554
:1022E000FF2019E068460178002901D0084613E074
:1022F0004178317041882980017921704179827952
:102300001206120C11433980C179027A1206120C9E
:1023100011430E980180002009B0F0BD30B585B0A2
:1023200004002069A849086000F01CFC04A902A868
:1023300000F0F2FA00F016FCA44D6846007A31284D
:1023400003DB012028700320607122000621002099
:1023500002F0A0FA002843D102F0F7FA00283FD19A
:102360002878002808D103AB9B1C02AA921C03A961
:10237000032002F0C0FC0BE003A8801C019002A81F
:10238000801C009003ABA2790021042002F070FCB5
:10239000002825D1A07900280FD02978002903D161
:1023A000092801DB0820A071A0680090A379002211
:1023B00068464189808902F0E4FA217B012002F01D
:1023C0009DFA00280CD100F064F898488021490259
:1023D0000160491C41600168002001F059FB0020A8
:1023E00005B030BD1FB50400207802F0C5FC002800
:1023F0000DD1E07C0390A0690290207D0190102017
:1024000000900723E21CA178607802F0CAFC04B0B7
:1024100010BDF8B507008648046884480068802627
:10242000B6027108884206D08900884203D0B042C3
:1024300001D00C251DE07888B988BA793B78012B4A
:1024400002D102F033FD02E0012302F040FD05005D
:102450000FD10120E0600020607220703878207277
:1024600072480660701C714948603146400801F0AE
:102470000FFB2800F2BD10B56D480468207A0128D2
:1024800000D0022002F055FE002801D10221617225
:1024900010BD10B584B0654C0ECC0C3C684601F004
:1024A00033FE68460EC80EC4184604B010BDF8B519
:1024B00000216A4611705E490F682422010038002D
:1024C0000C30FFF7D9F900203421785401209E4DBB
:1024D0006C1E7D4E31684204914205D038703460E4
:1024E0007560210000040BE0002139703863FFF7AC
:1024F000C2FF694608703460756021008020800248
:1025000001F0C6FA68460078F2BD80B5132102F0EA
:10251000BEFC02BDF3B581B000216846017044489D
:102520000468694D2E688020C002864207D0C0270B
:10253000BF02BE4203D00C206946087012E001269B
:1025400026706E46B6882682029EA660E260E37020
:10255000A2681170A021C9022960491C696029681C
:1025600001F096FA68460078FEBDF3B581B000210F
:10257000684601702E480468534D2F688020C002C1
:10258000A026F602B74205D0874203D00C20694648
:10259000087015E0022727706F46BF882782A36066
:1025A000089BE360099BE3706B461B896382A282F0
:1025B000A26811702E60711C6960314601F068FAE2
:1025C00068460078FEBD000018000020341100208D
:1025D000F3B581B0002168460170154804683A4D92
:1025E0002F688020C002A026F602B74205D087429D
:1025F00003D00C206946087015E0042727706F4649
:10260000BF882782A360089BE360099BE3706B4649
:102610001B896382A282A26811702E60711C69609E
:10262000314601F035FA68460078FEBD0C00002006
:1026300008000020F3B581B017001E006846002195
:10264000018086480468204800688021C9028842C9
:1026500009D0C021C902884205D0A021C902884200
:1026600001D00C252DE070003843694608706B4698
:10267000022268460189808802F0BFFA050020D155
:102680002000263000210170052222706A469288BF
:102690004280417002A920000D300A7802704A7809
:1026A0004270E7732674022020730120E0628004E8
:1026B00005490860401C486009688020C00201F09C
:1026C000E7F92800FEBD00000C000020F7B5060069
:1026D0001F00624804688C4800688021C902884253
:1026E00009D0C021C902884205D0A021C902884270
:1026F00001D00C2526E068468188300002F00FFAF0
:1027000005001FD12100263100220A70062020700A
:102710004E8002986060A7600898A08401AB2000FA
:102720000D301E7806705E7846704A700120E062B7
:10273000800475490860401C486009688020C00218
:1027400001F0A6F92800FEBD01000300FEB5070058
:10275000424804686D4800688021C902884209D057
:10276000C021C902884205D0A021C902884201D0F7
:102770000C252DE0089E320068460188380002F0E2
:10278000E4F9050024D100212620215408202070DE
:10279000200026304780019860600298A060099868
:1027A000A0846A4620000D3013780370537843707C
:1027B000E6732000263041700120E0628004534916
:1027C0000860401C486009688020C00201F060F980
:1027D0002800FEBDFEB5060020480468152A01DB6E
:1027E0001220FEBD494F38688021C902884209D0B5
:1027F000C021C902884205D0A021C902884201D067
:102800000C2529E068460188300002F0BBF905007C
:1028100022D120002630002101700722227046803C
:102820004170694620000D300A7802704A78427083
:1028300068460079207368460279029920000F30BB
:10284000FFF706F80120E06280043860401C7860E1
:102850003968401E01F01CF92800FEBD0800002068
:10286000F1B52B480468284D2E688020C0028642AE
:1028700009D0A020C002864205D0C0208002864236
:1028800001D00C2726E06846008802F068FC0700AB
:1028900020D120002C30012101600021217026343C
:1028A00021706A4612886280617001711948411E68
:1028B0008022D202964202D12960686005E0A022FF
:1028C000D20296422960686001D1104600E04008BB
:1028D00001F0DEF83800F2BD10B50D4A126826325C
:1028E0000123937200231370508002F094FA0400C5
:1028F0000649C020C0020860421C4A60014601F03F
:10290000C7F8200010BD00000C0000200C000020C3
:1029100008000020010006003EB505000C0001A8DB
:10292000009002AB9B1C02AA01A9891C02A8401CB2
:10293000FFF7B4FCC0B2002814D16946C988090A5F
:1029400029706946C988090221806A469288120660
:10295000120F12010A432280694689880907090F6C
:10296000114321803EBD10B402E0401C491C521EA0
:10297000002A09D00B7804789C42F6D002D20020BD
:10298000C04302E0012000E0002010BC7047FEE7D9
:1029900018B583B000240294002902D10094019458
:1029A00002E00090491E019103AB69460648784455
:1029B000163002F0F9FB0099002900D00C700028B5
:1029C00000D4029804B010BDE53F000000686449DF
:1029D000884200D07047F0B587B00124BC48016838
:1029E000214301600168214000910099022601689D
:1029F0003143016001683140009100990168214331
:102A00000160016821400091009901682143016043
:102A1000016821400091009901682143016001682B
:102A20002140009100990168214301600168214023
:102A3000009100998168820C0A438260870D01979A
:102A40000294039400250495059501A9A020C005D2
:102A500000F0BCFE00223900A020C00500F07BFF82
:102A6000082001900296039603270497059501A973
:102A7000A04800F0ABFE4020019002960395049719
:102A8000059501A9A020C00500F0A0FE80200190BE
:102A9000029603950497059501A9A020C00500F0B2
:102AA00095FE0196029403940497059501A9A02030
:102AB000C00500F08BFE01220221A020C00500F01D
:102AC0004AFF01948C48029003950497059501A94B
:102AD000A020C00500F07AFE00220321052002F0AC
:102AE0009CFF052002F09DFF07B0F0BDF1B584B05A
:102AF0000F0016001D00814800680A2100F0D6FD75
:102B0000010001A801F0B2FE7D4CE8B20090F3B2E2
:102B10003A000499200000F091F8002804D001A8A0
:102B200001F0ACFE0028F0D005B0F0BD80B57448CF
:102B30000B49016082214900416000218160C16030
:102B4000016141618022920082610162416207223B
:102B5000C2620822C261816202F0A2FF01BD0000D0
:102B60000030014038B5A024E40580256D00002226
:102B70002900200000F0EFFE052000F017FE0122E2
:102B80002900200000F0E7FE052000F00FFE31BD17
:102B900080B50121A020C00500F0D7FE012800D09B
:102BA000002002BDF3B587B0160000250024FF20E9
:102BB0006946487104A800BF53A10CC90CC000228B
:102BC0000221A020C00500F0C6FE0F2000900523C2
:102BD00002AA04A9079802F0A5FF02A80178022919
:102BE00019D101790F02C078074314D0BE420FDA21
:102BF00037000DE00F200090012301AA01A9491C14
:102C0000079802F08FFF6846007908990855641C00
:102C1000E4B2BC42EEDB01220221A020C00500F09C
:102C20009AFE009503E000BF0098401C00900098B9
:102C30000228F8DB200009B0F0BD0000F6B5C5B0F1
:102C400007001E00002403A831A10CC90CC001A874
:102C500031A10CC90CC0052002F0EAFE00220221BD
:102C6000A020C00500F077FE0F200090052301AAE8
:102C700003A9380002F056FF01A8017802291AD1F1
:102C80004C9D40787119884214DB002E07D00F202C
:102C90000090330005AA4599380002F043FF002D4B
:102CA0000AD00F2000902B0005AA4699380002F0A8
:102CB00039FF01E00124E44301220221A020C005E4
:102CC00000F049FE052002F0ACFE200047B0F0BD48
:102CD0002C10024080B5052002F0A3FE01BD80B596
:102CE000052002F0A5FE01BD0120064908607047DD
:102CF000000000000004005000001110346A0008B9
:102D00005C100020140401400B00000000000000D3
:102D10000A00000000000000AA00000000000000FF
:102D2000002070471206130A1A43130C1A4300BFFF
:102D3000094205D0830705D00270401C491EF9D115
:102D400070470000130030B414001500103902D38E
:102D500010393CC0FCD2490700D30CC000D504C0D8
:102D6000890002D30280801C002900D5027030BC8B
:102D700070470000F0B583B00400B44D2078C00760
:102D800052D58027BF02E8680C210140082907D0EE
:102D9000E8680C2101400C290AD1E868C00307D576
:102DA0002868074040D0606800283DD10120FEBD62
:102DB00060687908884201D128680DE0B049A022F6
:102DC000D2029042286809D1014029602868790020
:102DD0000143296028687908014309E0014029601E
:102DE000286879080840019001982868B74901408F
:102DF0002960606800280BD000F0D5FC0600286828
:102E0000384011D100F0CFFC801B6528F7D3B8E122
:102E100000F0C9FC06002868384005D000F0C3FC6B
:102E2000801B6528F7D3ACE102272068384019D011
:102E3000E8680C210140042907D0E8680C21014012
:102E40000C2942D1E868C0033FD42868400702D566
:102E5000E0680128AAD16868B449014020690002ED
:102E6000084368602078C00619D5E8680C21014045
:102E70004FD12868800502D5E069002896D068689F
:102E8000AB490140606A0843686068680002000A54
:102E9000216A090601436960032000F06DFC207877
:102EA000000775D560690028286D62D001210143B3
:102EB000296500F078FC0600286D384068D100F0E4
:102EC00072FC801B0328F7D35BE1E0680921C9434A
:102ED00000280FD02A6811400843286000F063FCE6
:102EE000060028684007B6D400F05DFC801B03286C
:102EF000F7D346E128680140296000F054FC060041
:102F000028684007AED500F04EFC801B0328F7D39D
:102F100037E1E069002828681CD0A90D0143296029
:102F200000F041FC06002868800505D400F03BFC59
:102F3000801B0328F7D324E168687D490140606A5B
:102F40000843686068680002000A216A09060143B4
:102F50006960A4E78D490140296000F024FC060067
:102F6000286880059BD500F01EFC801B0328F7D342
:102F700007E101218843286500F015FC0600286D53
:102F8000384005D000F00FFC801B0328F7D3F8E091
:102F9000207880062ED57E48A1690029A96816D020
:102FA00001220A43AA60696B01220A436A6301682D
:102FB0006A0C0A43026000F0F6FB0600A86838407D
:102FC00018D100F0F0FB801B0328F7D3D9E00122D1
:102FD0009143A96001686F4A0A40026000F0E3FB78
:102FE0000600A868384005D000F0DDFB801B0328F0
:102FF000F7D3C6E02078400700D479E0002000270E
:103000006946087080204005A96B014003D1A96B77
:103010000843A863012760480068C00518D45E48CB
:103020000068A90D01435C480160012069460870F1
:1030300000F0B9FB060058480068C00508D400F04D
:10304000B2FB801B6528F6D39BE000BF0010024056
:10305000A168A80D81420ED0A348002912D0A02259
:10306000D20091420ED1286D484901402965286D52
:10307000290D01432965286DA90D0143296508E043
:10308000FFFFFEFF296D414A0A402A65296D08406D
:103090002865A06800280CD000F085FB0600286D8C
:1030A000800515D400F07FFB801B90498842F6D341
:1030B00067E000F078FB0600286D800508D500F079
:1030C00072FB801B89498842F6D35AE0FFFFFBFF61
:1030D00068460078002805D02F4800682B49014039
:1030E0002D480160002F03D0A86B81490140A963DE
:1030F000A06A002847D0E9680C220A400C2A00D1B7
:1031000054E68027BF049749022828682CD1014043
:10311000296000F048FB0600286838400AD000F01B
:1031200042FB801B0328F7D32BE000BFFFE0FFFF2B
:10313000FF1FFFFFE86898490140206B0843616B5F
:103140000143E06A0843E860286879080143296080
:1031500000F029FB06002868384014D100F023FB5A
:10316000801B0328F7D30CE00140296000F01BFB13
:1031700006002868384006D000F015FB801B0328A5
:10318000F7D30320FEBD0020FEBD0000FFFEFFFFC1
:1031900020000140FEDFFFFF00700040F2B582B06A
:1031A00004000127FF4301257C480068284088422D
:1031B0000AD27A48006838400143784801600068C4
:1031C00028400299884274D1754E2078800705D531
:1031D000F068F0218843A1680143F160206828402D
:1031E00055D06068022802D13168890308E00028C0
:1031F00002D13168890503E00328316802D18901D1
:1032000002D456E0490754D5F1680322914308439C
:10321000F06000F0C8FA0090606802280CD1F068F5
:103220000C210140082932D000F0BDFA0099401A63
:103230002E498842F3D328E003280CD1F0680C21F2
:1032400001400C2923D000F0AEFA0099401A27491A
:103250008842F3D319E000280BD1F0680C2101401B
:1032600015D000F0A0FA0099401A20498842F4D302
:103270000BE0F0680C210140042908D000F093FA1B
:103280000099401A19498842F3D30320FEBD4348F0
:1032900000682840029988420DD3404800680740E2
:1032A000084638433D490860086805400298854251
:1032B00001D00120FEBD2078400705D5F0683F49C8
:1032C0000140E0680843F0602078000706D5F06808
:1032D0003B4901402069C0000843F060032000F032
:1032E0004BFA0020FEBD0000FFFBFFFF891300002A
:1032F000FFFFFFEFF0B52A4D6868334A53005408CA
:103300001026E9680C270F40042F04D0082F09D09D
:103310000C2F09D01FE02868064001D02000F0BD26
:103320001800F0BD1000F0BDE868E968274F800282
:10333000000F385C0902890F491CEF68FF0306D4AF
:103340002A68164001D0604302E0584300E0504331
:1033500000F0ACF9F0BD01210004400F401C814099
:10336000C803F0BDFFFFFFFE80B5FFF7C3FF00BF3E
:1033700018A1144A12681206120F895CC840144939
:10338000086002BD80B5FFF7EFFF00BF11A10D4A35
:10339000126852050EE00000FFFF02FF002002400D
:1033A0000010024080B5FFF7DFFF00BF09A1054A0A
:1033B00012689204520F895CC84002BDFFF8FFFFFB
:1033C000FFC7FFFF0C10024000127A00A06800083F
:1033D00004000020000000000102030401020304B5
:1033E00006070809010000BF42221201D21E004256
:1033F00007D002D4521E0018FCD5C10A40051205A0
:1034000089187047F0B50E005E400125ED072E408B
:10341000B446AE0ADF184C18F44208D2F7420ED276
:10342000640D01D07F0D12D100206146F0BD05D1A1
:10343000F74201D87F0D05D10020C143F0BDFBD17B
:10344000640DF9D00020C143490549088FE0E41913
:10345000C902DB0229432B43DB0A460DC00231437C
:103460008E4630B487B295B27D432E0CADB2140CAB
:103470007C43A419260C240425439CB27C43A41944
:10348000190C7943270CC919A4B20F043C43090C49
:10349000000C97B247432E0CBE193543ADB2170C42
:1034A0004743360CBF19A6B2BF193E043543240C5E
:1034B0003E0C36199FB24743BF19BCB23E0C891966
:1034C0001F0C47437F183E043443390C704680B2CA
:1034D00097B247432E0CBE193543ADB2170C474384
:1034E000360CBF19A6B2BF193E043543240C3E0C5E
:1034F00036199FB24743BF19BCB23E0C89191F0C45
:1035000047437F183E043443390C77463F0C90B252
:1035100078432E0C80190604ADB22E43050CA0B2E0
:103520002D18120C7A435019020C80B2240CA418E6
:103530009AB27A43121914042043120C89181B0CF6
:103540007B43C91830BCEF0A394203D1B619404158
:103550004941641E6F12BF0DE41B0BDBFF19BC4217
:1035600011DA240500274208AE41784161416646E0
:103570003143F0BD641C05D1401C6141CF0201D331
:103580004908F4E750E75DE7F0B40E005E4001251E
:10359000ED072E40B446AE0ADF184C18F4423BD279
:1035A000F74241D2640D43D07F0D38D0E41BC902ED
:1035B000DB0229432B43CF0ADB0A0600B61A9F41E0
:1035C00004D2641EB6197F41B6185F416812800D9F
:1035D00024180018844222DAE80C0021B6197F4131
:1035E000B61A9F4102D2B6185F413F1C4041494183
:1035F000F4D3241C21DD2405B6197F41B61A9F415E
:1036000005D33743C60737430026012F7041614178
:1036100066463143F0BC7047FCD1F74205D200202A
:10362000C14349054908F3E704D00020C143F1E74D
:103630007F0DFAD000206146ECE72442FAD1401C0D
:1036400061410F03F6D30020E2E7FEE74A1812D2E9
:10365000400DC90208430121C9070843520D40210A
:103660000901521A521C06D452421F3201D4D040D2
:103670007047C017704700207047F446002804D4F4
:10368000494200F013F8404260474042002905D407
:103690005FD000F00BF8404249426047494200F0D9
:1036A00005F84942604703460B43E6D40022030A6B
:1036B0008B420BD203098B4219D243088B422ED284
:1036C000411A00D20146524110467047FF220902BA
:1036D0003FD012068B4205D3121209028B4201D34E
:1036E0001212090203098B4219D300E0090AC30927
:1036F0008B4201D3CB01C01A524183098B4201D3C3
:103700008B01C01A524143098B4201D34B01C01AAD
:10371000524103098B4201D30B01C01A5241C30825
:103720008B4201D3CB00C01A524183088B4201D394
:103730008B00C01A524143088B4201D34B00C01A80
:103740005241884200D3401A5241CFD2014610461E
:10375000704708B502F0AEFB08BDFEE780B519481A
:103760000168022291430160032000F005F800F097
:1037700002F8002002BD704710B50400FFF7F4FD09
:10378000FA218900FFF792FF02F059F90022210087
:103790000020C04302F041F9002010BD0A48016832
:1037A000491C0160704708480068704711B581B036
:1037B000FFF7F9FF0400FFF7F6FF001B01998842AD
:1037C000F9D313BD0020024024110020FFB50024CE
:1037D00001232FE00625B5403D43039E3560684D2B
:1037E0002E68009FFD432E404F68FF0302D537002F
:1037F000009E3E43624F3E607E682E404F68BF038E
:1038000002D53700009E3E435D4F7E60BE682E406D
:103810004F68FF0202D53700009E3E43584FBE60FE
:10382000FE6835404E68B60202D52E00009D354335
:10383000FD60641C0D682E00E64000D184E0012686
:10384000A6402E400096009D002DF2D04D68022D1E
:1038500001D0122D18D1E508AD0045192E6A019648
:103860006607F60E6F463E72019FBC466E46377A7B
:103870000F26BE406746B743BC460F696E46367A90
:10388000B740664637432F6266000327B740FD43C3
:1038900001954D68012D05D0022D03D0112D01D0C9
:1038A000122D10D18768019D3D40CF68B7402F434E
:1038B000876047680125A540AF434D682D091D402D
:1038C000A5403D4345600768019D3D400F79BF0716
:1038D000BF0FB7402F430760C768019D3D408F6809
:1038E000BC4637006646BE402E43C6604D68ED00BC
:1038F0009FD5244D2D681D43224E3560224DA608CC
:10390000B600AD1903952F68A5072E0F0F25B540FA
:10391000AF43A025ED05A84201D100255BE71B4D73
:10392000A84201D1012556E7194DA84201D102252F
:1039300051E7184DA84201D103254CE7164DA84286
:1039400000D047E7052546E7FFBD0069084000D0E5
:103950000120C0B27047002A01D0816170478162A6
:10396000704742694A40426170470C4A13680340FD
:1039700000D1704780B5106002F09DFA01BD0000D3
:1039800000040140341002400800014000040050CF
:1039900000080050000C0050001C005014040140AE
:1039A00010B594B00E480168802252050A430260A7
:1039B0000220059010200990012408940F9405A876
:1039C000FFF7D8F90F200090019400200290039097
:1039D000049000216846FFF7E1FB14B010BD00BF62
:1039E0003810024080B500BF04A14200895A044A41
:1039F00080001058FFF7B5FF01BD00002000000057
:103A000000000020006040607047EFF3108172B644
:103A10000268824201D1012000E0002081F3108879
:103A20007047EFF3108272B603680B604860016064
:103A30000868416029E0EFF3108272B608604368BD
:103A40004B604160486801601FE0EFF3108172B67F
:103A5000026843681A6042680068426081F3108817
:103A6000704738B50C00EFF3108572B6016821601D
:103A70000068FFE7FFF7E9FF002021680860216880
:103A8000486085F3108831BD086082F31088704764
:103A90007047F0B58DB006001500002409A8047029
:103AA0000029684603D03189C184778902E0B18951
:103AB000C184F789327C3078032815D1708C069048
:103AC000308C0590F08B0490B08B0390708B02903B
:103AD000308B0190F07D009011363300390068463C
:103AE000C08C01F0ECFA3EE00AA802700622310018
:103AF0001131401CFDF7ACFEA6480078002818D113
:103B00000AA808900120079009A806900594708CD7
:103B10000490308C0390F08B0290B08B0190708BEE
:103B20000090338BF27D39006846C08C01F05AFA60
:103B300019E009A80078401C09A908700AA8069095
:103B400001200590708C0490308C0390F08B0290D3
:103B5000B08B0190708B0090338BF27D39006846FA
:103B6000C08C01F0DBF9060003D16C7002F0A7F9FC
:103B7000A86030000DB0F0BDF4B582B005000F00B4
:103B800085480468681EFFF78EFDC0B20090E0789B
:103B900021794919009A8918491E884201DA64205E
:103BA000FEBDA0680178891801700026002512E08A
:103BB000022101702079401C20713A0002994919B4
:103BC000E368C0B21818FDF743FE2079C0192071D0
:103BD000ED19EDB2761CF6B20098864206DAE0687E
:103BE00021794018062FE3D10121E2E70020FEBD34
:103BF000F4B582B005000F0067480468681EFFF73F
:103C000052FDC0B20090E07821794919009A8918D4
:103C1000491E884201DA6420FEBDA0680178891837
:103C200001700026002512E0022101702079401C5D
:103C300020713A0002994919E368C0B21818FDF7DB
:103C400007FE2079C0192071ED19EDB2761CF6B28D
:103C50000098864206DAE06821794018072FE3D100
:103C60000121E2E70020FEBDF4B582B005000F009F
:103C700049480468681EFFF716FDC0B20090E0785E
:103C800021794919009A8918491E884201DA64206D
:103C9000FEBDA0680178891801700026002513E098
:103CA000E068217947542079401C20713A0002993C
:103CB0004919E368C0B21818FDF7CAFD2079C01988
:103CC0002071ED19EDB2761CF6B200988642E7DB62
:103CD0000020FEBDF7B505002F480468042702291F
:103CE00000D11227681E3900FFF7DDFCC0B200903A
:103CF000E07821794919009A8918491E884201DA29
:103D00006420FEBDA0680178891801700026002596
:103D100015E068460079E168227988542079401CD2
:103D200020713A0002994919E368C0B21818FDF7EA
:103D30008FFD2079C0192071ED19EDB2761CF6B215
:103D400000988642E5DB0020FEBD10B584B00B2351
:103D50006C466370002323706B46588001AB18805B
:103D60009970029200AA921C694600A8401C02F0B9
:103D7000BDF91FBD8F4A531EC11A08D0491E07D175
:103D80008D4800680078002801D0501C7047100052
:103D9000704700003411002008000020F0B585B005
:103DA000854A1468854A012700260225531EC11A38
:103DB00008D0491E08D0491E22D0491E4CD0491EA9
:103DC00069D071E0A67002E02078002801D11000CF
:103DD0006AE00A2002F077F82200012120000C306E
:103DE000FFF757FE694648706846407800284AD178
:103DF000342026542069800003210143216329E0F7
:103E000002F05DF82169A268801A814203D3342050
:103E1000205C00281BD0207B032801D1402000E03B
:103E20000820694608706846007801F082F9694602
:103E3000487068464078002802D12763AD4833E0D7
:103E40000420087001AB221D491C684620E0A078C0
:103E5000002826D1A84827E06078002801D1901CCE
:103E600022E00F2002F02FF82200002120000C3069
:103E7000FFF70FFE6946487068464078002802D177
:103E800027639E4810E06846057001AB221D491C5F
:103E900002F099F805E0A078002802D160780028A7
:103EA00001D0974800E0D01C05B0F0BD70B584B0DB
:103EB000414A146826002636924A951C531EC11AA0
:103EC00012D0491E02D0491E10D070E03078002870
:103ED0000AD0210027312000283002F063F9207831
:103EE000002863D0681E62E0100060E00020694690
:103EF00008722078052806D04DD3072825D012D384
:103F0000082833D047E020000D3002A9891C027830
:103F10000A7042784A70237CE27B68464189708847
:103F2000FEF788FB35E020000D3002A9891C0278DD
:103F30000A7042784A70A08C0090A3686268684654
:103F400041897088FEF7C2FB23E020000D3002A9F2
:103F5000891C02780A7042784A7023000F33227B52
:103F6000684641897088FEF735FC12E020000D306C
:103F700002A9891C02780A7042784A70A08C0190CC
:103F8000E07B0090A3686268684641897088FEF70C
:103F9000DDFB694608726846007A002806D00023D7
:103FA0002200283202A9200002F0A0F8280004B064
:103FB00070BD0000020002000800002002000300A3
:103FC000F8B5874A1468874F874E0125BA1E811AB3
:103FD00010D0491E21D0491E2AD0891E2DD0491E3D
:103FE00038D0491E3BD0491E46D0491E49D0491EF3
:103FF0005AD0F2BD617021712178012901D1501C84
:10400000F2BD022901D17948F2BD032901D1B81CC2
:10401000F2BD042954D1B01EF2BD208A00F004FD87
:104020006946087068460078002835D1A56102E02D
:10403000607800283BD13800F2BDA28A618A208ACC
:1040400000F016FD6946087068460078002823D104
:10405000A56102E06078002829D1F81CF2BDA28A8F
:10406000618A208A00F021FD694608706846007860
:10407000002811D1A56102E06078002817D1F01E58
:10408000F2BDA28A618A208A00F02CFD6946087080
:1040900068460078002805D022001032200001F088
:1040A000C2FF0AE0A5610AE06078002807D022007C
:1040B0001032A11C200001F0B6FF3000F2BD701ECE
:1040C000F2BD30B5464A1468494A531E951E411B3D
:1040D00002D0491E05D030BD2078401F032804D8E7
:1040E00005E026342078002801D0100030BD1800EB
:1040F00030BD0000040003000300030005000300BE
:104100000600030002000600FEB584B00400684605
:1041100004A92CC92CC0324F3868364D6E1E049944
:10412000002911D06A08914210D0C0229202914217
:104130001AD0B14235D0A022D202914225D0C0225D
:10414000D20291423AD045E0002042E005000598B5
:10415000FFF710FE01902849884203D1B008009073
:10416000401C0190E86834E003900598FFF716FEC4
:1041700001900399091D214A904204D108883A68A8
:10418000108500960195C86A23E007000598FFF79F
:1041900017FF01901449884201D100960195B86932
:1041A00017E005000598FFF78CFF0190F11C88428D
:1041B00002D10120E8620096E86A0AE0070005984B
:1041C000FFF774FE01900E49884201D100960195D7
:1041D000F86A029068460EC80EC40C3807B0F0BDED
:1041E00008000020030005000B0005000700050083
:1041F00003000400010004000300020006000300A5
:1042000004000600F1B58AB0411C0078042800D0F3
:1042100028E377480668032200250124087805284A
:1042200024D0082804D03E2830D0FF2863D013E3E0
:104230008C1C20781A28FAD135786078A178090684
:10424000090C08430121FEF70BFB69460870357025
:10425000684600780028EAD0207808706078A17855
:104260000906090C0843694648807AE2891C6846B9
:10427000027048788A781206120C10436A46508100
:1042800003AB02AA921CC91C6846C7E2891C0878C5
:10429000012802D002286DD0DEE2491C01913700CE
:1042A00002A80021002206C0B61C01980078002850
:1042B00009D1019948788A781206120C104370804F
:1042C00069460C7002E00220694608700198007887
:1042D000022807D1062202A90198401DFEF743FBE0
:1042E000002807D004AB3A1D0199684601F06BFE27
:1042F0003D633470B0E2891C0B7848780006000CEE
:104300000343684603803B4800786B461B883A4F5E
:10431000DB1B00D1E2E15B1E00D13CE21B1F29D078
:104320005B1E39D0BF1FDB1B00D143E23F1DDB1BEF
:1043300000D133E1DB1E00D197E09B1E00D1C1E02C
:104340005B1E00D184E15B1E00D19FE19B1E00D16A
:104350009FE01B1F00D101E15B1E00D1E2E05B1E6C
:1043600000D130E15B1E00D1CDE19B1E60D05B1E11
:1043700047D071E2891C68460472087A081809302F
:1043800001900800093000900B0008338A1C491C7A
:1043900002A801F0F5FD5FE28878401E012804D9EB
:1043A000C01F2BD0383829D056E21148406861042C
:1043B000884211D13470F560707A022800D0727290
:1043C0000A2001F080FD01950095002300220021C4
:1043D0000936300001F0D4FD05484068C02189024B
:1043E000884203D1024800680470056334E200BFCC
:1043F00008000020341100200104000074703563AF
:104400002AE2891C0D206A46107008784A78120644
:10441000120C10436A4610818878CA781206120C72
:10442000104303AA108094704879107202A918E012
:10443000891C0C206A46107008784A781206120C03
:1044400010436A46D0808878CA781206120C10434E
:1044500002AA1080087990701572491D039101A974
:10446000891C684601F0B0FEF6E1891C3700087827
:104470004A781206120C10433A8A8242F4D13878F4
:104480000428F1D18D1C0A1D69782878FFF722FCD9
:1044900012E0891C370008784A781206120C104383
:1044A0003A8A82420DD1387801280AD18D1C0A1D22
:1044B00069782878FFF760FBB61C3070002800D0C0
:1044C0007C70C9E18F1C0096387879780906090C50
:1044D0000843BD1CB61C0099098A814209D1009885
:1044E0000078022805D13A1D69782878FFF780FB0B
:1044F0003070387879780906090C08430099098AE0
:10450000814209D100980078032805D13A1D6978C5
:104510002878FFF7A9FB30703078002801D0009888
:10452000447099E1891C09206A46507068460570FC
:1045300008784A781206120C10436A469080C878B0
:104540000A791206120C104302AA10808878801E85
:104550009070491D039102AB01AA1BE0891C0A203F
:104560006A4650706846057008784A781206120C40
:1045700010436A465080C8780A791206120C10431C
:1045800001AA10808878801E9070491D029101ABAD
:1045900000AA921C694600A8401CF9E0012807D136
:1045A000891C8878CA781206120C1043CA1D06E0CE
:1045B000891C8878CA781206120C10434A1D0979A2
:1045C000FFF7C3FB48E1891CA7484068A022D2023C
:1045D000904214D108784A781206120C1043328A9D
:1045E0008242EFD13078012805D0022803D0032879
:1045F00001D00428E6D17470C878B070B5619A48CB
:104600004068A2049042DDD1974800680B784A7850
:104610001206120C13430200263256889E4216D10F
:104620000378052B05D0062B03D0082B01D0072BD0
:104630000DD1C56214705378002B01D1C978517027
:104640000023020028320100273101F04FFD03E171
:10465000891C85484068A2049042F8D108784A78BD
:104660001206120C1043328D8242F0D130780628A7
:104670000BD18D1C2A7870680280B08C2B78984200
:104680001DD3C91CB068FDF7E3F8E5E0891C764846
:104690004068A2049042F8D108784A781206120CB9
:1046A0001043328D8242F0D1307808280AD18D1C17
:1046B0002A7870680088B38C8418A34203DA6420D7
:1046C00027363070C8E0C91CB3681818FDF7C0F869
:1046D000706801882A7889180180BDE0891C6248C9
:1046E000406852049042F8D108784A781206120CB9
:1046F0001043320026325388834203D114708878E5
:104700005070F562A8E08D1CA979080032002632AD
:10471000052903D0082901D00F2925D1524949681C
:10472000A304994213D130786946087028786978D3
:104730000906090C08435080287869780906090C95
:1047400008430021FEF78CF869460978317000288B
:1047500020D0287869780906090C08436946488002
:10476000A91D00A8801C22E03F484068A10488429F
:1047700072D1307869460870287869780906090C82
:10478000084369464880147000AA921CA91D684617
:1047900001F0ACFC60E0300010226B461A708A78A1
:1047A000CB781B061B0C1A4302856946283001F0A2
:1047B000F9FC51E0891C05226B46DA756A4695754D
:1047C00006ACCA7822708A79CB791B061B0C1A4377
:1047D00062800A7A4B7A1B061B0C1A43A2808B7AE2
:1047E000CD7A2D062D0C2B43E3800D7B4F7B3F06AE
:1047F0003F0C3D4325811C4949688027FF02B9428F
:104800000FD0C027BF02B9420DD1B0886946888257
:1048100006AB05AA05A9891C05A8C01C01F0D3FB9D
:104820001AE0308DF2E7002809D10290207801903B
:10483000009561886846808A01F0F8FC0CE0002051
:1048400004902078039000200290019000956188E8
:104850006846808A01F0BAFC03480169080001D06B
:104860000A9888470BB0F0BD0800002010B504007E
:104870006160FFE701F023FB206010BD10B504006C
:1048800001F01DFB61682268801A401C8142804152
:10489000C00F10BD10B5A8B003000C001100A01C83
:1048A000812801DB422027E007A803704470220022
:1048B000801CFCF7A7FD1822002101A8FCF7A8FD29
:1048C00001A83F2101800C21418007A80390A41C6E
:1048D000E4B204946846059001200690002101A8E6
:1048E000FDF726FC002801D5FF2005E0684600788A
:1048F000002801D06846007828B010BD00B589B006
:1049000001AA107051701822002102A8FCF780FD46
:1049100002A83F2101800F21418001A804900220BC
:1049200005906846069001200790002102A8FDF737
:10493000FFFB002801D5FF2005E06846007800282D
:1049400001D06846007809B000BD00B587B01822D4
:10495000002101A8FCF75CFD01A83F210180C231C4
:1049600041806846059001200690002101A8FDF7CE
:10497000DFFB002801D5FF2001E06846007807B082
:1049800000BD73B5A8B016001C00A01D812801DB76
:10499000422032E0022228A907A8FCF733FD07AD28
:1049A000022229A9A81CFCF72DFD2E716C71220092
:1049B0002E99A81DFCF726FD1822002101A8FCF75E
:1049C00027FD01A83F210180C731418007A803903E
:1049D000A41DE4B2049468460590012006900021CD
:1049E00001A8FDF7A5FB002801D5FF2005E06846DA
:1049F0000078002801D0684600782AB070BD418058
:104A0000684604900420059001A8069001200790B4
:104A1000002102A8FDF78CFB002801D5FF2001E052
:104A20006846007909B000BD00B589B06946888044
:104A30001822002102A8FCF7EBFC02A83F2101800C
:104A4000D331418001A80490022005900F200390EB
:104A50006846069001200790002102A8FDF768FB38
:104A6000002801D5FF2001E06846007809B000BDAC
:104A700000B589B001AB188059809A8018220021B6
:104A800003A8FCF7C5FC03A83F210180D531418074
:104A900001A80590062006900F2004906846079014
:104AA00001200890002103A8D8E700B589B001AB28
:104AB000188059809A801822002103A8FCF7A8FCCE
:104AC00003A83F210180D631418001A8059006202E
:104AD00006900F200490684607900120089000215E
:104AE00003A8BBE700B589B001AB188059809A8054
:104AF0001822002103A8FCF78BFC03A83F210180AA
:104B0000D831418001A80590062006900F2004901E
:104B10006846079001200890002103A89EE700B591
:104B200089B06A46108051801822002102A8FCF743
:104B30006FFC02A83F210180D93141806846049072
:104B4000042005900F2003905EE700B589B001AB0B
:104B5000188059809A801822002103A8FCF758FC7D
:104B600003A83F210180DB31418001A80590062088
:104B700006900F20049068460790012008900021BD
:104B800003A86BE773B5A8B014001E00601D812850
:104B900001DB42202FE0022228A907A8FCF732FC03
:104BA00007AD022229A9A81CFCF72CFC2C712200BD
:104BB0003100681DFCF726FC1822002101A8FCF733
:104BC00027FC01A83F210180DD31418007A8039027
:104BD000641DE4B204940F20029068460590012001
:104BE0000690002101A8FDF7A3FA002801D5FF20B7
:104BF00001E0684600782AB070BD73B5A8B0140013
:104C00001E00601D812801DB42202FE0022228A91E
:104C100007A8FCF7F7FB07AD022229A9A81CFCF79F
:104C2000F1FB2C7122003100681DFCF7EBFB182210
:104C3000002101A8FCF7ECFB01A83F210180E23133
:104C4000418007A80390641DE4B204940F200290F1
:104C50006846059001200690002101A8FDF768FA3A
:104C6000002801D5FF2001E0684600782AB070BD19
:104C700010B58AB01C006B46187059709A700722E4
:104C8000002101A8FCF7C4FB1822002103A8FCF7AF
:104C9000BFFB03A83F2101808A214180684605901F
:104CA0000320069001A8079007200890002103A880
:104CB000FDF73EFA002801D5FF201AE001A801788F
:104CC000002901D0084614E0417882781206120CBF
:104CD00011432180C17802791206120C11430C9AFB
:104CE0001180417982791206120C11430D980180CE
:104CF00000200AB010BD70B58AB00D0014001E006F
:104D0000694608700722002101A8FCF781FB1822E0
:104D1000002103A8FCF77CFB03A83F2101808A2126
:104D20004180684605900120069001A80790072061
:104D30000890002103A8FDF7FBF9002801D5FF200A
:104D400018E001A80178002901D0084612E0417856
:104D500082781206120C11432980C178027912065A
:104D6000120C11432180417982791206120C1143F1
:104D7000318000200AB070BD00B589B06946087165
:104D80001822002102A8FCF743FB02A83F21018062
:104D90008521418001A80490012005906946069173
:104DA000F5E170B58EB00E0011001D0007AC20704B
:104DB00066701022A01CFCF725FBA5741298E07405
:104DC0001398207521001531149801F05BFA15989D
:104DD00060761822002101A8FCF71AFB01A83F21E8
:104DE00001808621418007A803901A20049068461C
:104DF000059001200690002101A8FDF799F90028EF
:104E000001D5FF2005E068460078002801D06846FB
:104E100000780EB070BD00B589B00A0001A9088005
:104E2000891C100001F02EFA1822002103A8FCF7BB
:104E3000EFFA03A83F2101808821418001A8059055
:104E4000062006900F2004906846079001200890E5
:104E5000002103A89EE100B587B01822002101A817
:104E6000FCF7D6FA01A83F210180922141806846D3
:104E7000059001200690002101A8FDF759F90028AE
:104E800001D5FF2001E06846007807B000BD00B5FD
:104E900089B001AA108091701822002102A8FCF7A5
:104EA000B7FA02A83F210180932166E110B58AB0CC
:104EB00001AC20806180227163711822002103A857
:104EC000FCF7A6FA03A83F21018096210FE010B558
:104ED0008AB001AC208061802271637118220021A8
:104EE00003A8FCF795FA03A83F2101809721418090
:104EF00001A80590062006900F20049068460790B0
:104F000001200890002103A8FDF712F9002801D51F
:104F1000FF2001E0684600780AB010BDFBB5A8B0DC
:104F20001600359DE800471B38001930812801DB49
:104F3000422055E0022228A907A8FCF763FA07AC33
:104F4000022229A9A01CFCF75DFA267102222AA9D7
:104F5000601DFCF757FA022230A9E01DFCF752FA57
:104F6000022231A920000930FCF74CFA022232A9B2
:104F700020000B30FCF746FA022233A920000D3046
:104F8000FCF740FA022234A920000F30FCF73AFA6D
:104F900065743A00369912342000FCF733FA18226F
:104FA000002101A8FCF734FA01A83F2101809921D2
:104FB000418007A80390E800401B1230C0B2049063
:104FC0000F2002906846059001200690002101A85C
:104FD000FDF7AEF8002801D5FF2001E06846007813
:104FE0002BB0F0BDFBB5A8B01600379DE800471BFD
:104FF00038001930812801DB42205EE0022228A916
:1050000007A8FCF7FFF907AC022229A9A01CFCF7AE
:10501000F9F9267102222AA9601DFCF7F3F9022290
:1050200030A9E01DFCF7EEF9022231A92000093079
:10503000FCF7E8F9022232A920000B30FCF7E2F974
:10504000022233A920000D30FCF7DCF9022234A93A
:1050500020000F30FCF7D6F935A8007860740622DE
:10506000369920001230FCF7CDF925763A003899B0
:1050700019342000FCF7C6F91822002101A8FCF71A
:10508000C7F901A83F2101809921418007A8039019
:10509000E800401B1930C0B204900F20029068460F
:1050A000059001200690002101A8FDF741F8002895
:1050B00001D5FF2001E0684600782BB0F0BD30B587
:1050C0008DB00D00190007AC20806580227106228A
:1050D000601DFCF797F91098E0721198A081129862
:1050E000E08113982082149860821598A082169807
:1050F000E0821822002101A8FCF78AF901A83F21CB
:1051000001809C21418007A80390182004900F2063
:1051100002906846059001200690002101A8FDF745
:1051200007F8002801D5FF2001E0684600780DB09F
:1051300030BD01B588B01822002101A8FCF768F93C
:1051400001A83F2101809D21418008A803900120F2
:105150000490694605910690002101A81AE000B567
:1051600089B001AA108091701822002102A8FCF7D2
:105170004FF902A83F2101809F21418001A804909E
:10518000032005900F2003906846069001200790A9
:10519000002102A8FCF7CCFF002801D5FF2001E088
:1051A0006846007809B000BDF9B595B014004A48CA
:1051B0007844FF3025300CC813A80CC0099108AD05
:1051C0000020E86101E00098241800206946C880AA
:1051D00013AB0022D243210001A8801C01F05CF82F
:1051E0000090012805DA2078411E8941C943C90F82
:1051F00000916846C0882528009E00D1761E012EA9
:105200000EDB270039780998159A904709900028F5
:1052100000D1ECE0E869401CE8617F1C761EF1D10A
:105220006846C088252804D1002028616861A861EB
:1052300008E06846C0880028C5D1E869D9E00100C7
:1052400001200843641C21782029F8D023290ED09E
:105250002B2904D02D2907D030290BD00DE00100D7
:105260000220084380B2EDE701000420F9E70100C5
:105270000820F6E701001020F3E72A2912D1169939
:105280000968169A11600A68091D169B19606A62FE
:10529000002A05D55142696201000420084380B20A
:1052A000641C12E0002169620AE06A6A0B4B9A42B0
:1052B00005D093009A185200511830396962641C65
:1052C00021780A00303A0A2AEFD321782E2907D014
:1052D0000021C943296225E054170000FFFFFF7F2A
:1052E000641C21782A290AD116990968169A116036
:1052F0000A68091D169B19602A62641C12E00021CD
:1053000029620AE02A6AC34B9A4205D093009A1890
:105310005200511830392962641C21780A00303A51
:105320000A2AEFD328852678310000BFBAA000F002
:10533000C1FF002801D0641C00E000262A202E5462
:10534000285C682806D12078682803D162202A21A9
:105350006854641C02A8E8602678641C252E15D0C9
:10536000582E55D0632E00D1B3E0642E00D18EE0CC
:10537000692E00D18BE06F2E4AD0702E3BD0732E59
:105380000AD0752E44D0782E42D0CAE00120286180
:10539000252069460872CFE02A20285C6C281698E0
:1053A00000681699086017D00668001D16990860F5
:1053B000AE602F6A002F03D5300000F085FF09E0B2
:1053C0003A000021300000F087FF002801D0801B48
:1053D00000E038006861AFE00268001D16990860BF
:1053E00008A9159800F042F9002800D4A4E0002094
:1053F000C04317B0F0BD16980068169908600168A0
:10540000001D169A1060089102A8A86078215CE03F
:105410002A20285C6C2801D1169810E0712801D14F
:10542000169802E06A28169809D10268D21D072052
:1054300082431698026003CA169B1A6005E0016851
:1054400001600868091D169A116008902A20285CDE
:10545000682802D1089880B203E0622802D1089837
:10546000C0B208902820285C000729D50898002899
:1054700026D020203043782822D12869302102AA62
:105480001154401C411C296102A90E5418E01699C0
:105490002A20285C00F0C4F80890002802D528696A
:1054A0002D2109E0288D810702D528692B2103E0F1
:1054B000C00705D52869202102AA1154401C286183
:1054C00002A829694018A860310008A800F0F8F97E
:1054D00032E02A20285C6C280CD001202861169824
:1054E0000068169908600168001D169A10606846E9
:1054F000017221E016980068169908600168001D85
:10550000169A106068460180002069464880C043B2
:1055100028626A4608A9159800F0A8F800280BD55B
:1055200065E701202861252069460872002E03D016
:105530000220286102A84670686A2969401AA96990
:10554000401A6969401A00902820285C400711D44D
:10555000202069460871009801280BDB009E01237A
:1055600001AA08A9159800F027FA002800D03EE704
:10557000761EF4D12F6902AE002F0DD03178099834
:10558000159A90470990002800D130E7E869401C3F
:10559000E861761C7F1EF1D1302069460871AE6942
:1055A000012E0ADB012301AA08A9159800F004FACC
:1055B000002800D01BE7761EF4D1AE686F69002F7B
:1055C0000DD031780998159A90470990002800D19C
:1055D0000DE7E869401CE861761C7F1EF1D12820A8
:1055E000285C400700D4F0E5202069460871009847
:1055F000012800DAE9E5009E012301AA08A915980F
:1056000000F0DAF9002800D0F1E6761E00D1DCE5E2
:10561000F2E700BFFFFFFF7F686C747A4C00000068
:10562000622815D068280CD06C2818D0742816D0A1
:105630007A2814D10A680A601068121D0A600021D5
:1056400070470A680A601068121D0A6000B20BE019
:105650000A680A601068121D0A6040B204E00A6815
:105660000A601068121D0A60C1177047F4B59AB03D
:1056700007000C00206A002800D58E48039000F037
:1056800037FE616A081806908BA003C807AA03C2F8
:105690002820205C400702D40698412806D209A899
:1056A000029040200690002005900EE000F026FEBB
:1056B00002900028F7D10020C043F8E01A98801C1F
:1056C0001A9003980199401A03900398012800DA70
:1056D00093E007AA1A98018800A8401C00F06AFE0F
:1056E0000190002800D59FE01A980088002804D176
:1056F0000198401E019000D596E0039801998842D8
:105700007BDB20690699019A8218914264D20021BC
:1057100061624142A069081A6169401A0490282018
:10572000205C400710D420206946087004980128A6
:105730000ADB049D01236A462100380000F03CF991
:10574000002871D16D1EF5D12669029D002E0BD067
:1057500029786068B8476060002865D0E069401C1F
:10576000E0616D1C761EF3D1302069460870A56992
:10577000012D09DB01236A462100380000F01CF9E5
:10578000002851D16D1EF5D1A5686669002E0BD099
:1057900029786068B8476060002845D0E069401CFF
:1057A000E0616D1C761EF3D12820205C400710D5E7
:1057B000202069460870049801280ADB049D012313
:1057C0006A462100380000F0F7F800282CD16D1E41
:1057D000F5D1002005902061019A00A9491C02988A
:1057E0002369C018FCF734F820690199401820613A
:1057F0001A980088002800D060E7059800284FD14B
:10580000606A2169401AA169401A6169461A282014
:10581000205C400711D4012E0FDB35002021606889
:10582000B8476060002803D10020C043059037E0EE
:10583000E069401CE0616D1EF0D12369029A2100ED
:10584000380000F0B9F80028EED1A569012D0ADB77
:1058500030216068B84760600028E5D0E069401CEE
:10586000E0616D1EF4D16369A2682100380000F088
:10587000A3F80028D8D12820205C40070DD5012EA0
:105880000BDB350020216068B84760600028CBD072
:10589000E069401CE0616D1EF4D10020206160626F
:1058A000029809A9884201D000F090FD05981BB02C
:1058B000F0BD0000FFFFFF7F0000000000000000BF
:1058C000F2B582B00400E06800906846007A6F2864
:1058D00001D1082506E020220243782A01D00A25BA
:1058E00000E01025182721680E00642801D06928DF
:1058F00003D1002901D570420600002E0DD1206A87
:1059000000280AD1082D31D12820205C00072DD590
:10591000172730200099C87528E07F1E01973000B6
:105920002900FDF7C3FE3031C9B23A2903DB6846CE
:10593000007A513809180098C15530002900FDF748
:10594000B5FE060004D0A0680099C9198842E4D3C6
:10595000082D0BD12820205C000707D50098C05DDA
:10596000302803D07F1E30200099C8551820C01B56
:1059700060610099C919A160216A884206DA081A93
:10598000A061208D0B490140218510E000290ED532
:105990002821615C14220A40102A08D1616A226918
:1059A000891AA269891A0F1A012F00DBA76103B0B7
:1059B000F0BD0000EFFF0000F1B50E00140000275D
:1059C000002B0FD01D0021787068009A90477060FE
:1059D000002806D0F069401CF061641C6D1E01D0E7
:1059E000F1E7FF433800F2BD10B58207D30EFF2464
:1059F0009C40E2438907090E9940030004D52148E1
:105A00001B071B0F083B00E01F489B089B00C018AA
:105A100003681A401143016010BD80B5FFF7E4FF31
:105A200001BD0121C006C00E8140184801607047C9
:105A30000121C006C00E814015480160704710B5B5
:105A4000401E80214904884201D3012010BD114C21
:105A5000606003210020C043FFF7C6FF0020A06064
:105A60000721216010BD0121C006C00E81400A48F7
:105A7000016070470121C006C00E814007480160E7
:105A8000704700001CED00E000E400E000E100E0F1
:105A900080E100E010E000E000E200E080E200E0F1
:105AA00070B5040001D1012070BD250050350026DD
:105AB0006878002803D12E702000FCF787FF0220B1
:105AC0006870206801684022914301606068A168A5
:105AD0000143E06808432169014360690843A16903
