:020000040800F2
:1000000010040020892200083D2100083F2100083B
:1000100000000000000000000000000000000000E0
:100020000000000000000000000000004121000866
:1000300000000000000000004321000845210008E6
:10004000DF0A0008B7130008671A0008FF1B000842
:100050006722000855210008732200086921000862
:10006000B5220008B7220008B9220008BB22000808
:10007000BD220008BF22000800000000C1220008C5
:1000800000000000C3220008000000000000000083
:10009000C522000800000000C7220008C92200088D
:1000A000CB220008CD220008CF220008D122000870
:1000B0005F210008D3220008D5220008D7220008BB
:1000C00038B5040001D1012032BD250068356878BB
:1000D000002803D12870200000F04FFC0220687037
:1000E00020680168012291430160200000F0D6F9E8
:1000F000606A002802D0200000F0F6FA206841680B
:10010000074A0A404260206881682A229143816040
:100110002068016801220A430260200075E10000A6
:10012000FFB7FFFFF8B506000C0035005035687EBC
:10013000012802D0687E22284AD1002C01D0002A52
:1001400001D10120F2BD287E012841D0012028766E
:100150000027EF61687E222801D1322000E01220C2
:1001600068762A806A8005E02088C005C00D316865
:100170008862A41C6888002816D0401E6880009BF6
:1001800000228021300000F01BFB002814D1B06851
:1001900080214901884202D130690028E4D02078CA
:1001A00031688862641CE5E7009B00224021300032
:1001B00000F006FB002801D00320F2BD687E322843
:1001C00001D1222000E0012068762F760020F2BDC8
:1001D0000220F2BDF8B582B006000C00350058359B
:1001E000687C012802D0687C122866D1002C01D0DE
:1001F000002A01D10120FEBD287C01285DD001200C
:10020000287400276F61687C122801D1322000E039
:10021000222068742A806A80B268FF208021490108
:100220008A4204D13169002912D1254810E07F218A
:10023000002A03D13269002A07D109E08020400555
:10024000824206D13069002801D1A98001E03F2017
:10025000A880A8886946088006E03068406A694638
:10026000098801402180A41C688800281BD0401EFA
:100270006880029B00222021300000F0A1FA0028B3
:1002800001D00320FEBDB06880214901884202D11F
:1002900030690028E1D03068406A69460988014029
:1002A0002170641CE0E7687C322801D1122000E054
:1002B000012068742F740020FEBD0220FEBD0000E6
:1002C000FF01000070B504002500523520680126AA
:1002D000C169314007D00168C90504D50662E06EE6
:1002E0003043E066EE75226802200421D3690340A2
:1002F00007D09368334004D01062E26E0A43E2668E
:10030000EE752268D3690B4007D09368334004D060
:100310001162E16E0843E066EE7520680821C2694B
:100320000A4007D08268324004D00162E06E014387
:10033000E166EE75E06E002802D0200000F0BAFB06
:1003400020683105C2690A4007D08268520204D58C
:100350000162EE75200000F0C1FB20682021C26917
:100360000A4005D00068014002D0200000F050F89B
:10037000216840208022CB6913402CD00B681A40A2
:1003800029D0EA7D122A02D0EA7D322A23D12A8896
:10039000002A08D10A6880239A430A6021680A6803
:1003A00002430A6017E0A26883019A420BD12269D6
:1003B000002A08D1E26C1288D205D20D8A62E16C63
:1003C000891CE16404E0E26C531CE36412788A62E5
:1003D0002988491E29802168CA69024010D00A680C
:1003E00010400DD00868402290430860E87D322814
:1003F00002D12220E87500E0EE75200000F001F83F
:1004000070BD704770471D604A7000F037F932BD0B
:1004100010B501005A314A88CB7B222B02D0CB7B0E
:10042000322B39D1836880246401A3420BD1036944
:10043000002B08D103685B6A1A40436D1A80426D35
:10044000921C426506E0436D5C1C44650468646A66
:1004500022401A700A88521E0A8012041AD10268B9
:10046000D3699B06FBD413682024A3431360CA7B83
:10047000322A02D11222CA730AE002681368934C2E
:100480001C401460026893680124A3439360CC73FA
:10049000FFF7B8FF002010BD022010BDF8B5040022
:1004A0000020002125682A68894B1340A2681A435E
:1004B0002369134362691A43E36913432B606A6833
:1004C000844B1340E2681A436A60A369824A9542EA
:1004D00002D01E00236A3343AE68804F37403B434F
:1004E000AB6010267E4B9D421DD17E4BDB6C9B0783
:1004F0009B0F04D0022B37D022D3032B32E00121F3
:10050000D20BE369934200D090E0002908D0012982
:100510006ED002296FD0042976D0082978D07BE0EC
:1005200000F0E6FD72E0A24B9D420BD16D4BDB6CFF
:100530000C271F40042F03D0082F15D00C2F11E0DB
:10054000042114E0954212D1664BDF6CC0231B01DD
:100550003B40170DBB42F3D0D70CBB4204D0C027A1
:100560003F01BB4202D002E0022100E00821954297
:10057000C6D1904D002906D0022907D0042914D0F5
:10058000082928D0F1BD00F0B3FD10E0606800F04C
:10059000DFFD02000B0053480068064002D0002037
:1005A00085491FE0002085491CE000F059FD00F05E
:1005B000CFFD0022B14B00F0DBFD06000F006068AC
:1005C00000F0C6FD02000B003000390000F092FE82
:1005D00000F0F2FE49E0606800F0BAFD02000B0096
:1005E0000020A74900F086FE00F0E6FE2860F1BD7D
:1005F00000F08EFD0AE061683A480068064001D0CC
:10060000A04807E0A04805E000F02AFD400000E017
:100610005000616800F0E7FE9C4A02400006400E70
:100620004007400F02432068C260F1BD002908D096
:10063000012909D002290AD0042911D0082917D08C
:10064000F1BD00F055FD0DE000F062FD0AE06168CB
:1006500024480068064001D08D480BE08D4809E031
:1006600000F0FEFC616800F0BEFE2168C860F1BDCC
:100670001000616800F0B7FEE860F1BD38B5040015
:10068000854D20680068000708D52B0000228021D6
:100690008903200000F094F800280CD1206800683D
:1006A00040070AD52B0000228021C903200000F05A
:1006B00087F8002801D0032032BD68340020207064
:1006C000606001206070002032BD0000FFFEFFFF6F
:1006D000F369FFEFFFCFFFFF00480040FFF4FFFF8B
:1006E00000380140001002402421415CC90706D5B2
:1006F00001684A68694B1340826A1A434A602421A0
:10070000415C890706D501684A68654B1340C26A97
:100710001A434A602421415C490706D501684A68AA
:10072000604B1340026B1A434A602421415C090765
:1007300006D501684A685C4B1340426B1A434A6015
:100740002421415CC90606D501688A68574B1340CD
:10075000826B1A438A602421415C890606D50168B0
:100760008A68534B1340C26B1A438A602421415C50
:10077000490611D501684A684E4B1340026C1A4372
:100780004A60026C80235B039A4205D14A684A4B57
:100790001340426C1A434A602421415C090606D585
:1007A00001684A68454B1340806C184348607047A5
:1007B000004400400C4800408084CE418084EE41DB
:1007C000FFB583B000F08BFE019003986830009075
:1007D00001270124E4433A4D00266846007D0028A5
:1007E00016D103980068C0690499014004988142B9
:1007F00040D006980021C9438842F2D000281DD07D
:1008000000F06DFE0199401A06998142E9D215E087
:1008100003980068C069049901400498814229D175
:1008200006980021C9438842F2D0002806D000F083
:1008300056FE0199401A06998142E9D20398006850
:1008400001688022914301600398006801682022BA
:10085000914301600398006801680D4005600398AA
:10086000006881680C4084600098477000980670AA
:10087000032000E0002007B0F0BD00000000704041
:100880000000604100127A000048E801F0FF00001B
:1008900000093D000024F400F0550000FFFFFDFFBB
:1008A000FFFFFEFFFFFFFBFFFF7FFFFFFFEFFFFFED
:1008B000FFDFFFFFFFFFEFFFFFFF9FFFFFFFF7FFE0
:1008C000FFFEFFFF70B5C0B002266C46FF2121700D
:1008D0000121617042782271002565710278FF2A3A
:1008E00012D14078012804D0042807D0052808D068
:1008F0000AE0A1710920E071042606E000F0CEFEB6
:1009000003E000F0E1FE00E06171A670E570321DC9
:10091000D2B200E06D1C9542FCDB96235B00694679
:100920005E48FFF7FFFB002801D000F0CFF840B091
:1009300070BD80B55A485B494160E1214902816040
:100940000021C16001614161C1610C218161001D13
:10095000FFF7B6FB002801D000F0B8F801BD81B068
:1009600000200090504903E000BF0098401C009018
:1009700000988842F8D301B0704730B587B00120A5
:100980004A490A6802430A600A6802400092009AD3
:100990000A6802430A600A6802400092009ACA6824
:1009A00043041343CB600424019402210291039079
:1009B00004910594A025ED0501A9280000F068FF29
:1009C00008200190059401A9280000F061FF07B0FC
:1009D00030BDF0B5C1B000F05DFD002001F044F87D
:1009E0000021002001F072F801F0D4F8FFF7A1FF18
:1009F00000F038FE00F052FE96277F00284D0A23B3
:100A000004222900281DFFF7E5FB002804D0032855
:100A100024D000F05BF821E0EC78002C0AD03B00F9
:100A2000220029007431281DFFF7D4FB002801D0D3
:100A300000F04CF8002000E0401CA042FCDB2878CD
:100A4000012807D12300042229007431280000F076
:100A5000E9FD03E004212800FFF734FF0121A02075
:100A6000C00500F0D4FF0128C9D1FF226946104813
:100A700000F032FEC6B2002EF0D000243B0001226E
:100A800068460119281DFFF74DFB002801D000F032
:100A90001DF8641CB442E1DAF0E700001404002001
:100AA0001004002000440040400D03002C100240C0
:100AB0008405002080B5002000F0FAFFFFF74FFF0B
:100AC000002000F0F5FFFFF74AFF01BD80B50020D0
:100AD00000F0EEFF642000F005FDF8E77047FEE748
:100AE000F0B583B00400B44D2078C00752D58027FC
:100AF000BF02E8680C210140082907D0E8680C21F2
:100B000001400C290AD1E868C00307D528680740CE
:100B100040D0606800283DD10120FEBD60687908A2
:100B2000884201D128680DE0B049A022D20290424B
:100B3000286809D1014029602868790001432960AB
:100B400028687908014309E001402960286879088C
:100B50000840019001982868B74901402960606801
:100B600000280BD000F0BBFC06002868384011D1EB
:100B700000F0B5FC801B6528F7D3B8E100F0AFFCAE
:100B800006002868384005D000F0A9FC801B6528C5
:100B9000F7D3ACE102272068384019D0E8680C216F
:100BA0000140042907D0E8680C2101400C2942D1FA
:100BB000E868C0033FD42868400702D5E0680128F0
:100BC000AAD16868B44901402069000208436860FE
:100BD0002078C00619D5E8680C2101404FD128685B
:100BE000800502D5E069002896D06868AB490140CD
:100BF000606A0843686068680002000A216A0906A2
:100C000001436960032000F053FC2078000775D58C
:100C100060690028286D62D001210143296500F038
:100C20005EFC0600286D384068D100F058FC801B3F
:100C30000328F7D35BE1E0680921C94300280FD0FE
:100C40002A6811400843286000F049FC0600286823
:100C50004007B6D400F043FC801B0328F7D346E1DD
:100C600028680140296000F03AFC06002868400727
:100C7000AED500F034FC801B0328F7D337E1E069E0
:100C8000002828681CD0A90D0143296000F027FC2A
:100C900006002868800505D400F021FC801B03288D
:100CA000F7D324E168687D490140606A08436860C1
:100CB00068680002000A216A090601436960A4E726
:100CC0008D490140296000F00AFC06002868800573
:100CD0009BD500F004FC801B0328F7D307E101211A
:100CE0008843286500F0FBFB0600286D384005D0DE
:100CF00000F0F5FB801B0328F7D3F8E0207880068E
:100D00002ED57E48A1690029A96816D001220A4380
:100D1000AA60696B01220A436A6301686A0C0A438C
:100D2000026000F0DCFB0600A868384018D100F033
:100D3000D6FB801B0328F7D3D9E001229143A96099
:100D400001686F4A0A40026000F0C9FB0600A8680B
:100D5000384005D000F0C3FB801B0328F7D3C6E062
:100D60002078400700D479E0002000276946087009
:100D700080204005A96B014003D1A96B0843A863FB
:100D8000012760480068C00518D45E480068A90DB6
:100D900001435C48016001206946087000F09FFB38
:100DA000060058480068C00508D400F098FB801B76
:100DB0006528F6D39BE000BF00100240A168A80D93
:100DC00081420ED0A348002912D0A022D200914225
:100DD0000ED1286D484901402965286D290D014330
:100DE0002965286DA90D0143296508E0FFFFFEFF75
:100DF000296D414A0A402A65296D08402865A06886
:100E000000280CD000F06BFB0600286D800515D47F
:100E100000F065FB801B90498842F6D367E000F044
:100E20005EFB0600286D800508D500F058FB801B8E
:100E300089498842F6D35AE0FFFFFBFF68460078F5
:100E4000002805D02F4800682B4901402D4801603B
:100E5000002F03D0A86B81490140A963A06A002834
:100E600047D0E9680C220A400C2A00D154E68027BA
:100E7000BF049749022828682CD10140296000F05E
:100E80002EFB0600286838400AD000F028FB801BA3
:100E90000328F7D32BE000BFFFE0FFFFFF1FFFFF9A
:100EA000E86898490140206B0843616B0143E06AA0
:100EB0000843E860286879080143296000F00FFBC7
:100EC00006002868384014D100F009FB801B032875
:100ED000F7D30CE00140296000F001FB0600286810
:100EE000384006D000F0FBFA801B0328F7D303201C
:100EF000FEBD0020FEBD0000FFFEFFFF2000014000
:100F0000FEDFFFFF00700040F2B582B00400012751
:100F1000FF4301257C480068284088420AD27A486D
:100F20000068384001437848016000682840029911
:100F3000884274D1754E2078800705D5F068F0217D
:100F40008843A1680143F1602068284055D060685B
:100F5000022802D13168890308E0002802D13168F3
:100F6000890503E00328316802D1890102D456E0E3
:100F7000490754D5F168032291430843F06000F01B
:100F8000AEFA0090606802280CD1F0680C21014094
:100F9000082932D000F0A3FA0099401A2E4988425D
:100FA000F3D328E003280CD1F0680C2101400C2970
:100FB00023D000F094FA0099401A27498842F3D3CD
:100FC00019E000280BD1F0680C21014015D000F089
:100FD00086FA0099401A20498842F4D30BE0F06861
:100FE0000C210140042908D000F079FA0099401A38
:100FF00019498842F3D30320FEBD434800682840C6
:10100000029988420DD3404800680740084638439B
:101010003D490860086805400298854201D00120DA
:10102000FEBD2078400705D5F0683F490140E068E3
:101030000843F0602078000706D5F0683B4901407E
:101040002069C0000843F060032000F031FA00205E
:10105000FEBD0000FFFBFFFF89130000FFFFFFEF55
:10106000F0B52A4D6868334A530054081026E968E1
:101070000C270F40042F04D0082F09D00C2F09D0C3
:101080001FE02868064001D02000F0BD1800F0BD28
:101090001000F0BDE868E968274F8002000F385C57
:1010A0000902890F491CEF68FF0306D42A6816401D
:1010B00001D0604302E0584300E0504300F093F950
:1010C000F0BD01210004400F401C8140C803F0BD69
:1010D000FFFFFFFE80B5FFF7C3FF00BF18A1144A52
:1010E00012681206120F895CC8401449086002BDDC
:1010F00080B5FFF7EFFF00BF11A10D4A126852053E
:101100000EE00000FFFF02FF00200240001002403E
:1011100080B5FFF7DFFF00BF09A1054A12689204FE
:10112000520F895CC84002BDFFF8FFFFFFC7FFFFF9
:101130000C10024000127A00302100080800002044
:10114000000000000102030401020304060708096D
:10115000010000BF42221201D21E004207D002D479
:10116000521E0018FCD5C10A4005120589187047A7
:10117000F0B50E005E400125ED072E40B446AE0AE4
:10118000DF184C18F44208D2F7420ED2640D01D099
:101190007F0D12D100206146F0BD05D1F74201D884
:1011A0007F0D05D10020C143F0BDFBD1640DF9D006
:1011B0000020C143490549088FE0E419C902DB0258
:1011C00029432B43DB0A460DC00231438E4630B41F
:1011D00087B295B27D432E0CADB2140C7C43A4199A
:1011E000260C240425439CB27C43A419190C794392
:1011F000270CC919A4B20F043C43090C000C97B288
:1012000047432E0CBE193543ADB2170C4743360C7D
:10121000BF19A6B2BF193E043543240C3E0C361943
:101220009FB24743BF19BCB23E0C89191F0C4743FC
:101230007F183E043443390C704680B297B247435E
:101240002E0CBE193543ADB2170C4743360CBF19EF
:10125000A6B2BF193E043543240C3E0C36199FB28A
:101260004743BF19BCB23E0C89191F0C47437F1876
:101270003E043443390C77463F0C90B278432E0C31
:1012800080190604ADB22E43050CA0B22D18120C25
:101290007A435019020C80B2240CA4189AB27A43F3
:1012A000121914042043120C89181B0C7B43C91813
:1012B00030BCEF0A394203D1B61940414941641E9E
:1012C0006F12BF0DE41B0BDBFF19BC4211DA2405C2
:1012D00000274208AE417841614166463143F0BD86
:1012E000641C05D1401C6141CF0201D34908F4E7D9
:1012F00050E75DE7F0B40E005E400125ED072E409B
:10130000B446AE0ADF184C18F4423BD2F74241D241
:10131000640D43D07F0D38D0E41BC902DB022943A2
:101320002B43CF0ADB0A0600B61A9F4104D2641E83
:10133000B6197F41B6185F416812800D2418001855
:10134000844222DAE80C0021B6197F41B61A9F4187
:1013500002D2B6185F413F1C40414941F4D3241CDE
:1013600021DD2405B6197F41B61A9F4105D33743C5
:10137000C60737430026012F70416141664631435D
:10138000F0BC7047FCD1F74205D20020C1434905AB
:101390004908F3E704D00020C143F1E77F0DFAD0FC
:1013A00000206146ECE72442FAD1401C61410F0362
:1013B000F6D30020E2E7FEE74A1812D2400DC90238
:1013C00008430121C9070843520D40210901521A5F
:1013D000521C06D452421F3201D4D0407047C0176D
:1013E0007047002070470022030A8B420BD203098A
:1013F0008B4219D243088B422ED2411A00D20146A9
:10140000524110467047FF2209023FD012068B421C
:1014100005D3121209028B4201D3121209020309E9
:101420008B4219D300E0090AC3098B4201D3CB01D7
:10143000C01A524183098B4201D38B01C01A524119
:1014400043098B4201D34B01C01A524103098B421D
:1014500001D30B01C01A5241C3088B4201D3CB0008
:10146000C01A524183088B4201D38B00C01A5241EB
:1014700043088B4201D34B00C01A5241884200D32B
:10148000401A5241CFD201461046704708B500F0CD
:10149000B5FB08BD80B5194801680222914301607F
:1014A000032000F005F800F002F8002002BD7047AC
:1014B00010B50400FFF70EFEFA218900FFF793FF35
:1014C00000F0C9FB002221000020C04300F0B1FB66
:1014D000002010BD0A480168491C01607047084897
:1014E0000068704711B581B0FFF7F9FF0400FFF7FE
:1014F000F6FF001B01998842F9D313BD002002407A
:10150000DC05002000686449884200D07047F0B5CF
:1015100087B00124D348016821430160016821405C
:101520000091009902260168314301600168314051
:1015300000910099016821430160016821400091F8
:1015400000990168214301600168214000910099E0
:101550000168214301600168214000910099016800
:101560002143016001682140009100998168820C4B
:101570000A438260870D0197029403940025049525
:10158000059501A9A020C00500F082F900223900CC
:10159000A020C00500F041FA0820019002960396B1
:1015A00003270497059501A9AF4800F071F9402081
:1015B0000190029603950497059501A9A020C00506
:1015C00000F066F980200190029603950497059536
:1015D00001A9A020C00500F05BF9019602940394D4
:1015E0000497059501A9A020C00500F051F901223A
:1015F0000221A020C00500F010FA01949B4802903F
:1016000003950497059501A9A020C00500F040F9B5
:1016100000220321052000F00CFB052000F00DFB4B
:1016200007B0F0BDF1B584B00F0016001D00904862
:1016300000680A21FFF7D7FE010001A800F02AFB8D
:101640008C4CE8B20090F3B23A000499200000F00C
:101650008FF8002804D001A800F024FB0028F0D067
:1016600005B0F0BD80B583480B4901608221490077
:10167000416000218160C16001614161802292006E
:101680008261016241620722C2620822C2618162F4
:1016900000F014FB01BD00000030014038B5A0246B
:1016A000E40580256D0000222900200000F0B5F936
:1016B0000520FFF717FF01222900200000F0ADF9F7
:1016C0000520FFF70FFF31BD80B500F09BF8FFF755
:1016D000E5FF00F0ADF801BDF3B587B016000025B9
:1016E0000024FF206946487104A800BF62A10CC90C
:1016F0000CC000220221A020C00500F08EF90F20AE
:101700000090052302AA04A9079800F019FB02A87B
:101710000178022919D101790F02C078074314D04A
:10172000BE420FDA37000DE00F200090012301AA1E
:1017300001A9491C079800F003FB68460079089945
:101740000855641CE4B2BC42EEDB01220221A02059
:10175000C00500F062F9009503E000BF0098401C4E
:10176000009000980228F8DB200009B0F0BD0000CE
:10177000F6B5C5B007001E00002403A840A10CC99F
:101780000CC001A840A10CC90CC0052000F05CFAF7
:1017900000220221A020C00500F03FF90F20009098
:1017A000052301AA03A9380000F0CAFA01A80178AC
:1017B00002291AD14C9D40787119884214DB002E01
:1017C00007D00F200090330005AA4599380000F09B
:1017D000B7FA002D0AD00F2000902B0005AA4699D9
:1017E000380000F0ADFA01E00124E44301220221B7
:1017F000A020C00500F011F9052000F01EFA20001D
:1018000047B0F0BD10B586B00120009001900320D4
:10181000039000200290A024E4056946200000F017
:1018200037F801220121200000F0F7F806B010BDC2
:1018300030B585B0012000900C4801900220029044
:101840000320039000240494A025ED056946280098
:1018500000F01EF802946946280000F019F805B05F
:1018600030BD00002C100240000400500000111098
:10187000B0220008840500200B00000000000000DA
:101880000A00000000000000AA00000000000000A4
:10189000FFB5002401232FE00625B5403D43039EFC
:1018A0003560684D2E68009FFD432E404F68FF0352
:1018B00002D53700009E3E43624F3E607E682E4058
:1018C0004F68BF0302D53700009E3E435D4F7E60E8
:1018D000BE682E404F68FF0202D53700009E3E438F
:1018E000584FBE60FE6835404E68B60202D52E00E5
:1018F000009D3543FD60641C0D682E00E64000D15C
:1019000084E00126A6402E400096009D002DF2D0D6
:101910004D68022D01D0122D18D1E508AD004519F2
:101920002E6A01966607F60E6F463E72019FBC4610
:101930006E46377A0F26BE406746B743BC460F69EE
:101940006E46367AB740664637432F6266000327F5
:10195000B740FD4301954D68012D05D0022D03D000
:10196000112D01D0122D10D18768019D3D40CF6807
:10197000B7402F43876047680125A540AF434D68B6
:101980002D091D40A5403D4345600768019D3D4030
:101990000F79BF07BF0FB7402F430760C768019D8E
:1019A0003D408F68BC4637006646BE402E43C66049
:1019B0004D68ED009FD5244D2D681D43224E3560A6
:1019C000224DA608B600AD1903952F68A5072E0F66
:1019D0000F25B540AF43A025ED05A84201D1002554
:1019E0005BE71B4DA84201D1012556E7194DA842DE
:1019F00001D1022551E7184DA84201D103254CE73A
:101A0000164DA84200D047E7052546E7FFBD00690F
:101A1000084000D00120C0B27047002A01D0816187
:101A200070478162704742694A40426170470C4A80
:101A30001368034000D1704780B5106000F012F8C1
:101A400001BD0000000401403410024008000140C4
:101A50000004005000080050000C0050001C005012
:101A6000140401407047FEE730B587B00121434AB6
:101A700013680B43136012680A400092009A00BF7B
:101A800011A24300D55A019502910021039103212F
:101A900004913B4980000C1801A92068FFF7F8FE6B
:101AA000002229002068FFF7B8FF07B030BD000012
:101AB00080B500BF04A14200895A314A8000105805
:101AC000FFF7B1FF01BD000020000000F0B587B0B6
:101AD0000E00042229490B6813430B600B681A405F
:101AE0000092009A8A68012313438B6007002548FF
:101AF000B9004018009003240025002E0DD100BF2E
:101B00001DA07900405A0190029502200390049490
:101B100001A900980068FFF7BBFE012E28D100BF85
:101B200015A07900405A019003951748029001A929
:101B300000980068FFF7ACFE0EA0C05D43B21C40E9
:101B4000E400FF22A240D143C022A2401C0004D5E1
:101B50000E4B2407240F083C00E00D4BA408A40002
:101B60001B191C6821400A431A6040B200F065F856
:101B700007B0F0BD07000000002000002C1002405C
:101B80000000002004000020000011101CED00E007
:101B900000E400E070B594B0154C60688021490500
:101BA0000143616013480168134A0A40C10C1143A4
:101BB00001600220059001250895102109910F90E0
:101BC00000261096400411900001129005A8FEF71F
:101BD00087FF009503200190029603960496012149
:101BE0006846FFF791F920680543256014B070BD81
:101BF0003410024000700040FFE7FFFF7047FEE72F
:101C000010B58207D30EFF249C40E2438907090EDA
:101C10009940030004D51A481B071B0F083B00E03E
:101C200018489B089B00C01803681A4011430160C4
:101C300010BD80B5FFF7E4FF01BD0121C006C00E55
:101C400081401148016070470121C006C00E8140EB
:101C50000E480160704710B5401E8021490488423B
:101C600001D3012010BD0A4C606003210020C04355
:101C7000FFF7C6FF0020A0600721216010BD000013
:101C80001CED00E000E400E000E100E080E100E0A5
:101C900010E000E010B504006160FFE700F018FA02
:101CA000206010BD10B5040000F012FA61682268CF
:101CB000801A401C81428041C00F10BD70B50400E5
:101CC00001D1012070BD250050350026687800281C
:101CD00003D12E702000FFF715FC022068702068E9
:101CE00001684022914301606068A1680143E06897
:101CF00008432169014360690843A169D20011408A
:101D00000143E0690843216A0143A06A084321684E
:101D10000860A069000C04210840616A0143206842
:101D20004160E06A216808612068C169034A0A408D
:101D3000C2616E6001206870002070BDFFF7FFFF78
:101D4000F8B5040000256E463580260050367078C0
:101D5000012803D07078222800D053E1002902D056
:101D6000002A00D0002B00D147E13078012800D1B3
:101D700048E1012030707078012801D13220707064
:101D80007560A263A387E3872163A386E386A564C6
:101D9000E564A06A8021890188420AD1206801682F
:101DA000994A0A40026020680168802292010A4331
:101DB00002602068402102680A4002D10268114393
:101DC000016082204000069FE1688022120191425A
:101DD000616864D1002904D081420CD1E08E0128D1
:101DE00009D1206B00882168C860206B801C2063AB
:101DF000E08E401EE086E08E00283AD1A06A910075
:101E000088423CD12068016852000A43026036E0F3
:101E10003B0000220221200000F0F8F8002835D114
:101E2000206B00882168C860206B801C2063E08ED6
:101E3000401EE08600040AD1A06A80218901884200
:101E400005D120680168802252010A4302603B00EC
:101E500000220121200000F0D9F8002816D12068C6
:101E6000C068A16B0880A06B801CA063E08F401E3F
:101E7000E087E08E0028CBD1606800286CD13B0061
:101E800000220121200000F0C1F800286DD1206857
:101E9000C068A16B0880A06B801CA0636DE0002966
:101EA00004D081420BD1E08E012808D1206B411C67
:101EB000216300782168C860E08E401EE086E08ED5
:101EC000002844D1A06A9100884204D120680168AA
:101ED00052000A4302603B0000220121200000F072
:101EE00095F8002841D12068C068A16B087044E0D3
:101EF0003B0000220221200000F088F8002834D1A5
:101F0000206B411C216300782168C860E08E401E70
:101F1000E08600040AD1A06A80218901884205D1A7
:101F200020680168802252010A4302603B000022BF
:101F30000121200000F06AF8002816D1A06B411C96
:101F4000A1632168C9680170E08F401EE087E08EC0
:101F50000028CDD16068002812D13B000022012169
:101F6000200000F053F8002801D00320F2BDA06B40
:101F7000411CA1632168C9680170E08F401EE087A1
:101F8000A06A80218901884212D13B0000220121F0
:101F9000200000F03BF8002804D0706802210143C3
:101FA0007160E2E72068C06869460880684600887A
:101FB0003B0001228021200000F028F8002802D0F8
:101FC00070682021EBE701207070A06A80218901F0
:101FD000884214D120688168C90610D57168022230
:101FE0000A4372600168084A0A400260206801687A
:101FF000802292010A43026035700120F2BD3570E3
:102000000020F2BD0220F2BDFFDFFFFFFFB581B06F
:10201000FFF765FA00902D4FFC434025ED43E02685
:10202000F6436846007B002816D101980068806856
:10203000029901400298814244D004980021C9438A
:102040008842F2D000281DD0FFF749FA0099401AC3
:1020500004998142E9D215E00198006880680299EC
:102060000140029881422DD104980021C943884241
:10207000F2D0002806D0FFF732FA0099401A0499EE
:102080008142E9D20198006841680E40466001989B
:10209000006801680D4005600198806AA04209D17E
:1020A0000198006801680F400760019800680168A6
:1020B0000C430460019850300121417000210170EF
:1020C000032000E0002005B0F0BD0000FFDFFFFFAF
:1020D00080B5FFF704FA02BD0F480168820D0A437C
:1020E0000260C1680D4A0A40C26001680C4A0A4099
:1020F000026081680122914381600168094A0A40B7
:102100000260C168084A0A40C26000210161802063
:102110000005064908607047001002400C40FF8827
:10212000F6FFF6FEFFFFFBFFFFFF02FF08ED00E0FA
:10213000030406080C101820300000007047FEE76A
:102140007047704780B5FFF7C5F90C480168491C16
:10215000016001BD80B50120FFF769FC01BD80B5BC
:102160000748FEF7AFF801BD80B580208001FFF77A
:102170005EFC01200349087001BD0000E00500205D
:1021800014040020E405002070B40121002313E0B2
:102190000468001D0C4202D04D466D1E6419236078
:1021A000241D121F042AFAD22500960701D5238088
:1021B000AD1C0A4000D02B700268001D002AE7D138
:1021C00070BC704730B401210268001D002A0FD096
:1021D0000368C318446808300C4202D04D466D1E97
:1021E00064191D6825601B1D241D121FECD0F8E723
:1021F00030BC704710B5074979441831064C7C440F
:10220000163404E0081D0A68891888470100A142B5
:10221000F8D110BD08000000280000006DFFFFFF8E
:10222000D8010000100400200000000099FFFFFF0B
:102230000C00000070000000000000200000000002
:1022400000F00BF8002801D0FFF7D4FF0020C046B3
:10225000C046FEF7BEFB00F002F80120704780B5D3
:1022600000F002F801BDFEE70746384600F002F82C
:10227000FBE7FEE780B5C046C046024A11001820C1
:10228000ABBEFBE72600020001488047014800473B
:10229000D920000899220008C046C046C046C04662
:1022A000FFF7CEFF000000500008005080841E00A1
:1022B000E8030000FEE7FEE7FEE7FEE7FEE7FEE7D5
:1022C000FEE7FEE7FEE7FEE7FEE7FEE7FEE7FEE7E6
:0822D000FEE7FEE7FEE7FEE772
:00000001FF
