:020000040800F2
:10000000100400208D440008094200080B4200083B
:1000100000000000000000000000000000000000E0
:100020000000000000000000000000000F42000877
:100030000000000000000000114200081342000808
:10004000EB360008F7430008254200080344000887
:10005000B54400082D420008E54400083742000876
:10006000E7440008E94400084F420008EB44000858
:10007000ED440008EF44000800000000F1440008CF
:1000800000000000F3440008000000000000000031
:10009000F544000800000000F7440008F944000897
:1000A000FB440008FD440008FF4400080145000827
:1000B00003450008054500080745000809450008F4
:1000C000002098490870704780B5974800688047BD
:1000D00001BD80B595480068006C0068006801218A
:1000E000884392490968096C096808608F4800686C
:1000F000406C00680068012188438C490968496C9C
:100100000968086072B600F0F2F8894800780128A2
:1001100009D100208649087001208449087162B61F
:1001200000F0C0F903E000208049087162B601BD0B
:1001300080B501207D494874FFF7CBFF7B4841899A
:10014000C9B27C48006800F0A6FC01BD80B5012062
:1001500000F0B4FA0021002000F038FE01BD80B5A7
:10016000764800F020F875487049086000206F4913
:10017000087100206E4908707048006840680321CB
:1001800001436E48006841606C4800680068402187
:1001900001436A4800680160694B002266490320F8
:1001A00001F0A4F901BD80B5C9490160822149006F
:1001B0004160002181600021C160002101610021B6
:1001C0004161802189008161002101620021416239
:1001D0000721C1620021C1610021816201F052FA50
:1001E00001BD00B587B0802040000290002005903E
:1001F000AB4B00226946032001F078F9B54800684E
:1002000001210143B3480160B24800680100C907F9
:10021000C90F01910198002280214900A020C0054A
:1002200001F06FFB012003900020049002A9A020A0
:10023000C00501F071FA01216846007801F0C7F9A4
:10024000012038490870374800780128FBD0012286
:1002500080214900A020C00501F053FB5D216846C4
:10026000007801F0B4F901202E4908702D4800787B
:100270000128FBD06846007801F071F907B000BD95
:1002800010B52A4CA0612948C161AB480270AB4847
:1002900003700020AA49087072B62448007900282B
:1002A00008D101202149087100F021F862B600F060
:1002B000F9F803E001201E49087062B610BD80B550
:1002C0000120B5490860052001F0B2FB052001F0CE
:1002D000A0FB0121A020C00501F008FB012805D1E9
:1002E000AE48006801210143AC48016001BD80B502
:1002F000052001F093FB01BD80B500220221A02062
:10030000C00501F0FEFA01BD80B5A548006800688F
:1003100080680006F9D401220221A020C00501F066
:10032000F0FA01BD08090020C00800203C080020A8
:1003300060080020AC080020070900206C0700209E
:10034000C900000880B5FFF7DFFF002003E080212F
:1003500089050968401CC0B20D28F8DBFFF7CCFF07
:1003600001BD80B52020CE49086080208000CC49A6
:1003700008608B48007A002803D0022829D03BD39C
:100380008DE08848007900028649C978084385498C
:10039000097880B2002802D0C9B2022915D0012103
:1003A000A020C00501F0A2FA002808D1FFF7ACFF99
:1003B0000621012000F00AFDFFF78BFE08E0FFF7A1
:1003C000C1FF002000F07AF902E0022000F076F987
:1003D00065E0FFF799FF0621012000F0F7FCB14826
:1003E000B1490860B1480078B14908710220B049AC
:1003F000086001F035FD52E06A48807800026949E2
:10040000497808436749097880B2002802D0C9B208
:10041000022905D0FFF796FF012000F04FF93DE0DB
:100420004749097801291FD080B243490978434AD6
:100430001278891888420FDA3F490978401A9D4995
:1004400008703E4800789B490978401A3B4908707B
:1004500001203B49087003E038480078954908704E
:10046000002000F0A1F819E03449097880B289B27F
:10047000884209D28F490870304800788D49097840
:10048000401A2E49087006E02C4800788949087007
:1004900000202A490870012000F086F8FFE701BD1E
:1004A000C100000880B5FFF722FF83487E4908603D
:1004B000FFF722FF7D4800787D49087106207C49BE
:1004C000086001F0CDFC0621002000F07FFC01BD9A
:1004D000003001402C10024080B58020800070491F
:1004E00008602F48007D002802D001280BD022E0B0
:1004F00070480078002803D0012000F055F801E092
:1005000000F020F817E00E480078012810D10B48C1
:10051000007800280CD02248C06966490978401844
:100520001F49C861FFF70EFF012000F0C7F801E086
:1005300000F008F8FFE701BD5C0800205D0800201E
:100540005F08002080B50621002000F03FFC00205D
:1005500013490871FFF7D8FE11480068006C006865
:100560000068012188430E490968096C0968086020
:100570000B480068406C0068006801218843084906
:100580000968496C096808600548407C002801D169
:10059000FFF795FE01BD0000140401401004014066
:1005A0003C0800209808002010B50400BA480068F4
:1005B000006C0068006801218843B7490968096C2C
:1005C00009680860B4480068406C00680068012150
:1005D0008843B1490968496C09680860AE480068F9
:1005E000406C0068006802218843AB490968496C87
:1005F0000968086080208000294908600A2001F00D
:1006000017FAA5480068006C0068006802210143E1
:10061000A1480068006C006801609F480068006C99
:1006200000680068802101439B480068006C0068F6
:100630000160E4B2002C02D0012C12D023E0002093
:10064000954908759548007893490968096C0968C7
:1006500048609148806990490968096C0968C860D8
:1006600011E001208C490875124800788A49096810
:10067000096C096848608848C06987490968096C3D
:100680000968C860FFE784480068006C006800687B
:100690000121014380480068006C0068016010BDC2
:1006A0000400024031010008C008002007090020B2
:1006B000A00800205E0800204D01000880B57649A2
:1006C0000968096C0968096801229143724A126835
:1006D000126C1268116070490968496C09680968F0
:1006E000012291436C4A1268526C12681160002119
:1006F00004E0694A12681268127B491CC9B20429D5
:10070000F7DB65490968496C0968096802220A43F0
:1007100061490968496C09680A605F490968096CA0
:1007200009680968022291435B4A1268126C1268D8
:100730001160C0B2002803D002280BD005D342E0DC
:100740005749002000F058F83DE05649012000F0DC
:1007500053F838E0022050490872534800790002EB
:100760005149C97808434C49097C89B280B2814219
:1007700001D24948007C4849488147490968096CC9
:100780000968096880229143434A1268126C126812
:10079000116080B240490968496C0968486080B2BC
:1007A0003D490968096C096848603B48C0683A4996
:1007B0000968496C0968C8603C4837490968096C90
:1007C0000968C860FFE734480068406C006800684A
:1007D0000121014330480068406C006801602E48E8
:1007E0000068006C00680068012101432A48006825
:1007F000006C0068016001BD274A1072264800683D
:10080000006C006800688022024323480068006C86
:10081000006802600520204A1268126C126850605D
:1008200005201D4A1268526C126850601E481A4A10
:100830001268526C1268D06017480068006C00683B
:10084000C160704780B5144AD0601348017400201D
:1008500011494874FFF733FD01BD80B572B60E48EB
:10086000007900280DD101200B49087162B6FFF70D
:1008700043FD0020FFF722FF0021012000F0A6FA2F
:1008800000E062B601BD80B50948016808480079FA
:1008900000F09DFE01BD00003C0800205C08002027
:1008A000D8440008D0440008980800200A450008F1
:1008B000A008002080B59448007801280FD1934803
:1008C00001F0D5FA00280AD100208F490870694646
:1008D0008E4801F0FEFA8021009801F013FB01BD63
:1008E00001208B490870704710B5884801F0BCFAA8
:1008F000884801F0B9FA002408E08748E4B28C2166
:1009000061434118814801F0CCFA641CE4B2052C23
:10091000F3DB01207C49087010BD80B5FFF7CAFFEA
:1009200001BD7E490860704738B5002203000833D6
:100930007B4C23607B4B1B78002B06D100237A4C29
:10094000238002E00323774C2370774B1B88802B96
:100950006ADA754B1B881C00641C734D2C80704C2C
:1009600024689BB2E35C6F4C2478002C06D1DBB288
:10097000042BE7D000206B49087055E0694C2478BF
:10098000032C03D10623674C2370DEE7654C2478E3
:10099000042C03D10523634C2370D6E7614C2478E3
:1009A000052C03D107235F4C2370CEE75D4C2478E0
:1009B000072C03D108235B4C2370C6E7594C2478DD
:1009C000082C0CD156490A68521C9178D3781B0622
:1009D0001B0C194300220923524C2370B5E7514CDC
:1009E0002478062C06D1DBB21900002209234D4CD5
:1009F0002370AAE74B4B1B78092BA6D1521C92B24D
:100A000089B28A42A1D30021464A117000F00DF844
:100A100042480068002807D04348018889B240480E
:100A200000683E4A1268904731BD80B50200083226
:100A30001100491C1278042A05D10A780E2A02D026
:100A400009780F2904D10100304801F02AFA05E0A5
:100A50000100304801F025FA01F0C2F801BD80B56F
:100A6000002000902B4801F002FA10E06946294866
:100A700001F02FFA0098083001F0DCFB00992348C0
:100A800001F00FFAFFF716FF224801F0F0F9C0B2AB
:100A90000028EBD001BD80B501221B4B1A70C9B2F2
:100AA000002902D0FFF740FF03E00100174801F0E2
:100AB000ECF9FFF7FFFE01BD80B59BB292B201F0E9
:100AC0001BFA01BD38B514001D008905890D80028F
:100AD0000843694608806846847001206E490870A2
:100AE000032269466D4801F073FCE4B223009BB217
:100AF000042229006848FFF7DFFF31BD0120684963
:100B000008707047000000000109002088080020DC
:100B1000000900209008002010040020B8080020E0
:100B2000B008002002090020F0080020F8B50400F9
:100B300060888005800D2188890201436846018014
:100B4000584800680A2101F054FC0600002054496E
:100B50000870002001F0F8F85348FFF7E2FEA368A0
:100B6000E0680200D2B261882088FFF7ABFF0A2557
:100B700002E000204A4908702800451E002815D0D0
:100B8000002E00D10126002048490870484A4949F2
:100B9000300001F085FC01E001F0D2F84348007814
:100BA00000280CD04248007801F090FC0020FFF7AC
:100BB000B8FE012001F0C8F80020C0433FE03848EB
:100BC00000780028E8D03A48007801F07FFC3A48E5
:100BD000026810780428CCD1521C37480168C91C1F
:100BE00036480088C01E12780E2A29D00F2A04D059
:100BF000102A4BD03E2A39D049E00A009378D778A2
:100C00003F063F0C3B436F463F889BB2BB423ED101
:100C100063680F2B03D010780028C7D137E06269D2
:100C2000904200DB606960616269206901F0D0FB7D
:100C30000020FFF776FE012001F086F80020F2BDCB
:100C40004A788B781B061B0C1A436B461B8892B2A2
:100C50009A421CD1C91CC01E6269904200DB6069C7
:100C600060616269206901F0B3FBE1E70A786368BB
:100C70009A420CD1401E6269904200DB606960615B
:100C80006269491C206901F0A3FBD1E78EE70020CF
:100C90000349087070E70000B4080020B508002080
:100CA00003090020E0440008FD0A000800090020B4
:100CB000FF080020E1080008B0080020F00800202C
:100CC000F0B589B006000D0014001F0009220021B4
:100CD000684601F084FB1822002103A801F07FFB85
:100CE000042069468881012003A9488000200590DE
:100CF000002006906846079009200890002103A86C
:100D0000FFF714FF002802D50020C0431FE068460B
:100D10000078002802D00020C04318E068464078E0
:100D2000307068464088288068460079207069469F
:100D300048798A791206120C104338806946C879BE
:100D40000A7A1206120C10430E990880002009B08E
:100D5000F0BD30B58FB004000D002022002107A89F
:100D600001F03DFB68460477E4B2202C01DB1F2232
:100D700001E0E4B22200290007A8401C01F028FB92
:100D80001822002101A801F02AFB0820694688806A
:100D9000092001A9488007A80390202004906846F4
:100DA000059001200690002101A8FFF7BFFE002852
:100DB00002D50020C04307E068460078002802D032
:100DC0000020C04300E000200FB030BD10B5EFF3AD
:100DD000108272B6C9B2082907D1434909680123B4
:100DE00083400B434048036040E03F4B1B680124B5
:100DF0008440A3433C4C23604B0707D53B4B1B6807
:100E000001248440A343394C236006E0374B1B6820
:100E1000012484401C43354B1C608B0707D5344BA1
:100E20001B6801248440A343314C236006E0304B0F
:100E30001B68012484401C432D4B1C60C90707D547
:100E40002C4909680123834099432A4B196006E025
:100E500028490968012383400B4326490B60224936
:100E600009680123834099431F48016082F3108879
:100E700010BD10B5EFF3108472B61B48006800284F
:100E80002ED11A480068002804D00121002001F06A
:100E90002BFB25E01748006800280CD1C046C0464F
:100EA00015480068042101431348016001F054FB18
:100EB000C046C04614E010480068042101430E48B3
:100EC00001600B480068002804D00121002001F0D7
:100ED00024FB03E00121012001F01FFB01F036FC9F
:100EE00084F3108810BD0000DC080020D00800202A
:100EF000D4080020D80800200070004010B5C04A77
:100F0000C9B214234B43D218127CD2B2082A05D09E
:100F1000BB4BD2B2142454431B19D873B84BC0B284
:100F2000142444431B191A74B54AC0B21423434312
:100F3000D218D173B24AC9B2142359435118087454
:100F400010BD10B5AF4A1278C9B291421ED0AC4A5A
:100F5000C9B214234B43D218D27BA94BD2B214246A
:100F600054431B191874A64BC0B2142444431B19D4
:100F70001974A34BC0B2142444431B19DA73A04A5A
:100F8000C9B2142359435118C8730BE09C4AC0B22C
:100F900014234343D2181174994AC9B214235943F4
:100FA0005118C87310BD70B5040096480078082821
:100FB00011D1944800789449087092480470082030
:100FC0008F49E4B214225443091908748F48904998
:100FD0000880002552E000F0AFF805008848E4B230
:100FE0001421614340188068ADB240198449E4B2CD
:100FF00014226243891888608148E4B21421614355
:10100000401880687F4909787D4AC9B21423594342
:1010100051188968884225D37A490978784AC9B233
:1010200014234B43D218127C0BE0754AC9B2142327
:1010300059435118097C724AC9B214234B43D21840
:10104000127CD2B2082A07D06D4BD2B2142672435A
:101050009A1892689042E8D2C9B22000C0B2FFF755
:101060004DFF0BE0674801782000C0B2FFF769FF31
:10107000644800786449087062480470280080B2AF
:1010800070BD70B55F4A1278C0B290420CD15D4A13
:1010900012785D4B1A705A4AC0B214234343D218D7
:1010A000127C584B1A7026E0554AC0B214234343B1
:1010B000D218D27B524BC0B2142444431B191B7C60
:1010C0004F4CC0B2142545436419247C4C4DD2B218
:1010D00014267243AA181474DBB2082B0BD0484AAA
:1010E000C0B2142444431219D27B454CDBB2142500
:1010F0006B43E318DA730122414BC0B214246043FE
:10110000181802733F480078082805D1C9B2002991
:1011100002D13E48A949088070BD00B53B4803E0B4
:10112000A74800680068806AA54909680968896A53
:101130008842F5D180B200BD80B535480088694944
:10114000884217D0FFF7E9FF31490988814203D36C
:101150002F490988081A06E09A490988081A401C8C
:101160002B4909880818984909784843974909780C
:10117000C84000E0002080B202BD10B50400A4B257
:10118000002C07D1FFF7C9FF21490880022000F099
:101190004AFC34E0A4B2022C03DA8C48007801281F
:1011A00000D0641E864800680068C0684007F9D512
:1011B000834800680068C068802108408449014372
:1011C0007F4800680068C160802040038149086052
:1011D000022000F02DFCA4B2794800680068446148
:1011E000FFF79BFF754908807548006800688068B4
:1011F0008021C9000143724800680068816010BD09
:10120000CC060020090900200A090020FFFF000089
:10121000F208002038B56A48006800688068400518
:1012200005D5674800680068C0684007F9D464487D
:10123000006800688068684901406148006800688B
:10124000816029480478CD48E4B2142161434018F4
:101250008568FFF771FF80B2854204D20021012228
:10126000A04B1A7024E080B29F4909884118A94216
:1012700005D29D49098800229A4B1A7018E0291A54
:101280000122984B1A7013E0BC4AE4B21423634362
:10129000D218926880B2121AB84BE4B21425654392
:1012A0005B199A60B54AE4B214235C431219147CAA
:1012B000E4B2082C10D0B14AE4B214236343D2182C
:1012C000926880B28242DFD20022AC4BE4B2142595
:1012D00065435B199A60E5E7080080B2FFF74DFFB0
:1012E00031BD0000FFFF000009090020F8B5EFF351
:1012F000108572B63248006800688068364901403F
:101300002F480068006881602D4800680068C06848
:10131000802108402E490143294800680068C160C7
:10132000802040032B490860C8480478C848E4B2CC
:10133000142161434018007B02283BD1C448E4B229
:10134000142161434658C248E4B214216143401855
:10135000877B64480078002827D0BD48E4B2142178
:1013600061434018407B012811D101212000C0B207
:10137000FFF787FE85F31088B548E4B21421614376
:10138000401841682000C0B200F021F905E085F363
:1013900010882000C0B200F0F3F832002100C9B27A
:1013A0003800C0B200F0B6FC06E0FFF733FF85F36B
:1013B000108801E085F31088F1BD0000F2080020DC
:1013C000E0080020F40800200D0900200C0900208E
:1013D0007FFBFFFF14040140FFFBFFFF80B59D4929
:1013E000086004209B490968096889684907490F12
:1013F000401A994908709748006800680069000C15
:101400004006400E401C95490870924800680068EC
:1014100000694004400C9249088091480088401EB1
:101420008E49097848438C490978084113388D4919
:10143000884203D38B482C49088001E02A49088060
:10144000012028490870874887490880002007E064
:1014500000214A4AC0B214234343D2181173401CDE
:10146000C0B20828F4DB0820784908707948006881
:10147000006880687D4901407648006800688160A6
:10148000744800680068C0688021084078490143BA
:10149000704800680068C16080204003754908609A
:1014A000022000F0C5FA6B4800680068806880215F
:1014B000C901014367480068006881606E480068A0
:1014C0008021490301436C4801606C480068802119
:1014D000490301436948016000220321022000F012
:1014E00093FA01BD0B090020F6080020F0B5002595
:1014F000EFF3108472B600E06D1CEDB2082D07DA30
:10150000534EEDB214276F43F619367B002EF3D1FC
:10151000EDB2082D1ED00127BC464D4FEDB214266A
:101520006E43BE196746377384F31088484CEDB29A
:1015300014266E43A419A0734548EDB214246C43DD
:10154000001942734248EDB214226A4383500D7071
:10155000002002E084F310880120C0B2F0BD10B575
:1015600004002000C0B200F00BF800203849E4B2BB
:10157000142254430919087310BD0000CC06002042
:1015800038B50500EFF3108472B6022000F046FA79
:101590002F48EDB2142169434018007B022810D176
:1015A00000212800C0B2FFF76CFD284800783449BC
:1015B0000978C0B2814204D0C0B2082801D0FFF738
:1015C00029FE022000F025FA84F3108831BD70B5A1
:1015D00005000C00EFF3108672B6022000F01EFA30
:1015E00002201B49EDB214226A4389180873184877
:1015F000EDB214216943401884601548EDB21421FE
:101600006943401844602800C0B2FFF7CCFC0F4982
:1016100009781B4A1278C9B28A4202D0FFF7FAFD54
:101620000DE00B49EDB214226A438918896880B233
:10163000081A0749EDB2142255434919886002205F
:1016400000F0E7F986F3108870BD0000090900205A
:10165000CC060020E00800200C0900200D09002025
:10166000F4080020FFFF0000F2080020FFFBFFFF4E
:101670007FFBFFFF14040140080401400004014007
:101680000A09002010B50400002C01D101203FE020
:101690005120205C002805D10020502160542000FA
:1016A00001F056F802205121605420680068402162
:1016B0008843216808606068A1680143E0680843C6
:1016C0002169014360690843A169802292001140A9
:1016D0000143E0690843216A0143A06A0843216885
:1016E0000860A069000C04210840616A0143206879
:1016F0004160E06A216808612068C06905490140CD
:101700002068C161002060650120513420700020F4
:1017100010BD0000FFF7FFFFF0B50200002300241A
:10172000002533E006201E00B607B60F04277E43CF
:10173000B0402843050068489E0804277E43855131
:1017400066480568A5434868C00300D5254363483B
:10175000056063480568A5434868800300D52543B4
:101760005F4805605F480568A5434868C00200D52A
:1017700025435C4805605C480568A54348688002CD
:1017800001D52C432500584805605B1C0868D840EB
:10179000002800D19EE0086801249C400440002CF1
:1017A000F3D04868022802D0486812281AD1D80815
:1017B000042568431018056A0F201E007607760F6F
:1017C00004277E43B040854308691E007607760FE4
:1017D00004277E43B04028430500D8080426704300
:1017E000101805624868012808D04868022805D00A
:1017F0004868112802D0486812281AD19568032039
:101800001E0002277E43B0408543C8681E000227A1
:101810007E43B040284305009560556801209840FC
:1018200085432E0048680500ED06ED0F9D403543C9
:101830005560156803201E0002277E43B040854393
:1018400008798007800F1E0002277E43B04028439E
:1018500005001560D56803201E0002277E43B040B6
:1018600085432F008D681E0002204643B5403D434E
:10187000D5604868C00088D52E480068012505431A
:101880002C48056014489D080426754345590F20CF
:101890001E00B607B60F04277E43B0408543A02044
:1018A000C005824201D100203DE72348824201D198
:1018B000012038E72148824201D1022033E7204845
:1018C000824201D103202EE71E48824200D029E740
:1018D000052028E7F0BD0000080001400004014099
:1018E00004040140080401400C04014000B50069F3
:1018F00089B20840002801D0012000E00020C0B2D9
:1019000000BD00B5D2B2002A02D089B2816101E0E7
:1019100089B2816200BD80B50B49096880B201407F
:10192000002905D080B20849086080B200F0F4FABE
:1019300001BD0000341002400004005000080050B7
:10194000000C0050001C0050140401400121C0068E
:10195000C00E81403948016070470121C006C00EA9
:1019600081403748016070470121C006C00E8140A8
:101970003448016070470121C006C00E81403248E2
:1019800001607047F0B540B2002821D52F4B40B21E
:101990000207120F083A9208042462432B4C40B20B
:1019A00005072D0F083DAD08042675436459FF2532
:1019B0008607B60F08277E43B540AC438901C9B2FC
:1019C0008007800F082568438140214399501AE021
:1019D0001F4A40B2830804246343D258FF2384077C
:1019E000A40F08256C43A3409A438901C9B2830719
:1019F0009B0F0824634399401143154A40B2800865
:101A0000042358431150F0BD80B540B2FFF7BAFF30
:101A100001BD80B540B2FFF799FF01BD80B540B26E
:101A2000FFF79BFF01BD80B540B2FFF79DFF01BDF1
:101A300080B540B2FFF79FFF01BD000000E100E06C
:101A400080E100E000E200E080E200E01CED00E068
:101A500000E400E00020704780B500F0A1FF00F036
:101A6000BBFF00F08BFDBE480078002802D10020AB
:101A700001F01AF80121002001F067F800F078F970
:101A8000A148FFF7ABFC00230122B6490020FFF775
:101A90002DFD06210220FFF799F9FEF760FB00F00B
:101AA00003F800F0A7F8FCE700B58DB00BA8974944
:101AB0000CC90CC00839083809A895490CC90CC0D4
:101AC00008390838FEF710FFFEF78BFBFEF725FFFD
:101AD00006A904A801F09EF8FEF783FB6846007C87
:101AE000312802DB0120A04908709D4800780028B9
:101AF00005D106220BA907A800F06AFC04E0062223
:101B000009A907A800F064FC07AA0621002001F03B
:101B1000B3F801F01DF992480078012819D19248D4
:101B2000007801280CD104A8801C019005A8009021
:101B300005AB9B1C07220021012001F02FFB21E0B7
:101B400004AB9B1C05AA05A9891C012001F070FBB0
:101B500018E08548007801280CD104A8801C019069
:101B600005A8009005AB9B1C07220021042001F072
:101B700015FB07E004AB9B1C05AA05A9891C0320E3
:101B800001F056FB0120039078480290002001905C
:101B900010200090072300220021012001F018FCF2
:101BA0006F480078012801D100F0C8F90421012014
:101BB00001F0A3F80DB000BD72B694490968012286
:101BC00082400A439148026062B6704772B68F49FC
:101BD00009680122824091438C48016062B67047D7
:101BE00080B50020FFF7E8FF01BD80B50120FFF7B9
:101BF000E3FF01BD80B585480078800708D584489B
:101C00000078002804D10120FFF7E0FF00F020F861
:101C10007E480078C00708D57D480078002804D1A8
:101C20000020FFF7D3FFFEF71AFF72B6774800686F
:101C3000002809D07548006803218843002805D191
:101C400073480078012801D1FFF713F962B601BD8E
:101C500000B585B06F48007800280DD04148007865
:101C6000FFF78EFC00F0B7F900206A4908706A4956
:101C70003C480078FFF7ABFC39480078002829D1B0
:101C800066480068002806D065480078002802D120
:101C900000F0ECF909E061480068002805D06148CF
:101CA0000078002801D100F0FAF95C4800680028AB
:101CB00010D05B48007800280CD05A4800780028E3
:101CC00008D059480078002804D1002000F02EFFE9
:101CD00000F03AFA55480078012812D16846544974
:101CE000142201F013FC1421684600F011FA0020C0
:101CF0004E49087000204F49087006210220FFF766
:101D000065F805B000BD000064080020C04400086C
:101D1000C844000880B5C0B2002804D0022806D00C
:101D2000032806D007E00120FFF746FF07E09047B1
:101D300005E0904703E01000002800D0904701BD67
:101D400080B5FFF757FF01BD00B5C0B2002803D131
:101D500001202F49087002E000202D49087000BDC5
:101D600009000020060900200409002040E20100CB
:101D700080B531480068012101432F4801602F4898
:101D800000688021490501432C48016000F0A4FB54
:101D900000F0A2FB2A4800682A4901402848016057
:101DA00025480068284901408020800208432249D4
:101DB0000860214800688021C90201431E48016073
:101DC0002248234908600020224908700120224946
:101DD00008701F4801F0B4FB01201D4988601F48AE
:101DE0001B49C8601A4801F0CFFBCA20184909688E
:101DF000486253201649096848620321144801F0DB
:101E000041FC0D4800688007FBD501BDBC080020DF
:101E1000050900200800002005470000A808002050
:101E2000FB080020FC080020F8080020CC08002057
:101E300018440008FE0800205010024038100240EC
:101E400000100240FFFFCFFFFFFFFCFF0028004013
:101E5000640800208408002085080020FF7F00001F
:101E600080B5FEF710FD01BD00604060704700B511
:101E7000EFF3108172B60268824201D1012000E0C6
:101E8000002081F31088C0B200BDEFF3108272B65B
:101E900003680B60486001600868416082F3108845
:101EA0007047EFF3108272B6086043684B60416080
:101EB0004868016082F310887047EFF3108172B6B2
:101EC000026843681A6042680068426081F31088C3
:101ED000704738B50C00EFF3108572B601682160C9
:101EE0000068FFF7EAFF00202168086000202168F1
:101EF000486085F3108831BD80B5DBB2D2B2FEF701
:101F0000BFF901BD80B5034A1060C9B20830FEF7C1
:101F100099FC01BDAC08002080B580B2012802D137
:101F2000FEF79BFC08E080B280218901884203D142
:101F300008210220FEF74AFF01BD010000B593B061
:101F40000EA89D49102201F0E1FA0AA89B4910222F
:101F500001F0DCFA06A89A49102201F0D7FAAC4841
:101F60000090072301220EA9022000F00FFFC0B24B
:101F7000002802D0472013B000BD924805900120F0
:101F80000490102003900020029000200190102067
:101F9000009014230AAA02219D48008800F048FFFF
:101FA000C0B20028E6D1934805900120049010208B
:101FB000039001200290002001900C200090142337
:101FC00006AA02219248008800F032FFC0B2002821
:101FD000D0D10020CFE700B58DB08E480078002822
:101FE00022D107A88C490CC90CC008390838002038
:101FF00000F08DFD082006900820059096208000B6
:10200000049000200390C82040000290C8204000A7
:1020100001900020009007AB00228021C9018020A0
:10202000C00101F019FA1FE009A87C49102201F053
:102030006DFA00210020FEF78CFE002006900020A3
:102040000590002004900020039009A802900D2024
:10205000019000200090002300220021002001F0C8
:102060002DF9012000F08EF90DB000BD00B585B04E
:102070006B480078002810D101A86A49102201F0AD
:1020800045FA01A800900223674A012167480088A9
:1020900000F09EFF01206249087005B000BD00B548
:1020A00085B0B7480078002810D101A860491022F7
:1020B00001F02CFA01A8009002235B4A01215B4841
:1020C000008800F085FF0120AD49087005B000BD13
:1020D00010B50C0000F007F8002000E0401CE4B24E
:1020E000A042FBDB10BD80B5AB480078002807D1CB
:1020F00008210220FEF76AFE0120A749087006E0C9
:1021000006210220FEF762FE0020A349087001BDEF
:1021100080B5404A1278012A0AD100900B00DBB248
:102120000022284801883A48008800F0F6FE0AE0BC
:1021300003000A00D2B299480188491C89B23B4881
:10214000008800F0F5FF01BD80B5684694490A8813
:1021500002806B46022293480188891C89B2334869
:10216000008800F092FF01208F49087001BD80B502
:1021700080B2204B1B885B1C984204D1C9B210006E
:10218000FFF7A6FF0BE080B20E490988891C884240
:1021900005D11078012802D101208349087001BDC2
:1021A00000B50120814A106020480180052000E030
:1021B000401E0128FCDA00BD2C4400083C44000805
:1021C0004C440008EC0800200020784908600120F9
:1021D0007749087000207449087000201049087081
:1021E0000020674908700020724908700020724979
:1021F00008707047EE08002080B580B2694B1B88DC
:102200005B1C984203D1C9B21000FFF761FF01BD0A
:10221000EA08002009000020B84400085C440008D7
:10222000F90800206C440008FFFF0000E4080020CB
:102230007C44000838B505002C00641C012000F027
:10224000A1F82878042800D098E02078052804D048
:102250003E2805D0FF2813D090E0FFF7B5FF8DE0B2
:10226000A41C207801280AD1641C6178A07800069B
:10227000000C014389B2641D2000FFF791FF7DE04F
:10228000A41C207861780906090C084380B24B49E8
:10229000401A06D00E3822D0401E54D0801E2DD0B9
:1022A0006CE04748007801280CD1A41CA078E178A4
:1022B0000906090C08432200D21D217980B2FFF7DC
:1022C00056FF0BE0A41CA078E1780906090C08432E
:1022D0002200521D217980B2FFF749FF4EE0A41C75
:1022E000E07821790906090C08432200521DA178E3
:1022F000891EC9B280B2FFF77FFF3FE03148007806
:1023000000281FD1A41C3048007800280BD0294891
:102310000078002807D1E07821790906090C0843E4
:10232000204908800EE01648007800280AD022488C
:102330000078002806D1E07821790906090C0843C5
:10234000164908801AE01F480078002816D11E4858
:102350000078002807D017480078002803D1012012
:10236000144908700AE006480078002806D0124890
:102370000078002802D101200F49087031BD00000B
:10238000FA08002080B511490870C0B2012801D1B7
:10239000FFF72BFC01BD0000FE080020E80800202C
:1023A0003A1F0008E6080020F8080020A8080020CE
:1023B00008000020FB080020FC080020010C0000A1
:1023C0000409002009000020F9080020FD08002071
:1023D00010B50400200001F085F8200010BD10B5F4
:1023E000040010000A000100200001F055F920004F
:1023F00010BD0022030A8B420BD203098B4219D273
:1024000043088B422ED2411A00D201465241104657
:102410007047FF2209023FD012068B4205D31212E9
:1024200009028B4201D31212090203098B4219D30C
:1024300000E0090AC3098B4201D3CB01C01A524103
:1024400083098B4201D38B01C01A524143098B424D
:1024500001D34B01C01A524103098B4201D30B0136
:10246000C01A5241C3088B4201D3CB00C01A52415B
:1024700083088B4201D38B00C01A524143088B4220
:1024800001D34B00C01A5241884200D3401A524136
:10249000CFD201461046704708B501F025F908BDB6
:1024A00038B5040015000B00002229000220FFF7B8
:1024B0001DF8FA208000444320003721FFF799FFE0
:1024C00001002878FFF783F8002032BD80B5C0B244
:1024D000FFF745F8002002BD26480068802149002A
:1024E000014324480160704700B50022214A126868
:1024F00003239A43104302001E4802601E480068EE
:10250000042290431C4A1060C9B2012901D130BF96
:1025100002E040BF20BF20BF00BD00B50022154A29
:10252000126803239A4310430200124802601248C3
:1025300000680422024310480260C9B2012901D197
:1025400030BF02E040BF20BF20BF0B48006804211D
:1025500088430949086000BD06480068022101431C
:1025600004480160044800680421014302480160F6
:1025700030BF70470070004010ED00E000B587B03C
:1025800068480068082101436648016001F0B6F818
:1025900001F0ACF8644800688021090201436248F8
:1025A00001606248006801218843604908605F4813
:1025B0000068022188435D4908605C480068042186
:1025C00088435A4908605948006808218843574998
:1025D0000860564800688021884354490860544880
:1025E0000068012101435248016051480068010020
:1025F000C907C90F009100984D48006802210143A6
:102600004B4801604A480068022108400090009849
:102610004748006804210143454801604448006878
:1026200004210840009000984148006808210143B7
:102630003F4801603E48006808210840009000982B
:102640003B480068802101433948016038480068F0
:102650008021084000900098032002900020039001
:102660003448019001A93448FFF756F801A93348CE
:10267000FFF752F801A93248FFF74EF801A9314897
:10268000FFF74AF801A9A020C005FFF745F8284840
:102690000068012188432649086025480068022116
:1026A0008843234908602248006804218843204960
:1026B00008601F480068082188431D4908601C48BD
:1026C0000068802188431A49086007B000BD00B542
:1026D00097B0082009900020139001200E9009A8BF
:1026E00001F016F8002800D0FEE72020009080209E
:1026F00080020590684601F0B1FB002800D0FEE79B
:10270000114800688021C90201430F48016000227E
:1027100000210220FFF778F90220FFF77AF917B0BD
:1027200000BD0000002002400C1002403C1002409E
:102730002C100240FFFF0000000400500008005071
:10274000000C0050001C0050501002407047200048
:1027500010B586B0040020688749884200D008E19F
:10276000864800680221014384480160834800686C
:102770000221084000900098804800680121014330
:102780007E4801607D4800680100C907C90F0091BB
:1027900000987A4800680121014378480160774831
:1027A00000680100C907C90F0091009873480068CC
:1027B0000121014371480160704800680100C907A8
:1027C000C90F009100986D480068012101436B48D2
:1027D00001606A4800680100C907C90F00910098AC
:1027E000674800688021490101436548016008206D
:1027F000019002200290002003900320049000200A
:10280000059001A95F48FEF787FF40200190022054
:10281000029000200390032004900020059001A95D
:10282000A020C005FEF778FF8020019002200290D2
:1028300000200390032004900020059001A9A0200F
:10284000C005FEF769FF02200190012002900020E0
:102850000390032004900020059001A9A020C0054A
:10286000FEF75AFF01220221A020C005FFF749F818
:10287000012001904448029002200390032004901C
:102880000020059001A9A020C005FEF745FF3F48A4
:102890000068012101433D4801603C480068010097
:1028A000C907C90F009100980120394948601020DC
:1028B0003749886000203649C86080203449086163
:1028C00000203349486100203149886100203049A7
:1028D000C861802080012E4908622E482C4908607A
:1028E0002B4801F0C3FB20680C3029490968886037
:1028F0002748206426488462012027494860002038
:102900002549886000202449C86080202249086148
:1029100000202149486100201F49886100201E498C
:10292000C861802080011C4908621C481A4908605F
:10293000194801F09BFB20680C3017490968886032
:102940001548606414488462002201210A20FFF7C0
:102950005BF80A20FFF75DF8002201210A20FFF74B
:1029600053F80A20FFF755F8002202210520FFF74F
:102970004BF806B010BD00BF003001402C100240E3
:1029800034100240000400500000111030100240CA
:10299000C407002030000240000800201C00024054
:1029A00080B50B480068022188430949086003206C
:1029B000FFF750F800F002F8002002BD704705480C
:1029C0000068401C0349086070470248006870476F
:1029D00000200240C408002000B593B010480068F1
:1029E0008021490501430E48016002200590102016
:1029F00009900120089001200F9005A800F088FEA2
:102A00000F200090012001900020029000200390F0
:102A1000002004900021684601F044F913B000BD85
:102A200038100240F0B540B2002821D56F4B40B2BB
:102A30000207120F083A9208042462436B4C40B21A
:102A400005072D0F083DAD08042675436459FF2581
:102A50008607B60F08277E43B540AC438901C9B24B
:102A60008007800F082568438140214399501AE070
:102A70005F4A40B2830804246343D258FF2384078B
:102A8000A40F08256C43A3409A438901C9B2830768
:102A90009B0F0824634399401143554A40B2800874
:102AA000042358431150F0BD10B586B004005148BE
:102AB0000068012101434F4801604E480068010051
:102AC000C907C90F009100984B48E4B20221614345
:102AD000405A0190012002900020039003200490AE
:102AE00001A94648E4B2042262438058FEF714FE6E
:102AF00000224148E4B202216143415A3F48E4B216
:102B000004235C430059FEF7FCFE06B010BD10B56F
:102B100001223949C0B202234343C95A374BC0B2DC
:102B2000042460431858FEF7ECFE10BD10B50022D7
:102B30003149C0B202234343C95A304BC0B20424C6
:102B400060431858FEF7DDFE10BD30B587B00400B5
:102B50000D002848006804210143264801602548EB
:102B60000068042108400090009825480068012171
:102B7000014323480160EDB2002D13D12148E4B296
:102B800002216143405A01900020029002200390EC
:102B90000320049001A91C48E4B204226243805837
:102BA000FEF7BAFDEDB2012D1ED11648E4B20221A6
:102BB0006143405A0190002003901448029001A9FB
:102BC0001148E4B2042262438058FEF7A5FD0321B8
:102BD0000F48E4B2005D40B2FFF724FF0C48E4B2B6
:102BE000005D40B2FEF715FF07B030BD1CED00E000
:102BF00000E400E02C1002404E27000800000020F6
:102C00003410024096360008040000200000111025
:102C10000B45000870B584B005000C0001A80090B9
:102C200002AB9B1C02AA01A9891C02A8401CFEF74A
:102C300047F80600F6B2002E18D16846C08880B268
:102C4000000A28706846C0880002208020886946F3
:102C50008988C9B20909C9B20901014321802088C4
:102C6000694689880907090F01432180FDF7F7FEAE
:102C70003000C0B204B070BD30B5A7B00D00110077
:102C80000024EDB22A00921C812A01DB422032E0AE
:102C900007AAE4B21055641C07A8E4B20555641CE9
:102CA000EDB22A0007A8E4B20019FFF791FB6419FE
:102CB0001822002101A8FFF792FB3F206946888077
:102CC0000C2001A9488007A80390E4B20494684648
:102CD000059001200690002101A8FDF727FF00289C
:102CE00001D5FF2007E068460078002802D068463A
:102CF000007800E0002027B030BD00B589B06A46FA
:102D0000107101A841701822002102A8FFF767FB8B
:102D10003F20694608810F2002A9488001A804903D
:102D2000022005906846069001200790002102A825
:102D3000FDF7FCFE002801D5FF2007E0684600787B
:102D4000002802D06846007800E0002009B000BDED
:102D500000B587B01822002101A8FFF740FB3F20F3
:102D600069468880FF20801C01A94880684605903C
:102D700001200690002101A8FDF7D8FE002801D50A
:102D8000FF2001E06846007807B000BDF0B58DB0C7
:102D900016001F00002407AAE4B21055641CC0B23C
:102DA000012801D1022500E01025EDB22A0007A874
:102DB000E4B20019FFF70CFB641907A8E4B206554A
:102DC000641C07A8E4B20755641C0322002168466E
:102DD000FFF705FB1822002101A8FFF700FB3F20A9
:102DE000694688808120400001A9488007A8039097
:102DF000E4B204946846059003200690002101A8DF
:102E0000FDF794FE002801D5FF200FE0684600780A
:102E1000002802D06846007808E0694648788A7839
:102E20001206120C10431299088000200DB0F0BD5C
:102E3000F1B58EB00D0017001E0000246846008F0B
:102E40006946088702220EA901A8E4B20019FFF71B
:102E5000BFFAA41C01A8E4B20555641CEDB2012D13
:102E600001D1022500E01025EDB22A00390001A8A9
:102E7000E4B20019FFF7ACFA641901A8E4B20655F0
:102E8000641C149801A9E4B20855641C159801A9A2
:102E9000E4B20855641C169801A9E4B20855641CF4
:102EA000179801A9E4B20855641C189801A9E4B266
:102EB0000855641C032200216846FFF790FA182287
:102EC000002108A8FFF78BFA3F206946088482207A
:102ED000400008A9488001A80A90E4B20B94684613
:102EE0000C9003200D90002108A8FDF71FFE00287C
:102EF00001D5FF200FE068460078002802D0684620
:102F0000007808E0694648788A781206120C104367
:102F10001999088000200FB0F0BD73B5A8B0150056
:102F20001E000024F6B23000801D812801DB422003
:102F30004CE028A8008828A90880022228A907A810
:102F4000E4B20019FFF744FAA41C29A8008829A9B3
:102F50000880022229A907A8E4B20019FFF738FA6D
:102F6000A41C07A8E4B20555641C07A8E4B20655E2
:102F7000641CF6B232002E9907A8E4B20019FFF7DC
:102F800027FAA4191822002101A8FFF728FA3F20E8
:102F9000694688808320400001A9488007A80390E3
:102FA000E4B204946846059001200690002101A82F
:102FB000FDF7BCFD002801D5FF2007E0684600783A
:102FC000002802D06846007800E000202AB070BDDA
:102FD00037B58EB01D0000246846008F694608870B
:102FE00002220EA907A8E4B20019FFF7F1F9A41C08
:102FF0006846808F6946888702220FA907A8E4B235
:103000000019FFF7E5F9A41C10A8008810A9088092
:10301000022210A907A8E4B20019FFF7D9F9A41CED
:1030200007A8E4B20555641CEDB2012D01D10225BB
:1030300000E01025EDB22A00149907A8E4B20019A7
:10304000FFF7C6F964191822002101A8FFF7C7F994
:103050003F20694688808B20400001A9488007A84E
:103060000390E4B204940F2002906846059001207A
:103070000690002101A8FDF759FD002801D5FF2089
:1030800001E06846007811B030BD73B5A8B01500F6
:103090001E000024EDB22800401D812801DB4220E3
:1030A00044E028A8008828A90880022228A907A8A7
:1030B000E4B20019FFF78CF9A41C29A8008829A9FB
:1030C0000880022229A907A8E4B20019FFF780F9B5
:1030D000A41C07A8E4B20555641CEDB22A00310017
:1030E00007A8E4B20019FFF773F964191822002148
:1030F00001A8FFF774F93F2069468880FF2022303D
:1031000001A9488007A80390E4B204940F2002901C
:103110006846059001200690002101A8FDF706FDF4
:10312000002801D5FF2001E0684600782AB070BD74
:1031300010B58EB01400E4B2152C01D342202BE060
:103140006A46908307A8418007A80471E4B2220070
:10315000190007A8401DFFF73BF91822002101A81C
:10316000FFF73DF93F2069468880FF20243001A900
:10317000488007A80390E4B2641D04946846059053
:1031800001200690002101A8FDF7D0FC002801D500
:10319000FF2001E0684600780EB010BD10B58AB07F
:1031A0001C006B46187068464170684682700722A2
:1031B000002101A8FFF713F91822002103A8FFF747
:1031C0000EF93F20694688818A2003A94880684615
:1031D00005900320069001A8079007200890002181
:1031E00003A8FDF7A3FC002801D5FF201EE06846D8
:1031F0000079002802D06846007917E001A94878D4
:103200008A781206120C1043208001A9C8780A7926
:103210001206120C10430C99088001A948798A798A
:103220001206120C10430D99088000200AB010BD40
:1032300070B58AB00D0014001E006946087207229E
:1032400000216846FFF7CBF81822002103A8FFF7FA
:10325000C6F83F20694688818A2003A9488002A8D1
:1032600005900120069068460790072008900021ED
:1032700003A8FDF75BFC002801D5FF201CE0684691
:103280000078002802D06846007815E06946487842
:103290008A781206120C104328806946C8780A7989
:1032A0001206120C10432080694648798A7912066A
:1032B000120C1043308000200AB070BDF6B591B0FA
:1032C0001F000024199E1B9DF6B2EDB271190E313C
:1032D000292901D3422079E007A9E4B20855641CEA
:1032E00011A8008811A90880022211A907A8E4B238
:1032F0000019FFF76DF8A41C12A8008812A9088015
:10330000022212A907A8E4B20019FFF761F8A41C71
:1033100007A8E4B20755641C189807A9E4B2085539
:10332000641C07A8E4B20655641CF6B232001A9970
:1033300007A8E4B20019FFF74BF8A41907A8E4B2F4
:103340000555641CEDB22A001C9907A8E4B20019C7
:10335000FFF73EF864191DA800881DA90880022205
:103360001DA907A8E4B20019FFF732F8A41C1EA893
:1033700000881EA9088002221EA907A8E4B200192D
:10338000FFF726F8A41C1822002101A8FFF727F850
:103390003F2069468880832001A9488007A80390C0
:1033A000E4B204946846059001200690002101A82B
:1033B000FDF7BCFB002801D5FF2007E06846007838
:1033C000002802D06846007800E0002013B0F0BD6D
:1033D00030B58FB00D0011001C006A46107707A8A9
:1033E0004570102207A8801CFEF7F2FF07A884741E
:1033F000129807A9C874139807A9087507A9153169
:10340000149800F0F7FE15A8007807A9487618224E
:10341000002101A8FEF7E3FF3F206946888086204F
:1034200001A9488007A803901A20049068460590D7
:1034300001200690002101A8FDF778FB002801D5A6
:10344000FF2007E068460078002802D06846007830
:1034500000E000200FB030BD10B58EB06C46A080EB
:1034600001A8418001A802710622190001A8401D8F
:10347000FEF7AEFF109801A9C872119801A98881C2
:1034800012A8008801A9C881139801A9088214987C
:1034900001A9488215A8008801A98882169801A967
:1034A000C8821822002107A8FEF799FF3F2069462D
:1034B00088839C2007A9488001A8099018200A90B9
:1034C0000F20089068460B9001200C90002107A85F
:1034D000FDF72CFB002801D5FF2001E068460078AD
:1034E0000EB010BD124207D08B0706D00B78491CD6
:1034F0000370401C521EF7D87047830706D00B7824
:10350000491C0370401C521EF9D1704770B4103A28
:1035100003D378C9103A78C0FBD2530701D318C936
:1035200018C001D508C908C0D20704D30B8803808E
:10353000891C801C002A01D50B78037070BC704771
:1035400000B52021415C012901D102201BE00121AD
:1035500020228154022121228154CA210268516211
:103560005321026851620168896820220A43016878
:103570008A60FF21026851620121212281540021C9
:1035800020300170002000BD10B50400002C01D1D6
:10359000012054E02120205C002805D100202021BA
:1035A00060542000FFF793F8022021216054CA20C4
:1035B00021684862532021684862200000F042F8E8
:1035C000002807D0FF2021684862042021342070A1
:1035D000012034E02068806819490140206881603A
:1035E00020688068616822690A43A1691143014328
:1035F00020688160E0682168086120680069A1682E
:1036000009040143206801612068C0688021884363
:103610002168C8602068C06C032188432168C864A1
:103620002068C06CE16962690A4302432068C26491
:10363000FF2021684862012021342070002010BD45
:10364000BFFF8FFF38B5040000252068C068400622
:1036500012D40020C0432168C860FFF7B6F9050006
:103660002068C068400607D4FFF7AFF9401B044943
:103670008842F5D3032000E0002032BD00000000A6
:10368000E90300000268926807239A4311430A0085
:1036900000688260704700201206130A1A43130C58
:1036A0001A4300BF094205D0830705D00270401CB1
:1036B000491EF9D170470000130030B41400150002
:1036C000103902D310393CC0FCD2490700D30CC0DA
:1036D00000D504C0890002D30280801C002900D5D7
:1036E000027030BC704700007047FEE70748006872
:1036F0008021C90001430548016070470348006804
:10370000802189000143014801607047007000403A
:10371000F8B5040000262078C00771D5A6480068D7
:103720000C210140082909D0A34800680C21014060
:103730000C290CD1A0480068C00308D59F48006838
:1037400080035DD5606800285AD1012094E260684A
:1037500080214902884207D19848006880214902A7
:103760000143964801602CE06068A021C9028842AC
:1037700014D192480068BC490140904801608F48CC
:1037800000688021C90201438C4801608B480068B1
:103790008021490201438948016012E0874800689E
:1037A000B149014085480160844800688021490290
:1037B00008400090009881480068AC4901407F486B
:1037C0000160606800280DD0FFF7FFF806007B4815
:1037D0000068800314D4FFF7F8F8801B6528F6D33F
:1037E000032049E2FFF7F1F80600744800688003FF
:1037F00006D5FFF7EAF8801B6528F6D303203BE2E5
:103800002078800721D56C4800680C2101400429EC
:1038100009D0694800680C2101400C2927D166486D
:103820000068C00323D465480068400704D5E068F9
:10383000012801D001201FE2BF480068BF490140B4
:10384000206900020843BC4908602078C0065BD5A7
:10385000594800680C21014000296FD15748006881
:1038600080053DD5E06900283AD1012004E2E068F6
:1038700000281FD05148006809218843E1680143AE
:103880004E480160FFF7A1F806004C480068400769
:1038900006D4FFF79AF8801B0328F6D30320EBE148
:1038A000A5480068A5490140206900020843A249D3
:1038B0000860CAE74148006809218843E16801437C
:1038C0003E480160FFF781F806003C480068400769
:1038D000BBD5FFF77AF8801B0328F6D30320CBE192
:1038E00095480068AD490140606A08439249086004
:1038F000914800680002000A216A090601438E48C7
:1039000001600320FEF7A6F8207800076CD56069F7
:10391000002855D0A248006801210143A048016059
:10392000FFF753F806009E48006880075CD4FFF755
:103930004CF8801B0328F6D303209DE1E0690028A2
:1039400026D01E4800688021490001431B480160C1
:10395000FFF73BF8060019480068800506D4FFF71A
:1039600034F8801B0328F6D3032085E172480068F1
:103970008A490140606A08436F4908606E480068E0
:103980000002000A216A090601436B480160BBE797
:103990000A480068B949014008480160FFF715F876
:1039A0000600064800688005AED5FFF70EF8801BBC
:1039B0000328F6D303205FE10C1002400010024000
:1039C000774800680121884375490860FEF7FDFFCC
:1039D000060073480068800706D5FEF7F6FF801BD7
:1039E0000328F6D3032047E12078800640D5A0695C
:1039F00000281FD0A248006801210143A0480160AF
:103A0000A0480068012101439E4801609E4800686B
:103A10009E4901439C480160FEF7D7FF0600984885
:103A20000068800724D4FEF7D0FF801B0328F6D35C
:103A3000032021E1924800680121884390490860F1
:103A400091480068924901408F480160FEF7BDFF30
:103A500006008B48006880070AD5FEF7B6FF801B7A
:103A60000328F6D3032007E1FFFFFEFFFFFFFBFF64
:103A70002078400700D4A7E000270025854800688B
:103A8000C00007D48348006880214905014381486C
:103A90000160012780480068C00515D47E48006891
:103AA0008021490001437C4801600125FEF78DFF1C
:103AB000060079480068C00506D4FEF786FF801B23
:103AC0006528F6D30320D7E0A0688021490088420A
:103AD00007D1334800688021490001433048016024
:103AE0003AE0A06800280CD12D48006863490140E5
:103AF0002B4801602A480068684901402848016055
:103B00002AE0A068A021C900884219D12448006891
:103B10005A49014022480160214800688021C900BB
:103B200001431F4801601E4800688021490001438D
:103B30001B48016010E000BF04100240FFE0FFFFDF
:103B4000174800684D490140154801601448006855
:103B50005249014012480160A06800280ED0FEF7CB
:103B600034FF06000E48006880051BD4FEF72DFFC9
:103B7000801B4B498842F5D303207DE0FEF725FFEB
:103B800006000748006880050CD5FEF71EFF801B65
:103B900043498842F5D303206EE000BFFF1FFFFFBB
:103BA00050100240EDB2012D05D13B480068334969
:103BB000014039480160FFB2012F05D13548006846
:103BC0009D49014033480160A06A002853D09B48BA
:103BD00000680C2101400C294BD0A06A022834D186
:103BE000984800689649014096480160FEF7EDFE4E
:103BF000060094480068800106D5FEF7E6FE801BAB
:103C00000328F6D3032037E08C4800688E49014032
:103C1000206B0843616B0143E06A084387490860F1
:103C20008848006880214904014386480160FEF706
:103C3000CCFE06008348006880011CD4FEF7C5FE58
:103C4000801B0328F6D3032016E07E4800687C49D9
:103C500001407C480160FEF7B8FE06007948006824
:103C6000800108D5FEF7B1FE801B0328F6D30320A0
:103C700002E0012000E00020F2BD0000FFFEFFFF97
:103C800008100240341002402000014001200000D2
:103C9000FEDFFFFF3810024000700040FFFBFFFF17
:103CA0008913000070B505000C0000266748006805
:103CB0000100C907C90FA1420FD264480068012161
:103CC0008843204361490860604800680100C907D3
:103CD000C90FA14201D00120ACE02878800707D5A8
:103CE00056480068F0218843A968014353480160A1
:103CF0002878C0076CD56868022805D1514800684B
:103D0000800319D4012095E06868002805D14D484A
:103D10000068800510D401208CE06868032805D174
:103D200048480068800107D4012083E045480068C6
:103D3000400701D401207DE040480068032188430A
:103D4000696801433D480160FEF73FFE0600686870
:103D500002280DD1394800680C210140082937D0CC
:103D6000FEF733FE801B3A498842F3D3032061E01B
:103D7000686803280DD1314800680C2101400C29E6
:103D800026D0FEF722FE801B31498842F3D3032060
:103D900050E0686800280DD1284800680C210140D7
:103DA000002915D0FEF711FE801B29498842F3D364
:103DB00003203FE0214800680C210140042907D07E
:103DC000FEF703FE801B22498842F3D3032031E033
:103DD0001E4800680100C907C90FA1420FD31B4844
:103DE000006801218843204318490860174800688B
:103DF0000100C907C90FA14201D001201AE02878AB
:103E0000400707D50D48006812490140E86808439B
:103E10000A4908602878000708D5084800680E4954
:103E200001402869C0000843044908600320FDF7E9
:103E300011FE002070BD0000FFFFFFEF0C100240DC
:103E4000FFFFFFFE00100240FFFF02FF00200240C4
:103E500089130000FFF8FFFFFFC7FFFF38B504001C
:103E6000002500202068822109010140002900D19D
:103E70009EE071480068C021890301406069C0224A
:103E80009203024091420AD16B480068C021890325
:103E90000140A069C0229203024091420DD06069A6
:103EA000C02189020140C0208002814205D16248C0
:103EB0000068800301D50120BDE0604800688021D2
:103EC000490501435D4801605D4800688021490063
:103ED00001435B480160FEF778FD05005848006823
:103EE000C00506D4FEF771FD401B6528F6D30320FC
:103EF000A1E054480068C021890201406069C022E5
:103F00009202024091420AD14E480068C0218902C3
:103F10000140A069C02292020240914248D0494823
:103F200001684948084047490968802212030A434A
:103F300044490A6043490968444A0A4041490A60C1
:103F40004049086080050ED5FEF73FFD05003D485D
:103F50000068800507D4FEF738FD401B3C498842C5
:103F6000F5D3032067E06069C02189020140C020C9
:103F7000800281420BD130480068364901406269B5
:103F8000C0208003104008432B49086005E02A4800
:103F9000016830480840284908602A4800682A49D2
:103FA00001406069C022920202400A432548026033
:103FB0002078C00707D52848006803218843616836
:103FC0000143254801602078800707D52248006812
:103FD0000C218843A16801431F48016020784007F5
:103FE00007D51D4800681D490140E06808431A498B
:103FF00008602078000707D5174800681849014075
:1040000020690843144908602078400607D5124803
:10401000006814490140E06908430F4908602078AE
:10402000000607D50C4800680F490140206A084384
:1040300009490860002032BD0010024038100240DB
:104040000070004050100240FFFFFCFFFFFFF7FF31
:1040500089130000FFFFCFFF4C100240FFF3FFFF6A
:10406000FFCFFFFFFFFFFFFBFFFFF3FF00B50022C5
:10407000002801D101209FE02521415C002902D1C7
:1040800000212422815402212522815401680A68DA
:1040900011004A4A0A4011008268C368134302694A
:1040A0001A434369134382691A43C3691343026A7B
:1040B0001A430A4301680A600168414A91420CD1DF
:1040C000404909680F2291433E4A11603D49096801
:1040D00042680A433B490A606AE001683A4A9142F1
:1040E0000DD138490968F0229143364A11603549AB
:1040F0000968426812010A4332490A6058E00168BF
:10410000324A91420DD12F490968314A0A402D495E
:104110000A602C490968426812020A4329490A6068
:1041200046E001682B4A91420DD1264909682A4A86
:104130000A4024490A6023490968426812030A4375
:1041400020490A6034E00168244A91420DD11D499A
:104150000968234A0A401B490A601A4909684268EB
:1041600012040A4317490A6022E001681D4A91427D
:104170000DD1144909681C4A0A4012490A601149C4
:104180000968426812050A430E490A6010E0016896
:10419000164A91420CD10B490968154A0A4009494F
:1041A0000A6008490968426812060A4305490A601C
:1041B000012125300170002000BD00000FC0FFFF6D
:1041C00008000240A80002401C00024030000240EB
:1041D000FFF0FFFF44000240FF0FFFFF58000240C6
:1041E000FFFFF0FF6C000240FFFF0FFF8000024066
:1041F000FFFFFFF084460870000A4870000A8870CC
:10420000000AC87060467047704700B5FEE7704707
:10421000704780B5FEF7D3FB1B480068401C1A4965
:10422000086001BD80B5FDF761F801BD80B50120D2
:10423000FDF771FB01BD80B5012014490860012024
:10424000FEF7A0F880208001FDF765FB01BD80B579
:104250000F48406C00680068800706D50D4800686C
:10426000800602D5FCF77DF80BE00948006C006879
:104270000068800705D507480068800501D5FCF770
:104280002BF901BD00000000C8080020CC08002068
:104290006C07002000000240164800688021490099
:1042A0000143144801601448006814490140124851
:1042B000016010480068124901400E480160114831
:1042C0000068012188430F4908600A4800680E49C8
:1042D000014008480160084800680C490140064850
:1042E000016000200A490860802000050949086033
:1042F00070470000001002400C1002400C40FF8884
:10430000F6FFF6FE08100240FFFFFBFFFFFF02FF73
:104310001010024008ED00E070B40121002313E00A
:104320000468001D0C4202D04D466D1E64192360C6
:10433000241D121F042AFAD22500960701D52380D6
:10434000AD1C0A4000D02B700268001D002AE7D186
:1043500070BC704730B401210268001D002A0FD0E4
:104360000368C318446808300C4202D04D466D1EE5
:1043700064191D6825601B1D241D121FECD0F8E771
:1043800030BC704710B5074979441831064C7C445D
:10439000163404E0081D0A68891888470100A14204
:1043A000F8D110BD08000000280000006DFFFFFFDD
:1043B00000050000100400200000000099FFFFFF2E
:1043C0000C000000E40000000000002000000000DD
:1043D00000F00BF8002801D0FFF7D4FF0020C04602
:1043E000C046FDF739FB00F002F80120704780B5A8
:1043F00000F002F801BDFEE70746384600F002F87B
:10440000FBE7FEE780B5C046C046024A110018200F
:10441000ABBEFBE72600020030313233343536378D
:1044200038394142434445464748494A669A0C2038
:104430000008969EE2119EB1E0F273D9669A0C20B4
:104440000008969EE2119EB1E1F273D9669A0C20A3
:104450000008969EE2119EB1E2F273D909426C7592
:10446000654E52475F43686174000000669A0C20F5
:104470000008969EE2119EB1E1F273D9669A0C2073
:104480000008969EE2119EB1E2F273D9014880477E
:1044900001480047994200089D440008C046C046B4
:1044A000C046C046FFF794FF0000005000080050CF
:1044B00001010000FEE70000AA0000E18002000008
:1044C000BB0000E180020000AA0000E180020000C1
:1044D0000A000000000000000B00000000000000C7
:1044E000E8030000FEE7FEE7FEE7FEE7FEE7FEE783
:1044F000FEE7FEE7FEE7FEE7FEE7FEE7FEE7FEE794
:0C450000FEE7FEE7FEE7FEE7FEE7FF0730
:00000001FF
