:020000040800F2
:1000000090040020B1680008CD670008CF670008A1
:10001000D9680008DD680008E168000800000000F9
:10002000000000000000000000000000D167000890
:10003000D367000800000000D5670008D7670008F4
:10004000E5680008E9680008ED680008ED67000849
:10005000F1680008F5680008F1670008F968000811
:10006000FD680008016900080569000809690008C1
:100070000D69000811690008156900081969000870
:100080001D69000821690008256900082969000820
:100090002D690008316900083569000839690008D0
:1000A0003D69000841690008456900084969000880
:1000B0004D69000851690008556900085969000830
:1000C0005D690008616900086569000869690008E0
:1000D0006D69000871690008756900087969000890
:1000E000F76700087D6900088169000885690008D4
:1000F000896900088D690008916900089569000800
:10010000996900089D690008A1690008A5690008AF
:10011000A9690008AD690008B1690008B56900085F
:10012000B9690008BD690008C1690008C56900080F
:10013000C9690008CD690008D1690008D5690008BF
:10014000D9690008DD690008E1690008E56900086F
:10015000E9690008ED690008F1690008F56900081F
:10016000F9690008FD690008016A0008056A0008CD
:10017000096A00080D6A0008116A00080000000002
:10018000156A0008196A0008DFF80C08016811B93F
:100190000FF275210160416811B90FF2C52141606C
:1001A000C16811B90FF21931C160816811B90FF23C
:1001B000F931816000218182817570472DE9F04F0E
:1001C000DFF8D8670FF6680B0FF60C080FF630094A
:1001D00083B082460D4630680FF2D471524601F06A
:1001E00091F80024002701E0E4B27F1CFFB25745DC
:1001F00048D2605D012826D16019411D022201A864
:1002000001F06AF9BDF80410306841F60A02891A53
:1002100010D0C91E12D118208DF8020011220D2015
:100220008DF8030002210DF1020001F0FBF83068A7
:10023000414600E0494601F065F804E0BDF80420BD
:10024000594601F05FF8641C00F01EF8BDF800206C
:1002500030680FF2F47101F055F8A41C00F014F8A6
:10026000BDF8002030680FF6040101F04BF8A01C27
:10027000C0B2411911F8051C01290CBF841C00F102
:100280001004B1E7BDE8F78FE4B2022261196846B5
:1002900001F022B92DE9F04FDFF8006783B0814605
:1002A0000D4630680FF2E8714A4601F02BF800273E
:1002B000B8462AE00FF6041101F024F80222611C6E
:1002C0000DF1020001F008F994F803B00222211D9B
:1002D00001A801F001F9BDF8022030680FF6001105
:1002E00001F010F830680FF624115A4601F00AF8B0
:1002F000BDF8042030680FF6341101F003F800F067
:100300007CF85744FFB208F101085FFA88F8C84545
:1003100027D2785D7C19012807D10222A11D6846E9
:1003200001F0DAF84FF0080A01E04FF0160ABDF8C4
:100330000010306842F62922891A0FD00E3904D0F5
:10034000491E05D0491E06D0B4E70FF27071B3E71D
:100350000FF2A071B0E70FF2E071ADE70FF61401F4
:10036000AAE7BDE8F78F2DE9F84FDFF83066804641
:100370000D4630680FF6F4010FF65C1A424600F0A5
:10038000C1FF0024A1460EE000F0BCFFBDF8022032
:1003900030680FF6B41100F0B5FF00F02EF85C44A1
:1003A000E4B209F101095FFA89F9C14523D2605D20
:1003B0006719012807D10222F91C684601F08CF860
:1003C0004FF0050B01E04FF0130B0222791C0DF1E9
:1003D000020001F081F8BDF80010306842F6021208
:1003E000891A06D0891E0CBF0FF6AC010FF62C112E
:1003F000CAE75146C8E7BDE8F18FBDF80020306874
:100400000FF64C0100F07EBF00B50FF6741189B0F5
:100410000CC906A80FF670110CC00CC904A80CC0BA
:10042000009004208DF80C0005208DF8040004A82D
:10043000029068460FC801F09DF8DFF860150B6860
:1004400028B90FF64C11184600F05CFF05E0024693
:100450000FF65411184600F055FF09B000BD00001A
:1004600000B58BB004208DF80C0003A901208DF895
:100470000D001C2200208DF80E0001208DF81F00B9
:1004800000208DF82000DFF81805099084B0684638
:1004900001F07AFA0FBC01F0B9F8DFF800150B682B
:1004A00028B90BB05DF804EB0FF6141166E00BB041
:1004B00002465DF804EB0FF62011184600F022BF4B
:1004C0001CB500208DF800003020ADF80200ADF81A
:1004D0000400DDE9000101F07EF800F04AF804D1E3
:1004E0000FF6141100F00EFF04E022460FF618116B
:1004F00000F008FF204616BD10B58EB047F230510F
:10050000059109903021ADF81810ADF81A10282087
:100510004FF48051ADF82A00ADF81C10382012219C
:10052000ADF82C00ADF81E1014200021ADF83000FD
:100530008DF820108DF82810ADF82E1000F06BF813
:1005400005A984B06846242201F01EFA0FBC01F010
:1005500088F800F00EF804D10FF6D00100F0D2FEBA
:1005600004E022460FF6E80100F0CCFE20460EB073
:1005700010BD0400DFF8240400687047184600F03E
:10058000C1BE10B501F0C4F8FFF7F3FF04D10FF6B8
:10059000E40100F0B7FE04E022460FF6FC0100F093
:1005A000B1FE204610BD000010B582B001F0A1F8E8
:1005B0008DF80000DFF8E44358B900F011F8206826
:1005C0000FF6FC0100F09EFEDFF8CC130120087549
:1005D00013BD024620680FF6041100F093FE13BD10
:1005E0000B220121684600F01DBF38B5044601F01A
:1005F0009DF80500DFF8A403006804D10FF604118C
:1006000000F080FE05E023462A460FF6201100F098
:1006100079FE284632BD0520ADF83200ADF8340031
:1006200070472DE9F04782B0DFF870430FF654159C
:10063000DFF87063DFF860730FF63418DFF8689343
:10064000DFF868A307E02068294600F05BFEFFF7AB
:10065000ABFF012038750A2304225146484601F0B9
:100660004BFA20B1032807D001F01EFD04E04246FA
:100670000421504600F06BFE787D0028EBD001F09D
:1006800041FD01F088FF96F8D20008B101F0ABF807
:10069000B87D50B107F11700FFF72EFF8DF800006D
:1006A0000A22FFF79EFF0020B875387D022805D189
:1006B000FFF767FF00F025F8CBD0C4E7032807D188
:1006C00041F60D00FFF791FF00F01BF8C1D0BAE72B
:1006D000042805D101F059F800F013F8B9D0B2E7B9
:1006E000052805D101F06CF800F00BF8B1D0AAE7AD
:1006F0000828B0D101F05BF800F003F8A3D1062080
:10070000A8E700288DF800007047F1B586B00D46C7
:100710000C980FF6840614460F223146401D02F055
:1007200077F9A8B98ECE68468EC07C218DF80F105F
:100730008DF810508DF8111000206A46015D821866
:10074000401C06289174F8DB08221821FFF74AFFA5
:100750009DF8180003280AD10C22012106A800F0F8
:1007600061FE8E480FF64001006800F0CBFD07B037
:10077000F0BD2DE9F041894C82B006460F460FF6D8
:100780003C082068844D414600F0BCFD2068012EE5
:1007900004D01ED3032E0FD008D31AE0CFB90FF622
:1007A000480100F0AFFD0220287512E03A460FF62E
:1007B000640100F0A7FD0CE0287D062809D1002087
:1007C0008DF80000FFF70CFF20680FF6780100F0AD
:1007D00099FD2068414600F095FDBDE8F3812DE9C3
:1007E000F04100F02FF838680FF6800100F08AFD24
:1007F00000F022F834B931462846FFF7DFFC66499D
:100800000320087512E02DE9F04100F01BF838686C
:100810000FF6A00100F076FD00F00EF834B9314675
:100820002846FFF737FD5C490420087541463868C3
:10083000BDE8F04100F066BD38680FF65C01224665
:1008400000F060BD554F0FF2747804460D463868CD
:100850001646414600F056BD2DE9F041FFF7F2FF84
:1008600038680FF6880100F04DFDFFF7E5FF34B959
:1008700031462846FFF777FD474905200875D5E73B
:100880002DE9F041454F04460D4638680FF22C71B2
:10089000164600F037FD38680FF68801FFF7CFFFE6
:1008A00044BB38680FF6B0012A4600F02BFD3868CB
:1008B000012D07D13B4991F8E4200FF6BC0100F06F
:1008C00021FD14E00FF6DC010FF6E80800F01AFD38
:1008D00007E0A25D38681346414600F013FD641C32
:1008E000E4B2AC42F5DB38682AA100F00BFD2A49DE
:1008F00008200875BDE8F0812A4A92F8D2203AB162
:100900000246264800680B460FF6B40100F0FABC18
:10091000704710B5214C0FF6E801206800F0F2FC9A
:10092000002000F0F0FE38B1024620680FF6F40116
:10093000BDE8104000F0E6BC10BD2DE9F0410C46CA
:100940001549097D0629154619D1144E0FF62011B7
:100950000FF6601802463068234600F0D3FC0027EB
:1009600004E07A5D414600F0CDFC7F1CFFB23068A8
:10097000A742F6D3BDE8F04106A100F0C3BCBDE834
:10098000F0810246054800680B460FF6301100F072
:10099000B9BC00000D0A0000F80C0020600900201E
:1009A00007B20100640A0020EC0B0020380D002083
:1009B0002A2A2A2A202020204E756D626572206F17
:1009C00066205072696D6172792053657276696331
:1009D000653A2025640D0A002A2A2A2A2020202090
:1009E000486561727420526174652053657276693E
:1009F0006365205555494420666F756E640D0A0085
:100A00002A2A2A2A20202020446576696365204905
:100A10006E666F726D6174696F6E20536572766970
:100A20006365205555494420666F756E640D0A0054
:100A30002A2A2A2A2020202055554944203078256A
:100A40003034780D0A0000002A2A2A2A202020208B
:100A500020202053746172742048616E646C65209C
:100A60003D203078253034780D0A00002A2A2A2AC1
:100A700020202020202020456E642048616E646C78
:100A800065203D203078253034780D0A00000000C4
:100A90002A2A2A2A202020204E756D626572206F36
:100AA0006620436861726163206F66206120536530
:100AB00072766963653A2025640D0A002A2A2A2A7B
:100AC00020202020202048656172742052617465C6
:100AD000204D6561737572656D656E742043686144
:100AE000726163746572697374696320666F756E91
:100AF000640D0A002A2A2A2A202020202020486566
:100B0000617274205261746520426F64792053656C
:100B10006E736F72204C6F636174696F6E204368EF
:100B200061726163746572697374696320666F755D
:100B30006E640D0A000000002A2A2A2A20202020A4
:100B400020204865617274205261746520436F6E85
:100B500074726F6C20506F696E74204368617261AB
:100B600063746572697374696320666F756E640D72
:100B70000A0000002A2A2A2A20202020202044655A
:100B80007669636520496E666F726D6174696F6E18
:100B9000204D616E756661637475726572204E6179
:100BA0006D6520436861726163746572697374690D
:100BB0006320666F756E640D0A0000002A2A2A2AD7
:100BC000202020202020436861726163746572696F
:100BD0007374696320666F756E640D0A000000000F
:100BE0002A2A2A2A2020202020204368617261635B
:100BF00074657269737469632048616E646C652002
:100C00003D203078253034780D0A00002A2A2A2A1F
:100C100020202020202050726F70657274696573E7
:100C2000203D203078253032780D0A002A2A2A2AE1
:100C300020202020202056616C756548616E646C10
:100C400065203D203078253034780D0A0000000002
:100C50002A2A2A2A20202020202055554944203D98
:100C6000203078253034780D0A0000002A2A2A2AFC
:100C7000202020204E756D626572206F66204368CB
:100C8000617261632044657363726970746F723A54
:100C90002025640D0A0000002A2A2A2A202020206C
:100CA000202043686172616374657269737469635B
:100CB0002050726573656E746174696F6E20466F43
:100CC000726D61742044657363726970746F722011
:100CD000666F756E640D0A002A2A2A2A20202020B9
:100CE0002020436C69656E7420436861726163748F
:100CF0006572697374696320436F6E6669677572A4
:100D00006174696F6E2044657363726970746F7289
:100D100020666F756E640D0A000000002A2A2A2AD8
:100D2000202020202020436861726163746572690D
:100D3000737469632044657363726970746F7220A1
:100D4000666F756E640D0A002A2A2A2A2020202048
:100D500020204368617261637465726973746963AA
:100D60002044657363726970746F722048616E64A9
:100D70006C65203D203078253034780D0A00000065
:100D8000230200E1800200004852505F430000004F
:100D900043656E7472616C20696E697469616C6917
:100DA0007A65642E0A0000004852435F496E6974F8
:100DB0002829204572726F723A20253032580A0075
:100DC000536563757269747920706172616D732007
:100DD0007365742E0A0000004852435F53656375C3
:100DE000726974795365742829204572726F723A5A
:100DF00020253032580A00005363616E6E696E67B9
:100E00002E2E2E0A000000004852435F446576698A
:100E10006365446973636F7665727928292045722A
:100E2000726F723A20253032580A00004852435FF0
:100E3000446576696365436F6E6E656374696F6E52
:100E400028292043616C6C3A204F4B0A00000000B7
:100E50004852435F446576696365436F6E6E6563B0
:100E600074696F6E2829204572726F723A2025309E
:100E700032580A004852435F53657276696365735E
:100E8000446973636F7665727928292043616C6CBD
:100E90003A204F4B0A0000004852435F5365727678
:100EA00069636573446973636F7665727928292075
:100EB0004572726F723A20253032580A00000000E5
:100EC000446973636F6E6E656374696F6E20636FE0
:100ED0006D706C6574652E0A000000004852435F17
:100EE000446576696365446973636F6E6E656374A8
:100EF000696F6E2829204572726F723A2025303250
:100F0000580A00004465766963655F446973636FDE
:100F1000766572795F4368617261635365727628A2
:100F2000292043616C6C3A204F4B0A004465766976
:100F300063655F446973636F766572795F43686167
:100F4000726163536572762829204572726F723A16
:100F500020253032582C20757569645F7365727670
:100F60006963653A203078253032580A0000000065
:100F700043656E7472616C2050726F66696C652097
:100F800041707000446973636F6E6E656374696E5F
:100F9000672E2E2E0A00000048656172745261743B
:100FA0006553656E736F72005363616E6E696E6731
:100FB00020636F6D706C6574652E0A002A2A2A2AD8
:100FC0002A2A2A2A2A2A2A2A2A2A2A2A2A2A2A2A81
:100FD0002A2A2A2A2A2A2A2A2A2A2A2A2A2A2A2A71
:100FE0002A2A2A2A0D0A00002A2A2A2A2020436FA8
:100FF0006E6E656374696F6E2045737461626C69AF
:1010000073686564207769746820537563636573DA
:10101000730D0A002A2A2A2A2020436F6E6E656308
:1010200074696F6E204661696C65642077697468C5
:1010300020537461747573203D20307825303278E8
:101040000D0A00002A2A2A2A2020446973636F6E41
:101050006E656374696F6E2077697468207065656A
:1010600072206465766963650D0A00002A2A2A2ABF
:10107000205072696D61727920536572766963657B
:1010800020446973636F766572792050726F63656F
:10109000647572650D0A00002A2A2A2A2020202061
:1010A000537461747573203D203078253032780D8B
:1010B0000A0000002A2A2A2A20446973636F766591
:1010C00072792043686172616374657269737469CF
:1010D0006373206F662061205365727669636520B3
:1010E00050726F6365647572650D0A002A2A2A2A98
:1010F00020446973636F7665727920436861726119
:10110000637465726973746963204465736372699B
:1011100070746F722050726F6365647572650D0A2A
:10112000000000002A2A2A2A2044617461205265A6
:1011300061642056616C75652050726F63656475DB
:1011400072653A20537461747573203D20307825A0
:101150003032780D0A0000002A2A2A2A2020202076
:101160004C656E20646174612052656164203D208D
:1011700025640D0A000000002A2A2A2A204852204D
:10118000426F64792053656E736F72204C6F636198
:1011900074696F6E2056616C75653A203078253021
:1011A00032780A002A2A2A2A2020202044617461E9
:1011B0003A20000030782530782028256429000066
:1011C0002A2A2A2A2A204852435F46756C6C436FAC
:1011D0006E665F43422829204572726F72205479EF
:1011E0007065203D2030782530782077697468203C
:1011F000436F6465203D2030782530780D0A00006B
:101200002A2A2A2A205265717569726564205365FD
:101210006375726974792050696E20436F64650D3F
:101220000A0000002A2A2A2A204572726F7220645E
:101230007572696E67207468652050616972696EA5
:10124000672070726F636564757265202D3E205053
:10125000696E20436F646520736574202853746140
:10126000747573203D2030782578290D0A00000020
:101270004E4F54494649434154494F4E5F444154AF
:10128000415F52454345495645443A2068616E6482
:101290006C653D3078253034782C20646174612091
:1012A0006C656E6774683D25642C20646174613AD6
:1012B0000D0A00002530327820000000506169726C
:1012C000696E6720434220636F6E6E5F68616E6473
:1012D0006C65203D2030782530347820776974683B
:1012E00020737461747573203D2030782530327816
:1012F0002A2A2A2A2A2A2A2A2A2A2A2A2A2A2A0A6E
:10130000000000000CB400B5A1B00A4622AB802159
:10131000684601F0AFFB01460722684600F082F8FC
:1013200021B05DF80CFB10B5564C607D70B900F033
:10133000C3FE01F08AFC01F065FD2068804760680B
:101340008047E068804701202075607510BD014628
:101350000878FF2800D0704770B582B04A78494CB1
:1013600049484A4D012A08D0092A1BD00B2A2BD004
:101370000D2A0BD0122A3DD048E0002060750622CD
:1013800013210FF20C1000F04DF808E00120207539
:101390006075E068804700283DD000206075FFF749
:1013A000C2FF73BDCE78002E35D000F035F808B1FD
:1013B00000F07AFE0622691D04F1170000F0D4FA4D
:1013C00001206075A07573BD207D022802DBA06836
:1013D00080470CE0002060758DF800000121684610
:1013E00000F020F828680FF2BC01FFF78BFF012006
:1013F000207573BDCE7876B100F00EF808B100F01C
:1014000053FE22693146281D904773BD28680FF2AC
:10141000B001FFF777FF73BD4FF496733246291D75
:1014200000F06ABB7CB504000D4627D001218DF881
:101430000110FF2000218DF800008DF8061000201B
:1014400002218DF804208DF802108DF803008DF82C
:1014500005504FF496730C4E06226946304600F054
:10146000FCFA08B100F020FE4FF49673AAB22146B0
:10147000304600F0F2FA08B100F016FE73BDFEF738
:1014800083BE0000F80C0020EC0B00206009002057
:1014900043656E7472616C2050726F66696C652072
:1014A00041707000446973636F6E6E656374696F39
:1014B0006E20636F6D706C6574652E0A000000000D
:1014C000436F6D6D616E6420756E737570706F72B1
:1014D0007465642E0A00000010B5044600F044FA5A
:1014E000204610BD10B5044610460A460146204667
:1014F00001F08AFC204610BD2DE9F84304468846D9
:10150000914600260025DFF83C7400E06D1C387B16
:10151000EDB285422BD2F019C17B0129F6D100F141
:101520001401761C02226846F6B2FFF7D5FFF019C7
:1015300000F10F01B61C02224046F6B2FFF7CCFFC5
:10154000F01900F10F0102224846FFF7C5FFB01C59
:10155000C0B2C119897A01290CBF861C00F110069E
:10156000BDF80000A042F6B2D0D1002000E0122069
:10157000BDE8F2833FB5DFF8CC4385B0E822002117
:101580002046FFF7A9FF04F1D205002028756882E4
:1015900006220599201DFFF79FFF05990622684640
:1015A000FFF79AFF9DF820008DF80C009DF81800B9
:1015B0008DF806000798029000200490684600F01D
:1015C00031FF20B9022121600021297001E00021B2
:1015D000216009B030BD03B583B002208DF8000052
:1015E000BDF80E00ADF80200BDF81000ADF8040023
:1015F0009DF80C008DF80600684600F08DFF18B9C4
:10160000DFF840230321116005B000BD0FB400B521
:1016100087B09DF820008DF800009DF821008DF81E
:1016200001009DF822008DF80200012806D1102249
:101630000DF123010DF10300FFF74EFF9DF834007B
:101640008DF8140000280CBF0E98002006909DF81D
:1016500033008DF81300684600F048FF07B05DF8CE
:1016600014FB0FB400B589B003208DF800000622EA
:101670000A980E990190BDF82C00ADF80800BDF84D
:101680002E00ADF80A00BDF83000ADF80C00BDF832
:101690003200ADF80E009DF834008DF810000DF109
:1016A0001100FFF719FF9DF83C008DF81700BDF8F9
:1016B0003E00ADF81800BDF84000ADF81A00BDF8C6
:1016C0004200ADF81C00BDF84400ADF81E00BDF8A6
:1016D0004600ADF82000BDF84800ADF8220068468D
:1016E00000F068FF10B9974A0421116009B05DF855
:1016F00014FB10B5934C608900F08EFF10B90021E7
:1017000084F8D21010BD01468E48408901F02EB9F0
:1017100010B58C4C6089322304F10F0204F10C01E6
:1017200000F07DFF08B90621216010BD70B541F6BB
:101730000D0184B08842834D1CBF41F60A018842E6
:10174000044605F10A0606D1F07800281ABF307960
:101750000028122017D002AA0DF10A012046FFF737
:10176000CBFE80B96420019005F14B000090BDF8DC
:101770000820BDF80A10308805F14A0300F06FFF19
:1017800008B9A5F8B04004B070BD1CB564226D481E
:10179000019200F10A0400F14B02218F009200F146
:1017A0004A034A1C208892B200F086FF16BD6648A4
:1017B000018F0088491C0023012289B200F089BFF3
:1017C00010B582B05F48012100F005F8618F2088D4
:1017D00000F0C4FF16BD00F10A04009100F1B2034D
:1017E00000F1D002704710B5564C2068052808D08B
:1017F00007280ED00C2829D00D281CD00F2812D075
:1018000010BDFFF785FF08B9062027E0014601203B
:1018100018E041F60D00FFF789FF08B908201DE028
:10182000014603200EE0FFF7C2FF08B9102015E0C3
:101830000146072006E0FFF7C3FF08B90E200DE0C0
:1018400001460920FFF758F80C2007E0FFF751FF89
:1018500018B101460220FFF74FF80220206010BDAA
:10186000384890F8B21080F8E410704780B500F066
:101870006DF801BDF0B5334D85B00E46B5F8421098
:101880000027884214465BD1102200216846FFF7EA
:1018900029FE20788DF80000C007617803D401206C
:1018A0008DF8011006E0A27841EA02210220ADF88D
:1018B000021001279DF8001009070BD5801CC0B24B
:1018C0000219015D12F8012C42EA0121ADF8041061
:1018D000012100E0002185F8E6109DF80010C906FE
:1018E00028D5711E8DF80C10002F14BF891E491EBB
:1018F0008DF80C1095F8E61021B19DF80C10891E9A
:101900008DF80C1000229DF80C1049088DF80C1071
:101910000DE0801CC0B2B04208DA0719035D17F869
:10192000017C47EA0323029F27F81230521CD2B2EF
:101930008A42EED31022694605F1D400FFF7CCFDB0
:1019400005B0F0BD640A00206E0A0020704782686E
:10195000521C8260426832B10268531C03601170ED
:101960004168491E4160704762B38B0708D0521E20
:1019700011F8013B00F8013B00F024808B07F6D101
:10198000830740F0208000BF103A07D330B4B1E89D
:101990003810103AA0E83810F9D230BC530724BFF1
:1019A000B1E80810A0E8081044BF51F8043B40F823
:1019B000043BD20724BF31F8022B20F8022B44BF8E
:1019C0000B7803707047083A07D3B1E80810083A5B
:1019D00040F8043B40F804CBF7D25307E4E700009B
:1019E00038B504000BD004F16805687818B9287080
:1019F000204600F0F3FA00F00DF8012801D1012093
:101A000032BD606A08B100F025F800F014F821F04A
:101A10002A0109E00220687020680168490849002D
:101A20000160204600F0D2B8816000F00CF8BDE8FB
:101A3000324000F05CBA2068416821F49041416076
:101A40002068816870472068016841F001010160E9
:101A500020467047204600F0E7B9F8B5044604F187
:101A600050070D46787E01281CBF787E22281E462E
:101A700040D1002D18BF002A01D10120F2BD387ECF
:101A8000012837D0012038760020F861787E22289E
:101A90000CBF3220122078763A807A8001E02168EB
:101AA00008857888A8B1401E7880334600228021BE
:101AB00000F089F898B9A068B0F5805F04BF20698C
:101AC000002811BF15F8010B35F8020BC005C00D39
:101AD000E5E733460022402100F075F808B1032005
:101AE000F2BD787E32280CBF2220012078760020BB
:101AF0003876F2BD0220F2BD2DE9F041044604F132
:101B000058070D46787C01281CBF787C122898461F
:101B100056D1002D14BF002A012052D0387C012854
:101B20004ED00120387400207861787C12280CBFD8
:101B30003220222078743A807A80FF21A068B0F5A4
:101B4000805F04D1206928B940F2FF100EE028B967
:101B5000206908B9B9800AE07F2007E0B0F1805F12
:101B600005D1206900280CBF7F203F20B880BE88A7
:101B700004E02068808C304025F8020B7888B0B1F2
:101B8000401E788043460022202100F01CF808B156
:101B9000032016E0A068B0F5805F04BF206900282C
:101BA000E7D02068808C304005F8010BE6E7787CB0
:101BB00032280CBF1220012078740020387400E015
:101BC0000220BDE8F081204600F0B6B9F8B5044621
:101BD000894B226810681840A3681843236918438A
:101BE00063691843E3691843106010265068E3687E
:101BF00020F440501843506000210025A0697F4B1D
:101C00009A421CBF276A3843976827F430673843E5
:101C100090607B4F7B48BA421FD1006800F0030000
:101C2000032847D8DFE800F0023626450126E069A0
:101C3000B0F5004F40F0B98066B1012E00F09E80F3
:101C4000022E00F09E80042E00F09D80082E00F0F1
:101C50009E80A2E001F0FCFB97E06B4FBA420BD1F3
:101C6000006810F00C005DD0042813D0082801D0C3
:101C70000C280DE002261DE0644FBA420CD100682A
:101C800010F030004ED0102804D02028F2D0302898
:101C90000FD00FE004260DE05D4FBA4223D100685B
:101CA00010F0C0003ED04028F4D08028E2D0C028F8
:101CB00000D108269A42BAD1300006D0022E33D085
:101CC000042E33D0082E34D092E001F0C1FB00285E
:101CD00000F08F80616801EB4102904202D30A0359
:101CE000824229D284E04B4FBA420CD1006810F4F2
:101CF000407017D0B0F5807FCCD0B0F5007FB9D060
:101D0000B0F5407FC4E79A42D4D1006810F4406037
:101D100008D0B0F5806FBDD0B0F5006FAAD0B0F597
:101D2000406FB5E70026C5E73B48D3E701F039FB34
:101D3000CDE74FF40040CDE736B1022E07D0042E98
:101D400007D0082E0ED012E001F082FB03E03348EA
:101D50000AE001F026FB010E62680002002301F098
:101D6000E1FB05E04FF40000B0FBF1F000E00125DD
:101D7000A0F540712A4A91423AD22EE001F070FB60
:101D800003E0284805E001F00CFB400001E04FF4BF
:101D900080306168B0FBF1F100E001254FF6F07092
:101DA0000840C1F34201084317E046B1012E09D0B3
:101DB000022E0AD0042E0AD0082E11D018E001F00D
:101DC00047FB06E001F04CFB03E013480AE001F09A
:101DD000E8FA6168B0FBF1F080B22168C86008E001
:101DE0004FF400406168B0FBF1F080B2D06000E0D9
:101DF00001252846F2BD0000F369FFEF0080004096
:101E00000038014088100240004400400048004073
:101E1000004C0040005000400024F400000024F476
:101E200000FD0F000048E80190F82410C90706D50E
:101E300001684A68836A22F400321A434A6090F8C3
:101E40002410890706D501684A68C36A22F48032E3
:101E50001A434A6090F82410490706D501684A6879
:101E6000036B22F480221A434A6090F82410090779
:101E700006D501684A68436B22F400421A434A605F
:101E800090F82410C90606D501688A68836B22F48D
:101E900080521A438A6090F82410890606D501689A
:101EA0008A68C36B22F400521A438A6090F82410A7
:101EB000490610D501684A68036C22F480121A435F
:101EC0004A60026CB2F5801F05D14A68436C22F467
:101ED000C0021A434A6090F82410090606D501682A
:101EE0004A68806C22F4002210434860704770B545
:101EF000044604F16805002068606FF07E462068A3
:101F00000068000706D5334600224FF40011FFF7A2
:101F10005AFE50B920680068400708D533460022B1
:101F20004FF48001FFF74FFE08B1032070BD012080
:101F300068700020287070BD2DE9F84304460E46F5
:101F400091461F4601F089FBB9F1000F804604F16C
:101F500068050FD12068C0693040B0422BD017F11E
:101F6000010FF7D0AFB101F078FBA0EB080087427A
:101F7000F0D20EE02068C0693040B0421BD117F1AA
:101F8000010FF7D02FB101F068FBA0EB08008742EA
:101F9000F0D2206800F012F821F0200101602068E2
:101FA000016821F48071016000F00FF86870002072
:101FB0002870032000E00020BDE8F283016821F0D2
:101FC00080010160206801687047206881684908C5
:101FD00049008160012070470000000000B52E48D4
:101FE00087B000F023F800F021F8C16841F4003117
:101FF000C16001A9C06800F400300090009804207E
:10200000019002200290012003900220049000F031
:1020100007F80820019001A900F002F807B000BD00
:10202000072005904FF0904001F02ABB016841F075
:1020300001010160016801F0010100910099704700
:1020400080B51648164901604FF4E1314160002126
:102050008160C160016181610C214161FFF7C0FCB9
:1020600000281CBFBDE8014000F01EB801BD80B5CE
:1020700001F0D0FA01F010FCFFF7E2FF202200216E
:102080000848FFF72FFA00F0C4FDFFF7F8F9FEF754
:10209000C8FA002002BD00004C100240EC0B0020EA
:1020A00000440040F80C002080B5002001F058FCEE
:1020B000642001F0D5FAF8E738B5B14C201D01F0E5
:1020C0005DFC04F10C0001F059FC00258C2010FB94
:1020D000054000F11401201D01F066FC6D1C052D6A
:1020E000F4DB31BD00F108010A78042A01D0012097
:1020F000704790F888008978C01E814214BF022082
:102100000020704710B5A2B00020009000F059FEEA
:102110009B4C10E0694604F10C0001F05BFC00F000
:102120004DFE0098083001F0D8FF00F04AFE0099FB
:10213000201D01F039FC04F10C0001F022FC002804
:10214000E8D0207850B90EE0802201A98D4800F037
:1021500099FDC0B210B101A801F0BFFF00F088FDE9
:102160000028F1D1207000F029FE22B010BD38B552
:102170000020009000F028FE824C814D04E0281DD4
:1021800001F008FC00F020FE00F072FD18B3281DDD
:1021900001F0F7FBD8B96946281D01F01BFC009837
:1021A00000F108018022204600F06CFDC0B200283A
:1021B0000099E4D081F888000098FFF793FF002889
:1021C0000099DCD105F10C0001F0EEFBDAE701200B
:1021D000287000F0F9FD31BD00F0FABC30B589057A
:1021E00083B0890D41EA8020ADF804001446012037
:1021F0008DF800001D468DF80640032201A90DF15F
:102200000100FFF769F92346042229466846FFF7D3
:10221000E3FF37BD38B504460D4607E0694628465A
:1022200001F0D8FB0099204601F0BEFB284601F0E2
:10223000A8FB0028F2D031BD2DE9F041044686B05C
:1022400060884F4F884680052188800D40EA8125AF
:102250004D4800680A21B0FBF1F600200090ADB2B5
:1022600002A801F08BFBE068A3686188C2B22088F5
:10227000FFF7B4FFB8F1000F59D106B90126314676
:1022800004A802F0F9F905E0009902A801F08CFB1E
:1022900000F094FD04A802F0F7F9002867D107F1D7
:1022A0000C0001F06EFB0028F4D100F08AFD6946B5
:1022B00007F10C0001F08EFB009800F10802107885
:1022C0000428E1D10098527800F10B0190F88800C1
:1022D000C01E0E2A37D00F2A04D0102A47D03E2A1B
:1022E00038D008E04A88AA4241D162680F2A15D046
:1022F000087800283BD1009902A801F055FB381D51
:1023000001F03FFB0028C3D001A907F10C0001F048
:1023100061FB0199381D01F047FBB9E76269904202
:10232000C8BF1046606102462069FFF7D5F80099E2
:10233000381D01F02FFB00F029F800F03FFD0020D0
:1023400006B0BDE8F081B1F80120AA420FD1C91C46
:10235000C01EE3E70A7863689A42CCD16269401EE6
:102360009042C8BF104660610246491CDCE700F09D
:102370000DF800F023FD4FF0FF30E1E70000000012
:10238000900600205C0C0020D468000802A907F128
:102390000C003FE7F0B589B000F024F800F032F807
:1023A00000F035F8042000F038F8012000F01FF8A4
:1023B000002848BFFF2013D49DF8000080B99DF885
:1023C00001002070BDF8020028809DF804003070E4
:1023D000BDF8050038800E99BDF807000880002080
:1023E00009B0F0BD04460D4616461F467047ADF8CD
:1023F0000E0000210020059006900920089003A8F7
:102400001AE70446092200216846FFF76BB8182234
:10241000002103A8FFF766B80820ADF80C00CDF83E
:102420001CD0704730B5044685B02069DFF87015C0
:10243000DFF87055086000F008FC04A902A800F05D
:10244000C1FA00F002FC9DF80800312803DB0120EE
:1024500028700320607122460621002002F020F936
:10246000002841D102F07CF900283DD1287840B9FC
:102470000DF10E030DF10A0203A9032002F01EFB69
:102480000BE00DF10E00019003AB0DF10A0000907E
:102490000021A279042002F0E1FA28BBA07978B1EA
:1024A000297819B90928A4BF0820A071A068BDF82F
:1024B0000A1000900022A379BDF80C0002F071F917
:1024C000217B012002F017F970B900F064F8DFF801
:1024D000D8044FF4803101604FF001114160016870
:1024E000002001F08FFA002005B030BD1FB5044672
:1024F000207802F022FB68B9E07C03900723A069F2
:102500000290E21C207D019010200090A17860785C
:1025100002F026FB04B010BDF8B5044600F095F9B2
:10252000B0F5803F18BFB0F5802F04D0B0F5003F64
:1025300018BF0C271FD123786088A188A279012BAE
:1025400002D102F0B0FB02E0012302F0D0FB070051
:1025500011D10120E860002068722870207828726C
:102560004FF400303060DFF84404316870604FF49D
:10257000803001F047FA3846F2BD10B5DFF830047C
:102580000468207A012818BF022002F0D3FC08B9A1
:102590000221617210BD10B584B0DFF80C4494E8DC
:1025A0000E00684601F02AFD68460EC80EC41846A3
:1025B00004B010BD2DE9F041DFF8F413DFF8E87343
:1025C0000D68DFF8F0630146242205F10C00FFF7E7
:1025D000DBF9002485F834404FF440383868B0F512
:1025E000003F08D001202870C7F800807E60414677
:1025F0004FF480300BE02C7001202863FFF7BDFF03
:102600000446C7F800807E6041464FF4003001F078
:10261000F9F92046BDE8F081132102F027BBF8B597
:10262000DFF88463DFF8885337682D680024B7F536
:10263000802F1CBFB7F5403F0C240ED101272F700F
:10264000A9602882EA60EB704FF4A020A9680C70A2
:102650003060DFF8640300F0FDF82046F2BDF8B505
:1026600000F00AF81CBFB7F5802F0C2402D1022716
:1026700000F00CF82046F2BDDFF834532E68DFF886
:1026800028532F680024B7F5A02F70473770308289
:10269000B3600698F06007987182F070B2824FF4D0
:1026A000A020B1680C702860DFF80C03296868600E
:1026B0004FF4802001F0A6B9F8B5FFF7DDFF1CBF8D
:1026C000B7F5802F0C2402D10427FFF7DFFF204647
:1026D000F2BD2DE9F24382B004460020ADF80000BF
:1026E0001546DFF8CC02DFF8C06207683068B0F545
:1026F000802F18BFB0F5C02F984605D0B0F5A02F99
:1027000018BF4FF00C0926D145EA48008DF80000AB
:102710006B46BDF808100222204602F068F95FEA15
:10272000000918D107F12600002101700521397038
:1027300044800021417002A807F10D0102780A705F
:1027400042784A7002203873FD730120F86287F8DE
:10275000108000F0C3F84846BDE8FE832DE9F2433F
:1027600006469348904D04682868B0F5802F18BF3E
:10277000B0F5C02F1746984605D0B0F5A02F18BF6A
:102780004FF00C0922D1304602F0C7F85FEA000989
:102790001CD104F1260104F10D02087006202070FE
:1027A0004E806760C4F808800898A08400209DF8D7
:1027B000003013709DF80130537048700120E062C2
:1027C0004FF4802028607D48FFF770FF4846BDE841
:1027D000F2832DE9F347804600F037F8B0F5802FFB
:1027E00018BFB0F5C02F91469A4604D0B0F5A02F7F
:1027F00018BF0C2726D10A9C2246404602F0B1F8A9
:1028000007001FD105F126010020087005F10D0217
:1028100008202870A1F80280C5F80490C5F808A027
:102820000B98A88401A80378137043785370EC7355
:10283000002048700120E8624FF4802030605F483B
:1028400000F008F83846BDE8F6875948564E056846
:1028500030687047316870604FF4802001F0D2B862
:102860002DE9F2430446524807681546152D98464F
:10287000A8BF122030DA4C4E3068B0F5802F18BF58
:10288000B0F5C02F05D0B0F5A02F18BF4FF00C0940
:1028900021D1204602F07CF85FEA00091BD107F144
:1028A0002600002101700721397044800021417009
:1028B00007F10D019DF800200A7007F10F009DF847
:1028C00001204A703D732A464146FFF74DF801202A
:1028D000F86200F003F84846BDE8F2834FF4802028
:1028E0003060364870604FF48020316801F08AB85B
:1028F0002DE9F04180462C4C2D4825680768B5F538
:10290000802F18BFB5F5A02F04D0B5F5403F18BFF4
:102910000C2628D1404602F024FB060023D107F103
:102920002C0001210160002200213970B5F5802FB3
:1029300007F126010A70A1F802804A7002714FF473
:10294000C0211F4804D1606021604FF4802008E05E
:102950006060B5F5A02F21600CBF4FF4A0204FF4AC
:10296000403001F04FF83046BDE8F08110B5104A14
:10297000126826320123937250800023137002F0F4
:102980001FF9044608484FF4C02101600C4941601A
:1029900001684FF4C02001F035F8204610BD00005A
:1029A00018000020400D00200C0000200100020053
:1029B00008000020010003000100050001000400E0
:1029C000010006003EB5054601A800900C460DF139
:1029D0000A0302AA0DF106010DF10900FFF7DAFC66
:1029E000C0B2A0B9BDF80610090A2970BDF80610DA
:1029F00009022180BDF804201206120F41EA0211DB
:102A00002180BDF8042002F00F02114321803EBD59
:102A10000300002013F0030F09D0521E22BF13F849
:102A2000010B11F801CBB0EB0C00F3D07047121F73
:102A300022BF53F8040B51F804CB6045F7D0121DA8
:102A40000AD200BA9CFA8CFCB0EB0C0038BF6FF0D5
:102A5000000088BF01207047521E22BF13F8010BEF
:102A600011F801CBB0EB0C00F6D0521C08BF104699
:102A70007047000008B584B00023029311B9009399
:102A8000019302E00090481E019004AB694607489C
:102A90007844183002F08CFA009911B1009A0021A4
:102AA0001170002858BF029805B000BDA3EEFFFFCB
:102AB0000068C749884200D0704700B5C54887B054
:102AC000016841F001010160016801F0010100911C
:102AD0000099016841F002010160016801F0020102
:102AE0000091009900F061F800F05FF8416941F44D
:102AF0008051416101A9406900F480500090009824
:102B00004FF4807001900120029003900020049007
:102B1000059000F049F900224FF4807100F04AF965
:102B20000820019001A90220029003900320049044
:102B300005200590A84800F0A3FD402000F027F8EC
:102B4000802000F024F80220019001A901200290C9
:102B500000F014F800F02CF90120019001A99F4821
:102B60000290002000F00AF800220321062002F063
:102B70001BFE062002F035FE07B000BD03900320C7
:102B80000490002005904FF0904000F079BD019036
:102B900001A9022002900020039003200490052048
:102BA00005904FF0904000F06BBD016841F00101CD
:102BB0000160016801F0010100910099016841F094
:102BC00001010160016801F0010100910099704765
:102BD0002DE9F04104468248DFF8088284B00D46B2
:102BE00000680A21B0FBF1F116461F4601A801F06A
:102BF00043FDF8B20090F3B22A462146404600F069
:102C000087F820B101A801F03FFD0028F1D0BDE810
:102C1000FF8174486E4901604FF482714160002168
:102C200081604FF4E061C1600021016141614FF4B6
:102C3000007181610021016241620721C1620821A6
:102C4000C1610021816202F00DBE80B500224FF407
:102C5000807100F0AFF8052000F002FD01224FF472
:102C6000807100F0A7F8BDE80240052000F0F8BC34
:102C700080B501214FF0904000F0E0FD012818BF21
:102C8000002002BD2DE9F04186B005460E46FF202A
:102C900017468DF8050004A80FF250110CC90CC09E
:102CA000002200F086F80F200090052302AA04A954
:102CB00000F077F89DF808000024022819D19DF84B
:102CC0000C009DF80B1051EA002812D047450DDA90
:102CD000B8460BE00F200090012301AA0DF1050179
:102CE00000F05FF89DF80400A055641CE4B2444570
:102CF000F0DB00F05DF8002002E000BF0098401C0F
:102D0000009000980228F8DB204606B0BDE8F0816C
:102D10002DE9F043884691461E460FF2D801C5B012
:102D200005460CC903A80FF2D4010CC00CC901A8B8
:102D300000270CC0062002F05AFD002200F039F8EE
:102D40000F200090052301AA03A900F02AF89DF89E
:102D5000040002281AD14C9C9DF8050054FA86F113
:102D6000884210DB36B10F200090334605AA414659
:102D700000F017F864B10F200090234605AA4946D9
:102D800000F00FF804E06FF0010701E04FF0FF37AB
:102D900000F00EF8062002F024FD384645B0BDE8EC
:102DA000F083284602F0C4BD4FF0904000F068BCAC
:102DB000012202214FF0904000F046BD062002F0B3
:102DC00010BD062002F013BD0749012008607047BE
:102DD000003001404C100240000400480000111077
:102DE000D46800085C0C0020140401400B000000B3
:102DF000000000000A00000000000000AA0000001F
:102E0000000000000020704762F30F2262F31F42AF
:102E1000401810F0030308D0C91A1FD3DB0748BFBE
:102E200000F8012D28BF20F8022D130030B41446FD
:102E30001546103928BF20E93C00FAD8490728BFB9
:102E400020E90C0048BF40F8042D890028BF20F875
:102E5000022D48BF00F8012D30BC7047C91818BFBB
:102E600000F8012DCB0728BF00F8012D70470000A6
:102E70002DE9F8430446DFF87C562078DFF86C66CD
:102E8000C00626D5B06810F00C0F3AD13068800724
:102E900002D5A069002832D0306800074EBF3068E4
:102EA0006868000900F0F001206A814206D200F053
:102EB000E1FA002823D100F0BEF905E000F0BBF9EB
:102EC000206A00F0D7FAD0B900F06BFAB26800F0CF
:102ED00054FA2078C00774D500F0A9F9082808D062
:102EE00000F0A5F90C2802BFF06800F003000328E9
:102EF0002AD13068800364D56068002861D1012040
:102F00008AE1A0690028306810D040F0010000F08C
:102F100085F907463068800705D400F09EFBC01B8A
:102F20000328F7D375E100F086F9D2E740084000A6
:102F300000F074F9074630688007CAD500F08DFBB1
:102F4000C01B0328F7D364E100F06BF920F4802064
:102F500000F064F907463068800305D500F07DFB7A
:102F6000C01B6528F7D354E16068B0F5803F07D0F7
:102F7000B0F5A02F00F055F906D140F48020306064
:102F8000306840F4803001E020F4802030606068D8
:102F900058B100F062FB07463068800311D400F09E
:102FA0005CFBC01B6528F7D333E100F056FB0746F6
:102FB0003068800305D500F050FBC01B6528F7D3AF
:102FC00027E12078800719D500F031F9042808D0CE
:102FD00000F02DF90C2802BFF06800F00300022871
:102FE00022D13068400502D5E068002887D070689B
:102FF000216920F0F85040EA0160706020780007F5
:1030000041D56069002868682ED040F001006860F2
:1030100000F023FB07466868800734D400F01DFBEE
:10302000C01B0328F7D3F4E0E068002830680DD017
:1030300040F4807000F0F2F8074630684005D6D4BE
:1030400000F00BFBC01B0328F7D3E2E020F48070F4
:1030500000F0E4F8074630684005CFD500F0FDFAEF
:10306000C01B0328F7D3D4E040084000686000F09C
:10307000F4FA07466868800705D500F0EEFAC01B31
:103080000328F7D3C5E02078400766D5B06DC000AF
:103090004FF000080AD4B06D40F08050B0654FF09A
:1030A0000108B06D00F0805000900098DFF848945F
:1030B000D9F80000C00512D4D9F8000040F480709F
:1030C000C9F8000000F0C9FA0746D9F80000C005A9
:1030D00005D400F0C2FAC01B0328F6D399E0A0681B
:1030E00001280CD008B928680DE0052828680AD105
:1030F000400840002860286840F0040028602868E4
:1031000040F0010005E0400840002860286820F0F9
:103110000400286041F28939A06858B100F09DFA96
:1031200007462868800711D400F097FAC01B48456D
:10313000F7D36EE000F091FA07462868800705D5BE
:1031400000F08BFAC01B4845F7D362E0B8F1000FDE
:1031500003D0B06D20F08050B065606A00285AD06E
:10316000B16801F00C010C293FF4C9AE02283068A7
:1031700020F08070306038D100F06FFA0746306878
:10318000800105D500F069FAC01B0328F7D340E0A1
:10319000E06A216B401E090241EA0010616B0909D7
:1031A00040EA4140A16A0843A16B891E0905490D07
:1031B00040EA4150E16B891E090601F07E41084357
:1031C000F060306840F080703060F06840F08070EF
:1031D000F06000F042FA0746306880011BD400F02E
:1031E0003CFAC01B0328F7D313E0F068DFF80C1398
:1031F00080088000F060F0680840F06000F02DFA70
:1032000007463068800106D500F027FAC01B032866
:10321000F7D3032000E00020BDE8F283306000F027
:103220001CBA306820F48030306030687047B06875
:1032300000F00C007047306840F0080030603068E3
:10324000216A20F0F000084330607068E16920F4E2
:103250007F4040EA0120706070472DE9F843DFF8B5
:10326000A06204463068884600F00700404502D25C
:1032700000F08DF864D12078DFF87072800705D5F2
:10328000B868A16820F0F0000843B8602078C00753
:103290004ED56068022802D13968890308E0032806
:1032A00002D13968890103E00028396802D1890711
:1032B00002D445E0490543D5B968890840EA810050
:1032C000B86041F2893900F0C8F905466068022803
:1032D0000AD1B86800F00C00082829D000F0BDF928
:1032E000401B4845F5D321E003280AD1B86800F017
:1032F0000C000C281CD000F0B0F9401B4845F5D359
:1033000014E048B9B86810F00C0F11D000F0A5F91E
:10331000401B4845F6D309E0B86800F00C000428CB
:1033200006D000F09AF9401B4845F5D3032022E06F
:10333000306800F00700804504D200F028F801D082
:10334000012018E02078400705D5B868E16820F42E
:10335000E0600843B8602078000706D5B8682169A6
:1033600020F4605040EAC100B86000F01AF8BA6872
:1033700000F003F80020BDE8F2836249C2F30312B3
:10338000515CC8405A4908600F2000F04FB93068BE
:10339000C00848EAC0003060306800F007004045CF
:1033A000704752498B680022002013F00C0F09D09F
:1033B0008B6803F00C030C2B02BFCB6803F00303F4
:1033C000012B13D10A68120704D4504A1268C2F3C1
:1033D000032202E00A68C2F303124D4B53F8222085
:1033E0008B6813F00C0F0ED110460CE08B6803F0C5
:1033F0000C03042B08BF474805D08B6803F00C036F
:10340000082B08BF44488B6803F00C030C2B1ED11B
:10341000C868CB68C3F302135B1C00F003000228EA
:1034200002D0032802D005E03A4800E03A48B0FB59
:10343000F3F001E0B2FBF3F0CA68C968C1F341617F
:10344000C2F30622491C50434900B0FBF1F070471B
:1034500027482D4A006812683049C2F3022206E06C
:103460002348294A006812682C49C2F3C222515CE1
:10347000C840704770B52A4E82B0054630680024B7
:10348000C00002D502F020FC0EE0306840F0805011
:103490003060306800F080500090009802F014FC1A
:1034A000316821F080513160B0F5007F04D1812D69
:1034B0000DD3A12D0AD305E0812D28BF032406D208
:1034C000802D01D1022402E0702D00D101240C488E
:1034D0000168C90844EAC1010160006800F0070002
:1034E000A04214BF0120002076BD00000010024061
:1034F000040000209010024000700040FFFFEEFE2C
:103500000020024014670008081002409410024096
:10351000246700080024F40000127A00CC68000838
:10352000581002401B4213D1094236D12AB18446B9
:10353000B0FBF2F002FB10C2704702F0CDBBFCD32F
:103540000022002370470B0002000021002070477A
:10355000904271EB030CF6D370B5B1FA81F4B3FA73
:1035600083F52C1BA340C4F1200532FA05F6334342
:10357000A2405FF00046E64002E05B085FEA3202EC
:10358000841A71EB030524BF204629467641F4D303
:1035900002000B003000002170BD012ACFD970B5A8
:1035A000140C20D0B1FA81F4B2FA82F5C4F12004EF
:1035B0006419B4F12006D6D3B2405FF00044F44061
:1035C000002502E052085FEA3303C61A71EB020ECF
:1035D00024BF3046714664416D41F3D302000B00B5
:1035E0002000290070BD0C46B1FBF2F102FB114531
:1035F0002D0445EA1045B5FBF2F402FB145580B2E8
:1036000040EA0545B5FBF2F002FB105240EA0440E7
:1036100070BD000080B5032002F0B9F80F2000F063
:1036200005F800F002F8002002BD704710B504460E
:10363000114800684FF47A71B0FBF1F002F0E0F845
:10364000002221464FF0FF3002F0AEF8002010BDFE
:103650000A480168491C01607047084800687047C3
:1036600038B50446FFF7F9FF0546FFF7F6FF401BA4
:10367000A042FAD331BD000004000020300D00202C
:103680002DE9F84700227A4BDFF8E881DFF8E8916E
:103690004FF00F0A30E005FA0EFE4EEA040448F837
:1036A0002C406FEA070C1C680CEA040E4C68E4031B
:1036B00048BF47EA0E0EC3F800E05C680CEA040E4F
:1036C0004C68A40348BF47EA0E0EC3F804E09C68A8
:1036D0000CEA040E4C68E40248BF47EA0E0EC3F839
:1036E00008E0DC680CEA040C4C68A40248BF47EA16
:1036F0000C0CC3F80CC0521C0F6837FA02F400F02F
:103700009B804FF0010C0CFA02F42740F3D04D6877
:10371000022D18BF122D11D1D50800EB850C02F037
:103720000706DCF820504FEA860E0AFA0EF6B5437B
:103730000E6906FA0EF63543CCF820504FEA420CDB
:103740000326056806FA0CF66FEA060E0E7906F0F7
:1037500003060EEA050506FA0CF635430560E44358
:103760004D68012D18BF022D03D0112D18BF122D49
:103770000FD18568CE680EEA050506FA0CF63543CA
:10378000856045684E68C6F300162540964035436F
:1037900045604D6805F00306032E06D1C66AC5F3E1
:1037A000C005344095402C43C462C4680EEA040E40
:1037B0008C6804FA0CF444EA0E04C4604C68E4001B
:1037C00099D5D9F8004044F00104C9F800404FEA07
:1037D000920CD9F8004004F00104009402F00305B3
:1037E000009C58F82C404FEA850E0AFA0EF5AC43BF
:1037F000B0F1904F08BF00251DD0204DA84208BF52
:10380000012518D01E4DA84208BF022513D01D4D1A
:10381000A84208BF03250ED01B4DA84208BF0425AF
:1038200009D01A4DA84208BF052504D0184DA8425A
:103830000CBF062507252EE7BDE8F1870069084083
:1038400018BF0120C0B27047002A14BF8161816295
:10385000704742695140416170470E4A1368034204
:1038600000D1704780B5106002F037FA01BD00004A
:1038700000040140080001406010024000040048BC
:1038800000080048000C00480010004800140048E0
:10389000001800481404014000B597B001A8142195
:1038A00002F01EFA0FF2780106A891EC100B80ECE2
:1038B000100B1A48016841F080510160006800F067
:1038C0008050009000981020069001200C906020FD
:1038D0000E9000200D9002200F900120109011906A
:1038E0002820129002201590072013900420149095
:1038F00006A8FFF7BDFA00B1FEE70F2001900421F2
:1039000003200290002003900490059001A8FFF787
:10391000A4FC00B1FEE717B000BD00005810024043
:103920000000000000000000000000000000000097
:103930000000000000000000000000000000000087
:103940000000000000000000000000000000000077
:103950000000000000000000000000000000000067
:103960000FF21401DFF80C2031F8101052F820008B
:10397000FFF76FBF000000202000000000604060E3
:103980007047EFF3108172B6026882420CBF0120CB
:1039900000201CE0EFF3108272B603680B604860F1
:1039A00001600868416029E0EFF3108272B6086098
:1039B00043684B604160486801601FE0EFF310818D
:1039C00072B6436802681A6042680068426081F318
:1039D0001088704738B50C46EFF3108572B6016851
:1039E00021600068FFE7FFF7E9FF21680020086019
:1039F0002168486085F3108831BD086082F3108823
:103A0000704700007047F0B58DB0054600208DF876
:103A1000240000292878144619BF2E896F89AE89A1
:103A2000EF892A7C032814D1688C069005F11103D4
:103A3000288C05903946E88B0490A88B0390688BFE
:103A40000290288B0190E87D0090304601F021FA29
:103A500026E08DF8282005F1110106220DF129003C
:103A6000FDF782FFDFF88C0B007860B90AA8089098
:103A700039460120079009A80690002000F01AF8A6
:103A800001F095F90CE09DF82400401C8DF824000D
:103A900039460AA80690012000F00CF801F037F929
:103AA000050004D10020607002F01DF9A0602846D6
:103AB0000DB0F0BD0590688C0490288C0390E88BC5
:103AC0000290A88B0190688B00902B8BEA7D30468A
:103AD00070472DE9F84300F04CF8B8BF642011DBC3
:103AE00000F039F803E000F00FF800F03BF8FFB207
:103AF000474506DA3179F068062C0CBF0122022214
:103B0000F1E70020BDE8F2830A5422463079F368D9
:103B1000401C307105EB0901C0B2C018FDF724BF8D
:103B20002DE9F84300F025F8B8BF642011DB00F060
:103B300012F803E0FFF7E8FF00F014F8FFB2474582
:103B400006DA3179F068072C0CBF01220222F1E776
:103B50000020BDE8F283B06801784144017000257F
:103B6000002770473079201865193071EDB27F1C3D
:103B700070470C46DFF8801A0E689146411E327974
:103B800091FBF4F85FFA88F88018F1784044401E01
:103B9000814270472DE9F8430C46DFF85C1A0E6845
:103BA0009046411E327991FBF4F95FFA89F9801849
:103BB000F1784844401E8142B8BF64201ADBB068E7
:103BC000017849440170002500270FE0F068317941
:103BD0000C5422463079F368401C307105EB080123
:103BE000C0B2C018FDF7C0FEFFF7BCFFFFB24F45E3
:103BF000ECDB0020BDE8F2832DE9F0470C46DFF84E
:103C0000F8190E680427022C914608BF1227411E9E
:103C1000327991FBF7F85FFA88F88018F178404420
:103C2000401E8142B8BF642018DBB068017841446F
:103C300000250170AA460CE0F06831790C543A4630
:103C4000FFF764FF307938187D193071EDB20AF151
:103C5000010A5FFA8AFAC245EEDB0020BDE8F08770
:103C6000E0B50B238DF80130ADF8020000238DF88C
:103C70000030ADF804008DF80610029201AB0DF192
:103C8000020269460DF1010002F037F907BD014655
:103C9000DFF86839C01A4FF0021209D0401E08D16F
:103CA000DFF854090068007810B1DFF8541900E01B
:103CB0001146084670472DE9F041DFF83C29DFF84E
:103CC0004439DFF84469DFF84459DFF8448986B0A5
:103CD0001468DFF84029C11A4FF0031708D0491EB5
:103CE00009D0491E20D0491E3FD0491E5BD063E059
:103CF0000020A07001E0207808B910465CE00A209E
:103D000001F0F3FF2246012104F10C00FFF77BFED6
:103D10008DF8010038B984F834002069800040F043
:103D2000030020631FE033E001F0DDFFA26821699A
:103D3000801A814202D394F8340090B1207B03288A
:103D40000CBF402008208DF800009DF8000001F015
:103D5000F1F88DF8010010B90120206307E004207C
:103D600017E0A07828BB384626E0607808B93046CE
:103D700022E00F2001F0B9FF2246002104F10C00DF
:103D8000FFF741FE8DF8010010B90120206312E019
:103D900002208DF8000001AB221D0DF101016846E3
:103DA00002F020F805E0A078002804BF6078002821
:103DB00001D0284600E040468CE1000070B5DFF8F5
:103DC0003828DFF85438DFF8545884B01468DFF826
:103DD0005028C11A04F1260612D0491E02D0491EED
:103DE00010D053E0307858B104F1270104F12800D5
:103DF00002F0D8F82078002847D0DFF8280845E0FE
:103E0000104643E000208DF808002078401F03286A
:103E100031D8DFE800F0020E172400F039F84278BC
:103E20004A70237CE27BBDF80A107088FEF751FCD3
:103E30001FE000F034F80090A36862687088FEF715
:103E40008DFC16E000F024F804F10F0342784A706C
:103E5000BDF80A10227B7088FEF702FD09E000F031
:103E60001EF80190E07B0090A36862687088FEF7FE
:103E7000B0FC8DF808009DF8080030B1002304F173
:103E8000280202A9204602F038F8284604B070BD86
:103E900004F10D000DF10A0102780A70704704F177
:103EA0000D000DF10A0102780A7042784A70A08C68
:103EB000BDF80A1070472DE9F843DFF83C27DFF81A
:103EC00068671468DFF86427DFF86477DFF86487D1
:103ED000DFF86457DFF86497811A10D0491E25D0A7
:103EE000491E2CD0891E2FD0491E38D0491E3AD0E9
:103EF000491E43D0491E45D0491E55D05FE0617030
:103F000021712178012908BFDFF8340757D0022931
:103F100008BFDFF8300752D0032908BF4FF0051063
:103F20004DD004294BD1DFF8200748E0208A00F06B
:103F300076FC8DF8000068BB0120A06102E060788B
:103F4000002833D130463AE0A28A618A208A00F004
:103F500092FC8DF80000E8B90120A06101E06078D2
:103F600020BB38462BE0A28A618A208A00F094FCAC
:103F70008DF8000070B90120A06101E06078A8B957
:103F800040461CE0A28A618A208A00F0A7FC8DF8D6
:103F9000000030B104F110026946204601F04FFFE5
:103FA0000AE00120A06109E0607838B104F1100254
:103FB000A11C204601F043FF284600E04846BDE82A
:103FC000F28330B5DFF83026DFF880561268DFF86C
:103FD0008036DFF880460146401B02D0401E05D0E7
:103FE0000AE01078401F032803D804E092F8260066
:103FF00008B1194600E02146084630BD2DE9FE41D2
:1040000083B003A92CC904466846DFF8EC852CC0B0
:104010000398D8F80070DFF8345600284FF4802653
:1040200053D0B0F5003F0CD0B0F5403F19D0B0F5FB
:10403000802F33D0B0F5A02F24D0B0F5C02F39D0C9
:1040400044E00498FFF723FEDFF8B415019088429E
:1040500005D14FF4803000904FF001100190F868C6
:1040600033E00498FFF727FE391DDFF8A025019003
:10407000904205D1D8F80020088810850096019557
:10408000C86A22E00498FFF716FFDFF8AC1501902C
:10409000884204BF00960195B86916E00498FFF7BE
:1040A00090FFDFF8AC15019088420DD10120F86235
:1040B000009609E00498FFF781FEDFF86015019093
:1040C000884204BF00960195F86A029068460EC8BF
:1040D0000EC40C3806B0BDE8F0812DE9F0438BB07A
:1040E000804608F1010098F80010042940F07F8212
:1040F000871CDFF8046500783468052820D008287C
:1041000004D03E2829D0FF2852D06BE238781A28F4
:10411000FBD17D1C94F8009028880121FEF7E8FB74
:104120008DF8000084F800909DF800000028ECD085
:1041300038788DF8000069462888ADF80200ECE177
:1041400003208DF8000001ABB7F80100ADF80200C4
:104150000DF10202F91C684627E23878012802D0E6
:1041600002285FD03EE201A80021002206C07D1C8B
:10417000A71C2878002803BFB5F80100788001202B
:1041800002208DF800002878022806D1062201A915
:10419000681DFEF73DFC002809D003AB221D29460F
:1041A000684601F01FFE002020630120387019E2EC
:1041B000DFF840043988007840F20142891A00F0A3
:1041C0007A81491E00F0C081091F2BD0491E3CD0C6
:1041D00040F2FB32891A00F0C28140F2FF32891AA4
:1041E00000F0E180C91E00F07E80891E00F09980F9
:1041F000491E00F02281491E00F03881891E00F01E
:104200008080091F00F0B480491E00F0AF80491E75
:1042100000F0D780491E00F06081891E51D0491EF0
:1042200045D0DFE10121B81C8DF8081000F108032A
:10423000017A091809310191821C00F109010091EC
:10424000411C02A801F0AAFDCCE1B878012818BFF2
:10425000022808D0082818BF402801BF012060703C
:1042600000202063BEE17068B0F5003F15D1012049
:1042700020700020E060607A02281CBF032060727A
:104280000A2001F032FD002001900090002300225E
:10429000002104F1090001F081FD7068B0F5403F94
:1042A00004D1306801210170002101639AE10D21E0
:1042B00000F0D8F901218DF8061040798DF80C0036
:1042C0000AE00C2100F0CEF901798DF80610401DAE
:1042D00000218DF80C10029001AA0DF10201684630
:1042E00001F071FE7EE1B81C218A0288914204BF70
:1042F00021780429F6D1C178021D8078FFF77CFC73
:104300000CE0B81C218A0288914204BF217801295F
:10431000E8D1C178021D8078FFF7DBFBA71C38705D
:104320001FE0208A07F10209A71CB9F80010884293
:1043300009F1020507D12078022809D100F08CF993
:10434000FFF7EEFB3870208AB9F80010884207D1D9
:104350002078032804D100F07FF9FFF71BFC3870A8
:104360003878002801D0012060703BE1092100E08D
:104370000A218DF80110B81C00218DF8001001AB46
:104380000188ADF802100DF10202B0F80310ADF88B
:1043900004108178891E401D8DF806100290694630
:1043A0000DF10100CDE0012803D1B81C851CC21D10
:1043B00002E0B81C851C421DA9782888FFF750FC34
:1043C00010E17068B91CB0F5A02F12D1208A0A88BC
:1043D0009042F5D12078012818BF022803D0032885
:1043E00018BF0428ECD101206070C878A0700020AC
:1043F000A0617068B0F5802FE2D130680C8800F1C0
:1044000026025388A34217D10378052B18BF062B29
:1044100003D0082B18BF072B0ED10023C362012342
:10442000137053780BB9C9785170002300F128023A
:1044300000F1270101F061FDD4E07168B81CB1F50D
:10444000802F02BF218D0288914204BF2178062966
:10445000F2D1851C61682A780A80A18C2B78994258
:1044600019D3C11CA068FDF77FFABBE07168B81CC6
:10447000B1F5802F02BF218D0288914204BF2178BF
:104480000829F2D161680B88A18C851C2A7853FA1F
:1044900082F7B94203DA642084F82700A2E0C11C45
:1044A000A0681818FDF760FA60682A78018851FA48
:1044B00082F1018096E07168B81CB1F5C02F01BF90
:1044C00004F126014A8803889A4205D101220A7024
:1044D000807848700020E06284E0BF1C04F126016F
:1044E000BA79052A1CBF082A0F2A104618D172680B
:1044F000B2F5802F0BD120788DF8000038884880E5
:1045000000213888FEF7F4F99DF80010217000288A
:1045100068D03888ADF80200B91D0DF102001BE02B
:104520007068B0F5802F5DD120788DF800000023F1
:104530003888ADF802000DF1020201200870B91DA3
:10454000684601F0DAFC4DE010208DF80000694665
:104550007888208504F1280001F024FD42E005213F
:104560008DF81710BF1C00218DF81610F9788DF802
:104570001810F988ADF81A103A89ADF81C207B891B
:10458000ADF81E30BF89ADF820707568B5F5802F85
:104590000ED0B5F5403F0DD1A088ADF8140006ABA4
:1045A00005AA0DF116010DF1170001F01BFC19E031
:1045B000208DF2E748B9029000979DF8180001900D
:1045C000BDF8140001F03CFD0CE0002004900097C1
:1045D0009DF818000390002002900190BDF814008F
:1045E00001F0F3FC316908001CBF404688470BB05E
:1045F000BDE8F083400D002008000020010002000B
:104600000300020001000300040003000600030091
:10461000050003000200030001000600040006007C
:10462000020006000300060003000500010005006B
:1046300006000500080005000B0005000A00050043
:104640000200050007000500090005000100040044
:10465000030004000200040099F80310287809F10F
:1046600004027047B81C8DF800100188ADF80210E4
:104670004188ADF80410704710B504466160FFE74B
:1046800001F031FB206010BD10B5044601F02BFB9A
:1046900022686168801A401C81428041C00F10BDB1
:1046A00010B50C461146A21CA8B0812AA8BF422012
:1046B0001FDA8DF81C008DF81D4022460DF11E00FA
:1046C000FCF70AFF00F03BF800F033F80C20ADF8DF
:1046D0000600002107A80390A01CC0B2049001208E
:1046E000069001A8FDF7A8FD00284CBFFF209DF80B
:1046F000000028B010BD00B589B08DF804008DF819
:1047000005101822002102A8FCF7ECFE00F022F8A8
:104710000F2000F019F8022005900120079002A850
:10472000FDF78AFD00284CBFFF209DF8000009B06E
:1047300000BD3F20ADF80400CDF814D0704718221A
:10474000002101A8FCF7CEBEADF80A00002101A8A7
:10475000049070473F20ADF80800CDF818D070479E
:1047600000B587B000F0F8F800F0B2F840F20110A0
:10477000ADF80600002100F009F800284CBFFF202A
:104780009DF8000007B000BDC0B204900120069063
:1047900001A8FDF751BDADF80600002107A8039060
:1047A000704733B51C46A01DA7B081281546A8BF89
:1047B00042201FDA022227A900F016F9022228A9B6
:1047C00000F039F92C998DF820508DF821402246BF
:1047D00000F01BF800F0C0F800F07AF84FF4837096
:1047E000FFF7D9FFA01DFFF7CFFF00284CBFFF2028
:1047F0009DF8000029B030BDADF80000ADF8021002
:104800001822002102A8FCF76DBE0DF12200FCF772
:1048100063BE3F20ADF80800CDF810D0704700B55A
:1048200089B000F021F800F00BF84FF4897000F027
:104830000DF800284CBFFF209DF8000009B000BD16
:104840003F20ADF80800CDF818D07047ADF80A0049
:10485000002101A80490022005900F200390012060
:10486000079002A8FDF7E8BC1822ADF8040000216B
:1048700002A8FCF737BE00B589B000F01EF800F0C2
:1048800081F84FF48A7000F03AF800284CBFFF20FE
:104890009DF8000009B000BD00B589B000F00DF82A
:1048A00000F070F840F2151000F029F800284CBF15
:1048B000FF209DF8000009B000BDADF80400ADF880
:1048C0000610ADF808200021182203A8FCF70ABE44
:1048D0003F20ADF80400CDF814D0704700B589B082
:1048E000FFF7EBFF00F04EF840F2171000F007F86A
:1048F00000284CBFFF209DF8000009B000BDADF8B6
:104900000E00002101A80590062006900F200490BB
:104910000120089003A8FDF78FBC00B589B0FFF710
:104920006BFFFFF776FF4FF48C70ADF80A000021A3
:10493000042005900F20039000F007F800284CBFDA
:10494000FF209DF8040009B000BD01A806900120D9
:10495000079002A8FDF770BC1822002101A8FCF7FF
:10496000C1BD00B589B0FFF7A8FF00F00BF84FF408
:104970008D70FFF7C4FF00284CBFFF209DF800009A
:1049800009B000BD3F20ADF80C00CDF81CD0704739
:1049900033B51446601DA7B081281D46A8BF42202C
:1049A00016DA022227A900F01FF8022228A900F037
:1049B00042F800F00FF8FFF7CFFFFFF789FF4FF441
:1049C0008E7000F03CF800284CBFFF209DF80000DE
:1049D00029B030BD8DF82040224629460DF1210036
:1049E000FCF77ABD022228A907A8FCF775BD33B5EC
:1049F0001446601DA7B081281D46A8BF422016DAC4
:104A0000022227A9FFF7F0FF022228A900F013F8DD
:104A1000FFF7E0FFFFF7A0FFFFF75AFF40F221107A
:104A200000F00DF800284CBFFF209DF8000029B0D1
:104A300030BD022229A90DF11E00FCF74DBDADF8D5
:104A40000600002107A80390601DC0B204900F204B
:104A500002900120069001A8FDF7EEBB10B58AB0C8
:104A60008DF800008DF801108DF802201C460722F9
:104A700000F015F900F05CF800F005FA8A20ADF8B6
:104A80000E0000210320069001A80790072000F0E7
:104A900043F8002848BFFF200ED49DF8040058B901
:104AA000BDF8050020800C99BDF8070008800D991D
:104AB000BDF80900088000200AB010BD70B58AB0AA
:104AC0000C468DF8080015461E46072200F0B4F883
:104AD00000F02EF800F0F7F88A20ADF80E00002163
:104AE00002A8059001200690072000F015F8002884
:104AF00048BFFF200CD49DF8000048B9BDF8010064
:104B00002080BDF803002880BDF80500308000201B
:104B10000AB070BD06900120089003A8FDF78CBB79
:104B2000ADF80400ADF806108DF808208DF80930B6
:104B30001822002103A8FCF7D5BC00B589B01822C3
:104B40008DF8040000F068F800F070F8852000F09F
:104B50004DF800284CBFFF209DF8000009B000BDB3
:104B600030B58FB08DF81C008DF81D1014461D4611
:104B70001022214600F017F9129814998DF82F0091
:104B80008DF82E50182213988DF830000DF1310059
:104B90000160002115988DF8350001A8FCF7A2FCF2
:104BA00000F05EF8862000F03BF81A20049000F038
:104BB000FAF900284CBFFF209DF800000FB030BD6F
:104BC00000B589B01822ADF804000DF106000160AF
:104BD000FFF7AFFF00F077F8882000F07AF80028A0
:104BE0004CBFFF209DF8000009B000BDADF80A00E1
:104BF000002101A8049001200590079002A8FDF76C
:104C00001BBB3F20ADF80800CDF810D07047ADF8C1
:104C100000008DF802101822002102A8FCF762BCE7
:104C2000ADF80600002107A8039070473F20ADF8BB
:104C30000800CDF818D0704700216846FCF752BC38
:104C400000B587B000F02AF800F00AF8922000F0D2
:104C50001DF800284CBFFF209DF8000007B000BDE4
:104C60003F20ADF80400CDF814D0704700B589B0EE
:104C7000FFF7CDFFFFF7C5FF932000F082F9002872
:104C80004CBFFF209DF8040009B000BDADF8060040
:104C900000210120069001A8FDF7CEBA18220021BC
:104CA00001A8FCF71FBC00B589B0FFF739FF00F081
:104CB0000AF8962000F00DF800284CBFFF209DF860
:104CC000000009B000BD3F20ADF80C00CDF81CD0AD
:104CD0007047ADF80E00002101A80590062006904F
:104CE0000F2004900120089003A8FDF7A5BA00B595
:104CF00089B0FFF715FFFFF7E6FF9720FFF7E9FF01
:104D000000284CBFFF209DF8000009B000BD7BB516
:104D1000A7B01546339C00F09EF8A8BF422040DAA9
:104D2000022227A907A8FCF7D7FB022228A900F036
:104D30003AF88DF82050022229A90DF12100FCF744
:104D4000CBFB02222EA900F08CF802222FA90DF134
:104D50002500FCF7C1FB022230A90DF12700FCF76A
:104D6000BBFB022231A90DF12900FCF7B5FB0222A1
:104D700032A90DF12B00FCF7AFFB34998DF82D40D3
:104D800032460DF12E00FCF7A7FBFFF787FF00F07E
:104D90006CF8123000F003F900284CBFFF209DF89A
:104DA00000002AB070BD0DF11E00FCF795BBFBB5ED
:104DB000A8B01546379C00F04EF8A8BF422048DA4C
:104DC000022228A907A8FCF787FB022229A9FFF7DE
:104DD000EAFF07AF02223D712AA90DF12100FCF77D
:104DE0007BFB022230A900F03CF8022231A90DF130
:104DF0002500FCF771FB022232A90DF12700FCF718
:104E00006BFB022233A90DF12900FCF765FB02229E
:104E100034A90DF12B00FCF75FFB359836998DF81E
:104E20002D0006220DF12E00FCF756FB38993C763A
:104E300032460DF13500FCF74FFBFFF72FFF00F076
:104E400014F8193000F0ABF800284CBFFF209DF893
:104E500000002BB0F0BDC4EBC40606F11900812898
:104E600070470DF12300FCF737BB3F20ADF804007D
:104E7000CDF814D09920ADF80600002107A80390C2
:104E8000C4EBC40070473F20ADF80C00CDF814D03F
:104E9000704700B58DB000F016F800F026F8BDF8A8
:104EA0004000ADF81200BDF8440000F027F800F013
:104EB00016F89C2000F030F800284CBFFF209DF829
:104EC00000000DB000BDADF80400ADF806108DF87F
:104ED0000820194606220DF10900FCF7FDBA3F2013
:104EE000ADF81C00CDF82CD070470E988DF80F004F
:104EF00018220F98ADF8100000217047ADF814008B
:104F00001298ADF816001398ADF818001498ADF883
:104F10001A0007A8FCF7E6BAADF81E00002101A8A8
:104F2000099018200A900F20089001200C9007A8E3
:104F3000FDF782B901B588B0FFF7B0FEFFF790FE2C
:104F40009D20ADF80600002108A8039001200490E0
:104F500000F02AF800284CBFFF209DF8000009B09F
:104F600000BD00B589B0FFF752FEFFF74AFE9F2053
:104F700000F007F800284CBFFF209DF8040009B09E
:104F800000BDADF80A000021032005900F2003901A
:104F900001A806900120079002A8FDF74DB9C0B204
:104FA00004900F2002900120069001A8FDF744B95B
:104FB0002DE9F04F80460FF2A47095B015461E46BD
:104FC000D0E90023CDE9132303AF00200391B8619A
:104FD0000DF1340900E065190020ADF8020013ABB3
:104FE0004FF0FF3229460DF1020001F05DF8044652
:104FF000012C04DA2878441EA441E443E40FBDF8F0
:10500000020025280CBFA4F1010BA346BBF1010F40
:105010000EDBAA461AF8011B0398C047002803902C
:1050200000F0DA80B869401CBBF1010BB861F1D126
:10503000BDF80200252804D10020F86038617861AD
:1050400005E00028C7D1B86906E340F0010015F873
:10505000011F2029F9D023290DD02B2904D02D2977
:1050600006D030290AD00CE040F0020080B2EEE712
:1050700040F00400FAE740F00800F7E740F01000C5
:10508000F4E72A290ED13168316051F8042B3160E0
:10509000002A3A6204D5514240F00400396280B2DD
:1050A0006D1C13E0002139620BE0396A6FF0004398
:1050B000994205D001EB810302EB4301303939629B
:1050C0006D1C2A78A2F130010A29EED329782E2905
:1050D00003D04FF0FF31F9611FE015F8011F2A29B5
:1050E00007D1316831606D1C51F8042B3160FA61D1
:1050F00013E00021F9610BE0F9696FF00043994278
:1051000005D001EB810302EB43013039F9616D1CDD
:105110002A78A2F130010A29EED3B8840FF2446054
:10512000297800F0D1FF08B115F8010B8DF8320095
:105130009DF83200682804BF2878682803D16220CF
:105140008DF832006D1C0DA8B86015F8014B252CA8
:1051500013D0582C4BD0632C00F0A380642C18BFC4
:10516000692C7CD06F2C42D0702C36D0732C0AD096
:10517000752C18BF782C3AD0B6E00120F8602520B5
:105180008DF83400BAE09DF832006C283068306049
:1051900018D050F8044B30607C60D7F81CA0BAF1EE
:1051A000000F04D5204600F09BFF824607E05246E0
:1051B0000021204600F0B0FF08B1A0EB040AC7F8B8
:1051C00010A09BE050F8042B306002A9404600F08C
:1051D0002DF9002840F192803CE23068306050F8B0
:1051E000041B306002910DA87860782155E09DF88D
:1051F00032006C280DD0712818BF6A2809D1306898
:10520000C01D20F007023260D2E90001083232608E
:1052100004E03168316051F8040B316002909DF870
:105220003200682802D102A8008803E0622802D177
:1052300002A80078029097F82400000728D5029869
:1052400030B344F02000782822D1F868302100F8EB
:105250000910401C411CF96000F8094018E09DF855
:105260003200314600F0BCF80028029002D5F86800
:105270002D2109E0B88C810702D5F8682B2103E0C5
:10528000C00705D5F868202100F80910401CF86017
:105290000DA8F96808187860214602A800F0DFF927
:1052A0002CE09DF832006C2809D00120F8603068AD
:1052B000306050F8041B30608DF834101EE0306808
:1052C000306001AA50F8041B3060ADF804100020D3
:1052D000ADF8060002A94FF0FF30F861404600F03B
:1052E000A5F800280AD577E70120F86025208DF879
:1052F00034001CB10220F86089F80140386AF9686E
:10530000401A7969401A3969441A97F8240040070D
:1053100011D42020012C8DF800000CDBA2460123C3
:105320006A4602A9404600F001FA00287FF454AF13
:10533000BAF1010AF3D1D7F80CB0BBF1000F0DF1AF
:10534000340A0DD01AF8011B0398C04700280390B7
:105350003FF442AFB869401CBBF1010BB861F1D119
:10536000D7F814A03020BAF1010F8DF800000BDB44
:1053700001236A4602A9404600F0D8F900287FF4CC
:105380002BAFBAF1010AF3D1D7F810B0D7F804A0C7
:10539000BBF1000F0DD01AF8011B0398C04700287D
:1053A00003903FF419AFB869401CBBF1010BB86121
:1053B000F1D197F8240040077FF50EAE2020012C94
:1053C0008DF80000FFF608AE01236A4602A94046A8
:1053D00000F0ACF900287FF4FFAE641EF4D1FBE5C9
:1053E000622815D068280CD06C2818BF742816D0F5
:1053F0007A2814D10A680A6052F8040B0A60002166
:1054000070470A680A6052F8040B0A6000B20BE0A9
:105410000A680A6052F8040B0A6040B204E00A68A5
:105420000A6052F8040B0A60C11770472DE9F44F67
:105430000D4694B02F6A002F804648BF6FF000479A
:1054400000F096FE696A401801900FF22030D0E912
:105450000023CDE9022395F82800400702D40198E3
:10546000412805D240200DF110090190002606E0E8
:1054700000F084FE5FEA0009F8D1EBE03F1B012F4A
:10548000C0F294801498018802AA0DF1010000F086
:10549000CDFE0028044600F19C801498008810B9C5
:1054A000641E00F19680A742C0F2808028690199AD
:1054B0002218914268D26E624042A969401A696915
:1054C000461A95F82800400710D42020012E8DF8A8
:1054D00000000BDBB24601236A462946404600F035
:1054E00025F9002875D1BAF1010AF4D1D5F810B028
:1054F000BBF1000FCA460CD01AF8011B6868C04700
:105500000028686065D0E869401CBBF1010BE861C8
:10551000F2D130208DF80000D5F818A0BAF1010FB3
:105520000ADB01236A462946404600F0FFF80028BE
:105530004FD1BAF1010AF4D1D5F814B0D5F808A0CA
:10554000BBF1000F0CD01AF8011B6868C047002897
:1055500068603ED0E869401CBBF1010BE861F2D104
:1055600095F8280040070DD52020012E8DF8000069
:1055700008DB01236A462946404600F0D7F840BBC5
:10558000761EF6D100262E61224628690DF1010112
:105590004844FCF7E9F92869201828611498801C10
:1055A0001490801E008800287FF468AF686A29691B
:1055B000401AA969401A6969471A95F828004007F6
:1055C0000FD4012F0DDB3C4668682021C04768607E
:1055D00010B94FF0FF3635E0E869401C641EE86101
:1055E000F2D12B694A462946404600F09FF8002830
:1055F000EFD1AC69012C0ADB68683021C047002874
:105600006860E6D0E869401C641EE861F4D16B690B
:10561000AA682946404600F089F80028D9D195F8B3
:10562000280040070CD5012F0ADB68682021C047FD
:1056300000286860CDD0E869401C7F1EE861F4D185
:105640002E616E6204A881451CBF484600F0FCFD37
:10565000304601E04FF0FF3015B0BDE8F08FF0B4F8
:10566000C2686F2908BF082405D041F02003782BB9
:1056700014BF0A24102418230668642918BF692956
:10568000374602D1002E48BF7F425FB9056A4DB947
:10569000082C27D190F82810090723D5302117238B
:1056A000D1751FE0B7FBF4F604FB16773037FFB275
:1056B0005D1E3A2FA4BFA1F1510C6744AF542B4695
:1056C000370003D085689E18B542EBD3082C09D16A
:1056D00090F82810090705D5995C302902D05B1E87
:1056E000302199549A188260C3F11801026A41610D
:1056F000914208DA511A81614FF6EF72018D114023
:105700000185F0BC7047002A0ED590F8282002F0E1
:105710001402102A08D1426A0369D21A8369D21A84
:10572000531A012BA8BF8361F0BC7047F8B504463B
:105730000D4616461F46002077B116F8011B686813
:10574000A047686030B1E869401CE86100207F1E16
:10575000F3D1F2BD4FF0FF30F2BD000000000000B9
:1057600000000000686C747A4C000000000000002B
:10577000000000000901002806D5314A00F00F00A2
:10578000801800F8041C70472E4A815470472E4937
:105790000A684FF6FF031A4000F0070042EA0020B3
:1057A0002A4A10430860704738B5274B1B68C3F37B
:1057B0000223C3F10704052C28BF04241D1D072D57
:1057C00034BF0023DB1E012505FA04F4641E2140CA
:1057D000994005FA03F35B1E1A401143BDE83440BB
:1057E000C8E7012100F01F029140194A04E001219D
:1057F00000F01F029140174A400942F820107047FC
:1058000010B5401EB0F1807F01D3012010BD124CB5
:1058100060600F214FF0FF30FFF7ACFF0020A06069
:1058200007202060002010BD012100F01F029140E0
:105830000A4AE1E7012100F01F029140084ADBE734
:1058400018ED00E000E400E00CED00E00000FA05D7
:1058500000E100E080E100E010E000E000E200E0B4
:1058600080E200E070B5040001D1012070BD04F1B8
:105870005C05687818B928702046FDF719F90220F0
:10588000687040F2017300F0FDF9E2689A4204D3B7
:105890000021B2F5706F05D106E0B2F5E06F4FF46C
:1058A000805101D00026A662266B26B99A422CBFF1
:1058B0000222012222636268A3681A4323691A4301
:1058C00063691A43A36903F400731A43E3691A4333
:1058D000236A1A43A36A1A430260226B022A03D185
:1058E000026842F400620260A269636A120C02F06C
:1058F00004021A43636B1A43E3681A43114341607D
:10590000E16A01610020686001206870002070BDBC
:105910003B4601220121304600F034B901684DF6C2
:10592000FF7211400160016841F40051016070474D
:105930002DE9F84F0646894692469B46FDF78DFEB7
:1059400006F15C04804620780025012808BF02206B
:1059500000F0F680012020706078012818BF022531
:1059600040F0E980B9F1000F1CBFBAF1000FBBF1A4
:10597000000F00F0DF80052006F1380760706560D9
:10598000C7F808A0A7F80EB0A7F80CB0C7F80090A9
:10599000A7F806B0A7F804B000F0E0F802D130682C
:1059A000FFF7BCFF40F20171F068884202D2F8892B
:1059B000022804DB3068426822F4805203E0306839
:1059C000426842F48052426030680268520603D452
:1059D000026842F040020260F068DDF828908842D8
:1059E0003AD3F98889B9F889F8B900F0B7F840F0E6
:1059F0008B804B46FFF78DFF00287CD1F168306823
:105A0000B1F5706F6ED1C0687CE030688268920733
:105A10000BD500F097F8491EF98089B2002904BF20
:105A2000B16AB1F5005F00F0A7F8F88958B13068A5
:105A30008168C90707D5B968C0680880881CB86044
:105A4000F889401EF88119F1010FCAD0FDF705FE53
:105A500000F08EF8C5D343E0F98811B9F889C0B9D0
:105A6000C3E730688268920713D5022903DB00F090
:105A700069F8891E04E0396800F074F8F988491E55
:105A8000F980F988002904BFB16AB1F5005F00F020
:105A900073F8F989E1B130688268D20718D5BA681D
:105AA00002290EDBC1681180911CB960F989891E39
:105AB000F98189B202290BDA416841F480514160D1
:105AC00006E0511CB960007B1070F889401EF88117
:105AD00019F1010FC0D0FDF7C0FD00F049F8BBD3AC
