:020000040800F2
:10000000F005002015500008854E0008874E0008B6
:1000100035500008395000083D500008000000002D
:10002000000000000000000000000000894E0008F1
:100030008B4E0008000000008D4E00088F4E000817
:100040004150000845500008495000089F4E0008E4
:100050004D50000851500008A34E000855500008AC
:10006000595000085D5000086150000865500008B4
:10007000695000086D500008715000087550000864
:10008000795000087D500008815000088550000814
:10009000895000088D5000089150000895500008C4
:1000A000995000089D500008A1500008A550000874
:1000B000A9500008AD500008B1500008B550000824
:1000C000B9500008BD500008C1500008C5500008D4
:1000D000C9500008CD500008D1500008D550000884
:1000E000A94E0008D9500008DD500008E150000872
:1000F000E5500008E9500008ED500008F1500008F4
:10010000F5500008F9500008FD50000801510008A2
:1001100005510008095100080D510008115100084F
:1001200015510008195100081D51000821510008FF
:1001300025510008295100082D51000831510008AF
:1001400035510008395100083D510008415100085F
:1001500045510008495100084D510008515100080F
:1001600055510008595100085D51000861510008BF
:1001700065510008695100086D5100080000000039
:1001800071510008755100082DE9F04F80460FF2BB
:10019000A47095B015461E46D0E90023CDE913237F
:1001A00003AF00200391B8610DF1340900E0651937
:1001B0000020ADF8020013AB4FF0FF3229460DF1DD
:1001C000020000F0C3FB0446012C04DA2878441E28
:1001D000A441E443E40FBDF8020025280CBFA4F1BC
:1001E000010BA346BBF1010F0EDBAA461AF8011B57
:1001F0000398C0470028039000F0DA80B869401CDB
:10020000BBF1010BB861F1D1BDF80200252804D182
:100210000020F8603861786105E00028C7D1B8692E
:1002200006E340F0010015F8011F2029F9D0232929
:100230000DD02B2904D02D2906D030290AD00CE06E
:1002400040F0020080B2EEE740F00400FAE740F030
:100250000800F7E740F01000F4E72A290ED13168D2
:10026000316051F8042B3160002A3A6204D55142C2
:1002700040F00400396280B26D1C13E00021396245
:100280000BE0396A6FF00043994205D001EB81031E
:1002900002EB4301303939626D1C2A78A2F130013A
:1002A0000A29EED329782E2903D04FF0FF31F961C6
:1002B0001FE015F8011F2A2907D1316831606D1C34
:1002C00051F8042B3160FA6113E00021F9610BE071
:1002D000F9696FF00043994205D001EB810302EB0D
:1002E00043013039F9616D1C2A78A2F130010A29E5
:1002F000EED3B8840FF24460297800F037FB08B1E0
:1003000015F8010B8DF832009DF83200682804BF03
:100310002878682803D162208DF832006D1C0DA862
:10032000B86015F8014B252C13D0582C4BD0632CFA
:1003300000F0A380642C18BF692C7CD06F2C42D0B5
:10034000702C36D0732C0AD0752C18BF782C3AD06C
:10035000B6E00120F86025208DF83400BAE09DF861
:1003600032006C283068306018D050F8044B306090
:100370007C60D7F81CA0BAF1000F04D5204600F02D
:1003800001FB824607E052460021204600F016FBA2
:1003900008B1A0EB040AC7F810A09BE050F8042BAA
:1003A000306002A9404600F02DF9002840F192800B
:1003B0003CE23068306050F8041B306002910DA8B8
:1003C0007860782155E09DF832006C280DD07128B6
:1003D00018BF6A2809D13068C01D20F007023260BA
:1003E000D2E900010832326004E03168316051F82E
:1003F000040B316002909DF83200682802D102A8F7
:10040000008803E0622802D102A80078029097F8E1
:100410002400000728D5029830B344F02000782843
:1004200022D1F868302100F80910401C411CF96005
:1004300000F8094018E09DF83200314600F0BCF8A1
:100440000028029002D5F8682D2109E0B88C8107B8
:1004500002D5F8682B2103E0C00705D5F8682021F4
:1004600000F80910401CF8600DA8F96808187860B9
:10047000214602A800F0DFF92CE09DF832006C283C
:1004800009D00120F8603068306050F8041B3060FB
:100490008DF834101EE03068306001AA50F8041B5B
:1004A0003060ADF804100020ADF8060002A94FF04E
:1004B000FF30F861404600F0A5F800280AD577E73C
:1004C0000120F86025208DF834001CB10220F8606E
:1004D00089F80140386AF968401A7969401A39691F
:1004E000441A97F82400400711D42020012C8DF8DD
:1004F00000000CDBA24601236A4602A9404600F038
:1005000001FA00287FF454AFBAF1010AF3D1D7F809
:100510000CB0BBF1000F0DF1340A0DD01AF8011B1D
:100520000398C047002803903FF442AFB869401CCD
:10053000BBF1010BB861F1D1D7F814A03020BAF1AA
:10054000010F8DF800000BDB01236A4602A940462B
:1005500000F0D8F900287FF42BAFBAF1010AF3D1EB
:10056000D7F810B0D7F804A0BBF1000F0DD01AF8DF
:10057000011B0398C047002803903FF419AFB869E6
:10058000401CBBF1010BB861F1D197F82400400782
:100590007FF50EAE2020012C8DF80000FFF608AE8E
:1005A00001236A4602A9404600F0ACF900287FF416
:1005B000FFAE641EF4D1FBE5622815D068280CD08C
:1005C0006C2818BF742816D07A2814D10A680A60DB
:1005D00052F8040B0A60002170470A680A6052F85A
:1005E000040B0A6000B20BE00A680A6052F8040BC0
:1005F0000A6040B204E00A680A6052F8040B0A601C
:10060000C11770472DE9F44F0D4694B02F6A002FA3
:10061000804648BF6FF0004700F0FCF9696A401857
:1006200001900FF22030D0E90023CDE9022395F8A4
:100630002800400702D40198412805D240200DF13E
:1006400010090190002606E000F0EAF95FEA0009CF
:10065000F8D1EBE03F1B012FC0F294801498018881
:1006600002AA0DF1010000F033FA0028044600F15F
:100670009C801498008810B9641E00F19680A742EF
:10068000C0F28080286901992218914268D26E6276
:100690004042A969401A6969461A95F8280040073E
:1006A00010D42020012E8DF800000BDBB246012370
:1006B0006A462946404600F025F9002875D1BAF16E
:1006C000010AF4D1D5F810B0BBF1000FCA460CD026
:1006D0001AF8011B6868C0470028686065D0E8699F
:1006E000401CBBF1010BE861F2D130208DF8000015
:1006F000D5F818A0BAF1010F0ADB01236A46294692
:10070000404600F0FFF800284FD1BAF1010AF4D1B9
:10071000D5F814B0D5F808A0BBF1000F0CD01AF82A
:10072000011B6868C047002868603ED0E869401C2B
:10073000BBF1010BE861F2D195F8280040070DD517
:100740002020012E8DF8000008DB01236A4629468F
:10075000404600F0D7F840BB761EF6D100262E6149
:10076000224628690DF10101484400F0BFF92869CB
:10077000201828611498801C1490801E008800287E
:100780007FF468AF686A2969401AA969401A6969E3
:10079000471A95F8280040070FD4012F0DDB3C467F
:1007A00068682021C047686010B94FF0FF3635E017
:1007B000E869401C641EE861F2D12B694A4629466B
:1007C000404600F09FF80028EFD1AC69012C0ADB0D
:1007D00068683021C04700286860E6D0E869401C9E
:1007E000641EE861F4D16B69AA682946404600F0AE
:1007F00089F80028D9D195F8280040070CD5012F99
:100800000ADB68682021C04700286860CDD0E8690D
:10081000401C7F1EE861F4D12E616E6204A8814500
:100820001CBF484600F09EF9304601E04FF0FF3013
:1008300015B0BDE8F08FF0B4C2686F2908BF082476
:1008400005D041F02003782B14BF0A24102418236C
:100850000668642918BF6929374602D1002E48BFAF
:100860007F425FB9056A4DB9082C27D190F828104E
:10087000090723D530211723D1751FE0B7FBF4F604
:1008800004FB16773037FFB25D1E3A2FA4BFA1F1EB
:10089000510C6744AF542B46370003D085689E182F
:1008A000B542EBD3082C09D190F82810090705D5DB
:1008B000995C302902D05B1E302199549A188260CD
:1008C000C3F11801026A4161914208DA511A81614B
:1008D0004FF6EF72018D11400185F0BC7047002A80
:1008E0000ED590F8282002F01402102A08D1426A8E
:1008F0000369D21A8369D21A531A012BA8BF8361E4
:10090000F0BC7047F8B504460D4616461F46002059
:1009100077B116F8011B6868A047686030B1E869D4
:10092000401CE86100207F1EF3D1F2BD4FF0FF3084
:10093000F2BD00000000000000000000686C747A46
:100940004C0000000000000000000000F8B5044664
:100950000D4616461F4600F045F93B4632462946ED
:10096000204601B0BDE8F04000F053B90278C9B2AA
:100970008A421AB11CBF10F8012FF9E718BF0020F6
:100980007047000000F10103810704D010F8011B3B
:1009900089B18107FAD10268B2F10131914311F0B6
:1009A000803F04BF50F8042FF6E710F8011B11B187
:1009B00010F8011BFBE7C01A70470000C9B283079B
:1009C00006D0521E22D310F8013B9942F7D11FE006
:1009D000083A13D302F1040241EA012141EA01413C
:1009E00050F8043B121F21BF4B40A3F1013C2CEAFD
:1009F000030C1CF0803FF3D0C9B2001F083210F87E
:100A0000013B521E28BF91EA030FF8D818BF0120FE
:100A1000401E704780B500F0E5F8012002BD0000DF
:100A200070B5054605F10F00C408C046C046E40095
:100A3000A54232D2082C04D2082402E0083000F08B
:100A400091F82248026811000CD1011D0A6802B316
:100A50001368A34238BF111DF8D310E01D68A542EA
:100A60000DD2191D0B68002BF8D11268011D00E092
:100A7000191D0B6893420CD01D68A542F8D361B1D3
:100A80000D682A68A2F10803A3420AD26A680A60C4
:100A90000FE000F0E1F80028D0D1C046C0460020A9
:100AA00070BD63190B60121B6E685E600B681A6084
:100AB0002C60096800291DBF4A68002A091D002111
:100AC0000160C046C04605F1080070BD7C0E0020E4
:100AD00070B504460D46164600F084F832462946A5
:100AE0002046BDE8704000F087B8000062B38B0775
:100AF00008D0521E11F8013B00F8013B00F02480A1
:100B00008B07F6D1830740F0208000BF103A07D34F
:100B100030B4B1E83810103AA0E83810F9D230BC3F
:100B2000530724BFB1E80810A0E8081044BF51F8EB
:100B3000043B40F8043BD20724BF31F8022B20F8D5
:100B4000022B44BF0B7803707047083A07D3B1E813
:100B50000810083A40F8043B40F804CBF7D253079A
:100B6000E4E7000000B9704738B5A0F10804206838
:100B7000082833D310F0070F30D1C046C0461848BC
:100B8000416809B18C4203D26160446017E01946A4
:100B90004B680BB1A342FAD30B685D18AC421BD370
:100BA000A54204D12268D2180A600C4607E04A68C0
:100BB0001AB123681B199A420ED362604C606168B7
:100BC00051B1226813198B4206D1002303600868D3
:100BD0008018206048686060C046C04631BD000093
:100BE0007C0E002080B5DFF80C0000F04BF8806927
:100BF00002BD00008001002030B430B90FF248007F
:100C0000D0E90045C2E900451BE00170012030BC7D
:100C1000704730B431B90FF23800D0E90045C3E96C
:100C200000450EE01AB930BC6FF00100704708B102
:100C30000A7802800978481E804130BCC043C00F4A
:100C40007047002030BC704700000000000000002A
:100C500000000000000000000749086808B10020FB
:100C600070470648C008C00008600549C908C900A7
:100C7000091A0160704700BF8C0E0020F7050020A4
:100C8000F007002070470000DFF8BC16012848700C
:100C900000D0704780B500F001F801BD70472DE924
:100CA000F041DFF8A446064620780F4608B14620FA
:100CB0002AE00EB1380001D1F12025E0DFF88C8662
:100CC00090220021404600F09FFBDFF88456282246
:100CD0000021284600F098FB20223146404600F0D3
:100CE0008DFBAF60284600F099FB08F12800012138
:100CF00001700221417000F0D9FB1020A87311206F
:100D0000E873012020700020BDE8F08130B585B087
:100D100000F0EAFB050060D10DF1120104A800F01B
:100D20001DFB9DF81010DFF82446DFF82806312956
:100D300002DB0121017002E0007801280DD104F1ED
:100D40002400019004F1200304F122000090072206
:100D50000021012000F01CFD08E004F1240304F14F
:100D6000220204F12001012000F042FD050034D1EF
:100D7000207800F0F0FD05002FD1A078637DE178A8
:100D80000390221DA0690290207D0190A07D00901B
:100D9000607800F0F3FD05001FD1A07818B100F0D5
:100DA000A0FE050019D1DFF8A805018A99B10A2132
:100DB0008DF80410123018218DF8051000900923C9
:100DC000012201A9012000F0AAFB050005D100F0D5
:100DD000F8F9050001D1002004E00FF2CC5000F03A
:100DE000E5FE284605B030BD38B5DFF85C45207813
:100DF00008B9012032BD00F076FB607801283BD1B4
:100E0000DFF84C55DFF84405A97B102906D02029CE
:100E10000FD0402916D0502922D02AE0FFF776FFC4
:100E2000002807BF2020FF2110201F21E973A8738D
:100E300022E0687B297B88421BD13020A8733120B7
:100E4000E87319E0E97B402913D142788178C08C9E
:100E500000F010FE10B15020A8730AE0422007E015
:100E6000E97B562905D1C08C00F00FFC08B957204A
:100E7000E8730020FFF708FF607832BDDFF8D00488
:100E8000807B7047DFF8C804C07B704738B500F03E
:100E900053FA01E00098694600F0FFFA0098A84272
:100EA00004D0007AA042F5D1002032BD412032BDED
:100EB00010B504001CBFE068002801D1F12010BD6E
:100EC000204600F029FA38B1DFF88404817B10292C
:100ED00002D1C17B1F2901D1412010BD018A628A44
:100EE00011430182017B491C0173214600F0ACFAD9
:100EF000002010BD10B5040001D1F12010BD00F09C
:100F00000BFA08B1412010BD204600F0A7FADFF827
:100F10004004017B491E0173002010BD10B504463A
:100F200000F0FAF9002804BF207C002801D04120FD
:100F300010BDDFF81C04417B491C41730120207463
:100F4000FFF7A2FE002010BD38B5DFF804540C46B0
:100F5000A97B302903D100F0DFF900B9EC7331BD72
:100F600010B5DFF8EC43A07B502818BF40280AD109
:100F7000DFF8D803C08C132100F0C9FD18B9552043
:100F8000E073002010BD412010BD10B5DFF8C04354
:100F9000A27B01464120402A12BF502AE27B442A0C
:100FA00009D1DFF8A803C08C00F018FD00280CBFA1
:100FB00047214021E17310BDDFF8901391F82820FC
:100FC0005318521C83F82900D2B25318000A83F830
:100FD0002900501C81F8280070472DE9FC474FF08C
:100FE00000098DF80490002480460120FFF74CFE94
:100FF00098F80000042808F1010740F0E0803978F3
:10100000DFF84803DFF84863DFF84CA3052904D074
:101010003E2916D0FF2943D0B1E0B27BB91C402A4B
:1010200011BF502AB1F80120C08C8242F4D1087857
:1010300018B93020B0733120F073012408780525E9
:101040002BE0B91C0A78012A02BF4F1CB17B302962
:10105000E2D13978D1B9B7F80110C184007F0128F5
:1010600002D14020402105E0022807BF402039215D
:1010700050205121B073F173062238798AF80000AC
:10108000791D0AF1010000F0B9F903E03020B073D6
:101090003120F0730124387802258DF804006EE0C9
:1010A000B91C0A88521E10D04FF48063D21A1BD08C
:1010B000521E36D0521E41D0521E44D040F2FE7312
:1010C000D21A4CD00E3A4DD059E0881C0178012933
:1010D00001BFB17B10291221F1730078401E012459
:1010E0008DF8040001254AE0B27B891C402A18BF14
:1010F000502A44D18A7852B1007F012802D1402081
:10110000402206E0022802D14020392201E050208E
:101110005122B073F273012488788DF804000425FD
:101120002DE0B27B402A18BF502A28D14420F0730A
:101130000022B36800210320984720E0C08C0121E1
:1011400000F062FC1BE0B17B402904BFF17B422927
:1011500015D1407800280CBF472043200EE0FFF750
:10116000FFFE0CE0B07BBAF80890502801BFF07B7E
:10117000572840F20B10814501D15120F073002017
:10118000B8F1000F00900ED06946304606E0C16805
:1011900008001CBF404688470098694600F07DF96A
:1011A0000098B042F3D124B1B36801AA0121E8B29A
:1011B0009847B9F1000F1CBF0020AAF80800BDE84D
:1011C000F38770B5624C88B0207CC00706AD0CD5A3
:1011D00023208DF8180008232A20687006AA04F13D
:1011E000140000F07DF806006CD1207C800708D543
:1011F000242000F06EF804F1160000F07FF80600DD
:1012000060D1207C400708D5252000F062F804F169
:10121000180000F073F8060054D1207C000708D5B0
:10122000262000F056F804F11A0000F067F80600D6
:1012300048D1207CC00608D5272000F04AF804F1E8
:101240001C0000F05BF806003CD1207C800608D52D
:10125000282000F03EF804F11E0000F04FF80600D0
:1012600030D1207C400608D5292000F032F804F166
:10127000200000F043F8060024D1207C00060FD5A2
:101280002A208DF818006870202304F122000590B0
:1012900006AA01200490012100F026F8060011D1D1
:1012A000208AC0050CD550208DF8180007232A206D
:1012B000687006AA04F1240000F012F8060001D1BB
:1012C000002004E00FF2081000F070FC304608B077
:1012D00070BD8DF8180020232A20687006AA704778
:1012E00005900121002004900A2003900020029024
:1012F000019002200090608A00F046B9059001211B
:10130000012004900A200390002002900190022006
:101310000090608A00F038B938B500F00DF800E0B0
:10132000694600F0BAF80098A84203D0A042F7D16D
:10133000002032BD412032BD0446002000906946A5
:10134000034D2846704700007A0E0020600B0020F5
:10135000E80D0020920E0020700E00203EB50546DC
:1013600001A800900C460DF10A0302AA0DF1060136
:101370000DF1090000F09AFDC0B2A0B9BDF8061049
:10138000090A2970BDF8061009022180BDF8042061
:101390001206120F41EA02112180BDF8042002F06A
:1013A0000F02114321803EBD4572726F7220776833
:1013B000696C6520696E697469616C697A696E67C8
:1013C000206D61696E2070726F66696C652E0A000F
:1013D0005B4449535D204572726F72207768696C77
:1013E0006520616464696E6720636861726163741B
:1013F00065726973746963732E0A000010B5044640
:10140000FFF774FB204610BD10B5044610460A468F
:101410000146204600F092FD204610BD006040606D
:101420007047EFF3108172B6026882420CBF012050
:1014300000201CE0EFF3108272B603680B60486076
:101440000160086841602DE0EFF3108272B6086019
:1014500043684B6041604868016023E0EFF310810E
:1014600072B6436802681A6042680068426081F39D
:101470001088704738B50C46EFF3108572B60168D6
:1014800021600068FFE7FFF7E9FF2168002008609E
:101490002168486085F3108831BDEFF3108272B681
:1014A0000068086082F310887047000000207047D1
:1014B00038B5044615460B4600222946012000F0A7
:1014C0000BFF054860433F21B0FBF1F1287800F0A5
:1014D0004EFF002032BD000040420F0080B500F0FA
:1014E0001EFF002002BD704700B587B000F012F962
:1014F00000F001F940F20110ADF80600002100F003
:1015000009F800284CBFFF209DF8000007B000BD7F
:10151000C0B204900120069001A800F019BC70B57B
:101520008CB001288DF81C0014460CBF0226102632
:101530001D4632460DF11D00FFF760FF701C07A924
:10154000C0B203224454441CE4B2684665540021EE
:10155000FFF75AFF00F0DEF800F0CDF84FF481708D
:1015600000F062F8601CC0B204900320FFF7D3FFC4
:10157000002848BFFF2005D49DF8000010B910993D
:1015800000F049F80CB070BDF1B58EB00D461646AE
:101590001F4602220EA900F0C4F807AC012DA57069
:1015A00031460CBF022510252A4600F0A0F8E81CA1
:1015B000C0B2411C0755C9B214980855491C15986A
:1015C000C9B203220855491C1698C9B20855491CCE
:1015D0001798C9B24D1C0855EDB21898285500F05F
:1015E0001FF800F097F800F086F84FF4827000F0D2
:1015F0001BF8681CC0B204900320FFF78CFF002882
:1016000048BFFF2005D49DF8000010B9199900F0DB
:1016100002F80FB0F0BDBDF801000880002070474F
:1016200000216846FFF7F0BEADF80600002107A8CC
:101630000390704733B51C46A01DA7B081281546FE
:10164000A8BF42201FDA022227A900F06AF802226E
:1016500028A900F06BF82C998DF820508DF82140C6
:10166000224600F023F800F055F800F044F84FF45B
:101670008370FFF7D9FFA01DFFF74AFF00284CBF7A
:10168000FF209DF8000029B030BD00B589B000F002
:1016900025F800F00FF840F20B1000F011F80028C8
:1016A0004CBFFF209DF8000009B000BD0DF12200E5
:1016B000FFF7A4BE3F20ADF80800CDF818D0704762
:1016C000ADF80A00002101A80490022005900F2027
:1016D00003900120079002A800F03ABB1822ADF851
:1016E0000400002102A8FFF78FBE224619460DF123
:1016F0001F00FFF783BE3F20ADF80400CDF814D0E3
:101700007047ADF80600002107A80390E01DC0B2A5
:10171000049070471822002101A8FFF775BE02222D
:1017200028A907A8FFF76ABE022229A90DF11E0009
:10173000FFF764BE73B5A8B015462E9CE01D812846
:101740001E46A8BF42201CDAFFF7E9FFFFF7ECFFB7
:101750002F998DF820508DF821608DF82240224677
:1017600000F012F8FFF7D6FFFFF7C5FF4FF49370B4
:10177000FFF7C7FFFFF7CEFE00284CBFFF209DF804
:1017800000002AB070BD10990DF12300FFF736BE9E
:1017900010B58AB08DF800008DF801108DF8022088
:1017A0001C46072200F0CCF900F0D0F800F0E4F974
:1017B0008A20ADF80E0000210320069001A80790B2
:1017C000072000F0BFF8002848BFFF200ED49DF886
:1017D000040058B9BDF8050020800C99BDF8070039
:1017E00008800D99BDF80900088000200AB010BDDE
:1017F00070B58AB00C468DF8080015461E460722C3
:1018000000F06BF900F0A2F800F09EF98A20ADF824
:101810000E00002102A8059001200690072000F08C
:1018200091F8002848BFFF200CD49DF8000048B96B
:10183000BDF801002080BDF803002880BDF8050038
:10184000308000200AB070BD00B587B000F077F995
:1018500000F057F9812000F06AF900284CBFFF2002
:101860009DF8000007B000BD76B592B000F04FF8CB
:1018700028BF42201BD200F052F800F02AF89DF851
:10188000600000F02CF800F035F800F01AF800F0D5
:1018900010F800F054F900F034F9832000F047F814
:1018A00000F07EF900284CBFFF209DF8000014B026
:1018B00070BDA41CE4B207A802221EA92018FFF7DD
:1018C0009DBD6419E4B207A802221DA92018FFF7E4
:1018D00095BD022213A90DF11F00FFF78FBD1A99C4
:1018E0008DF822008DF821608DF823502A4609A832
:1018F000FFF784BD05F10800C0B207A9451C445498
:10190000EDB21C9907A822462818FFF777BD199D4C
:101910001B9C54FA85F10E3129291E4670478DF81B
:101920001C00022212A90DF11D00FFF767BDADF8E2
:101930000600002107A80390A01CC0B204907047C5
:1019400006900120089003A800F002BA1822002196
:1019500003A8FFF759BD00B589B018228DF804001F
:1019600000F084F800F0B3F8852000F069F8002852
:101970004CBFFF209DF8000009B000BD30B58FB00E
:101980008DF81C008DF81D1014461D4610222146AE
:1019900000F0EEF8129814998DF82F008DF82E5063
:1019A000182213988DF830000DF1310001600021EC
:1019B00015988DF8350001A8FFF726FD00F0A1F875
:1019C000862000F07EF81A20049000F0E9F8002844
:1019D0004CBFFF209DF800000FB030BD00B589B0AE
:1019E0001822ADF804000DF106000160FFF7AFFF0B
:1019F00000F0AAF8882000F0ADF800284CBFFF20C6
:101A00009DF8000009B000BD00B589B000F029F8CC
:101A100000F021F8892000F007F800284CBFFF20D3
:101A20009DF8040009B000BDADF80A0000210320B4
:101A3000059001A806900120079002A800F088B93F
:101A4000ADF80A00002101A804900120059007903C
:101A500002A800F07DB93F20ADF80800CDF810D005
:101A60007047ADF800008DF802101822002102A87E
:101A7000FFF7CABC00B589B0ADF800008DF80210C0
:101A80008DF803200021182202A8FFF7BDFCFFF704
:101A9000E2FF8D20ADF80A000021042005900F2000
:101AA000039001A8069000F007F800284CBFFF2023
:101AB0009DF8040009B000BD0120079002A800F0C5
:101AC00047B9ADF80600002107A8039070473F20F2
:101AD000ADF80800CDF818D0704700216846FFF730
:101AE00093BC00B587B000F02AF800F00AF8922005
:101AF00000F01DF800284CBFFF209DF8000007B043
:101B000000BD3F20ADF80400CDF814D0704700B5FB
:101B100089B0FFF7A6FFFFF79EFF932000F032F891
:101B200000284CBFFF209DF8040009B000BDADF8AF
:101B3000060000210120069001A800F009B9182232
:101B4000002101A8FFF760BC3F20ADF80C00CDF8E4
:101B50001CD07047ADF80E00002101A805900620AA
:101B600006900F2004900120089003A800F0F0B820
:101B70000DF11E00FFF742BC3F20ADF80C00CDF880
:101B800014D07047ADF80A000021032005900F2003
:101B9000039001A806900120079002A800F0D8B891
:101BA0000120069001A800F0D3B800000EB400B5E3
:101BB00082B003A9009102466B4601210348784494
:101BC0000A30FEF7E1FA06BC5DF810FB2534000090
:101BD00038B5B14C201DFFF721FC04F10C00FFF7D4
:101BE0001DFC00258C2010FB054000F11401201D78
:101BF000FFF72AFC6D1C052DF4DB31BD00F1080157
:101C00000A78042A01D00120704790F8880089786A
:101C1000C01E814214BF02200020704710B5A2B040
:101C20000020009000F05BFD9B4C10E0694604F141
:101C30000C00FFF71FFC00F04FFD00980830FFF785
:101C4000CCF900F04CFD0099201DFFF7FDFB04F1DD
:101C50000C00FFF7E6FB0028E8D0207850B90EE032
:101C6000802201A98D4800F09BFCC0B210B101A8F0
:101C7000FFF7B3F900F08AFC0028F1D1207000F0E2
:101C80002BFD22B010BD38B50020009000F02AFDD9
:101C9000824C814D04E0281DFFF7CCFB00F022FDB3
:101CA00000F074FC18B3281DFFF7BBFBD8B96946D8
:101CB000281DFFF7DFFB009800F108018022204675
:101CC00000F06EFCC0B200280099E4D081F88800D2
:101CD0000098FFF793FF00280099DCD105F10C0074
:101CE000FFF7B2FBDAE70120287000F0FBFC31BD02
:101CF00000F0FCBB30B5890583B0890D41EA802036
:101D0000ADF80400144601208DF800001D468DF842
:101D10000640032201A90DF10100FFF76FFB2346E6
:101D2000042229466846FFF7E3FF37BD38B504466D
:101D30000D4607E069462846FFF79CFB00992046C0
:101D4000FFF782FB2846FFF76CFB0028F2D031BD7D
:101D50002DE9F041044686B060884F4F88468005E3
:101D60002188800D40EA81254D4800680A21B0FB9A
:101D7000F1F600200090ADB202A8FFF74FFBE0683B
:101D8000A3686188C2B22088FFF7B4FFB8F1000FE2
:101D900059D106B90126314604A800F0C1FC05E07E
:101DA000009902A8FFF750FB00F096FC04A800F091
:101DB000BFFC002867D107F10C00FFF732FB0028B9
:101DC000F4D100F08CFC694607F10C00FFF752FBE0
:101DD000009800F1080210780428E1D100985278A8
:101DE00000F10B0190F88800C01E0E2A37D00F2A90
:101DF00004D0102A47D03E2A38D008E04A88AA42A8
:101E000041D162680F2A15D0087800283BD100998B
:101E100002A8FFF719FB381DFFF703FB0028C3D00A
:101E200001A907F10C00FFF725FB0199381DFFF709
:101E30000BFBB9E762699042C8BF10466061024679
:101E40002069FFF7DBFA0099381DFFF7F3FA00F07D
:101E500029F800F041FC002006B0BDE8F081B1F89F
:101E60000120AA420FD1C91CC01EE3E70A786368AB
:101E70009A42CCD16269401E9042C8BF1046606150
:101E80000246491CDCE700F00DF800F025FC4FF09D
:101E9000FF30E1E700000000F0070020700C002098
:101EA0003050000802A907F10C003FE7F0B589B0F7
:101EB00000F024F800F032F800F035F8042000F0CB
:101EC00038F8012000F01FF8002848BFFF2013D485
:101ED0009DF8000080B99DF801002070BDF8020057
:101EE00028809DF804003070BDF8050038800E99F8
:101EF000BDF807000880002009B0F0BD04460D467B
:101F000016461F467047ADF80E00002100200590D0
:101F100006900920089003A81AE704460922002128
:101F20006846FFF771BA1822002103A8FFF76CBAC0
:101F30000820ADF80C00CDF81CD0704762F30F22DA
:101F400062F31F42401810F0030308D0C91A1FD3D0
:101F5000DB0748BF00F8012D28BF20F8022D130031
:101F600030B414461546103928BF20E93C00FAD891
:101F7000490728BF20E90C0048BF40F8042D89001C
:101F800028BF20F8022D48BF00F8012D30BC704753
:101F9000C91818BF00F8012DCB0728BF00F8012D84
:101FA000704700002DE9F041DFF80464DFF8048495
:101FB000044630781425082815FB048709D13078A9
:101FC00070703470082038744FF6FF70F080002075
:101FD00039E000F06AF8B96811FA80F1B960B968BF
:101FE000327815FB0282926891421AD3327802E06D
:101FF00015FB0282127C15FB02831B7C082B04D08C
:1020000015FB03839B689942F2D215FB02810B7C7E
:10201000082B1CBF15FB0385EC733B74FA730C741F
:1020200011E031783378994215FB018206D0D37BD9
:1020300015FB03852C743974FB7300E03974D47379
:10204000317871703470BDE8F081F0B5D84BD94D5E
:102050001E781424B04214FB005204D11878587032
:10206000107C18700BE0D07B167C177C14FB0050A2
:10207000082E077403D0D07B14FB0654E0730120B4
:1020800010731878082802BF00294FF6FF70D88017
:10209000F0BDC749C96809684FF6FF7000E0886A5B
:1020A0008A6A9042FBD180B2704710B5C04CE0887C
:1020B0004FF6FF71884211D0FFF7EBFFE1888142B4
:1020C000E18828BF081A04D2228912FA81F1081A7D
:1020D000401C21794843E178C84000E0002080B2EC
:1020E00010BD2DE9F843B24CE568286881684905C0
:1020F00002D5C1684907FCD48168DFF8B88221F4B1
:10210000806181604FF01409277819FB0780866889
:10211000FFF7CBFF864238BF002608D3618910FA4B
:1021200081F1B14202D26689002101E0361A012113
:10213000A17001E08A600F7C082F08D019FB07818D
:102140008A68824232BF00228A68121AF2E7B6B267
:102150003EB9FFF79EFFE0800320BDE8F24300F0A8
:102160004DBB022E02DAE078012800D0761E2868E6
:10217000C1684907FBD500F0A6F88F490860032025
:1021800000F042FBE5682868B6B24661FFF781FFC0
:10219000E0802868816841F480618160BDE8F18356
:1021A0002DE9F041EFF3108872B68148C1680968E3
:1021B0008A6822F480628A60CA6802F0800262F44F
:1021C0009062CA604FF480117B4A11601422057836
:1021D000784912FB0516317B02291ED13768B47B82
:1021E0008078C0B1707B01280AD101212846FFF711
:1021F0002CFF88F310887168284600F0B8F804E0D6
:1022000088F31088284600F095F83A46294620467B
:1022100000F089FB03E0FFF764FF88F31088BDE856
:10222000F08138B5624CE0600168896801F007010F
:10223000C1F10401E17002681269120C02F07F0220
:10224000521C2271D2B203681B695B045B0C2381B0
:102250005B1E5A430A41A2F110014FF6FF729142F0
:102260002CBF628161810121A170E2800021514A6D
:102270000023142515FB0125491C08292B73F8DBC5
:102280000821217000684D4D816821F480618160D2
:1022900000F019F86861032000F0B6FAE068006801
:1022A000816841F4804181600022A86840F4801078
:1022B000A8600321286840F4801028600320BDE84E
:1022C000384000F05BBAC16801F0800161F49061B0
:1022D000C1604FF480107047F0B50024EFF3108513
:1022E00072B61426334F06FB047C9CF80CC0BCF17C
:1022F000000F02D0641C082CF5DB082C0BD006FB69
:1023000004760127377385F31088B07372733360D6
:102310000C700020F0BD85F310880120F0BD10B5D1
:10232000044600F007F82349142212FB0411002090
:10233000087310BD38B5054600F042F81D48142159
:1023400011FB0500007B02280BD100212846FFF776
:102350007CFE17480178407888421CBF0829FFF7A7
:10236000C0FE032000F027FA84F3108831BDF8B5D1
:1023700006460F4600F024F80E48142111FB06050E
:1023800002202873AF606F603046FFF70BFE0849EC
:102390000A784978914202D0FFF7A3FE02E0A968CB
:1023A000081AA860032000F006FA84F31088F1BD33
:1023B000600E0020C00A0020140401400004014007
:1023C000EFF3108472B6032000F0FBB90068C74930
:1023D000884200D0704700B5C54887B0016841F019
:1023E00001010160016801F001010091009901689B
:1023F00041F002010160016801F0020100910099C1
:1024000000F061F800F05FF8416941F480514161EA
:1024100001A9406900F48050009000984FF480704A
:10242000019001200290039000200490059000F09C
:1024300049F900224FF4807100F04AF90820019018
:1024400001A902200290039003200490052005902A
:10245000A84800F085FA402000F027F8802000F01E
:1024600024F80220019001A90120029000F014F844
:1024700000F02CF90120019001A99F480290002052
:1024800000F00AF800220321062000F077F9062068
:1024900000F091F907B000BD0390032004900020E4
:1024A00005904FF0904000F05BBA019001A9022026
:1024B00002900020039003200490052005904FF027
:1024C000904000F04DBA016841F0010101600168DF
:1024D00001F0010100910099016841F001010160E2
:1024E000016801F001010091009970472DE9F04168
:1024F00004468248DFF8088284B00D4600680A214D
:10250000B0FBF1F116461F4601A800F009F9F8B238
:102510000090F3B22A462146404600F087F820B1E9
:1025200001A800F005F90028F1D0BDE8FF8174484A
:102530006E4901604FF482714160002181604FF467
:10254000E061C1600021016141614FF4007181616E
:102550000021016241620721C1620821C16100219D
:10256000816200F005BB80B500224FF4807100F05D
:10257000AFF8052000F054FD01224FF4807100F007
:10258000A7F8BDE80240052000F04ABD80B5012152
:102590004FF0904000F0C2FA012818BF002002BDA1
:1025A0002DE9F04186B005460E46FF2017468DF80E
:1025B000050004A80FF250110CC90CC0002200F055
:1025C00086F80F200090052302AA04A900F077F8EE
:1025D0009DF808000024022819D19DF80C009DF8F0
:1025E0000B1051EA002812D047450DDAB8460BE02F
:1025F0000F200090012301AA0DF1050100F05FF802
:102600009DF80400A055641CE4B24445F0DB00F0E2
:102610005DF8002002E000BF0098401C0090009888
:102620000228F8DB204606B0BDE8F0812DE9F04332
:10263000884691461E460FF2D801C5B005460CC922
:1026400003A80FF2D4010CC00CC901A800270CC0CC
:10265000062000F0B6F8002200F039F80F200090B4
:10266000052301AA03A900F02AF89DF80400022816
:102670001AD14C9C9DF8050054FA86F1884210DB73
:1026800036B10F200090334605AA414600F017F8F6
:1026900064B10F200090234605AA494600F00FF8C8
:1026A00004E06FF0010701E04FF0FF3700F00EF893
:1026B000062000F080F8384645B0BDE8F083284693
:1026C00000F0BCBA4FF0904000F04AB9012202215C
:1026D0004FF0904000F028BA062000F06CB80620B9
:1026E00000F06FB8074901200860704700300140D2
:1026F0004C10024000040048000011103050000847
:10270000700C0020140401400B00000000000000C9
:102710000A00000000000000AA0000000000000005
:1027200010B504466160FFE700F08AFC206010BD30
:1027300010B5044600F084FC22686168801A401CD1
:1027400081428041C00F10BD0901002806D5314AE1
:1027500000F00F00801800F8041C70472E4A8154C6
:1027600070472E490A684FF6FF031A4000F0070031
:1027700042EA00202A4A10430860704738B5274BC8
:102780001B68C3F30223C3F10704052C28BF0424EC
:102790001D1D072D34BF0023DB1E012505FA04F49F
:1027A000641E2140994005FA03F35B1E1A40114351
:1027B000BDE83440C8E7012100F01F029140194AEA
:1027C00004E0012100F01F029140174A400942F83D
:1027D0002010704710B5401EB0F1807F01D301205A
:1027E00010BD124C60600F214FF0FF30FFF7ACFFBF
:1027F0000020A06007202060002010BD012100F013
:102800001F0291400A4AE1E7012100F01F029140B6
:10281000084ADBE718ED00E000E400E00CED00E022
:102820000000FA0500E100E080E100E010E000E0D7
:1028300000E200E080E200E038B500F0CBFB00F001
:1028400001FC00F063FC414C1C22002104F1240037
:10285000FEF7DAFD3E4DE86B40F00100E8632868C2
:1028600040F080502860286800F080500090009868
:1028700000F026FD00F024FDA86B20F4407040F429
:102880000070A863A86B40F40040A8633148206042
:10289000002084F82000012084F82100204600F068
:1028A00059FD0120A0604FF6FF70E060204600F067
:1028B00069FD2168CA2048625320216848620321CB
:1028C000204600F0D1FDE86BC0F340000028FAD0AC
:1028D0002046FFF7A6FC0023012204F13C01002062
:1028E000FFF7FAFCFFF723FE00F040FE00F0EEFDDC
:1028F00054F82C0F8047002000F0C1FD04E00220B6
:1029000000F038FE00F063FEFFF788F9A06880470A
:10291000FEF76AFA0028F5D1E0688047002814BF66
:1029200008210621EBE7EFF3108150B90A4A1F2076
:10293000106072B609480278521C027081F3108848
:102940007047100018BF104770470000740D00203A
:10295000581002400028004018700040900E0020DF
:102960002DE9F8470022784BDFF8E081DFF8E091AD
:102970004FF00F0A30E005FA0EFE4EEA040448F864
:102980002C406FEA070C1C680CEA040E4C68E40348
:1029900048BF47EA0E0EC3F800E05C680CEA040E7C
:1029A0004C68A40348BF47EA0E0EC3F804E09C68D5
:1029B0000CEA040E4C68E40248BF47EA0E0EC3F866
:1029C00008E0DC680CEA040C4C68A40248BF47EA43
:1029D0000C0CC3F80CC0521C0F6837FA02F400F05C
:1029E0009B804FF0010C0CFA02F42740F3D04D68A5
:1029F000022D18BF122D11D1D50800EB850C02F065
:102A00000706DCF820504FEA860E0AFA0EF6B543A8
:102A10000E6906FA0EF63543CCF820504FEA420C08
:102A20000326056806FA0CF66FEA060E0E7906F024
:102A300003060EEA050506FA0CF635430560E44385
:102A40004D68012D18BF022D03D0112D18BF122D76
:102A50000FD18568CE680EEA050506FA0CF63543F7
:102A6000856045684E68C6F300162540964035439C
:102A700045604D6805F00306032E06D1C66AC5F30E
:102A8000C005344095402C43C462C4680EEA040E6D
:102A90008C6804FA0CF444EA0E04C4604C68E40048
:102AA00099D5D9F8004044F00104C9F800404FEA34
:102AB000920CD9F8004004F00104009402F00305E0
:102AC000009C58F82C404FEA850E0AFA0EF5AC43EC
:102AD000B0F1904F08BF00251DD01E4DA84208BF81
:102AE000012518D01C4DA84208BF022513D01B4D4C
:102AF000A84208BF03250ED0194DA84208BF0425DF
:102B000009D0184DA84208BF052504D0164DA8428B
:102B10000CBF062507252EE7BDE8F18700690840B0
:102B200018BF0120C0B27047002A14BF81618162C2
:102B300070470E4A1368034200D1704780B5106099
:102B400000F074FD01BD00000004014008000140D8
:102B5000601002400004004800080048000C0048D3
:102B600000100048001400480018004814040140F8
:102B700070B5040001D1012070BD04F15C056878D6
:102B800018B928702046FFF721FC0220687040F237
:102B9000017300F0FDF9E2689A4204D30021B2F516
:102BA000706F05D106E0B2F5E06F4FF4805101D0AF
:102BB0000026A662266B26B99A422CBF0222012269
:102BC00022636268A3681A4323691A4363691A433C
:102BD000A36903F400731A43E3691A43236A1A438F
:102BE000A36A1A430260226B022A03D1026842F4EC
:102BF00000620260A269636A120C02F004021A43C6
:102C0000636B1A43E3681A4311434160E16A01614F
:102C10000020686001206870002070BD3B460122E2
:102C20000121304600F034B901684DF6FF721140C1
:102C30000160016841F40051016070472DE9F84FCF
:102C40000646894692469B4600F0E7F906F15C0489
:102C5000804620780025012808BF022000F0F68079
:102C6000012020706078012818BF022540F0E9801B
:102C7000B9F1000F1CBFBAF1000FBBF1000F00F05B
:102C8000DF80052006F1380760706560C7F808A08E
:102C9000A7F80EB0A7F80CB0C7F80090A7F806B0D8
:102CA000A7F804B000F0E0F802D13068FFF7BCFFED
:102CB00040F20171F068884202D2F889022804DBF0
:102CC0003068426822F4805203E03068426842F47F
:102CD0008052426030680268520603D4026842F0B3
:102CE00040020260F068DDF8289088423AD3F98803
:102CF00089B9F889F8B900F0B7F840F08B804B46F5
:102D0000FFF78DFF00287CD1F1683068B1F5706F56
:102D10006ED1C0687CE03068826892070BD500F005
:102D200097F8491EF98089B2002904BFB16AB1F54C
:102D3000005F00F0A7F8F88958B130688168C907CA
:102D400007D5B968C0680880881CB860F889401E3B
:102D5000F88119F1010FCAD000F05FF900F08EF888
:102D6000C5D343E0F98811B9F889C0B9C3E7306821
:102D70008268920713D5022903DB00F069F8891EE7
:102D800004E0396800F074F8F988491EF980F98880
:102D9000002904BFB16AB1F5005F00F073F8F9894A
:102DA000E1B130688268D20718D5BA6802290EDB13
:102DB000C1681180911CB960F989891EF98189B2B5
:102DC00002290BDA416841F48051416006E0511C50
:102DD000B960007B1070F889401EF88119F1010F6D
:102DE000C0D000F01AF900F049F8BBD3032528E061
:102DF00000F034F8306B02280CD14B46FFF70FFF80
:102E000020B1606840F002006060EFE73068007B4E
:102E100000F025F830688168C90607D5616841F07F
:102E20000201616001254FF6EF718160494630462D
:102E300000F0B4F810B12020606001E0606800B1DB
:102E4000012501206070002020702846BDE8F28F27
:102E50003A6832F8023BC3603A607047007BADF8D5
:102E60000000BDF800007047B06AB0F5005F704721
:102E7000491C3960491E097801737047A0EB0800AE
:102E80004845704703D1016841F4805101607047A3
:102E90002DE9F04104460D4690461F4600F0BDF86E
:102EA0000646206880682840404516D017F1010F7B
:102EB000F7D027B100F0B1F8801BB842F1D300F091
:102EC00043F807D1A168B1F5004F18BFB1F5806F85
:102ED00000F043F800F047F800E00020BDE8F08182
:102EE0002DE9F04182B004460D4616461F4600F01B
:102EF00094F88046206881682940B14221D0B5F518
:102F0000C06F08BF002E04D1007B8DF800009DF833
:102F1000000017F1010FEDD02FB100F07EF8A0EB0B
:102F20000800B842E6D300F00FF807D1A168B1F568
:102F3000004F18BFB1F5806F00F00FF800F013F8E4
:102F400000E00020BDE8F6812068416821F0E00142
:102F500041606168B1F5827F704703D1016821F05B
:102F6000400101607047A16AB1F5005F08D10168B6
:102F70004DF6FF7211400160016841F4005101609B
:102F800004F15C00012141700021017003207047B1
:102F90002068016821F040010160704738B50D4696
:102FA00004462B4600224FF4C051FFF799FF10B999
:102FB00000F00AF808B100F001F832BD206E40F0D0
:102FC00020002066032070472B46002280212046E7
:102FD0005EE7000080B50320FFF7C3FB0F2000F081
:102FE00005F800F002F8002002BD704710B5044655
:102FF000114800684FF47A71B0FBF1F0FFF7EAFB7B
:10300000002221464FF0FF30FFF7B8FB002010BD33
:103010000A480168491C0160704708480068704709
:1030200038B50446FFF7F9FF0546FFF7F6FF401BEA
:10303000A042FAD331BD000000000020840E002021
:10304000FFF7EBBF00B597B001A8142100F0FEFA1E
:103050000FF2780106A891EC100B80EC100B1A48C7
:10306000016841F080510160006800F080500090DC
:1030700000981020069001200C9060200E900020F7
:103080000D9002200F900120109011902820129096
:1030900002201590072013900420149006A800F039
:1030A000D9FA00B1FEE70F2001900421032002901D
:1030B000002003900490059001A800F0C0FC00B12E
:1030C000FEE717B000BD00005810024000000000ED
:1030D00000000000000000000000000000000000F0
:1030E00000000000000000000000000000000000E0
:1030F00000000000000000000000000000000000D0
:1031000000000000000000000000000010B5604852
:10311000604C86B0016841F48041016001A9206DD6
:1031200040F080502065206D00F0805000900098A5
:10313000206840F400402060606E400840006066F7
:10314000606E20F002006066606E20F00400606631
:10315000606E20F008006066606E20F0100060660F
:10316000606E20F020006066606E20F040006066B7
:10317000606E20F080006066606C40F0010060646A
:10318000606C00F0010000F095F840F0020060640F
:10319000606C00F0020000F08DF840F00400606404
:1031A000606C00F0040000F085F840F008006064F6
:1031B000606C00F0080000F07DF840F010006064E2
:1031C000606C00F0100000F075F840F020006064C2
:1031D000606C00F0200000F06DF840F0400060648A
:1031E000606C00F0400000F065F840F08000606422
:1031F000606C00F080000090009803200290049022
:10320000002003904FF6FF7001902348FFF7A8FBC2
:1032100001A92248FFF7A4FB01A92148FFF7A0FB61
:1032200001A92048FFF79CFB01A91F48FFF798FB65
:1032300001A91E48FFF794FB01A91D48FFF790FB69
:1032400001A94FF09040FFF78BFB606C40084000F5
:103250006064606C20F002006064606C20F0040028
:103260006064606C20F008006064606C20F0100006
:103270006064606C20F020006064606C20F04000AE
:103280006064606C20F08000606406B010BD0000D7
:1032900000200240081002400004004800080048D6
:1032A000000C0048001000480014004800180048B6
:1032B000001C004800900098606C70477047000048
:1032C0001B48016841F480710160704710B50C46DD
:1032D00018490028086804D1800506D500F00AFDC9
:1032E00003E0800558BF00F0FFFC1348016821F09F
:1032F00004010160012C0FBF30BF40BF20BF20BFC1
:1033000010BDB0F5804F084608BF00F01CBD00F0AE
:1033100009BD07480168C908C90041F003010160FF
:103320000548016841F00401016030BF70470000AA
:10333000007000401470004010ED00E08A60FF2132
:1033400002685162012180F82110002180F82010CC
:103350000020704790F82010012901D10220704709
:10336000012180F82010022180F82110CA21026872
:10337000516253210268516201688A6842F020025A
:10338000FFF7DCBF38B5040011D094F8210020B954
:1033900084F82000204600F045F800F038F8FF25BA
:1033A0000028206805D04562042084F8210001200F
:1033B00032BD8168DFF87820114000F034F862688F
:1033C00023691A43A3691A43114381602168E068A5
:1033D000086120680169A26841EA02410161206830
:1033E000C16821F08001C1602068C16C8908890032
:1033F000C1642068C16CE26963691A431143C16406
:1034000020684562012084F82100002032BD02209E
:1034100084F82100CA20216848625320216848624C
:10342000204607E07047816020688168704700008F
:10343000BFFF8FFF38B504462068C168490611D424
:103440004FF0FF31C160FFF7E8FD05462068C06816
:10345000400607D4FFF7E1FD401BB0F57A7FF5D9B0
:10346000032032BD002032BD00688268D20841EAE4
:10347000C20181607047000080B5032003E080B581
:1034800035490870022000F073F801BD3248007819
:103490007047000070B50446801E03280D4616468E
:1034A0000CD8DFE800F008040802012004E02B48F3
:1034B000FDF76BFD02E00320FFF7E1FF32462946EE
:1034C0002046BDE87040264B5B68184710B584B0B5
:1034D00001A80021002206C0FEF77AFBFFF743F89F
:1034E0001F49204C096801A888470DF10201684670
:1034F000FDF734FFFFF737F89DF800003128A4BF2F
:1035000003208DF8090001AA0621002000F04EFCDE
:103510000421012000F075FC202200212046FDF747
:1035200073FF03202070002060700120A070002035
:10353000E0702075082060751020A0750748A06114
:103540000020207701190871401C1028FADB204662
:103550000549FDF7A4FB1FBD910E002007B2010035
:10356000980D0020300E00209534000800F07EBC3D
:1035700070470000F0B5EFF3108272B6294BDF6898
:103580001D685E689C684FF0010C0CFA00F0082979
:1035900008BF074314D05FEA417E6FEA000C4CBFBE
:1035A0000CEA050505435FEA817E4CBF0CEA06067E
:1035B0000643C9070CEA07074CBF0CEA040404439E
:1035C0009C605E601D60DF6082F31088F0BD38B5DE
:1035D000EFF3108472B61348C16801BB016821B1D2
:1035E00001210020FFF772FE19E081680E4D41B9FC
:1035F000C046C0461F202860FFF78BFEC046C0466D
:103600000DE01F212960406820B101210020FFF753
:1036100078FE02E0012000F0ADFBFFF74FFE84F3DF
:10362000108831BD500E00201870004080B501494F
:1036300002E000BF187000401F200860FEF723FB67
:10364000BDE8044008210220FFF794BF002200F0EB
:10365000C7BC00002DE9F8430446DFF8585620782F
:10366000DFF84866C00626D5B06810F00C0F3AD1D6
:103670003068800702D5A069002832D03068000782
:103680004EBF30686868000900F0F001206A81428E
:1036900006D200F0CFFA002823D100F0BEF905E0F1
:1036A00000F0BBF9206A00F0C5FAD0B900F06BFA5F
:1036B000B26800F054FA2078C00774D500F0A9F978
:1036C000082808D000F0A5F90C2802BFF06800F027
:1036D000030003282AD13068800364D5606800287D
:1036E00061D101208AE1A0690028306810D040F043
:1036F000010000F085F907463068800705D4FFF720
:103700008CFCC01B0328F7D375E100F086F9D2E7E3
:103710004008400000F074F9074630688007CAD5B9
:10372000FFF77BFCC01B0328F7D364E100F06BF9C3
:1037300020F4802000F064F907463068800305D546
:10374000FFF76BFCC01B6528F7D354E16068B0F548
:10375000803F07D0B0F5A02F00F055F906D140F416
:1037600080203060306840F4803001E020F4802018
:103770003060606858B1FFF750FC0746306880033E
:1037800011D4FFF74AFCC01B6528F7D333E1FFF7DC
:1037900044FC07463068800305D5FFF73EFCC01B9C
:1037A0006528F7D327E12078800719D500F031F993
:1037B000042808D000F02DF90C2802BFF06800F0B2
:1037C0000300022822D13068400502D5E0680028B5
:1037D00087D07068216920F0F85040EA016070607D
:1037E0002078000741D56069002868682ED040F035
:1037F00001006860FFF711FC07466868800734D451
:10380000FFF70BFCC01B0328F7D3F4E0E0680028A7
:1038100030680DD040F4807000F0F2F80746306850
:103820004005D6D4FFF7F9FBC01B0328F7D3E2E02D
:1038300020F4807000F0E4F8074630684005CFD5EA
:10384000FFF7EBFBC01B0328F7D3D4E04008400090
:103850006860FFF7E2FB07466868800705D5FFF759
:10386000DCFBC01B0328F7D3C5E02078400766D5F2
:10387000B06DC0004FF000080AD4B06D40F0805029
:10388000B0654FF00108B06D00F0805000900098D6
:10389000DFF82494D9F80000C00512D4D9F800004C
:1038A00040F48070C9F80000FFF7B7FB0746D9F86D
:1038B0000000C00505D4FFF7B0FBC01B0328F6D3FA
:1038C00099E0A06801280CD008B928680DE0052807
:1038D00028680AD1400840002860286840F00400A9
:1038E0002860286840F0010005E04008400028609A
:1038F000286820F00400286041F28939A06858B196
:10390000FFF78BFB07462868800711D4FFF785FB7C
:10391000C01B4845F7D36EE0FFF77FFB07462868DA
:10392000800705D5FFF779FBC01B4845F7D362E058
:10393000B8F1000F03D0B06D20F08050B065606A20
:1039400000285AD0B16801F00C010C293FF4C9AE2F
:103950000228306820F08070306038D1FFF75DFBBE
:1039600007463068800105D5FFF757FBC01B0328C9
:10397000F7D340E0E06A216B401E090241EA0010E3
:10398000616B090940EA4140A16A0843A16B891EA5
:103990000905490D40EA4150E16B891E090601F015
:1039A0007E410843F060306840F080703060F0681D
:1039B00040F08070F060FFF730FB07463068800110
:1039C0001BD4FFF72AFBC01B0328F7D313E0F068D2
:1039D000DFF8E81280088000F060F0680840F060CE
:1039E000FFF71BFB07463068800106D5FFF715FB84
:1039F000C01B0328F7D3032000E00020BDE8F283BA
:103A00003060FFF70ABB306820F4803030603068E7
:103A10007047B06800F00C007047306840F0080054
:103A200030603068216A20F0F00008433060706830
:103A3000E16920F47F4040EA0120706070472DE981
:103A4000F843DFF87C6204463068884600F00700DF
:103A5000404502D200F08DF864D12078DFF84C7236
:103A6000800705D5B868A16820F0F0000843B86069
:103A70002078C0074ED56068022802D139688903D2
:103A800008E0032802D13968890103E00028396879
:103A900002D1890702D445E0490543D5B9688908B0
:103AA00040EA8100B86041F28939FFF7B6FA05466D
:103AB000606802280AD1B86800F00C00082829D0F4
:103AC000FFF7ABFA401B4845F5D321E003280AD1A4
:103AD000B86800F00C000C281CD0FFF79EFA401BC1
:103AE0004845F5D314E048B9B86810F00C0F11D070
:103AF000FFF793FA401B4845F6D309E0B86800F099
:103B00000C00042806D0FFF788FA401B4845F5D37F
:103B1000032022E0306800F00700804504D200F066
:103B200028F801D0012018E02078400705D5B868B2
:103B3000E16820F4E0600843B8602078000706D50B
:103B4000B868216920F4605040EAC100B86000F014
:103B50001AF8BA6800F003F80020BDE8F28359496A
:103B6000C2F30312515CC840514908600F20FFF7AF
:103B70003DBA3068C00848EAC0003060306800F0E4
:103B800007004045704749498B680022002013F028
:103B90000C0F09D08B6803F00C030C2B02BFCB6811
:103BA00003F00303012B13D10A68120704D4464A19
:103BB0001268C2F3032202E00A68C2F30312434B05
:103BC00053F822208B6813F00C0F0ED110460CE036
:103BD0008B6803F00C03042B08BF3D4805D08B68AD
:103BE00003F00C03082B08BF3A488B6803F00C0362
:103BF0000C2B1ED1C868CB68C3F302135B1C00F00A
:103C00000300022802D0032802D005E0304800E07B
:103C10003048B0FBF3F001E0B2FBF3F0CA68C968CA
:103C2000C1F34161C2F30622491C50434900B0FB75
:103C3000F1F0704770B5284E82B005463068002418
:103C4000C00002D500F04AF80EE0306840F0805025
:103C50003060306800F080500090009800F03EF82E
:103C6000316821F080513160B0F5007F04D1812DA1
:103C70000DD3A12D0AD305E0812D28BF032406D240
:103C8000802D01D1022402E0702D00D101240C48C6
:103C90000168C90844EAC1010160006800F007003A
:103CA000A04214BF0120002076BD00000010024099
:103CB000000000209010024000700040FFFFEEFE68
:103CC000002002406C4C0008941002407C4C00081C
:103CD0000024F40000127A0058100240DFF8BC0003
:103CE000006800F4C06070472C48016841F48041CE
:103CF0000160704729482A4A016821F48041016027
:103D000028490968B1FBF2F13222514300E0491E13
:103D100011B142699205FAD4406980054CBF032075
:103D2000002070471D490A68D208D2000A600128A5
:103D30001D490A6842F004020A600FBF30BF40BF4D
:103D400020BF20BF11E015490A68D208D20042F016
:103D500001020A60012814490A6842F004020A605C
:103D60000FBF30BF40BF20BF20BF086820F0040055
:103D70000860704709490A68D208D20042F002027E
:103D80000A60012808490A6842F004020A600FBF6D
:103D900030BF40BF20BF20BFE7E7000000700040F9
:103DA00040420F000000002010ED00E010B50C466E
:103DB0001146A21CA8B0812AA8BF42201FDA8DF8A4
:103DC0001C008DF81D4022460DF11E00FDF716FB6C
:103DD00000F03BF800F033F80C20ADF806000021AD
:103DE00007A80390A01CC0B204900120069001A86F
:103DF000FDF7AEFF00284CBFFF209DF8000028B063
:103E000010BD00B589B08DF804008DF8051018229A
:103E1000002102A8FDF7F8FA00F022F80F2000F0C8
:103E200019F8022005900120079002A8FDF790FFE5
:103E300000284CBFFF209DF8000009B000BD3F20C6
:103E4000ADF80400CDF814D070471822002101A865
:103E5000FDF7DABAADF80A00002101A80490704716
:103E60003F20ADF80800CDF818D07047554841699B
:103E700011B90FF239010160416811B90FF27901EE
:103E80004160816811B90FF27D018160C16811B98B
:103E90000FF27D01C160016909B94B4901614169B6
:103EA00011B90FF2810141610BE000001CB50FF266
:103EB000281218CA6946062218C16946FDF79EFAFB
:103EC00013BD10B5414C1C2200212046FDF79CFA81
:103ED00000202070022060700820A0701020E07088
:103EE0000020E08005202072002004EB4001488182
:103EF000401C0928F9DB10BD082804BF0120FFF78A
:103F0000BEBA704704223249FF2000F083B8000097
:103F100080B5042000F000F9BDE80240002000F068
:103F2000C2B800002DE9F04184B0FFF7AFFA0124D8
:103F30000028EFF31086234F244D3FD0012804D0F2
:103F4000032812D009280CD01BE0E869012804D10D
:103F5000387EFEF7EFF90020E861FFF7D9FF022075
:103F60000CE0FCF7FDFF002008E0E86928B9387E86
:103F700043F60161FEF7FBF9EC610520FFF77FFADC
:103F80001CE0144F3878C0B100F094FB804672B644
:103F90000020387086F310880520FFF770FA08F0CB
:103FA0001F003C30A88084B0294668461C22FCF7DC
:103FB000ADFD0FBC00F0D7F800E00024204604B0AF
:103FC000BDE8F081980D002001450008100E00208A
:103FD00095340008900E0020123401E180020000A8
:103FE00000B500BF130096469446103928BFA0E8DC
:103FF0000C50FAD85FEA417C28BF0CC048BF40F89B
:10400000042BC90728BF20F8022B48BF00F8012B5A
:1040100000BD0000F8B504460F4615460220FCF727
:1040200035FF08B9F020F2BD380001D1F120F2BD12
:10403000DFF86866342200213046FDF7E5F9FF21FC
:10404000301DC1750021C18081750760E10706F14F
:10405000240706D5002141F00101C180072DB8BF1A
:104060003D73A10703D5C18841F00201C18014222C
:10407000002106F11C00FDF7C7F9022038700FF28D
:104080007D307860002038724020788106F11C0075
:10409000FCF70EFF30B9102000F014F9102000F0EA
:1040A00016F90020F2BD70B5DFF8F05529784124EB
:1040B000302904BF697831292CD100281EBFDFF8D0
:1040C000E005807800280FF2AD560ED00322302193
:1040D000202000F001F904001CD105F11B0231463B
:1040E0000A20FDF7E5F932200DE0002230212020E2
:1040F00000F0F2F804000DD105F11B0231461E203C
:10410000FDF7D6F9352000F0E2F8332105F11C0067
:10411000FCF71AFF204670BD3EB501A9002200231E
:104120000CC1DFF87845A17AC90719D52178202973
:1041300018BF302914D1072812DA84F8300000F0B3
:104140004EF9FDF777FA05000BD100F0ADF8608A63
:104150008DF80600000A8DF8070000F0AEF800E0C8
:10416000412528463EBD0FB470B58CB003A8202170
:10417000FFF76CFA01A80021002206C0DFF81C45F9
:1041800020780025402804BF6078412840F08680D0
:104190000120A0701E2203A8FDF736F99DF840000B
:1041A000020003A904D1BDF844204A7002230DE0A7
:1041B00001285ED19DF80C2042F001028DF80C2000
:1041C0000323BDF844204A70120A8A70A27E82B18D
:1041D0009DF80C2042F004028DF80C209DF841203F
:1041E0003AB1022A45D19DF80C2042F002028DF826
:1041F0000C20A27A920712D59DF842207AB1082AA3
:1042000037D19DF80C2042F008028DF80C20BDF843
:1042100046205A545B1CDBB2120A5A545B1C9DF8B0
:10422000432042B3102A24D19DF80C2042F0100202
:104230008DF80C200922012808BF08229DF80C00E7
:10424000000744BF521ED2B29DF848009042B8BF4A
:104250000246EDB295420EDA10AE06EB4500DBB237
:10426000408958545B1CDBB2000A58545B1C6D1C1F
:10427000EFE7422014E003A80090DBB2E189A089B7
:104280000022FDF7D7F9050009D100F00DF8E0890B
:104290008870000AC87000F010F800E04125284638
:1042A0000CB070BC5DF814FBA08963688DF8040045
:1042B00001A9000A487001AA704700200871052171
:1042C00009201847DFF8D4130870FFF7D5B8DFF8D6
:1042D000CC134870FFF7D0B870B58CB004460D46CB
:1042E000164607A80FF2BC311022FCF70FFC002184
:1042F0000691059100960023DFF8A40300F129013F
:1043000090F828000390049107A802902A461020F4
:10431000019021460020FDF7A7FA0CB070BD10B542
:10432000DFF8784388B060890423C10748BF0623BB
:10433000800744BF9B1CDBB241F60D00ADF81800AE
:10434000012204F10C00009006A90120FDF7E7F816
:1043500000283ED142F63720ADF818001E2304F1A4
:104360000E00059006AA0120049001210A20039066
:10437000002002900190102000F02DF8002828D194
:1043800042F63820ADF81800012304F1120000F0C5
:104390002DF8002002900190022000F01CF8C0B916
:1043A00000F01DF80022FDF745F990B9A17A8907C0
:1043B0000FD542F63920ADF81800012304F114009E
:1043C00000F014F80220029000200190082000F074
:1043D00002F808B010BD0090A089FDF7D5B804F12F
:1043E000300000900123618AA0897047059006AAD9
:1043F0000020049001210A20039070473EB500215F
:104400008DF80810411C007804280FD10878A34CBF
:10441000FF25052804D03E281CD0FF2832D037BD08
:104420002078302803D160783B2802D037BD40285F
:10443000FCD188780028F9D13020FFF743FF3120E4
:10444000FFF745FF0020A076A070E07EFDF746F85C
:10445000E57637BD881C01780129E7D110F8011FE6
:1044600071B9B0F801002081E07EFDF737F8E576FC
:10447000FCF704FD502816D03B20FFF728FF37BD7E
:104480003120FAE7881C40F201420188914204D0B1
:1044900040F6134291420BD037BD2078302804BF3C
:1044A00060783B28C2D14020FFF70CFF4120E4E7B1
:1044B000801C4188027940798DF80800A08A401C50
:1044C000814201BF2078402860784128AED19DF814
:1044D000083020890092012B02AB01930BD10023FD
:1044E0000022FDF727F90028A0D1636800220021EF
:1044F0000B20984737BD80230122FDF71BF937BDFC
:1045000038B500208DF80000644C2078102804D0C5
:10451000202825D0302834D09AE0FCF7AFFC2028A2
:10452000FAD1FFF7FCFE8DF8000060B904F11C0021
:10453000FCF7F4FC41F60D00FCF73EFD2020FFF7F0
:10454000C1FEFF2082E000F086F80020FFF7BAFEEF
:10455000FF20FFF7BCFE04F11C00FCF7CBFC77E06A
:10456000FCF78CFC302873D1FCF78CFC31286FD120
:104570003020FFF7A7FE3120FFF7A9FE00F06BF80F
:1045800066E060780FF2ED0533280AD0342812D0A7
:10459000362823D037282BD039283FD03B284DD080
:1045A00056E0FDF751F900288DF8000050D100F0D9
:1045B00057F834204AE0002230212020FFF78CFEFB
:1045C00000288DF8000043D100F04FF83520FFF7A8
:1045D0007EFE04F11B0229461E201CE0FDF734F983
:1045E00000288DF8000033D100F03AF837202DE094
:1045F00000224FF47A614FF4C860FFF76DFE8DF82A
:10460000000028BB00F031F83820FFF760FE04F10D
:104610001B0229463C20FCF74BFF19E0FDF714F97B
:104620008DF80000A0B93120FFF751FE00F018F816
:104630006368002200210720984709E0FCF722FC6C
:10464000552805D14020FFF73DFE4220FFF73FFEF1
:104650009DF8000032BD63686A46012108201847B2
:10466000312104F11C00FCF76FBC332104F11C0064
:10467000FCF76ABC0948017830290DD1407832280E
:1046800004D0352804D0382804D07047332002E005
:10469000362000E039201AE670470000B40D0020F3
:1046A000600B00200948656172745261746553653E
:1046B0006E736F72F8B5344F3846FCF7E3FA044670
:1046C000381DFCF7DFFA054607F10800FCF7DAFAB7
:1046D000064607F10C00FCF7D5FA23782B492C4A43
:1046E000002B40D12B6802FB03132B60082702FB31
:1046F00003132B6002FB03132B6002FB03132B60DD
:1047000002FB03132B6002FB03132B6002FB03135A
:104710002B6002FB03132B600346D5F800C002FB9D
:104720000C1CC5F800C043F804CB7F1ED5F800C0B0
:1047300002FB0C1CC5F800C043F804CBD5F800C040
:1047400002FB0C1CC5F800C043F804CBD5F800C030
:1047500002FB0C1CC5F800C043F804CBDDD1C36FCD
:104760003360012323702B6802FB03112960317829
:1047700001F01F0150F8212032602A6840F8212002
:10478000306880008008F2BDEC0000205FF36E3CD2
:104790000D66190010B4364A0021134653F8084B31
:1047A000844205D1002342F8313002EBC10113E00D
:1047B00053F8084B491C84421EBF491C53F8084B50
:1047C00084421EBF491C53F8084B8442EAD0491C5E
:1047D0001029E3D310BC70474B6010BC704770B415
:1047E000234C0023254655F8086B8E4209D101461B
:1047F00004EBC303012A04BF5A685118596070BC06
:10480000704755F8086B5B1C8E421EBF5B1C55F849
:10481000086B8E421EBF5B1C55F8086B8E42E6D0BB
:104820005B1C102BDFD370BC704710B4104A002102
:10483000134653F8084B844204D102EBC10010BC6C
:104840004068704753F8084B491C84421EBF491CFE
:1048500053F8084B84421EBF491C53F8084B84424E
:10486000EBD0491C1029E4D310BC00207047000095
:10487000F00B00202DE9F04104460D46207803217D
:10488000084216461F4658D0204600F09AF80028E5
:1048900053D115B1D5E900018619012F3DD12088EA
:1048A000C00416D5A16904F13D02204600F0A6F827
:1048B000626A804602B92269E168204600F09EF8EB
:1048C000A6EB08010E1AA26AE168204600F096F8ED
:1048D000361A46BB20884FF4405108420ED060681B
:1048E000E0602061A06260616068E06204F13D0008
:1048F000A06104F12400E061002060622DB1D5E9DF
:10490000020104F13002C2E9000120884CF6FF6187
:10491000084020800020BDE8F081022F03D04FB96D
:1049200016F1010F09D094F903003A46314600F020
:104930006AF8064616F1010FCCD100F08BF823215E
:1049400001604FF0FF30BDE8F081000038B500F0A5
:1049500087F80446208880042ED5656809E04A1B44
:10496000294600F07FF810F1010F18BF00280CD085
:104970004519E16894F903008D42F0D3002200212B
:1049800000F070F810F1010F0DD16068E060606117
:10499000E062208840F400702080204600F061F83A
:1049A0004FF0FF3032BD6568E5606561E5624DF648
:1049B000FF71208808402080204600F052F8002037
:1049C00032BDF8B5A0B9C046C04600240A4D08263D
:1049D0004FF0FF37286820B1FFF7B8FF002848BF25
:1049E0003C462D1D761EF5D1C046C0462046F2BD80
:1049F000BDE8F240AAE70000C4000020914234BFA5
:104A0000501A0020704730B583B004000D00012A11
:104A100002D1FFF70AFF07E0022A07D10094002025
:104A2000019069460C20ABBE2D1801E0002A0CD184
:104A30000094019569460A20ABBE002805D10022EA
:104A400021002800FFF7CBFE01E00020C04303B0A7
:104A500030BD00000148FCF715B90000EC01002052
:104A60007047704780B5002802D400F003F802BDFB
:104A7000002002BD80B5002901D1002002BD01281F
:104A800001D0022802D100F004F802BD00F011F8B4
:104A900002BD30B583B00C001500012000F032F8E3
:104AA00000900194029569460520ABBE281A03B018
:104AB00030BD10B584B0030014000093019102943E
:104AC00069460520ABBE01221900201AFFF787FEB8
:104AD00004B010BD80B500F033F802000023DB43C2
:104AE0001068984204D011000220ABBE0020106074
:104AF0005068984204D0111D0220ABBE00205060C7
:104B000001BD000010B584B0040000F019F8A10048
:104B1000421810680021C94388420DD107A00090B7
:104B2000002C01D1002000E004200190032002901D
:104B300069460120ABBE106004B010BD3A74740029
:104B400000487047E400002010B50446E068616941
:104B5000884252D3218849F202020A40022A08D030
:104B600008044CBF4FF400704FF484400843208089
:104B70003CE001F4C041B1F5C04F06D1A1688842C4
:104B800003D32046FFF71DFF80BB20884FF4406110
:104B9000084202BF606804F13D01884217D14FF41A
:104BA0000070FBF73DFF606030B904F13D006060CC
:104BB000E060401CA0600AE0218841F040012180B3
:104BC000E060A06200F500716068A160E06260686A
:104BD0002061A0686061207840070AD50222002188
:104BE000204600F00CF810F1010F02D14FF0FF3019
:104BF00010BD208840F4C0402080002010BD70B55A
:104C00000C461546FFF72CFF06462B462246002190
:104C1000FFF730FE04463046FFF723FF204670BD05
:104C20000E480F4A016841F4700101600D480168A7
:104C300041F00101016000218160016811400160C3
:104C40004FF48051C160016821F48021016000218E
:104C500081614FF0006004490860704788ED00E012
:104C6000FFFFF6EA0010024008ED00E0000000003F
:104C7000000000000102030406070809A0860100E5
:104C8000400D0300801A060000350C0040420F0062
:104C900080841E0000093D0000127A000024F40008
:104CA00000366E010048E801006CDC02017809065C
:104CB00026D51C4A13680021834203D1002342F801
:104CC00021301BE05368012183421EBF02219368FB
:104CD0008342F3D0D368032183421EBF04211369AA
:104CE0008342EBD05369052183421EBF062193699D
:104CF00083421EBF0721D3698342DFD0FBF732BF57
:104D0000002101804FF0FF31C17000F13D01416091
:104D1000C160016181624161C162816100F1240170
:104D2000C1617047C400002038B5044603212078D3
:104D3000084202D06056002809D5C046C046204629
:104D4000FFF7B4FFC046C0464FF0FF3527E02046CE
:104D5000FFF737FE0546C046C0462078400644BFF0
:104D60006068FBF7FFFE0020606094F903000228F2
:104D700004D900F016F808B14FF0FF35A06B48B128
:104D800000F01CF808B14FF0FF35A06BFBF7EAFE0E
:104D90000020A0632046FFF789FFC046C046284692
:104DA00032BD10B582B00200009269460220ABBE4F
:104DB00004001000FFF7EEFC200016BD00B583B024
:104DC0000090FBF7DFFD019069460E20ABBE03B0FB
:104DD00000BD000010B5144C206808B1FFF7A4FF17
:104DE000606808B1FFF7A0FFA06808B1FFF79CFF5B
:104DF000E06808B1FFF798FF206908B1FFF794FF5A
:104E0000606908B1FFF790FFA06908B1FFF78CFF58
:104E1000E06908B1FFF788FFBDE8104000220021DB
:104E20004FF0FF30FFF71EBEC400002038B5054626
:104E30000846FFF715FE0446E0686169884204D31E
:104E40002046FFF781FE002810D4E068401CE06097
:104E500000F8015D2088010504D440050CD5EDB2B1
:104E60000A2D09D12046FFF7ACFD28B12046FFF7F7
:104E7000F8FD4FF0FF3032BD2046FFF7F2FDE8B2FB
:104E800032BD00007047FEE770477047704780B53D
:104E9000FEF7BEF809480168491C016001BDFDF735
:104EA0007FB90120FDF745BE80B54FF40050FDF7F6
:104EB00040FE03480178491C017001BD880E0020A6
:104EC000900E002019E050F8041BCB0744BFA9F155
:104ED00001035918121F0023042A41F8043BF9D298
:104EE0005FEA827C0B4604D54FF0000CA1F800C0AD
:104EF0009B1CD10744BF0021197050F8042B002AD5
:104F0000E1D1704730B5016842688468091801EB47
:104F10005203D20748BF4C440C30994200D130BDF7
:104F200011F9012B11F8015B002A04F8015B02D58D
:104F3000521CF9D1F1E7521EF4D5EEE710B507493E
:104F400079441831064C7C44163404E00A68081D84
:104F5000511888470146A142F8D110BD2C0000002D
:104F6000480000004EF68851CEF20001086840F477
:104F700070000860BFF34F8FBFF36F8F4FF000706A
:104F8000E1EE100A704700003DFFFFFFA40600009D
:104F9000F0070020000000006DFFFFFFDC010000B3
:104FA000100100000000002000F00BF8002801D0E4
:104FB000FFF7C4FF0020C046C046FDF73DFC00F0EF
:104FC00002F80120704700F001B800000746FFF723
:104FD00001FF384600F002F8FBE7000080B5FFF75C
:104FE00079FD024A11001820ABBEFBE72600020043
:104FF00038B504460D46284600F006F8A84218BF0A
:105000000024204632BD00000149FFF70FBF00BF5A
:10501000440000200148804701480047214C000817
:1050200025500008C046C046FFF79CFFFFF7BCFFB5
:10503000E8030000FFF7FEBFFFF7FEBFFFF7FEBF6C
:10504000FFF7FEBFFFF7FEBFFFF7FEBFFFF7FEBF94
:10505000FFF7FEBFFFF7FEBFFFF7FEBFFFF7FEBF84
:10506000FFF7FEBFFFF7FEBFFFF7FEBFFFF7FEBF74
:10507000FFF7FEBFFFF7FEBFFFF7FEBFFFF7FEBF64
:10508000FFF7FEBFFFF7FEBFFFF7FEBFFFF7FEBF54
:10509000FFF7FEBFFFF7FEBFFFF7FEBFFFF7FEBF44
:1050A000FFF7FEBFFFF7FEBFFFF7FEBFFFF7FEBF34
:1050B000FFF7FEBFFFF7FEBFFFF7FEBFFFF7FEBF24
:1050C000FFF7FEBFFFF7FEBFFFF7FEBFFFF7FEBF14
:1050D000FFF7FEBFFFF7FEBFFFF7FEBFFFF7FEBF04
:1050E000FFF7FEBFFFF7FEBFFFF7FEBFFFF7FEBFF4
:1050F000FFF7FEBFFFF7FEBFFFF7FEBFFFF7FEBFE4
:10510000FFF7FEBFFFF7FEBFFFF7FEBFFFF7FEBFD3
:10511000FFF7FEBFFFF7FEBFFFF7FEBFFFF7FEBFC3
:10512000FFF7FEBFFFF7FEBFFFF7FEBFFFF7FEBFB3
:10513000FFF7FEBFFFF7FEBFFFF7FEBFFFF7FEBFA3
:10514000FFF7FEBFFFF7FEBFFFF7FEBFFFF7FEBF93
:10515000FFF7FEBFFFF7FEBFFFF7FEBFFFF7FEBF83
:10516000FFF7FEBFFFF7FEBFFFF7FEBFFFF7FEBF73
:10517000FFF7FEBFFFF7FEBF2300093D000104005B
:1051800000410000204200002041000020410000BA
:1051900020410000204100002028000020E0001FE6
:1051A00002040101240D0020740D0020240D0020B4
:1051B000240D0020240D0020810000206800002024
:1051C000E0001F02080202D40C0020240D0020D4AD
:1051D0000C0020D40C0020D40C0020C1000020A81A
:1051E000000020E0000B04000020440000208400A8
:1051F0000020EC00F8FFFC000001810081000000AD
:00000001FF
