:020000040800F2
:10000000F0090020494E0008CD4C0008CF4C0008F4
:1000100000000000000000000000000000000000E0
:10002000000000000000000000000000D14C0008AB
:100030000000000000000000D34C0008D54C000870
:10004000C3190008E7300008E54C0008AF3200088B
:10005000AB330008ED4C000853350008F74C00089E
:100060006B3C0008033E00085F4A0008A74B0008ED
:10007000CB4C0008FB4D0008000000000B4E0008B0
:1000800000000000374E00080000000000000000E3
:10009000714E000800000000734E0008754E000805
:1000A000774E0008794E00087B4E00087D4E000810
:1000B0007F4E0008814E0008834E0008854E0008E0
:1000C000B6494870012800D0704780B500F001F8AB
:1000D00001BD7047F1B50E00B04F3878002801D04F
:1000E0004620F2BD0098002801D0300001D1F12057
:1000F000F2BDB14D90220021280000F015FCAF4C5C
:1001000028220021200000F00FFC20220099280066
:1001100000F004FCA660200000F010FC2835280048
:10012000012505700221417000F052FC1020A073DF
:100130001120E0733D700020F2BD000030B585B0A5
:1001400000F066FC05005DD104A9891C04A800F03C
:10015000A7FB994CA4486946097C312902DB01219F
:10016000017002E0007801280DD1200024300190B8
:10017000200022300090230020330722002101209C
:1001800000F0A7FD08E023002433220022322100E2
:100190002031012000F0E0FD050033D1207800F08F
:1001A00084FE05002ED1A0780390A0690290207DE6
:1001B0000190A07D0090637D221DE178607800F0C1
:1001C00089FE05001ED1A078002803D000F004FFAE
:1001D000050017D19948018A002911D001A90A22E6
:1001E0000A7018224A70123000900923012201205F
:1001F00000F02AFC050005D100F042FA050001D10B
:10020000002003E002A000F029FF280005B030BD67
:100210004572726F72207768696C6520696E6974C7
:1002200069616C697A696E67206D61696E207072B0
:100230006F66696C652E0A0038B5584D287800281D
:1002400001D1012032BD00F0E2FB687801283CD1E9
:1002500059487A4CA17B102906D0202910D040297A
:1002600017D0502924D02DE0FFF768FF002802D1D5
:100270002020FF2101E010201F21E173A07324E062
:10028000607B217B88421DD13020A0733120E07338
:100290001BE0E17B402915D142788178C08C00F0C9
:1002A00087FE002802D05020A0730BE0422008E017
:1002B000E17B562906D1C08C00F0A6FC002801D1B4
:1002C0005720E0730020FFF7FBFE687832BD5B48E3
:1002D000807B70475948C07B704738B504000020C8
:1002E0000090564D6946280001E06946009800F0EC
:1002F00067FB0098A84204D0007AA042F5D1002004
:1003000032BD412032BD10B5040002D0E0680028A3
:1003100001D1F12010BD200000F0ACFA002806D079
:100320004648817B102902D1C17B1F2901D1412080
:1003300010BD018A628A0A430282017B491C017353
:10034000210000F014FB002010BD10B5040001D105
:10035000F12010BD00F08EFA002801D0412010BD20
:10036000200000F00EFB3548017B491E0173002080
:1003700010BD10B5040000F07DFA002802D1207CE9
:10038000002801D0412010BD2C48417B491C4173FD
:1003900001202074FFF794FE002010BD6E12002093
:1003A00038B50C00254DA97B302904D100F062FA44
:1003B000002800D1EC7331BD600F0020DC1100205B
:1003C00010B51E4CA07B502801D040280AD1132123
:1003D0001B48C08C00F01CFE002803D15520E073A0
:1003E000002010BD412010BD8612002010B5010074
:1003F0004120124CA27B402A01D0502A0CD1E27B32
:10040000442A09D19A48C08C00F09EFD002801D1F1
:10041000472100E04021E17310BD10B59449282226
:100420008A5C8C1829342070521C000AD2B28B18B6
:1004300029331870521C28310A7010BDDC110020BD
:10044000600F0020F1B584B0002069464880002488
:1004500008700498401C03900120FFF731FE0498B7
:100460000078042800D000E1312130228048402368
:100470005126804D039F3F78052F04D03E2F1ED07C
:10048000FF2F56D0CEE0039B9B1C0193AF7B402FE8
:1004900001D0502FF6D11E467378B7783F063F0C37
:1004A0003B43C08C8342EDD13078002801D1AA7340
:1004B000E9730124052069464870019836E0039FDE
:1004C000BF1C01973F78012FDCD1019F7F1C029751
:1004D000AF7B302FD6D1029C2478002C1FD1029AFA
:1004E000517894782406240C2143C184007F01288C
:1004F00001D1402006E0022802D14020392301E04A
:1005000050205123EB73A873029800795A49087060
:1005100006220299491D594800F000FA01E0AA7329
:10052000E973012402206946487002980078087037
:1005300078E00399891C0A784F783F063F0C3A43CC
:10054000521E0ED01F01D21B1BD0521E37D0521E7E
:1005500041D0521E44D0C54FD21B4FD00E3A50D07E
:1005600060E0891C0878012804D1A87B102801D1FB
:100570001220E87301240878401E694608704C7008
:1005800050E0891CAF7B402F01D0502F4AD18A7890
:10059000002A09D0007F012801D1402006E002286E
:1005A00002D14020392301E050205123EB73A8737E
:1005B00001248878694608700420487032E0AF7BD7
:1005C000402F01D0502F2DD14420E873002103206B
:1005D000AB68984726E00121C08C00F0D5FC21E0F3
:1005E000A97B40291ED1E97B42291BD140780028F4
:1005F00001D0432000E04720E87313E0FFF7E0FE5E
:1006000010E01D48008969464880A87B502809D120
:10061000E87B572806D168464088FF210C31884284
:1006200000D1EE7300200190049800280ED001A99B
:10063000280006E0C168080001D00498884701A995
:10064000019800F0BDF90198A842F3D1002C05D023
:100650006A46012168464078AB68984768464088FA
:10066000002802D000200449088105B0F0BD000038
:10067000600F0020DC1100206412002065120020B1
:10068000F0B587B02A277A4C06AD207CC00716D576
:10069000232028706F7020001430059000200490F3
:1006A0000A2003900020029001900220009008236D
:1006B00006AA0121608A00F00CFA060066D1207CAF
:1006C000800716D5242028706F7020001630059002
:1006D000012004900A200390002002900190022043
:1006E0000090202306AA0121608A00F0F2F906009A
:1006F0004CD1207C400716D5252028706F70200033
:1007000018300590012004900A20039000200290E8
:10071000019002200090202306AA0121608A00F0A7
:10072000D8F9060032D1207C000716D52620287083
:100730006F7020001A300590012004900A20039069
:1007400000200290019002200090202306AA01219F
:10075000608A00F0BEF9060018D1207CC00616D5CC
:10076000272028706F7020001C3005900120049015
:100770000A20039000200290019002200090202384
:1007800006AA0121608A00F0A4F9060068D1207C45
:10079000800616D5282028706F7020001E30059026
:1007A000012004900A200390002002900190022072
:1007B0000090202306AA0121608A00F08AF9060031
:1007C0004ED1207C400616D5292028706F7020005D
:1007D00020300590012004900A2003900020029010
:1007E000019002200090202306AA0121608A00F0D7
:1007F00070F9060034D1207C000615D52F706F707B
:10080000200022300590012004900A20039000204F
:100810000290019002200090202306AA0121608A04
:1008200000F057F906001BD1208AC00516D55020CC
:1008300028706F70200024300590002004900A205A
:10084000039000200290019002200090072306AA46
:100850000121608A00F03DF9060001D1002003E08B
:1008600023A000F0FBFB300007B0F0BDFE07000046
:10087000DC11002038B5040000200090074D6946C7
:10088000280000E0694600F09BF80098A84203D0D9
:10089000A042F7D1002032BD412032BDDC11002042
:1008A0003EB505000C0001A8009002AB9B1C02AAFB
:1008B00001A9891C02A8401C00F05AFDC0B2002802
:1008C00014D16946C988090A29706946C98809028C
:1008D00021806A4692881206120F12010A43228072
:1008E000694689880907090F114321803EBD000030
:1008F0005B4449535D204572726F72207768696C62
:100900006520616464696E67206368617261637405
:1009100065726973746963732E0A000010B5040070
:1009200000F066FD200010BD10B5040010000A00A4
:100930000100200000F08AFD200010BD0060406032
:100940007047EFF3108172B60268824201D1012034
:1009500000E0002081F310887047EFF3108272B638
:1009600003680B6048600160086841602DE0EFF3A8
:10097000108272B6086043684B604160486801604D
:1009800023E0EFF3108172B6026843681A60426890
:100990000068426081F31088704738B50C00EFF3AF
:1009A000108572B6016821600068FFE7FFF7E9FF74
:1009B0000020216808602168486085F3108831BDF7
:1009C000EFF3108272B60068086082F310887047F7
:1009D0000020704738B5040015000B0000222900E4
:1009E000012000F011FF064844432000372100F0A9
:1009F00091FF0100287800F05BFF002032BD00006D
:100A000040420F0080B500F024FF002002BD704777
:100A100000B587B01822002101A8FFF785FF01A8C3
:100A20003F210180C2314180684605900120069037
:100A3000002101A800F0E6FB002801D5FF2001E01D
:100A40006846007807B000BDF0B58DB016001F00F5
:100A500007AC2070012801D1022500E010252A00F2
:100A6000601CFFF75BFF6D1CEDB266556D1CEDB2AF
:100A70006755032200216846FFF756FF1822002120
:100A800001A8FFF751FF01A83F210180C331418038
:100A900007A803906D1CEDB20495684605900320ED
:100AA0000690002101A800F0ADFB002801D5FF2031
:100AB0000DE068460178002901D0084607E041783A
:100AC00082781206120C11431298018000200DB09A
:100AD000F0BDF1B58EB00D0017001E0002220EA968
:100AE00007A8FFF71BFF07ACA570012D01D1022558
:100AF00000E010252A003900E01CFFF70FFFED1C75
:100B0000EDB266556D1C1498EDB260556D1C1598CC
:100B1000EDB260556D1C1698EDB260556D1C1798BE
:100B2000EDB260556D1C1898EDB26055032200219E
:100B30006846FFF7F9FE1822002101A8FFF7F4FE2E
:100B400001A83F210180C531418007A803906D1C99
:100B5000EDB204956846059003200690002101A897
:100B600000F050FB002801D5FF200DE06846017819
:100B7000002901D0084607E0417882781206120C5D
:100B800011431998018000200FB0F0BD73B5A8B0D3
:100B900016001C00A01D812801DB422032E0022249
:100BA00028A907A8FFF7BAFE07AD022229A9A81CA9
:100BB000FFF7B4FE2E716C7122002E99A81DFFF76D
:100BC000ADFE1822002101A8FFF7AEFE01A83F21CB
:100BD0000180C731418007A80390A41DE4B20494AA
:100BE0006846059001200690002101A800F00AFB4C
:100BF000002801D5FF2005E068460078002801D0D4
:100C0000684600782AB070BD00B589B06946888012
:100C10001822002102A8FFF787FE02A83F210180C9
:100C2000CC31FFE7418001A80490022005900F20FD
:100C300003906846069001200790002102A800F06A
:100C4000E1FA002801D5FF2001E06846007809B0EC
:100C500000BDF3B5A7B016001F002E9CE01D812833
:100C600001DB422033E0022227A907A8FFF756FE46
:100C700007AD022228A9A81CFFF750FE2E716F7144
:100C8000AC7122002F99E81DFFF748FE18220021C1
:100C900001A8FFF749FE01A83F210180E73141800B
:100CA00007A80390E41DE4B204946846059001206F
:100CB0000690002101A800F0A5FA002801D5FF2028
:100CC00005E068460078002801D06846007829B021
:100CD000F0BD10B58AB01C006B46187059709A7040
:100CE0000722002101A8FFF71FFE1822002103A8F8
:100CF000FFF71AFE03A83F2101808A214180684640
:100D000005900320069001A8079007200890002175
:100D100003A800F077FA002801D5FF201AE001A807
:100D20000178002901D0084614E041788278120643
:100D3000120C11432180C17802791206120C114362
:100D40000C9A1180417982791206120C11430D9888
:100D5000018000200AB010BD70B58AB00D001400EB
:100D60001E00694608700722002101A8FFF7DCFD7C
:100D70001822002103A8FFF7D7FD03A83F21018017
:100D80008A214180684605900120069001A80790BD
:100D900007200890002103A800F034FA002801D5AC
:100DA000FF2018E001A80178002901D0084612E0D0
:100DB000417882781206120C11432980C178027999
:100DC0001206120C11432180417982791206120C0D
:100DD0001143318000200AB070BD00B587B01822E1
:100DE000002101A8FFF7A0FD01A83F21018081217A
:100DF000FDE0F6B591B01F00199D1B9EA9190E319B
:100E0000292901D342204EE007AC2070022211A90B
:100E1000601CFFF783FD022212A9E01CFFF77EFD94
:100E200067711898A071E5712A001A99200008309E
:100E3000FFF774FD0835EDB266556D1CEDB232005A
:100E40001C996019FFF76AFDAD19EDB202221DA9C8
:100E50006019FFF763FDAD1CEDB202221EA96019F7
:100E6000FFF75CFD1822002101A8FFF75DFD01A836
:100E70003F2101808321418007A80390AD1CEDB282
:100E800004956846059001200690002101A800F015
:100E9000B9F9002801D5FF2005E068460078002850
:100EA00001D06846007813B0F0BD00B589B069463E
:100EB00008711822002102A8FFF736FD02A83F2181
:100EC00001808521418001A8049001200590694698
:100ED0000691B6E070B58EB00E0011001D0007AC93
:100EE000207066701022A01CFFF718FDA5741298E0
:100EF000E0741398207521001531149800F062FDFC
:100F0000159860761822002101A8FFF70DFD01A8B1
:100F10003F2101808621418007A803901A20049078
:100F20006846059001200690002101A800F06AF9AA
:100F3000002801D5FF2005E068460078002801D090
:100F4000684600780EB070BD00B589B00A0001A9EE
:100F50000880891C100000F035FD1822002103A82C
:100F6000FFF7E2FC03A83F2101808821418001A80E
:100F70000590062006900F200490684607900120F7
:100F80000890002103A85FE000B589B001AA108095
:100F900091701822002102A8FFF7C6FC02A83F2189
:100FA00001808921418001A804900320059045E03B
:100FB00000B589B001AB18809970DA701822002151
:100FC00002A8FFF7B1FC02A83F2101808D214180DA
:100FD00001A8049004202EE000B587B0182200215B
:100FE00001A8FFF7A1FC01A83F21018092214180C7
:100FF0006846059001200690002101A800F002F942
:10100000002801D5FF2001E06846007807B000BD48
:1010100000B589B001AA108091701822002102A8A1
:10102000FFF782FC02A83F2101809321FFE7418066
:1010300001A80490032005900F20039068460690B5
:1010400001200790002102A800F0DCF8002801D55B
:10105000FF2001E06846007809B000BD0EB400B57D
:1010600082B003A900916B46020001210348784435
:101070000A3000F0B1FC029906B00847A53D000017
:1010800038B5B84C201DFFF759FC20000C30FFF795
:1010900055FC00258C20684321181431201DFFF7D2
:1010A00066FC6D1C052DF5DB31BD010008310A78A9
:1010B000042A01D001207047897888300078C01E4A
:1010C000814201D0022070470020704730B5A1B0A6
:1010D0000025009501F029FAA24C10E06946200095
:1010E0000C30FFF75AFC01F01BFA00980830FFF7AC
:1010F000A9F901F01AFA0099201DFFF738FC200029
:101100000C30FFF71EFC0028E8D0207800280AD118
:101110000EE0802201A9944801F06AF9000602D08D
:1011200001A8FFF78FF901F059F90028F1D12570D6
:1011300001F0F6F921B030BD38B50020009001F083
:10114000F9F9894D04E0201DFFF707FC01F0F2F9E1
:1011500001F044F9002824D0824C201DFFF7F1FB58
:1011600000281AD16946201DFFF717FC802200993C
:101170000831280001F03CF9C0B200280099E2D003
:10118000883108700098FFF790FF00280099DAD1A5
:101190000C342000FFF7EBFBD8E70120207001F0B2
:1011A000C9F931BD80B501F0C7F801BD30B583B0D4
:1011B00014001D0001AA8905890D800208431080D2
:1011C0009470684601210170032201A9401CFFF7B9
:1011D000A5FB2300042229006846FFF7E3FF37BD83
:1011E00038B504000D0007E069462800FFF7D5FB7D
:1011F00000992000FFF7BBFB2800FFF7A2FB0028A7
:10120000F2D031BDF0B587B005000F0068888005C9
:10121000800D29888902014389B2049153480068EE
:101220000A2100F077FB06000020009002A8FFF7DB
:1012300085FBAB68E868C2B269882888FFF7B6FF0B
:10124000484C002F5DD1002E00D10126310005A8A9
:1012500001F08CF904E002A8FFF789FB01F060F9C6
:1012600005A801F08BF9002871D120000C30FFF7A0
:1012700068FB0028F4D101F058F9694620000C30D1
:10128000FFF78BFB009A0832107804280099E2D10E
:101290000B31009888300078C01E52780E2A3ED05C
:1012A0000F2A04D0102A52D03E2A43D00DE08A786B
:1012B000CB781B061B0C1A43049B9A4247D16A68E1
:1012C0000F2A15D00878002841D1009902A8FFF70D
:1012D0004EFB201DFFF735FB0028BFD001A92000E1
:1012E0000C30FFF75AFB0199201DFFF740FBB5E7D3
:1012F0006A69904200DD1000686102462869FFF7C4
:101300000DFB0099201DFFF728FB02A90C342000DB
:10131000FFF766FF01F004F9002007B0F0BD4A783E
:101320008B781B061B0C1A43049B9A420FD1C91CD5
:10133000C01EDDE70A786B689A42C6D1401E6A6912
:10134000904200DD100068610246491CD6E702A900
:101350000C342000FFF744FF01F0E2F80020C04306
:10136000DBE70000F00B0020701000206C4E00083E
:10137000F0B589B006000D0014001F0009220021FD
:101380006846FFF7D1FA1822002103A8FFF7CCFA2C
:1013900003A80421018001214180002005900690CE
:1013A0006846079009200890002103A8FFF72AFF4C
:1013B000002801D5FF2019E068460178002901D0F6
:1013C000084613E041783170418829800179217005
:1013D000417982791206120C11433980C179027A5F
:1013E0001206120C11430E980180002009B0F0BDC6
:1013F000124207D08B0706D00B78491C0370401CA3
:10140000521EF7D87047830706D00B78491C03702B
:10141000401C521EF9D1704770B4103A03D378C9FA
:10142000103A78C0FBD2530701D318C918C001D5B0
:1014300008C908C0D20704D30B880380891C801C0C
:10144000002A01D50B78037070BC70471206130A8E
:101450001A43130C1A4300BF094205D0830705D075
:101460000270401C491EF9D170470000130030B4CF
:1014700014001500103902D310393CC0FCD24907C2
:1014800000D30CC000D504C0890002D30280801CA8
:10149000002900D5027030BC704700000022E5E74B
:1014A000F8B50400A94F142060433D18A84E3078C9
:1014B00008280AD130787070347008202874A54844
:1014C000F0800020694608804AE000F07DF8694617
:1014D0000880A86809884018A860A9683078142294
:1014E0005043381880688142307821D34243BA187B
:1014F000127C142306E0142250433818007C424327
:10150000BA18127C082A04D05A43BA189268914239
:10151000F1D21421414379180A7C1300082B03D01F
:1015200014267343FB18DC732A74E8730C7417E0F9
:10153000142141437918327890420CD06A46CB7B13
:1015400093701A4614235A43BA18147428746846C0
:101550008078E87300E02874CC7330787070347051
:1015600068460088F2BDF0B5784A14234343D31887
:10157000774C2578A84204D120786070187C2070C0
:101580000DE0DE7B187C1D7C14277E439619357494
:10159000082804D0DD7B142670431018C573012081
:1015A00018732078082803D1002901D16948E08008
:1015B000F0BD68486649C968096800E0886A8A6AB7
:1015C0009042FBD180B2704710B5614CE088614910
:1015D000884210D0FFF7EDFFE1888142E18801D316
:1015E000081A03E022898918081A401C2179484307
:1015F000E178C84000E0002080B210BDF8B5544C3E
:10160000E06800688025ED008168294002D0C1684B
:101610004907FCD48168B94A0A40826026784B4861
:101620001421714340188768FFF7CEFF0123002281
:10163000874201D2002107E061894118B94202D2F4
:101640006189A27006E0391AA37003E09E68361A19
:101650009E601E7C082E08D03C4B14277E439B19AD
:101660009E688642F2D29A60F3E78EB2002E06D1CF
:10167000FFF79FFFE080022000F0CBFFF1BD022EBC
:1016800002DAE078012800D0761EE0680068C168C0
:101690004907FAD5C16880221140994A0A43C260BD
:1016A000A80298490860022000F0BAFFE768B6B2C5
:1016B00038684661FFF77DFFE080386881680D4338
:1016C0008560F1BDF8B5EFF3108472B62048C168AB
:1016D00009688A68894B13408B60CA6880231A4066
:1016E000874B1343CB6080214903864A11600678FB
:1016F0008549142272438D18297B022922D12F6833
:101700006946AA7B0A708078002819D0687B012876
:101710000AD101213000FFF726FF84F310886968A1
:10172000300000F0C5F804E084F31088300000F0C9
:101730009DF83A0031006846007800F0F8FFF1BDEE
:10174000FFF75CFF84F31088F1BD0000C00E00209D
:1017500054120020FFFF000070B5294CE060042106
:10176000026892685207520F891AE1700268126982
:101770005202520E521C227103681B695B045B0CFF
:1017800023815B1ED2B253430B41133B36498B423C
:1017900001D3618100E063810122A270E180002217
:1017A000184B0025142656439E193573521C082ADF
:1017B000F8DB0821217000688168504A0A40826085
:1017C000C168802211404E4A0A43C2604F4D8026B4
:1017D00076036E61022000F023FFE06800688168F4
:1017E000B2090A438260A8683043A86028680643AB
:1017F0002E6000220321022000F0E5FE70BD0000F3
:1018000054120020C00E0020F3B500200024EFF396
:10181000108572B63C4E142161437118097B002972
:1018200002D0641C082CF6DB0121082C0DD01427F3
:101830006743F619317385F3108869460978B173E7
:101840007273336001990C70F6BD85F31088012026
:10185000F6BD10B5040000F009F800202A49142252
:1018600054430919087310BDFFFF000038B5050087
:10187000EFF3108472B6022000F0B0FE224814216B
:1018800069434018007B02280CD100212800FFF793
:101890006AFE1F4801784078884203D0082901D0A9
:1018A000FFF7ACFE022000F092FE84F3108831BDF9
:1018B000F8B507000C00EFF3108572B6022000F0B7
:1018C0008DFE114814217943461802203073B4600C
:1018D00074603800FFF7E4FD0D490A7849789142B9
:1018E00002D0FFF78BFE02E0B168081AB060022058
:1018F00000F06DFE85F31088F1BD0000FFFBFFFFD7
:101900007FFBFFFF14040140C00E002000040140D3
:10191000541200200022030A8B420BD203098B428F
:1019200019D243088B422ED2411A00D201465241AD
:1019300010467047FF2209023FD012068B4205D3A2
:10194000121209028B4201D31212090203098B42BF
:1019500019D300E0090AC3098B4201D3CB01C01A95
:10196000524183098B4201D38B01C01A5241430972
:101970008B4201D34B01C01A524103098B4201D360
:101980000B01C01A5241C3088B4201D3CB00C01ACD
:10199000524183088B4201D38B00C01A5241430845
:1019A0008B4201D34B00C01A5241884200D3401AE7
:1019B0005241CFD201461046704708B500F0DEFE16
:1019C00008BDFEE784460870000A4870000A887067
:1019D000000AC87060467047F9B595B014004A48CF
:1019E0007844FF3025300CC813A80CC0099108AD0D
:1019F0000020E86101E00098241800206946C880B2
:101A000013AB0022D243210001A8801C00F0B7FED6
:101A10000090012805DA2078411E8941C943C90F89
:101A200000916846C0882528009E00D1761E012EB0
:101A30000EDB270039780998159A904709900028FD
:101A400000D1ECE0E869401CE8617F1C761EF1D112
:101A50006846C088252804D1002028616861A861F3
:101A600008E06846C0880028C5D1E869D9E00100CF
:101A700001200843641C21782029F8D023290ED0A6
:101A80002B2904D02D2907D030290BD00DE00100DF
:101A90000220084380B2EDE701000420F9E70100CD
:101AA0000820F6E701001020F3E72A2912D1169941
:101AB0000968169A11600A68091D169B19606A6206
:101AC000002A05D55142696201000420084380B212
:101AD000641C12E0002169620AE06A6A0B4B9A42B8
:101AE00005D093009A185200511830396962641C6D
:101AF00021780A00303A0A2AEFD321782E2907D01C
:101B00000021C943296225E05C330000FFFFFF7F0D
:101B1000641C21782A290AD116990968169A11603D
:101B20000A68091D169B19602A62641C12E00021D4
:101B300029620AE02A6AC34B9A4205D093009A1898
:101B40005200511830392962641C21780A00303A59
:101B50000A2AEFD328852678310000BFBAA000F00A
:101B60001CFE002801D0641C00E000262A202E5410
:101B7000285C682806D12078682803D162202A21B1
:101B80006854641C02A8E8602678641C252E15D0D1
:101B9000582E55D0632E00D1B3E0642E00D18EE0D4
:101BA000692E00D18BE06F2E4AD0702E3BD0732E61
:101BB0000AD0752E44D0782E42D0CAE00120286188
:101BC000252069460872CFE02A20285C6C281698E8
:101BD00000681699086017D00668001D16990860FD
:101BE000AE602F6A002F03D5300000F0E0FD09E061
:101BF0003A000021300000F0E2FD002801D0801BF7
:101C000000E038006861AFE00268001D16990860C6
:101C100008A9159800F042F9002800D4A4E000209B
:101C2000C04317B0F0BD16980068169908600168A7
:101C3000001D169A1060089102A8A86078215CE047
:101C40002A20285C6C2801D1169810E0712801D157
:101C5000169802E06A28169809D10268D21D07205A
:101C600082431698026003CA169B1A6005E0016859
:101C700001600868091D169A116008902A20285CE6
:101C8000682802D1089880B203E0622802D108983F
:101C9000C0B208902820285C000729D508980028A1
:101CA00026D020203043782822D12869302102AA6A
:101CB0001154401C411C296102A90E5418E01699C8
:101CC0002A20285C00F0C4F80890002802D5286972
:101CD0002D2109E0288D810702D528692B2103E0F9
:101CE000C00705D52869202102AA1154401C28618B
:101CF00002A829694018A860310008A800F0F8F986
:101D000032E02A20285C6C280CD00120286116982B
:101D10000068169908600168001D169A10606846F0
:101D2000017221E016980068169908600168001D8C
:101D3000169A106068460180002069464880C043BA
:101D400028626A4608A9159800F0A8F800280BD563
:101D500065E701202861252069460872002E03D01E
:101D60000220286102A84670686A2969401AA96998
:101D7000401A6969401A00902820285C400711D455
:101D8000202069460871009801280BDB009E012382
:101D900001AA08A9159800F027FA002800D03EE70C
:101DA000761EF4D12F6902AE002F0DD0317809983C
:101DB000159A90470990002800D130E7E869401C47
:101DC000E861761C7F1EF1D1302069460871AE694A
:101DD000012E0ADB012301AA08A9159800F004FAD4
:101DE000002800D01BE7761EF4D1AE686F69002F83
:101DF0000DD031780998159A90470990002800D1A4
:101E00000DE7E869401CE861761C7F1EF1D12820AF
:101E1000285C400700D4F0E520206946087100984E
:101E2000012800DAE9E5009E012301AA08A9159816
:101E300000F0DAF9002800D0F1E6761E00D1DCE5EA
:101E4000F2E700BFFFFFFF7F686C747A4C00000070
:101E5000622815D068280CD06C2818D0742816D0A9
:101E60007A2814D10A680A601068121D0A600021DD
:101E700070470A680A601068121D0A6000B20BE021
:101E80000A680A601068121D0A6040B204E00A681D
:101E90000A601068121D0A60C1177047F4B59AB045
:101EA00007000C00206A002800D58E48039000F03F
:101EB00092FC616A081806908BA003C807AA03C2A7
:101EC0002820205C400702D40698412806D209A8A1
:101ED000029040200690002005900EE000F080FC6B
:101EE00002900028F7D10020C043F8E01A98801C27
:101EF0001A9003980199401A03900398012800DA78
:101F000093E007AA1A98018800A8401C00F0C4FCBE
:101F10000190002800D59FE01A980088002804D17D
:101F20000198401E019000D596E0039801998842DF
:101F30007BDB20690699019A8218914264D20021C4
:101F400061624142A069081A6169401A0490282020
:101F5000205C400710D420206946087004980128AE
:101F60000ADB049D01236A462100380000F03CF999
:101F7000002871D16D1EF5D12669029D002E0BD06F
:101F800029786068B8476060002865D0E069401C27
:101F9000E0616D1C761EF3D1302069460870A5699A
:101FA000012D09DB01236A462100380000F01CF9ED
:101FB000002851D16D1EF5D1A5686669002E0BD0A1
:101FC00029786068B8476060002845D0E069401C07
:101FD000E0616D1C761EF3D12820205C400710D5EF
:101FE000202069460870049801280ADB049D01231B
:101FF0006A462100380000F0F7F800282CD16D1E49
:10200000F5D1002005902061019A00A9491C029891
:102010002369C018FFF7ECF9206901994018206185
:102020001A980088002800D060E7059800284FD152
:10203000606A2169401AA169401A6169461A28201C
:10204000205C400711D4012E0FDB35002021606891
:10205000B8476060002803D10020C043059037E0F6
:10206000E069401CE0616D1EF0D12369029A2100F5
:10207000380000F0B9F80028EED1A569012D0ADB7F
:1020800030216068B84760600028E5D0E069401CF6
:10209000E0616D1EF4D16369A2682100380000F090
:1020A000A3F80028D8D12820205C40070DD5012EA8
:1020B0000BDB350020216068B84760600028CBD07A
:1020C000E069401CE0616D1EF4D100202061606277
:1020D000029809A9884201D000F0EAFB05981BB0DC
:1020E000F0BD0000FFFFFF7F0000000000000000C7
:1020F000F2B582B00400E06800906846007A6F286C
:1021000001D1082506E020220243782A01D00A25C1
:1021100000E01025182721680E00642801D06928E6
:1021200003D1002901D570420600002E0DD1206A8E
:1021300000280AD1082D31D12820205C00072DD598
:10214000172730200099C87528E07F1E01973000BE
:102150002900FFF7DFFB3031C9B23A2903DB6846BB
:10216000007A513809180098C15530002900FFF74E
:10217000D1FB060004D0A0680099C9198842E4D3B5
:10218000082D0BD12820205C000707D50098C05DE2
:10219000302803D07F1E30200099C8551820C01B5E
:1021A00060610099C919A160216A884206DA081A9B
:1021B000A061208D0B490140218510E000290ED53A
:1021C0002821615C14220A40102A08D1616A226920
:1021D000891AA269891A0F1A012F00DBA76103B0BF
:1021E000F0BD0000EFFF0000F1B50E001400002765
:1021F000002B0FD01D0021787068009A9047706006
:10220000002806D0F069401CF061641C6D1E01D0EE
:10221000F1E7FF433800F2BD00686449884200D00E
:102220007047F0B587B00124BC48016821430160C4
:102230000168214000910099022601683143016044
:1022400001683140009100990168214301600168F3
:1022500021400091009901682143016001682140FB
:1022600000910099016821430160016821400091BB
:1022700000990168214301600168214000910099A3
:102280008168820C0A438260870D0197029403944F
:1022900000250495059501A9A020C00500F04CFB80
:1022A00000223900A020C00500F00BFC082001909E
:1022B0000296039603270497059501A9A04800F00C
:1022C0003BFB40200190029603950497059501A9D8
:1022D000A020C00500F030FB8020019002960395FD
:1022E0000497059501A9A020C00500F025FB0196E3
:1022F000029403940497059501A9A020C00500F05D
:102300001BFB01220221A020C00500F0DAFB019492
:102310008C48029003950497059501A9A020C0055B
:1023200000F00AFB00220321052000F04CF90520F3
:1023300000F04DF907B0F0BDF1B584B00F00160004
:102340001D00814800680A21FFF7E4FA010001A896
:1023500000F00CF97D4CE8B20090F3B23A00049919
:10236000200000F091F8002804D001A800F006F940
:102370000028F0D005B0F0BD80B574480B4901606D
:1023800082214900416000218160C1600161416199
:10239000802292008261016241620722C2620822A9
:1023A000C261816200F0AEFB01BD0000003001405F
:1023B00038B5A024E40580256D0000222900200006
:1023C00000F07FFB052000F0CFFD01222900200056
:1023D00000F077FB052000F0C7FD31BD80B501217D
:1023E000A020C00500F067FB012800D0002002BD3E
:1023F000F3B587B0160000250024FF206946487118
:1024000004A800BF53A10CC90CC000220221A020C7
:10241000C00500F056FB0F200090052302AA04A976
:10242000079800F0B1FB02A80178022919D10179BF
:102430000F02C078074314D0BE420FDA37000DE018
:102440000F200090012301AA01A9491C079800F060
:102450009BFB6846007908990855641CE4B2BC42AD
:10246000EEDB01220221A020C00500F02AFB00952E
:1024700003E000BF0098401C009000980228F8DBA1
:10248000200009B0F0BD0000F6B5C5B007001E0081
:10249000002403A831A10CC90CC001A831A10CC9AA
:1024A0000CC0052000F09AF800220221A020C005EF
:1024B00000F007FB0F200090052301AA03A93800B4
:1024C00000F062FB01A8017802291AD14C9D4078E6
:1024D0007119884214DB002E07D00F2000903300C2
:1024E00005AA4599380000F04FFB002D0AD00F20B7
:1024F00000902B0005AA4699380000F045FB01E04A
:102500000124E44301220221A020C00500F0D9FAF1
:10251000052000F05CF8200047B0F0BD2C10024010
:1025200080B5052000F053F801BD80B5052000F00E
:1025300055F801BD01200649086070470000000001
:1025400000040050000011106C4E000870100020B4
:10255000140401400B000000000000000A0000000D
:1025600000000000AA0000000000000010B50400F8
:102570006160FFE700F008FD206010BD10B50400A9
:1025800000F002FD61682268801A401C814280418F
:10259000C00F10BD10B58207D30EFF249C40E2434C
:1025A0008907090E9940030004D521481B071B0F1A
:1025B000083B00E01F489B089B00C01803681A40B6
:1025C0001143016010BD80B5FFF7E4FF01BD01219B
:1025D000C006C00E81401848016070470121C00646
:1025E000C00E814015480160704710B5401E802123
:1025F0004904884201D3012010BD114C60600321C1
:102600000020C043FFF7C6FF0020A0600721216023
:1026100010BD0121C006C00E81400A48016070470C
:102620000121C006C00E81400748016070470000CC
:102630001CED00E000E400E000E100E080E100E0EB
:1026400010E000E000E200E080E200E070B500F0A1
:1026500063FC00F09DFC00F0BDFC404C1C220021FE
:1026600020002430FEF760F93D4D0126286D3043EF
:102670002865A86B31070143A96300F035FD00F020
:1026800033FD2868374901402960286D36490140EB
:10269000700408432865286DB10401432965334857
:1026A000206000202021605421216654200000F089
:1026B0006DFDA6602E48E060200000F07FFDCA207E
:1026C000216848625320216848620321200000F0FD
:1026D000E7FD286D8007FCD52000FFF73DF80023BB
:1026E000012221003C310020FFF78EF8FFF744FE65
:1026F00000F056FE00F007FE2C34206880470020D2
:1027000000F0DBFD05E00621022000F04FFE00F0A6
:1027100092FEFEF7DBFCA0688047FDF78DFD0028E8
:10272000F5D1E06880470028EDD00821ECE780B5BE
:10273000EFF3108100280CD10E48026804231343E4
:10274000036072B60C480278521C027081F3108844
:1027500001BD100000D0904701BD000068110020AD
:1027600000100240FFFFCFFFFFFFFCFF00280040EA
:10277000FFFF000000700040841200207047F8B591
:1027800004000F0015001E0000F08AFE33002A002E
:102790003900200000F098FEF2BDC9B200E0401CF4
:1027A00002788A4202D0002AF9D100207047010045
:1027B00000E0491C0A78002AFBD1081A7047C9B208
:1027C00001E0401C521E002A03D003788B42F8D14E
:1027D00070470020704780B500F062FE012002BD06
:1027E00070B505002C000F3407208443C046C04656
:1027F000A54233D2082C04D2082402E0083000F0AD
:1028000057F82448026811000CD1011D0A68002AFB
:1028100020D01368A34212D2111DF7E71D68A5420C
:102820000DD2191D0B68002BF8D11268011D00E0B4
:10283000191D0B6893420DD01D68A542F8D30029DD
:102840000CD00D682A681300083BA3420AD26A68BC
:102850000A600FE000F056FE0028CFD1C046C04607
:10286000002070BD2B190B606E685E60121B0B6838
:102870001A602C600968002904D04A68002A01D037
:10288000091D00E000210160C046C046083528004F
:1028900070BD00007012002070B504000D0016001D
:1028A00000F0FEFD32002900200000F003FE70BDA4
:1028B000002800D1704738B508380400206808287F
:1028C00036D3400734D1C046C0461A484168002973
:1028D00001D08C4203D26160446019E019004B685A
:1028E000002B01D0A342F9D30B68CD18AC421DD305
:1028F000A54204D122689A180A600C0008E04A68D0
:10290000002A03D02368E3189A420FD362604C6018
:10291000616800290AD02268A3188B4206D10023DF
:10292000036008681018206048686060C046C046B0
:1029300031BD000070120020FFB5002401232FE0FC
:102940000625B5403D43039E3560664D2E68009FC9
:10295000FD432E404F68FF0302D53700009E3E43E3
:10296000604F3E607E682E404F68BF0302D537003F
:10297000009E3E435B4F7E60BE682E404F68FF0264
:1029800002D53700009E3E43564FBE60FE6835407C
:102990004E68B60202D52E00009D3543FD60641CD2
:1029A0000D682E00E64000D184E00126A6402E40AE
:1029B0000096009D002DF2D04D68022D01D0122D01
:1029C00018D1E508AD0045192E6A01966607F60E86
:1029D0006F463E72019FBC466E46377A0F26BE4058
:1029E0006746B743BC460F696E46367AB7406646BF
:1029F00037432F6266000327B740FD4301954D68BA
:102A0000012D05D0022D03D0112D01D0122D10D192
:102A10008768019D3D40CF68B7402F438760476876
:102A20000125A540AF434D682D091D40A5403D43FC
:102A300045600768019D3D400F79BF07BF0FB74054
:102A40002F430760C768019D3D408F68BC46370033
:102A50006646BE402E43C6604D68ED009FD5224DB0
:102A60002D681D43204E3560204DA608B600AD19D7
:102A700003952F68A5072E0F0F25B540AF43A0255E
:102A8000ED05A84201D100255BE7194DA84201D10F
:102A9000012556E7174DA84201D1022551E7164DF1
:102AA000A84201D103254CE7144DA84200D047E7C6
:102AB000052546E7FFBD0069084000D00120C0B2EF
:102AC0007047002A01D081617047816270470C4ACB
:102AD0001368034000D1704780B5106000F028FDF6
:102AE00001BD000000040140341002400800014014
:102AF0000004005000080050000C0050001C005062
:102B00001404014070B5040001D1012070BD2500FE
:102B1000503500266878002803D12E702000FFF77A
:102B20007BFB0220687020680168402291430160AD
:102B30006068A1680143E068084321690143606956
:102B40000843A169D20011400143E0690843216AAA
:102B50000143A06A084321680860A069000C0421B1
:102B60000840616A014320684160E06A21680861A9
:102B70002068C169034A0A40C2616E600120687022
:102B8000002070BDFFF7FFFFF8B5040000256E467A
:102B90003580260050367078012803D070782228BE
:102BA00000D053E1002902D0002A00D0002B00D130
:102BB00047E13078012800D148E101203070707879
:102BC000012801D1322070707560A263A387E3876A
:102BD0002163A386E386A564E564A06A8021890158
:102BE00088420AD120680168994A0A400260206838
:102BF0000168802292010A43026020684021026835
:102C00000A4002D102681143016082204000069F01
:102C1000E168802212019142616864D1002904D0E8
:102C200081420CD1E08E012809D1206B00882168F7
:102C3000C860206B801C2063E08E401EE086E08E22
:102C400000283AD1A06A910088423CD120680168EE
:102C500052000A43026036E03B00002202212000BD
:102C600000F0F8F8002835D1206B00882168C86092
:102C7000206B801C2063E08E401EE08600040AD199
:102C8000A06A80218901884205D1206801688022DC
:102C900052010A4302603B0000220121200000F0A3
:102CA000D9F8002816D12068C068A16B0880A06BF5
:102CB000801CA063E08F401EE087E08E0028CBD10F
:102CC000606800286CD13B0000220121200000F048
:102CD000C1F800286DD12068C068A16B0880A06B86
:102CE000801CA0636DE0002904D081420BD1E08EEE
:102CF000012808D1206B411C216300782168C8603D
:102D0000E08E401EE086E08E002844D1A06A91004B
:102D1000884204D12068016852000A4302603B00E7
:102D200000220121200000F095F8002841D1206800
:102D3000C068A16B087044E03B0000220221200023
:102D400000F088F8002834D1206B411C2163007802
:102D50002168C860E08E401EE08600040AD1A06AA7
:102D600080218901884205D12068016880225201B2
:102D70000A4302603B0000220121200000F06AF8B3
:102D8000002816D1A06B411CA1632168C96801709D
:102D9000E08F401EE087E08E0028CDD160680028DB
:102DA00012D13B0000220121200000F053F800283E
:102DB00001D00320F2BDA06B411CA1632168C9684A
:102DC0000170E08F401EE087A06A8021890188425F
:102DD00012D13B0000220121200000F03BF8002826
:102DE00004D07068022101437160E2E72068C06886
:102DF00069460880684600883B0001228021200047
:102E000000F028F8002802D070682021EBE70120AC
:102E10007070A06A80218901884214D1206881687D
:102E2000C90610D5716802220A4372600168084A17
:102E30000A40026020680168802292010A43026011
:102E400035700120F2BD35700020F2BD0220F2BDC8
:102E5000FFDFFFFFFFB581B000F083F800902D4F3A
:102E6000FC434025ED43E026F6436846007B0028FE
:102E700016D1019800688068029901400298814249
:102E800044D004980021C9438842F2D000281DD0C4
:102E900000F067F80099401A04998142E9D215E0E0
:102EA00001980068806802990140029881422DD102
:102EB00004980021C9438842F2D0002806D000F0CF
:102EC00050F80099401A04998142E9D201980068AB
:102ED00041680E4046600198006801680D40056039
:102EE0000198806AA04209D10198006801680F40EA
:102EF00007600198006801680C4304600198503035
:102F00000121417000210170032000E0002005B084
:102F1000F0BD0000FFDFFFFF80B519480168022205
:102F200091430160032000F005F800F002F8002052
:102F300002BD704710B5040000F006FEFA218900BA
:102F4000FEF7E8FCFFF751FB002221000020C04300
:102F5000FFF739FB002010BD0A480168491C0160D9
:102F6000704708480068704711B581B0FFF7F9FF56
:102F70000400FFF7F6FF001B01998842F9D313BD47
:102F8000002002407812002080B5FFF7EAFF02BD62
:102F900010B594B00E480168802252050A430260C1
:102FA0000220059010200990012408940F9405A890
:102FB00000F0D0FA0F2000900194002002900390BE
:102FC00004900021684600F0D9FC14B010BD00BF89
:102FD00038100240F0B587B008263C4801683143FC
:102FE000016000F0DFFD00F0D7FD394C20683103AF
:102FF00001432160206B012188432063206B022163
:1030000088432063206B0421884320630827FF4303
:10301000206B384020638025ED43206B28402063DF
:103020000120216A01432162216A08400090009832
:103030000220216A01432162216A08400090009821
:103040000420216A01432162216A0840009000980F
:10305000206A30432062206A064000960098802053
:10306000216A01432162216A0840009000980320F0
:10307000029000200390280C019001A91548FFF749
:103080005BFC01A91448FFF757FC01A91348FFF79F
:1030900053FC01A91248FFF74FFC01A9A020C0056D
:1030A000FFF74AFC206A012188432062206A02213E
:1030B00088432062206A042188432062206A0740F6
:1030C0002762206A0540256207B0F0BD002002405B
:1030D0000C1002400004005000080050000C00508A
:1030E000001C00507047FEE720480168820D39E05F
:1030F00010B51E4A13680324A343184310601C48EC
:10310000026804239A430260012901D130BF10BD37
:1031100040BF20BF20BF10BD10B5144A1368032460
:10312000A34318431060124802680423134303604A
:10313000012901D130BF02E040BF20BF20BF01689C
:1031400004229143016010BD0848016802220A432D
:1031500002600748016804220A43026030BF7047DA
:10316000016810220A4302607047000000700040AE
:1031700010ED00E01C409460FF2203685A62212297
:103180008154002120300170002010BD10B5202195
:10319000415C012901D1022010BD01212023C1542D
:1031A00002222123C254CA2203685A6253220368AE
:1031B0005A620268936820241C43DCE738B5040097
:1031C0001CD02120205C002804D120216054200044
:1031D00000F044F8022021216054CA20216848628E
:1031E000532021684862FF25200000F03BF80028AA
:1031F000206805D04562042021342070012032BDB2
:103200008168174A0A408260206881686268236981
:103210001343A2691A430A438260E0682168086187
:1032200020680169A26812040A4302612068C1682B
:1032300080229143C1602068C16C03229143C16424
:103240002068C16CE269636913430B43C36420685F
:103250004562012021342070002032BD70470000FB
:10326000BFFF8FFF70B5040020684025C16829406A
:1032700011D10021C943C160FFF773FE0600206829
:10328000C068284007D1FFF76CFE801B03498842C5
:10329000F5D3032070BD002070BD0000E9030000DD
:1032A0000068826807239A43114381607047FEE7F4
:1032B00080B5032000F078F801BD80B5334908706F
:1032C000022000F071F801BD30480078704770B5F9
:1032D00004000D001600022C0BD00DD3042C08D0D6
:1032E00003D3052C08D1012004E02948FDF77EF81E
:1032F00002E00320FFF7E1FF320029002000254B08
:103300005B68984770BD3EB501A80021002206C049
:10331000FDF7B6FEFFF74CF801A81E49096888477B
:1033200000A9891C6846FDF7BBFAFFF741F80325A1
:1033300068460078312801DB01A94D7101AA0621F8
:10334000002000F037FC0421012000F067FC124C43
:10335000202200212000FDF7E7FA25700020607090
:103360000121A170E0702075082161751021A175FF
:103370000749A161207722181071401C1028FADB40
:1033800006492000FCF7A6FE37BD0000851200208C
:1033900007B201008C11002024120020CF32000857
:1033A00080B500F063FC01BD7047FEE7F1B581B068
:1033B0000B00EFF31080009072B63749CC680D68AF
:1033C0004F688A68082B06D101206B461B7998400C
:1033D0002043040027E00126684600798640F04338
:1033E00004405E0701D5054006E0AC4601256E4667
:1033F0003679B540664635439E0701D5074006E05D
:10340000BC4601276E463679B74066463743DB0730
:1034100003D5130002001A4005E001206B461B791A
:103420009840104302008A604F600D60CC600098A5
:1034300080F31088F3BD70B5EFF3108472B61648B0
:10344000C168002925D10168002904D0012100208C
:10345000FFF74EFE1DE00425104E8168002909D1BA
:10346000C046C046306805433560FFF76DFEC04674
:10347000C0460EE031680D4335604068002802D038
:103480000121002001E001210120FFF745FEFFF7A7
:1034900029FE84F3108870BD4412002000700040A3
:1034A00080B5034800F0ACFC806902BD000000005C
:1034B00080010020002804D10EA003C803C2002010
:1034C0007047017001207047002904D10BA003C888
:1034D00003C300207047002A02D10120C043704777
:1034E000002801D00A7802800978481E8041C04334
:1034F000C00F704700000000000000000000000046
:103500000000000007490868002801D0002070472B
:10351000054807229043086004499143091A016055
:10352000704700BF80120020F7090020F00B002038
:1035300080B5014802E000BF00700040016804222D
:103540000A430260FDF7F8FD08210220FFF72EFF75
:1035500001BDFEE7F0B583B00400B44D2078C0078C
:1035600052D58027BF02E8680C210140082907D006
:10357000E8680C2101400C290AD1E868C00307D58E
:103580002868074040D0606800283DD10120FEBD7A
:1035900060687908884201D128680DE0B049A0220E
:1035A000D2029042286809D1014029602868790038
:1035B0000143296028687908014309E00140296036
:1035C000286879080840019001982868B7490140A7
:1035D0002960606800280BD0FFF7C3FC060028684C
:1035E000384011D1FFF7BDFC801B6528F7D3B8E147
:1035F000FFF7B7FC06002868384005D0FFF7B1FC9C
:10360000801B6528F7D3ACE102272068384019D029
:10361000E8680C210140042907D0E8680C2101402A
:103620000C2942D1E868C0033FD42868400702D57E
:10363000E0680128AAD16868B44901402069000205
:10364000084368602078C00619D5E8680C2101405D
:103650004FD12868800502D5E069002896D06868B7
:10366000AB490140606A0843686068680002000A6C
:10367000216A0906014369600320FFF75BFC20789B
:10368000000775D560690028286D62D001210143CB
:103690002965FFF766FC0600286D384068D1FFF702
:1036A00060FC801B0328F7D35BE1E0680921C94374
:1036B00000280FD02A68114008432860FFF751FC0A
:1036C000060028684007B6D4FFF74BFC801B032890
:1036D000F7D346E1286801402960FFF742FC060065
:1036E00028684007AED5FFF73CFC801B0328F7D3C2
:1036F00037E1E069002828681CD0A90D0143296042
:10370000FFF72FFC06002868800505D4FFF729FC89
:10371000801B0328F7D324E168687D490140606A73
:103720000843686068680002000A216A09060143CC
:103730006960A4E78D4901402960FFF712FC06008B
:10374000286880059BD5FFF70CFC801B0328F7D366
:1037500007E1012188432865FFF703FC0600286D77
:10376000384005D0FFF7FDFB801B0328F7D3F8E0B6
:10377000207880062ED57E48A1690029A96816D038
:1037800001220A43AA60696B01220A436A63016845
:103790006A0C0A430260FFF7E4FB0600A8683840A1
:1037A00018D1FFF7DEFB801B0328F7D3D9E00122F5
:1037B0009143A96001686F4A0A400260FFF7D1FB9C
:1037C0000600A868384005D0FFF7CBFB801B032814
:1037D000F7D3C6E02078400700D479E00020002726
:1037E0006946087080204005A96B014003D1A96B90
:1037F0000843A863012760480068C00518D45E48E4
:103800000068A90D01435C48016001206946087009
:10381000FFF7A7FB060058480068C00508D4FFF76B
:10382000A0FB801B6528F6D39BE000BF0010024080
:10383000A168A80D81420ED0A348002912D0A02271
:10384000D20091420ED1286D484901402965286D6A
:10385000290D01432965286DA90D0143296508E05B
:10386000FFFFFEFF296D414A0A402A65296D084085
:103870002865A06800280CD0FFF773FB0600286DB0
:10388000800515D4FFF76DFB801B90498842F6D365
:1038900067E0FFF766FB0600286D800508D5FFF797
:1038A00060FB801B89498842F6D35AE0FFFFFBFF8B
:1038B00068460078002805D02F4800682B49014051
:1038C0002D480160002F03D0A86B81490140A963F6
:1038D000A06A002847D0E9680C220A400C2A00D1CF
:1038E00054E68027BF049749022828682CD101405C
:1038F0002960FFF736FB0600286838400AD0FFF73A
:1039000030FB801B0328F7D32BE000BFFFE0FFFF55
:10391000FF1FFFFFE86893490140206B0843616B7C
:103920000143E06A0843E860286879080143296098
:10393000FFF717FB06002868384014D1FFF711FB8A
:10394000801B0328F7D30CE001402960FFF709FB37
:1039500006002868384006D0FFF703FB801B0328C9
:10396000F7D30320FEBD0020FEBD0000FFFEFFFFD9
:1039700020000140FEDFFFFF00700040F2B582B082
:1039800004000127FF43012577480068284088424A
:103990000AD27548006838400143734801600068E6
:1039A00028400299884274D1704E2078800705D54E
:1039B000F068F0218843A1680143F1602068284045
:1039C00055D06068022802D13168890308E00028D8
:1039D00002D13168890503E00328316802D18901E9
:1039E00002D456E0490754D5F168032291430843B5
:1039F000F060FFF7B6FA0090606802280CD1F0681A
:103A00000C210140082932D0FFF7ABFA0099401A87
:103A10002E498842F3D328E003280CD1F0680C210A
:103A200001400C2923D0FFF79CFA0099401A27493E
:103A30008842F3D319E000280BD1F0680C21014033
:103A400015D0FFF78EFA0099401A20498842F4D326
:103A50000BE0F0680C210140042908D0FFF781FA3F
:103A60000099401A19498842F3D30320FEBD3E480D
:103A700000682840029988420DD33B4800680740FF
:103A8000084638433849086008680540029885426E
:103A900001D00120FEBD2078400705D5F0683449EB
:103AA0000140E0680843F0602078000706D5F06820
:103AB000304901402069C0000843F0600320FFF74F
:103AC00039FA0020FEBD0000FFFBFFFF8913000054
:103AD000FFFFFFEFF0B5254D6868284A53005408F2
:103AE0001026E9680C270F40042F04D0082F09D0B6
:103AF0000C2F09D01FE02868064001D02000F0BD3F
:103B00001800F0BD1000F0BDE868E9681C4F8002A5
:103B1000000F385C0902890F491CEF68FF0306D4C7
:103B20002A68164001D0604302E0584300E0504349
:103B3000FDF7F0FEF0BD01210004400F401C814064
:103B4000C803F0BDFFFFFFFE80B5FFF7C3FF00BF56
:103B50000DA1094A12681206120F895CC840094972
:103B6000086002BDFFFF02FF00200240001002407B
:103B7000FFF8FFFFFFC7FFFF0C10024000127A00A2
:103B8000684C00080000002000000000010203044F
:103B9000010203040607080905480168020D0A43EB
:103BA0000260704702480168420D0A430260704794
:103BB0000070004010B5A8B003000C001100A01C5C
:103BC000812801DB422027E007A80370447022000F
:103BD000801CFCF7A3FE1822002101A8FCF7A4FE1C
:103BE00001A83F2101800C21418007A80390A41C5B
:103BF000E4B204946846059001200690002101A8D3
:103C0000FDF700FB002801D5FF2005E0684600789D
:103C1000002801D06846007828B010BD00B589B0F2
:103C200001AA107051701822002102A8FCF77CFE36
:103C300002A83F2101800F21418001A804900220A9
:103C400005906846069001200790002102A8FDF724
:103C5000D9FA002801D5FF2005E068460078002841
:103C600001D06846007809B000BDFEE780B557482E
:103C70004169002901D1564901604168002901D1FB
:103C8000544941608168002901D153498160C1686C
:103C9000002901D15149C1600169002901D1504970
:103CA00001614169002901D14E49416100F00CF8E0
:103CB00001BD00001CB569464FA218CA18C10622F2
:103CC0006946FCF72BFE13BD10B5474C1C220021A2
:103CD0002000FCF729FE00202070022161700821DD
:103CE000A1701021E170E080052121724200A2182C
:103CF0005081401C0928F9DB10BD082800D070470E
:103D000080B50120FFF7D9FA01BD80B504223749FB
:103D1000FF2000F077F801BD80B5042000F0F9F82D
:103D2000002000F0C0F801BDF0B585B00127039771
:103D3000EFF310800090254C00262B4DFFF7C4FABE
:103D400000283FD0012804D0032811D009280BD027
:103D50001AE0E869012803D1207EFDF787FDEE61B6
:103D6000FFF7DAFF02200CE0FCF72AFB002008E056
:103D7000E869002804D11E49207EFDF799FDEF6116
:103D80000520FFF79AFA1DE01A4F3878002818D05E
:103D900000F0BCFB040072B63E70009880F31088FF
:103DA0000520FFF78AFAE006C00E3C30A880290003
:103DB00084B068461C22FDF72FFB0FBC00F0D9F839
:103DC00000E00396039805B0F0BD00008C110020C0
:103DD000B53C0008FB3C00080B3D0008193D0008FD
:103DE0002D430008293D000804120020CF320008AE
:103DF0000547000084120020123401E18002000017
:103E00007047FEE7F4B582B005000E000220FCF713
:103E100064FA002801D1F020FEBD300001D1F1206C
:103E2000FEBDBB4C342200212000FCF77DFD211D8E
:103E30000E60FF20C8750027CF808F7520002430CA
:103E40000090E8070BD5C88801220243CA80684663
:103E5000007A072803DA6846007A009A107302266F
:103E6000354202D0C8883043C88014220021200087
:103E70001C30FCF759FD00980670A6480099486070
:103E8000009807724020009948811C342000FCF7FC
:103E90003AFA002806D1102000F00CF9102000F0AA
:103EA0000FF90020FEBD70B54125994C21783029CD
:103EB0002DD1617831292AD1974E002812D0974808
:103EC000807800280ED003223021202000F0FEF858
:103ED00005001CD122001B3231000A20FCF77AFDBC
:103EE00032200DE000223021202000F0EFF8050004
:103EF0000DD122001B3231001E20FCF76BFD352056
:103F000000F0DEF833211C342000FCF749FA2800C9
:103F100070BD3EB501A9002200230CC17C4CA17AE2
:103F2000C90723D52178202901D030291ED107289F
:103F30001CDA302160542000303000900123618A67
:103F4000A089FCF723FE050011D1A18901A8017009
:103F5000090A4170618A8170090AC17000210171EA
:103F600001AA052109206368984700E0412528003F
:103F70003EBD0FB4F0B58BB003A82021FDF78EFA3B
:103F8000002401A80021002206C0614D28784028A5
:103F900001D16878412800D085E00126AE701E224C
:103FA00003A8FCF7C1FC10A80278022703A9002A85
:103FB00003D18088487002230AE0012A56D108788C
:103FC00006430E7010A880884870000A887003238A
:103FD000A87E00280DD00878042606430E7010A88D
:103FE0004078002805D0022840D1304602260643FA
:103FF0000E7008266889384211D010A880780028F1
:104000000DD0082832D10878082707430F7010A870
:10401000C088C8545B1C000ADBB2C8545B1C10A8E3
:10402000C078002824D0102820D108781027074312
:104030000F700920012A00D10820374201D0401E0C
:10404000C0B210AA127A824200DA1000E4B28442AE
:104050000EDA10AE6200B2185289DBB2CA545B1C91
:10406000120ADBB2CA545B1C641CEFE742201CE05E
:1040700003A80090DBB20022E989A889FCF786FD3D
:10408000040011D1A98901A80170090A4170E989C8
:104090008170090AC1700021017101AA052109205E
:1040A0006B68984700E0412420000BB00499F0BCF5
:1040B00005B0084780B516490870FFF7F9F801BD4B
:1040C00080B513494870FFF7F3F801BD70B58CB0A7
:1040D00004000D00160007A811A11022FDF79CF99D
:1040E0000E490020069005900800293004902831E0
:1040F0000878039007A802901020019000960023F2
:104100002A0021000020FCF774FE0CB070BD0000F6
:10411000A81100200D420008D1440008600F0020C3
:104120000948656172745261746553656E736F728C
:1041300030B587B00423344C6089C10700D506230D
:104140000225284201D09B1CDBB28B4869460883BC
:1041500020000C300090012206A90120FCF774FC1D
:1041600000284FD16F486946088320000E30059023
:10417000012004900A20039000200290019010205A
:1041800000901E2306AA0121A089FCF7A2FC0028AA
:1041900038D1654869460883200012300590002018
:1041A00004900A20039000200290019000950123C2
:1041B00006AA0121A089FCF78CFC002822D120004E
:1041C0003030009001230022618AA089FCF7DEFCD8
:1041D000002817D16189294214D0BC486946088358
:1041E000200014300590002004900A2003900295CE
:1041F0000020019008200090012306AA0121A08937
:10420000FCF767FC07B030BDA811002070B584B082
:1042100000256A461572421C007804280FD1FF263B
:10422000B64C1078052804D03E281BD0FF2835D086
:104230007FBD2078302803D160783B2802D07FBD35
:104240004028FCD190780028F9D13020FFF732FFC8
:104250003120FFF735FFA576A570E07EFCF7D2FB95
:10426000E6767FBD921C10780128E8D1521C1078A8
:10427000002811D1507891780906090C0843208153
:10428000E07EFCF7BFFBE676FCF721F8502818D05B
:104290003B20FFF715FF7FBD3120FAE7921C107815
:1042A00051780906090C08439549884203D095497D
:1042B00088420BD07FBD20783028C0D160783B2861
:1042C000BDD14020FFF7F6FE4120E2E7921C917835
:1042D000D0780006000C0143137950796A461072B9
:1042E000A08A401C8142AAD120784028A7D16078BA
:1042F0004128A4D12089127A012A02AA01920093AE
:104300000BD100230022FCF7A4FC002897D1002247
:1043100000210B20636898477FBD80230122FCF7B2
:1043200098FC7FBD372A0000382A000038B50020ED
:1043300069460870714C2078102804D020282DD0B0
:1043400030283FD0BFE0FBF7C2FF2028FAD1FFF7AB
:10435000EFFE694608706846007800280ED11C34CC
:104360002000FCF706F80448FCF757F82020FFF778
:10437000A1FEFF20A5E000BF0D1800006A46012144
:104380000820636898470020FFF794FEFF20FFF79E
:1043900097FE1C342000FBF7D8FF94E0FBF797FF53
:1043A0003028FAD1FBF796FF3128F6D13020FFF7FD
:1043B00081FE3120FFF784FE6A46012108206368F0
:1043C000984780E0504D607833280AD0342817D0C1
:1043D00036282DD037283AD0392854D03B2868D0F9
:1043E00071E0FCF7FAFC694608706846007800281E
:1043F00069D131211C342000FBF7D2FF342060E06A
:10440000002230212020FFF761FE694608706846CF
:104410000078002857D1332120001C30FBF7C0FF63
:104420003520FFF74DFE1B34220029001E2027E017
:10443000FCF7D3FC6946087068460078002842D132
:1044400031211C342000FBF7ABFF372039E000227C
:10445000FA210901C820C000FFF738FE694608703C
:104460006846007800282ED1332120001C30FBF74D
:1044700097FF3820FFF724FE1B34220029003C2040
:10448000FCF7A8FA1FE0FCF7A8FC6946087068462C
:104490000078002817D13120FFF712FE31212000CB
:1044A0001C30FBF77DFF002200210720636898473E
:1044B00009E0FBF70FFF552805D14020FFF7FAFD73
:1044C0004220FFF7FDFD6846007832BD392A000022
:1044D0000A480178302900D0704780B540783228EA
:1044E00004D0352804D0382804D001BD332002E0A0
:1044F000362000E03920FFF7E3FD01BDA8110020C0
:1045000001040000130C0000D1440008F8B52F4E40
:104510003000FFF775FC0090301DFFF771FC0400C0
:1045200030000830FFF76CFC05000C363000FFF758
:1045300067FC2749274A009B1B78002B36D123684C
:1045400053435B18236053435B18236053435B184A
:10455000236053435B18236053435B18236053432A
:104560005B18236053435B18236053435B1823603D
:1045700003000826276857437F1827601F602768B5
:1045800057437F1827605F60276857437F1827606D
:104590009F60276857437F182760DF601033761EBF
:1045A000E8D1C36F2B600123009E3370236853430F
:1045B000591821602978C906490E401801682960F8
:1045C00021680160286880008008F2BDEC000020AE
:1045D0005FF36E3C0D661900F8B504000E0015007F
:1045E000207880075CD0200000F09EF8002857D18A
:1045F000002E02D003CE083E2D18009801283CD191
:104600002088C00416D522003D32A169200000F0A8
:10461000ABF80700626A002A00D12269E168200035
:1046200000F0A2F8E91B0D1AA26AE168200000F070
:104630009BF82D1A002D28D12088C021890108421D
:104640000ED06068E0602061A06260616068E06236
:1046500020003D30A06120002430E0610020606235
:10466000002E04D0083603CE2200303203C2208848
:104670000F49014021800020F2BD022805D000280A
:104680000AD10020C04385420AD0009A29000320A5
:10469000205600F06FF805000020C0438542CBD1C2
:1046A00000F08EF8232101600020C043F2BD00BF5E
:1046B000FFCE000070B500F08BF804002088800465
:1046C0002DD565680026F64308E04A1B290000F056
:1046D00081F8B0420DD000280BD02D1803202056B1
:1046E000E1688D42F1D30022002100F073F8B0425E
:1046F0000DD16068E0606061E062208880218900FF
:1047000001432180200000F064F8300070BD65682E
:10471000E5606561E5622088114901402180200043
:1047200000F057F8002070BDF8B5002815D1C0463C
:10473000C04600240B4D08260027FF4328680028A8
:1047400004D0FFF7B7FF002800D53C002D1D761ED2
:10475000F4D1C046C0462000F2BDFFF7ABFFF2BD6A
:10476000FFDF0000C4000020914201D2501A7047C0
:104770000020704730B583B004000D00012A02D13B
:1047800000F071F807E0022A07D1009400200190A0
:1047900069460C20ABBE2D1801E0002A0CD1009414
:1047A000019569460A20ABBE002805D100222100F0
:1047B000280000F036F801E00020C04303B030BD0F
:1047C00080B50248FFF71CFB02BD0000EC01002091
:1047D0007047704780B5002802D400F065F802BD2C
:1047E000002002BD30B4002100242E4A13001D68B1
:1047F000854204D1E300D218116051600FE0641CBF
:104800009D688542F6D0641C1D698542F2D0641C07
:104810009D698542EED0641C2033102CE7D330BC58
:10482000704770B400241F4B1D002E688E4208D1C3
:104830000100E4001B19012A01D15A688918596046
:104840000FE0641CAE688E42F2D0641C2E698E426A
:10485000EED0641CAE698E42EAD0641C2035102C68
:10486000E3D370BC704710B400220E490B001C68E3
:10487000844203D1D0000818406810E0521C9C68A4
:104880008442F7D0521C1C698442F3D0521C9C69AC
:104890008442EFD0521C2033102AE8D3002010BCF1
:1048A00070470000F00F002080B5002901D10020E2
:1048B00002BD012801D0022802D100F004F802BD97
:1048C00000F011F802BD30B583B00C0015000120D6
:1048D00000F032F800900194029569460520ABBEC5
:1048E000281A03B030BD10B584B003001400009343
:1048F0000191029469460520ABBE01221900201ADD
:10490000FFF78FFF04B010BD80B500F033F8020050
:104910000023DB431068984204D011000220ABBE94
:10492000002010605068984204D0111D0220ABBED8
:104930000020506001BD000010B584B0040000F0FC
:1049400019F8A100421810680021C94388420DD10E
:1049500007A00090002C01D1002000E0042001906D
:104960000320029069460120ABBE106004B010BD68
:104970003A74740000487047E400002038B5040021
:10498000E0686169884254D321882B4A0A40022A90
:1049900009D0080402D58020800001E08420C001F5
:1049A000084320803FE0C025ED012940A94207D1FE
:1049B000A168884204D32000FFF7B6FE002832D158
:1049C0002088E90808421ED1616820003D308142FC
:1049D00019D180208000FDF703FF6060002806D118
:1049E00020003D306060E060401CA0600BE021884A
:1049F00040220A432280E060802189004118A160A2
:104A0000A0626068E06260682061A06860612078F0
:104A100040070BD502220021200000F00FF80021F2
:104A2000C943884202D10020C04332BD20880543DB
:104A30002580002032BD00BF0290000070B50D003F
:104A40001600FFF7C5FE040033002A000021FFF71F
:104A5000C3FD05002000FFF7BCFE280070BDFEE787
:104A600010B500210278120626D50023214A1468C9
:104A7000844202D19B00D1501BE001235468844240
:104A8000F8D0022394688442F4D00323D46884428B
:104A9000F0D0042314698442ECD005235469844285
:104AA000E8D0062394698442E4D00723D469844281
:104AB000E0D0FDF7FDFE10BD0180C943C1700100CB
:104AC0003D31416001003D31C16001003D31016176
:104AD00001003D31816201003D31416101003D3104
:104AE000C16201003D31816101002431C16110BD0D
:104AF00000000000C400002070B50400207880078A
:104B000003D003202056002809D5C046C046200007
:104B1000FFF7A6FFC046C0460026F64329E0200066
:104B2000FFF702FE0600C046C0462078400602D5C8
:104B30006068FDF7BDFE0025656003202056022851
:104B400005D900F018F8002801D00026F643A06B24
:104B5000002809D000F01CF8002801D00026F643F8
:104B6000A06BFDF7A5FEA5632000FFF779FFC04607
:104B7000C046300070BD10B582B002000092694698
:104B80000220ABBE04001000FFF72CFE200016BD73
:104B900000B583B00090FDF70AFE019069460E2033
:104BA000ABBE03B000BDFEE710B5184C206800286E
:104BB00001D0FFF7A1FF6068002801D0FFF79CFF3C
:104BC000A068002801D0FFF797FFE068002801D017
:104BD000FFF792FF2069002801D0FFF78DFF606981
:104BE000002801D0FFF788FFA069002801D0FFF757
:104BF00083FFE069002801D0FFF77EFF002200213B
:104C00000020C043FFF7E6FD10BD00BFC400002038
:104C10000F480168820D0A430260C1680D4A0A40CC
:104C2000C26001680C4A0A40026081680122914317
:104C300081600168094A0A400260C168084A0A4066
:104C4000C2600021016180200005064908607047AC
:104C5000001002400C40FF88F6FFF6FEFFFFFBFF4E
:104C6000FFFF02FF08ED00E0030406080C10182007
:104C70003000000038B504000800FFF7A9FD05006A
:104C8000E8686969884204D32800FFF777FE0028A6
:104C900010D4E868411CE96004702888010504D438
:104CA00040050DD5E4B20A2C0AD12800FFF73CFDDF
:104CB000002805D02800FFF78CFD0020C04332BD3E
:104CC0002800FFF786FDE0B232BDFEE77047FEE741
:104CD0007047704780B5FEF73FF90C480168491CE2
:104CE000016001BD80B5FCF7EDFC01BD80B5012080
:104CF000FDF7EDFE01BD80B580208001FDF7E7FEE8
:104D000003480178491C017001BD00007C1200209D
:104D10008412002070B40121002313E00468001DF8
:104D20000C4202D04D466D1E64192360241D121FD3
:104D3000042AFAD22500960701D52380AD1C0A402B
:104D400000D02B700268001D002AE7D170BC7047AC
:104D500030B501684118446862088A188368E4071E
:104D600001D54C461B190C30914200D130BD0C7856
:104D700064B2491C0D78491C1D705B1C002C02D5C7
:104D8000641CF9D1F0E7641EF4D5EDE710B50749CE
:104D900079441831064C7C44163404E0081D0A6836
:104DA000891888470100A142F8D110BD0800000011
:104DB0002400000061FFFFFF98060000F00B0020B8
:104DC000000000008DFFFFFFC00000001001000088
:104DD0000000002000F00BF8002801D0FFF7D6FFFC
:104DE0000020C046C046FDF731FC00F002F801206B
:104DF000704780B500F002F801BDFEE70746FFF7F7
:104E0000D3FE384600F002F8FBE7FEE780B5FFF777
:104E10007BFD024A11001820ABBEFBE72600020012
:104E200038B505000C00200000F006F8A04200D0C4
:104E30000025280032BDFEE780B50249FFF71AFFC2
:104E400002BD00BF440000200148804701480047E0
:104E5000114C0008594E0008C046C046C046C04626
:104E6000FFF7B8FF0000000000000000E8030000AA
:104E7000FEE7FEE7FEE7FEE7FEE7FEE7FEE7FEE70A
:104E8000FEE7FEE7FEE700002380841E0001040029
:104E900000410000204200002041000020410000AD
:104EA00020410000204100002028000020E0001FD9
:104EB00002040101181100206811002018110020BF
:104EC0001811002018110020810000206800002027
:104ED000E0001F02080202C810002018110020C8BC
:104EE000100020C8100020C8100020C1000020A819
:104EF000000020E0000B040000204400002084009B
:104F00000020EC00F8FFFC0000018100810000009F
:00000001FF
