:020000040800F2
:100000009004002065630008816200088362000894
:1000100085630008896300088D6300080000000004
:1000200000000000000000000000000085620008E1
:100030008762000800000000896200088B620008E7
:10004000916300089563000899630008A1620008A5
:100050009D630008A1630008A5620008A56300086D
:10006000A9630008AD630008B1630008B563000828
:10007000B9630008BD630008C1630008C5630008D8
:10008000C9630008CD630008D163000800000000C8
:10009000000000000000000000000000D563000820
:1000A000D9630008DD630008E1630008E563000828
:1000B000E9630008ED630008F1630008F5630008D8
:1000C000F9630008FD630008016400080564000886
:1000D000096400080D6400081164000800000000B5
:1000E000AB620008156400081964000800000000F5
:1000F0000000000000000000000000001D64000877
:10010000000000002164000825640008296400083C
:1001100000000000000000000000000000000000DF
:100120002D64000831640008356400083964000853
:100130003D64000800000000000000000000000016
:100140000000000000000000000000004164000802
:1001500045640008496400084D64000851640008C3
:100160005564000859640008000000000000000009
:10017000000000000000000000000000000000007F
:10018000000000005D6400080000000000000000A6
:1001900061640008DFF80C08016811B90FF27521DD
:1001A0000160416811B90FF2C5214160C16811B900
:1001B0000FF21931C160816811B90FF2F931816014
:1001C00000218182817570472DE9F04FDFF8D867F3
:1001D0000FF6680B0FF60C080FF6300983B0824655
:1001E0000D4630680FF2D471524601F091F80024A8
:1001F000002701E0E4B27F1CFFB2574548D2605DA2
:10020000012826D16019411D022201A801F06AF9D6
:10021000BDF80410306841F60A02891A10D0C91ED0
:1002200012D118208DF8020011220D208DF8030044
:1002300002210DF1020001F0FBF83068414600E0B8
:10024000494601F065F804E0BDF80420594601F084
:100250005FF8641C00F01EF8BDF8002030680FF253
:10026000F47101F055F8A41C00F014F8BDF800205A
:1002700030680FF6040101F04BF8A01CC0B2411920
:1002800011F8051C01290CBF841C00F11004B1E712
:10029000BDE8F78FE4B202226119684601F022B985
:1002A0002DE9F04FDFF8006783B081460D463068D6
:1002B0000FF2E8714A4601F02BF80027B8462AE011
:1002C0000FF6041101F024F80222611C0DF1020066
:1002D00001F008F994F803B00222211D01A801F0F1
:1002E00001F9BDF8022030680FF6001101F010F896
:1002F00030680FF624115A4601F00AF8BDF80420C0
:1003000030680FF6341101F003F800F07CF8574420
:10031000FFB208F101085FFA88F8C84527D2785D76
:100320007C19012807D10222A11D684601F0DAF8E4
:100330004FF0080A01E04FF0160ABDF800103068CF
:1003400042F62922891A0FD00E3904D0491E05D051
:10035000491E06D0B4E70FF27071B3E70FF2A07137
:10036000B0E70FF2E071ADE70FF61401AAE7BDE8C0
:10037000F78F2DE9F84FDFF8306680460D4630687C
:100380000FF6F4010FF65C1A424600F0C1FF00249C
:10039000A1460EE000F0BCFFBDF8022030680FF669
:1003A000B41100F0B5FF00F02EF85C44E4B209F19E
:1003B00001095FFA89F9C14523D2605D67190128F7
:1003C00007D10222F91C684601F08CF84FF0050BAA
:1003D00001E04FF0130B0222791C0DF1020001F035
:1003E00081F8BDF80010306842F60212891A06D072
:1003F000891E0CBF0FF6AC010FF62C11CAE751464F
:10040000C8E7BDE8F18FBDF8002030680FF64C0159
:1004100000F07EBF00B50FF6741189B00CC906A8B4
:100420000FF670110CC00CC904A80CC00090042079
:100430008DF80C0005208DF8040004A80290684691
:100440000FC801F098F8DFF860150B6828B90FF6AF
:100450004C11184600F05CFF05E002460FF65411FF
:10046000184600F055FF09B000BD000000B58BB084
:1004700004208DF80C0003A901208DF80D001C222A
:1004800000208DF80E0001208DF81F0000208DF84F
:100490002000DFF81805099084B0684601F064FA7E
:1004A0000FBC01F0ACF8DFF800150B6828B90BB0F1
:1004B0005DF804EB0FF6141166E00BB002465DF830
:1004C00004EB0FF62011184600F022BF1CB50020E7
:1004D0008DF800003020ADF80200ADF80400DDE931
:1004E000000101F075F800F04AF804D10FF614117C
:1004F00000F00EFF04E022460FF6181100F008FF8E
:10050000204616BD10B58EB047F2305105910990C6
:100510003021ADF81810ADF81A1028204FF4805192
:10052000ADF82A00ADF81C1038201221ADF82C00CF
:10053000ADF81E1014200021ADF830008DF8201009
:100540008DF82810ADF82E1000F06BF805A984B0D6
:100550006846242201F008FA0FBC01F074F800F09C
:100560000EF804D10FF6D00100F0D2FE04E02246CE
:100570000FF6E80100F0CCFE20460EB010BD0400DE
:10058000DFF8240400687047184600F0C1BE10B5BB
:1005900001F0AAF8FFF7F3FF04D10FF6E40100F031
:1005A000B7FE04E022460FF6FC0100F0B1FE204643
:1005B00010BD000010B582B001F084F88DF8000085
:1005C000DFF8E44358B900F011F820680FF6FC0199
:1005D00000F09EFEDFF8CC130120087513BD024623
:1005E00020680FF6041100F093FE13BD0B220121C9
:1005F000684600F01DBF38B5044601F084F80500D8
:10060000DFF8A403006804D10FF6041100F080FEA7
:1006100005E023462A460FF6201100F079FE284611
:1006200032BD0520ADF83200ADF8340070472DE939
:10063000F04782B0DFF870430FF65415DFF87063AF
:10064000DFF860730FF63418DFF86893DFF868A3FB
:1006500007E02068294600F05BFEFFF7ABFF0120B2
:1006600038750A2304225146484601F02FFA20B17A
:10067000032807D001F0E2FB04E042460421504683
:1006800000F06BFE787D0028EBD001F005FC01F056
:100690004EFE96F8D20008B101F090F8B87D50B146
:1006A00007F11700FFF72EFF8DF800000A22FFF771
:1006B0009EFF0020B875387D022805D1FFF767FF3F
:1006C00000F025F8CBD0C4E7032807D141F60D0090
:1006D000FFF791FF00F01BF8C1D0BAE7042805D15D
:1006E00001F040F800F013F8B9D0B2E7052805D1C1
:1006F00001F054F800F00BF8B1D0AAE70828B0D107
:1007000001F041F800F003F8A3D10620A8E7002883
:100710008DF800007047F1B586B00D460C980FF6C5
:10072000840614460F223146401D02F06BF8A8B92A
:100730008ECE68468EC07C218DF80F108DF810503B
:100740008DF8111000206A46015D8218401C0628B1
:100750009174F8DB08221821FFF74AFF9DF8180072
:1007600003280AD10C22012106A800F061FE8E4860
:100770000FF64001006800F0CBFD07B0F0BD2DE999
:10078000F041894C82B006460F460FF63C082068BF
:10079000844D414600F0BCFD2068012E04D01ED3DC
:1007A000032E0FD008D31AE0CFB90FF6480100F09E
:1007B000AFFD0220287512E03A460FF6640100F002
:1007C000A7FD0CE0287D062809D100208DF8000047
:1007D000FFF70CFF20680FF6780100F099FD206804
:1007E000414600F095FDBDE8F3812DE9F04100F0B0
:1007F0002FF838680FF6800100F08AFD00F022F82B
:1008000034B931462846FFF7DFFC664903200875F6
:1008100012E02DE9F04100F01BF838680FF6A00156
:1008200000F076FD00F00EF834B931462846FFF7A7
:1008300037FD5C490420087541463868BDE8F04141
:1008400000F066BD38680FF65C01224600F060BD1E
:10085000554F0FF2747804460D46386816464146E7
:1008600000F056BD2DE9F041FFF7F2FF38680FF6B2
:10087000880100F04DFDFFF7E5FF34B93146284609
:10088000FFF777FD474905200875D5E72DE9F041C9
:10089000454F04460D4638680FF22C71164600F09D
:1008A00037FD38680FF68801FFF7CFFF44BB386883
:1008B0000FF6B0012A4600F02BFD3868012D07D154
:1008C0003B4991F8E4200FF6BC0100F021FD14E053
:1008D0000FF6DC010FF6E80800F01AFD07E0A25D54
:1008E00038681346414600F013FD641CE4B2AC4284
:1008F000F5DB38682AA100F00BFD2A4908200875AD
:10090000BDE8F0812A4A92F8D2203AB10246264840
:1009100000680B460FF6B40100F0FABC704710B542
:10092000214C0FF6E801206800F0F2FC002000F0F6
:10093000D4FE38B1024620680FF6F401BDE810403D
:1009400000F0E6BC10BD2DE9F0410C461549097DCB
:100950000629154619D1144E0FF620110FF660180E
:1009600002463068234600F0D3FC002704E07A5D9D
:10097000414600F0CDFC7F1CFFB23068A742F6D3A1
:10098000BDE8F04106A100F0C3BCBDE8F08102461D
:10099000054800680B460FF6301100F0B9BC0000A6
:1009A0000D0A0000BC0C00206009002007B2010005
:1009B000640A0020440C0020FC0C00202A2A2A2A69
:1009C000202020204E756D626572206F6620507267
:1009D000696D61727920536572766963653A202585
:1009E000640D0A002A2A2A2A2020202048656172E4
:1009F0007420526174652053657276696365205571
:100A000055494420666F756E640D0A002A2A2A2A09
:100A10002020202044657669636520496E666F72E8
:100A20006D6174696F6E20536572766963652055D8
:100A300055494420666F756E640D0A002A2A2A2AD9
:100A40002020202055554944203078253034780D19
:100A50000A0000002A2A2A2A2020202020202053B1
:100A6000746172742048616E646C65203D2030783A
:100A7000253034780D0A00002A2A2A2A2020202036
:100A8000202020456E642048616E646C65203D2006
:100A90003078253034780D0A000000002A2A2A2AEE
:100AA000202020204E756D626572206F662043689D
:100AB00061726163206F662061205365727669639D
:100AC000653A2025640D0A002A2A2A2A202020209F
:100AD000202048656172742052617465204D656103
:100AE000737572656D656E742043686172616374BD
:100AF0006572697374696320666F756E640D0A00B0
:100B00002A2A2A2A20202020202048656172742069
:100B10005261746520426F64792053656E736F7201
:100B2000204C6F636174696F6E204368617261630A
:100B3000746572697374696320666F756E640D0AFB
:100B4000000000002A2A2A2A202020202020486590
:100B5000617274205261746520436F6E74726F6CA1
:100B600020506F696E7420436861726163746572AE
:100B7000697374696320666F756E640D0A00000006
:100B80002A2A2A2A202020202020446576696365AD
:100B900020496E666F726D6174696F6E204D616E73
:100BA000756661637475726572204E616D65204370
:100BB0006861726163746572697374696320666FDA
:100BC000756E640D0A0000002A2A2A2A202020209F
:100BD000202043686172616374657269737469632C
:100BE00020666F756E640D0A000000002A2A2A2A0A
:100BF000202020202020436861726163746572693F
:100C0000737469632048616E646C65203D203078A0
:100C1000253034780D0A00002A2A2A2A2020202094
:100C2000202050726F70657274696573203D2030AA
:100C300078253032780D0A002A2A2A2A20202020FE
:100C4000202056616C756548616E646C65203D209E
:100C50003078253034780D0A000000002A2A2A2A2C
:100C600020202020202055554944203D2030782543
:100C70003034780D0A0000002A2A2A2A2020202059
:100C80004E756D626572206F6620436861726163A4
:100C90002044657363726970746F723A2025640D25
:100CA0000A0000002A2A2A2A202020202020436827
:100CB00061726163746572697374696320507265EF
:100CC00073656E746174696F6E20466F726D6174C6
:100CD0002044657363726970746F7220666F756EFD
:100CE000640D0A002A2A2A2A202020202020436C72
:100CF00069656E74204368617261637465726973BB
:100D000074696320436F6E66696775726174696F99
:100D10006E2044657363726970746F7220666F75BC
:100D20006E640D0A000000002A2A2A2A20202020B2
:100D300020204368617261637465726973746963CA
:100D40002044657363726970746F7220666F756E8C
:100D5000640D0A002A2A2A2A202020202020436805
:100D60006172616374657269737469632044657349
:100D700063726970746F722048616E646C65203DA7
:100D8000203078253034780D0A000000230200E17D
:100D9000800200004852505F4300000043656E74BB
:100DA00072616C20696E697469616C697A65642E20
:100DB0000A0000004852435F496E697428292045A3
:100DC00072726F723A20253032580A00536563758B
:100DD0007269747920706172616D73207365742E0D
:100DE0000A0000004852435F536563757269747965
:100DF0005365742829204572726F723A202530326B
:100E0000580A00005363616E6E696E672E2E2E0ABB
:100E1000000000004852435F446576696365446999
:100E200073636F766572792829204572726F723A02
:100E300020253032580A00004852435F44657669E5
:100E40006365436F6E6E656374696F6E2829204316
:100E5000616C6C3A204F4B0A000000004852435F1F
:100E6000446576696365436F6E6E656374696F6E22
:100E70002829204572726F723A20253032580A00B4
:100E80004852435F5365727669636573446973635F
:100E90006F7665727928292043616C6C3A204F4B3C
:100EA0000A0000004852435F5365727669636573B8
:100EB000446973636F766572792829204572726F71
:100EC000723A20253032580A0000000044697363EA
:100ED0006F6E6E656374696F6E20636F6D706C65A5
:100EE00074652E0A000000004852435F446576692D
:100EF0006365446973636F6E6E656374696F6E28B2
:100F000029204572726F723A20253032580A00004B
:100F10004465766963655F446973636F766572796A
:100F20005F4368617261635365727628292043616B
:100F30006C6C3A204F4B0A004465766963655F44E8
:100F40006973636F766572795F4368617261635339
:100F50006572762829204572726F723A20253032E8
:100F6000582C20757569645F736572766963653A9C
:100F7000203078253032580A0000000043656E7436
:100F800072616C2050726F66696C652041707000F0
:100F9000446973636F6E6E656374696E672E2E2E7F
:100FA0000A00000048656172745261746553656E91
:100FB000736F72005363616E6E696E6720636F6D4D
:100FC000706C6574652E0A002A2A2A2A2A2A2A2A7F
:100FD0002A2A2A2A2A2A2A2A2A2A2A2A2A2A2A2A71
:100FE0002A2A2A2A2A2A2A2A2A2A2A2A2A2A2A2A61
:100FF0000D0A00002A2A2A2A2020436F6E6E65639C
:1010000074696F6E2045737461626C69736865649E
:10101000207769746820537563636573730D0A00E4
:101020002A2A2A2A2020436F6E6E656374696F6EC8
:10103000204661696C656420776974682053746127
:10104000747573203D203078253032780D0A000009
:101050002A2A2A2A2020446973636F6E6E6563749E
:10106000696F6E20776974682070656572206465A9
:10107000766963650D0A00002A2A2A2A20507269BF
:101080006D61727920536572766963652044697376
:10109000636F766572792050726F636564757265EF
:1010A0000D0A00002A2A2A2A202020205374617465
:1010B0007573203D203078253032780D0A0000000D
:1010C0002A2A2A2A20446973636F7665727920433D
:1010D0006861726163746572697374696373206FA8
:1010E00066206120536572766963652050726F6374
:1010F00065647572650D0A002A2A2A2A20446973DC
:10110000636F76657279204368617261637465729A
:1011100069737469632044657363726970746F7274
:101120002050726F6365647572650D0A00000000DF
:101130002A2A2A2A2044617461205265616420565B
:10114000616C75652050726F6365647572653A20D5
:10115000537461747573203D203078253032780DDA
:101160000A0000002A2A2A2A202020204C656E200E
:10117000646174612052656164203D2025640D0A1C
:10118000000000002A2A2A2A20485220426F64794F
:101190002053656E736F72204C6F636174696F6E5C
:1011A0002056616C75653A203078253032780A0017
:1011B0002A2A2A2A20202020446174613A20000033
:1011C0003078253078202825642900002A2A2A2A08
:1011D0002A204852435F46756C6C436F6E665F43CE
:1011E000422829204572726F722054797065203D23
:1011F000203078253078207769746820436F6465E3
:10120000203D2030782530780D0A00002A2A2A2A2D
:1012100020526571756972656420536563757269E2
:1012200074792050696E20436F64650D0A000000D8
:101230002A2A2A2A204572726F7220647572696E9A
:1012400067207468652050616972696E67207072EA
:101250006F636564757265202D3E2050696E204372
:101260006F646520736574202853746174757320EE
:101270003D2030782578290D0A0000004E4F544952
:101280004649434154494F4E5F444154415F5245A2
:101290004345495645443A2068616E646C653D306B
:1012A00078253034782C2064617461206C656E6719
:1012B00074683D25642C20646174613A0D0A000055
:1012C000253032782000000050616972696E672015
:1012D000434220636F6E6E5F68616E646C65203D93
:1012E00020307825303478207769746820737461F1
:1012F000747573203D203078253032782A2A2A2AC6
:101300002A2A2A2A2A2A2A2A2A2A2A0A0000000005
:101310000CB400B5A1B00A4622AB8021684601F0AA
:10132000A3FA01460722684600F082F821B05DF872
:101330000CFB10B5564C607D70B900F087FD01F0D4
:101340008DFB01F06DFC2068804760688047E06895
:10135000804701202075607510BD01460878FF2880
:1013600000D0704770B582B04A78494C49484A4D20
:10137000012A08D0092A1BD00B2A2BD00D2A0BD00A
:10138000122A3DD048E000206075062213210FF29A
:101390000C1000F04DF808E0012020756075E06841
:1013A000804700283DD000206075FFF7C2FF73BD65
:1013B000CE78002E35D000F035F808B100F03EFDB3
:1013C0000622691D04F1170000F0BEFA01206075C5
:1013D000A07573BD207D022802DBA06880470CE069
:1013E000002060758DF800000121684600F020F8AB
:1013F00028680FF2BC01FFF78BFF0120207573BD39
:10140000CE7876B100F00EF808B100F017FD226931
:101410003146281D904773BD28680FF2B001FFF7D1
:1014200077FF73BD4FF496733246291D00F04EBB13
:101430007CB504000D4627D001218DF80110FF2056
:1014400000218DF800008DF80610002002218DF893
:1014500004208DF802108DF803008DF805504FF42C
:1014600096730C4E06226946304600F0E0FA08B149
:1014700000F0E4FC4FF49673AAB22146304600F027
:10148000D6FA08B100F0DAFC73BDFEF783BE0000A7
:10149000BC0C0020440C00206009002043656E74E1
:1014A00072616C2050726F66696C652041707000CB
:1014B000446973636F6E6E656374696F6E20636FEA
:1014C0006D706C6574652E0A00000000436F6D6DD1
:1014D000616E6420756E737570706F727465642EC2
:1014E0000A00000010B5044600F02EFA204610BD98
:1014F00010B5044610460A460146204601F092FB0C
:10150000204610BDF3B581B0170000250024AA4E77
:1015100000E06D1C307BEDB285422AD23119C87BC8
:101520000128F6D1022214316846FFF7DBFF641C64
:10153000E4B2022231190F310298FFF7D3FFA41C45
:10154000E4B2022231190F313800FFF7CBFFA41C9F
:10155000E4B23019807A012801D1A41C00E01034D3
:10156000E4B268460088694689888842D1D1002063
:10157000FEBD1220FEBD7FB586B08F4DE822002152
:101580002800FFF7AFFF2E00D23600243475748296
:1015900006220699281DFFF7A5FF06220699684630
:1015A000FFF7A0FF684606A9097B017306A9097920
:1015B0008171089802900494684600F0FDFD0028AF
:1015C00003D102212960347000E02C600AB070BDA4
:1015D00003B583B068460221017003A949884180A0
:1015E00003A9898881806946097B817100F05FFECB
:1015F000002802D10321704A116005B000BD0FB46C
:1016000030B587B00AAD6C46287820706878607075
:10161000A878A070012804D11022E91CE01CFFF773
:1016200061FF287D2075002801D1109800E000207E
:101630000690E87CE074684600F022FE07B002994C
:1016400030BC05B008470FB410B58AB06C46032013
:1016500020700C9801900CA8808820810CA8C0886C
:1016600060810CA80089A0810CA84089E0810CA8A9
:10167000007B20740622109920001130FFF732FF02
:101680000CA8007DE0750CA8C08A20830CA8008BF4
:1016900060830CA8408BA0830CA8808BE0830CA8EF
:1016A000C08B20840CA8008C6084684600F04DFE3E
:1016B000002802D10421404A11600AB0019910BCEF
:1016C00005B0084710B5964C608900F06CFE002804
:1016D00002D10021D234217010BD80B501009048A4
:1016E000408901F047F802BD10B58D4C322322002D
:1016F0000F3221000C31608900F05AFE002801D120
:101700000621216010BD70B584B005002A4C26006A
:101710000A368449884202D0C91E884207D1F0782F
:10172000002802D03079002801D1122018E002AA46
:1017300002A9891C2800FFF7E5FE002810D16420CB
:10174000019020004B30009023004A336846028904
:101750004189308800F057FE002801D1B03425803F
:1017600004B070BD1CB56E4B1C000A34218F642080
:10177000019018004B3000904A334A1C92B22088E6
:1017800000F074FE16BD80B5674800230122018F6A
:10179000491C89B2008800F09BFE02BD80B5064A54
:1017A00010000A30012100911300B233D032418F72
:1017B000008800F0D9FE02BD640A002038B50C2470
:1017C000574D2868052808D007280FD00C282CD0A2
:1017D0000D281ED00F2813D031BDFFF785FF00283C
:1017E00001D106202AE0010001201AE04D48FFF750
:1017F0008AFF002801D1082020E00100032010E02A
:10180000FFF7C1FF002801D1102017E001000720D9
:1018100007E0FFF7C3FF002801D10E200EE0010012
:101820000920FFF76FF82C6031BDFFF74BFF002850
:1018300003D001000220FFF765F80220286031BDC7
:101840003748B221415CE4300170704780B500F048
:101850006DF801BDF4B586B00F0000260024304DB0
:101860004221695A884258D11022002101A8FFF76D
:101870003FFE009701A806990978017006994B78F8
:101880000278D20702D40122437005E002228C784C
:1018900024021C434480012403781B070AD5921CB0
:1018A000D2B28B181F783F025B1E1B781F438780C4
:1018B000012300E000232900E6310B700378DB06EA
:1018C00025D5009B5B1E0373002C01D09B1E00E0FE
:1018D0005B1E03730978002902D0017B891E017306
:1018E000017B490801730FE0921CD2B2009882423A
:1018F00009DA06988318187800025B1E1B781843D3
:10190000039B74001853761CF6B28E42ECD310225F
:1019100001A9D4352800FFF7E5FD07B0F0BD0000B0
:10192000640A00200D1800006E0A002070478268CB
:10193000521C8260426832B10268531C036011700D
:101940004168491E4160704762B38B0708D0521E40
:1019500011F8013B00F8013B00F024808B07F6D121
:10196000830740F0208000BF103A07D330B4B1E8BD
:101970003810103AA0E83810F9D230BC530724BF11
:10198000B1E80810A0E8081044BF51F8043B40F843
:10199000043BD20724BF31F8022B20F8022B44BFAE
:1019A0000B7803707047083A07D3B1E80810083A7B
:1019B00040F8043B40F804CBF7D25307E4E70000BB
:1019C00038B5050001D1012032BD05F13804607839
:1019D00018B92070284600F0C5F900F017F800F09B
:1019E0000DF821F02A01FFE74161286800F019F89D
:1019F000606020206070A070002032BD28680169FE
:101A000021F4904101612868416970472420607089
:101A10002868C16821F40051C160284600F0E2B88E
:101A20002068C16841F40051C160002070472DE971
:101A3000F843044604F138070D4678782028164606
:101A4000984640D1002D14BF002E01203CD038789C
:101A5000012838D00120387000207860212078706B
:101A600001F044F9A6848146E68403E0216815F874
:101A7000010B4860E08CB8B1401EE08400F078F8BB
:101A80000DD100F07CF8B8B928882168C005C00DD8
:101A900048602069002814BF6D1CAD1CEAE700F007
:101AA0006EF80028E2D007E0CDF800804B46002217
:101AB000402100F066F808B1032005E0202078708E
:101AC0000020387000E00220BDE8F2832DE9F843E1
:101AD000044604F138070D46B87820281646984683
:101AE00043D1002D14BF002E01203FD038780128AB
:101AF0003BD001203870002078602220B87001F0BF
:101B0000F5F8A6858146E68503E0C005C00D25F8F9
:101B1000020BE08D20B3401EE08500F029F80DD1C6
:101B20000022202100F02DF868B9206900282068E3
:101B30004068EAD0C0B225F8010BEAE70022202174
:101B400000F01FF808B1032010E020690028206889
:101B5000406802D105F8010BDBE700F07F00F9E7F0
:101B60002020B8700020387000E00220BDE8F28329
:101B70004B46A068CDF80080B0F5805F704700222A
:101B800080212046FFE72DE9F041069E04460D46E0
:101B900090461F46206800682840A8420CBF0120DC
:101BA000002040451BD116F1010FF3D026B101F002
:101BB0009DF8C01B8642EDD22068C16821F4D07127
:101BC000C1602068416949084900416104F1380059
:101BD00020214170817000210170032000E000206D
:101BE000BDE8F0812DE9F0470446642520680169CD
:101BF000E26821F44051114301611926C168484A45
:101C00001140A26811432269114362691143E269DC
:101C10001143C1604169A26921F4407111434161DE
:101C2000E3694049404AB3F5004F3AD1904218BFAA
:101C300088420ED101F05EFA074601F05BFA804659
:101C400001F058FA814601F055FA824601F052FA45
:101C50000DE001F046FA074601F043FA804601F034
:101C600040FA814601F03DFA824601F03AFA06FB5D
:101C700008F36168490000F059F8DB003233B3FB28
:101C8000F5F3B2FBF1F203F0F803B2FBF5F25B00FF
:101C900000F059F8C0003230B0FBF5F000F007005A
:101CA00038E0904218BF88420ED101F023FA07466F
:101CB00001F020FA804601F01DFA814601F01AFA7F
:101CC000824601F017FA0DE001F00BFA074601F029
:101CD00008FA804601F005FA814601F002FA8246D0
:101CE00001F0FFF906FB08F36168890000F01EF8B7
:101CF0001B013233B2FBF1F2B3FBF5F3B2FBF5F2A9
:101D000003F0F00300F01FF800013230B0FBF5F0F3
:101D100000F00F00216880188860BDE8F08700009F
:101D2000F369FFFF0014014000100140B3FBF1F321
:101D300006FB07F206FB09F7B7FBF1F7B7FBF5F770
:101D400005FB1733704703EB0212704306FB0AF3DF
:101D5000B0FBF1F0B3FBF1F3B0FBF5F005FB103095
:101D60007047000010B586B0002000902E4C2F4820
:101D700000F022F800F020F8016941F4003101611F
:101D800001A9006900F4003000900098042001903F
:101D900002200290012003900220049000F007F836
:101DA0000820019001A900F002F806B010BD07203C
:101DB0000590204601F0C8B9016841F001010160B9
:101DC000016801F001010091009900210091704724
:101DD00080B51748174901604FF4E1314160002197
:101DE0008160C160016181610C214161FFF7E8FD03
:101DF00000281CBFBDE8014000F020B801BD80B53F
:101E000000F044FF01F098FAFFF7E2FF20220021E2
:101E10000948FFF76DFB00F008FEFFF736FBFEF701
:101E200006FC002002BD00000000024030380240E5
:101E3000440C002000440040BC0C002080B5002071
:101E400001F0A2FA642000F054FFF8E738B5B14C75
:101E5000201D01F0A7FA04F10C0001F0A3FA0025FF
:101E60008C2010FB054000F11401201D01F0B0FA98
:101E70006D1C052DF4DB31BD00F108010A78042A40
:101E800001D00120704790F888008978C01E8142F7
:101E900014BF02200020704710B5A2B000200090AF
:101EA00000F09BFE9B4C10E0694604F10C0001F031
:101EB000A5FA00F08FFE0098083001F071FE00F0E6
:101EC0008CFE0099201D01F083FA04F10C0001F052
:101ED0006CFA0028E8D0207850B90EE0802201A9E1
:101EE0008D4800F0D3FDC0B210B101A801F058FE3A
:101EF00000F0C3FD0028F1D1207000F06BFE22B08D
:101F000010BD38B50020009000F06AFE824C814D73
:101F100004E0281D01F052FA00F062FE00F0ADFD71
:101F200018B3281D01F041FAD8B96946281D01F0FF
:101F300065FA009800F108018022204600F0A6FD15
:101F4000C0B200280099E4D081F888000098FFF71B
:101F500093FF00280099DCD105F10C0001F038FA5C
:101F6000DAE70120287000F03BFE31BD00F03CBDF7
:101F700030B5890583B0890D41EA8020ADF80400B1
:101F8000144601208DF800001D468DF806400322FE
:101F900001A90DF10100FFF7A5FA23460422294605
:101FA0006846FFF7E3FF37BD38B504460D4607E046
:101FB0006946284601F022FA0099204601F008FA05
:101FC000284601F0F2F90028F2D031BD2DE9F041A8
:101FD000044686B060884F4F884680052188800D72
:101FE00040EA81254D4800680A21B0FBF1F6002047
:101FF0000090ADB202A801F0D5F9E068A36861884D
:10200000C2B22088FFF7B4FFB8F1000F59D106B96A
:102010000126314604A802F0F7F805E0009902A86D
:1020200001F0D6F900F0D6FD04A802F0F5F800287A
:1020300067D107F10C0001F0B8F90028F4D100F0E5
:10204000CCFD694607F10C0001F0D8F9009800F1C9
:10205000080210780428E1D10098527800F10B01B1
:1020600090F88800C01E0E2A37D00F2A04D0102AFC
:1020700047D03E2A38D008E04A88AA4241D1626857
:102080000F2A15D0087800283BD1009902A801F04A
:102090009FF9381D01F089F90028C3D001A907F183
:1020A0000C0001F0ABF90199381D01F091F9B9E785
:1020B00062699042C8BF1046606102462069FFF71E
:1020C00011FA0099381D01F079F900F029F800F0B3
:1020D00081FD002006B0BDE8F081B1F80120AA42E0
:1020E0000FD1C91CC01EE3E70A7863689A42CCD1BD
:1020F0006269401E9042C8BF104660610246491C9A
:10210000DCE700F00DF800F065FD4FF0FF30E1E78F
:102110000000000090060020EC0B00208063000807
:1021200002A907F10C003FE7F0B589B000F024F8F0
:1021300000F032F800F035F8042000F038F8012003
:1021400000F01FF8002848BFFF2013D49DF80000BE
:1021500080B99DF801002070BDF8020028809DF82C
:1021600004003070BDF8050038800E99BDF80700F6
:102170000880002009B0F0BD04460D4616461F46F3
:102180007047ADF80E000021002005900690092050
:10219000089003A81AE70446092200216846FFF7C1
:1021A000A7B91822002103A8FFF7A2B90820ADF8AB
:1021B0000C00CDF81CD0704730B585B00400206904
:1021C000A849086000F04AFC04A902A800F0F2FA4D
:1021D00000F044FCA44D6846007A312803DB01205E
:1021E00028700320607122000621002002F020F8F0
:1021F000002843D102F07CF800283FD1287800283D
:1022000008D103AB9B1C02AA921C03A9032002F075
:102210001DFA0BE003A8801C019002A8801C00900E
:1022200003ABA2790021042002F0E0F9002825D1B7
:10223000A07900280FD02978002903D1092801DBD3
:102240000820A071A0680090A37900226846418907
:10225000808902F06EF8217B012002F014F800283A
:102260000CD100F064F89848802149020160491CB3
:1022700041600168002001F0D9F8002005B030BDB0
:102280001FB50400207802F020FA00280DD1E07C70
:102290000390A0690290207D0190102000900723F8
:1022A000E21CA178607802F023FA04B010BDF8B502
:1022B000070086480468844800688026B6027108D2
:1022C000884206D08900884203D0B04201D00C2554
:1022D0001DE07888B988BA793B78012B02D102F0E9
:1022E000AAFA02E0012302F0CAFA05000FD1012088
:1022F000E0600020607220703878207272480660BA
:10230000701C714948603146400801F08FF8280080
:10231000F2BD10B56D480468207A012800D0022073
:1023200002F0D0FB002801D10221617210BD10B56E
:1023300084B0654C0ECC0C3C684601F0B3FB68469B
:102340000EC80EC4184604B010BDF8B500216A4688
:1023500011705E490F682422010038000C30FFF72D
:1023600003FB00203421785401209E4D6C1E7D4ECD
:1023700031684204914205D03870346075602100A4
:1023800000040BE0002139703863FFF7C2FF694693
:1023900008703460756021008020800201F046F8EA
:1023A00068460078F2BD80B5132102F027FA02BD1D
:1023B000F3B581B000216846017044480468694D56
:1023C0002E688020C002864207D0C027BF02BE42CE
:1023D00003D00C206946087012E0012626706E4674
:1023E000B6882682029EA660E260E370A268117041
:1023F000A021C9022960491C6960296801F016F80A
:1024000068460078FEBDF3B581B0002168460170D2
:102410002E480468534D2F688020C002A026F60283
:10242000B74205D0874203D00C206946087015E0FA
:10243000022727706F46BF882782A360089BE3604E
:10244000099BE3706B461B896382A282A2681170AC
:102450002E60711C6960314600F0E8FF6846007824
:10246000FEBD000018000020040D0020F3B581B06F
:10247000002168460170154804683A4D2F68802095
:10248000C002A026F602B74205D0874203D00C2036
:102490006946087015E0042727706F46BF882782B9
:1024A000A360089BE360099BE3706B461B89638212
:1024B000A282A26811702E60711C6960314600F022
:1024C000B5FF68460078FEBD0C0000200800002023
:1024D000F3B581B017001E006846002101808648D0
:1024E0000468204800688021C902884209D0C021C0
:1024F000C902884205D0A021C902884201D00C251A
:102500002DE070003843694608706B460222684629
:102510000189808802F033F8050020D120002630A0
:1025200000210170052222706A4692884280417023
:1025300002A920000D300A7802704A784270E773D1
:102540002674022020730120E0628004054908609F
:10255000401C486009688020C00200F067FF280026
:10256000FEBD00000C000020F7B506001F00624809
:1025700004688C4800688021C902884209D0C021C3
:10258000C902884205D0A021C902884201D00C2589
:1025900026E068468188300001F087FF05001FD1E2
:1025A0002100263100220A70062020704E800298F9
:1025B0006060A7600898A08401AB20000D301E78F1
:1025C00006705E7846704A700120E06280047549AA
:1025D0000860401C486009688020C00200F026FFA7
:1025E0002800FEBD01000300FEB507004248046854
:1025F0006D4800688021C902884209D0C021C90203
:10260000884205D0A021C902884201D00C252DE0C6
:10261000089E320068460188380001F06AFF050014
:1026200024D10021262021540820207020002630AB
:102630004780019860600298A0600998A0846A466B
:1026400020000D301378037053784370E673200038
:10265000263041700120E062800453490860401C2C
:10266000486009688020C00200F0E0FE2800FEBD3E
:10267000FEB5060020480468152A01DB1220FEBDC5
:10268000494F38688021C902884209D0C021C90257
:10269000884205D0A021C902884201D00C2529E03A
:1026A00068460188300001F03BFF050022D1200080
:1026B0002630002101700722227046804170694651
:1026C00020000D300A7802704A784270684600791E
:1026D000207368460279029920000F30FFF734F921
:1026E0000120E06280043860401C78603968401E38
:1026F00000F09CFE2800FEBD08000020F1B52B482C
:102700000468284D2E688020C002864209D0A0208F
:10271000C002864205D0C0208002864201D00C272C
:1027200026E06846008802F0E4F9070020D1200086
:102730002C300121016000212170263421706A466D
:1027400012886280617001711948411E8022D20294
:10275000964202D12960686005E0A022D20296422A
:102760002960686001D1104600E0400800F05EFE7C
:102770003800F2BD10B50D4A12682632012393725B
:1027800000231370508001F0E3FF04000649C020CD
:10279000C0020860421C4A60014600F047FE20006B
:1027A00010BD00000C0000200C00002008000020DC
:1027B000010006003EB505000C0001A8009002AB28
:1027C0009B1C02AA01A9891C02A8401CFFF7ACFCB3
:1027D000C0B2002814D16946C988090A297069461F
:1027E000C988090221806A4692881206120F1201D6
:1027F0000A432280694689880907090F114321800D
:102800003EBD00000300002013F0030F09D0521E4C
:1028100022BF13F8010B11F801CBB0EB0C00F3D081
:102820007047121F22BF53F8040B51F804CB6045C8
:10283000F7D0121D0AD200BA9CFA8CFCB0EB0C0047
:1028400038BF6FF0000088BF01207047521E22BFC2
:1028500013F8010B11F801CBB0EB0C00F6D0521CB1
:1028600008BF10467047000008B584B000230293EB
:1028700011B90093019302E00090481E019004AB4F
:10288000694607487844183002F05AF9009911B1A6
:10289000009A00211170002858BF029805B000BDB1
:1028A0008FF0FFFF0068DFF84013884200D07047C8
:1028B00010B586B000200090DFF83043DFF8300319
:1028C000016841F001010160016801F0010100911E
:1028D000009900210091016841F002010160016846
:1028E00001F00201009100990021009100F065F8CB
:1028F00000F063F8416941F48051416101A94069E8
:1029000000F48050009000984FF4807001900120F6
:10291000029003900020049000F058F900F03AF87B
:102920000820019001A90220029003900320049046
:1029300005200590AF4800F007FC402000F030F87B
:10294000802000F02DF802200190012002900390D9
:10295000032004900020059001A900F038F901221D
:102960000221204600F0C2FC0120019001A9A248EA
:1029700002900020039003200490002000F026F92C
:1029800000220321062002F0D7FC062002F0F1FC11
:1029900006B010BD00224FF48071204600F0A6BCA6
:1029A000019001A9022002900020039003200490CE
:1029B00005200590204600F0C7BB016841F00101E9
:1029C0000160016801F0010100910099002100916E
:1029D000016841F001010160016801F0010100910D
:1029E00000990021009170472DE9F0410446834889
:1029F000DFF80C8284B00D4600680A21B0FBF1F1CB
:102A000016461F4601A801F0FFFBF8B20090F3B292
:102A10002A462146404600F086F820B101A801F080
:102A2000FBFB0028F1D0BDE8FF8175486E490160CD
:102A30004FF48271416000218160C1600161416198
:102A40004FF4007181610021016241620721C1627E
:102A50000821C1610021816202F0CCBC10B5634C39
:102A6000FFF798FF052000F044F90122FFF793FFDC
:102A7000BDE81040052000F03CB980B501215B485D
:102A800000F02EFC012818BF002002BD2DE9F04304
:102A900087B005460E46FF2017468DF8050004A8AE
:102AA0000FF26411DFF844810CC90CC0002202212E
:102AB000404600F01BFC0F200090052302AA04A949
:102AC00000F081F89DF808000024022819D19DF833
:102AD0000C009DF80B1051EA002912D04F450DDA79
:102AE000B9460BE00F200090012301AA0DF105016A
:102AF00000F069F89DF80400A055641CE4B24C4550
:102B0000F0DB01220221404600F0F0FB002002E051
:102B100000BF0098401C009000980228F8DB204677
:102B200007B0BDE8F0832DE9F047884691461E4680
:102B30000FF2DC01C6B005460CC903A80FF2D8019C
:102B4000DFF8A8A00CC00CC901A800270CC0062003
:102B500002F015FC00220221504600F0C7FB0F20B6
:102B60000090052301AA03A900F02DF89DF80400A8
:102B700002281AD14E9C9DF8050054FA86F188422D
:102B800010DB36B10F200090334605AA414600F015
:102B90001AF864B10F200090234605AA494600F0B8
:102BA00012F804E06FF0010701E04FF0FF37012257
:102BB0000221504600F09AFB062002F0DAFB38466C
:102BC00046B0BDE8F087284602F057BC0590204685
:102BD00000F0BABA062002F0CCBB062002F0CFBB50
:102BE00008490120086070470030014000000240A1
:102BF00030380240000402400000111080630008D9
:102C0000EC0B0020143C01400B0000000000000011
:102C10000A00000000000000AA0000000000000000
:102C20000020704762F30F2262F31F42401810F039
:102C3000030308D0C91A1FD3DB0748BF00F8012DD2
:102C400028BF20F8022D130030B414461546103961
:102C500028BF20E93C00FAD8490728BF20E90C002A
:102C600048BF40F8042D890028BF20F8022D48BF36
:102C700000F8012D30BC7047C91818BF00F8012DAD
:102C8000CB0728BF00F8012D7047000080B51F4812
:102C9000016841F400710160016841F480610160E4
:102CA000016841F480710160032002F038FB0F20BD
:102CB00000F005F800F002F8002002BD704710B5E2
:102CC0000446134800684FF47A71B0FBF1F002F04B
:102CD0005FFB002221464FF0FF3002F02DFB002069
:102CE00010BD0C480168491C016070470948006824
:102CF000704711B581B0FFF7F9FF0446FFF7F6FF03
:102D00000199001B8842F9D313BD0000003C02402A
:102D100004000020F40C00202DE9F8430446DFF8FD
:102D2000EC532078C0072FD5A86800F00C000428C9
:102D300007D0A86800F00C00082809D16868400294
:102D400006D5286880031FD56068E8B9012002E134
:102D50006068A870606858B1FFF7C8FF0746286828
:102D6000800311D4FFF7C2FFC01B6528F7D3EFE043
:102D7000FFF7BCFF07462868800305D5FFF7B6FFBD
:102D8000C01B6528F7D3E3E02078DFF88463800771
:102D900018D5A86810F00C0F07D0A86800F00C0038
:102DA000082827D16868400224D42868800702D503
:102DB000E0680128CAD12868216920F0F80040EABB
:102DC000C10028602078DFF84C8300073DD5616999
:102DD000DFF8440359B301210160FFF787FF07467D
:102DE000D8F80400800730D4FFF780FFC01B032809
:102DF000F6D3ADE0E06868B101203060FFF776FF00
:102E0000074628688007D6D4FFF770FFC01B032849
:102E1000F7D39DE03060FFF769FF07462868800719
:102E2000D0D5FFF763FFC01B0328F7D390E0016004
:102E3000FFF75CFF0746D8F80400800705D5FFF7C9
:102E400055FFC01B0328F6D382E02078400740D509
:102E500000200090DFF8C492286C40F08050286475
:102E6000286C00F0805000900098D9F8000040F4E1
:102E70008070C9F80000FFF739FF0746D9F8000055
:102E8000C00505D4FFF732FFC01B0328F6D35FE06F
:102E9000A06888F8000041F28939A06860B1FFF7A6
:102EA00025FF0746D8F80000800712D4FFF71EFF61
:102EB000C01B4845F6D34BE0FFF718FF0746D8F88C
:102EC0000000800705D5FFF711FFC01B4845F6D36A
:102ED0003EE0A06900283DD0A96801F00C01082956
:102EE0003FF434AF022828D100F037F807462868AD
:102EF000800105D5FFF7FAFEC01B0328F7D327E0B2
:102F0000E069216A0843616A40EA8110A16A891E6A
:102F1000C903090C40EA0140E16A40EA01606860C7
:102F2000012000F01BF807462868800112D4FFF743
:102F3000DDFEC01B0328F7D30AE000F00EF80746B9
:102F40002868800106D5FFF7D1FEC01B0328F7D300
:102F5000032000E00020BDE8F28300203066FFF788
:102F6000C5BE2DE9F8436E4E04463068884600F031
:102F70000F00404502D200F08AF862D12078634FFA
:102F8000800705D5B868A16820F0F0000843B86054
:102F90002078C0074DD56068012802D139688903BF
:102FA00005E0022818BF032803D13968890103D43A
:102FB00047E03968890744D5B968890840EA810043
:102FC000B86041F28939FFF791FE05466068012833
:102FD0000AD1B86800F00C0004282AD0FFF786FE5A
:102FE000401B4845F5D322E002280AD1B86800F01A
:102FF0000C0008281DD0FFF779FE401B4845F5D38B
:1030000015E003280AD1B86800F00C000C2810D095
:10301000FFF76CFE401B4845F5D308E0B86810F098
:103020000C0F06D0FFF762FE401B4845F6D3032085
:103030002BE0306800F00F00804504D200F027F844
:1030400001D0012021E02078400705D5B868E1686B
:1030500020F4E0500843B8602078000706D5B8682F
:10306000216920F4604040EAC100B86000F016F821
:10307000BA680FF2C401C2F30312515CC840294977
:1030800008600F20FFF71BFE0020BDE8F28386F8E2
:103090000080306800F00F004045704723484168C9
:1030A00001F00C01042902D0082902D017E02048C1
:1030B000704701680268520201F03F014CBF1C4A90
:1030C0001C4AB2FBF1F102680068C0F30140C2F390
:1030D0008812401C51434000B1FBF0F07047154886
:1030E00070471048104A006812680FF24C01C2F392
:1030F000822207E00B480C4A006812680FF2380180
:10310000C2F34232515CC8407047000000380240B0
:103110000000474270380240800E47420070004075
:10312000003C0240040000200838024004380240FD
:1031300040787D010024F400000000000102030437
:1031400001020304060708092DE9F8470022714B24
:10315000DFF8C481DFF8C4914FF00F0A012707FAA6
:1031600002FC0F680CEA0707674540F0B3804C6823
:10317000022C18BF122C10D1D40800EB840E02F0E0
:103180000704DEF82050A4000AFA04F6B5430E69DD
:1031900006FA04F42C43CEF820404FEA420E0324F2
:1031A00005680E7904FA0EF4E44306F003062540A0
:1031B00006FA0EF6354305604D68012D18BF022D45
:1031C00003D0112D18BF122D0FD18568CE68254070
:1031D00006FA0EF635438560456825EA0C064D680B
:1031E000C5F30015954035434560D0F80CC004EA9E
:1031F0000C0C8C6804FA0EFE4EEA0C0CC0F80CC0E5
:10320000D1F804C05FEACC0C64D5002400944FEAE6
:10321000920CD9F8004044F48044C9F8004002F010
:103220000305D9F8004004F4804400944FEA850E69
:10323000009C58F82C400AFA0EF5AC43384DA842D1
:1032400008BF002513D0374DA84208BF01250ED076
:10325000354DA84208BF022509D0344DA84208BF09
:10326000032504D0324DA8420CBF0425052505FADC
:103270000EFE4EEA040448F82C406FEA070C1C6866
:103280000CEA040E4C68E40348BF47EA0E0EC3F88C
:1032900000E05C680CEA040E4C68A40348BF47EAEF
:1032A0000E0EC3F804E09C680CEA040E4C68E402BD
:1032B00048BF47EA0E0EC3F808E0D3F80CE00CEA6A
:1032C0000E0CD1F804E05FEA8E2E48BF47EA0C0CE2
:1032D000C3F80CC0521C102AFFF440AFBDE8F187C0
:1032E0000069084018BF0120C0B2704702B9090444
:1032F0008161704742695140416170470D4A1368CE
:10330000034200D1704780B5106002F067FA01BD3A
:1033100000000000003C01400838014044380240F1
:10332000000002400004024000080240000C02407D
:1033300000100240143C014000B593B00020009002
:103340001048016841F080510160006800F0805031
:10335000009000980220069010200A900120099009
:103360000C9006A8FFF7D8FC0F2001900021002048
:10337000029003900490059001A8FFF7F2FD13B0AE
:1033800000BD00BF403802400FF21401DFF80C20EE
:1033900031F8101052F82000FFF7ACBF00000020F9
:1033A00020000000006040607047EFF3108172B6AB
:1033B000026882420CBF012000201CE0EFF3108263
:1033C00072B603680B60486001600868416029E0DC
:1033D000EFF3108272B6086043684B604160486842
:1033E00001601FE0EFF3108172B6436802681A6053
:1033F00042680068426081F31088704738B50C4617
:10340000EFF3108572B6016821600068FFE7FFF7EF
:10341000E9FF2168002008602168486085F3108872
:1034200031BD086082F31088704700007047F0B526
:103430008DB006001500002409A804700029684614
:1034400003D03189C184778902E0B189C184F789C9
:10345000327C3078032815D1708C0690308C059022
:10346000F08B0490B08B0390708B0290308B0190A6
:10347000F07D00901136330039006846C08C01F0B1
:10348000D0FA3EE00AA80270062231001131401C39
:10349000FEF75AFAA6480078002818D10AA8089022
:1034A0000120079009A806900594708C0490308C38
:1034B0000390F08B0290B08B0190708B0090338B57
:1034C000F27D39006846C08C01F039FA19E009A88C
:1034D0000078401C09A908700AA8069001200590F0
:1034E000708C0490308C0390F08B0290B08B019024
:1034F000708B0090338BF27D39006846C08C01F0F0
:10350000CEF9060003D16C7002F06AF9A8603000B1
:103510000DB0F0BDF4B582B005000F008548046819
:10352000681E02F061F9C0B20090E0782179491973
:10353000009A8918491E884201DA6420FEBDA068FD
:103540000178891801700026002512E0022101701F
:103550002079401C20713A0002994919E368C0B2F1
:103560001818FEF7F1F92079C0192071ED19EDB2A4
:10357000761CF6B20098864206DAE0682179401897
:10358000062FE3D10121E2E70020FEBDF4B582B0B1
:1035900005000F0067480468681E02F025F9C0B2F4
:1035A0000090E07821794919009A8918491E8842CB
:1035B00001DA6420FEBDA068017889180170002638
:1035C000002512E0022101702079401C20713A0090
:1035D00002994919E368C0B21818FEF7B5F92079C5
:1035E000C0192071ED19EDB2761CF6B20098864232
:1035F00006DAE06821794018072FE3D10121E2E7DC
:103600000020FEBDF4B582B005000F0049480468F3
:10361000681E02F0E9F8C0B20090E07821794919FB
:10362000009A8918491E884201DA6420FEBDA0680C
:103630000178891801700026002513E0E0682179DF
:1036400047542079401C20713A0002994919E368D7
:10365000C0B21818FEF778F92079C0192071ED1959
:10366000EDB2761CF6B200988642E7DB0020FEBD84
:10367000F7B505002F4804680427022900D1122756
:10368000681E390002F0B0F8C0B20090E0782179ED
:103690004919009A8918491E884201DA6420FEBD42
:1036A000A0680178891801700026002515E0684699
:1036B0000079E168227988542079401C20713A0011
:1036C00002994919E368C0B21818FEF73DF920794C
:1036D000C0192071ED19EDB2761CF6B20098864241
:1036E000E5DB0020FEBD10B584B00B236C46637093
:1036F000002323706B46588001AB188099700292AA
:1037000000AA921C694600A8401C02F07FF91FBD68
:103710008F4A531EC11A08D0491E07D18D48006830
:103720000078002801D0501C70471000704700003E
:10373000040D002008000020F0B585B0854A14680B
:10374000854A012700260225531EC11A08D0491EAA
:1037500008D0491E22D0491E4CD0491E69D071E0C4
:10376000A67002E02078002801D110006AE00A204B
:1037700002F038F82200012120000C30FFF757FE3C
:10378000694648706846407800284AD1342026545B
:103790002069800003210143216329E002F020F821
:1037A0002169A268801A814203D33420205C00285A
:1037B0001BD0207B032801D1402000E0082069466F
:1037C00008706846007801F07DF9694648706846DF
:1037D0004078002802D12763AD4833E00420087008
:1037E00001AB221D491C684620E0A078002826D1A4
:1037F000A84827E06078002801D1901C22E00F2023
:1038000001F0F0FF2200002120000C30FFF70FFE36
:103810006946487068464078002802D127639E4870
:1038200010E06846057001AB221D491C02F05BF8F0
:1038300005E0A078002802D16078002801D09748E0
:1038400000E0D01C05B0F0BD70B584B0414A1468EA
:1038500026002636924A951C531EC11A12D0491EC4
:1038600002D0491E10D070E0307800280AD0210024
:1038700027312000283002F025F92078002863D075
:10388000681E62E0100060E000206946087220783F
:10389000052806D04DD3072825D012D3082833D0C9
:1038A00047E020000D3002A9891C02780A70427896
:1038B0004A70237CE27B684641897088FEF708FEE7
:1038C00035E020000D3002A9891C02780A70427888
:1038D0004A70A08C0090A36862686846418970882D
:1038E000FEF742FE23E020000D3002A9891C027879
:1038F0000A7042784A7023000F33227B6846418960
:103900007088FEF7B5FE12E020000D3002A9891C78
:1039100002780A7042784A70A08C0190E07B009097
:10392000A3686268684641897088FEF75DFE694653
:1039300008726846007A002806D000232200283248
:1039400002A9200002F062F8280004B070BD000057
:10395000020002000800002002000300F8B5874AB8
:103960001468874F874E0125BA1E811A10D0491E50
:1039700021D0491E2AD0891E2DD0491E38D0491E7B
:103980003BD0491E46D0491E49D0491E5AD0F2BDEF
:10399000617021712178012901D1501CF2BD0229E9
:1039A00001D17948F2BD032901D1B81CF2BD042927
:1039B00054D1B01EF2BD208A00F0F9FC69460870AF
:1039C00068460078002835D1A56102E060780028BB
:1039D0003BD13800F2BDA28A618A208A00F013FD33
:1039E0006946087068460078002823D1A56102E086
:1039F0006078002829D1F81CF2BDA28A618A208A49
:103A000000F012FD6946087068460078002811D160
:103A1000A56102E06078002817D1F01EF2BDA28AED
:103A2000618A208A00F022FD6946087068460078A5
:103A3000002805D022001032200001F084FF0AE0A7
:103A4000A5610AE06078002807D022001032A11C8E
:103A5000200001F078FF3000F2BD701EF2BD30B5DD
:103A6000464A1468494A531E951E411B02D0491EFE
:103A700005D030BD2078401F032804D805E0263447
:103A80002078002801D0100030BD180030BD0000A3
:103A90000400030003000300050003000600030008
:103AA00002000600FEB584B00400684604A92CC9D3
:103AB0002CC0324F3868364D6E1E0499002911D043
:103AC0006A08914210D0C022920291421AD0B142AB
:103AD00035D0A022D202914225D0C022D2029142FA
:103AE0003AD045E0002042E005000598FFF710FEBF
:103AF00001902849884203D1B0080090401C0190F1
:103B0000E86834E003900598FFF716FE01900399EA
:103B1000091D214A904204D108883A681085009610
:103B20000195C86A23E007000598FFF717FF019089
:103B30001449884201D100960195B86917E0050043
:103B40000598FFF78CFF0190F11C884202D10120FB
:103B5000E8620096E86A0AE007000598FFF774FE3D
:103B600001900E49884201D100960195F86A0290B1
:103B700068460EC80EC40C3807B0F0BD080000201F
:103B8000030005000B00050007000500030004000A
:103B90000100040003000200060003000400060008
:103BA000F1B58AB0411C0078042800D028E377489A
:103BB00006680322002501240878052824D0082857
:103BC00004D03E2830D0FF2863D013E38C1C20782B
:103BD0001A28FAD135786078A1780906090C0843CB
:103BE0000121FEF78BFD6946087035706846007844
:103BF0000028EAD0207808706078A1780906090CBE
:103C00000843694648807AE2891C68460270487811
:103C10008A781206120C10436A46508103AB02AA3E
:103C2000921CC91C6846C7E2891C0878012802D08A
:103C300002286DD0DEE2491C0191370002A8002164
:103C4000002206C0B61C01980078002809D101990D
:103C500048788A781206120C1043708069460C70FE
:103C600002E002206946087001980078022807D116
:103C7000062202A90198401DFEF7C4FD002807D0C6
:103C800004AB3A1D0199684601F02DFE3D63347086
:103C9000B0E2891C0B7848780006000C03436846A4
:103CA00003803B4800786B461B883A4FDB1B00D1F2
:103CB000E2E15B1E00D13CE21B1F29D05B1E39D024
:103CC000BF1FDB1B00D143E23F1DDB1B00D133E1F3
:103CD000DB1E00D197E09B1E00D1C1E05B1E00D12E
:103CE00084E15B1E00D19FE19B1E00D19FE01B1F62
:103CF00000D101E15B1E00D1E2E05B1E00D130E1AA
:103D00005B1E00D1CDE19B1E60D05B1E47D071E2EF
:103D1000891C68460472087A081809300190080066
:103D2000093000900B0008338A1C491C02A801F0DE
:103D3000B7FD5FE28878401E012804D9C01F2BD050
:103D4000383829D056E2114840686104884211D1C0
:103D50003470F560707A022800D072720A2001F087
:103D600041FD019500950023002200210936300015
:103D700001F096FD05484068C0218902884203D1C0
:103D8000024800680470056334E200BF08000020A8
:103D9000040D002001040000747035632AE2891CC0
:103DA0000D206A46107008784A781206120C1043EB
:103DB0006A4610818878CA781206120C104303AA4A
:103DC000108094704879107202A918E0891C0C20A8
:103DD0006A46107008784A781206120C10436A4638
:103DE000D0808878CA781206120C104302AA10807C
:103DF000087990701572491D039101A9891C6846C4
:103E000001F072FEF6E1891C370008784A78120644
:103E1000120C10433A8A8242F4D138780428F1D146
:103E20008D1C0A1D69782878FFF722FC12E0891C96
:103E3000370008784A781206120C10433A8A8242F8
:103E40000DD1387801280AD18D1C0A1D697828788F
:103E5000FFF760FBB61C3070002800D07C70C9E111
:103E60008F1C0096387879780906090C0843BD1C28
:103E7000B61C0099098A814209D10098007802286D
:103E800005D13A1D69782878FFF780FB30703878C3
:103E900079780906090C08430099098A814209D1F9
:103EA00000980078032805D13A1D69782878FFF733
:103EB000A9FB30703078002801D00098447099E157
:103EC000891C09206A4650706846057008784A784F
:103ED0001206120C10436A469080C8780A791206BE
:103EE000120C104302AA10808878801E9070491D21
:103EF000039102AB01AA1BE0891C0A206A4650709C
:103F00006846057008784A781206120C10436A4613
:103F10005080C8780A791206120C104301AA10804A
:103F20008878801E9070491D029101AB00AA921CF6
:103F3000694600A8401CF9E0012807D1891C88784F
:103F4000CA781206120C1043CA1D06E0891C887834
:103F5000CA781206120C10434A1D0979FFF7C3FBF9
:103F600048E1891CA7484068A022D202904214D19F
:103F700008784A781206120C1043328A8242EFD136
:103F80003078012805D0022803D0032801D0042866
:103F9000E6D17470C878B070B5619A484068A204E0
:103FA0009042DDD1974800680B784A781206120CCF
:103FB00013430200263256889E4216D10378052B01
:103FC00005D0062B03D0082B01D0072B0DD1C562DD
:103FD00014705378002B01D1C9785170002302006E
:103FE00028320100273101F011FD03E1891C8548C9
:103FF0004068A2049042F8D108784A781206120C60
:104000001043328D8242F0D1307806280BD18D1CBE
:104010002A7870680280B08C2B7898421DD3C91C16
:10402000B068FDF791FCE5E0891C76484068A20481
:104030009042F8D108784A781206120C1043328D5B
:104040008242F0D1307808280AD18D1C2A78706815
:104050000088B38C8418A34203DA642027363070BA
:10406000C8E0C91CB3681818FDF76EFC70680188B9
:104070002A7889180180BDE0891C62484068520492
:104080009042F8D108784A781206120C1043320098
:1040900026325388834203D1147088785070F562B9
:1040A000A8E08D1CA979080032002632052903D02A
:1040B000082901D00F2925D152494968A304994202
:1040C00013D1307869460870287869780906090C98
:1040D00008435080287869780906090C08430021B4
:1040E000FEF70CFB694609783170002820D028784B
:1040F00069780906090C084369464880A91D00A88B
:10410000801C22E03F484068A104884272D1307888
:1041100069460870287869780906090C08436946D9
:104120004880147000AA921CA91D684601F06EFC1C
:1041300060E0300010226B461A708A78CB781B063C
:104140001B0C1A4302856946283001F0BBFC51E084
:10415000891C05226B46DA756A46957506ACCA78E5
:1041600022708A79CB791B061B0C1A4362800A7A6B
:104170004B7A1B061B0C1A43A2808B7ACD7A2D0634
:104180002D0C2B43E3800D7B4F7B3F063F0C3D43C3
:1041900025811C4949688027FF02B9420FD0C027FA
:1041A000BF02B9420DD1B0886946888206AB05AA24
:1041B00005A9891C05A8C01C01F095FB1AE0308DEB
:1041C000F2E7002809D102902078019000956188DB
:1041D0006846808A01F0C5FC0CE00020049020783D
:1041E0000390002002900190009561886846808AC3
:1041F00001F07CFC03480169080001D00A98884757
:104200000BB0F0BD0800002010B504466160FFE768
:1042100001F0E6FA206010BD10B5044601F0E0FAA6
:1042200022686168801A401C81428041C00F10BD25
:1042300010B50C461146A21CA8B0812AA8BF422086
:104240001FDA8DF81C008DF81D4022460DF11E006E
:10425000FDF748F900F03BF800F033F80C20ADF81A
:104260000600002107A80390A01CC0B20490012002
:10427000069001A8FDF7AAFE00284CBFFF209DF87C
:10428000000028B010BD00B589B08DF804008DF88D
:1042900005101822002102A8FDF72AF900F022F8E3
:1042A0000F2000F019F8022005900120079002A8C5
:1042B000FDF78CFE00284CBFFF209DF8000009B0E0
:1042C00000BD3F20ADF80400CDF814D0704718228F
:1042D000002101A8FDF70CB9ADF80A00002101A8E2
:1042E000049070473F20ADF80800CDF818D0704713
:1042F00000B587B000F0F8F800F0B2F840F2011015
:10430000ADF80600002100F009F800284CBFFF209E
:104310009DF8000007B000BDC0B2049001200690D7
:1043200001A8FDF753BEADF80600002107A80390D1
:10433000704733B51C46A01DA7B081281546A8BFFD
:1043400042201FDA022227A900F016F9022228A92A
:1043500000F039F92C998DF820508DF82140224633
:1043600000F01BF800F0C0F800F07AF84FF483700A
:10437000FFF7D9FFA01DFFF7CFFF00284CBFFF209C
:104380009DF8000029B030BDADF80000ADF8021076
:104390001822002102A8FDF7ABB80DF12200FDF7AD
:1043A000A1B83F20ADF80800CDF810D0704700B597
:1043B00089B000F021F800F00BF84FF4897000F09C
:1043C0000DF800284CBFFF209DF8000009B000BD8B
:1043D0003F20ADF80800CDF818D07047ADF80A00BE
:1043E000002101A80490022005900F2003900120D5
:1043F000079002A8FDF7EABD1822ADF804000021DD
:1044000002A8FDF775B800B589B000F01EF800F0FD
:1044100081F84FF48A7000F03AF800284CBFFF2072
:104420009DF8000009B000BD00B589B000F00DF89E
:1044300000F070F840F2151000F029F800284CBF89
:10444000FF209DF8000009B000BDADF80400ADF8F4
:104450000610ADF808200021182203A8FDF748B87F
:104460003F20ADF80400CDF814D0704700B589B0F6
:10447000FFF7EBFF00F04EF840F2171000F007F8DE
:1044800000284CBFFF209DF8000009B000BDADF82A
:104490000E00002101A80590062006900F20049030
:1044A0000120089003A8FDF791BD00B589B0FFF782
:1044B0006BFFFFF776FF4FF48C70ADF80A00002118
:1044C000042005900F20039000F007F800284CBF4F
:1044D000FF209DF8040009B000BD01A8069001204E
:1044E000079002A8FDF772BD1822002101A8FCF771
:1044F000FFBF00B589B0FFF7A8FF00F00BF84FF43D
:104500008D70FFF7C4FF00284CBFFF209DF800000E
:1045100009B000BD3F20ADF80C00CDF81CD07047AD
:1045200033B51446601DA7B081281D46A8BF4220A0
:1045300016DA022227A900F01FF8022228A900F0AB
:1045400042F800F00FF8FFF7CFFFFFF789FF4FF4B5
:104550008E7000F03CF800284CBFFF209DF8000052
:1045600029B030BD8DF82040224629460DF12100AA
:10457000FCF7B8BF022228A907A8FCF7B3BF33B5E0
:104580001446601DA7B081281D46A8BF422016DA38
:10459000022227A9FFF7F0FF022228A900F013F852
:1045A000FFF7E0FFFFF7A0FFFFF75AFF40F22110EF
:1045B00000F00DF800284CBFFF209DF8000029B046
:1045C00030BD022229A90DF11E00FCF78BBFADF80A
:1045D0000600002107A80390601DC0B204900F20C0
:1045E00002900120069001A8FDF7F0BC10B58AB03A
:1045F0008DF800008DF801108DF802201C4607226E
:1046000000F015F900F05CF800F005FA8A20ADF82A
:104610000E0000210320069001A80790072000F05B
:1046200043F8002848BFFF200ED49DF8040058B975
:10463000BDF8050020800C99BDF8070008800D9991
:10464000BDF80900088000200AB010BD70B58AB01E
:104650000C468DF8080015461E46072200F0B4F8F7
:1046600000F02EF800F0F7F88A20ADF80E000021D7
:1046700002A8059001200690072000F015F80028F8
:1046800048BFFF200CD49DF8000048B9BDF80100D8
:104690002080BDF803002880BDF805003080002090
:1046A0000AB070BD06900120089003A8FDF78EBCEB
:1046B000ADF80400ADF806108DF808208DF809302B
:1046C0001822002103A8FCF713BF00B589B01822F7
:1046D0008DF8040000F068F800F070F8852000F014
:1046E0004DF800284CBFFF209DF8000009B000BD28
:1046F00030B58FB08DF81C008DF81D1014461D4686
:104700001022214600F017F9129814998DF82F0005
:104710008DF82E50182213988DF830000DF13100CD
:104720000160002115988DF8350001A8FCF7E0FE26
:1047300000F05EF8862000F03BF81A20049000F0AC
:10474000FAF900284CBFFF209DF800000FB030BDE3
:1047500000B589B01822ADF804000DF10600016023
:10476000FFF7AFFF00F077F8882000F07AF8002814
:104770004CBFFF209DF8000009B000BDADF80A0055
:10478000002101A8049001200590079002A8FDF7E0
:104790001DBC3F20ADF80800CDF810D07047ADF833
:1047A00000008DF802101822002102A8FCF7A0BE1C
:1047B000ADF80600002107A8039070473F20ADF830
:1047C0000800CDF818D0704700216846FCF790BE6D
:1047D00000B587B000F02AF800F00AF8922000F047
:1047E0001DF800284CBFFF209DF8000007B000BD59
:1047F0003F20ADF80400CDF814D0704700B589B063
:10480000FFF7CDFFFFF7C5FF932000F082F90028E6
:104810004CBFFF209DF8040009B000BDADF80600B4
:1048200000210120069001A8FDF7D0BB182200212D
:1048300001A8FCF75DBE00B589B0FFF739FF00F0B5
:104840000AF8962000F00DF800284CBFFF209DF8D4
:10485000000009B000BD3F20ADF80C00CDF81CD021
:104860007047ADF80E00002101A8059006200690C3
:104870000F2004900120089003A8FDF7A7BB00B506
:1048800089B0FFF715FFFFF7E6FF9720FFF7E9FF75
:1048900000284CBFFF209DF8000009B000BD7BB58B
:1048A000A7B01546339C00F09EF8A8BF422040DA1E
:1048B000022227A907A8FCF715FE022228A900F06A
:1048C0003AF88DF82050022229A90DF12100FCF7B9
:1048D00009FE02222EA900F08CF802222FA90DF168
:1048E0002500FCF7FFFD022230A90DF12700FCF79F
:1048F000F9FD022231A90DF12900FCF7F3FD022296
:1049000032A90DF12B00FCF7EDFD34998DF82D4007
:1049100032460DF12E00FCF7E5FDFFF787FF00F0B2
:104920006CF8123000F003F900284CBFFF209DF80E
:1049300000002AB070BD0DF11E00FCF7D3BDFBB521
:10494000A8B01546379C00F04EF8A8BF422048DAC0
:10495000022228A907A8FCF7C5FD022229A9FFF712
:10496000EAFF07AF02223D712AA90DF12100FCF7F1
:10497000B9FD022230A900F03CF8022231A90DF164
:104980002500FCF7AFFD022232A90DF12700FCF74C
:10499000A9FD022233A90DF12900FCF7A3FD022293
:1049A00034A90DF12B00FCF79DFD359836998DF853
:1049B0002D0006220DF12E00FCF794FD38993C766F
:1049C00032460DF13500FCF78DFDFFF72FFF00F0AB
:1049D00014F8193000F0ABF800284CBFFF209DF808
:1049E00000002BB0F0BDC4EBC40606F1190081280D
:1049F00070470DF12300FCF775BD3F20ADF80400B2
:104A0000CDF814D09920ADF80600002107A8039036
:104A1000C4EBC40070473F20ADF80C00CDF814D0B3
:104A2000704700B58DB000F016F800F026F8BDF81C
:104A30004000ADF81200BDF8440000F027F800F087
:104A400016F89C2000F030F800284CBFFF209DF89D
:104A500000000DB000BDADF80400ADF806108DF8F3
:104A60000820194606220DF10900FCF73BBD3F2046
:104A7000ADF81C00CDF82CD070470E988DF80F00C3
:104A800018220F98ADF8100000217047ADF81400FF
:104A90001298ADF816001398ADF818001498ADF8F8
:104AA0001A0007A8FCF724BDADF81E00002101A8DC
:104AB000099018200A900F20089001200C9007A858
:104AC000FDF784BA01B588B0FFF7B0FEFFF790FE9E
:104AD0009D20ADF80600002108A803900120049055
:104AE00000F02AF800284CBFFF209DF8000009B014
:104AF00000BD00B589B0FFF752FEFFF74AFE9F20C8
:104B000000F007F800284CBFFF209DF8040009B012
:104B100000BDADF80A000021032005900F2003908E
:104B200001A806900120079002A8FDF74FBAC0B275
:104B300004900F2002900120069001A8FDF746BACC
:104B40002DE9F04F80460FF2A47095B015461E4631
:104B5000D0E90023CDE9132303AF00200391B8610E
:104B60000DF1340900E065190020ADF8020013AB27
:104B70004FF0FF3229460DF1020001F026F80446FD
:104B8000012C04DA2878441EA441E443E40FBDF864
:104B9000020025280CBFA4F1010BA346BBF1010FB5
:104BA0000EDBAA461AF8011B0398C04700280390A1
:104BB00000F0DA80B869401CBBF1010BB861F1D19B
:104BC000BDF80200252804D10020F8603861786122
:104BD00005E00028C7D1B86906E340F0010015F8E8
:104BE000011F2029F9D023290DD02B2904D02D29EC
:104BF00006D030290AD00CE040F0020080B2EEE787
:104C000040F00400FAE740F00800F7E740F0100039
:104C1000F4E72A290ED13168316051F8042B316054
:104C2000002A3A6204D5514240F00400396280B251
:104C30006D1C13E0002139620BE0396A6FF000430C
:104C4000994205D001EB810302EB4301303939620F
:104C50006D1C2A78A2F130010A29EED329782E2979
:104C600003D04FF0FF31F9611FE015F8011F2A2929
:104C700007D1316831606D1C51F8042B3160FA6145
:104C800013E00021F9610BE0F9696FF000439942EC
:104C900005D001EB810302EB43013039F9616D1C52
:104CA0002A78A2F130010A29EED3B8840FF24460C9
:104CB000297800F09BFF08B115F8010B8DF8320040
:104CC0009DF83200682804BF2878682803D1622044
:104CD0008DF832006D1C0DA8B86015F8014B252C1D
:104CE00013D0582C4BD0632C00F0A380642C18BF39
:104CF000692C7CD06F2C42D0702C36D0732C0AD00B
:104D0000752C18BF782C3AD0B6E00120F860252029
:104D10008DF83400BAE09DF832006C2830683060BD
:104D200018D050F8044B30607C60D7F81CA0BAF162
:104D3000000F04D5204600F065FF824607E052468A
:104D40000021204600F07AFF08B1A0EB040AC7F862
:104D500010A09BE050F8042B306002A9404600F000
:104D60002DF9002840F192803CE23068306050F824
:104D7000041B306002910DA87860782155E09DF801
:104D800032006C280DD0712818BF6A2809D130680C
:104D9000C01D20F007023260D2E900010832326003
:104DA00004E03168316051F8040B316002909DF8E5
:104DB0003200682802D102A8008803E0622802D1EC
:104DC00002A80078029097F82400000728D50298DE
:104DD00030B344F02000782822D1F868302100F860
:104DE0000910401C411CF96000F8094018E09DF8CA
:104DF0003200314600F0BCF80028029002D5F86875
:104E00002D2109E0B88C810702D5F8682B2103E039
:104E1000C00705D5F868202100F80910401CF8608B
:104E20000DA8F96808187860214602A800F0DFF99B
:104E30002CE09DF832006C2809D00120F860306821
:104E4000306050F8041B30608DF834101EE030687C
:104E5000306001AA50F8041B3060ADF80410002047
:104E6000ADF8060002A94FF0FF30F861404600F0AF
:104E7000A5F800280AD577E70120F86025208DF8ED
:104E800034001CB10220F86089F80140386AF968E2
:104E9000401A7969401A3969441A97F82400400782
:104EA00011D42020012C8DF800000CDBA246012338
:104EB0006A4602A9404600F001FA00287FF454AF88
:104EC000BAF1010AF3D1D7F80CB0BBF1000F0DF124
:104ED000340A0DD01AF8011B0398C047002803902C
:104EE0003FF442AFB869401CBBF1010BB861F1D18E
:104EF000D7F814A03020BAF1010F8DF800000BDBB9
:104F000001236A4602A9404600F0D8F900287FF440
:104F10002BAFBAF1010AF3D1D7F810B0D7F804A03B
:104F2000BBF1000F0DD01AF8011B0398C0470028F1
:104F300003903FF419AFB869401CBBF1010BB86195
:104F4000F1D197F8240040077FF50EAE2020012C08
:104F50008DF80000FFF608AE01236A4602A940461C
:104F600000F0ACF900287FF4FFAE641EF4D1FBE53D
:104F7000622815D068280CD06C2818BF742816D069
:104F80007A2814D10A680A6052F8040B0A600021DA
:104F900070470A680A6052F8040B0A6000B20BE01E
:104FA0000A680A6052F8040B0A6040B204E00A681A
:104FB0000A6052F8040B0A60C11770472DE9F44FDC
:104FC0000D4694B02F6A002F804648BF6FF000470F
:104FD00000F060FE696A401801900FF22030D0E9BD
:104FE0000023CDE9022395F82800400702D4019858
:104FF000412805D240200DF110090190002606E05D
:1050000000F04EFE5FEA0009F8D1EBE03F1B012FF4
:10501000C0F294801498018802AA0DF1010000F0FA
:1050200097FE0028044600F19C801498008810B96F
:10503000641E00F19680A742C0F280802869019921
:105040002218914268D26E624042A969401A696989
:10505000461A95F82800400710D42020012E8DF81C
:1050600000000BDBB24601236A462946404600F0A9
:1050700025F9002875D1BAF1010AF4D1D5F810B09C
:10508000BBF1000FCA460CD01AF8011B6868C04774
:105090000028686065D0E869401CBBF1010BE8613D
:1050A000F2D130208DF80000D5F818A0BAF1010F28
:1050B0000ADB01236A462946404600F0FFF8002833
:1050C0004FD1BAF1010AF4D1D5F814B0D5F808A03F
:1050D000BBF1000F0CD01AF8011B6868C04700280C
:1050E00068603ED0E869401CBBF1010BE861F2D179
:1050F00095F8280040070DD52020012E8DF80000DE
:1051000008DB01236A462946404600F0D7F840BB39
:10511000761EF6D100262E61224628690DF1010186
:105120004844FCF711FC2869201828611498801C59
:105130001490801E008800287FF468AF686A29698F
:10514000401AA969401A6969471A95F8280040076A
:105150000FD4012F0DDB3C4668682021C0476860F2
:1051600010B94FF0FF3635E0E869401C641EE86175
:10517000F2D12B694A462946404600F09FF80028A4
:10518000EFD1AC69012C0ADB68683021C0470028E8
:105190006860E6D0E869401C641EE861F4D16B6980
:1051A000AA682946404600F089F80028D9D195F828
:1051B000280040070CD5012F0ADB68682021C04772
:1051C00000286860CDD0E869401C7F1EE861F4D1FA
:1051D0002E616E6204A881451CBF484600F0C6FDE2
:1051E000304601E04FF0FF3015B0BDE8F08FF0B46D
:1051F000C2686F2908BF082405D041F02003782B2E
:1052000014BF0A24102418230668642918BF6929CA
:10521000374602D1002E48BF7F425FB9056A4DB9BB
:10522000082C27D190F82810090723D530211723FF
:10523000D1751FE0B7FBF4F604FB16773037FFB2E9
:105240005D1E3A2FA4BFA1F1510C6744AF542B4609
:10525000370003D085689E18B542EBD3082C09D1DE
:1052600090F82810090705D5995C302902D05B1EFB
:10527000302199549A188260C3F11801026A416181
:10528000914208DA511A81614FF6EF72018D114097
:105290000185F0BC7047002A0ED590F8282002F056
:1052A0001402102A08D1426A0369D21A8369D21AF9
:1052B000531A012BA8BF8361F0BC7047F8B50446B0
:1052C0000D4616461F46002077B116F8011B686888
:1052D000A047686030B1E869401CE86100207F1E8B
:1052E000F3D1F2BD4FF0FF30F2BD0000000000002E
:1052F00000000000686C747A4C00000000000000A0
:10530000000000000901002806D5314A00F00F0016
:10531000801800F8041C70472E4A815470472E49AB
:105320000A684FF6FF031A4000F0070042EA002027
:105330002A4A10430860704738B5274B1B68C3F3EF
:105340000223C3F10704052C28BF04241D1D072DCB
:1053500034BF0023DB1E012505FA04F4641E21403E
:10536000994005FA03F35B1E1A401143BDE834402F
:10537000C8E7012100F01F029140194A04E0012111
:1053800000F01F029140174A400942F82010704770
:1053900010B5401EB0F1807F01D3012010BD124C2A
:1053A00060600F214FF0FF30FFF7ACFF0020A060DE
:1053B00007202060002010BD012100F01F02914055
:1053C0000A4AE1E7012100F01F029140084ADBE7A9
:1053D00018ED00E000E400E00CED00E00000FA054C
:1053E00000E100E080E100E010E000E000E200E029
:1053F00080E200E038B5050001D1012032BD05F1A1
:105400005004607818B920702846FDF74BFA022046
:1054100060702868016821F0400101606868A9682F
:105420000843E96808432969084369690843A96989
:1054300001F400710843E9690843296A0843A96A2D
:10544000084329680860A869696A000C00F0040034
:10545000084329684860A86AB0F5005F02D129684E
:10546000E86A08612868C16921F40061C16100200F
:10547000606001206070002032BD2DE9F84F0446C5
:105480000020ADF8000004F1500600253078012816
:10549000894692461F464FF0010B08BF022000F0DC
:1054A000D58086F800B0FDF721FC80467078012891
:1054B00009D06168B1F5827F02BFA1680029042884
:1054C00001D00225C0E0B9F1000F18BFBAF1000FFA
:1054D00000D00FB90125B7E07078012804BF05207E
:1054E00070707560C4F838A0E787A787C4F830905B
:1054F000E786A7862564656400F0E0F80A9FB0F5AA
:10550000006F606838D100281CBFE08E012805D1EB
:10551000216839F8020BC86000F0A5F8E08E002879
:1055200004BFE08F002860D0BBF1000F1CBFE08EED
:1055300000280DD000F0A6F80AD539F8021BC1608A
:1055400000F095F804BFA06AB0F5005F00F0AFF876
:10555000E08F38B100F092F804D5C0682AF8020B49
:1055600000F076F817F1010FD8D0FDF7BFFBA0EBE4
:105570000800B842D2D35AE000281CBFE08E0128B0
:1055800005D1216819F8010B087300F06CF8E08E62
:10559000002804BFE08F002827D0BBF1000F1CBFFC
:1055A000E08E00280DD000F06DF80AD519F8011B27
:1055B000017300F05CF804BFA06AB0F5005F00F072
:1055C00076F8E08F38B100F059F804D5C0680AF8D1
:1055D000010B00F03DF817F1010FD8D0FDF786FB65
:1055E000A0EB0800B842D2D321E000F04FF80CD174
:1055F000CDF800803B4600F099F820B1706840F08B
:105600000200706013E000F045F820688168C90668
:1056100007D5716841F00201716001254FF6EF7105
:105620008160CDF800803B4600F018F808B10325F2
:105630000AE04246394600F05AF818B12020012508
:10564000706001E000F055F800F02BF8BDE8F28F33
:105650004FF0010BE08F401EE087704701220221CE
:10566000204600F067B8E08E401EE0867047AB46EB
:10567000E08E401EE086E08E00287047206881683A
:10568000C90770472068816889077047A06AB0F52C
:10569000005F70472068C068ADF80000BDF80000EA
:1056A000704701207070002030702846704704D188
:1056B0002068016841F4805101607047A06AB0F52C
:1056C000005F0AD1206801684DF6FF721140016049
:1056D0002068016841F400510160206801684906B2
:1056E00003D4016841F040010160E0687047204642
:1056F00064E0A06830B900902068C16800918068BB
:1057000000900098704700006068B0F5827F704795
:10571000A068B0F5004F704704D12068016821F0FF
:10572000400101607047CDF80090434601220121FD
:105730002046FFE72DE9F041069E04460D469046BF
:105740001F46206880682840A8420CBF0120002026
:10575000404524D017F1010FF3D027B1FDF7C6FA69
:10576000801BB842EDD32068416821F0E001416020
:10577000FFF7CAFF06D1FFF7CBFF18BFB0F5806F68
:10578000FFF7CAFFFFF782FF01D100F00BF804F129
:1057900050000121417000210170032000E0002031
:1057A000BDE8F081206801684DF6FF72114001608C
:1057B0002068016841F400510160704710B582B063
:1057C0000B460092044600228021FFF7B3FF20B170
:1057D000606D40F020006065032016BDFCF791BBB2
:1057E000FDF784BAFDF785BA90FBF1F07047000031
:1057F000F7B582B000200027019069460870AD4ED1
:1058000009E0122701984019C0B20190684600785B
:10581000401C6946087068460078097B88423CD283
:105820000498019944182078012807D108250222FC
:10583000A11D00A8801CFBF755FE00E01625684658
:105840004088694609899C4A914219D19B498842FE
:1058500006D10222211D30004230FBF743FED1E782
:10586000491C884204D10222211D30004430F4E753
:10587000491C8842C5D10222211D30004630ECE788
:1058800069460989D21E9142BBD18D498842B8D15F
:105890000222211D30004830DFE7380005B0F0BD9E
:1058A000F0B583B00678834C0225012E06D1002680
:1058B0001F78F6B2BE4207D2761CFAE7022E03D159
:1058C0002668042E00D025600678032E00D12560BE
:1058D000099C24780194089C00941B78097800782E
:1058E000FAF719FFF7BD70B5040018000225714BD7
:1058F0002678012E09D025D3032E04D00ED3052EF1
:105900001CD019D370BD1D6006E00878002819D19D
:105910001088588105201860097809E01D60097811
:10592000D2331878002803D00820FAF7EBFF70BDB7
:105930002078FAF724FF70BD1D6070BD0B2119603F
:1059400000F0D3F870BDF0B583B00D00594C2700BE
:10595000D237594E0078012804D0022822D00428DA
:105960004CD0F7BD6A4600A9891C3000FBF7CAFD80
:10597000401E8041C00F60736A4600A9891CF01E5A
:10598000FBF7C0FD401E8041C00FA073217B38781B
:10599000002801D0072020600F3422002878FAF771
:1059A00024FFF7BD2878002806D00C202060297835
:1059B0000320FAF7A7FFF7BD2000B03001902200C6
:1059C0004B324A20215C01980088FFF711FF38789C
:1059D00000280BD001980088B04207D1607B0028D6
:1059E00004D02068082801D10D20206022004B320D
:1059F0004A3421782878FAF70CFFF7BD22004B32A1
:105A00004A3421782878FAF72DFFF7BDF8B50F0052
:105A1000284C2600D03601250078052806D0062817
:105A200013D0072831D0092833D0F1BDB078002831
:105A30003ED0206810283BD13978002902D00620BA
:105A4000FAF760FF0020B0701DE03878002806D01B
:105A50000C20206039780920FAF754FFF1BD308816
:105A6000012801D1FBF7ECFE2200B23231883878F0
:105A7000FAF70CFFB078002805D020680E2802D174
:105A80000F202060F1BD2560F1BD3878FBF7DEFE08
:105A9000F1BD387800280BD15A6899781888C0B2BF
:105AA000FAF751FF0098426881780088FBF7D2FE30
:105AB000F1BD0000640A00200D180000372A000024
:105AC000292A000038B504000D002878002801D1EB
:105AD000FEF77EFE29782088FAF759FF28781028EB
