:020000040800F2
:1000000098040020D9460008C1440008C3440008F1
:1000100000000000000000000000000000000000E0
:10002000000000000000000000000000C7440008BD
:100030000000000000000000C9440008CB44000894
:10004000932700080B2A0008DD4400087B370008CE
:100050009B390008E5440008BB440008EF44000851
:10006000BF440008B746000807450008C34600081B
:10007000214700082347000800000000254700082A
:1000800000000000274700080000000000000000FA
:1000900029470008000000002B4700082D470008F2
:1000A0002F4700083147000833470008354700084C
:1000B00037470008394700083B4700083D4700081C
:1000C000002098490870704780B5974800688047BD
:1000D00001BD80B595480068006C0068006801218A
:1000E000884392490968096C096808608F4800686C
:1000F000406C00680068012188438C490968496C9C
:100100000968086072B600F0F2F8894800780128A2
:1001100009D100208649087001208449087162B61F
:1001200000F0C0F903E000208049087162B601BD0B
:1001300080B501207D494874FFF7CBFF7B4841899A
:10014000C9B27C48006800F0A6FC01BD80B5012062
:1001500000F0B4FA0021002000F038FE01BD80B5A7
:10016000764800F020F875487049086000206F4913
:10017000087100206E4908707048006840680321CB
:1001800001436E48006841606C4800680068402187
:1001900001436A4800680160694B002266490320F8
:1001A00001F0A4F901BD80B5C9490160822149006F
:1001B0004160002181600021C160002101610021B6
:1001C0004161802189008161002101620021416239
:1001D0000721C1620021C1610021816201F052FA50
:1001E00001BD00B587B0802040000290002005903E
:1001F000AB4B00226946032001F078F9B54800684E
:1002000001210143B3480160B24800680100C907F9
:10021000C90F01910198002280214900A020C0054A
:1002200001F06FFB012003900020049002A9A020A0
:10023000C00501F071FA01216846007801F0C7F9A4
:10024000012038490870374800780128FBD0012286
:1002500080214900A020C00501F053FB5D216846C4
:10026000007801F0B4F901202E4908702D4800787B
:100270000128FBD06846007801F071F907B000BD95
:1002800010B52A4CA0612948C161AB480270AB4847
:1002900003700020AA49087072B62448007900282B
:1002A00008D101202149087100F021F862B600F060
:1002B000F9F803E001201E49087062B610BD80B550
:1002C0000120B5490860052001F0B2FB052001F0CE
:1002D000A0FB0121A020C00501F008FB012805D1E9
:1002E000AE48006801210143AC48016001BD80B502
:1002F000052001F093FB01BD80B500220221A02062
:10030000C00501F0FEFA01BD80B5A548006800688F
:1003100080680006F9D401220221A020C00501F066
:10032000F0FA01BD9B09002054090020C4080020F8
:10033000E80800203C0900209A090020F40700206A
:10034000C900000880B5FFF7DFFF002003E080212F
:1003500089050968401CC0B20D28F8DBFFF7CCFF07
:1003600001BD80B52020CE49086080208000CC49A6
:1003700008608B48007A002803D0022829D03BD39C
:100380008DE08848007900028649C978084385498C
:10039000097880B2002802D0C9B2022915D0012103
:1003A000A020C00501F0A2FA002808D1FFF7ACFF99
:1003B0000621012000F00AFDFFF78BFE08E0FFF7A1
:1003C000C1FF002000F07AF902E0022000F076F987
:1003D00065E0FFF799FF0621012000F0F7FCB14826
:1003E000B1490860B1480078B14908710220B049AC
:1003F000086001F0DFFC52E06A4880780002694939
:10040000497808436749097880B2002802D0C9B208
:10041000022905D0FFF796FF012000F04FF93DE0DB
:100420004749097801291FD080B243490978434AD6
:100430001278891888420FDA3F490978401A9D4995
:1004400008703E4800789B490978401A3B4908707B
:1004500001203B49087003E038480078954908704E
:10046000002000F0A1F819E03449097880B289B27F
:10047000884209D28F490870304800788D49097840
:10048000401A2E49087006E02C4800788949087007
:1004900000202A490870012000F086F8FFE701BD1E
:1004A000C100000880B5FFF722FF83487E4908603D
:1004B000FFF722FF7D4800787D49087106207C49BE
:1004C000086001F077FC0621002000F07FFC01BDF0
:1004D000003001402C10024080B58020800070491F
:1004E00008602F48007D002802D001280BD022E0B0
:1004F00070480078002803D0012000F055F801E092
:1005000000F020F817E00E480078012810D10B48C1
:10051000007800280CD02248C06966490978401844
:100520001F49C861FFF70EFF012000F0C7F801E086
:1005300000F008F8FFE701BDE4080020E50800200E
:10054000E708002080B50621002000F03FFC0020D5
:1005500013490871FFF7D8FE11480068006C006865
:100560000068012188430E490968096C0968086020
:100570000B480068406C0068006801218843084906
:100580000968496C096808600548407C002801D169
:10059000FFF795FE01BD0000140401401004014066
:1005A000C40800202C09002010B50400BA480068D7
:1005B000006C0068006801218843B7490968096C2C
:1005C00009680860B4480068406C00680068012150
:1005D0008843B1490968496C09680860AE480068F9
:1005E000406C0068006802218843AB490968496C87
:1005F0000968086080208000294908600A2001F00D
:1006000017FAA5480068006C0068006802210143E1
:10061000A1480068006C006801609F480068006C99
:1006200000680068802101439B480068006C0068F6
:100630000160E4B2002C02D0012C12D023E0002093
:10064000954908759548007893490968096C0968C7
:1006500048609148806990490968096C0968C860D8
:1006600011E001208C490875124800788A49096810
:10067000096C096848608848C06987490968096C3D
:100680000968C860FFE784480068006C006800687B
:100690000121014380480068006C0068016010BDC2
:1006A0000400024031010008540900209A0900208A
:1006B00034090020E60800204D01000880B5764985
:1006C0000968096C0968096801229143724A126835
:1006D000126C1268116070490968496C09680968F0
:1006E000012291436C4A1268526C12681160002119
:1006F00004E0694A12681268127B491CC9B20429D5
:10070000F7DB65490968496C0968096802220A43F0
:1007100061490968496C09680A605F490968096CA0
:1007200009680968022291435B4A1268126C1268D8
:100730001160C0B2002803D002280BD005D342E0DC
:100740005749002000F058F83DE05649012000F0DC
:1007500053F838E0022050490872534800790002EB
:100760005149C97808434C49097C89B280B2814219
:1007700001D24948007C4849488147490968096CC9
:100780000968096880229143434A1268126C126812
:10079000116080B240490968496C0968486080B2BC
:1007A0003D490968096C096848603B48C0683A4996
:1007B0000968496C0968C8603C4837490968096C90
:1007C0000968C860FFE734480068406C006800684A
:1007D0000121014330480068406C006801602E48E8
:1007E0000068006C00680068012101432A48006825
:1007F000006C0068016001BD274A1072264800683D
:10080000006C006800688022024323480068006C86
:10081000006802600520204A1268126C126850605D
:1008200005201D4A1268526C126850601E481A4A10
:100830001268526C1268D06017480068006C00683B
:10084000C160704780B5144AD0601348017400201D
:1008500011494874FFF733FD01BD80B572B60E48EB
:10086000007900280DD101200B49087162B6FFF70D
:1008700043FD0020FFF722FF0021012000F0A6FA2F
:1008800000E062B601BD80B50948016808480079FA
:1008900000F09DFE01BD0000C4080020E408002017
:1008A000144700080C4700082C0900203E470008A8
:1008B0003409002080B59448007801280FD193486E
:1008C00001F07FFA00280AD100208F49087069469C
:1008D0008E4801F0A8FA8021009801F0BDFA01BD10
:1008E00001208B490870704710B5884801F066FAFE
:1008F000884801F063FA002408E08748E4B28C21BC
:1009000061434118814801F076FA641CE4B2052C79
:10091000F3DB01207C49087010BD80B5FFF7CAFFEA
:1009200001BD7E490860704738B5002203000833D6
:100930007B4C23607B4B1B78002B06D100237A4C29
:10094000238002E00323774C2370774B1B88802B96
:100950006ADA754B1B881C00641C734D2C80704C2C
:1009600024689BB2E35C6F4C2478002C06D1DBB288
:10097000042BE7D000206B49087055E0694C2478BF
:10098000032C03D10623674C2370DEE7654C2478E3
:10099000042C03D10523634C2370D6E7614C2478E3
:1009A000052C03D107235F4C2370CEE75D4C2478E0
:1009B000072C03D108235B4C2370C6E7594C2478DD
:1009C000082C0CD156490A68521C9178D3781B0622
:1009D0001B0C194300220923524C2370B5E7514CDC
:1009E0002478062C06D1DBB21900002209234D4CD5
:1009F0002370AAE74B4B1B78092BA6D1521C92B24D
:100A000089B28A42A1D30021464A117000F00DF844
:100A100042480068002807D04348018889B240480E
:100A200000683E4A1268904731BD80B50200083226
:100A30001100491C1278042A05D10A780E2A02D026
:100A400009780F2904D10100304801F0D4F905E0FC
:100A50000100304801F0CFF901F09FF801BD80B5E9
:100A6000002000902B4801F0ACF910E069462948BD
:100A700001F0D9F90098083001F0A2FD009923484F
:100A800001F0B9F9FFF716FF224801F09AF9C0B258
:100A90000028EBD001BD80B501221B4B1A70C9B2F2
:100AA000002902D0FFF740FF03E00100174801F0E2
:100AB00096F9FFF7FFFE01BD80B59BB292B201F03F
:100AC000C5F901BD38B514001D008905890D8002E6
:100AD0000843694608806846847001206E490870A2
:100AE000032269466D4801F0C9FDE4B223009BB2C0
:100AF000042229006848FFF7DFFF31BD0120684963
:100B00000870704700000000920900201C090020B6
:100B100091090020240900209804002048090020A1
:100B2000400900209309002078090020F8B504004E
:100B300060888005800D2188890201436846018014
:100B4000584800680A2101F0AAFD06000020544917
:100B50000870002001F0A4F85348FFF7E2FEA368F4
:100B6000E0680200D2B261882088FFF7ABFF0A2557
:100B700002E000204A4908702800451E002815D0D0
:100B8000002E00D10126002048490870484A4949F2
:100B9000300001F0E2FD01E001F07EF8434800780A
:100BA00000280CD04248007801F0EDFD0020FFF74E
:100BB000B8FE012001F074F80020C0433FE038483F
:100BC00000780028E8D03A48007801F0DCFD3A4887
:100BD000026810780428CCD1521C37480168C91C1F
:100BE00036480088C01E12780E2A29D00F2A04D059
:100BF000102A4BD03E2A39D049E00A009378D778A2
:100C00003F063F0C3B436F463F889BB2BB423ED101
:100C100063680F2B03D010780028C7D137E06269D2
:100C2000904200DB606960616269206901F026FD25
:100C30000020FFF776FE012001F032F80020F2BD1F
:100C40004A788B781B061B0C1A436B461B8892B2A2
:100C50009A421CD1C91CC01E6269904200DB6069C7
:100C600060616269206901F009FDE1E70A78636863
:100C70009A420CD1401E6269904200DB606960615B
:100C80006269491C206901F0F9FCD1E78EE7002078
:100C90000349087070E7000044090020450900205E
:100CA000940900201C470008FD0A00089109002053
:100CB00090090020E1080008400900207809002080
:100CC000F0B589B006000D0014001F0009220021B4
:100CD000684601F0DAFC1822002103A801F0D5FCD7
:100CE000042069468881012003A9488000200590DE
:100CF000002006906846079009200890002103A86C
:100D0000FFF714FF002802D50020C0431FE068460B
:100D10000078002802D00020C04318E068464078E0
:100D2000307068464088288068460079207069469F
:100D300048798A791206120C104338806946C879BE
:100D40000A7A1206120C10430E990880002009B08E
:100D5000F0BD30B58FB004000D002022002107A89F
:100D600001F093FC68460477E4B2202C01DB1F22DB
:100D700001E0E4B22200290007A8401C01F07EFC3B
:100D80001822002101A801F080FC08206946888013
:100D9000092001A9488007A80390202004906846F4
:100DA000059001200690002101A8FFF7BFFE002852
:100DB00002D50020C04307E068460078002802D032
:100DC0000020C04300E000200FB030BD10B5EFF3AD
:100DD000108272B6C9B2082907D1434909680123B4
:100DE00083400B434048036040E03F4B1B680124B5
:100DF0008440A3433C4C23604B0707D53B4B1B6807
:100E000001248440A343394C236006E0374B1B6820
:100E1000012484401C43354B1C608B0707D5344BA1
:100E20001B6801248440A343314C236006E0304B0F
:100E30001B68012484401C432D4B1C60C90707D547
:100E40002C4909680123834099432A4B196006E025
:100E500028490968012383400B4326490B60224936
:100E600009680123834099431F48016082F3108879
:100E700010BD10B5EFF3108472B61B48006800284F
:100E80002ED11A480068002804D00121002001F06A
:100E900089FC25E01748006800280CD1C046C046F0
:100EA00015480068042101431348016001F0B2FCB9
:100EB000C046C04614E010480068042101430E48B3
:100EC00001600B480068002804D00121002001F0D7
:100ED00082FC03E00121012001F07DFC01F094FD82
:100EE00084F3108810BD0000700900206409002000
:100EF000680900206C0900200070004010B5C04A4D
:100F0000C9B214234B43D218127CD2B2082A05D09E
:100F1000BB4BD2B2142454431B19D873B84BC0B284
:100F2000142444431B191A74B54AC0B21423434312
:100F3000D218D173B24AC9B2142359435118087454
:100F400010BD10B5AF4A1278C9B291421ED0AC4A5A
:100F5000C9B214234B43D218D27BA94BD2B214246A
:100F600054431B191874A64BC0B2142444431B19D4
:100F70001974A34BC0B2142444431B19DA73A04A5A
:100F8000C9B2142359435118C8730BE09C4AC0B22C
:100F900014234343D2181174994AC9B214235943F4
:100FA0005118C87310BD70B5040096480078082821
:100FB00011D1944800789449087092480470082030
:100FC0008F49E4B214225443091908748F48904998
:100FD0000880002552E000F0AFF805008848E4B230
:100FE0001421614340188068ADB240198449E4B2CD
:100FF00014226243891888608148E4B21421614355
:10100000401880687F4909787D4AC9B21423594342
:1010100051188968884225D37A490978784AC9B233
:1010200014234B43D218127C0BE0754AC9B2142327
:1010300059435118097C724AC9B214234B43D21840
:10104000127CD2B2082A07D06D4BD2B2142672435A
:101050009A1892689042E8D2C9B22000C0B2FFF755
:101060004DFF0BE0674801782000C0B2FFF769FF31
:10107000644800786449087062480470280080B2AF
:1010800070BD70B55F4A1278C0B290420CD15D4A13
:1010900012785D4B1A705A4AC0B214234343D218D7
:1010A000127C584B1A7026E0554AC0B214234343B1
:1010B000D218D27B524BC0B2142444431B191B7C60
:1010C0004F4CC0B2142545436419247C4C4DD2B218
:1010D00014267243AA181474DBB2082B0BD0484AAA
:1010E000C0B2142444431219D27B454CDBB2142500
:1010F0006B43E318DA730122414BC0B214246043FE
:10110000181802733F480078082805D1C9B2002991
:1011100002D13E48A949088070BD00B53B4803E0B4
:10112000A74800680068806AA54909680968896A53
:101130008842F5D180B200BD80B535480088694944
:10114000884217D0FFF7E9FF31490988814203D36C
:101150002F490988081A06E09A490988081A401C8C
:101160002B4909880818984909784843974909780C
:10117000C84000E0002080B202BD10B50400A4B257
:10118000002C07D1FFF7C9FF21490880022000F099
:101190004AFC34E0A4B2022C03DA8C48007801281F
:1011A00000D0641E864800680068C0684007F9D512
:1011B000834800680068C068802108408449014372
:1011C0007F4800680068C160802040038149086052
:1011D000022000F02DFCA4B2794800680068446148
:1011E000FFF79BFF754908807548006800688068B4
:1011F0008021C9000143724800680068816010BD09
:10120000540700209C0900209D090020FFFF0000DA
:101210008A09002038B56A4800680068806840057F
:1012200005D5674800680068C0684007F9D464487D
:10123000006800688068684901406148006800688B
:10124000816029480478CD48E4B2142161434018F4
:101250008568FFF771FF80B2854204D20021012228
:10126000A04B1A7024E080B29F4909884118A94216
:1012700005D29D49098800229A4B1A7018E0291A54
:101280000122984B1A7013E0BC4AE4B21423634362
:10129000D218926880B2121AB84BE4B21425654392
:1012A0005B199A60B54AE4B214235C431219147CAA
:1012B000E4B2082C10D0B14AE4B214236343D2182C
:1012C000926880B28242DFD20022AC4BE4B2142595
:1012D00065435B199A60E5E7080080B2FFF74DFFB0
:1012E00031BD0000FFFF00009C090020F8B5EFF3BE
:1012F000108572B63248006800688068364901403F
:101300002F480068006881602D4800680068C06848
:10131000802108402E490143294800680068C160C7
:10132000802040032B490860C8480478C848E4B2CC
:10133000142161434018007B02283BD1C448E4B229
:10134000142161434658C248E4B214216143401855
:10135000877B64480078002827D0BD48E4B2142178
:1013600061434018407B012811D101212000C0B207
:10137000FFF787FE85F31088B548E4B21421614376
:10138000401841682000C0B200F021F905E085F363
:1013900010882000C0B200F0F3F832002100C9B27A
:1013A0003800C0B200F062FC06E0FFF733FF85F3BF
:1013B000108801E085F31088F1BD00008A09002043
:1013C000740900208C090020A00900209F0900203A
:1013D0007FFBFFFF14040140FFFBFFFF80B59D4929
:1013E000086004209B490968096889684907490F12
:1013F000401A994908709748006800680069000C15
:101400004006400E401C95490870924800680068EC
:1014100000694004400C9249088091480088401EB1
:101420008E49097848438C490978084113388D4919
:10143000884203D38B482C49088001E02A49088060
:10144000012028490870874887490880002007E064
:1014500000214A4AC0B214234343D2181173401CDE
:10146000C0B20828F4DB0820784908707948006881
:10147000006880687D4901407648006800688160A6
:10148000744800680068C0688021084078490143BA
:10149000704800680068C16080204003754908609A
:1014A000022000F0C5FA6B4800680068806880215F
:1014B000C901014367480068006881606E480068A0
:1014C0008021490301436C4801606C480068802119
:1014D000490301436948016000220321022000F012
:1014E00093FA01BD9E0900208E090020F0B5002569
:1014F000EFF3108472B600E06D1CEDB2082D07DA30
:10150000534EEDB214276F43F619367B002EF3D1FC
:10151000EDB2082D1ED00127BC464D4FEDB214266A
:101520006E43BE196746377384F31088484CEDB29A
:1015300014266E43A419A0734548EDB214246C43DD
:10154000001942734248EDB214226A4383500D7071
:10155000002002E084F310880120C0B2F0BD10B575
:1015600004002000C0B200F00BF800203849E4B2BB
:10157000142254430919087310BD000054070020B9
:1015800038B50500EFF3108472B6022000F046FA79
:101590002F48EDB2142169434018007B022810D176
:1015A00000212800C0B2FFF76CFD284800783449BC
:1015B0000978C0B2814204D0C0B2082801D0FFF738
:1015C00029FE022000F025FA84F3108831BD70B5A1
:1015D00005000C00EFF3108672B6022000F01EFA30
:1015E00002201B49EDB214226A4389180873184877
:1015F000EDB214216943401884601548EDB21421FE
:101600006943401844602800C0B2FFF7CCFC0F4982
:1016100009781B4A1278C9B28A4202D0FFF7FAFD54
:101620000DE00B49EDB214226A438918896880B233
:10163000081A0749EDB2142255434919886002205F
:1016400000F0E7F986F3108870BD00009C090020C7
:1016500054070020740900209F090020A0090020E1
:101660008C090020FFFF00008A090020FFFBFFFF1C
:101670007FFBFFFF14040140080401400004014007
:101680009D09002010B50400002C01D101203FE08D
:101690005120205C002805D10020502160542000FA
:1016A00001F0B4F902205121605420680068402103
:1016B0008843216808606068A1680143E0680843C6
:1016C0002169014360690843A169802292001140A9
:1016D0000143E0690843216A0143A06A0843216885
:1016E0000860A069000C04210840616A0143206879
:1016F0004160E06A216808612068C06905490140CD
:101700002068C161002060650120513420700020F4
:1017100010BD0000FFF7FFFFF0B50200002300241A
:10172000002533E006201E00B607B60F04277E43CF
:10173000B0402843050068489E0804277E43855131
:1017400066480568A5434868C00300D5254363483B
:10175000056063480568A5434868800300D52543B4
:101760005F4805605F480568A5434868C00200D52A
:1017700025435C4805605C480568A54348688002CD
:1017800001D52C432500584805605B1C0868D840EB
:10179000002800D19EE0086801249C400440002CF1
:1017A000F3D04868022802D0486812281AD1D80815
:1017B000042568431018056A0F201E007607760F6F
:1017C00004277E43B040854308691E007607760FE4
:1017D00004277E43B04028430500D8080426704300
:1017E000101805624868012808D04868022805D00A
:1017F0004868112802D0486812281AD19568032039
:101800001E0002277E43B0408543C8681E000227A1
:101810007E43B040284305009560556801209840FC
:1018200085432E0048680500ED06ED0F9D403543C9
:101830005560156803201E0002277E43B040854393
:1018400008798007800F1E0002277E43B04028439E
:1018500005001560D56803201E0002277E43B040B6
:1018600085432F008D681E0002204643B5403D434E
:10187000D5604868C00088D52E480068012505431A
:101880002C48056014489D080426754345590F20CF
:101890001E00B607B60F04277E43B0408543A02044
:1018A000C005824201D100203DE72348824201D198
:1018B000012038E72148824201D1022033E7204845
:1018C000824201D103202EE71E48824200D029E740
:1018D000052028E7F0BD0000080001400004014099
:1018E00004040140080401400C04014000B50069F3
:1018F00089B20840002801D0012000E00020C0B2D9
:1019000000BD00B5D2B2002A02D089B2816101E0E7
:1019100089B2816200BD80B50B49096880B201407F
:10192000002905D080B20849086080B200F09EFA14
:1019300001BD0000341002400004005000080050B7
:10194000000C0050001C0050140401400121C0068E
:10195000C00E81403948016070470121C006C00EA9
:1019600081403748016070470121C006C00E8140A8
:101970003448016070470121C006C00E81403248E2
:1019800001607047F0B540B2002821D52F4B40B21E
:101990000207120F083A9208042462432B4C40B20B
:1019A00005072D0F083DAD08042675436459FF2532
:1019B0008607B60F08277E43B540AC438901C9B2FC
:1019C0008007800F082568438140214399501AE021
:1019D0001F4A40B2830804246343D258FF2384077C
:1019E000A40F08256C43A3409A438901C9B2830719
:1019F0009B0F0824634399401143154A40B2800865
:101A0000042358431150F0BD80B540B2FFF7BAFF30
:101A100001BD80B540B2FFF799FF01BD80B540B26E
:101A2000FFF79BFF01BD80B540B2FFF79DFF01BDF1
:101A300080B540B2FFF79FFF01BD000000E100E06C
:101A400080E100E000E200E080E200E01CED00E068
:101A500000E400E00020704780B501F0FFF801F0DD
:101A600019F900F0E9FE0121002001F07BF900F0F6
:101A70002BF99248FFF7B2FC00230122B94900205C
:101A8000FFF734FD06210220FFF7A0F9FEF767FB00
:101A900000F003F800F08BF8FCE710B58CB0884C30
:101AA00007A888490CC90CC008390838FEF71CFF84
:101AB000FEF797FBFEF731FF06A904A801F0B4F981
:101AC000FEF78FFB6846007C312805DB0120A64924
:101AD0000870022007A94871062207A909A800F08A
:101AE000CDFD09AA0621002001F0D0F901F03AFA53
:101AF0009D48007801280CD105A8801C019004A8FD
:101B0000801C009005AB07220021012001F025FC7C
:101B100007E005AB9B1C04AA921C05A9012001F05B
:101B200066FC200001F076FD03000094DBB2002289
:101B30006846418A6846808A01F090FB002800D000
:101B4000FEE70120039089480290002001901020B8
:101B50000090072300220021012001F018FD00F071
:101B600097F900F091FA0421012001F0D0F90CB0AE
:101B700010BD72B67E490968012282400A437C4842
:101B8000026062B6704772B67949096801228240E4
:101B900091437748016062B6704780B50020FFF737
:101BA000E8FF01BD80B50120FFF7E3FF01BD80B56F
:101BB0006F480078800709D56E480078002805D165
:101BC0000120FFF7E0FF6C4800F020F8684800783B
:101BD000C00708D567480078002804D10020FFF727
:101BE000D2FFFEF73CFF72B661480068002809D0BA
:101BF0005F48006803218843002805D15D480078CC
:101C0000012801D1FFF735F962B601BD10B5040016
:101C10005A48007800280DD052480078FFF7B0FCF1
:101C200000F020FC00205549087055494D480078C7
:101C3000FFF7CDFC53480068002816D0002051491A
:101C400008605148006800280BD02068643020608C
:101C5000606864306060A0686430A060200000F0BC
:101C6000E6F906210220FFF7B1F810BD80B5C0B239
:101C7000002804D0022806D0032806D007E001205F
:101C8000FFF777FF07E0904705E0904703E010007B
:101C9000002800D0904701BD80B5FFF788FF01BD47
:101CA00000B5C0B2002803D101203249087002E01B
:101CB00000203049087000BD00000000EC08002042
:101CC000F4460008FC46000880B530480068012151
:101CD00001432E4801602E480068802149050143D8
:101CE0002B48016000F056FD00F054FD29480068C3
:101CF00029490140274801602448006827490140DC
:101D00008020800208432149086020480068802123
:101D1000C90201431D480160214822490860002092
:101D2000214908700120214908701E4801F07AFC01
:101D300001201C4988601E481A49C860194801F0F2
:101D400095FCCA201749096848625320154909685B
:101D500048620321134801F007FD0C480068800722
:101D6000FBD501BD960900209709002040E2010043
:101D70004C09002095090020100900209000002047
:101D80000547000060090020500900205010024063
:101D90003810024000100240FFFFCFFFFFFFFCFFA2
:101DA00000280040EC0800200C0900200D0900204C
:101DB000FF7F000080B5FEF766FD01BD006040605A
:101DC000704700B5EFF3108172B60268824201D10C
:101DD000012000E0002081F31088C0B200BDEFF3C5
:101DE000108272B603680B60486001600868416049
:101DF00082F310887047EFF3108272B60860436870
:101E00004B6041604868016082F310887047EFF3CF
:101E1000108172B6026843681A60426800684260C6
:101E200081F31088704738B50C00EFF3108572B657
:101E3000016821600068FFF7EAFF00202168086060
:101E400000202168486085F3108831BD80B5DBB281
:101E5000D2B2FEF715FA01BD80B5034A1060C9B2CF
:101E60000830FEF7EFFC01BD3C09002080B580B2D0
:101E7000012802D1FEF7F1FC08E080B2802189013F
:101E8000884203D108210220FEF7A0FF01BD0020F7
:101E900000B58BB01B2069460876C52006A948709E
:101EA000D52006A98870A52006A9C870022006A919
:101EB0000871002006A94871B42006A988719A20EB
:101EC00006A9C871E12006A90872112006A9487266
:101ED0003A2006A98872CF2006A9C872802006A9D8
:101EE00008736E2006A94873362006A9887302205D
:101EF00006A9C873614800900723012206A90220A1
:101F000001F04EF8C0B2002802D047200BB000BD4F
:101F10001B2069460876C52006A94870D52006A969
:101F20008870A52006A9C870022006A908710020A3
:101F300006A94871FC2006A988718F2006A9C871DE
:101F4000E12006A90872112006A948724A2006A9B4
:101F50008872CF2006A9C872A02006A9087378202D
:101F600006A948733E2006A98873E22006A9C87313
:101F70004348059000200490102003900020029018
:101F80000020019010200090012306AA02213B4866
:101F9000008801F057F8C0B20028B6D11B2069466E
:101FA0000876C52006A94870D52006A98870A52006
:101FB00006A9C870022006A90871002006A9487168
:101FC000362006A98871AC2006A9C871E12006A9AF
:101FD0000872112006A948724B2006A98872CF20EA
:101FE00006A9C872802006A908731B2006A9487399
:101FF0000A2006A98873342006A9C87321480590D1
:1020000000200490102003900420029000200190F2
:1020100012200090062306AA02211848008801F029
:1020200011F8C0B2002800D06FE700206EE7E0B5DD
:1020300001686A4611710168091201AA517041686C
:1020400001AA91704168091201AAD170816801AAA0
:1020500011718068001201A9487101A8009006233F
:102060000022084801880548008801F0F7F8C0B24E
:10207000002801D0472000E000200EBD7C09002090
:102080007E0900208009002000B591B01B2009A91D
:102090000870C52009A94870D52009A98870A52015
:1020A00009A9C870022009A90871002009A948716E
:1020B000D02009A98871822009A9C871E22009A944
:1020C0000872112009A94872772009A98872E420B2
:1020D00009A9C872402009A908731A2009A94873E0
:1020E000822009A98873422009A9C873DC4800909E
:1020F0000A23012209A9022000F052FFC0B20028E1
:1021000002D0472011B000BD1B2009A90870C520CE
:1021100009A94870D52009A98870A52009A9C87007
:10212000022009A90871002009A94871E32009A922
:102130008871A92009A9C871E22009A90872112093
:1021400009A94872772009A98872E42009A9C872F0
:10215000202009A90873552009A948732E2009A930
:102160008873A32009A9C873D14805900020049062
:102170001020039004200290002001900220009083
:10218000022309AA0221B648008800F05BFFC0B212
:102190000028B6D10E200EA908700020C0430EA959
:1021A0004870CA480EA9488000200EA908710EA8E0
:1021B00000214171090A8171CA48694688860DA8C3
:1021C000801C0890002007901020069000200590A9
:1021D00001200490002003900EA802900720019097
:1021E000072000900DAB0122B14801889C4800886F
:1021F00000F09DFFC0B2002883D11B2009A9087000
:10220000C52009A94870D52009A98870A52009A969
:10221000C870022009A90871002009A948710B2083
:1022200009A98871842009A9C871E22009A9087246
:10223000112009A948728B2009A98872E42009A9F4
:10224000C872802009A90873C42009A948732020F6
:1022500009A98873CD2009A9C873A3480590002057
:10226000049010200390042002900020019002208E
:102270000090032309AA02217948008800F0E2FEB9
:10228000C0B2002800D03CE70F200EA9087004203F
:10229000C0430EA948709E2080010EA948800020EE
:1022A0000EA908710EA800214171090A81718D489B
:1022B000694688860DA8801C089000200790102091
:1022C00006900020059001200490002003900EA8A5
:1022D000029007200190072000900DAB0122824858
:1022E00001885F48008800F022FFC0B2002800D0BB
:1022F00007E71B2009A90870C52009A94870D52047
:1023000009A98870A52009A9C870022009A9087127
:10231000002009A94871732009A98871A02009A982
:10232000C871E22009A90872112009A948728C20FD
:1023300009A98872E42009A9C872602009A9087354
:102340000B2009A94873C52009A98873012009A990
:10235000C8739A4805900020049010200390042030
:1023600002900020019002200090022309AA02217D
:102370003B48008800F066FEC0B2002800D0C0E6EE
:1023800006200EA908700020C0430EA948709C20AA
:1023900080010EA9488000200EA908710EA8002116
:1023A0004171090A81714F48694688860DA8801CD1
:1023B0000890002007901020069000200590012032
:1023C0000490002003900EA802900720019007209F
:1023D00000900DAB0122794801882148008800F067
:1023E000A6FEC0B2002800D08BE600208AE601B528
:1023F00082B002A80090022300222D4801881848CC
:10240000008800F02BFFC0B2002801D0472000E078
:1024100000200EBD01B582B002A800900323002267
:10242000314801880E48008800F018FFC0B200282B
:1024300001D0472000E000200EBD01B582B002A807
:102440000090022300225D4801880548008800F0C2
:1024500005FFC0B2002801D0472000E000200EBDDB
:102460008209002000B589B007A876490CC90CC0C4
:102470000839083800210020FEF76BFC0020069088
:1024800000200590002004900020039007A80290EF
:10249000082001900020009000230022002100204D
:1024A00000F0EBFF012000F0C4F809B000BD00000F
:1024B0008409002000B50120634A10606348018050
:1024C000052000E0401E0128FCDA00BD2F27000097
:1024D00000205D49086001205D49087000205D49C9
:1024E0000870704704290000860900201CB580B2DE
:1024F00059490988491C884203D15848FFF797FD7C
:1025000052E080B256490988491C884215D101F031
:1025100035F9C1170F22002301F096F9514A002323
:1025200001F0ABF98721490044184C48FFF77FFDC3
:10253000200000B2FFF75BFF36E080B24A4909880D
:10254000491C884219D1494800680A2100F0A7F8BF
:102550000100684600F0FAF801F010F9C117FA22FC
:102560009200002301F070F93E4A002301F085F942
:102570003F494018FFF74EFF16E080B20F49098827
:10258000491C884210D101F0F9F8C11764220023D8
:1025900001F05AF9334A002301F06FF9E1214900B3
:1025A000401880B2FFF749FF28480088002803D070
:1025B0002648008800F0ADFE13BD00008809002009
:1025C00038B505002C00641C012000F032F8287892
:1025D00004282DD12078052804D03E2805D0FF28D6
:1025E00013D025E0FFF774FF22E0A41C2078012817
:1025F0000AD1641C6178A0780006000C014389B2FE
:10260000641D2000FFF756FF12E0A41C20786178BB
:102610000906090C084380B21649884208D1A41C57
:10262000A078E1780906090C084380B2FFF75EFF45
:1026300031BD80B510490870C0B2012801D1FFF743
:10264000B1FA01BD04470008500900207A090020B2
:102650009000002098090020800900201009002027
:1026600084090020FFFFFF3F860900201C47000867
:10267000A0860100140C00009909002010B5040088
:10268000200001F02FF9200010BD10B5040010004B
:102690000A000100200001F053F9200010BD0022C3
:1026A000030A8B420BD203098B4219D243088B4297
:1026B0002ED2411A00D20146524110467047FF22E5
:1026C00009023FD012068B4205D3121209028B4237
:1026D00001D31212090203098B4219D300E0090A3F
:1026E000C3098B4201D3CB01C01A524183098B42EB
:1026F00001D38B01C01A524143098B4201D34B01D4
:10270000C01A524103098B4201D30B01C01A524136
:10271000C3088B4201D3CB00C01A524183088B42BD
:1027200001D38B00C01A524143088B4201D34B00A6
:10273000C01A5241884200D3401A5241CFD20146BA
:102740001046704708B501F023F908BD10B5040024
:10275000616001F01EF9206010BD38B5040015005D
:102760000B00002229000220FEF7C0FEFA208000A4
:10277000444320003721FFF792FF01002878FEF73D
:1027800026FF002032BD80B5C0B2FEF7E8FE002073
:1027900002BDFEE726480068802149000143244825
:1027A0000160704700B50022214A126803239A4352
:1027B000104302001E4802601E4800680422904335
:1027C0001C4A1060C9B2012901D130BF02E040BFEC
:1027D00020BF20BF00BD00B50022154A12680323A8
:1027E0009A43104302001248026012480068042213
:1027F000024310480260C9B2012901D130BF02E092
:1028000040BF20BF20BF0B4800680421884309490E
:10281000086000BD064800680221014304480160C9
:1028200004480068042101430248016030BF70473A
:102830000070004010ED00E000B587B06848006807
:10284000082101436648016001F0B0F801F0A6F8E4
:1028500064480068802109020143624801606248BF
:10286000006801218843604908605F4800680221D0
:1028700088435D4908605C480068042188435A49E0
:10288000086059480068082188435749086056483D
:102890000068802188435449086054480068012139
:1028A000014352480160514800680100C907C90F3F
:1028B000009100984D480068022101434B48016097
:1028C0004A48006802210840009000984748006884
:1028D0000421014345480160444800680421084040
:1028E0000090009841480068082101433F4801607A
:1028F0003E48006808210840009000983B48006866
:10290000802101433948016038480068802108402F
:10291000009000980320029000200390344801901A
:1029200001A93448FEF7F8FE01A93348FEF7F4FE8A
:1029300001A93248FEF7F0FE01A93148FEF7ECFE8E
:1029400001A9A020C005FEF7E7FE28480068012184
:1029500088432649086025480068022188432349A6
:1029600008602248006804218843204908601F4805
:102970000068082188431D4908601C4800688021C0
:1029800088431A49086007B000BD00B597B0082019
:1029900009900020139001200E9009A801F010F872
:1029A000002800D0FEE720200090802080020590C3
:1029B000684601F0ABFB002800D0FEE71148006834
:1029C0008021C90201430F4801600022002102203A
:1029D000FFF71AF80220FFF71CF817B000BD00003F
:1029E000002002400C1002403C1002402C1002401B
:1029F000FFFF00000004005000080050000C0050D1
:102A0000001C0050501002407047FEE710B586B021
:102A1000040020688749884200D008E186480068A1
:102A20000221014384480160834800680221084074
:102A30000090009880480068012101437E480160B1
:102A40007D4800680100C907C90F009100987A48C5
:102A5000006801210143784801607748006801005F
:102A6000C907C90F0091009873480068012101430C
:102A700071480160704800680100C907C90F0091E2
:102A800000986D480068012101436B4801606A4865
:102A900000680100C907C90F0091009867480068E5
:102AA000802149010143654801600820019002200E
:102AB000029000200390032004900020059001A9BB
:102AC0005F48FEF729FE402001900220029000207E
:102AD0000390032004900020059001A9A020C005C8
:102AE000FEF71AFE80200190022002900020039041
:102AF000032004900020059001A9A020C005FEF746
:102B00000BFE022001900120029000200390032080
:102B100004900020059001A9A020C005FEF7FCFD4F
:102B200001220221A020C005FEF7EBFE012001904A
:102B30004448029002200390032004900020059056
:102B400001A9A020C005FEF7E7FD3F48006801216C
:102B500001433D4801603C4800680100C907C90FB6
:102B60000091009801203949486010203749886059
:102B700000203649C860802034490861002033496C
:102B8000486100203149886100203049C8618020B7
:102B900080012E4908622E482C4908602B4801F01C
:102BA000BDFB20680C3029490968886027482064EB
:102BB0002648846201202749486000202549886012
:102BC00000202449C8608020224908610020214952
:102BD000486100201F49886100201E49C86180208B
:102BE00080011C4908621C481A490860194801F014
:102BF00095FB20680C3017490968886015486064A7
:102C000014488462002201210A20FEF7FDFE0A20FA
:102C1000FEF7FFFE002201210A20FEF7F5FE0A2042
:102C2000FEF7F7FE002202210520FEF7EDFE06B0BA
:102C300010BD00BF003001402C1002403410024093
:102C40000004005000001110301002404C08002019
:102C500030000240880800201C00024080B50B486C
:102C6000006802218843094908600320FEF7F2FE4C
:102C700000F002F8002002BD704705480068401CC3
:102C8000034908607047024800687047002002400E
:102C90005809002000B593B010480068802149050C
:102CA00001430E4801600220059010200990012088
:102CB000089001200F9005A800F082FE0F200090E0
:102CC0000120019000200290002003900020049039
:102CD0000021684601F03EF913B000BD38100240F3
:102CE000F0B540B2002821D5474B40B20207120F81
:102CF000083A920804246243434C40B205072D0F62
:102D0000083DAD08042675436459FF258607B60FB4
:102D100008277E43B540AC438901C9B28007800FC4
:102D2000082568438140214399501AE0374A40B250
:102D3000830804246343D258FF238407A40F082583
:102D40006C43A3409A438901C9B283079B0F0824AF
:102D50006343994011432D4A40B2800804235843ED
:102D60001150F0BD30B587B004000D002848006850
:102D700004210143264801602548006804210840D9
:102D80000090009823480068012101432148016018
:102D9000EDB2002D13D12048E4B202216143405A24
:102DA000019000200290022003900320049001A9CA
:102DB0001A48E4B2042262438058FEF7ADFCEDB23B
:102DC000012D1ED11448E4B202216143405A019002
:102DD000002003901248029001A91048E4B2042296
:102DE00062438058FEF798FC03210E48E4B2005D70
:102DF00040B2FFF775FF0B48E4B2005D40B2FEF74A
:102E000008FE07B030BD00001CED00E000E400E06B
:102E10002C100240341002408E1E000800000020DA
:102E2000000011103F47000870B584B005000C0089
:102E300001A8009002AB9B1C02AA01A9891C02A850
:102E4000401CFDF73DFF0600F6B2002E18D1684683
:102E5000C08880B2000A28706846C08800022080BE
:102E6000208869468988C9B20909C9B209010143A4
:102E700021802088694689880907090F014321803C
:102E8000FDF7EDFD3000C0B204B070BD30B5A7B0A5
:102E90000D0011000024EDB22A00921C812A01DBF2
:102EA000422032E007AAE4B21055641C07A8E4B23D
:102EB0000555641CEDB22A0007A8E4B20019FFF71B
:102EC000DDFB64191822002101A8FFF7DEFB3F207B
:102ED000694688800C2001A9488007A80390E4B2C5
:102EE00004946846059001200690002101A8FDF792
:102EF0001DFE002801D5FF2007E068460078002865
:102F000002D06846007800E0002027B030BD00B550
:102F100089B06A46107101A841701822002102A8E8
:102F2000FFF7B3FB3F20694608810F2002A94880C4
:102F300001A80490022005906846069001200790A1
:102F4000002102A8FDF7F2FD002801D5FF2007E0CF
:102F500068460078002802D06846007800E000202B
:102F600009B000BD00B587B01822002101A8FFF705
:102F70008CFB3F2069468880FF20801C01A9488087
:102F80006846059001200690002101A8FDF7CEFDBE
:102F9000002801D5FF2001E06846007807B000BD99
:102FA000F0B58DB016001F00002407AAE4B210553A
:102FB000641CC0B2012801D1022500E01025EDB249
:102FC0002A0007A8E4B20019FFF758FB641907A804
:102FD000E4B20655641C07A8E4B20755641C03223A
:102FE00000216846FFF751FB1822002101A8FFF7D6
:102FF0004CFB3F20694688808120400001A9488021
:1030000007A80390E4B20494684605900320069054
:10301000002101A8FDF78AFD002801D5FF200FE05F
:1030200068460078002802D06846007808E06946C3
:1030300048788A781206120C1043129908800020F2
:103040000DB0F0BDF1B58EB00D0017001E000024CC
:103050006846008F6946088702220EA901A8E4B2DB
:103060000019FFF70BFBA41C01A8E4B20555641C72
:10307000EDB2012D01D1022500E01025EDB22A00AC
:10308000390001A8E4B20019FFF7F8FA641901A8A1
:10309000E4B20655641C149801A9E4B20855641CF6
:1030A000159801A9E4B20855641C169801A9E4B268
:1030B0000855641C179801A9E4B20855641C1898B7
:1030C00001A9E4B20855641C032200216846FFF7F9
:1030D000DCFA1822002108A8FFF7D7FA3F2069463A
:1030E00008848220400008A9488001A80A90E4B220
:1030F0000B9468460C9003200D90002108A8FDF762
:1031000015FD002801D5FF200FE068460078002853
:1031100002D06846007808E0694648788A78120646
:10312000120C10431999088000200FB0F0BD73B540
:10313000A8B015001E00002428A8008828A908802F
:10314000022228A907A8E4B20019FFF797FAA41CE5
:1031500029A8008829A90880022229A907A8E4B281
:103160000019FFF78BFAA41C07A8E4B20555641CEC
:10317000EDB2012D01D1022500E01025EDB22A00AB
:10318000310007A8E4B20019FFF778FA64192E9805
:1031900007A9E4B20855641C2F9D07A8E4B20555A1
:1031A000641CEDB2E4B22819401D812801DB4220E5
:1031B00052E0EDB22A00309907A8E4B20019FFF7F7
:1031C0005DFA6419319807A9E4B20855641C329875
:1031D00007A9E4B20855641C339807A9E4B208555E
:1031E000641C349807A9E4B20855641C359807A9F3
:1031F000E4B20855641C032200216846FFF745FA33
:103200001822002101A8FFF740FA3F206946888074
:10321000FF20801D01A9488007A80390E4B2049410
:103220006846059003200690002101A8FDF77EFC6A
:10323000002801D5FF200FE068460078002802D062
:103240006846007808E0694648788A781206120CC9
:1032500010433699088000202AB070BD73B5A8B01D
:1032600015001E000024F6B23000801D812801DB0D
:1032700042204CE028A8008828A90880022228A91A
:1032800007A8E4B20019FFF7F9F9A41C29A80088DF
:1032900029A90880022229A907A8E4B20019FFF78A
:1032A000EDF9A41C07A8E4B20555641C07A8E4B214
:1032B0000655641CF6B232002E9907A8E4B2001934
:1032C000FFF7DCF9A4191822002101A8FFF7DDF9A6
:1032D0003F20694688808320400001A9488007A8D4
:1032E0000390E4B204946846059001200690002102
:1032F00001A8FDF71BFC002801D5FF2007E0684668
:103300000078002802D06846007800E000202AB04B
:1033100070BD00B589B0694688801822002102A8D6
:10332000FFF7B3F93F2069460881FF20283002A942
:10333000488001A80490022005906846069001206C
:103340000790002102A8FDF7F1FB002801D5FF201E
:1033500001E06846007809B000BD10B58AB01C00D5
:103360006B461870684641706846827007220021DB
:1033700001A8FFF78AF91822002103A8FFF785F9B1
:103380003F20694688818A2003A9488068460590C5
:103390000320069001A8079007200890002103A8A9
:1033A000FDF7C4FB002801D5FF201EE06846007928
:1033B000002802D06846007917E001A948788A7889
:1033C0001206120C1043208001A9C8780A7912064F
:1033D000120C10430C99088001A948798A791206C9
:1033E000120C10430D99088000200AB010BD70B572
:1033F0008AB00D0014001E006946087207220021E1
:103400006846FFF742F91822002103A8FFF73DF9AB
:103410003F20694688818A2003A9488002A8059038
:10342000012006906846079007200890002103A815
:10343000FDF77CFB002801D5FF201CE068460078E2
:10344000002802D06846007815E0694648788A78F6
:103450001206120C104328806946C8780A791206B1
:10346000120C10432080694648798A791206120CA2
:103470001043308000200AB070BDF6B591B01F0037
:103480000024199E1B9DF6B2EDB271190E31292947
:1034900001D3422079E007A9E4B20855641C11A8C1
:1034A000008811A90880022211A907A8E4B2001916
:1034B000FFF7E4F8A41C12A8008812A908800222D1
:1034C00012A907A8E4B20019FFF7D8F8A41C07A8AE
:1034D000E4B20755641C189807A9E4B20855641CA7
:1034E00007A8E4B20655641CF6B232001A9907A880
:1034F000E4B20019FFF7C2F8A41907A8E4B2055511
:10350000641CEDB22A001C9907A8E4B20019FFF769
:10351000B5F864191DA800881DA9088002221DA9FC
:1035200007A8E4B20019FFF7A9F8A41C1EA8008898
:103530001EA9088002221EA907A8E4B20019FFF7FD
:103540009DF8A41C1822002101A8FFF79EF83F2037
:1035500069468880832001A9488007A80390E4B2C7
:1035600004946846059001200690002101A8FDF70B
:10357000DDFA002801D5FF2007E068460078002822
:1035800002D06846007800E0002013B0F0BD30B5EE
:103590008FB00D0011001C006A46107707A8457017
:1035A000102207A8801CFFF769F807A884741298F6
:1035B00007A9C874139807A9087507A915311498A5
:1035C00000F070FF159807A948761822002101A87D
:1035D000FFF75BF83F2069468880862001A9488074
:1035E00007A803901A2004906846059001200690D1
:1035F000002101A8FDF79AFA002801D5FF2007E075
:1036000068460078002802D06846007800E0002074
:103610000FB030BD010000E0491C0A78002AFBD140
:10362000081A704700B52021415C012901D1022010
:103630001BE0012120228154022121228154CA2130
:103640000268516253210268516201688968202230
:103650000A4301688A60FF21026851620121212228
:103660008154002120300170002000BD10B50400FD
:10367000002C01D1012054E02120205C002805D13C
:103680000020202160542000FFF77FF90220212133
:103690006054CA2021684862532021684862200093
:1036A00000F042F8002807D0FF202168486204207B
:1036B00021342070012034E02068806819490140DD
:1036C0002068816020688068616822690A43A16976
:1036D0001143014320688160E06821680861206827
:1036E0000069A16809040143206801612068C0687D
:1036F000802188432168C8602068C06C032188430A
:103700002168C8642068C06CE16962690A430243A9
:103710002068C264FF2021684862012021342070A3
:10372000002010BDBFFF8FFF38B5040000252068C2
:10373000C068400612D40020C0432168C860FFF76B
:10374000A2FA05002068C068400607D4FFF79BFA7C
:10375000401B04498842F5D3032000E0002032BD1D
:1037600000000000E90300000268926807239A4302
:1037700011430A00006882607047FEE7F8B52F4EDB
:10378000300000F099FE0090301D00F095FE04001E
:103790003000083000F090FE05000C36300000F0DC
:1037A0008BFE2749274A009B1B78002B36D12368C4
:1037B00053435B18236053435B18236053435B18E8
:1037C000236053435B18236053435B1823605343C8
:1037D0005B18236053435B18236053435B182360DB
:1037E00003000826276857437F1827601F60276853
:1037F00057437F1827605F60276857437F1827600B
:103800009F60276857437F182760DF601033761E5C
:10381000E8D1C36F2B600123009E337023685343AC
:10382000591821602978C906490E40180168296095
:1038300021680160286880008008F2BD0400002033
:103840005FF36E3C0D66190030B4434351435D187D
:10385000010C0C00130C5C432D1980B2434392B24F
:1038600051430024C918644124040B04090C0919AC
:103870005043C018694130BC7047124224D099426D
:1038800028D970B500251B4202D00C00002109E0A8
:103890000024012649186441944200D3A41A7641B9
:1038A000F8D33100012601E0764109D200186441C5
:1038B0006D41A41A9D41F7D2A4185D41B619F5D304
:1038C000300022002B0070BD1B42D8D108B500F09B
:1038D000F5FD08BD01D19042D3D202000B000021BA
:1038E00000207047124207D08B0706D00B78491C86
:1038F0000370401C521EF7D87047830706D00B7820
:10390000491C0370401C521EF9D1704770B4103A24
:1039100003D378C9103A78C0FBD2530701D318C932
:1039200018C001D508C908C0D20704D30B8803808A
:10393000891C801C002A01D50B78037070BC70476D
:103940001206130A1A43130C1A4300BF094205D08A
:10395000830705D00270401C491EF9D17047000052
:10396000130030B414001500103902D310393CC0D4
:10397000FCD2490700D30CC000D504C0890002D393
:103980000280801C002900D5027030BC7047000006
:10399000704780B5FFF777F902BDFEE7074800687A
:1039A0008021C90001430548016070470348006851
:1039B0008021890001430148016070470070004088
:1039C000F8B5040000262078C00771D5A648006825
:1039D0000C210140082909D0A34800680C210140AE
:1039E0000C290CD1A0480068C00308D59F48006886
:1039F00080035DD5606800285AD1012094E2606898
:103A000080214902884207D19848006880214902F4
:103A10000143964801602CE06068A021C9028842F9
:103A200014D192480068BC490140904801608F4819
:103A300000688021C90201438C4801608B480068FE
:103A40008021490201438948016012E087480068EB
:103A5000B1490140854801608448006880214902DD
:103A600008400090009881480068AC4901407F48B8
:103A70000160606800280DD0FFF705F906007B485B
:103A80000068800314D4FFF7FEF8801B6528F6D386
:103A9000032049E2FFF7F7F8060074480068800346
:103AA00006D5FFF7F0F8801B6528F6D303203BE22C
:103AB0002078800721D56C4800680C21014004293A
:103AC00009D0694800680C2101400C2927D16648BB
:103AD0000068C00323D465480068400704D5E06847
:103AE000012801D001201FE2BF480068BF49014002
:103AF000206900020843BC4908602078C0065BD5F5
:103B0000594800680C21014000296FD157480068CE
:103B100080053DD5E06900283AD1012004E2E06843
:103B200000281FD05148006809218843E1680143FB
:103B30004E480160FFF7A7F806004C4800684007B0
:103B400006D4FFF7A0F8801B0328F6D30320EBE18F
:103B5000A5480068A5490140206900020843A24920
:103B60000860CAE74148006809218843E1680143C9
:103B70003E480160FFF787F806003C4800684007B0
:103B8000BBD5FFF780F8801B0328F6D30320CBE1D9
:103B900095480068AD490140606A08439249086051
:103BA000914800680002000A216A090601438E4814
:103BB00001600320FDF74EFF207800076CD5606997
:103BC000002855D0A248006801210143A0480160A7
:103BD000FFF759F806009E48006880075CD4FFF79D
:103BE00052F8801B0328F6D303209DE1E0690028EA
:103BF00026D01E4800688021490001431B4801600F
:103C0000FFF741F8060019480068800506D4FFF761
:103C10003AF8801B0328F6D3032085E17248006838
:103C20008A490140606A08436F4908606E4800682D
:103C30000002000A216A090601436B480160BBE7E4
:103C40000A480068B949014008480160FFF71BF8BD
:103C50000600064800688005AED5FFF714F8801B03
:103C60000328F6D303205FE10C100240001002404D
:103C7000774800680121884375490860FFF703F819
:103C8000060073480068800706D5FEF7FCFF801B1E
:103C90000328F6D3032047E12078800640D5A069A9
:103CA00000281FD0A248006801210143A0480160FC
:103CB000A0480068012101439E4801609E480068B9
:103CC0009E4901439C480160FEF7DDFF06009848CD
:103CD0000068800724D4FEF7D6FF801B0328F6D3A4
:103CE000032021E19248006801218843904908603F
:103CF00091480068924901408F480160FEF7C3FF78
:103D000006008B48006880070AD5FEF7BCFF801BC1
:103D10000328F6D3032007E1FFFFFEFFFFFFFBFFB1
:103D20002078400700D4A7E00027002585480068D8
:103D3000C00007D4834800688021490501438148B9
:103D40000160012780480068C00515D47E480068DE
:103D50008021490001437C4801600125FEF793FF63
:103D6000060079480068C00506D4FEF78CFF801B6A
:103D70006528F6D30320D7E0A06880214900884257
:103D800007D1334800688021490001433048016071
:103D90003AE0A06800280CD12D4800686349014032
:103DA0002B4801602A4800686849014028480160A2
:103DB0002AE0A068A021C900884219D124480068DF
:103DC0005A49014022480160214800688021C90009
:103DD00001431F4801601E480068802149000143DB
:103DE0001B48016010E000BF04100240FFE0FFFF2D
:103DF000174800684D4901401548016014480068A3
:103E00005249014012480160A06800280ED0FEF718
:103E10003AFF06000E48006880051BD4FEF733FF0A
:103E2000801B4B498842F5D303207DE0FEF72BFF32
:103E300006000748006880050CD5FEF724FF801BAC
:103E400043498842F5D303206EE000BFFF1FFFFF08
:103E500050100240EDB2012D05D13B4800683349B6
:103E6000014039480160FFB2012F05D13548006893
:103E70009D49014033480160A06A002853D09B4807
:103E800000680C2101400C294BD0A06A022834D1D3
:103E9000984800689649014096480160FEF7F3FE95
:103EA000060094480068800106D5FEF7ECFE801BF2
:103EB0000328F6D3032037E08C4800688E49014080
:103EC000206B0843616B0143E06A0843874908603F
:103ED0008848006880214904014386480160FEF754
:103EE000D2FE06008348006880011CD4FEF7CBFE9A
:103EF000801B0328F6D3032016E07E4800687C4927
:103F000001407C480160FEF7BEFE0600794800686B
:103F1000800108D5FEF7B7FE801B0328F6D30320E7
:103F200002E0012000E00020F2BD0000FFFEFFFFE4
:103F3000081002403410024020000140012000001F
:103F4000FEDFFFFF3810024000700040FFFBFFFF64
:103F50008913000070B505000C0000266748006852
:103F60000100C907C90FA1420FD2644800680121AE
:103F70008843204361490860604800680100C90720
:103F8000C90FA14201D00120ACE02878800707D5F5
:103F900056480068F0218843A968014353480160EE
:103FA0002878C0076CD56868022805D15148006898
:103FB000800319D4012095E06868002805D14D4898
:103FC0000068800510D401208CE06868032805D1C2
:103FD00048480068800107D4012083E04548006814
:103FE000400701D401207DE0404800680321884358
:103FF000696801433D480160FEF745FE06006868B8
:1040000002280DD1394800680C210140082937D019
:10401000FEF739FE801B3A498842F3D3032061E062
:10402000686803280DD1314800680C2101400C2933
:1040300026D0FEF728FE801B31498842F3D30320A7
:1040400050E0686800280DD1284800680C21014024
:10405000002915D0FEF717FE801B29498842F3D3AB
:1040600003203FE0214800680C210140042907D0CB
:10407000FEF709FE801B22498842F3D3032031E07A
:104080001E4800680100C907C90FA1420FD31B4891
:1040900000680121884320431849086017480068D8
:1040A0000100C907C90FA14201D001201AE02878F8
:1040B000400707D50D48006812490140E8680843E9
:1040C0000A4908602878000708D5084800680E49A2
:1040D00001402869C0000843044908600320FDF737
:1040E000B9FC002070BD0000FFFFFFEF0C10024084
:1040F000FFFFFFFE00100240FFFF02FF0020024012
:1041000089130000FFF8FFFFFFC7FFFF38B5040069
:10411000002500202068822109010140002900D1EA
:104120009EE071480068C021890301406069C02297
:104130009203024091420AD16B480068C021890372
:104140000140A069C0229203024091420DD06069F3
:10415000C02189020140C0208002814205D162480D
:104160000068800301D50120BDE06048006880211F
:10417000490501435D4801605D48006880214900B0
:1041800001435B480160FEF77EFD0500584800686A
:10419000C00506D4FEF777FD401B6528F6D3032043
:1041A000A1E054480068C021890201406069C02232
:1041B0009202024091420AD14E480068C021890211
:1041C0000140A069C02292020240914248D0494871
:1041D00001684948084047490968802212030A4398
:1041E00044490A6043490968444A0A4041490A600F
:1041F0004049086080050ED5FEF745FD05003D48A5
:104200000068800507D4FEF73EFD401B3C4988420C
:10421000F5D3032067E06069C02189020140C02016
:10422000800281420BD13048006836490140626902
:10423000C0208003104008432B49086005E02A484D
:10424000016830480840284908602A4800682A491F
:1042500001406069C022920202400A432548026080
:104260002078C00707D52848006803218843616883
:104270000143254801602078800707D5224800685F
:104280000C218843A16801431F4801602078400742
:1042900007D51D4800681D490140E06808431A49D8
:1042A00008602078000707D51748006818490140C2
:1042B00020690843144908602078400607D5124851
:1042C000006814490140E06908430F4908602078FC
:1042D000000607D50C4800680F490140206A0843D2
:1042E00009490860002032BD001002403810024029
:1042F0000070004050100240FFFFFCFFFFFFF7FF7F
:1043000089130000FFFFCFFF4C100240FFF3FFFFB7
:10431000FFCFFFFFFFFFFFFBFFFFF3FF00B5002212
:10432000002801D101209FE02521415C002902D114
:1043300000212422815402212522815401680A6827
:1043400011004A4A0A4011008268C3681343026997
:104350001A434369134382691A43C3691343026AC8
:104360001A430A4301680A600168414A91420CD12C
:10437000404909680F2291433E4A11603D4909684E
:1043800042680A433B490A606AE001683A4A91423E
:104390000DD138490968F0229143364A11603549F8
:1043A0000968426812010A4332490A6058E001680C
:1043B000324A91420DD12F490968314A0A402D49AC
:1043C0000A602C490968426812020A4329490A60B6
:1043D00046E001682B4A91420DD1264909682A4AD4
:1043E0000A4024490A6023490968426812030A43C3
:1043F00020490A6034E00168244A91420DD11D49E8
:104400000968234A0A401B490A601A490968426838
:1044100012040A4317490A6022E001681D4A9142CA
:104420000DD1144909681C4A0A4012490A60114911
:104430000968426812050A430E490A6010E00168E3
:10444000164A91420CD10B490968154A0A4009499C
:104450000A6008490968426812060A4305490A6069
:10446000012125300170002000BD00000FC0FFFFBA
:1044700008000240A80002401C0002403000024038
:10448000FFF0FFFF44000240FF0FFFFF5800024013
:10449000FFFFF0FF6C000240FFFF0FFF80000240B3
:1044A000FFFFFFF084460870000A4870000A887019
:1044B000000AC870604670477047FEE77047FEE725
:1044C000704700B5FEE77047704780B5FEF7D5FB33
:1044D0001B480068401C1A49086001BD80B5FCF704
:1044E00005FF01BD80B50120FDF715FA01BD80B5BE
:1044F0000120144908600120FEF79BF8802080010C
:10450000FDF709FA01BD80B50F48406C00680068EE
:10451000800706D50D480068800602D5FBF721FF0D
:104520000BE00948006C00680068800705D5074863
:104530000068800501D5FBF7CFFF01BD000000003A
:104540005C09002060090020F40700200000024000
:10455000164800688021490001431448016014484E
:10456000006814490140124801601048006812496F
:1045700001400E48016011480068012188430F493D
:1045800008600A4800680E49014008480160084870
:1045900000680C4901400648016000200A49086093
:1045A00080200005094908607047000000100240A3
:1045B0000C1002400C40FF88F6FFF6FE0810024087
:1045C000FFFFFBFFFFFF02FF1010024008ED00E0BD
:1045D00070B40121002313E00468001D0C4202D0D6
:1045E0004D466D1E64192360241D121F042AFAD241
:1045F0002500960701D52380AD1C0A4000D02B7002
:104600000268001D002AE7D170BC704730B5016810
:104610004118446862088A188368E40701D54C464B
:104620001B190C30914200D130BD0C7864B2491C8A
:104630000D78491C1D705B1C002C02D5641CF9D13F
:10464000F0E7641EF4D5EDE710B507497944183159
:10465000064C7C44163404E0081D0A688918884713
:104660000100A142F8D110BD0800000024000000A4
:1046700061FFFFFF0C05000098040020000000000F
:104680008DFFFFFFBC0000001E00000000000020A6
:1046900000F00BF8002801D0FFF7D6FF0020C0463D
:1046A000C046FDF7D9F900F002F80120704780B547
:1046B00000F002F801BDFEE70746384600F002F8B8
:1046C000FBE7FEE780B5C046C046024A110018204D
:1046D000ABBEFBE7260002000148804701480047C7
:1046E00051450008E9460008C046C046C046C046DD
:1046F000FFF7CEFF426C75654E524700123400E161
:104700008003000009426C75654E52470A000000A4
:10471000000000000B00000000000000E8030000A3
:10472000FEE7FEE7FEE7FEE7FEE7FEE7FEE7FEE761
:10473000FEE7FEE7FEE7FEE7FEE7FEE7FEE7FF0730
:0F4740000300080050FC0000018100F800000198
:00000001FF
