:020000040800F2
:10000000F0050020A1580008555400085754000876
:10001000C1580008C5580008C95800080000000071
:10002000000000000000000000000000595400081B
:100030005B540008000000005D5400085F54000895
:10004000CD580008D1580008D55800086F54000852
:10005000D9580008DD58000873540008E15800081A
:10006000E5580008E9580008ED580008F158000864
:100070008D540008B1540008F5580008F9580008DC
:10008000FD580008015900080559000809590008E1
:100090000D59000811590008155900081959000890
:1000A0001D59000821590008255900082959000840
:1000B0002D590008315900083559000839590008F0
:1000C0003D590008415900084559000849590008A0
:1000D0004D59000851590008555900085959000850
:1000E000795400085D5900086159000865590008F5
:1000F000695900086D5900087159000875590008C0
:10010000795900087D59000881590008855900086F
:10011000895900088D59000891590008955900081F
:10012000995900089D590008A1590008A5590008CF
:10013000A9590008AD590008B1590008B55900087F
:10014000B9590008BD590008C1590008C55900082F
:10015000C9590008CD590008D1590008D5590008DF
:10016000D9590008DD590008E1590008E55900088F
:10017000E9590008ED590008F15900080000000095
:10018000F5590008F95900082DE9F04F80460FF2A3
:10019000A47095B015461E46D0E90023CDE913237F
:1001A00003AF00200391B8610DF1340900E0651937
:1001B0000020ADF8020013AB4FF0FF3229460DF1DD
:1001C000020000F0C3FB0446012C04DA2878441E28
:1001D000A441E443E40FBDF8020025280CBFA4F1BC
:1001E000010BA346BBF1010F0EDBAA461AF8011B57
:1001F0000398C0470028039000F0DA80B869401CDB
:10020000BBF1010BB861F1D1BDF80200252804D182
:100210000020F8603861786105E00028C7D1B8692E
:1002200006E340F0010015F8011F2029F9D0232929
:100230000DD02B2904D02D2906D030290AD00CE06E
:1002400040F0020080B2EEE740F00400FAE740F030
:100250000800F7E740F01000F4E72A290ED13168D2
:10026000316051F8042B3160002A3A6204D55142C2
:1002700040F00400396280B26D1C13E00021396245
:100280000BE0396A6FF00043994205D001EB81031E
:1002900002EB4301303939626D1C2A78A2F130013A
:1002A0000A29EED329782E2903D04FF0FF31F961C6
:1002B0001FE015F8011F2A2907D1316831606D1C34
:1002C00051F8042B3160FA6113E00021F9610BE071
:1002D000F9696FF00043994205D001EB810302EB0D
:1002E00043013039F9616D1C2A78A2F130010A29E5
:1002F000EED3B8840FF24460297800F037FB08B1E0
:1003000015F8010B8DF832009DF83200682804BF03
:100310002878682803D162208DF832006D1C0DA862
:10032000B86015F8014B252C13D0582C4BD0632CFA
:1003300000F0A380642C18BF692C7CD06F2C42D0B5
:10034000702C36D0732C0AD0752C18BF782C3AD06C
:10035000B6E00120F86025208DF83400BAE09DF861
:1003600032006C283068306018D050F8044B306090
:100370007C60D7F81CA0BAF1000F04D5204600F02D
:1003800001FB824607E052460021204600F016FBA2
:1003900008B1A0EB040AC7F810A09BE050F8042BAA
:1003A000306002A9404600F02DF9002840F192800B
:1003B0003CE23068306050F8041B306002910DA8B8
:1003C0007860782155E09DF832006C280DD07128B6
:1003D00018BF6A2809D13068C01D20F007023260BA
:1003E000D2E900010832326004E03168316051F82E
:1003F000040B316002909DF83200682802D102A8F7
:10040000008803E0622802D102A80078029097F8E1
:100410002400000728D5029830B344F02000782843
:1004200022D1F868302100F80910401C411CF96005
:1004300000F8094018E09DF83200314600F0BCF8A1
:100440000028029002D5F8682D2109E0B88C8107B8
:1004500002D5F8682B2103E0C00705D5F8682021F4
:1004600000F80910401CF8600DA8F96808187860B9
:10047000214602A800F0DFF92CE09DF832006C283C
:1004800009D00120F8603068306050F8041B3060FB
:100490008DF834101EE03068306001AA50F8041B5B
:1004A0003060ADF804100020ADF8060002A94FF04E
:1004B000FF30F861404600F0A5F800280AD577E73C
:1004C0000120F86025208DF834001CB10220F8606E
:1004D00089F80140386AF968401A7969401A39691F
:1004E000441A97F82400400711D42020012C8DF8DD
:1004F00000000CDBA24601236A4602A9404600F038
:1005000001FA00287FF454AFBAF1010AF3D1D7F809
:100510000CB0BBF1000F0DF1340A0DD01AF8011B1D
:100520000398C047002803903FF442AFB869401CCD
:10053000BBF1010BB861F1D1D7F814A03020BAF1AA
:10054000010F8DF800000BDB01236A4602A940462B
:1005500000F0D8F900287FF42BAFBAF1010AF3D1EB
:10056000D7F810B0D7F804A0BBF1000F0DD01AF8DF
:10057000011B0398C047002803903FF419AFB869E6
:10058000401CBBF1010BB861F1D197F82400400782
:100590007FF50EAE2020012C8DF80000FFF608AE8E
:1005A00001236A4602A9404600F0ACF900287FF416
:1005B000FFAE641EF4D1FBE5622815D068280CD08C
:1005C0006C2818BF742816D07A2814D10A680A60DB
:1005D00052F8040B0A60002170470A680A6052F85A
:1005E000040B0A6000B20BE00A680A6052F8040BC0
:1005F0000A6040B204E00A680A6052F8040B0A601C
:10060000C11770472DE9F44F0D4694B02F6A002FA3
:10061000804648BF6FF0004700F0FCF9696A401857
:1006200001900FF22030D0E90023CDE9022395F8A4
:100630002800400702D40198412805D240200DF13E
:1006400010090190002606E000F0EAF95FEA0009CF
:10065000F8D1EBE03F1B012FC0F294801498018881
:1006600002AA0DF1010000F033FA0028044600F15F
:100670009C801498008810B9641E00F19680A742EF
:10068000C0F28080286901992218914268D26E6276
:100690004042A969401A6969461A95F8280040073E
:1006A00010D42020012E8DF800000BDBB246012370
:1006B0006A462946404600F025F9002875D1BAF16E
:1006C000010AF4D1D5F810B0BBF1000FCA460CD026
:1006D0001AF8011B6868C0470028686065D0E8699F
:1006E000401CBBF1010BE861F2D130208DF8000015
:1006F000D5F818A0BAF1010F0ADB01236A46294692
:10070000404600F0FFF800284FD1BAF1010AF4D1B9
:10071000D5F814B0D5F808A0BBF1000F0CD01AF82A
:10072000011B6868C047002868603ED0E869401C2B
:10073000BBF1010BE861F2D195F8280040070DD517
:100740002020012E8DF8000008DB01236A4629468F
:10075000404600F0D7F840BB761EF6D100262E6149
:10076000224628690DF10101484400F0BFF92869CB
:10077000201828611498801C1490801E008800287E
:100780007FF468AF686A2969401AA969401A6969E3
:10079000471A95F8280040070FD4012F0DDB3C467F
:1007A00068682021C047686010B94FF0FF3635E017
:1007B000E869401C641EE861F2D12B694A4629466B
:1007C000404600F09FF80028EFD1AC69012C0ADB0D
:1007D00068683021C04700286860E6D0E869401C9E
:1007E000641EE861F4D16B69AA682946404600F0AE
:1007F00089F80028D9D195F8280040070CD5012F99
:100800000ADB68682021C04700286860CDD0E8690D
:10081000401C7F1EE861F4D12E616E6204A8814500
:100820001CBF484600F09EF9304601E04FF0FF3013
:1008300015B0BDE8F08FF0B4C2686F2908BF082476
:1008400005D041F02003782B14BF0A24102418236C
:100850000668642918BF6929374602D1002E48BFAF
:100860007F425FB9056A4DB9082C27D190F828104E
:10087000090723D530211723D1751FE0B7FBF4F604
:1008800004FB16773037FFB25D1E3A2FA4BFA1F1EB
:10089000510C6744AF542B46370003D085689E182F
:1008A000B542EBD3082C09D190F82810090705D5DB
:1008B000995C302902D05B1E302199549A188260CD
:1008C000C3F11801026A4161914208DA511A81614B
:1008D0004FF6EF72018D11400185F0BC7047002A80
:1008E0000ED590F8282002F01402102A08D1426A8E
:1008F0000369D21A8369D21A531A012BA8BF8361E4
:10090000F0BC7047F8B504460D4616461F46002059
:1009100077B116F8011B6868A047686030B1E869D4
:10092000401CE86100207F1EF3D1F2BD4FF0FF3084
:10093000F2BD00000000000000000000686C747A46
:100940004C0000000000000000000000F8B5044664
:100950000D4616461F4600F045F93B4632462946ED
:10096000204601B0BDE8F04000F053B90278C9B2AA
:100970008A421AB11CBF10F8012FF9E718BF0020F6
:100980007047000000F10103810704D010F8011B3B
:1009900089B18107FAD10268B2F10131914311F0B6
:1009A000803F04BF50F8042FF6E710F8011B11B187
:1009B00010F8011BFBE7C01A70470000C9B283079B
:1009C00006D0521E22D310F8013B9942F7D11FE006
:1009D000083A13D302F1040241EA012141EA01413C
:1009E00050F8043B121F21BF4B40A3F1013C2CEAFD
:1009F000030C1CF0803FF3D0C9B2001F083210F87E
:100A0000013B521E28BF91EA030FF8D818BF0120FE
:100A1000401E704780B500F0E5F8012002BD0000DF
:100A200070B5054605F10F00C408C046C046E40095
:100A3000A54232D2082C04D2082402E0083000F08B
:100A400091F82248026811000CD1011D0A6802B316
:100A50001368A34238BF111DF8D310E01D68A542EA
:100A60000DD2191D0B68002BF8D11268011D00E092
:100A7000191D0B6893420CD01D68A542F8D361B1D3
:100A80000D682A68A2F10803A3420AD26A680A60C4
:100A90000FE000F0E1F80028D0D1C046C0460020A9
:100AA00070BD63190B60121B6E685E600B681A6084
:100AB0002C60096800291DBF4A68002A091D002111
:100AC0000160C046C04605F1080070BD4C0F002013
:100AD00070B504460D46164600F084F832462946A5
:100AE0002046BDE8704000F087B8000062B38B0775
:100AF00008D0521E11F8013B00F8013B00F02480A1
:100B00008B07F6D1830740F0208000BF103A07D34F
:100B100030B4B1E83810103AA0E83810F9D230BC3F
:100B2000530724BFB1E80810A0E8081044BF51F8EB
:100B3000043B40F8043BD20724BF31F8022B20F8D5
:100B4000022B44BF0B7803707047083A07D3B1E813
:100B50000810083A40F8043B40F804CBF7D253079A
:100B6000E4E7000000B9704738B5A0F10804206838
:100B7000082833D310F0070F30D1C046C0461848BC
:100B8000416809B18C4203D26160446017E01946A4
:100B90004B680BB1A342FAD30B685D18AC421BD370
:100BA000A54204D12268D2180A600C4607E04A68C0
:100BB0001AB123681B199A420ED362604C606168B7
:100BC00051B1226813198B4206D1002303600868D3
:100BD0008018206048686060C046C04631BD000093
:100BE0004C0F002080B5DFF80C0000F04BF8806956
:100BF00002BD00008001002030B430B90FF248007F
:100C0000D0E90045C2E900451BE00170012030BC7D
:100C1000704730B431B90FF23800D0E90045C3E96C
:100C200000450EE01AB930BC6FF00100704708B102
:100C30000A7802800978481E804130BCC043C00F4A
:100C40007047002030BC704700000000000000002A
:100C500000000000000000000749086808B10020FB
:100C600070470648C008C00008600549C908C900A7
:100C7000091A0160704700BF680F0020F7050020C7
:100C8000F007002070470000DFF8B8160128487010
:100C900000D0704780B500F02CFC01BD2DE9F0417B
:100CA000DFF8A046064620780F4608B146202AE025
:100CB0000EB1380001D1F12025E0DFF88C869022BA
:100CC0000021404600F092FCDFF8805628220021E7
:100CD000284600F08BFC20223146404600F080FC84
:100CE000AF60284600F08CFC08F12800012101705B
:100CF0000221417000F0CCFC1020A8731120E87391
:100D0000012020700020BDE8F08130B585B000F0F2
:100D1000DDFC050060D10DF1120104A800F01CFB00
:100D20009DF81010DFF82046DFF82406312902DB99
:100D30000121017002E0007801280DD104F12400A6
:100D4000019004F1200304F1220000900722002109
:100D5000012000F00FFE08E004F1240304F1220258
:100D600004F12001012000F035FE050034D1207887
:100D700000F0E3FE05002FD1A078637DE1780390B9
:100D8000221DA0690290207D0190A07D00906078D6
:100D900000F0E6FE05001FD1A07818B100F093FF27
:100DA000050019D1DFF8A405018A99B10A218DF84F
:100DB0000410123018218DF805100090092301222B
:100DC00001A9012000F09DFC050005D100F0F8F913
:100DD000050001D1002004E00FF2C85000F0D8FF58
:100DE000284605B030BD38B5DFF85845207808B939
:100DF000012032BD00F069FC607801283BD1DFF8AA
:100E00004C55DFF84405A97B102906D020290FD0C6
:100E1000402916D0502922D02AE0FFF776FF00287B
:100E200007BF2020FF2110201F21E973A87322E0B3
:100E3000687B297B88421BD13020A8733120E8735E
:100E400019E0E97B402913D142788178C08C00F009
:100E500003FF10B15020A8730AE0422007E0E97BAD
:100E6000562905D1C08C00F002FD08B95720E8735F
:100E70000020FFF709FF607832BDDFF8D004807BE7
:100E80007047DFF8C804C07B704738B500F053FAEC
:100E900001E00098694600F0F2FB0098A84204D0F7
:100EA000007AA042F5D1002032BD412032BD10B5FC
:100EB00004001CBFE068002801D1F12010BD2046CD
:100EC00000F029FA38B1DFF88404817B102902D1BF
:100ED000C17B1F2901D1412010BD018A628A1143C3
:100EE0000182017B491C0173214600F09FFB002019
:100EF00010BD10B5040001D1F12010BD00F00BFAB7
:100F000008B1412010BD204600F09AFBDFF83C04F8
:100F1000017B491E0173002010BD10B5044600F08E
:100F2000FAF9002804BF207C002801D0412010BD20
:100F3000DFF81804417B491C417301202074FFF73E
:100F4000A3FE002010BD38B5DFF800540C46A97B85
:100F5000302903D100F0DFF900B9EC7331BD10B5D1
:100F6000DFF8E843A07B502818BF40280AD1DFF8FB
:100F7000D803C08C132100F0BCFE18B95520E073D3
:100F8000002010BD412010BD10B5DFF8C043A27B8A
:100F900001464120402A12BF502AE27B442A09D14F
:100FA000DFF8A403C08C00F00BFE00280CBF472123
:100FB0004021E17310BDDFF8901391F828205318F9
:100FC000521C83F82900D2B25318000A83F8290072
:100FD000501C81F8280070472DE9FC474FF00009AC
:100FE0008DF80490002480460120FFF74DFE98F80C
:100FF0000000042808F1010740F0E0803978DFF8AC
:101000004803DFF84863DFF84CA3052904D03E29E4
:1010100016D0FF2943D0B1E0B27BB91C402A11BFE2
:10102000502AB1F80120C08C8242F4D1087818B956
:101030003020B0733120F0730124087805252BE0AF
:10104000B91C0A78012A02BF4F1CB17B3029E2D1BA
:101050003978D1B9B7F80110C184007F012802D1D5
:101060004020402105E0022807BF402039215020C0
:101070005121B073F173062238798AF80000791D86
:101080000AF1010000F0ACFA03E03020B073312027
:10109000F0730124387802258DF804006EE0B91C45
:1010A0000A88521E10D04FF48063D21A1BD0521EF1
:1010B00036D0521E41D0521E44D040F2FE73D21A96
:1010C0004CD00E3A4DD059E0881C0178012901BF5F
:1010D000B17B10291221F1730078401E01248DF894
:1010E000040001254AE0B27B891C402A18BF502A1F
:1010F00044D18A7852B1007F012802D14020402299
:1011000006E0022802D14020392201E0502051227D
:10111000B073F273012488788DF8040004252DE063
:10112000B27B402A18BF502A28D14420F0730022F5
:10113000B36800210320984720E0C08C012100F013
:1011400055FD1BE0B17B402904BFF17B422915D13D
:10115000407800280CBF472043200EE0FFF7FFFE39
:101160000CE0B07BBAF80890502801BFF07B5728FC
:1011700040F20B10814501D15120F0730020B8F1ED
:10118000000F00900ED06946304606E0C1680800A6
:101190001CBF404688470098694600F070FA0098E6
:1011A000B042F3D124B1B36801AA0121E8B2984753
:1011B000B9F1000F1CBF0020AAF80800BDE8F387B2
:1011C00070B5624C88B0207CC00706AD0CD52320DA
:1011D0008DF8180008232A20687006AA04F114006C
:1011E00000F07DF806006CD1207C800708D5242013
:1011F00000F06EF804F1160000F07FF8060060D1F0
:10120000207C400708D5252000F062F804F1180082
:1012100000F073F8060054D1207C000708D5262082
:1012200000F056F804F11A0000F067F8060048D103
:10123000207CC00608D5272000F04AF804F11C00E5
:1012400000F05BF806003CD1207C800608D5282001
:1012500000F03EF804F11E0000F04FF8060030D117
:10126000207C400608D5292000F032F804F1200047
:1012700000F043F8060024D1207C00060FD52A2078
:101280008DF818006870202304F12200059006AA4A
:1012900001200490012100F026F8060011D1208AD7
:1012A000C0050CD550208DF8180007232A2068703F
:1012B00006AA04F1240000F012F8060001D1002073
:1012C00004E00FF2081000F063FD304608B070BD76
:1012D0008DF8180020232A20687006AA7047059010
:1012E0000121002004900A20039000200290019028
:1012F00002200090608A00F039BA05900121012097
:1013000004900A2003900020029001900220009097
:10131000608A00F02BBA38B500F00DF800E069469D
:1013200000F0ADF90098A84203D0A042F7D1002008
:1013300032BD412032BD0446002000906946034D75
:10134000284670474A0F00206C0B0020980E0020A2
:101350006F0F0020400F00203EB5054601A8009009
:101360000C460DF10A0302AA0DF106010DF1090068
:1013700000F097FEC0B2A0B9BDF80610090A2970A6
:10138000BDF8061009022180BDF804201206120FD4
:1013900041EA02112180BDF8042002F00F0211433E
:1013A00021803EBD4572726F72207768696C65203E
:1013B000696E697469616C697A696E67206D6169CB
:1013C0006E2070726F66696C652E0A005B4449532B
:1013D0005D204572726F72207768696C6520616468
:1013E00064696E67206368617261637465726973B2
:1013F000746963732E0A00000020704770B582B0D4
:1014000000F09CFE00F0B0FE00F012FF6F4C2022B6
:101410000021201D00F0EAF86D4D6E4EE86B40F0A3
:101420000100E863286840F080502860286800F0D8
:1014300080500090009800F0FDFF00F0FBFFA86BCB
:1014400020F4407040F40070A863A86B40F40040A2
:10145000A86361483060002086F82000012086F8EB
:101460002100304601F030F80120B06047F6FF70EF
:10147000F060304601F040F83168CA2048625320DD
:10148000316848620321304601F0A6F8E86BC0F3EA
:1014900040000028FAD0304601F0E5F9002301228F
:1014A00004F12001002001F039FA0621022001F0A8
:1014B000AFFA01F04FFB01F086FE01F025FEE06877
:1014C000804700F018F8FCE772B640494A6A0123E9
:1014D00003FA00F0104307E072B63C494A6A012360
:1014E00003FA00F022EA0000486262B6704700206A
:1014F000EAE70120E8E710B5344C94F824008006B0
:1015000006D5207820B90520FFF7E6FFA06A8047BE
:1015100094F82400C00606D5207820B90420FFF7EF
:10152000DBFFE069804794F82400C00705D52078E8
:1015300018B9FFF7D1FF00F0D0FC94F82400800721
:1015400006D5207820B90120FFF7C6FFFFF74BFC36
:1015500094F82400000706D5207820B90320FFF76F
:10156000BBFF6069804794F82400400706D52078C7
:1015700020B90220FFF7B0FFA069804772B6606A09
:1015800028B18009800104BF2078012801D101F031
:101590006CFA62B610BDAEE70000000003280BD85D
:1015A000DFE800F002040809042002E00748826234
:1015B000052089E710471047100018BF10477047F3
:1015C000411E89410148C90F01707047440E002037
:1015D00058100240C00E00200028004001F048BD15
:1015E00010B50446FFF782FA204610BD10B5044638
:1015F00010460A460146204601F0E8FD204610BD8F
:10160000006040607047EFF3108172B6026882425A
:101610000CBF012000201CE0EFF3108272B60368BB
:101620000B6048600160086841602DE0EFF31082B4
:1016300072B6086043684B6041604868016023E00F
:10164000EFF3108172B6436802681A60426800685E
:10165000426081F31088704738B50C46EFF310856F
:1016600072B6016821600068FFE7FFF7E9FF2168B3
:10167000002008602168486085F3108831BDEFF3D1
:10168000108272B60068086082F31088704700000C
:101690000020704738B5044615460B4600222946FF
:1016A000012001F03BF9054860433F21B0FBF1F117
:1016B000287801F07EF9002032BD000040420F0082
:1016C00080B501F04EF9002002BD704700B587B02B
:1016D00000F012F900F001F940F20110ADF8060037
:1016E000002100F009F800284CBFFF209DF8000001
:1016F00007B000BDC0B204900120069001A800F020
:1017000038BC70B58CB001288DF81C0014460CBF95
:10171000022610261D4632460DF11D00FFF760FF20
:10172000701C07A9C0B203224454441CE4B26846AA
:1017300065540021FFF75AFF00F0DEF800F0CDF805
:101740004FF4817000F062F8601CC0B20490032076
:10175000FFF7D3FF002848BFFF2005D49DF8000005
:1017600010B9109900F049F80CB070BDF1B58EB009
:101770000D4616461F4602220EA900F0C4F807AC1B
:10178000012DA57031460CBF022510252A4600F018
:10179000A0F8E81CC0B2411C0755C9B214980855FE
:1017A000491C1598C9B203220855491C1698C9B29C
:1017B0000855491C1798C9B24D1C0855EDB2189828
:1017C000285500F01FF800F097F800F086F84FF465
:1017D000827000F01BF8681CC0B204900320FFF771
:1017E0008CFF002848BFFF2005D49DF8000010B9E9
:1017F000199900F002F80FB0F0BDBDF801000880A3
:101800000020704700216846FFF7F0BEADF80600E3
:10181000002107A80390704733B51C46A01DA7B050
:1018200081281546A8BF42201FDA022227A900F00E
:101830006AF8022228A900F06BF82C998DF8205044
:101840008DF82140224600F023F800F055F800F012
:1018500044F84FF48370FFF7D9FFA01DFFF74AFF4C
:1018600000284CBFFF209DF8000029B030BD00B516
:1018700089B000F025F800F00FF840F20B1000F0EE
:1018800011F800284CBFFF209DF8000009B000BDF2
:101890000DF12200FFF7A4BE3F20ADF80800CDF8FF
:1018A00018D07047ADF80A00002101A8049002206A
:1018B00005900F2003900120079002A800F059BB6B
:1018C0001822ADF80400002102A8FFF78FBE2246BF
:1018D00019460DF11F00FFF783BE3F20ADF804004D
:1018E000CDF814D07047ADF80600002107A803908A
:1018F000E01DC0B2049070471822002101A8FFF734
:1019000075BE022228A907A8FFF76ABE022229A9EC
:101910000DF11E00FFF764BE73B5A8B015462E9CEE
:10192000E01D81281E46A8BF42201CDAFFF7E9FF10
:10193000FFF7ECFF2F998DF820508DF821608DF87E
:101940002240224600F012F8FFF7D6FFFFF7C5FF4E
:101950004FF49370FFF7C7FFFFF7CEFE00284CBF90
:10196000FF209DF800002AB070BD10990DF12300F2
:10197000FFF736BE10B58AB08DF800008DF8011063
:101980008DF802201C46072200F0CCF900F0D0F8B8
:1019900000F0E4F98A20ADF80E0000210320069043
:1019A00001A80790072000F0BFF8002848BFFF20DB
:1019B0000ED49DF8040058B9BDF8050020800C999C
:1019C000BDF8070008800D99BDF8090008800020C7
:1019D0000AB010BD70B58AB00C468DF808001546E7
:1019E0001E46072200F06BF900F0A2F800F09EF905
:1019F0008A20ADF80E00002102A805900120069073
:101A0000072000F091F8002848BFFF200CD49DF873
:101A1000000048B9BDF801002080BDF8030028800F
:101A2000BDF80500308000200AB070BD00B587B059
:101A300000F077F900F057F9812000F06AF90028EA
:101A40004CBFFF209DF8000007B000BD76B592B0F6
:101A500000F04FF828BF42201BD200F052F800F0EF
:101A60002AF89DF8600000F02CF800F035F800F03E
:101A70001AF800F010F800F054F900F034F983205F
:101A800000F047F800F07EF900284CBFFF209DF8D9
:101A9000000014B070BDA41CE4B207A802221EA965
:101AA0002018FFF79DBD6419E4B207A802221DA902
:101AB0002018FFF795BD022213A90DF11F00FFF7B3
:101AC0008FBD1A998DF822008DF821608DF8235072
:101AD0002A4609A8FFF784BD05F10800C0B207A98E
:101AE000451C4454EDB21C9907A822462818FFF75C
:101AF00077BD199D1B9C54FA85F10E3129291E468C
:101B000070478DF81C00022212A90DF11D00FFF78D
:101B100067BDADF80600002107A80390A01CC0B265
:101B20000490704706900120089003A800F021BAA5
:101B30001822002103A8FFF759BD00B589B018226B
:101B40008DF8040000F084F800F0B3F8852000F070
:101B500069F800284CBFFF209DF8000009B000BDC7
:101B600030B58FB08DF81C008DF81D1014461D4641
:101B70001022214600F0EEF8129814998DF82F00EB
:101B80008DF82E50182213988DF830000DF1310089
:101B90000160002115988DF8350001A8FFF726FD9A
:101BA00000F0A1F8862000F07EF81A20049000F0E2
:101BB000E9F800284CBFFF209DF800000FB030BDB1
:101BC00000B589B01822ADF804000DF106000160DF
:101BD000FFF7AFFF00F0AAF8882000F0ADF800286A
:101BE0004CBFFF209DF8000009B000BD00B589B0D2
:101BF00000F029F800F021F8892000F007F800280B
:101C00004CBFFF209DF8040009B000BDADF80A00EC
:101C100000210320059001A806900120079002A84A
:101C200000F0A7B9ADF80A00002101A80490012036
:101C30000590079002A800F09CB93F20ADF808007D
:101C4000CDF810D07047ADF800008DF802101822C2
:101C5000002102A8FFF7CABC00B589B0ADF80000AA
:101C60008DF802108DF803200021182202A8FFF73A
:101C7000BDFCFFF7E2FF8D20ADF80A000021042033
:101C800005900F20039001A8069000F007F80028A7
:101C90004CBFFF209DF8040009B000BD0120079053
:101CA00002A800F066B9ADF80600002107A803906D
:101CB00070473F20ADF80800CDF818D070470021DC
:101CC0006846FFF793BC00B587B000F02AF800F033
:101CD0000AF8922000F01DF800284CBFFF209DF864
:101CE000000007B000BD3F20ADF80400CDF814D0CF
:101CF000704700B589B0FFF7A6FFFFF79EFF93205E
:101D000000F032F800284CBFFF209DF8040009B015
:101D100000BDADF8060000210120069001A800F0EA
:101D200028B91822002101A8FFF760BC3F20ADF8B8
:101D30000C00CDF81CD07047ADF80E00002101A8B2
:101D40000590062006900F2004900120089003A81B
:101D500000F00FB90DF11E00FFF742BC3F20ADF8B7
:101D60000C00CDF814D07047ADF80A000021032014
:101D700005900F20039001A806900120079002A86B
:101D800000F0F7B80120069001A800F0F2B80000BA
:101D90000EB400B582B003A9009102466B46012142
:101DA000034878440A30FEF7EFF906BC5DF810FBF3
:101DB000CD3A000010B5B34C82B0A07801280ED106
:101DC00004F11000FFF71FFC48B9A070694604F148
:101DD0001000FFF741FC0098802101F02FFA13BD9D
:101DE000A84901204870704738B5A64C04F110008E
:101DF000FFF706FC04F11800FFF702FC00258C2019
:101E000010FB054000F1200100F063F86D1C052D6A
:101E1000F5DB0120A07031BDCCE770B5994C00F125
:101E20000803A3600021E3782BB9E38003E0042BCF
:101E30004ED10323E370E388802B49DAE3885D1CED
:101E4000E580A568E6785B5D002EF0D0032E08BF24
:101E50000623EFD0042E08BF0523EBD0052E08BFC4
:101E60000723E7D0072E08BF0823E3D0082E04D1AC
:101E7000B5F8032000210923DCE7062E01D11A461C
:101E8000F8E7092ED7D1491C89B292B29142D2D338
:101E90000021E17000F108014A1C097804290CD1E5
:101EA00011780E2918BF0F2907D0014604F1180038
:101EB000FFF7BCFBFFF71BFB02E0014600F009F84F
:101EC000E06828B1E188A068E268BDE8704010478A
:101ED00070BD04F11000FFF7A9BB10B582B000205F
:101EE0000090684C0DE0694604F11800FFF7B4FB60
:101EF00000980830FFF770F80099FFF7EAFFFFF746
:101F000059FF04F11800FFF77EFB0028EBD013BD4A
:101F100080B55C4A0123937011B1FFF77EFF04E0A6
:101F2000014602F11000FFF777FBBDE8014041E7F1
:101F300001F080B970B5890582B0890D41EA802031
:101F4000ADF800000120504E307014461D468DF84B
:101F5000024003226946701CFFF742FB234604221D
:101F600029463046FFF7E4FF73BD4649012008715A
:101F700070472DE9F8430446424F60882188DFF816
:101F80000C918005800D40EA8125414800680A21B6
:101F9000B0FBF1F6002038714FF00A08FFF710FB94
:101FA0003C48F860E068A3686188C2B22088FFF707
:101FB000C1FF2FE0FFF7EFFA787838B1387801F0F9
:101FC0005BF900F069F84FF0FF3057E038790028EE
:101FD000F0D0387801F050F9B86802461178042939
:101FE00016D1C11CF8885278C01E0E2A26D00F2A9E
:101FF00004D0102AE5D03E2A2ED009E04A88ADB29E
:10200000AA4205D162680F2A13D008780028D8D1D7
:10201000002038715FEA0800A8F10108D1D006B9A4
:102020000126002078703A464946304601F010F902
:10203000C2E762699042C8BF10460AE0B1F80120C9
:10204000ADB2AA42E4D16269C91CC01E9042C8BFA9
:102050001046606102460BE00A7863689A42D7D165
:102060006269401E9042C8BF104660610246491C2A
:102070002069FFF7B5FA00F00FF80020BDE8F28301
:1020800000000000F0070020580F0020E11D0008AC
:10209000BC5800086B1F00080020F8600120FFF703
:1020A0008FBAF0B589B000F028F800F036F800F0EB
:1020B0003FF8042000F037F8012000F023F8092051
:1020C00000F027F8002802D49DF8000010B14FF06E
:1020D000FF3010E09DF801002070BDF8020028805C
:1020E0009DF804003070BDF8050038800E99BDF8E9
:1020F00007000880002009B0F0BD04460D461646D2
:102100001F467047ADF80E00002100200590069094
:102110007047089003A82CE704460922002168466E
:10212000FFF764BA0820ADF80C00CDF81CD070475A
:102130001822002103A8FFF759BA000080B5032038
:1021400001F0ADF80F20FFF757F900F002F800207A
:1021500002BD704703480168491C0160704701488F
:1021600000687047600F002000B597B001A81421E7
:1021700001F0EAF80FF2780106A891EC100B80EC60
:10218000100B1A48016841F080510160006800F0AE
:102190008050009000981020069001200C90602044
:1021A0000E9000200D9002200F90012010901190B1
:1021B00028201290022015900720139004201490DC
:1021C00006A801F0C5F800B1FEE70F200190042138
:1021D00003200290002003900490059001A801F0D4
:1021E000ACFA00B1FEE717B000BD00005810024085
:1021F00000000000000000000000000000000000DF
:1022000000000000000000000000000000000000CE
:1022100000000000000000000000000000000000BE
:1022200000000000000000000000000000000000AE
:1022300010B57548754C86B0016841F48041016065
:1022400001A9206D40F080502065206D00F0805085
:1022500000900098206840F400402060606E4008C4
:1022600040006066606E20F002006066606E20F0E4
:1022700004006066606E20F008006066606E20F00A
:1022800010006066606E20F020006066606E20F0D6
:1022900040006066606E20F080006066606C40F018
:1022A00001006064606C00F0010000F082F840F012
:1022B00002006064606C00F0020000F07AF840F008
:1022C00004006064606C00F0040000F072F840F0FC
:1022D00008006064606C00F0080000F06AF840F0EC
:1022E00010006064606C00F0100000F062F840F0D4
:1022F00020006064606C00F0200000F05AF840F0AC
:1023000040006064606C00F0400000F052F840F063
:1023100080006064606C00F08000009000980320F2
:1023200002900490002003904FF6FF70019038480F
:1023300001F052FB01A9374801F04EFB01A93648D4
:1023400001F04AFB01A9354801F046FB01A93448D8
:1023500001F042FB01A9334801F03EFB01A93248DC
:1023600001F03AFB01A94FF0904001F035FB606CA1
:10237000400840006064606C20F002006064606CA3
:1023800020F004006064606C20F008006064606C01
:1023900020F010006064606C20F020006064606CCD
:1023A00020F040006064606C20F08000606406B043
:1023B00010BD00900098606C704700B5AFB0082069
:1023C0001E9000202790012023901EA800F0C0FF3F
:1023D00000B1FEE74FF4003000904FF400701D9004
:1023E000684601F001FC00B1FEE71048016841F4C5
:1023F0000041016000220F21032000F05DFF032057
:1024000000F077FF2FB000BD00200240081002400E
:102410000004004800080048000C00480010004874
:102420000014004800180048001C004890100240AA
:10243000704700001B48016841F4807101607047DB
:1024400010B50C4618490028086804D1800506D547
:1024500001F086FE03E0800558BF01F07BFE1348C3
:10246000016821F004010160012C0FBF30BF40BFA3
:1024700020BF20BF10BDB0F5804F084608BF01F057
:1024800098BE01F085BE07480168C908C90041F03F
:10249000030101600548016841F00401016030BF9B
:1024A00070470000007000401470004010ED00E024
:1024B0008A60FF2102685162012180F82110002109
:1024C00080F820100020704790F82010012901D1D9
:1024D00002207047012180F82010022180F821108D
:1024E000CA210268516253210268516201688A68F8
:1024F00042F02002FFF7DCBF38B5040011D094F899
:10250000210020B984F820002046FFF756FF00F094
:1025100038F8FF250028206805D04562042084F89B
:102520002100012032BD8168DFF87420114000F0E5
:1025300033F8626823691A43A3691A43114381601F
:102540002168E068086120680169A26841EA0241E7
:1025500001612068C16821F08001C1602068C16C00
:1025600089088900C1642068C16CE26963691A4303
:102570001143C16420684562012084F821000020D5
:1025800032BD022084F82100CA202168486253200D
:1025900021684862204605E08160206881687047B4
:1025A000BFFF8FFF38B504462068C168490611D4C3
:1025B0004FF0FF31C160FFF7D2FD05462068C068CB
:1025C000400607D4FFF7CBFD401BB0F57A7FF5D965
:1025D000032032BD002032BD00688268D20841EA83
:1025E000C2018160704700002DE9F041DFF804640A
:1025F000DFF80484044630781425082815FB048786
:1026000009D1307870703470082038744FF6FF703C
:10261000F080002039E000F06AF8B96811FA80F122
:10262000B960B968327815FB0282926891421AD378
:10263000327802E015FB0282127C15FB02831B7CC0
:10264000082B04D015FB03839B689942F2D215FB3B
:1026500002810B7C082B1CBF15FB0385EC733B74BC
:10266000FA730C7411E031783378994215FB0182CA
:1026700006D0D37B15FB03852C743974FB7300E003
:102680003974D473317871703470BDE8F081F0B56D
:10269000D84BD94D1E781424B04214FB005204D1FB
:1026A00018785870107C18700BE0D07B167C177C63
:1026B00014FB0050082E077403D0D07B14FB065483
:1026C000E073012010731878082802BF00294FF624
:1026D000FF70D880F0BDC749C96809684FF6FF7020
:1026E00000E0886A8A6A9042FBD180B2704710B5D8
:1026F000C04CE0884FF6FF71884211D0FFF7EBFF26
:10270000E1888142E18828BF081A04D2228912FA9E
:1027100081F1081A401C21794843E178C84000E063
:10272000002080B210BD2DE9F843B24CE56828685E
:102730008168490502D5C1684907FCD48168DFF882
:10274000B88221F4806181604FF01409277819FB69
:1027500007808668FFF7CBFF864238BF002608D384
:10276000618910FA81F1B14202D26689002101E04B
:10277000361A0121A17001E08A600F7C082F08D071
:1027800019FB07818A68824232BF00228A68121AC6
:10279000F2E7B6B23EB9FFF79EFFE0800320BDE846
:1027A000F24300F0B5BD022E02DAE078012800D035
:1027B000761E2868C1684907FBD500F0A6F88F4946
:1027C0000860032000F0AAFDE5682868B6B24661FB
:1027D000FFF781FFE0802868816841F480618160B3
:1027E000BDE8F1832DE9F041EFF3108872B681481E
:1027F000C16809688A6822F480628A60CA6802F047
:10280000800262F49062CA604FF480117B4A1160CA
:1028100014220578784912FB0516317B02291ED156
:102820003768B47B8078C0B1707B01280AD1012160
:102830002846FFF72CFF88F310887168284600F0BF
:10284000B8F804E088F31088284600F095F83A4676
:1028500029462046FEF7A2FE03E0FFF764FF88F357
:102860001088BDE8F08138B5624CE0600168896885
:1028700001F00701C1F10401E17002681269120C54
:1028800002F07F02521C2271D2B203681B695B0402
:102890005B0C23815B1E5A430A41A2F110014FF6E3
:1028A000FF7291422CBF628161810121A170E2809F
:1028B0000021514A0023142515FB0125491C082934
:1028C0002B73F8DB0821217000684D4D816821F4DD
:1028D0008061816000F019F86861032000F01EFD3E
:1028E000E0680068816841F4804181600022A86846
:1028F00040F48010A8600321286840F4801028600C
:102900000320BDE8384000F0D7BCC16801F0800169
:1029100061F49061C1604FF480107047F0B50024FD
:10292000EFF3108572B61426334F06FB047C9CF837
:102930000CC0BCF1000F02D0641C082CF5DB082C85
:102940000BD006FB04760127377385F31088B0732C
:10295000727333600C700020F0BD85F31088012085
:10296000F0BD10B5044600F007F82349142212FB0D
:1029700004110020087310BD38B5054600F042F878
:102980001D48142111FB0500007B02280BD10021FA
:102990002846FFF77CFE17480178407888421CBF24
:1029A0000829FFF7C0FE032000F0A3FC84F3108881
:1029B00031BDF8B506460F4600F024F80E48142144
:1029C00011FB060502202873AF606F603046FFF7E9
:1029D0000BFE08490A784978914202D0FFF7A3FE1E
:1029E00002E0A968081AA860032000F082FC84F3C2
:1029F0001088F1BD300F0020CC0A002014040140E3
:102A000000040140EFF3108472B6032000F077BC9D
:102A1000F0B5EFF3108272B6294BDF681D685E686F
:102A20009C684FF0010C0CFA00F0082908BF07431E
:102A300014D05FEA417E6FEA000C4CBF0CEA05053A
:102A400005435FEA817E4CBF0CEA06060643C907D0
:102A50000CEA07074CBF0CEA040404439C605E6068
:102A60001D60DF6082F31088F0BD38B5EFF310848D
:102A700072B61348C16801BB016821B10121002071
:102A8000FFF7DEFC19E081680E4D41B9C046C04633
:102A90001F202860FFF7F7FCC046C0460DE01F214D
:102AA0002960406820B101210020FFF7E4FC02E02A
:102AB000012001F095FBFFF7BBFC84F3108831BDCA
:102AC000200F002018700040DFF8B01500200870BB
:102AD0007047DFF8AC05806F004710B5DFF8A445FC
:102AE0002068416D09680A68520852000A60806DCA
:102AF0000068016849084900016072B6062000F0CC
:102B0000FEFB94F82400012808D1002084F824005A
:102B10000120207162B6BDE8104077E100202071ED
:102B200062B610BD10B5DFF85C4501206074FFF798
:102B3000D4FFDFF8540561890068BDE81040C9B2D0
:102B4000FFF7E6B980B5012000F006FABDE80440C1
:102B500000216DE110B5DFF8284504F1140000F004
:102B60001CF8DFF82005DFF8243504F114010160BA
:102B700000220021017180F824106069416841F051
:102B800003014160016841F040010160032004F14C
:102B90001001BDE81040FFF7C1BEDFF8F41401607A
:102BA0004FF482714160002181604FF4E061C160A7
:102BB0000021016141614FF40071816100210162D6
:102BC00041620721C1620821C1610021816201F0D7
:102BD00023BB10B588B04FF48070029000200590A0
:102BE0000022DFF8B03469460320FFF797FEDFF8D4
:102BF000A804DFF8884400F005FA0022006800F01D
:102C0000010001904FF4807101984FF0904000F066
:102C1000C7FF0120039002A9002004904FF09040CC
:102C200000F0DAFE9DF800000121FFF7C2FE00F07F
:102C300014F801224FF480714FF0904000F0B0FF83
:102C40009DF800005D21FFF7B4FE00F006F89DF846
:102C50000000FFF786FE08B010BD0120207020782C
:102C60000128FCD0704738B5DFF81844251D68618D
:102C70000020A9612A776B77E87772B6287840B987
:102C800001202870062000F03AFB62B6BDE8314012
:102C9000BCE0012084F8240062B631BD10B5DFF835
:102CA000FC4301206060062000F038FB062000F0A5
:102CB00020FB00F0A6F8012803D1206840F00100B5
:102CC000206010BD002207E0DFF8B803006800684C
:102CD00080680006F8D4012202214FF0904000F0F5
:102CE0005FBF80B5FFF7F0FF0D204FF00051401E91
:102CF0000968FAD1BDE80140E4E738B5DFF884039C
:102D0000DFF89C430368DFF89C239D6DDFF8981380
:102D10002D68A54204D30D6845F020050D6003E041
:102D2000156845F0200515605B6D1B68A34204D350
:102D30000A6842F400720A6003E0116841F400710D
:102D40001160CF4C027A21781AB1022A1AD029D305
:102D500031BD2079E27852EA002001D002290FD05B
:102D600000F04FF840B9FFF7AFFF06210120FFF751
:102D70004FFEBDE83140B0E6FFF7B3FF00201BE097
:102D8000022019E0FFF7A0FF06210120FFF740FE17
:102D9000C648A067207C20730220A060BDE83140B7
:102DA000FEF71CBCA278637853EA022201D0022904
:102DB00005D0FFF796FF0120BDE83240CCE000F1DE
:102DC00021018D780B78012D1C460FD090F8200042
:102DD00054FA80F4A24205DA101A1A1A0A70012273
:102DE0008A7000E018464870002007E0A242B2BF97
:102DF000981A1A46002008704A700120BDE8324037
:102E000064E001214FF0904000F0C4BE10B50620F0
:102E100000F075FA9A4CA648A067FFF753FF207C94
:102E200020730620A060FEF7D9FBBDE81040062104
:102E30000020FFF7EDBD80B59248994A0168496DC1
:102E4000096891422CBF984996490A6842F4007279
:102E50000A6000F12101027D12B1012A06D001BDF4
:102E6000487890B1BDE8024001202FE08A78012A1D
:102E70000BD10A784AB1C26949788918C161FFF754
:102E800030FFBDE80240012066E0BDE8014010B51A
:102E900006210020FFF7BCFD7A4C00202071FFF7CF
:102EA00013FF2068416D09680A68520852000A60E1
:102EB000806D00680168490849000160607C002855
:102EC00004BFBDE81040FFF7E9BE10BD38B56D4D39
:102ED00004462868416D0A6813685B085B0013604C
:102EE000806D026813685B085B001360006802680D
:102EF00022F0020202600868694988422CBF6A48D1
:102F00006848016841F4007101600D2000F006FA84
:102F10002868406D01680A6842F002020A60016890
:102F20000A6842F080020A6014B1012C08D010E057
:102F300000212975026895F820105160A96906E002
:102F400001212975026895F822105160E96902682B
:102F5000D16000F056F831BD70B54A4C2268516D11
:102F60000B681D686D086D001D60936D1D682E68EF
:102F7000760876002E6004251668367B6D1EFBD120
:102F80001A68136843F00203136009680A6822F0A4
:102F900002020A6018B102280AD003D326E00FF219
:102FA0001C1102E00FF20C11012000F030F81DE0BE
:102FB000207233480179C07840EA0120217C8142A7
:102FC00038BF0846216860814A6D13681D6825F086
:102FD00080051D60896D0B6858601368586009682A
:102FE000E068C86011680FF2DC00C8602068816D7D
:102FF00009680A6842F001020A60406D00F001F8B9
:1030000070BD0068016841F001010160704710B5B2
:103010001C4A10721068426D13681C6844F08004EA
:103020001C60052314686360806D04686360006839
:10303000134BC3601068C16010BD124AD0600020FD
:10304000117450742AE680B572B60E48017969B9D8
:103050000121017162B6FFF735FE0020FFF77CFF0A
:10306000BDE8044000210120FFF7D2BC62B601BDDB
:1030700003488168007BFFF79CBC00006E0F0020B6
:103080007C0C0020700E0020540F0020D32A000872
:1030900000300140C92A00084C10024010040140D1
:1030A000810002400400024004040240252B000875
:1030B000452B00080A000000000000000B00000083
:1030C00000000000FF0000000320FEF7FDB93649B4
:1030D00008700220FEF7F8B9334800787047000006
:1030E000431E062B0CD8DFE803F00E090609040B7B
:1030F0000E00012003E02D48FDF746BF0320E6E760
:103100002B4B5B68184770473EB501A80021002291
:1031100006C0FEF769FEFFF75CFD254C254DFEF766
:103120007BFE216801A888470DF102016846FEF781
:1031300013F9FFF74EFD9DF800003128A4BF0320CE
:103140008DF8090000F03AF80421012001F0EBF8B5
:10315000202200212846FEF749FA0320287000208B
:1031600068700120A8700020E87028750820687534
:103170001020A8750D48A861002028774119087112
:10318000401C1028FADB28460B49FDF787FDFEF7A7
:1031900043FE216801A8884700F010F804210120AF
:1031A00001F0C1F837BD00006D0F002007B201002B
:1031B000480E0020E40E0020E130000801AA06219C
:1031C000002001F085B801F0E3B8000062F30F229F
:1031D00062F31F42401810F0030308D0C91A1FD32E
:1031E000DB0748BF00F8012D28BF20F8022D13008F
:1031F00030B414461546103928BF20E93C00FAD8EF
:10320000490728BF20E90C0048BF40F8042D890079
:1032100028BF20F8022D48BF00F8012D30BC7047B0
:10322000C91818BF00F8012DCB0728BF00F8012DE1
:1032300070470000DBB2D2B2FFF715BD024A106042
:103240000830FFF7FABE0000540F0020FFF7FBBE66
:1032500038B5044615460B46002229460220FFF7E2
:103260005DFB4FF47A7060433F21B0FBF1F12878A9
:10327000FFF79FFB002032BD80B5FFF772FB0020F7
:1032800002BD00000901002806D5274A00F00F0002
:10329000801800F8041C7047244A81547047244960
:1032A0000A684FF6FF031A4000F0070042EA0020C8
:1032B000204A10430860704738B51D4B1B68C3F3A4
:1032C0000223C3F10704052C28BF04241D1D072D6C
:1032D00034BF0023DB1E012505FA04F4641E2140DF
:1032E000994005FA03F35B1E1A401143BDE83440D0
:1032F000C8E7012100F01F0291400F4A04E00121BC
:1033000000F01F0291400D4A400942F8201070471A
:10331000012100F01F029140094AF5E7012100F068
:103320001F029140074AEFE718ED00E000E400E0DB
:103330000CED00E00000FA0500E100E080E100E0B3
:1033400000E200E080E200E0002201F0CDB80000E1
:103350002DE9F8430446DFF858562078DFF8486630
:10336000C00626D5B06810F00C0F3AD1306880073F
:1033700002D5A069002832D0306800074EBF3068FF
:103380006868000900F0F001206A814206D200F06E
:10339000CFFA002823D100F0BEF905E000F0BBF918
:1033A000206A00F0C5FAD0B900F06BFAB26800F0FC
:1033B00054FA2078C00774D500F0A9F9082808D07D
:1033C00000F0A5F90C2802BFF06800F00300032804
:1033D0002AD13068800364D56068002861D101205B
:1033E0008AE1A0690028306810D040F0010000F0A8
:1033F00085F907463068800705D4FEF7B0FEC01B8C
:103400000328F7D375E100F086F9D2E740084000C1
:1034100000F074F9074630688007CAD5FEF79FFEB2
:10342000C01B0328F7D364E100F06BF920F480207F
:1034300000F064F907463068800305D5FEF78FFE7B
:10344000C01B6528F7D354E16068B0F5803F07D012
:10345000B0F5A02F00F055F906D140F4802030607F
:10346000306840F4803001E020F4802030606068F3
:1034700058B1FEF774FE07463068800311D4FEF79A
:103480006EFEC01B6528F7D333E1FEF768FE0746E2
:103490003068800305D5FEF762FEC01B6528F7D3B0
:1034A00027E12078800719D500F031F9042808D0E9
:1034B00000F02DF90C2802BFF06800F0030002288C
:1034C00022D13068400502D5E068002887D07068B6
:1034D000216920F0F85040EA016070602078000710
:1034E00041D56069002868682ED040F0010068600E
:1034F000FEF735FE07466868800734D4FEF72FFED6
:10350000C01B0328F7D3F4E0E068002830680DD032
:1035100040F4807000F0F2F8074630684005D6D4D9
:10352000FEF71DFEC01B0328F7D3E2E020F48070F5
:1035300000F0E4F8074630684005CFD5FEF70FFEEF
:10354000C01B0328F7D3D4E0400840006860FEF7B2
:1035500006FE07466868800705D5FEF700FEC01B1B
:103560000328F7D3C5E02078400766D5B06DC000CA
:103570004FF000080AD4B06D40F08050B0654FF0B5
:103580000108B06D00F0805000900098DFF824949E
:10359000D9F80000C00512D4D9F8000040F48070BA
:1035A000C9F80000FEF7DBFD0746D9F80000C005AA
:1035B00005D4FEF7D4FDC01B0328F6D399E0A0681C
:1035C00001280CD008B928680DE0052828680AD120
:1035D000400840002860286840F0040028602868FF
:1035E00040F0010005E0400840002860286820F015
:1035F0000400286041F28939A06858B1FEF7AFFD98
:1036000007462868800711D4FEF7A9FDC01B48456E
:10361000F7D36EE0FEF7A3FD07462868800705D5BF
:10362000FEF79DFDC01B4845F7D362E0B8F1000FDF
:1036300003D0B06D20F08050B065606A00285AD089
:10364000B16801F00C010C293FF4C9AE02283068C2
:1036500020F08070306038D1FEF781FD0746306879
:10366000800105D5FEF77BFDC01B0328F7D340E0A2
:10367000E06A216B401E090241EA0010616B0909F2
:1036800040EA4140A16A0843A16B891E0905490D22
:1036900040EA4150E16B891E090601F07E41084372
:1036A000F060306840F080703060F06840F080700A
:1036B000F060FEF754FD0746306880011BD4FEF72A
:1036C0004EFDC01B0328F7D313E0F068DFF8E812C3
:1036D00080088000F060F0680840F060FEF73FFD71
:1036E00007463068800106D5FEF739FDC01B032868
:1036F000F7D3032000E00020BDE8F2833060FEF73E
:103700002EBD306820F48030306030687047B0687B
:1037100000F00C007047306840F0080030603068FE
:10372000216A20F0F000084330607068E16920F4FD
:103730007F4040EA0120706070472DE9F843DFF8D0
:103740007C6204463068884600F00700404502D29B
:1037500000F08DF864D12078DFF84C72800705D531
:10376000B868A16820F0F0000843B8602078C0076E
:103770004ED56068022802D13968890308E0032821
:1037800002D13968890103E00028396802D189072C
:1037900002D445E0490543D5B968890840EA81006B
:1037A000B86041F28939FEF7DAFC05466068022804
:1037B0000AD1B86800F00C00082829D0FEF7CFFC29
:1037C000401B4845F5D321E003280AD1B86800F032
:1037D0000C000C281CD0FEF7C2FC401B4845F5D35A
:1037E00014E048B9B86810F00C0F11D0FEF7B7FC20
:1037F000401B4845F6D309E0B86800F00C000428E7
:1038000006D0FEF7ACFC401B4845F5D3032022E070
:10381000306800F00700804504D200F028F801D09D
:10382000012018E02078400705D5B868E16820F449
:10383000E0600843B8602078000706D5B8682169C1
:1038400020F4605040EAC100B86000F01AF8BA688D
:1038500000F003F80020BDE8F2835949C2F30312D7
:10386000515CC840514908600F20FDF7C5BD306864
:10387000C00848EAC0003060306800F007004045EA
:10388000704749498B680022002013F00C0F09D0C3
:103890008B6803F00C030C2B02BFCB6803F003030F
:1038A000012B13D10A68120704D4464A1268C2F3E6
:1038B000032202E00A68C2F30312434B53F82220AA
:1038C0008B6813F00C0F0ED110460CE08B6803F0E0
:1038D0000C03042B08BF3D4805D08B6803F00C0394
:1038E000082B08BF3A488B6803F00C030C2B1ED141
:1038F000C868CB68C3F302135B1C00F00300022806
:1039000002D0032802D005E0304800E03048B0FB88
:10391000F3F001E0B2FBF3F0CA68C968C1F341619A
:10392000C2F30622491C50434900B0FBF1F0704736
:1039300070B5284E82B0054630680024C00002D51C
:1039400000F002FC0EE0306840F0805030603068DB
:1039500000F080500090009800F0F6FB316821F0F4
:1039600080513160B0F5007F04D1812D0DD3A12DA0
:103970000AD305E0812D28BF032406D2802D01D172
:10398000022402E0702D00D101240C480168C9080E
:1039900044EAC1010160006800F00700A04214BFC2
:1039A0000120002076BD0000001002400000002031
:1039B0009010024000700040FFFFEEFE0020024029
:1039C0003855000894100240485500080024F400BF
:1039D00000127A00581002402DE9F8470022784B77
:1039E000DFF8E081DFF8E0914FF00F0A30E005FAF0
:1039F0000EFE4EEA040448F82C406FEA070C1C68DF
:103A00000CEA040E4C68E40348BF47EA0E0EC3F804
:103A100000E05C680CEA040E4C68A40348BF47EA67
:103A20000E0EC3F804E09C680CEA040E4C68E40235
:103A300048BF47EA0E0EC3F808E0DC680CEA040C45
:103A40004C68A40248BF47EA0C0CC3F80CC0521CD7
:103A50000F6837FA02F400F09B804FF0010C0CFA6B
:103A600002F42740F3D04D68022D18BF122D11D15A
:103A7000D50800EB850C02F00706DCF820504FEA71
:103A8000860E0AFA0EF6B5430E6906FA0EF63543AF
:103A9000CCF820504FEA420C0326056806FA0CF6D3
:103AA0006FEA060E0E7906F003060EEA050506FA21
:103AB0000CF635430560E4434D68012D18BF022D17
:103AC00003D0112D18BF122D0FD18568CE680EEAD4
:103AD000050506FA0CF63543856045684E68C6F361
:103AE000001625409640354345604D6805F00306B5
:103AF000032E06D1C66AC5F3C005344095402C4359
:103B0000C462C4680EEA040E8C6804FA0CF444EA39
:103B10000E04C4604C68E40099D5D9F8004044F024
:103B20000104C9F800404FEA920CD9F8004004F0B3
:103B30000104009402F00305009C58F82C404FEA61
:103B4000850E0AFA0EF5AC43B0F1904F08BF002580
:103B50001DD01E4DA84208BF012518D01C4DA842FB
:103B600008BF022513D01B4DA84208BF03250ED065
:103B7000194DA84208BF042509D0184DA84208BF16
:103B8000052504D0164DA8420CBF062507252EE7B3
:103B9000BDE8F1870069084018BF0120C0B2704736
:103BA000002A14BF8161816270470E4A1368034284
:103BB00000D1704780B51060FFF748FB01BD0000E1
:103BC0000004014008000140601002400004004869
:103BD00000080048000C004800100048001400488D
:103BE00000180048140401402DE9F84F0446002550
:103BF0002068DFF84865DFF848750005A846A94643
:103C000026D5606D70B1B0F5800F19D0B0F5000FFA
:103C100003D0B0F5400F09D017E0F06840F48030D1
:103C2000F06006E0201D00F0E1F98046B8F1000FD9
:103C30000DD13868616D20F440000843386007E01A
:103C400004F1180000F039FAEFE74FF00108C1461F
:103C50002068C00426D5A06DB8B1B0F1807F19D01E
:103C6000B0F1007F03D0B0F1407F04D017E0F068DE
:103C700040F48030F060B8F1000F12D13868A16DC7
:103C800020F04070084338600CE0201D00F0AEF9D1
:103C90008046F0E704F1180000F00FFAF8E74FF063
:103CA0000108C146206880032FD5B06DC000AA4628
:103CB0000AD4B06D40F08050B0654FF0010AB06D8D
:103CC00000F0805000900098DFF87804DFF874145A
:103CD000006840F480700860FEF741FA8346DFF820
:103CE00064040068C00500F18180FEF738FAA0EB9B
:103CF0000B000328F3D34FF00308C146BAF1000FBD
:103D000003D0B06D20F08050B0652078C00705D595
:103D10003868A16A800841EA80003860207880070E
:103D200005D53868E16A20F00C0008433860207837
:103D3000400705D53868216B20F030000843386013
:103D40002078000705D53868616B20F0C000084373
:103D500038602078C00605D53868A16B20F4407023
:103D6000084338602078800605D53868E16B20F478
:103D70004060084338602068800505D53868E16CEC
:103D800020F44020084338602068400505D5386895
:103D9000216D20F44010084338602078400605D596
:103DA0003868216C20F440500843386020780006C1
:103DB00005D53868616C20F44040084338602068BD
:103DC000C00505D53868A16C20F440300843386040
:103DD0002068800440D53868E16D00F0EDF8E06DB2
:103DE000B0F1006F30D100F0ECF835E0B8F1000F21
:103DF00083D1B868616F00F4407088420BD0B86816
:103E000020F44075B86840F48030B860B86820F499
:103E10008030B860BD60A8070FD5FEF7A0F9054651
:103E2000B868800709D4FEF79AF9401B41F289313E
:103E30008842F5D34FF0030960E7B868616F20F45A
:103E400040700843B86059E7B0F1806F04D1201D7D
:103E500000F009F900B181462068000312D53868E6
:103E6000216E00F0A9F8206EB0F1006F02D100F0D1
:103E7000A8F807E0B0F1806F04D1201D00F0F3F83E
:103E800000B181462068400312D53868616E00F0A9
:103E900093F8606EB0F1006F02D100F092F807E085
:103EA000B0F1806F04D1201D00F0DDF800B1814633
:103EB0002068400460D53868A16E20F04050084367
:103EC0003860A06EB0F1805F28D1306820F080604B
:103ED0003060251DFEF743F980463068000105D5A6
:103EE000FEF73DF900F05DF8F7D33EE03069296850
:103EF00000F0A2F8E96800F058F800F067F8804692
:103F00003068000105D4FEF72AF900F04AF8F7D32B
:103F10002BE030692969084330612DE0B0F1005F82
:103F20002AD1306820F08050306004F11805FEF787
:103F300016F980463068800005D5FEF710F900F0CC
:103F400030F8F7D311E07069296800F0E7F8A96844
:103F500000F02BF800F042F880463068800007D46B
:103F6000FEF7FDF800F01DF8F7D34FF0030903E06A
:103F70007069E968084370612068000405D53868F5
:103F8000E16E20F08040084338602068C00305D50A
:103F90003868216F400051EA500038604846BDE85B
:103FA000F28FA0EB080003287047891E090620F055
:103FB000C06001F07E41704720F0406008433860E7
:103FC0007047F06840F48010F0607047084330613B
:103FD000306840F080603060FEF7C1B8084370611F
:103FE000306840F080503060FEF7B9B8F8B500F0A6
:103FF00031F807463068000105D5FEF7B0F8C01B60
:104000000328F7D30EE000F015F800F080F800F078
:104010001AF807463068000106D4FEF7A0F8C01B66
:104020000328F7D3032503E0306921690843306191
:104030002846F2BD3069216820F4FE4040EA0120A4
:104040003061306970473061306840F080603060C6
:10405000FEF785B8394E0446306820F08060306045
:104060000025FEF77CB8F8B5FFF7F4FF0746306887
:10407000000105D5FEF773F8C01B0328F7D314E041
:10408000FFF7D8FFA168891E090520F4C000490D7B
:1040900040EA4150FFF7D7FF07463068000106D4D9
:1040A000FEF75DF8C01B0328F7D3032503E0306952
:1040B0002169084330612846F2BDF8B500F035F8B3
:1040C00007463068800005D5FEF749F8C01B032875
:1040D000F7D314E07069216800F020F800F017F8B9
:1040E0007061306840F08050FFF7B1FF07463068DC
:1040F000800006D4FEF733F8C01B0328F7D303254E
:1041000003E07069E168084370612846F2BD6168A8
:1041100020F40030090940EA4140704720F4FE4095
:1041200040EA0120706170697047044E04463068AF
:1041300020F0805030600025FEF711B800100240DA
:104140008810024000700040DFF8BC00006800F4F6
:10415000C06070472C48016841F48041016070479D
:1041600029482A4A016821F48041016028490968E8
:10417000B1FBF2F13222514300E0491E11B1426914
:104180009205FAD4406980054CBF03200020704797
:104190001D490A68D208D2000A6001281D490A6830
:1041A00042F004020A600FBF30BF40BF20BF20BFF3
:1041B00011E015490A68D208D20042F001020A60F3
:1041C000012814490A6842F004020A600FBF30BF98
:1041D00040BF20BF20BF086820F00400086070477F
:1041E00009490A68D208D20042F002020A60012896
:1041F00008490A6842F004020A600FBF30BF40BF9E
:1042000020BF20BFE7E700000070004040420F00E1
:104210000000002010ED00E070B5040001D1012085
:1042200070BD04F15C05687818B92870204600F06C
:1042300075F90220687040F2017300F043F8E268FB
:104240009A4204D30021B2F5706F05D106E0B2F5B1
:10425000E06F4FF4805101D00026A662266B26B98C
:104260009A422CBF0222012222636268A3681A4389
:1042700023691A4363691A43A36903F400731A4359
:10428000E3691A43236A1A43A36A1A430260226B42
:10429000022A03D1026842F400620260A269636AE2
:1042A000120C02F004021A43636B1A43E3681A43C8
:1042B00011434160E16A016100206860012068707B
:1042C000002070BD2068016821F040010160704746
:1042D00010B50C461146A21CA8B0812AA8BF4220E6
:1042E0001FDA8DF81C008DF81D4022460DF11E00CE
:1042F000FDF776F900F03BF800F033F80C20ADF84C
:104300000600002107A80390A01CC0B20490012061
:10431000069001A8FDF72DFE00284CBFFF209DF858
:10432000000028B010BD00B589B08DF804008DF8EC
:1043300005101822002102A8FDF758F900F022F814
:104340000F2000F019F8022005900120079002A824
:10435000FDF70FFE00284CBFFF209DF8000009B0BC
:1043600000BD3F20ADF80400CDF814D070471822EE
:10437000002101A8FDF73AB9ADF80A00002101A813
:10438000049070473F20ADF80800CDF818D0704772
:104390004E48416911B90FF241010160416811B9FC
:1043A0000FF281014160816811B90FF285018160CE
:1043B000C16811B90FF28501C160016909B94449A9
:1043C0000161416911B90FF289014161816911B936
:1043D0000FF2D10181610AE01CB50FF2041218CA74
:1043E0006946062218C16946FDF7FAF813BD10B5F3
:1043F000384C1C2200212046FDF7F8F800202070E0
:10440000022060700820A0701020E0700020E08082
:1044100005202072002004EB40014881401C09283F
:10442000F9DB10BD082804BF0120FEF750BE70471D
:1044300004222949FF2000F047B9000080B504207C
:1044400000F0C4F9BDE80240002000F086B9000089
:1044500038B5FEF741FE01281C4C204D04D003283E
:1044600015D009280CD031BD2868012804D1207F3F
:10447000FEF782FA00202860FFF7E0FF022002E04A
:10448000FCF76DFD0020BDE83240FEF720BE286835
:1044900030B9207F43F60161FEF78BFA01202860D6
:1044A00031BD000010B584B000F05EFC094C00F096
:1044B0001F003C30A08084B0214668461C22FCF7D7
:1044C00025FB0FBC00F0A9F91FBD0000480E00201D
:1044D000B54B0008040F0020E13000085C0F0020FD
:1044E000123401E18002000000B500BF13009646BF
:1044F0009446103928BFA0E80C50FAD85FEA417CF6
:1045000028BF0CC048BF40F8042BC90728BF20F8BB
:10451000022B48BF00F8012B00BD0000F0B5044697
:1045200087B020684D49884240F095804C4D6868BE
:1045300040F00200686001A9686800F00200009085
:10454000009800F0AEF800F0ACF8A86940F4805094
:10455000A861A86900F4805000900098082001909C
:104560000220029000200390032004900520059073
:104570003C48FFF731FA402000F085F8802000F039
:1045800082F80220019001A901200290002000F091
:1045900071F8012202214FF09040FFF701FB01204A
:1045A000019001A930480290022000F063F82868C9
:1045B00040F00100286028682C4D00F001000090B8
:1045C0000098012068601020A8600020E86080202A
:1045D000286100206861A861E8614FF40056244F0B
:1045E0002E6207F114002860284600F02DFC206898
:1045F00029680C308860656501202864AC62002061
:104600006864A864EE658020E864EF630020286594
:104610006865A86505F13C0000F016FC2068E96BB0
:104620000C308860002205F13C00A0656C66012119
:104630000D20FEF741FE0D20FEF75BFE002201215A
:104640000C20FEF739FE0C20FEF753FE002202215B
:104650000620FEF731FE07B0F0BD0000003001403B
:10466000481002400004004800001110F80C00201F
:104670001C000240039003200490002005904FF09E
:104680009040FFF7A9B9019001A9022002900020F3
:10469000039003200490052005904FF09040FFF711
:1046A0009BB9686840F001006860686800F001002C
:1046B00000900098686840F001006860686800F049
:1046C0000100009000987047F8B504460F46154663
:1046D0000220FCF7DAFB08B9F020F2BD380001D166
:1046E000F120F2BDDFF86866342200213046FCF785
:1046F0007DFFFF21301DC1750021C18081750760DC
:10470000E10706F1240706D5002141F00101C1802F
:10471000072DB8BF3D73A10703D5C18841F0020141
:10472000C1801422002106F11C00FCF75FFF02206B
:1047300038700FF27D307860002038724020788128
:1047400006F11C00FCF7B3FB30B9102000F014F99F
:10475000102000F016F90020F2BD70B5DFF8F0551A
:1047600029784124302904BF697831292CD10028C7
:104770001EBFDFF8E005807800280FF2AD560ED09E
:1047800003223021202000F001F904001CD105F1A2
:104790001B0231460A20FCF77DFF32200DE000228B
:1047A0003021202000F0F2F804000DD105F11B02A9
:1047B00031461E20FCF76EFF352000F0E2F8332171
:1047C00005F11C00FCF7BFFB204670BD3EB501A9FA
:1047D000002200230CC1DFF87845A17AC90719D55A
:1047E0002178202918BF302914D1072812DA84F83B
:1047F000300000F04EF9FDF70FF805000BD100F086
:10480000ADF8608A8DF80600000A8DF8070000F008
:10481000AEF800E0412528463EBD0FB470B58CB01F
:1048200003A82021FEF790FD01A80021002206C068
:10483000DFF81C4520780025402804BF6078412817
:1048400040F086800120A0701E2203A8FCF7CEFE57
:104850009DF84000020003A904D1BDF844204A702D
:1048600002230DE001285ED19DF80C2042F00102E8
:104870008DF80C200323BDF844204A70120A8A7078
:10488000A27E82B19DF80C2042F004028DF80C202B
:104890009DF841203AB1022A45D19DF80C2042F002
:1048A00002028DF80C20A27A920712D59DF84220C0
:1048B0007AB1082A37D19DF80C2042F008028DF811
:1048C0000C20BDF846205A545B1CDBB2120A5A5425
:1048D0005B1C9DF8432042B3102A24D19DF80C2084
:1048E00042F010028DF80C200922012808BF08228E
:1048F0009DF80C00000744BF521ED2B29DF848003C
:104900009042B8BF0246EDB295420EDA10AE06EB09
:104910004500DBB2408958545B1CDBB2000A585496
:104920005B1C6D1CEFE7422014E003A80090DBB293
:10493000E189A0890022FCF76FFF050009D100F092
:104940000DF8E0898870000AC87000F010F800E0E7
:10495000412528460CB070BC5DF814FBA089636843
:104960008DF8040001A9000A487001AA70470020D0
:104970000871052109201847DFF8D4130870FEF7E5
:10498000A3BBDFF8CC134870FEF79EBB70B58CB0AC
:1049900004460D46164607A80FF2BC311022FCF75C
:1049A000B5F800210691059100960023DFF8A403D5
:1049B00000F1290190F828000390049107A80290C3
:1049C0002A461020019021460020FDF73FF80CB048
:1049D00070BD10B5DFF8784388B060890423C10743
:1049E00048BF0623800744BF9B1CDBB241F60D0085
:1049F000ADF81800012204F10C00009006A9012076
:104A0000FCF77FFE00283ED142F63720ADF81800B3
:104A10001E2304F10E00059006AA01200490012136
:104A20000A200390002002900190102000F02DF841
:104A3000002828D142F63820ADF81800012304F1EF
:104A4000120000F02DF8002002900190022000F0EA
:104A50001CF8C0B900F01DF80022FCF7DDFE90B98B
:104A6000A17A89070FD542F63920ADF81800012345
:104A700004F1140000F014F80220029000200190CC
:104A8000082000F002F808B010BD0090A089FCF7E3
:104A90006DBE04F1300000900123618AA089704747
:104AA000059006AA0020049001210A200390704777
:104AB0003EB500218DF80810411C007804280FD164
:104AC0000878A34CFF25052804D03E281CD0FF28D9
:104AD00032D037BD2078302803D160783B2802D00F
:104AE00037BD4028FCD188780028F9D13020FFF765
:104AF00043FF3120FFF745FF0020A076A070E07E45
:104B0000FCF7DEFDE57637BD881C01780129E7D189
:104B100010F8011F71B9B0F801002081E07EFCF7A8
:104B2000CFFDE576FCF7A9F9502816D03B20FFF71A
:104B300028FF37BD3120FAE7881C40F20142018886
:104B4000914204D040F6134291420BD037BD2078F9
:104B5000302804BF60783B28C2D14020FFF70CFF0B
:104B60004120E4E7801C4188027940798DF80800F3
:104B7000A08A401C814201BF2078402860784128EB
:104B8000AED19DF8083020890092012B02AB019331
:104B90000BD100230022FCF7BFFE0028A0D16368E0
:104BA000002200210B20984737BD80230122FCF70B
:104BB000B3FE37BD38B500208DF80000644C207876
:104BC000102804D0202825D0302834D09AE0FCF7D3
:104BD00054F92028FAD1FFF7FCFE8DF8000060B9E7
:104BE00004F11C00FCF799F941F60D00FCF7E3F91C
:104BF0002020FFF7C1FEFF2082E000F086F80020B1
:104C0000FFF7BAFEFF20FFF7BCFE04F11C00FCF723
:104C100070F977E0FCF731F9302873D1FCF731F9FE
:104C200031286FD13020FFF7A7FE3120FFF7A9FE12
:104C300000F06BF866E060780FF2ED0533280AD0DB
:104C4000342812D0362823D037282BD039283FD00B
:104C50003B284DD056E0FCF7E9FE00288DF8000017
:104C600050D100F057F834204AE0002230212020B3
:104C7000FFF78CFE00288DF8000043D100F04FF8BC
:104C80003520FFF77EFE04F11B0229461E201CE0A2
:104C9000FCF7CCFE00288DF8000033D100F03AF884
:104CA00037202DE000224FF47A614FF4C860FFF7FF
:104CB0006DFE8DF8000028BB00F031F83820FFF7BA
:104CC00060FE04F11B0229463C20FCF7E3FC19E0DE
:104CD000FCF7ACFE8DF80000A0B93120FFF751FEC3
:104CE00000F018F86368002200210720984709E0C7
:104CF000FCF7C7F8552805D14020FFF73DFE4220BC
:104D0000FFF73FFE9DF8000032BD63686A4601214F
:104D100008201847312104F11C00FCF714B9332195
:104D200004F11C00FCF70FB90948017830290DD1B6
:104D30004078322804D0352804D0382804D0704771
:104D4000332002E0362000E039201AE670470000E8
:104D5000100E00206C0B00200948656172745261CE
:104D6000746553656E736F72F8B5344F3846FBF750
:104D700089FF0446381DFBF785FF054607F108004B
:104D8000FBF780FF064607F10C00FBF77BFF23785B
:104D90002B492C4A002B40D12B6802FB03132B60BC
:104DA000082702FB03132B6002FB03132B6002FB9B
:104DB00003132B6002FB03132B6002FB03132B6016
:104DC00002FB03132B6002FB03132B600346D5F891
:104DD00000C002FB0C1CC5F800C043F804CB7F1ECA
:104DE000D5F800C002FB0C1CC5F800C043F804CB8A
:104DF000D5F800C002FB0C1CC5F800C043F804CB7A
:104E0000D5F800C002FB0C1CC5F800C043F804CB69
:104E1000DDD1C36F3360012323702B6802FB0311C4
:104E20002960317801F01F0150F8212032602A6892
:104E300040F82120306880008008F2BDEC0000209E
:104E40005FF36E3C0D66190010B508B9012010BD66
:104E500000F124014A7802B90A7002224A700268FD
:104E6000136884686FF30D132343C46823430469F4
:104E700023434469234384692343C4692343046A65
:104E8000234313608268B2F5804F73D00368DFF864
:104E9000F840DFF8F820A3421DD0DFF8F440A34229
:104EA00024D0DFF8F040A3422CD0DFF8EC40A3423E
:104EB00034D0DFF8E840A3423CD0DFF8E440A3421E
:104EC00044D0DFF8E040A3424CD0DFF8DC40DFF80C
:104ED000DC20A34206D113681B091B0100F050F827
:104EE000184346E0DFF8C840A34207D1136823F017
:104EF000F00300F045F843EA00103AE0DFF8B44070
:104F0000A34207D1136823F4706300F039F843EA31
:104F100000202EE0DFF8A040A34207D1136823F45D
:104F2000704300F02DF843EA003022E0DFF88C40B7
:104F3000A34207D1136823F4702300F021F843EA59
:104F4000004016E0DFF87840A34207D1136823F44D
:104F5000700300F015F843EA00500AE0DFF86440FF
:104F6000A34207D1136823F0706300F009F843EA05
:104F7000006010600020486101204870002010BDD2
:104F8000136013684068704708000240A8000240A0
:104F90001C00024030000240440002405800024021
:104FA0006C0002408000024008040240A804024055
:104FB0001C040240300402404404024058040240F1
:104FC0006C0402408004024010B4364A00211346AB
:104FD00053F8084B844205D1002342F8313002EBEC
:104FE000C10113E053F8084B491C84421EBF491C01
:104FF00053F8084B84421EBF491C53F8084B8442A7
:10500000EAD0491C1029E3D310BC70474B6010BC98
:10501000704770B4234C0023254655F8086B8E4228
:1050200009D1014604EBC303012A04BF5A68511891
:10503000596070BC704755F8086B5B1C8E421EBFF0
:105040005B1C55F8086B8E421EBF5B1C55F8086B45
:105050008E42E6D05B1C102BDFD370BC704710B4BF
:10506000104A0021134653F8084B844204D102EB46
:10507000C10010BC4068704753F8084B491C84427B
:105080001EBF491C53F8084B84421EBF491C53F8ED
:10509000084B8442EBD0491C1029E4D310BC0020FB
:1050A00070470000FC0B00202DE9F04104460D463E
:1050B00020780321084216461F4658D0204600F0AB
:1050C0009AF8002853D115B1D5E900018619012FAE
:1050D0003DD12088C00416D5A16904F13D022046C7
:1050E00000F0A6F8626A804602B92269E1682046AB
:1050F00000F09EF8A6EB08010E1AA26AE1682046AD
:1051000000F096F8361A46BB20884FF4405108420A
:105110000ED06068E0602061A06260616068E0625B
:1051200004F13D00A06104F12400E0610020606210
:105130002DB1D5E9020104F13002C2E90001208855
:105140004CF6FF61084020800020BDE8F081022F6E
:1051500003D04FB916F1010F09D094F903003A4674
:10516000314600F06AF8064616F1010FCCD100F086
:105170008BF8232101604FF0FF30BDE8F081000083
:1051800038B500F087F80446208880042ED565687D
:1051900009E04A1B294600F07FF810F1010F18BF03
:1051A00000280CD04519E16894F903008D42F0D332
:1051B0000022002100F070F810F1010F0DD160689D
:1051C000E0606061E062208840F40070208020464A
:1051D00000F061F84FF0FF3032BD6568E560656151
:1051E000E5624DF6FF71208808402080204600F0DF
:1051F00052F8002032BDF8B5A0B9C046C046002420
:105200000A4D08264FF0FF37286820B1FFF7B8FF96
:10521000002848BF3C462D1D761EF5D1C046C0462D
:105220002046F2BDBDE8F240AAE70000C40000201D
:10523000914234BF501A0020704730B583B004004B
:105240000D00012A02D1FFF70AFF07E0022A07D169
:1052500000940020019069460C20ABBE2D1801E09F
:10526000002A0CD10094019569460A20ABBE0028A3
:1052700005D1002221002800FFF7CBFE01E000202D
:10528000C04303B030BD00000148FBF7FBBC000089
:10529000EC0100207047704780B5002802D400F070
:1052A00003F802BD002002BD80B5002901D1002015
:1052B00002BD012801D0022802D100F004F802BD8D
:1052C00000F011F802BD30B583B00C0015000120CC
:1052D00000F032F800900194029569460520ABBEBB
:1052E000281A03B030BD10B584B003001400009339
:1052F0000191029469460520ABBE01221900201AD3
:10530000FFF787FE04B010BD80B500F033F802004F
:105310000023DB431068984204D011000220ABBE8A
:10532000002010605068984204D0111D0220ABBECE
:105330000020506001BD000010B584B0040000F0F2
:1053400019F8A100421810680021C94388420DD104
:1053500007A00090002C01D1002000E00420019063
:105360000320029069460120ABBE106004B010BD5E
:105370003A74740000487047E400002010B50446F9
:10538000E0686169884252D3218849F202020A40EA
:10539000022A08D008044CBF4FF400704FF4844038
:1053A000084320803CE001F4C041B1F5C04F06D174
:1053B000A168884203D32046FFF71DFF80BB2088E9
:1053C0004FF44061084202BF606804F13D01884229
:1053D00017D14FF40070FBF723FB606030B904F184
:1053E0003D006060E060401CA0600AE0218841F060
:1053F00040012180E060A06200F500716068A1605A
:10540000E06260682061A0686061207840070AD58A
:1054100002220021204600F00CF810F1010F02D109
:105420004FF0FF3010BD208840F4C04020800020A5
:1054300010BD70B50C461546FFF72CFF06462B46EF
:1054400022460021FFF730FE04463046FFF723FFD7
:10545000204670BD7047FEE770477047704780B5C3
:10546000FCF778FE1B480168491C016001BDFDF78F
:10547000B9B90120FEF799BB80B54FF40050FEF793
:1054800094FB15480178491C017001BD1348806DDB
:105490000068016889070AD5114988422CBF114864
:1054A0001148006810F0200018BFFDF726BC7047B7
:1054B0000A48406D0068016889070AD50849884292
:1054C0002CBF08480848006810F4007018BFFDF7AA
:1054D000B2BC7047640F00206C0F0020900C0020BD
:1054E0008100024000040240000002400E480F4AC2
:1054F000016841F4700101600D48016841F001014B
:105500000160002181600168114001604FF4805109
:10551000C160016821F480210160002181614FF0A8
:10552000006004490860704788ED00E0FFFFF6EA7C
:105530000010024008ED00E0000000000000000044
:105540000102030406070809A0860100400D0300BC
:10555000801A060000350C0040420F0080841E00B7
:1055600000093D0000127A000024F40000366E01AC
:105570000048E801006CDC020178090626D51C4AC7
:1055800013680021834203D1002342F821301BE03D
:105590005368012183421EBF022193688342F3D0E6
:1055A000D368032183421EBF042113698342EBD0D9
:1055B0005369052183421EBF0621936983421EBFA2
:1055C0000721D3698342DFD0FBF7CCBA00210180E9
:1055D0004FF0FF31C17000F13D014160C1600161D8
:1055E00081624161C162816100F12401C161704742
:1055F000C400002038B5044603212078084202D0B8
:105600006056002809D5C046C0462046FFF7B4FFC3
:10561000C046C0464FF0FF3527E02046FFF7EBFDC0
:105620000546C046C0462078400644BF6068FBF788
:1056300099FA0020606094F90300022804D900F070
:1056400016F808B14FF0FF35A06B48B100F01CF818
:1056500008B14FF0FF35A06BFBF784FA0020A06380
:105660002046FFF789FFC046C046284632BD10B528
:1056700082B00200009269460220ABBE0400100016
:10568000FFF7A2FC200016BD00B583B00090FBF729
:1056900079F9019069460E20ABBE03B000BD000051
:1056A00010B5144C206808B1FFF7A4FF606808B17A
:1056B000FFF7A0FFA06808B1FFF79CFFE06808B102
:1056C000FFF798FF206908B1FFF794FF606908B100
:1056D000FFF790FFA06908B1FFF78CFFE06908B100
:1056E000FFF788FFBDE81040002200214FF0FF3097
:1056F000FFF7D2BDC400002038B505460846FFF7C5
:10570000C9FD0446E0686169884204D32046FFF77A
:1057100035FE002810D4E068401CE06000F8015D10
:105720002088010504D440050CD5EDB20A2D09D11D
:105730002046FFF760FD28B12046FFF7ACFD4FF093
:10574000FF3032BD2046FFF7A6FDE8B232BD19E0BA
:1057500050F8041BCB0744BFA9F101035918121FCD
:105760000023042A41F8043BF9D25FEA827C0B460D
:1057700004D54FF0000CA1F800C09B1CD10744BF1A
:105780000021197050F8042B002AE1D1704730B580
:10579000016842688468091801EB5203D20748BFC8
:1057A0004C440C30994200D130BD11F9012B11F855
:1057B000015B002A04F8015B02D5521CF9D1F1E724
:1057C000521EF4D5EEE7000010B5074979441831B0
:1057D000064C7C44163404E00A68081D51188847BA
:1057E0000146A142F8D110BD2C0000004800000085
:1057F0004EF68851CEF20001086840F4700008604F
:10580000BFF34F8FBFF36F8F4FF00070E1EE100AC0
:10581000704700003BFFFFFF80070000F0070020FB
:10582000000000006BFFFFFFD4010000100100002A
:105830000000002000F00BF8002801D0FFF7C4FFA3
:105840000020C046C046FBF7D9FD00F002F8012059
:10585000704700F001B800000746FFF721FF384607
:1058600000F002F8FBE7000080B5FFF74DFD024AAB
:1058700011001820ABBEFBE72600020038B5044635
:105880000D46284600F006F8A84218BF002420461E
:1058900032BD00000149FFF72FBF00BF44000020C8
:1058A0000148804701480047ED540008B1580008FE
:1058B000C046C046FFF79CFFFFF7BCFFE8030000AF
:1058C000FFF7FEBFFFF7FEBFFFF7FEBFFFF7FEBF0C
:1058D000FFF7FEBFFFF7FEBFFFF7FEBFFFF7FEBFFC
:1058E000FFF7FEBFFFF7FEBFFFF7FEBFFFF7FEBFEC
:1058F000FFF7FEBFFFF7FEBFFFF7FEBFFFF7FEBFDC
:10590000FFF7FEBFFFF7FEBFFFF7FEBFFFF7FEBFCB
:10591000FFF7FEBFFFF7FEBFFFF7FEBFFFF7FEBFBB
:10592000FFF7FEBFFFF7FEBFFFF7FEBFFFF7FEBFAB
:10593000FFF7FEBFFFF7FEBFFFF7FEBFFFF7FEBF9B
:10594000FFF7FEBFFFF7FEBFFFF7FEBFFFF7FEBF8B
:10595000FFF7FEBFFFF7FEBFFFF7FEBFFFF7FEBF7B
:10596000FFF7FEBFFFF7FEBFFFF7FEBFFFF7FEBF6B
:10597000FFF7FEBFFFF7FEBFFFF7FEBFFFF7FEBF5B
:10598000FFF7FEBFFFF7FEBFFFF7FEBFFFF7FEBF4B
:10599000FFF7FEBFFFF7FEBFFFF7FEBFFFF7FEBF3B
:1059A000FFF7FEBFFFF7FEBFFFF7FEBFFFF7FEBF2B
:1059B000FFF7FEBFFFF7FEBFFFF7FEBFFFF7FEBF1B
:1059C000FFF7FEBFFFF7FEBFFFF7FEBFFFF7FEBF0B
:1059D000FFF7FEBFFFF7FEBFFFF7FEBFFFF7FEBFFB
:1059E000FFF7FEBFFFF7FEBFFFF7FEBFFFF7FEBFEB
:1059F000FFF7FEBFFFF7FEBFFFF7FEBF2300093D25
:105A0000000104000041000020420000204100008D
:105A1000204100002041000020410000202800001B
:105A200020E0001F02040101C00D0020100E002024
:105A3000C00D0020C00D0020C00D002081000020FE
:105A400068000020E0001F02080202700D0020C064
:105A50000D0020700D0020700D0020700D0020C181
:105A6000000020A8000020E0000B040000204400FB
:105A7000002084000020EC00F8FFFC000001810001
:045A800081000000A1
:00000001FF
